{
  "_format": "hh-sol-artifact-1",
  "contractName": "DecaNFT",
  "sourceName": "contracts/DecaNFT.sol",
  "address": "0x893561df8c0f4a1309268527EFED8654Ba657892",
  "abi": [
    {
      "anonymous": false,
      "inputs": [
        {
          "indexed": false,
          "internalType": "address",
          "name": "previousAdmin",
          "type": "address"
        },
        {
          "indexed": false,
          "internalType": "address",
          "name": "newAdmin",
          "type": "address"
        }
      ],
      "name": "AdminChanged",
      "type": "event"
    },
    {
      "anonymous": false,
      "inputs": [
        {
          "indexed": true,
          "internalType": "address",
          "name": "owner",
          "type": "address"
        },
        {
          "indexed": true,
          "internalType": "address",
          "name": "approved",
          "type": "address"
        },
        {
          "indexed": true,
          "internalType": "uint256",
          "name": "tokenId",
          "type": "uint256"
        }
      ],
      "name": "Approval",
      "type": "event"
    },
    {
      "anonymous": false,
      "inputs": [
        {
          "indexed": true,
          "internalType": "address",
          "name": "owner",
          "type": "address"
        },
        {
          "indexed": true,
          "internalType": "address",
          "name": "operator",
          "type": "address"
        },
        {
          "indexed": false,
          "internalType": "bool",
          "name": "approved",
          "type": "bool"
        }
      ],
      "name": "ApprovalForAll",
      "type": "event"
    },
    {
      "anonymous": false,
      "inputs": [
        {
          "indexed": true,
          "internalType": "address",
          "name": "beacon",
          "type": "address"
        }
      ],
      "name": "BeaconUpgraded",
      "type": "event"
    },
    {
      "anonymous": false,
      "inputs": [
        {
          "indexed": false,
          "internalType": "uint8",
          "name": "version",
          "type": "uint8"
        }
      ],
      "name": "Initialized",
      "type": "event"
    },
    {
      "anonymous": false,
      "inputs": [
        {
          "indexed": true,
          "internalType": "address",
          "name": "recipient",
          "type": "address"
        },
        {
          "indexed": false,
          "internalType": "uint256",
          "name": "quantity",
          "type": "uint256"
        },
        {
          "indexed": false,
          "internalType": "uint256",
          "name": "fromIndex",
          "type": "uint256"
        }
      ],
      "name": "Mint",
      "type": "event"
    },
    {
      "anonymous": false,
      "inputs": [
        {
          "indexed": false,
          "internalType": "bool",
          "name": "state",
          "type": "bool"
        }
      ],
      "name": "MintStateChanged",
      "type": "event"
    },
    {
      "anonymous": false,
      "inputs": [
        {
          "indexed": true,
          "internalType": "address",
          "name": "previousOwner",
          "type": "address"
        },
        {
          "indexed": true,
          "internalType": "address",
          "name": "newOwner",
          "type": "address"
        }
      ],
      "name": "OwnershipTransferred",
      "type": "event"
    },
    {
      "anonymous": false,
      "inputs": [
        {
          "indexed": true,
          "internalType": "address",
          "name": "from",
          "type": "address"
        },
        {
          "indexed": true,
          "internalType": "address",
          "name": "to",
          "type": "address"
        },
        {
          "indexed": true,
          "internalType": "uint256",
          "name": "tokenId",
          "type": "uint256"
        }
      ],
      "name": "Transfer",
      "type": "event"
    },
    {
      "anonymous": false,
      "inputs": [
        {
          "indexed": true,
          "internalType": "address",
          "name": "recipient",
          "type": "address"
        },
        {
          "indexed": false,
          "internalType": "uint256",
          "name": "quantity",
          "type": "uint256"
        }
      ],
      "name": "TreasuryMint",
      "type": "event"
    },
    {
      "anonymous": false,
      "inputs": [
        {
          "indexed": true,
          "internalType": "address",
          "name": "implementation",
          "type": "address"
        }
      ],
      "name": "Upgraded",
      "type": "event"
    },
    {
      "inputs": [],
      "name": "MAX_ELEMENTS",
      "outputs": [
        {
          "internalType": "uint256",
          "name": "",
          "type": "uint256"
        }
      ],
      "stateMutability": "view",
      "type": "function"
    },
    {
      "inputs": [],
      "name": "_paused",
      "outputs": [
        {
          "internalType": "bool",
          "name": "",
          "type": "bool"
        }
      ],
      "stateMutability": "view",
      "type": "function"
    },
    {
      "inputs": [
        {
          "internalType": "address",
          "name": "to",
          "type": "address"
        },
        {
          "internalType": "uint256",
          "name": "tokenId",
          "type": "uint256"
        }
      ],
      "name": "approve",
      "outputs": [],
      "stateMutability": "nonpayable",
      "type": "function"
    },
    {
      "inputs": [
        {
          "internalType": "address",
          "name": "owner",
          "type": "address"
        }
      ],
      "name": "balanceOf",
      "outputs": [
        {
          "internalType": "uint256",
          "name": "",
          "type": "uint256"
        }
      ],
      "stateMutability": "view",
      "type": "function"
    },
    {
      "inputs": [],
      "name": "baseTokenURI",
      "outputs": [
        {
          "internalType": "string",
          "name": "",
          "type": "string"
        }
      ],
      "stateMutability": "view",
      "type": "function"
    },
    {
      "inputs": [
        {
          "internalType": "bool",
          "name": "_whiteListingPeriod",
          "type": "bool"
        }
      ],
      "name": "enableWhiteListing",
      "outputs": [],
      "stateMutability": "nonpayable",
      "type": "function"
    },
    {
      "inputs": [
        {
          "internalType": "uint256",
          "name": "tokenId",
          "type": "uint256"
        }
      ],
      "name": "getApproved",
      "outputs": [
        {
          "internalType": "address",
          "name": "",
          "type": "address"
        }
      ],
      "stateMutability": "view",
      "type": "function"
    },
    {
      "inputs": [
        {
          "internalType": "string",
          "name": "baseURI",
          "type": "string"
        },
        {
          "internalType": "string",
          "name": "_name",
          "type": "string"
        },
        {
          "internalType": "string",
          "name": "_symbol",
          "type": "string"
        }
      ],
      "name": "initialize",
      "outputs": [],
      "stateMutability": "nonpayable",
      "type": "function"
    },
    {
      "inputs": [
        {
          "internalType": "address",
          "name": "owner",
          "type": "address"
        },
        {
          "internalType": "address",
          "name": "operator",
          "type": "address"
        }
      ],
      "name": "isApprovedForAll",
      "outputs": [
        {
          "internalType": "bool",
          "name": "",
          "type": "bool"
        }
      ],
      "stateMutability": "view",
      "type": "function"
    },
    {
      "inputs": [],
      "name": "mintLimit",
      "outputs": [
        {
          "internalType": "uint256",
          "name": "",
          "type": "uint256"
        }
      ],
      "stateMutability": "view",
      "type": "function"
    },
    {
      "inputs": [
        {
          "internalType": "uint256",
          "name": "_quantity",
          "type": "uint256"
        },
        {
          "internalType": "bytes32[]",
          "name": "proof",
          "type": "bytes32[]"
        }
      ],
      "name": "mintNFT",
      "outputs": [],
      "stateMutability": "payable",
      "type": "function"
    },
    {
      "inputs": [],
      "name": "mintPrice",
      "outputs": [
        {
          "internalType": "uint256",
          "name": "",
          "type": "uint256"
        }
      ],
      "stateMutability": "view",
      "type": "function"
    },
    {
      "inputs": [],
      "name": "mintState",
      "outputs": [
        {
          "internalType": "bool",
          "name": "",
          "type": "bool"
        }
      ],
      "stateMutability": "view",
      "type": "function"
    },
    {
      "inputs": [],
      "name": "name",
      "outputs": [
        {
          "internalType": "string",
          "name": "",
          "type": "string"
        }
      ],
      "stateMutability": "view",
      "type": "function"
    },
    {
      "inputs": [],
      "name": "owner",
      "outputs": [
        {
          "internalType": "address",
          "name": "",
          "type": "address"
        }
      ],
      "stateMutability": "view",
      "type": "function"
    },
    {
      "inputs": [
        {
          "internalType": "uint256",
          "name": "tokenId",
          "type": "uint256"
        }
      ],
      "name": "ownerOf",
      "outputs": [
        {
          "internalType": "address",
          "name": "",
          "type": "address"
        }
      ],
      "stateMutability": "view",
      "type": "function"
    },
    {
      "inputs": [],
      "name": "pause",
      "outputs": [],
      "stateMutability": "nonpayable",
      "type": "function"
    },
    {
      "inputs": [],
      "name": "prerevealTokenURI",
      "outputs": [
        {
          "internalType": "string",
          "name": "",
          "type": "string"
        }
      ],
      "stateMutability": "view",
      "type": "function"
    },
    {
      "inputs": [],
      "name": "proxiableUUID",
      "outputs": [
        {
          "internalType": "bytes32",
          "name": "",
          "type": "bytes32"
        }
      ],
      "stateMutability": "view",
      "type": "function"
    },
    {
      "inputs": [],
      "name": "renounceOwnership",
      "outputs": [],
      "stateMutability": "nonpayable",
      "type": "function"
    },
    {
      "inputs": [],
      "name": "revealed",
      "outputs": [
        {
          "internalType": "bool",
          "name": "",
          "type": "bool"
        }
      ],
      "stateMutability": "view",
      "type": "function"
    },
    {
      "inputs": [
        {
          "internalType": "uint256",
          "name": "tokenId",
          "type": "uint256"
        },
        {
          "internalType": "uint256",
          "name": "salePrice",
          "type": "uint256"
        }
      ],
      "name": "royaltyInfo",
      "outputs": [
        {
          "internalType": "address",
          "name": "",
          "type": "address"
        },
        {
          "internalType": "uint256",
          "name": "",
          "type": "uint256"
        }
      ],
      "stateMutability": "view",
      "type": "function"
    },
    {
      "inputs": [
        {
          "internalType": "address",
          "name": "from",
          "type": "address"
        },
        {
          "internalType": "address",
          "name": "to",
          "type": "address"
        },
        {
          "internalType": "uint256",
          "name": "tokenId",
          "type": "uint256"
        }
      ],
      "name": "safeTransferFrom",
      "outputs": [],
      "stateMutability": "nonpayable",
      "type": "function"
    },
    {
      "inputs": [
        {
          "internalType": "address",
          "name": "from",
          "type": "address"
        },
        {
          "internalType": "address",
          "name": "to",
          "type": "address"
        },
        {
          "internalType": "uint256",
          "name": "tokenId",
          "type": "uint256"
        },
        {
          "internalType": "bytes",
          "name": "data",
          "type": "bytes"
        }
      ],
      "name": "safeTransferFrom",
      "outputs": [],
      "stateMutability": "nonpayable",
      "type": "function"
    },
    {
      "inputs": [
        {
          "internalType": "address",
          "name": "operator",
          "type": "address"
        },
        {
          "internalType": "bool",
          "name": "approved",
          "type": "bool"
        }
      ],
      "name": "setApprovalForAll",
      "outputs": [],
      "stateMutability": "nonpayable",
      "type": "function"
    },
    {
      "inputs": [
        {
          "internalType": "string",
          "name": "baseURI",
          "type": "string"
        }
      ],
      "name": "setBaseURI",
      "outputs": [],
      "stateMutability": "nonpayable",
      "type": "function"
    },
    {
      "inputs": [
        {
          "internalType": "address",
          "name": "receiver",
          "type": "address"
        },
        {
          "internalType": "uint96",
          "name": "feeNumerator",
          "type": "uint96"
        }
      ],
      "name": "setDefaultRoyalty",
      "outputs": [],
      "stateMutability": "nonpayable",
      "type": "function"
    },
    {
      "inputs": [
        {
          "internalType": "bytes32",
          "name": "newRoot",
          "type": "bytes32"
        }
      ],
      "name": "setMerkleRoot",
      "outputs": [
        {
          "internalType": "bytes32",
          "name": "",
          "type": "bytes32"
        }
      ],
      "stateMutability": "nonpayable",
      "type": "function"
    },
    {
      "inputs": [
        {
          "internalType": "uint256",
          "name": "_mintLimit",
          "type": "uint256"
        }
      ],
      "name": "setMintLimit",
      "outputs": [],
      "stateMutability": "nonpayable",
      "type": "function"
    },
    {
      "inputs": [
        {
          "internalType": "uint256",
          "name": "_price",
          "type": "uint256"
        }
      ],
      "name": "setMintPrice",
      "outputs": [],
      "stateMutability": "nonpayable",
      "type": "function"
    },
    {
      "inputs": [
        {
          "internalType": "bool",
          "name": "_mintState",
          "type": "bool"
        }
      ],
      "name": "setMintState",
      "outputs": [],
      "stateMutability": "nonpayable",
      "type": "function"
    },
    {
      "inputs": [
        {
          "internalType": "string",
          "name": "prerevealURI",
          "type": "string"
        }
      ],
      "name": "setPrerevealTokenURI",
      "outputs": [],
      "stateMutability": "nonpayable",
      "type": "function"
    },
    {
      "inputs": [
        {
          "internalType": "bool",
          "name": "_revealed",
          "type": "bool"
        }
      ],
      "name": "setRevealed",
      "outputs": [],
      "stateMutability": "nonpayable",
      "type": "function"
    },
    {
      "inputs": [
        {
          "internalType": "uint256",
          "name": "_startTokenId",
          "type": "uint256"
        }
      ],
      "name": "setStartTokenId",
      "outputs": [],
      "stateMutability": "nonpayable",
      "type": "function"
    },
    {
      "inputs": [
        {
          "internalType": "address",
          "name": "_treasuryAddress",
          "type": "address"
        }
      ],
      "name": "setTreasuryAddress",
      "outputs": [],
      "stateMutability": "nonpayable",
      "type": "function"
    },
    {
      "inputs": [],
      "name": "startTokenId",
      "outputs": [
        {
          "internalType": "uint256",
          "name": "",
          "type": "uint256"
        }
      ],
      "stateMutability": "view",
      "type": "function"
    },
    {
      "inputs": [
        {
          "internalType": "bytes4",
          "name": "interfaceId",
          "type": "bytes4"
        }
      ],
      "name": "supportsInterface",
      "outputs": [
        {
          "internalType": "bool",
          "name": "",
          "type": "bool"
        }
      ],
      "stateMutability": "view",
      "type": "function"
    },
    {
      "inputs": [],
      "name": "symbol",
      "outputs": [
        {
          "internalType": "string",
          "name": "",
          "type": "string"
        }
      ],
      "stateMutability": "view",
      "type": "function"
    },
    {
      "inputs": [
        {
          "internalType": "uint256",
          "name": "tokenId",
          "type": "uint256"
        }
      ],
      "name": "tokenURI",
      "outputs": [
        {
          "internalType": "string",
          "name": "",
          "type": "string"
        }
      ],
      "stateMutability": "view",
      "type": "function"
    },
    {
      "inputs": [],
      "name": "totalSupply",
      "outputs": [
        {
          "internalType": "uint256",
          "name": "",
          "type": "uint256"
        }
      ],
      "stateMutability": "view",
      "type": "function"
    },
    {
      "inputs": [
        {
          "internalType": "address",
          "name": "from",
          "type": "address"
        },
        {
          "internalType": "address",
          "name": "to",
          "type": "address"
        },
        {
          "internalType": "uint256",
          "name": "tokenId",
          "type": "uint256"
        }
      ],
      "name": "transferFrom",
      "outputs": [],
      "stateMutability": "nonpayable",
      "type": "function"
    },
    {
      "inputs": [
        {
          "internalType": "address",
          "name": "newOwner",
          "type": "address"
        }
      ],
      "name": "transferOwnership",
      "outputs": [],
      "stateMutability": "nonpayable",
      "type": "function"
    },
    {
      "inputs": [],
      "name": "treasuryAddress",
      "outputs": [
        {
          "internalType": "address",
          "name": "",
          "type": "address"
        }
      ],
      "stateMutability": "view",
      "type": "function"
    },
    {
      "inputs": [
        {
          "internalType": "uint256",
          "name": "_quantity",
          "type": "uint256"
        }
      ],
      "name": "treasuryMint",
      "outputs": [],
      "stateMutability": "nonpayable",
      "type": "function"
    },
    {
      "inputs": [],
      "name": "treasuryMintedCount",
      "outputs": [
        {
          "internalType": "uint256",
          "name": "",
          "type": "uint256"
        }
      ],
      "stateMutability": "view",
      "type": "function"
    },
    {
      "inputs": [],
      "name": "unpause",
      "outputs": [],
      "stateMutability": "nonpayable",
      "type": "function"
    },
    {
      "inputs": [
        {
          "internalType": "address",
          "name": "newImplementation",
          "type": "address"
        }
      ],
      "name": "upgradeTo",
      "outputs": [],
      "stateMutability": "nonpayable",
      "type": "function"
    },
    {
      "inputs": [
        {
          "internalType": "address",
          "name": "newImplementation",
          "type": "address"
        },
        {
          "internalType": "bytes",
          "name": "data",
          "type": "bytes"
        }
      ],
      "name": "upgradeToAndCall",
      "outputs": [],
      "stateMutability": "payable",
      "type": "function"
    },
    {
      "inputs": [
        {
          "internalType": "bytes32[]",
          "name": "_merkleProof",
          "type": "bytes32[]"
        },
        {
          "internalType": "address",
          "name": "addr",
          "type": "address"
        }
      ],
      "name": "validateAddress",
      "outputs": [
        {
          "internalType": "bool",
          "name": "",
          "type": "bool"
        }
      ],
      "stateMutability": "view",
      "type": "function"
    },
    {
      "inputs": [
        {
          "internalType": "address",
          "name": "_owner",
          "type": "address"
        }
      ],
      "name": "walletOfOwner",
      "outputs": [
        {
          "internalType": "uint256[]",
          "name": "",
          "type": "uint256[]"
        }
      ],
      "stateMutability": "view",
      "type": "function"
    },
    {
      "inputs": [],
      "name": "whiteListingPeriod",
      "outputs": [
        {
          "internalType": "bool",
          "name": "",
          "type": "bool"
        }
      ],
      "stateMutability": "view",
      "type": "function"
    }
  ],
  "bytecode": "0x60a06040523060601b60805234801561001757600080fd5b5060805160601c6135ba61005260003960008181610ca201528181610ce201528181610f2901528181610f690152610ff801526135ba6000f3fe6080604052600436106102e45760003560e01c8063715018a611610190578063c87b56dd116100dc578063e985e9c511610095578063f4a0a5281161006f578063f4a0a528146108c6578063f4ad0f97146108e6578063f68dcaa2146108fb578063f769572d1461091c57600080fd5b8063e985e9c51461083d578063efdc778814610886578063f2fde38b146108a657600080fd5b8063c87b56dd146107a7578063d0aa0a0d146107c7578063d547cfb7146107de578063d62fd296146107f3578063e0a8085314610806578063e6798baa1461082657600080fd5b80639e6a1d7d11610149578063b09d28cc11610123578063b09d28cc14610724578063b88d4fde14610744578063c051e38a14610764578063c5f956af1461078657600080fd5b80639e6a1d7d146106c4578063a22cb465146106e4578063a6487c531461070457600080fd5b8063715018a6146106305780637cb64759146106455780638456cb59146106655780638da5cb5b1461067a57806395d89b4114610698578063996517cf146106ad57600080fd5b80633659cfe61161024f57806351830227116102085780636352211e116101e25780636352211e146105b95780636605bfda146105d95780636817c76c146105f957806370a082311461061057600080fd5b8063518302271461056957806352d1902d1461058457806355f804b31461059957600080fd5b80633659cfe6146104b45780633f4ba83a146104d457806342842e0e146104e9578063438b6300146105095780634cf64173146105365780634f1ef2861461055657600080fd5b806318160ddd116102a157806318160ddd146103da57806323b872dd146103ff57806326412aca1461041f5780632a55205a1461043f5780632dfd8fae1461047e5780633502a7161461049e57600080fd5b806301ffc9a7146102e957806304634d8d1461031e57806306fdde0314610340578063081812fc14610362578063095ea7b31461039a57806316c61ccc146103ba575b600080fd5b3480156102f557600080fd5b50610309610304366004612fde565b61093c565b60405190151581526020015b60405180910390f35b34801561032a57600080fd5b5061033e610339366004612f10565b61095c565b005b34801561034c57600080fd5b50610355610972565b6040516103159190613217565b34801561036e57600080fd5b5061038261037d366004612fae565b610a04565b6040516001600160a01b039091168152602001610315565b3480156103a657600080fd5b5061033e6103b5366004612ee7565b610a2b565b3480156103c657600080fd5b506101635461030990610100900460ff1681565b3480156103e657600080fd5b506103f16101675481565b604051908152602001610315565b34801561040b57600080fd5b5061033e61041a366004612dd1565b610b46565b34801561042b57600080fd5b5061033e61043a366004612f94565b610b77565b34801561044b57600080fd5b5061045f61045a366004613108565b610bdb565b604080516001600160a01b039093168352602083019190915201610315565b34801561048a57600080fd5b5061033e610499366004612fae565b610c89565b3480156104aa57600080fd5b506103f16107e881565b3480156104c057600080fd5b5061033e6104cf366004612d85565b610c97565b3480156104e057600080fd5b5061033e610d77565b3480156104f557600080fd5b5061033e610504366004612dd1565b610d8d565b34801561051557600080fd5b50610529610524366004612d85565b610da8565b60405161031591906131d3565b34801561054257600080fd5b50610309610551366004612f51565b610ecc565b61033e610564366004612e9b565b610f1e565b34801561057557600080fd5b50610163546103099060ff1681565b34801561059057600080fd5b506103f1610feb565b3480156105a557600080fd5b5061033e6105b4366004613016565b61109e565b3480156105c557600080fd5b506103826105d4366004612fae565b6110ba565b3480156105e557600080fd5b5061033e6105f4366004612d85565b61111a565b34801561060557600080fd5b506103f16101665481565b34801561061c57600080fd5b506103f161062b366004612d85565b611145565b34801561063c57600080fd5b5061033e6111cb565b34801561065157600080fd5b506103f1610660366004612fae565b6111df565b34801561067157600080fd5b5061033e6111f7565b34801561068657600080fd5b506097546001600160a01b0316610382565b3480156106a457600080fd5b50610355611211565b3480156106b957600080fd5b506103f16101655481565b3480156106d057600080fd5b5061033e6106df366004612fae565b611220565b3480156106f057600080fd5b5061033e6106ff366004612e72565b61122e565b34801561071057600080fd5b5061033e61071f366004613049565b611239565b34801561073057600080fd5b5061033e61073f366004613016565b611368565b34801561075057600080fd5b5061033e61075f366004612e0c565b611384565b34801561077057600080fd5b5061016354610309906301000000900460ff1681565b34801561079257600080fd5b5061015f54610382906001600160a01b031681565b3480156107b357600080fd5b506103556107c2366004612fae565b6113b6565b3480156107d357600080fd5b506103f16101685481565b3480156107ea57600080fd5b50610355611460565b61033e6108013660046130cd565b6114ef565b34801561081257600080fd5b5061033e610821366004612f94565b61187c565b34801561083257600080fd5b506103f16101645481565b34801561084957600080fd5b50610309610858366004612d9f565b6001600160a01b039182166000908152606a6020908152604080832093909416825291909152205460ff1690565b34801561089257600080fd5b5061033e6108a1366004612fae565b611898565b3480156108b257600080fd5b5061033e6108c1366004612d85565b611b19565b3480156108d257600080fd5b5061033e6108e1366004612fae565b611b8f565b3480156108f257600080fd5b50610355611b9d565b34801561090757600080fd5b50610163546103099062010000900460ff1681565b34801561092857600080fd5b5061033e610937366004612f94565b611bab565b600061094782611bd0565b80610956575061095682611c20565b92915050565b610964611c45565b61096e8282611c9f565b5050565b606060658054610981906134a5565b80601f01602080910402602001604051908101604052809291908181526020018280546109ad906134a5565b80156109fa5780601f106109cf576101008083540402835291602001916109fa565b820191906000526020600020905b8154815290600101906020018083116109dd57829003601f168201915b5050505050905090565b6000610a0f82611d9d565b506000908152606960205260409020546001600160a01b031690565b6000610a36826110ba565b9050806001600160a01b0316836001600160a01b03161415610aa95760405162461bcd60e51b815260206004820152602160248201527f4552433732313a20617070726f76616c20746f2063757272656e74206f776e656044820152603960f91b60648201526084015b60405180910390fd5b336001600160a01b0382161480610ac55750610ac58133610858565b610b375760405162461bcd60e51b815260206004820152603d60248201527f4552433732313a20617070726f76652063616c6c6572206973206e6f7420746f60448201527f6b656e206f776e6572206f7220617070726f76656420666f7220616c6c0000006064820152608401610aa0565b610b418383611dfc565b505050565b610b503382611e6a565b610b6c5760405162461bcd60e51b8152600401610aa09061322a565b610b41838383611ee8565b610b7f611c45565b610163805463ff000000191663010000008315158102919091179182905560405160ff9190920416151581527f992fe84c8bbd52855b22035907ca1f9e1d6bcbb390bc81150808e8443d01668c9060200160405180910390a150565b600082815261012e602090815260408083208151808301909252546001600160a01b038116808352600160a01b9091046001600160601b0316928201929092528291610c5257506040805180820190915261012d546001600160a01b0381168252600160a01b90046001600160601b031660208201525b602081015160009061271090610c71906001600160601b03168761345a565b610c7b919061343a565b915196919550909350505050565b610c91611c45565b61016455565b306001600160a01b037f0000000000000000000000000000000000000000000000000000000000000000161415610ce05760405162461bcd60e51b8152600401610aa09061330e565b7f00000000000000000000000000000000000000000000000000000000000000006001600160a01b0316610d2960008051602061353e833981519152546001600160a01b031690565b6001600160a01b031614610d4f5760405162461bcd60e51b8152600401610aa09061335a565b610d588161204c565b60408051600080825260208201909252610d7491839190612054565b50565b610d7f611c45565b610163805461ff0019169055565b610b4183838360405180602001604052806000815250611384565b60606000610db583611145565b905060008167ffffffffffffffff811115610de057634e487b7160e01b600052604160045260246000fd5b604051908082528060200260200182016040528015610e09578160200160208202803683370190505b50905081610e18579392505050565b600060015b6107e88111610ec2576000818152606760205260409020546001600160a01b031615158015610e655750856001600160a01b0316610e5a826110ba565b6001600160a01b0316145b15610eb05780838381518110610e8b57634e487b7160e01b600052603260045260246000fd5b602090810291909101015281610ea0816134e0565b92505083821415610eb057610ec2565b80610eba816134e0565b915050610e1d565b5090949350505050565b6040516bffffffffffffffffffffffff19606083901b1660208201526000908190603401604051602081830303815290604052805190602001209050610f168461016054836121ce565b949350505050565b306001600160a01b037f0000000000000000000000000000000000000000000000000000000000000000161415610f675760405162461bcd60e51b8152600401610aa09061330e565b7f00000000000000000000000000000000000000000000000000000000000000006001600160a01b0316610fb060008051602061353e833981519152546001600160a01b031690565b6001600160a01b031614610fd65760405162461bcd60e51b8152600401610aa09061335a565b610fdf8261204c565b61096e82826001612054565b6000306001600160a01b037f0000000000000000000000000000000000000000000000000000000000000000161461108b5760405162461bcd60e51b815260206004820152603860248201527f555550535570677261646561626c653a206d757374206e6f742062652063616c60448201527f6c6564207468726f7567682064656c656761746563616c6c00000000000000006064820152608401610aa0565b5060008051602061353e83398151915290565b6110a6611c45565b805161096e90610161906020840190612bd7565b6000818152606760205260408120546001600160a01b0316806109565760405162461bcd60e51b8152602060048201526018602482015277115490cdcc8c4e881a5b9d985b1a59081d1bdad95b88125160421b6044820152606401610aa0565b611122611c45565b61015f80546001600160a01b0319166001600160a01b0392909216919091179055565b60006001600160a01b0382166111af5760405162461bcd60e51b815260206004820152602960248201527f4552433732313a2061646472657373207a65726f206973206e6f7420612076616044820152683634b21037bbb732b960b91b6064820152608401610aa0565b506001600160a01b031660009081526068602052604090205490565b6111d3611c45565b6111dd60006121e4565b565b60006111e9611c45565b50610160819055805b919050565b6111ff611c45565b610163805461ff001916610100179055565b606060668054610981906134a5565b611228611c45565b61016555565b61096e338383612236565b600054610100900460ff16158080156112595750600054600160ff909116105b806112735750303b158015611273575060005460ff166001145b6112d65760405162461bcd60e51b815260206004820152602e60248201527f496e697469616c697a61626c653a20636f6e747261637420697320616c72656160448201526d191e481a5b9a5d1a585b1a5e995960921b6064820152608401610aa0565b6000805460ff1916600117905580156112f9576000805461ff0019166101001790555b6113038383612305565b61130b612336565b611313612365565b61131c8461109e565b8015611362576000805461ff0019169055604051600181527f7f26b83ff96e1f2b6a682f133852f6798a09c465da95921460cefb38474024989060200160405180910390a15b50505050565b611370611c45565b805161096e90610162906020840190612bd7565b61138e3383611e6a565b6113aa5760405162461bcd60e51b8152600401610aa09061322a565b6113628484848461238c565b6101635460609060ff166114575761016280546113d2906134a5565b80601f01602080910402602001604051908101604052809291908181526020018280546113fe906134a5565b801561144b5780601f106114205761010080835404028352916020019161144b565b820191906000526020600020905b81548152906001019060200180831161142e57829003601f168201915b50505050509050919050565b610956826123bf565b610161805461146e906134a5565b80601f016020809104026020016040519081016040528092919081815260200182805461149a906134a5565b80156114e75780601f106114bc576101008083540402835291602001916114e7565b820191906000526020600020905b8154815290600101906020018083116114ca57829003601f168201915b505050505081565b61016754336115066097546001600160a01b031690565b6001600160a01b0316336001600160a01b031614806115335750836101665461152f919061345a565b3410155b61157f5760405162461bcd60e51b815260206004820152601f60248201527f4d7573742073656e642072657175697265642065746820746f206d696e742e006044820152606401610aa0565b600084116115ca5760405162461bcd60e51b815260206004820152601860248201527728bab0b73a34ba3c9031b0b73737ba103132903d32b9379760411b6044820152606401610aa0565b610163546301000000900460ff1661161d5760405162461bcd60e51b815260206004820152601660248201527526b4b73a1034b9903737ba1030bb30b4b630b136329760511b6044820152606401610aa0565b61016354610100900460ff161561166c5760405162461bcd60e51b815260206004820152601360248201527221b7b73a3930b1ba1034b9903830bab9b2b21760691b6044820152606401610aa0565b6107e86116798584613422565b11156116c35760405162461bcd60e51b81526020600482015260196024820152782932b0b1b432b21036b0bc103a37ba30b61039bab838363c9760391b6044820152606401610aa0565b6101655415806116d65750610165548411155b6117195760405162461bcd60e51b815260206004820152601460248201527326b4b73a103634b6b4ba1032bc31b2b2b232b21760611b6044820152606401610aa0565b6101635462010000900460ff1615611778576117358333610ecc565b15156001146117785760405162461bcd60e51b815260206004820152600f60248201526e24b73b30b634b21036b4b73a32b91760891b6044820152606401610aa0565b60015b8481116117b7576117a5828285610164546117969190613422565b6117a09190613422565b612426565b806117af816134e0565b91505061177b565b508361016760008282546117cb9190613422565b909155505060408051858152602081018490526001600160a01b038316917f4c209b5fc8ad50758f13e2e1088ba56a560dff690a1c6fef26394f4c03821c4f910160405180910390a261015f546040516000916001600160a01b03169034908381818185875af1925050503d8060008114611862576040519150601f19603f3d011682016040523d82523d6000602084013e611867565b606091505b505090508061187557600080fd5b5050505050565b611884611c45565b610163805460ff1916911515919091179055565b6118a0611c45565b61015f546001600160a01b03166119045760405162461bcd60e51b815260206004820152602260248201527f547265617375727920416464726573732073686f756c64206265207365742075604482015261381760f11b6064820152608401610aa0565b61016754816119505760405162461bcd60e51b815260206004820152601860248201527728bab0b73a34ba3c9031b0b73737ba103132903d32b9379760411b6044820152606401610aa0565b6107e861195d8383613422565b11156119a75760405162461bcd60e51b81526020600482015260196024820152782932b0b1b432b21036b0bc103a37ba30b61039bab838363c9760391b6044820152606401610aa0565b606482610168546119b89190613422565b1115611a065760405162461bcd60e51b815260206004820152601c60248201527f52656163686564207472656173757279206d696e74206c696d69742e000000006044820152606401610aa0565b610165541580611a195750610165548211155b611a5c5760405162461bcd60e51b815260206004820152601460248201527326b4b73a103634b6b4ba1032bc31b2b2b232b21760611b6044820152606401610aa0565b60015b828111611a9b5761015f5461016454611a89916001600160a01b0316908390611796908690613422565b80611a93816134e0565b915050611a5f565b50816101676000828254611aaf9190613422565b909155505061015f5460408051848152602081018490526001600160a01b03909216917f4c209b5fc8ad50758f13e2e1088ba56a560dff690a1c6fef26394f4c03821c4f910160405180910390a2816101686000828254611b109190613422565b90915550505050565b611b21611c45565b6001600160a01b038116611b865760405162461bcd60e51b815260206004820152602660248201527f4f776e61626c653a206e6577206f776e657220697320746865207a65726f206160448201526564647265737360d01b6064820152608401610aa0565b610d74816121e4565b611b97611c45565b61016655565b610162805461146e906134a5565b611bb3611c45565b6101638054911515620100000262ff000019909216919091179055565b60006001600160e01b031982166380ac58cd60e01b1480611c0157506001600160e01b03198216635b5e139f60e01b145b8061095657506301ffc9a760e01b6001600160e01b0319831614610956565b60006001600160e01b0319821663152a902d60e11b1480610956575061095682611bd0565b6097546001600160a01b031633146111dd5760405162461bcd60e51b815260206004820181905260248201527f4f776e61626c653a2063616c6c6572206973206e6f7420746865206f776e65726044820152606401610aa0565b6127106001600160601b0382161115611d0d5760405162461bcd60e51b815260206004820152602a60248201527f455243323938313a20726f79616c7479206665652077696c6c206578636565646044820152692073616c65507269636560b01b6064820152608401610aa0565b6001600160a01b038216611d635760405162461bcd60e51b815260206004820152601960248201527f455243323938313a20696e76616c6964207265636569766572000000000000006044820152606401610aa0565b604080518082019091526001600160a01b039092168083526001600160601b039091166020909201829052600160a01b9091021761012d55565b6000818152606760205260409020546001600160a01b0316610d745760405162461bcd60e51b8152602060048201526018602482015277115490cdcc8c4e881a5b9d985b1a59081d1bdad95b88125160421b6044820152606401610aa0565b600081815260696020526040902080546001600160a01b0319166001600160a01b0384169081179091558190611e31826110ba565b6001600160a01b03167f8c5be1e5ebec7d5bd14f71427d1e84f3dd0314c0f7b2291e5b200ac8c7c3b92560405160405180910390a45050565b600080611e76836110ba565b9050806001600160a01b0316846001600160a01b03161480611ebd57506001600160a01b038082166000908152606a602090815260408083209388168352929052205460ff165b80610f165750836001600160a01b0316611ed684610a04565b6001600160a01b031614949350505050565b826001600160a01b0316611efb826110ba565b6001600160a01b031614611f215760405162461bcd60e51b8152600401610aa0906132c9565b6001600160a01b038216611f835760405162461bcd60e51b8152602060048201526024808201527f4552433732313a207472616e7366657220746f20746865207a65726f206164646044820152637265737360e01b6064820152608401610aa0565b826001600160a01b0316611f96826110ba565b6001600160a01b031614611fbc5760405162461bcd60e51b8152600401610aa0906132c9565b600081815260696020908152604080832080546001600160a01b03199081169091556001600160a01b0387811680865260688552838620805460001901905590871680865283862080546001019055868652606790945282852080549092168417909155905184937fddf252ad1be2c89b69c2b068fc378daa952ba7f163c4a11628f55a4df523b3ef91a4505050565b610d74611c45565b7f4910fdfa16fed3260ed0e7147f7cc6da11a60208b5b9406d12a635614ffd91435460ff161561208757610b4183612440565b826001600160a01b03166352d1902d6040518163ffffffff1660e01b815260040160206040518083038186803b1580156120c057600080fd5b505afa9250505080156120f0575060408051601f3d908101601f191682019092526120ed91810190612fc6565b60015b6121535760405162461bcd60e51b815260206004820152602e60248201527f45524331393637557067726164653a206e657720696d706c656d656e7461746960448201526d6f6e206973206e6f74205555505360901b6064820152608401610aa0565b60008051602061353e83398151915281146121c25760405162461bcd60e51b815260206004820152602960248201527f45524331393637557067726164653a20756e737570706f727465642070726f786044820152681a58589b195555525160ba1b6064820152608401610aa0565b50610b418383836124dc565b6000826121db8584612501565b14949350505050565b609780546001600160a01b038381166001600160a01b0319831681179093556040519116919082907f8be0079c531659141344cd1fd0a4f28419497f9722a3daafe3b4186f6b6457e090600090a35050565b816001600160a01b0316836001600160a01b031614156122985760405162461bcd60e51b815260206004820152601960248201527f4552433732313a20617070726f766520746f2063616c6c6572000000000000006044820152606401610aa0565b6001600160a01b038381166000818152606a6020908152604080832094871680845294825291829020805460ff191686151590811790915591519182527f17307eab39ab6107e8899845ad3d59bd9653f200f220920489ca2b5937696c31910160405180910390a3505050565b600054610100900460ff1661232c5760405162461bcd60e51b8152600401610aa0906133a6565b61096e828261255c565b600054610100900460ff1661235d5760405162461bcd60e51b8152600401610aa0906133a6565b6111dd6125aa565b600054610100900460ff166111dd5760405162461bcd60e51b8152600401610aa0906133a6565b612397848484611ee8565b6123a3848484846125da565b6113625760405162461bcd60e51b8152600401610aa090613277565b60606123ca82611d9d565b60006123d46126e7565b905060008151116123f4576040518060200160405280600081525061241f565b806123fe846126f7565b60405160200161240f929190613171565b6040516020818303038152906040525b9392505050565b61096e82826040518060200160405280600081525061279a565b6001600160a01b0381163b6124ad5760405162461bcd60e51b815260206004820152602d60248201527f455243313936373a206e657720696d706c656d656e746174696f6e206973206e60448201526c1bdd08184818dbdb9d1c9858dd609a1b6064820152608401610aa0565b60008051602061353e83398151915280546001600160a01b0319166001600160a01b0392909216919091179055565b6124e5836127cd565b6000825111806124f25750805b15610b4157611362838361280d565b600081815b8451811015612554576125408286838151811061253357634e487b7160e01b600052603260045260246000fd5b6020026020010151612832565b91508061254c816134e0565b915050612506565b509392505050565b600054610100900460ff166125835760405162461bcd60e51b8152600401610aa0906133a6565b8151612596906065906020850190612bd7565b508051610b41906066906020840190612bd7565b600054610100900460ff166125d15760405162461bcd60e51b8152600401610aa0906133a6565b6111dd336121e4565b60006001600160a01b0384163b156126dc57604051630a85bd0160e11b81526001600160a01b0385169063150b7a029061261e9033908990889088906004016131a0565b602060405180830381600087803b15801561263857600080fd5b505af1925050508015612668575060408051601f3d908101601f1916820190925261266591810190612ffa565b60015b6126c2573d808015612696576040519150601f19603f3d011682016040523d82523d6000602084013e61269b565b606091505b5080516126ba5760405162461bcd60e51b8152600401610aa090613277565b805181602001fd5b6001600160e01b031916630a85bd0160e11b149050610f16565b506001949350505050565b60606101618054610981906134a5565b6060600061270483612861565b600101905060008167ffffffffffffffff81111561273257634e487b7160e01b600052604160045260246000fd5b6040519080825280601f01601f19166020018201604052801561275c576020820181803683370190505b5090508181016020015b600019016f181899199a1a9b1b9c1cb0b131b232b360811b600a86061a8153600a850494508461279557612554565b612766565b6127a48383612939565b6127b160008484846125da565b610b415760405162461bcd60e51b8152600401610aa090613277565b6127d681612440565b6040516001600160a01b038216907fbc7cd75a20ee27fd9adebab32041f755214dbc6bffa90cc0225b39da2e5c2d3b90600090a250565b606061241f838360405180606001604052806027815260200161355e60279139612ac4565b600081831061284e57600082815260208490526040902061241f565b600083815260208390526040902061241f565b60008072184f03e93ff9f4daa797ed6e38ed64bf6a1f0160401b83106128a05772184f03e93ff9f4daa797ed6e38ed64bf6a1f0160401b830492506040015b6d04ee2d6d415b85acef810000000083106128cc576d04ee2d6d415b85acef8100000000830492506020015b662386f26fc1000083106128ea57662386f26fc10000830492506010015b6305f5e1008310612902576305f5e100830492506008015b612710831061291657612710830492506004015b60648310612928576064830492506002015b600a83106109565760010192915050565b6001600160a01b03821661298f5760405162461bcd60e51b815260206004820181905260248201527f4552433732313a206d696e7420746f20746865207a65726f20616464726573736044820152606401610aa0565b6000818152606760205260409020546001600160a01b0316156129f45760405162461bcd60e51b815260206004820152601c60248201527f4552433732313a20746f6b656e20616c7265616479206d696e746564000000006044820152606401610aa0565b6000818152606760205260409020546001600160a01b031615612a595760405162461bcd60e51b815260206004820152601c60248201527f4552433732313a20746f6b656e20616c7265616479206d696e746564000000006044820152606401610aa0565b6001600160a01b038216600081815260686020908152604080832080546001019055848352606790915280822080546001600160a01b0319168417905551839291907fddf252ad1be2c89b69c2b068fc378daa952ba7f163c4a11628f55a4df523b3ef908290a45050565b6060600080856001600160a01b031685604051612ae19190613155565b600060405180830381855af49150503d8060008114612b1c576040519150601f19603f3d011682016040523d82523d6000602084013e612b21565b606091505b5091509150612b3286838387612b3c565b9695505050505050565b60608315612ba8578251612ba1576001600160a01b0385163b612ba15760405162461bcd60e51b815260206004820152601d60248201527f416464726573733a2063616c6c20746f206e6f6e2d636f6e74726163740000006044820152606401610aa0565b5081610f16565b610f168383815115612bbd5781518083602001fd5b8060405162461bcd60e51b8152600401610aa09190613217565b828054612be3906134a5565b90600052602060002090601f016020900481019282612c055760008555612c4b565b82601f10612c1e57805160ff1916838001178555612c4b565b82800160010185558215612c4b579182015b82811115612c4b578251825591602001919060010190612c30565b50612c57929150612c5b565b5090565b5b80821115612c575760008155600101612c5c565b80356001600160a01b03811681146111f257600080fd5b600082601f830112612c97578081fd5b8135602067ffffffffffffffff821115612cb357612cb3613511565b8160051b612cc28282016133f1565b838152828101908684018388018501891015612cdc578687fd5b8693505b85841015612cfe578035835260019390930192918401918401612ce0565b50979650505050505050565b803580151581146111f257600080fd5b600082601f830112612d2a578081fd5b813567ffffffffffffffff811115612d4457612d44613511565b612d57601f8201601f19166020016133f1565b818152846020838601011115612d6b578283fd5b816020850160208301379081016020019190915292915050565b600060208284031215612d96578081fd5b61241f82612c70565b60008060408385031215612db1578081fd5b612dba83612c70565b9150612dc860208401612c70565b90509250929050565b600080600060608486031215612de5578081fd5b612dee84612c70565b9250612dfc60208501612c70565b9150604084013590509250925092565b60008060008060808587031215612e21578081fd5b612e2a85612c70565b9350612e3860208601612c70565b925060408501359150606085013567ffffffffffffffff811115612e5a578182fd5b612e6687828801612d1a565b91505092959194509250565b60008060408385031215612e84578182fd5b612e8d83612c70565b9150612dc860208401612d0a565b60008060408385031215612ead578182fd5b612eb683612c70565b9150602083013567ffffffffffffffff811115612ed1578182fd5b612edd85828601612d1a565b9150509250929050565b60008060408385031215612ef9578182fd5b612f0283612c70565b946020939093013593505050565b60008060408385031215612f22578182fd5b612f2b83612c70565b915060208301356001600160601b0381168114612f46578182fd5b809150509250929050565b60008060408385031215612f63578182fd5b823567ffffffffffffffff811115612f79578283fd5b612f8585828601612c87565b925050612dc860208401612c70565b600060208284031215612fa5578081fd5b61241f82612d0a565b600060208284031215612fbf578081fd5b5035919050565b600060208284031215612fd7578081fd5b5051919050565b600060208284031215612fef578081fd5b813561241f81613527565b60006020828403121561300b578081fd5b815161241f81613527565b600060208284031215613027578081fd5b813567ffffffffffffffff81111561303d578182fd5b610f1684828501612d1a565b60008060006060848603121561305d578081fd5b833567ffffffffffffffff80821115613074578283fd5b61308087838801612d1a565b94506020860135915080821115613095578283fd5b6130a187838801612d1a565b935060408601359150808211156130b6578283fd5b506130c386828701612d1a565b9150509250925092565b600080604083850312156130df578182fd5b82359150602083013567ffffffffffffffff8111156130fc578182fd5b612edd85828601612c87565b6000806040838503121561311a578182fd5b50508035926020909101359150565b60008151808452613141816020860160208601613479565b601f01601f19169290920160200192915050565b60008251613167818460208701613479565b9190910192915050565b60008351613183818460208801613479565b835190830190613197818360208801613479565b01949350505050565b6001600160a01b0385811682528416602082015260408101839052608060608201819052600090612b3290830184613129565b6020808252825182820181905260009190848201906040850190845b8181101561320b578351835292840192918401916001016131ef565b50909695505050505050565b60208152600061241f6020830184613129565b6020808252602d908201527f4552433732313a2063616c6c6572206973206e6f7420746f6b656e206f776e6560408201526c1c881bdc88185c1c1c9bdd9959609a1b606082015260800190565b60208082526032908201527f4552433732313a207472616e7366657220746f206e6f6e20455243373231526560408201527131b2b4bb32b91034b6b83632b6b2b73a32b960711b606082015260800190565b60208082526025908201527f4552433732313a207472616e736665722066726f6d20696e636f72726563742060408201526437bbb732b960d91b606082015260800190565b6020808252602c908201527f46756e6374696f6e206d7573742062652063616c6c6564207468726f7567682060408201526b19195b1959d85d1958d85b1b60a21b606082015260800190565b6020808252602c908201527f46756e6374696f6e206d7573742062652063616c6c6564207468726f7567682060408201526b6163746976652070726f787960a01b606082015260800190565b6020808252602b908201527f496e697469616c697a61626c653a20636f6e7472616374206973206e6f74206960408201526a6e697469616c697a696e6760a81b606082015260800190565b604051601f8201601f1916810167ffffffffffffffff8111828210171561341a5761341a613511565b604052919050565b60008219821115613435576134356134fb565b500190565b60008261345557634e487b7160e01b81526012600452602481fd5b500490565b6000816000190483118215151615613474576134746134fb565b500290565b60005b8381101561349457818101518382015260200161347c565b838111156113625750506000910152565b600181811c908216806134b957607f821691505b602082108114156134da57634e487b7160e01b600052602260045260246000fd5b50919050565b60006000198214156134f4576134f46134fb565b5060010190565b634e487b7160e01b600052601160045260246000fd5b634e487b7160e01b600052604160045260246000fd5b6001600160e01b031981168114610d7457600080fdfe360894a13ba1a3210667c828492db98dca3e2076cc3735a920a3ca505d382bbc416464726573733a206c6f772d6c6576656c2064656c65676174652063616c6c206661696c6564a2646970667358221220d03dab89a42f67500c75f2f8f4518a9cb100d95818102391be523d2776f3ab0564736f6c63430008040033",
  "linkReferences": {},
  "deployedLinkReferences": {}
}