{
  "address": "0x8492882953775aD59B1A1DE0b83F52fac24C3174",
  "abi": [
    {
      "inputs": [],
      "stateMutability": "nonpayable",
      "type": "constructor"
    },
    {
      "anonymous": false,
      "inputs": [
        {
          "indexed": true,
          "internalType": "address",
          "name": "token",
          "type": "address"
        },
        {
          "indexed": false,
          "internalType": "uint256",
          "name": "serialNumber",
          "type": "uint256"
        },
        {
          "indexed": true,
          "internalType": "address",
          "name": "owner",
          "type": "address"
        },
        {
          "indexed": true,
          "internalType": "address",
          "name": "buyer",
          "type": "address"
        },
        {
          "indexed": false,
          "internalType": "uint256",
          "name": "acceptedBidAmount",
          "type": "uint256"
        }
      ],
      "name": "AcceptBid",
      "type": "event"
    },
    {
      "anonymous": false,
      "inputs": [
        {
          "indexed": true,
          "internalType": "address",
          "name": "token",
          "type": "address"
        },
        {
          "indexed": false,
          "internalType": "uint256",
          "name": "serialNumber",
          "type": "uint256"
        },
        {
          "indexed": true,
          "internalType": "address",
          "name": "owner",
          "type": "address"
        },
        {
          "indexed": true,
          "internalType": "address",
          "name": "buyer",
          "type": "address"
        },
        {
          "indexed": false,
          "internalType": "uint256",
          "name": "amount",
          "type": "uint256"
        }
      ],
      "name": "AddBid",
      "type": "event"
    },
    {
      "anonymous": false,
      "inputs": [
        {
          "indexed": false,
          "internalType": "bool",
          "name": "",
          "type": "bool"
        },
        {
          "indexed": false,
          "internalType": "bytes",
          "name": "",
          "type": "bytes"
        }
      ],
      "name": "CallResponseEvent",
      "type": "event"
    },
    {
      "anonymous": false,
      "inputs": [
        {
          "indexed": true,
          "internalType": "address",
          "name": "token",
          "type": "address"
        },
        {
          "indexed": true,
          "internalType": "uint256",
          "name": "serialNumber",
          "type": "uint256"
        },
        {
          "indexed": true,
          "internalType": "address",
          "name": "owner",
          "type": "address"
        },
        {
          "indexed": false,
          "internalType": "uint256",
          "name": "amount",
          "type": "uint256"
        }
      ],
      "name": "DeleteBid",
      "type": "event"
    },
    {
      "anonymous": false,
      "inputs": [
        {
          "indexed": true,
          "internalType": "address",
          "name": "token",
          "type": "address"
        },
        {
          "indexed": true,
          "internalType": "uint256",
          "name": "serialNumber",
          "type": "uint256"
        },
        {
          "indexed": true,
          "internalType": "address",
          "name": "_owner",
          "type": "address"
        },
        {
          "indexed": false,
          "internalType": "uint256",
          "name": "price",
          "type": "uint256"
        }
      ],
      "name": "ListNFT",
      "type": "event"
    },
    {
      "anonymous": false,
      "inputs": [
        {
          "indexed": true,
          "internalType": "address",
          "name": "token",
          "type": "address"
        },
        {
          "indexed": true,
          "internalType": "uint256",
          "name": "serialNumber",
          "type": "uint256"
        },
        {
          "indexed": true,
          "internalType": "address",
          "name": "owner",
          "type": "address"
        },
        {
          "indexed": false,
          "internalType": "uint256",
          "name": "price",
          "type": "uint256"
        }
      ],
      "name": "UnlistNFT",
      "type": "event"
    },
    {
      "stateMutability": "payable",
      "type": "fallback"
    },
    {
      "inputs": [
        {
          "internalType": "address",
          "name": "_token",
          "type": "address"
        },
        {
          "internalType": "uint256",
          "name": "_serialNumber",
          "type": "uint256"
        },
        {
          "internalType": "address payable",
          "name": "_buyer",
          "type": "address"
        },
        {
          "internalType": "uint256",
          "name": "_acceptedBidAmount",
          "type": "uint256"
        }
      ],
      "name": "acceptBid",
      "outputs": [
        {
          "internalType": "uint256",
          "name": "",
          "type": "uint256"
        }
      ],
      "stateMutability": "nonpayable",
      "type": "function"
    },
    {
      "inputs": [
        {
          "internalType": "address",
          "name": "_token",
          "type": "address"
        },
        {
          "internalType": "uint256",
          "name": "_serialNumber",
          "type": "uint256"
        },
        {
          "internalType": "uint256",
          "name": "tokenAmount",
          "type": "uint256"
        }
      ],
      "name": "addBid",
      "outputs": [
        {
          "internalType": "uint256",
          "name": "",
          "type": "uint256"
        }
      ],
      "stateMutability": "payable",
      "type": "function"
    },
    {
      "inputs": [
        {
          "internalType": "address",
          "name": "_token",
          "type": "address"
        }
      ],
      "name": "associateToken",
      "outputs": [
        {
          "internalType": "int256",
          "name": "",
          "type": "int256"
        }
      ],
      "stateMutability": "nonpayable",
      "type": "function"
    },
    {
      "inputs": [
        {
          "internalType": "address",
          "name": "",
          "type": "address"
        },
        {
          "internalType": "string",
          "name": "",
          "type": "string"
        }
      ],
      "name": "buyersBidsIndexes",
      "outputs": [
        {
          "internalType": "uint256",
          "name": "tokenIndex",
          "type": "uint256"
        },
        {
          "internalType": "uint256",
          "name": "receivedIndex",
          "type": "uint256"
        },
        {
          "internalType": "uint256",
          "name": "sentIndex",
          "type": "uint256"
        },
        {
          "internalType": "bool",
          "name": "isSet",
          "type": "bool"
        }
      ],
      "stateMutability": "view",
      "type": "function"
    },
    {
      "inputs": [
        {
          "internalType": "address",
          "name": "",
          "type": "address"
        }
      ],
      "name": "buyersTokens",
      "outputs": [
        {
          "internalType": "uint256",
          "name": "sphs",
          "type": "uint256"
        }
      ],
      "stateMutability": "view",
      "type": "function"
    },
    {
      "inputs": [
        {
          "internalType": "address",
          "name": "_token",
          "type": "address"
        },
        {
          "internalType": "uint256",
          "name": "_serialNumber",
          "type": "uint256"
        },
        {
          "internalType": "address payable",
          "name": "_buyer",
          "type": "address"
        }
      ],
      "name": "deleteBid",
      "outputs": [
        {
          "internalType": "uint256",
          "name": "",
          "type": "uint256"
        }
      ],
      "stateMutability": "nonpayable",
      "type": "function"
    },
    {
      "inputs": [
        {
          "internalType": "address",
          "name": "_owner",
          "type": "address"
        },
        {
          "internalType": "uint64",
          "name": "page",
          "type": "uint64"
        },
        {
          "internalType": "uint64",
          "name": "pageSize",
          "type": "uint64"
        }
      ],
      "name": "getReceivedBids",
      "outputs": [
        {
          "components": [
            {
              "internalType": "address payable",
              "name": "owner",
              "type": "address"
            },
            {
              "internalType": "uint256",
              "name": "amount",
              "type": "uint256"
            },
            {
              "internalType": "address",
              "name": "token",
              "type": "address"
            },
            {
              "internalType": "uint256",
              "name": "serialNumber",
              "type": "uint256"
            }
          ],
          "internalType": "struct Market_Ethereum.Bid[]",
          "name": "",
          "type": "tuple[]"
        }
      ],
      "stateMutability": "view",
      "type": "function"
    },
    {
      "inputs": [
        {
          "internalType": "address",
          "name": "_buyer",
          "type": "address"
        },
        {
          "internalType": "uint64",
          "name": "page",
          "type": "uint64"
        },
        {
          "internalType": "uint64",
          "name": "pageSize",
          "type": "uint64"
        }
      ],
      "name": "getSentBids",
      "outputs": [
        {
          "components": [
            {
              "internalType": "address payable",
              "name": "owner",
              "type": "address"
            },
            {
              "internalType": "uint256",
              "name": "amount",
              "type": "uint256"
            },
            {
              "internalType": "address",
              "name": "token",
              "type": "address"
            },
            {
              "internalType": "uint256",
              "name": "serialNumber",
              "type": "uint256"
            }
          ],
          "internalType": "struct Market_Ethereum.Bid[]",
          "name": "",
          "type": "tuple[]"
        }
      ],
      "stateMutability": "view",
      "type": "function"
    },
    {
      "inputs": [
        {
          "internalType": "address",
          "name": "_token",
          "type": "address"
        },
        {
          "internalType": "uint256",
          "name": "_serialNumber",
          "type": "uint256"
        },
        {
          "internalType": "address",
          "name": "_buyer",
          "type": "address"
        }
      ],
      "name": "getTokenBid",
      "outputs": [
        {
          "components": [
            {
              "internalType": "address payable",
              "name": "owner",
              "type": "address"
            },
            {
              "internalType": "uint256",
              "name": "amount",
              "type": "uint256"
            },
            {
              "internalType": "address",
              "name": "token",
              "type": "address"
            },
            {
              "internalType": "uint256",
              "name": "serialNumber",
              "type": "uint256"
            }
          ],
          "internalType": "struct Market_Ethereum.Bid",
          "name": "",
          "type": "tuple"
        }
      ],
      "stateMutability": "view",
      "type": "function"
    },
    {
      "inputs": [
        {
          "internalType": "address",
          "name": "_token",
          "type": "address"
        },
        {
          "internalType": "uint256",
          "name": "_serialNumber",
          "type": "uint256"
        },
        {
          "internalType": "uint64",
          "name": "page",
          "type": "uint64"
        },
        {
          "internalType": "uint64",
          "name": "pageSize",
          "type": "uint64"
        }
      ],
      "name": "getTokenBids",
      "outputs": [
        {
          "components": [
            {
              "internalType": "address payable",
              "name": "owner",
              "type": "address"
            },
            {
              "internalType": "uint256",
              "name": "amount",
              "type": "uint256"
            },
            {
              "internalType": "address",
              "name": "token",
              "type": "address"
            },
            {
              "internalType": "uint256",
              "name": "serialNumber",
              "type": "uint256"
            }
          ],
          "internalType": "struct Market_Ethereum.Bid[]",
          "name": "",
          "type": "tuple[]"
        }
      ],
      "stateMutability": "view",
      "type": "function"
    },
    {
      "inputs": [
        {
          "internalType": "address[]",
          "name": "_tokens",
          "type": "address[]"
        },
        {
          "internalType": "uint256[]",
          "name": "_serialNumbers",
          "type": "uint256[]"
        },
        {
          "internalType": "uint256[]",
          "name": "_prices",
          "type": "uint256[]"
        }
      ],
      "name": "listNFT",
      "outputs": [
        {
          "internalType": "uint256",
          "name": "",
          "type": "uint256"
        }
      ],
      "stateMutability": "nonpayable",
      "type": "function"
    },
    {
      "inputs": [
        {
          "internalType": "string",
          "name": "",
          "type": "string"
        }
      ],
      "name": "nfts",
      "outputs": [
        {
          "internalType": "address payable",
          "name": "owner",
          "type": "address"
        },
        {
          "internalType": "uint256",
          "name": "price",
          "type": "uint256"
        },
        {
          "internalType": "address",
          "name": "token",
          "type": "address"
        },
        {
          "internalType": "uint256",
          "name": "serialNumber",
          "type": "uint256"
        },
        {
          "internalType": "bool",
          "name": "isListed",
          "type": "bool"
        }
      ],
      "stateMutability": "view",
      "type": "function"
    },
    {
      "inputs": [
        {
          "internalType": "address",
          "name": "",
          "type": "address"
        },
        {
          "internalType": "uint256",
          "name": "",
          "type": "uint256"
        }
      ],
      "name": "receivedBids",
      "outputs": [
        {
          "internalType": "address payable",
          "name": "owner",
          "type": "address"
        },
        {
          "internalType": "uint256",
          "name": "amount",
          "type": "uint256"
        },
        {
          "internalType": "address",
          "name": "token",
          "type": "address"
        },
        {
          "internalType": "uint256",
          "name": "serialNumber",
          "type": "uint256"
        }
      ],
      "stateMutability": "view",
      "type": "function"
    },
    {
      "inputs": [
        {
          "internalType": "address",
          "name": "token",
          "type": "address"
        },
        {
          "internalType": "bytes",
          "name": "encodedFunctionSelector",
          "type": "bytes"
        }
      ],
      "name": "redirectForToken",
      "outputs": [
        {
          "internalType": "int256",
          "name": "responseCode",
          "type": "int256"
        },
        {
          "internalType": "bytes",
          "name": "response",
          "type": "bytes"
        }
      ],
      "stateMutability": "nonpayable",
      "type": "function"
    },
    {
      "inputs": [
        {
          "internalType": "address",
          "name": "_tokenAddress",
          "type": "address"
        }
      ],
      "name": "registerSpheraToken",
      "outputs": [],
      "stateMutability": "nonpayable",
      "type": "function"
    },
    {
      "inputs": [],
      "name": "sendSphsToContract",
      "outputs": [
        {
          "internalType": "uint256",
          "name": "",
          "type": "uint256"
        }
      ],
      "stateMutability": "payable",
      "type": "function"
    },
    {
      "inputs": [
        {
          "internalType": "address",
          "name": "",
          "type": "address"
        },
        {
          "internalType": "uint256",
          "name": "",
          "type": "uint256"
        }
      ],
      "name": "sentBids",
      "outputs": [
        {
          "internalType": "address payable",
          "name": "owner",
          "type": "address"
        },
        {
          "internalType": "uint256",
          "name": "amount",
          "type": "uint256"
        },
        {
          "internalType": "address",
          "name": "token",
          "type": "address"
        },
        {
          "internalType": "uint256",
          "name": "serialNumber",
          "type": "uint256"
        }
      ],
      "stateMutability": "view",
      "type": "function"
    },
    {
      "inputs": [],
      "name": "spheraTokenAddress",
      "outputs": [
        {
          "internalType": "address",
          "name": "",
          "type": "address"
        }
      ],
      "stateMutability": "view",
      "type": "function"
    },
    {
      "inputs": [],
      "name": "taxFee",
      "outputs": [
        {
          "internalType": "uint256",
          "name": "",
          "type": "uint256"
        }
      ],
      "stateMutability": "view",
      "type": "function"
    },
    {
      "inputs": [
        {
          "internalType": "string",
          "name": "",
          "type": "string"
        },
        {
          "internalType": "uint256",
          "name": "",
          "type": "uint256"
        }
      ],
      "name": "tokenBids",
      "outputs": [
        {
          "internalType": "address payable",
          "name": "owner",
          "type": "address"
        },
        {
          "internalType": "uint256",
          "name": "amount",
          "type": "uint256"
        },
        {
          "internalType": "address",
          "name": "token",
          "type": "address"
        },
        {
          "internalType": "uint256",
          "name": "serialNumber",
          "type": "uint256"
        }
      ],
      "stateMutability": "view",
      "type": "function"
    },
    {
      "inputs": [
        {
          "internalType": "address",
          "name": "token",
          "type": "address"
        },
        {
          "internalType": "address",
          "name": "from",
          "type": "address"
        },
        {
          "internalType": "address",
          "name": "to",
          "type": "address"
        },
        {
          "internalType": "uint256",
          "name": "amount",
          "type": "uint256"
        }
      ],
      "name": "transferFrom",
      "outputs": [
        {
          "internalType": "int64",
          "name": "responseCode",
          "type": "int64"
        }
      ],
      "stateMutability": "nonpayable",
      "type": "function"
    },
    {
      "inputs": [
        {
          "internalType": "address",
          "name": "token",
          "type": "address"
        },
        {
          "internalType": "address",
          "name": "from",
          "type": "address"
        },
        {
          "internalType": "address",
          "name": "to",
          "type": "address"
        },
        {
          "internalType": "uint256",
          "name": "serialNumber",
          "type": "uint256"
        }
      ],
      "name": "transferFromNFT",
      "outputs": [
        {
          "internalType": "int64",
          "name": "responseCode",
          "type": "int64"
        }
      ],
      "stateMutability": "nonpayable",
      "type": "function"
    },
    {
      "inputs": [
        {
          "internalType": "address",
          "name": "_token",
          "type": "address"
        },
        {
          "internalType": "uint256",
          "name": "_serialNumber",
          "type": "uint256"
        }
      ],
      "name": "unlistNFT",
      "outputs": [
        {
          "internalType": "uint256",
          "name": "",
          "type": "uint256"
        }
      ],
      "stateMutability": "nonpayable",
      "type": "function"
    },
    {
      "stateMutability": "payable",
      "type": "receive"
    }
  ],
  "transactionHash": "0xc90e5da05b719dcd4fe1a62d1b6db85bb13fdf1812857906a76e2693fef428c2",
  "args": [],
  "numDeployments": 1,
  "solcInputHash": "f1e964096888259cb14165ebd306ad4d",
  "bytecode": "0x6080604052601960085534801561001557600080fd5b50600680546001600160a01b0319163317905561486d806100376000396000f3fe6080604052600436106101385760003560e01c80639b23d3d9116100b0578063bc78a32a1161006c578063bc78a32a14610424578063d5cae81f14610444578063d7dbd71b14610464578063e2d4d36014610484578063f2ce238a146104b1578063f40774061461053557005b80639b23d3d9146102f15780639d170dd714610311578063a071dcf414610331578063a7e5c46414610347578063a7efe34814610367578063b66fb0901461038757005b80634d0df92b116100ff5780634d0df92b1461022f5780634e524b501461024f578063618dc65e1461026f5780636c7f20c01461029d5780637fc27efd146102ca5780638883edf1146102ea57005b806315dacbea1461014157806316e807c414610179578063322b71d81461019a57806332a12a23146101d2578063443349b11461020257005b3661013f57005b005b34801561014d57600080fd5b5061016161015c36600461359b565b610555565b60405160079190910b81526020015b60405180910390f35b61018c6101873660046135ec565b610638565b604051908152602001610170565b3480156101a657600080fd5b506007546101ba906001600160a01b031681565b6040516001600160a01b039091168152602001610170565b3480156101de57600080fd5b506101f26101ed366004613621565b610f47565b604051610170949392919061364d565b34801561020e57600080fd5b5061022261021d36600461368e565b610f9b565b60405161017091906136dd565b34801561023b57600080fd5b5061013f61024a366004613757565b611068565b34801561025b57600080fd5b5061018c61026a366004613774565b6110dd565b34801561027b57600080fd5b5061028f61028a3660046138e6565b6117e7565b604051610170929190613999565b3480156102a957600080fd5b5061018c6102b8366004613757565b60046020526000908152604090205481565b3480156102d657600080fd5b5061018c6102e5366004613621565b611915565b600061018c565b3480156102fd57600080fd5b5061016161030c36600461359b565b611a5c565b34801561031d57600080fd5b5061022261032c3660046139b2565b611a8c565b34801561033d57600080fd5b5061018c60085481565b34801561035357600080fd5b5061018c6103623660046139f7565b611b3d565b34801561037357600080fd5b5061018c610382366004613757565b611e4a565b34801561039357600080fd5b506103eb6103a2366004613a59565b8051602081830181018051600582529282019190930120915280546001820154600283015460038401546004909401546001600160a01b03938416949293909116919060ff1685565b604080516001600160a01b039687168152602081019590955292909416918301919091526060820152901515608082015260a001610170565b34801561043057600080fd5b506101f261043f366004613a8d565b611f06565b34801561045057600080fd5b5061018c61045f366004613b4f565b611f31565b34801561047057600080fd5b5061022261047f3660046139b2565b612472565b34801561049057600080fd5b506104a461049f3660046139f7565b612506565b6040516101709190613c34565b3480156104bd57600080fd5b506105136104cc366004613c6d565b600360208181526000938452604090932082518084018501805192815290850193909401929092209190925280546001820154600283015492909301549092919060ff1684565b6040805194855260208501939093529183015215156060820152608001610170565b34801561054157600080fd5b506101f2610550366004613621565b61264b565b60008060006101676001600160a01b03166315dacbea60e01b888888886040516024016105859493929190613cb2565b60408051601f198184030181529181526020820180516001600160e01b03166001600160e01b03199094169390931790925290516105c39190613cdc565b6000604051808303816000865af19150503d8060008114610600576040519150601f19603f3d011682016040523d82523d6000602084013e610605565b606091505b50915091508161061657601561062a565b8080602001905181019061062a9190613d0a565b60030b979650505050505050565b600033816106468686612667565b90506005816040516106589190613cdc565b9081526040519081900360200190206004015460ff166106b05760405162461bcd60e51b815260206004820152600e60248201526d139195081b9bdd081b1a5cdd195960921b60448201526064015b60405180910390fd5b6000806106bd8888612673565b9092509050601682146106e25760405162461bcd60e51b81526004016106a790613d25565b6005836040516106f29190613cdc565b908152604080519182900360200190912054908201516001600160a01b0390811691161461077b5760405162461bcd60e51b815260206004820152603060248201527f4e6674206f776e657220686173206265656e206368616e6765642e20496e766160448201526f3634b21027232a103634b9ba34b7339760811b60648201526084016106a7565b6007546040516323b872dd60e01b8152336004820152306024820152604481018890526000916001600160a01b0316906323b872dd906064016020604051808303816000875af11580156107d3573d6000803e3d6000fd5b505050506040513d601f19601f820116820180604052508101906107f79190613d6c565b9050806108465760405162461bcd60e51b815260206004820152601f60248201527f4661696c656420746f207472616e736665722053706865726120546f6b656e0060448201526064016106a7565b6001600160a01b03851660009081526004602052604081205490036108945760408051602080820183528982526001600160a01b0388166000908152600490915291909120905190556108c2565b6001600160a01b038516600090815260046020526040812080548992906108bc908490613d9d565b90915550505b6001600160a01b03851660009081526003602052604080822090516108e8908790613cdc565b9081526040805191829003602090810183206080840183528054845260018101548483015260028101548484015260039081015460ff16151560608501526001600160a01b038a166000908152915281902090519192509061094b908790613cdc565b9081526040519081900360200190206003015460ff1615610be957600080866040516109779190613cdc565b90815260405190819003602001902082518154811061099857610998613db0565b600091825260209182902060408051608081018252600490930290910180546001600160a01b03908116845260018201549484018590526002820154169183019190915260030154606082015291506109f49088908190612760565b88600087604051610a059190613cdc565b908152604051908190036020019020835181548110610a2657610a26613db0565b9060005260206000209060040201600101819055508860016000600589604051610a509190613cdc565b9081526040805160209281900383019020546001600160a01b031683528282019390935291016000209084015181548110610a8d57610a8d613db0565b9060005260206000209060040201600101819055508860026000896001600160a01b03166001600160a01b03168152602001908152602001600020836040015181548110610add57610add613db0565b906000526020600020906004020160010181905550600586604051610b029190613cdc565b9081526020016040518091039020600101548910610b94576040516304e524b560e41b81523090634e524b5090610b43908e908e908c908f9060040161364d565b6020604051808303816000875af1158015610b62573d6000803e3d6000fd5b505050506040513d601f19601f82011682018060405250810190610b869190613dc6565b975050505050505050610f40565b60408085015181518c8152602081018c905233926001600160a01b03928316928f16917f36d6fe2f8514bad704749bcc0910b552f83180da8b6690b8a953fc2086d9a9c1910160405180910390a46000610b86565b604080516080810182526001600160a01b038089168252602082018b90528c1681830152606081018b90529051600090610c24908890613cdc565b908152604080516020928190038301812080546001808201835560009283528583208751600493840290910180546001600160a01b03199081166001600160a01b039384161782558989018051838601558a890180516002808601805486169288169290921790915560608d018051600396870155338a52818d529a892080548089018255908a529b89208d519c909802909701805484169b86169b909b178b5590518a860155519489018054909116949092169390931790559351940193909355909190600590610cf7908a90613cdc565b90815260408051918290036020908101909220546001600160a01b039081168452838301949094529182016000908120805460018181018355918352838320875160049092020180549187166001600160a01b031992831617815593870151848301558685015160028501805491909716911617909455606085015160039092019190915581516080810192839052928392909190610d97908b90613cdc565b90815260405190819003602001902054610db19190613ddf565b8152602001600180600060058b604051610dcb9190613cdc565b9081526040805160209281900383019020546001600160a01b03168352908201929092520160002054610dfe9190613ddf565b815233600090815260026020908152604090912054910190610e2290600190613ddf565b815260016020918201526001600160a01b038916600090815260039091526040908190209051610e53908990613cdc565b9081526040805160209281900383018120845181559284015160018401559083015160028301556060909201516003909101805460ff1916911515919091179055600590610ea2908890613cdc565b9081526020016040518091039020600101548910610ee65760208101516040516304e524b560e41b81523091634e524b5091610b43918f918f918d9160040161364d565b60408085015181518c8152602081018c905233926001600160a01b03928316928f16917f36d6fe2f8514bad704749bcc0910b552f83180da8b6690b8a953fc2086d9a9c1910160405180910390a460009750505050505050505b9392505050565b60026020528160005260406000208181548110610f6357600080fd5b600091825260209091206004909102018054600182015460028301546003909301546001600160a01b03928316955090935091169084565b60606000610fa98686612667565b905060008082604051610fbc9190613cdc565b9081526020016040518091039020805480602002602001604051908101604052809291908181526020016000905b8282101561104c576000848152602090819020604080516080810182526004860290920180546001600160a01b039081168452600180830154858701526002830154909116928401929092526003015460608301529083529092019101610fea565b50505050905061105d8186866128e1565b979650505050505050565b6006546001600160a01b031633146110bb5760405162461bcd60e51b81526020600482015260166024820152752737ba103a34329031b7b73a3930b1ba1037bbb732b960511b60448201526064016106a7565b600780546001600160a01b0319166001600160a01b0392909216919091179055565b6000806110ea8686612667565b90506005816040516110fc9190613cdc565b90815260405190819003602001902054336001600160a01b03909116148061112357503330145b61113f5760405162461bcd60e51b81526004016106a790613df2565b60058160405161114f9190613cdc565b9081526040519081900360200190206004015460ff166111a25760405162461bcd60e51b815260206004820152600e60248201526d139195081b9bdd081b1a5cdd195960921b60448201526064016106a7565b6000806111af8888612673565b9092509050601682146111d45760405162461bcd60e51b81526004016106a790613d25565b60a08101516001600160a01b031630146112455760405162461bcd60e51b815260206004820152602c60248201527f436f6e747261637420646f65736e2774206861766520616c6c6f77616e63652060448201526b199bdc881d1a1a5cc813919560a21b60648201526084016106a7565b6001600160a01b03861660009081526003602052604090819020905161126c908590613cdc565b9081526040519081900360200190206003015460ff166112da5760405162461bcd60e51b815260206004820152602360248201527f427579657220646f65736e277420686176652062696420666f7220746869732060448201526213919560ea1b60648201526084016106a7565b846000846040516112eb9190613cdc565b908152602001604051809103902060036000896001600160a01b03166001600160a01b031681526020019081526020016000208560405161132c9190613cdc565b908152604051908190036020019020548154811061134c5761134c613db0565b906000526020600020906004020160010154146113d15760405162461bcd60e51b815260206004820152603760248201527f54686973206275796572206469646e277420737567676573742074686174207060448201527f726963652076616c756520666f722074686973204e465400000000000000000060648201526084016106a7565b6001600160a01b0386166000908152600460205260409020548511156114505760405162461bcd60e51b815260206004820152602e60248201527f427579657220646f65736e2774206861766520656e6f7567682053504873206960448201526d1b881d1a194818dbdb9d1c9858dd60921b60648201526084016106a7565b6008548590156114865760006103e860085461146c9190613e50565b6114769083613e64565b90506114828183613ddf565b9150505b6000826000015160e001516000815181106114a3576114a3613db0565b602002602001015190506000816000015160070b13156115bc57602081015181516000916114d091613e7b565b6114dd9060070b84613e64565b60075460a084015160405163a9059cbb60e01b81526001600160a01b0391821660048201526024810184905292935060009291169063a9059cbb906044016020604051808303816000875af115801561153a573d6000803e3d6000fd5b505050506040513d601f19601f8201168201806040525081019061155e9190613d6c565b9050806115ad5760405162461bcd60e51b815260206004820152601a60248201527f4661696c656420746f2073656e6420726f79616c74792053706800000000000060448201526064016106a7565b6115b78285613ddf565b935050505b6115ef886005876040516115d09190613cdc565b908152604051908190036020019020546001600160a01b031684612760565b6000306001600160a01b0316639b23d3d98c6005896040516116119190613cdc565b908152602001604051809103902060000160009054906101000a90046001600160a01b03168c8e6040518563ffffffff1660e01b81526004016116579493929190613cb2565b6020604051808303816000875af1158015611676573d6000803e3d6000fd5b505050506040513d601f19601f8201168201806040525081019061169a9190613ecc565b60070b9050601681146116e85760405162461bcd60e51b815260206004820152601660248201527511985a5b1959081d1bc81d1c985b9cd9995c8813919560521b60448201526064016106a7565b6116f2868a612afa565b886001600160a01b031660058760405161170c9190613cdc565b9081526040805160209281900383018120548e82529281018c90526001600160a01b03928316928f16917f6e7a4c46395b56b7d97ccc3926f0db0dac3c760b187854dd2497e50c4dc82d62910160405180910390a460006005876040516117739190613cdc565b908152604051908190036020018120600401805492151560ff199093169290921790915589906005906117a7908990613cdc565b90815260405190819003602001902080546001600160a01b03929092166001600160a01b031990921691909117905560009b9a5050505050505050505050565b600060606000806101676001600160a01b031663618dc65e60e01b8787604051602401611815929190613ee7565b60408051601f198184030181529181526020820180516001600160e01b03166001600160e01b03199094169390931790925290516118539190613cdc565b6000604051808303816000865af19150503d8060008114611890576040519150601f19603f3d011682016040523d82523d6000602084013e611895565b606091505b50915091507f4af4780e06fe8cb9df64b0794fa6f01399af979175bb988e35e0e57e594567bc82826040516118cb929190613f0b565b60405180910390a1816118ef57601560405180602001604052806000815250611903565b808060200190518101906119039190613f6b565b60039190910b97909650945050505050565b6000806119228484612667565b90506000806119318686612673565b9092509050601682146119565760405162461bcd60e51b81526004016106a790613d25565b80604001516001600160a01b0316336001600160a01b0316148061198457506006546001600160a01b031633145b6119a05760405162461bcd60e51b81526004016106a790613df2565b6119ab836000612afa565b60006005846040516119bd9190613cdc565b908152602001604051809103902060040160006101000a81548160ff02191690831515021790555080604001516001600160a01b031685876001600160a01b03167f80a72ae9592e395c65a589d23febcc7bef05213af5110bf6e547949373c81503600587604051611a2f9190613cdc565b908152604051602091819003820181206001015481520160405180910390a4600093505050505b92915050565b60008060006101676001600160a01b0316639b23d3d960e01b888888886040516024016105859493929190613cb2565b6001600160a01b0383166000908152600160209081526040808320805482518185028101850190935280835260609493849084015b82821015611b23576000848152602090819020604080516080810182526004860290920180546001600160a01b039081168452600180830154858701526002830154909116928401929092526003015460608301529083529092019101611ac1565b505050509050611b348185856128e1565b95945050505050565b600080611b4a8585612667565b9050336001600160a01b0384161480611b6d57506006546001600160a01b031633145b611bcc5760405162461bcd60e51b815260206004820152602a60248201527f596f752068617665206e6f207065726d697373696f6e7320666f72207468697360448201526910333ab731ba34b7b71760b11b60648201526084016106a7565b6001600160a01b038316600090815260036020526040908190209051611bf3908390613cdc565b9081526040519081900360200190206003015460ff16611c555760405162461bcd60e51b815260206004820152601d60248201527f596f752068617665206e6f206269647320666f722074686973204e465400000060448201526064016106a7565b6001600160a01b0383166000908152600360205260408082209051611c7b908490613cdc565b9081526040519081900360200181205491506000908190611c9d908590613cdc565b90815260200160405180910390208281548110611cbc57611cbc613db0565b6000918252602080832060408051608081018252600490940290910180546001600160a01b039081168552600182015493850193909352600281015490921683820152600390910154606083015251909250611d19908590613cdc565b90815260200160405180910390208281548110611d3857611d38613db0565b60009182526020808320600492830201600101546001600160a01b03891684529190526040909120541015611dce5760405162461bcd60e51b815260206004820152603660248201527f596f752068617665206e6f20656e6f756768206d6f6e657920696e207468652060448201527518dbdb9d1c9858dd081d1bc819195b195d1948189a5960521b60648201526084016106a7565b336001600160a01b031686886001600160a01b03167f14db41ce7a73af30b2195ae2a1cdfe6165695f7af0d286d97da60d47b75318258460200151604051611e1891815260200190565b60405180910390a4611e2f85868360200151612760565b611e3d838260000151612c1d565b6000979650505050505050565b6006546000906001600160a01b03163314611ea05760405162461bcd60e51b81526020600482015260166024820152752737ba103a34329031b7b73a3930b1ba1037bbb732b960511b60448201526064016106a7565b6000611eac3084613056565b905060168114611efe5760405162461bcd60e51b815260206004820152601960248201527f4661696c656420746f206173736f636961746520746f6b656e0000000000000060448201526064016106a7565b90505b919050565b81516020818401810180516000825292820191850191909120919052805482908110610f6357600080fd5b6000808451118015611f44575060008351115b8015611f51575060008251115b611fa85760405162461bcd60e51b815260206004820152602260248201527f4172726179206c656e6774682073686f756c64206265206d6f7265207468616e604482015261020360f41b60648201526084016106a7565b82518451148015611fba575081518451145b611fff5760405162461bcd60e51b8152602060048201526016602482015275082e4e4c2f2e640d8cadccee8d040dad2e6dac2e8c6d60531b60448201526064016106a7565b60005b845181101561246657600085828151811061201f5761201f613db0565b60200260200101519050600085838151811061203d5761203d613db0565b60200260200101519050600085848151811061205b5761205b613db0565b602002602001015190506000806120728585612673565b9092509050601682146120975760405162461bcd60e51b81526004016106a790613d25565b60a08101516001600160a01b0316301461210e5760405162461bcd60e51b815260206004820152603260248201527f54686520436f6e747261637420646f65736e2774206861766520616c6c6f77616044820152713731b2903337b9103a3434b9903a37b5b2b760711b60648201526084016106a7565b80604001516001600160a01b0316336001600160a01b0316146121435760405162461bcd60e51b81526004016106a790613df2565b600061214f8686612667565b90506005816040516121619190613cdc565b9081526040519081900360200190206004015460ff1680156121b8575081604001516001600160a01b031660058260405161219c9190613cdc565b908152604051908190036020019020546001600160a01b031614155b156121c8576121c8816000612afa565b6040518060a0016040528083604001516001600160a01b03168152602001858152602001876001600160a01b03168152602001868152602001600115158152506005826040516122189190613cdc565b9081526040805160209281900383018120845181546001600160a01b03199081166001600160a01b039283161783558686015160018401559386015160028301805490951690821617909355606085015160038201556080909401516004909401805460ff19169415159490941790935586835233928892918a16917fe065949781be696d3f91077ee93178e3eb0472a4e60456f00a1161fde5735832910160405180910390a46122c761346a565b60005b6000836040516122da9190613cdc565b908152604051908190036020019020548110156123ce57600080846040516123029190613cdc565b9081526020016040518091039020828154811061232157612321613db0565b600091825260209182902060408051608081018252600490930290910180546001600160a01b03908116845260018201549484019490945260028101549093168282015260039092015460608201529051909150600590612383908690613cdc565b9081526020016040518091039020600101548160200151101580156123af575082602001518160200151115b156123bb5791506123ce565b50806123c681613fae565b9150506122ca565b5060208101511561244c57805160208201516040516304e524b560e41b81523092634e524b5092612407928c928c92909160040161364d565b6020604051808303816000875af1158015612426573d6000803e3d6000fd5b505050506040513d601f19601f8201168201806040525081019061244a9190613dc6565b505b50505050505050808061245e90613fae565b915050612002565b5060005b949350505050565b6001600160a01b0383166000908152600260209081526040808320805482518185028101850190935280835260609493849084018215611b23576000848152602090819020604080516080810182526004860290920180546001600160a01b039081168452600180830154858701526002830154909116928401929092526003015460608301529083529092019101611ac1565b61250e61346a565b600061251a8585612667565b604080516080810182526001600160a01b0380871680835260006020808501829052928b1684860152606084018a905290815260039091528281209251939450909290919061256a908590613cdc565b908152604080519182900360209081018320608084018352805484526001810154918401919091526002810154918301919091526003015460ff161515606082018190529091506125bf57509150610f409050565b6000836040516125cf9190613cdc565b9081526040519081900360200190208151815481106125f0576125f0613db0565b600091825260209182902060408051608081018252600490930290910180546001600160a01b039081168452600182015494840194909452600281015490931690820152600390910154606082015293505050509392505050565b60016020528160005260406000208181548110610f6357600080fd5b6060610f40838361312a565b600061267d6134a4565b604080516001600160a01b0386166024820152600785900b60448083019190915282518083039091018152606490910182526020810180516001600160e01b031663050fc3b560e31b17905290516000918291610167916126dd91613cdc565b6000604051808303816000865af19150503d806000811461271a576040519150601f19603f3d011682016040523d82523d6000602084013e61271f565b606091505b509150915061272c6134a4565b826127395760158161274d565b8180602001905181019061274d9190614642565b60039190910b9890975095505050505050565b6001600160a01b0383166000908152600460205260409020548111156127d65760405162461bcd60e51b815260206004820152602560248201527f4e6f7420656e6f75676820757365722073706873206f6e2074686520636f6e74604482015264726163742160d81b60648201526084016106a7565b60075460405163a9059cbb60e01b81526001600160a01b03848116600483015260248201849052600092169063a9059cbb906044016020604051808303816000875af115801561282a573d6000803e3d6000fd5b505050506040513d601f19601f8201168201806040525081019061284e9190613d6c565b90508061289d5760405162461bcd60e51b815260206004820152601f60248201527f4661696c656420746f207472616e736665722053706865726120546f6b656e0060448201526064016106a7565b6001600160a01b03841630146128db576001600160a01b038416600090815260046020526040812080548492906128d5908490613ddf565b90915550505b50505050565b606083516000036128f3575082610f40565b6000826001600160401b03161161294c5760405162461bcd60e51b815260206004820152601f60248201527f7061676553697a65206d7573742062652067726561746572207468616e20300060448201526064016106a7565b6000836001600160401b0316116129a55760405162461bcd60e51b815260206004820152601b60248201527f706167696e6174696f6e206973207374617274696e672061742031000000000060448201526064016106a7565b6000826129b3600186614729565b6129bd9190614750565b6001600160401b0316905084518110612a0d5760405162461bcd60e51b815260206004820152601260248201527150616765206f7574206f6620626f756e647360701b60448201526064016106a7565b6000612a226001600160401b03851683613d9d565b90508551811115612a31575084515b6000612a3d8383613ddf565b6001600160401b03811115612a5457612a546137ac565b604051908082528060200260200182016040528015612a8d57816020015b612a7a61346a565b815260200190600190039081612a725790505b509050825b82811015612aef57878181518110612aac57612aac613db0565b6020026020010151828583612ac19190613ddf565b81518110612ad157612ad1613db0565b60200260200101819052508080612ae790613fae565b915050612a92565b509695505050505050565b60006001600084604051612b0e9190613cdc565b90815260405190819003602001902054612b28919061477b565b90505b60008112612c1857600081905060008085604051612b499190613cdc565b90815260200160405180910390208281548110612b6857612b68613db0565b600091825260209182902060408051608081018252600490930290910180546001600160a01b039081168085526001830154958501959095526002820154811692840192909252600301546060830152909250851614612bd55780516020820151612bd591908190612760565b612be3858260000151612c1d565b6001600086604051612bf59190613cdc565b90815260405190819003602001902054612c0f919061477b565b92505050612b2b565b505050565b6000600583604051612c2f9190613cdc565b908152604080519182900360209081018320546001600160a01b0386811660009081526003909352929091209116925090612c6b908590613cdc565b9081526040519081900360200190206003015460ff16612cd95760405162461bcd60e51b8152602060048201526024808201527f5468657265206973206e6f206269642c20796f752063616e27742072656d6f7660448201526319481a5d60e21b60648201526084016106a7565b6001600160a01b0382166000908152600360205260408082209051612cff908690613cdc565b908152604080519182900360209081018320608084018352805484526001810154918401919091526002810154918301919091526003015460ff1615156060820152905060005b60038160ff161015613006576000808260ff16600003612d8c57600087604051612d709190613cdc565b9081526020016040518091039020915083600001519050612dde565b8260ff16600103612dbc5750506001600160a01b0384166000908152600260205260409081902090830151612dde565b50506001600160a01b0383166000908152600160209081526040909120908301515b8154600090612def90600190613ddf565b90506000838281548110612e0557612e05613db0565b600091825260209182902060408051608081018252600490930290910180546001600160a01b039081168452600182015494840194909452600281015490931690820152600390910154606082015284549091508190859085908110612e6d57612e6d613db0565b6000918252602091829020835160049092020180546001600160a01b039283166001600160a01b031991821617825592840151600182015560408401516002820180549190931693169290921790556060909101516003909101558354849080612ed957612ed961479b565b60008281526020812060046000199093019283020180546001600160a01b03199081168255600182018390556002820180549091169055600301819055915560ff86169003612f625780516001600160a01b0316600090815260036020526040908190209051849190612f4d908c90613cdc565b90815260405190819003602001902055612fef565b8460ff16600103612fb05780516001600160a01b0316600090815260036020526040908190209051849190612f98908c90613cdc565b90815260405190819003602001902060020155612fef565b80516001600160a01b0316600090815260036020526040908190209051849190612fdb908c90613cdc565b908152604051908190036020019020600101555b505050508080612ffe906147b1565b915050612d46565b506001600160a01b038316600090815260036020526040808220905161302d908790613cdc565b908152604051908190036020019020600301805491151560ff1990921691909117905550505050565b604080516001600160a01b038481166024830152831660448083019190915282518083039091018152606490910182526020810180516001600160e01b031663248a35ef60e11b179052905160009182918291610167916130b79190613cdc565b6000604051808303816000865af19150503d80600081146130f4576040519150601f19603f3d011682016040523d82523d6000602084013e6130f9565b606091505b50915091508161310a57601561311e565b8080602001905181019061311e9190613d0a565b60030b95945050505050565b6060600061313784613172565b905060006131448461335d565b905081816040516020016131599291906147d0565b6040516020818303038152906040529250505092915050565b604080518082018252601081526f181899199a1a9b1b9c1cb0b131b232b360811b60208201528151602a80825260608281019094526001600160a01b0385169291600091602082018180368337019050509050600360fc1b816000815181106131dd576131dd613db0565b60200101906001600160f81b031916908160001a905350600f60fb1b8160018151811061320c5761320c613db0565b60200101906001600160f81b031916908160001a90535060005b6014811015613354578260048561323e84600c613d9d565b6020811061324e5761324e613db0565b1a60f81b6001600160f81b031916901c60f81c60ff168151811061327457613274613db0565b01602001516001600160f81b0319168261328f836002613e64565b61329a906002613d9d565b815181106132aa576132aa613db0565b60200101906001600160f81b031916908160001a90535082846132ce83600c613d9d565b602081106132de576132de613db0565b825191901a600f169081106132f5576132f5613db0565b01602001516001600160f81b03191682613310836002613e64565b61331b906003613d9d565b8151811061332b5761332b613db0565b60200101906001600160f81b031916908160001a9053508061334c81613fae565b915050613226565b50949350505050565b6060816000036133845750506040805180820190915260018152600360fc1b602082015290565b816000815b80156133af578161339981613fae565b92506133a89050600a82613e50565b9050613389565b6000826001600160401b038111156133c9576133c96137ac565b6040519080825280601f01601f1916602001820160405280156133f3576020820181803683370190505b509050825b841561346057806134088161480c565b91506134179050600a86614823565b613422906030613d9d565b60f81b82828151811061343757613437613db0565b60200101906001600160f81b031916908160001a905350613459600a86613e50565b94506133f8565b5095945050505050565b604051806080016040528060006001600160a01b031681526020016000815260200160006001600160a01b03168152602001600081525090565b604080516103008101825260606101e082018181526102008301829052600061022084018190526102408401839052610260840181905261028084018190526102a084018190526102c0840183905284518084018652818152602081018290529485018190526102e084019490945260c0830190815260e0830184905261010083018490526101208301849052610140830193909352610160820181905261018082018190526101a082018190526101c08201529081908152600060208201819052604082018190526060808301829052608083015260a09091015290565b6001600160a01b038116811461359857600080fd5b50565b600080600080608085870312156135b157600080fd5b84356135bc81613583565b935060208501356135cc81613583565b925060408501356135dc81613583565b9396929550929360600135925050565b60008060006060848603121561360157600080fd5b833561360c81613583565b95602085013595506040909401359392505050565b6000806040838503121561363457600080fd5b823561363f81613583565b946020939093013593505050565b6001600160a01b039485168152602081019390935292166040820152606081019190915260800190565b80356001600160401b0381168114611f0157600080fd5b600080600080608085870312156136a457600080fd5b84356136af81613583565b9350602085013592506136c460408601613677565b91506136d260608601613677565b905092959194509250565b6020808252825182820181905260009190848201906040850190845b8181101561374b5761373883855180516001600160a01b0390811683526020808301519084015260408083015190911690830152606090810151910152565b92840192608092909201916001016136f9565b50909695505050505050565b60006020828403121561376957600080fd5b8135610f4081613583565b6000806000806080858703121561378a57600080fd5b843561379581613583565b93506020850135925060408501356135dc81613583565b634e487b7160e01b600052604160045260246000fd5b604080519081016001600160401b03811182821017156137e4576137e46137ac565b60405290565b60405160a081016001600160401b03811182821017156137e4576137e46137ac565b60405161012081016001600160401b03811182821017156137e4576137e46137ac565b60405160c081016001600160401b03811182821017156137e4576137e46137ac565b604051601f8201601f191681016001600160401b0381118282101715613879576138796137ac565b604052919050565b60006001600160401b0382111561389a5761389a6137ac565b50601f01601f191660200190565b60006138bb6138b684613881565b613851565b90508281528383830111156138cf57600080fd5b828260208301376000602084830101529392505050565b600080604083850312156138f957600080fd5b823561390481613583565b915060208301356001600160401b0381111561391f57600080fd5b8301601f8101851361393057600080fd5b61393f858235602084016138a8565b9150509250929050565b60005b8381101561396457818101518382015260200161394c565b50506000910152565b60008151808452613985816020860160208601613949565b601f01601f19169290920160200192915050565b82815260406020820152600061246a604083018461396d565b6000806000606084860312156139c757600080fd5b83356139d281613583565b92506139e060208501613677565b91506139ee60408501613677565b90509250925092565b600080600060608486031215613a0c57600080fd5b8335613a1781613583565b9250602084013591506040840135613a2e81613583565b809150509250925092565b600082601f830112613a4a57600080fd5b610f40838335602085016138a8565b600060208284031215613a6b57600080fd5b81356001600160401b03811115613a8157600080fd5b61246a84828501613a39565b60008060408385031215613aa057600080fd5b82356001600160401b03811115613ab657600080fd5b613ac285828601613a39565b95602094909401359450505050565b60006001600160401b03821115613aea57613aea6137ac565b5060051b60200190565b600082601f830112613b0557600080fd5b81356020613b156138b683613ad1565b82815260059290921b84018101918181019086841115613b3457600080fd5b8286015b84811015612aef5780358352918301918301613b38565b600080600060608486031215613b6457600080fd5b83356001600160401b0380821115613b7b57600080fd5b818601915086601f830112613b8f57600080fd5b81356020613b9f6138b683613ad1565b82815260059290921b8401810191818101908a841115613bbe57600080fd5b948201945b83861015613be5578535613bd681613583565b82529482019490820190613bc3565b97505087013592505080821115613bfb57600080fd5b613c0787838801613af4565b93506040860135915080821115613c1d57600080fd5b50613c2a86828701613af4565b9150509250925092565b81516001600160a01b03908116825260208084015190830152604080840151909116908201526060808301519082015260808101611a56565b60008060408385031215613c8057600080fd5b8235613c8b81613583565b915060208301356001600160401b03811115613ca657600080fd5b61393f85828601613a39565b6001600160a01b039485168152928416602084015292166040820152606081019190915260800190565b60008251613cee818460208701613949565b9190910192915050565b8051600381900b8114611f0157600080fd5b600060208284031215613d1c57600080fd5b610f4082613cf8565b60208082526018908201527f4661696c656420746f206665746368204e465420496e666f0000000000000000604082015260600190565b80518015158114611f0157600080fd5b600060208284031215613d7e57600080fd5b610f4082613d5c565b634e487b7160e01b600052601160045260246000fd5b80820180821115611a5657611a56613d87565b634e487b7160e01b600052603260045260246000fd5b600060208284031215613dd857600080fd5b5051919050565b81810381811115611a5657611a56613d87565b60208082526028908201527f596f752068617665206e6f207065726d697373696f6e20666f72207468697320604082015267333ab731ba34b7b760c11b606082015260800190565b634e487b7160e01b600052601260045260246000fd5b600082613e5f57613e5f613e3a565b500490565b8082028115828204841417611a5657611a56613d87565b60008160070b8360070b80613e9257613e92613e3a565b677fffffffffffffff19821460001982141615613eb157613eb1613d87565b90059392505050565b8051600781900b8114611f0157600080fd5b600060208284031215613ede57600080fd5b610f4082613eba565b6001600160a01b038316815260406020820181905260009061246a9083018461396d565b821515815260406020820152600061246a604083018461396d565b600082601f830112613f3757600080fd5b8151613f456138b682613881565b818152846020838601011115613f5a57600080fd5b61246a826020830160208701613949565b60008060408385031215613f7e57600080fd5b613f8783613cf8565b915060208301516001600160401b03811115613fa257600080fd5b61393f85828601613f26565b600060018201613fc057613fc0613d87565b5060010190565b8051611f0181613583565b600082601f830112613fe357600080fd5b81516020613ff36138b683613ad1565b82815260059290921b8401810191818101908684111561401257600080fd5b8286015b84811015612aef5780516001600160401b038082111561403557600080fd5b908801906040601f19838c03810182131561404f57600080fd5b6140576137c2565b888501518152828501518481111561406e57600080fd5b949094019360a0858e03830112156140865760008081fd5b61408e6137ea565b915061409b898601613d5c565b8252828501516140aa81613583565b828a0152606085810151858111156140c25760008081fd5b6140d08f8c838a0101613f26565b85850152506080935083860151858111156140eb5760008081fd5b6140f98f8c838a0101613f26565b82850152505060a0850151945061410f85613583565b9181019390935280870192909252508352918301918301614016565b60006060828403121561413d57600080fd5b604051606081018181106001600160401b038211171561415f5761415f6137ac565b60405290508061416e83613eba565b8152602083015161417e81613583565b602082015261418f60408401613eba565b60408201525092915050565b600061016082840312156141ae57600080fd5b6141b661380c565b905081516001600160401b03808211156141cf57600080fd5b6141db85838601613f26565b835260208401519150808211156141f157600080fd5b6141fd85838601613f26565b602084015261420e60408501613fc7565b6040840152606084015191508082111561422757600080fd5b61423385838601613f26565b606084015261424460808501613d5c565b608084015261425560a08501613eba565b60a084015261426660c08501613d5c565b60c084015260e084015191508082111561427f57600080fd5b5061428c84828501613fd2565b60e0830152506101006142a18482850161412b565b9082015292915050565b600082601f8301126142bc57600080fd5b815160206142cc6138b683613ad1565b82815260a092830285018201928282019190878511156142eb57600080fd5b8387015b8581101561436d5781818a0312156143075760008081fd5b61430f6137ea565b61431882613eba565b81528582015161432781613583565b818701526040614338838201613d5c565b908201526060614349838201613d5c565b9082015260808281015161435c81613583565b9082015284529284019281016142ef565b5090979650505050505050565b600082601f83011261438b57600080fd5b8151602061439b6138b683613ad1565b82815260c092830285018201928282019190878511156143ba57600080fd5b8387015b8581101561436d5781818a0312156143d65760008081fd5b6143de61382f565b6143e782613eba565b81526143f4868301613eba565b868201526040614405818401613eba565b908201526060614416838201613eba565b908201526080614427838201613d5c565b9082015260a08281015161443a81613583565b9082015284529284019281016143be565b600082601f83011261445c57600080fd5b8151602061446c6138b683613ad1565b82815260c0928302850182019282820191908785111561448b57600080fd5b8387015b8581101561436d5781818a0312156144a75760008081fd5b6144af61382f565b6144b882613eba565b81526144c5868301613eba565b8682015260406144d6818401613eba565b908201526060828101516144e981613583565b9082015260806144fa838201613d5c565b9082015260a08281015161450d81613583565b90820152845292840192810161448f565b6000610120828403121561453157600080fd5b61453961380c565b905081516001600160401b038082111561455257600080fd5b61455e8583860161419b565b835261456c60208501613eba565b602084015261457d60408501613d5c565b604084015261458e60608501613d5c565b606084015261459f60808501613d5c565b608084015260a08401519150808211156145b857600080fd5b6145c4858386016142ab565b60a084015260c08401519150808211156145dd57600080fd5b6145e98583860161437a565b60c084015260e084015191508082111561460257600080fd5b61460e8583860161444b565b60e08401526101009150818401518181111561462957600080fd5b61463586828701613f26565b8385015250505092915050565b6000806040838503121561465557600080fd5b61465e83613cf8565b915060208301516001600160401b038082111561467a57600080fd5b9084019060c0828703121561468e57600080fd5b61469661382f565b8251828111156146a557600080fd5b6146b18882860161451e565b8252506146c060208401613eba565b60208201526146d160408401613fc7565b60408201526146e260608401613eba565b60608201526080830151828111156146f957600080fd5b61470588828601613f26565b60808301525061471760a08401613fc7565b60a08201528093505050509250929050565b6001600160401b0382811682821603908082111561474957614749613d87565b5092915050565b6001600160401b0381811683821602808216919082811461477357614773613d87565b505092915050565b818103600083128015838313168383128216171561474957614749613d87565b634e487b7160e01b600052603160045260246000fd5b600060ff821660ff81036147c7576147c7613d87565b60010192915050565b600083516147e2818460208801613949565b602f60f81b9083019081528351614800816001840160208801613949565b01600101949350505050565b60008161481b5761481b613d87565b506000190190565b60008261483257614832613e3a565b50069056fea26469706673582212207be1c7b7f144eb268db129fab8af0ddd7d88fe51fc5c8053392a5ce3f4e81c9764736f6c63430008120033",
  "devdoc": {
    "kind": "dev",
    "methods": {
      "redirectForToken(address,bytes)": {
        "params": {
          "encodedFunctionSelector": "The function selector from the ERC20 interface + the bytes input for the function called",
          "token": "The token address"
        },
        "returns": {
          "response": "The result of the call that had been encoded and sent for execution.",
          "responseCode": "The response code for the status of the request. SUCCESS is 22."
        }
      },
      "transferFrom(address,address,address,uint256)": {
        "params": {
          "amount": "The amount of tokens to transfer from `from` to `to`",
          "from": "The account address of the owner of the token, on the behalf of which to transfer `amount` tokens",
          "to": "The account address of the receiver of the `amount` tokens",
          "token": "The address of the fungible Hedera token to transfer"
        },
        "returns": {
          "responseCode": "The response code for the status of the request. SUCCESS is 22."
        }
      },
      "transferFromNFT(address,address,address,uint256)": {
        "params": {
          "from": "The account address of the owner of `serialNumber` of `token`",
          "serialNumber": "The NFT serial number to transfer",
          "to": "The account address of the receiver of `serialNumber`",
          "token": "The address of the non-fungible Hedera token to transfer"
        },
        "returns": {
          "responseCode": "The response code for the status of the request. SUCCESS is 22."
        }
      }
    },
    "version": 1
  },
  "userdoc": {
    "events": {
      "CallResponseEvent(bool,bytes)": {
        "notice": "Generic event"
      }
    },
    "kind": "user",
    "methods": {
      "redirectForToken(address,bytes)": {
        "notice": "Redirect for token"
      },
      "transferFrom(address,address,address,uint256)": {
        "notice": "Only applicable to fungible tokens"
      },
      "transferFromNFT(address,address,address,uint256)": {
        "notice": "Transfers `serialNumber` of `token` from `from` to `to` using the allowance mechanism. Only applicable to NFT tokens"
      }
    },
    "version": 1
  },
  "storageLayout": {
    "storage": [
      {
        "astId": 4219,
        "contract": "contracts/SpheraMarketplace/Market_Ethereum.sol:Market_Ethereum",
        "label": "tokenBids",
        "offset": 0,
        "slot": "0",
        "type": "t_mapping(t_string_memory_ptr,t_array(t_struct(Bid)4190_storage)dyn_storage)"
      },
      {
        "astId": 4225,
        "contract": "contracts/SpheraMarketplace/Market_Ethereum.sol:Market_Ethereum",
        "label": "receivedBids",
        "offset": 0,
        "slot": "1",
        "type": "t_mapping(t_address,t_array(t_struct(Bid)4190_storage)dyn_storage)"
      },
      {
        "astId": 4231,
        "contract": "contracts/SpheraMarketplace/Market_Ethereum.sol:Market_Ethereum",
        "label": "sentBids",
        "offset": 0,
        "slot": "2",
        "type": "t_mapping(t_address,t_array(t_struct(Bid)4190_storage)dyn_storage)"
      },
      {
        "astId": 4238,
        "contract": "contracts/SpheraMarketplace/Market_Ethereum.sol:Market_Ethereum",
        "label": "buyersBidsIndexes",
        "offset": 0,
        "slot": "3",
        "type": "t_mapping(t_address,t_mapping(t_string_memory_ptr,t_struct(BidIndexes)4199_storage))"
      },
      {
        "astId": 4243,
        "contract": "contracts/SpheraMarketplace/Market_Ethereum.sol:Market_Ethereum",
        "label": "buyersTokens",
        "offset": 0,
        "slot": "4",
        "type": "t_mapping(t_address,t_struct(BuyerTokens)4202_storage)"
      },
      {
        "astId": 4248,
        "contract": "contracts/SpheraMarketplace/Market_Ethereum.sol:Market_Ethereum",
        "label": "nfts",
        "offset": 0,
        "slot": "5",
        "type": "t_mapping(t_string_memory_ptr,t_struct(NFT)4213_storage)"
      },
      {
        "astId": 4250,
        "contract": "contracts/SpheraMarketplace/Market_Ethereum.sol:Market_Ethereum",
        "label": "contractOwner",
        "offset": 0,
        "slot": "6",
        "type": "t_address"
      },
      {
        "astId": 4252,
        "contract": "contracts/SpheraMarketplace/Market_Ethereum.sol:Market_Ethereum",
        "label": "spheraTokenAddress",
        "offset": 0,
        "slot": "7",
        "type": "t_address"
      },
      {
        "astId": 4255,
        "contract": "contracts/SpheraMarketplace/Market_Ethereum.sol:Market_Ethereum",
        "label": "taxFee",
        "offset": 0,
        "slot": "8",
        "type": "t_uint256"
      }
    ],
    "types": {
      "t_address": {
        "encoding": "inplace",
        "label": "address",
        "numberOfBytes": "20"
      },
      "t_address_payable": {
        "encoding": "inplace",
        "label": "address payable",
        "numberOfBytes": "20"
      },
      "t_array(t_struct(Bid)4190_storage)dyn_storage": {
        "base": "t_struct(Bid)4190_storage",
        "encoding": "dynamic_array",
        "label": "struct Market_Ethereum.Bid[]",
        "numberOfBytes": "32"
      },
      "t_bool": {
        "encoding": "inplace",
        "label": "bool",
        "numberOfBytes": "1"
      },
      "t_mapping(t_address,t_array(t_struct(Bid)4190_storage)dyn_storage)": {
        "encoding": "mapping",
        "key": "t_address",
        "label": "mapping(address => struct Market_Ethereum.Bid[])",
        "numberOfBytes": "32",
        "value": "t_array(t_struct(Bid)4190_storage)dyn_storage"
      },
      "t_mapping(t_address,t_mapping(t_string_memory_ptr,t_struct(BidIndexes)4199_storage))": {
        "encoding": "mapping",
        "key": "t_address",
        "label": "mapping(address => mapping(string => struct Market_Ethereum.BidIndexes))",
        "numberOfBytes": "32",
        "value": "t_mapping(t_string_memory_ptr,t_struct(BidIndexes)4199_storage)"
      },
      "t_mapping(t_address,t_struct(BuyerTokens)4202_storage)": {
        "encoding": "mapping",
        "key": "t_address",
        "label": "mapping(address => struct Market_Ethereum.BuyerTokens)",
        "numberOfBytes": "32",
        "value": "t_struct(BuyerTokens)4202_storage"
      },
      "t_mapping(t_string_memory_ptr,t_array(t_struct(Bid)4190_storage)dyn_storage)": {
        "encoding": "mapping",
        "key": "t_string_memory_ptr",
        "label": "mapping(string => struct Market_Ethereum.Bid[])",
        "numberOfBytes": "32",
        "value": "t_array(t_struct(Bid)4190_storage)dyn_storage"
      },
      "t_mapping(t_string_memory_ptr,t_struct(BidIndexes)4199_storage)": {
        "encoding": "mapping",
        "key": "t_string_memory_ptr",
        "label": "mapping(string => struct Market_Ethereum.BidIndexes)",
        "numberOfBytes": "32",
        "value": "t_struct(BidIndexes)4199_storage"
      },
      "t_mapping(t_string_memory_ptr,t_struct(NFT)4213_storage)": {
        "encoding": "mapping",
        "key": "t_string_memory_ptr",
        "label": "mapping(string => struct Market_Ethereum.NFT)",
        "numberOfBytes": "32",
        "value": "t_struct(NFT)4213_storage"
      },
      "t_string_memory_ptr": {
        "encoding": "bytes",
        "label": "string",
        "numberOfBytes": "32"
      },
      "t_struct(Bid)4190_storage": {
        "encoding": "inplace",
        "label": "struct Market_Ethereum.Bid",
        "members": [
          {
            "astId": 4183,
            "contract": "contracts/SpheraMarketplace/Market_Ethereum.sol:Market_Ethereum",
            "label": "owner",
            "offset": 0,
            "slot": "0",
            "type": "t_address_payable"
          },
          {
            "astId": 4185,
            "contract": "contracts/SpheraMarketplace/Market_Ethereum.sol:Market_Ethereum",
            "label": "amount",
            "offset": 0,
            "slot": "1",
            "type": "t_uint256"
          },
          {
            "astId": 4187,
            "contract": "contracts/SpheraMarketplace/Market_Ethereum.sol:Market_Ethereum",
            "label": "token",
            "offset": 0,
            "slot": "2",
            "type": "t_address"
          },
          {
            "astId": 4189,
            "contract": "contracts/SpheraMarketplace/Market_Ethereum.sol:Market_Ethereum",
            "label": "serialNumber",
            "offset": 0,
            "slot": "3",
            "type": "t_uint256"
          }
        ],
        "numberOfBytes": "128"
      },
      "t_struct(BidIndexes)4199_storage": {
        "encoding": "inplace",
        "label": "struct Market_Ethereum.BidIndexes",
        "members": [
          {
            "astId": 4192,
            "contract": "contracts/SpheraMarketplace/Market_Ethereum.sol:Market_Ethereum",
            "label": "tokenIndex",
            "offset": 0,
            "slot": "0",
            "type": "t_uint256"
          },
          {
            "astId": 4194,
            "contract": "contracts/SpheraMarketplace/Market_Ethereum.sol:Market_Ethereum",
            "label": "receivedIndex",
            "offset": 0,
            "slot": "1",
            "type": "t_uint256"
          },
          {
            "astId": 4196,
            "contract": "contracts/SpheraMarketplace/Market_Ethereum.sol:Market_Ethereum",
            "label": "sentIndex",
            "offset": 0,
            "slot": "2",
            "type": "t_uint256"
          },
          {
            "astId": 4198,
            "contract": "contracts/SpheraMarketplace/Market_Ethereum.sol:Market_Ethereum",
            "label": "isSet",
            "offset": 0,
            "slot": "3",
            "type": "t_bool"
          }
        ],
        "numberOfBytes": "128"
      },
      "t_struct(BuyerTokens)4202_storage": {
        "encoding": "inplace",
        "label": "struct Market_Ethereum.BuyerTokens",
        "members": [
          {
            "astId": 4201,
            "contract": "contracts/SpheraMarketplace/Market_Ethereum.sol:Market_Ethereum",
            "label": "sphs",
            "offset": 0,
            "slot": "0",
            "type": "t_uint256"
          }
        ],
        "numberOfBytes": "32"
      },
      "t_struct(NFT)4213_storage": {
        "encoding": "inplace",
        "label": "struct Market_Ethereum.NFT",
        "members": [
          {
            "astId": 4204,
            "contract": "contracts/SpheraMarketplace/Market_Ethereum.sol:Market_Ethereum",
            "label": "owner",
            "offset": 0,
            "slot": "0",
            "type": "t_address_payable"
          },
          {
            "astId": 4206,
            "contract": "contracts/SpheraMarketplace/Market_Ethereum.sol:Market_Ethereum",
            "label": "price",
            "offset": 0,
            "slot": "1",
            "type": "t_uint256"
          },
          {
            "astId": 4208,
            "contract": "contracts/SpheraMarketplace/Market_Ethereum.sol:Market_Ethereum",
            "label": "token",
            "offset": 0,
            "slot": "2",
            "type": "t_address"
          },
          {
            "astId": 4210,
            "contract": "contracts/SpheraMarketplace/Market_Ethereum.sol:Market_Ethereum",
            "label": "serialNumber",
            "offset": 0,
            "slot": "3",
            "type": "t_uint256"
          },
          {
            "astId": 4212,
            "contract": "contracts/SpheraMarketplace/Market_Ethereum.sol:Market_Ethereum",
            "label": "isListed",
            "offset": 0,
            "slot": "4",
            "type": "t_bool"
          }
        ],
        "numberOfBytes": "160"
      },
      "t_uint256": {
        "encoding": "inplace",
        "label": "uint256",
        "numberOfBytes": "32"
      }
    }
  }
}