{
  "address": "0x4931347Ac39cDCcb3e3496d361B7d946d1CD2bC5",
  "abi": [
    {
      "inputs": [
        {
          "internalType": "address",
          "name": "_azukiAddress",
          "type": "address"
        },
        {
          "internalType": "uint256",
          "name": "_maxSupply",
          "type": "uint256"
        },
        {
          "internalType": "uint256",
          "name": "_totalPresaleAndAuctionSupply",
          "type": "uint256"
        },
        {
          "internalType": "address payable",
          "name": "_withdrawAddress",
          "type": "address"
        }
      ],
      "stateMutability": "nonpayable",
      "type": "constructor"
    },
    {
      "inputs": [],
      "name": "AllowlistMintNotOpen",
      "type": "error"
    },
    {
      "inputs": [],
      "name": "ApprovalCallerNotOwnerNorApproved",
      "type": "error"
    },
    {
      "inputs": [],
      "name": "ApprovalQueryForNonexistentToken",
      "type": "error"
    },
    {
      "inputs": [],
      "name": "AuctionMintNotOpen",
      "type": "error"
    },
    {
      "inputs": [],
      "name": "BalanceQueryForZeroAddress",
      "type": "error"
    },
    {
      "inputs": [],
      "name": "BeanCannotBeClaimed",
      "type": "error"
    },
    {
      "inputs": [],
      "name": "BeanRedeemerNotSet",
      "type": "error"
    },
    {
      "inputs": [],
      "name": "ChunkAlreadyProcessed",
      "type": "error"
    },
    {
      "inputs": [],
      "name": "ClaimWindowNotOpen",
      "type": "error"
    },
    {
      "inputs": [],
      "name": "ForceRedeemBeanOwnerMismatch",
      "type": "error"
    },
    {
      "inputs": [],
      "name": "InitialTransferLockOn",
      "type": "error"
    },
    {
      "inputs": [],
      "name": "InsufficientFunds",
      "type": "error"
    },
    {
      "inputs": [],
      "name": "InvalidAuctionSetup",
      "type": "error"
    },
    {
      "inputs": [],
      "name": "InvalidContractSetup",
      "type": "error"
    },
    {
      "inputs": [],
      "name": "InvalidPresaleSetup",
      "type": "error"
    },
    {
      "inputs": [],
      "name": "InvalidSignature",
      "type": "error"
    },
    {
      "inputs": [],
      "name": "MaxAuctionMintForAddress",
      "type": "error"
    },
    {
      "inputs": [],
      "name": "MaxPresaleOrAuctionMintSupplyReached",
      "type": "error"
    },
    {
      "inputs": [],
      "name": "MintERC2309QuantityExceedsLimit",
      "type": "error"
    },
    {
      "inputs": [],
      "name": "MintToZeroAddress",
      "type": "error"
    },
    {
      "inputs": [],
      "name": "MintZeroQuantity",
      "type": "error"
    },
    {
      "inputs": [],
      "name": "MintingTooMuchInPresale",
      "type": "error"
    },
    {
      "inputs": [],
      "name": "MismatchedArrays",
      "type": "error"
    },
    {
      "inputs": [],
      "name": "MismatchedTokenOwnerForClaim",
      "type": "error"
    },
    {
      "inputs": [],
      "name": "NotAllowedByRegistry",
      "type": "error"
    },
    {
      "inputs": [],
      "name": "OverMaxSupply",
      "type": "error"
    },
    {
      "inputs": [],
      "name": "OwnerQueryForNonexistentToken",
      "type": "error"
    },
    {
      "inputs": [],
      "name": "OwnershipNotInitializedForExtraData",
      "type": "error"
    },
    {
      "inputs": [],
      "name": "PresaleNotOpen",
      "type": "error"
    },
    {
      "inputs": [],
      "name": "RedeemBeanNotOpen",
      "type": "error"
    },
    {
      "inputs": [],
      "name": "RefundFailed",
      "type": "error"
    },
    {
      "inputs": [],
      "name": "RegistryNotSet",
      "type": "error"
    },
    {
      "inputs": [],
      "name": "TransferCallerNotOwnerNorApproved",
      "type": "error"
    },
    {
      "inputs": [],
      "name": "TransferFromIncorrectOwner",
      "type": "error"
    },
    {
      "inputs": [],
      "name": "TransferToNonERC721ReceiverImplementer",
      "type": "error"
    },
    {
      "inputs": [],
      "name": "TransferToZeroAddress",
      "type": "error"
    },
    {
      "inputs": [],
      "name": "URIQueryForNonexistentToken",
      "type": "error"
    },
    {
      "inputs": [],
      "name": "WithdrawFailed",
      "type": "error"
    },
    {
      "anonymous": false,
      "inputs": [
        {
          "indexed": true,
          "internalType": "uint256",
          "name": "chunkNum",
          "type": "uint256"
        }
      ],
      "name": "AirdroppedChunk",
      "type": "event"
    },
    {
      "anonymous": false,
      "inputs": [
        {
          "indexed": true,
          "internalType": "address",
          "name": "owner",
          "type": "address"
        },
        {
          "indexed": true,
          "internalType": "address",
          "name": "approved",
          "type": "address"
        },
        {
          "indexed": true,
          "internalType": "uint256",
          "name": "tokenId",
          "type": "uint256"
        }
      ],
      "name": "Approval",
      "type": "event"
    },
    {
      "anonymous": false,
      "inputs": [
        {
          "indexed": true,
          "internalType": "address",
          "name": "owner",
          "type": "address"
        },
        {
          "indexed": true,
          "internalType": "address",
          "name": "operator",
          "type": "address"
        },
        {
          "indexed": false,
          "internalType": "bool",
          "name": "approved",
          "type": "bool"
        }
      ],
      "name": "ApprovalForAll",
      "type": "event"
    },
    {
      "anonymous": false,
      "inputs": [
        {
          "indexed": true,
          "internalType": "uint256",
          "name": "sourceAzukiId",
          "type": "uint256"
        },
        {
          "indexed": true,
          "internalType": "uint256",
          "name": "beanId",
          "type": "uint256"
        }
      ],
      "name": "ClaimedBean",
      "type": "event"
    },
    {
      "anonymous": false,
      "inputs": [
        {
          "indexed": true,
          "internalType": "uint256",
          "name": "fromTokenId",
          "type": "uint256"
        },
        {
          "indexed": false,
          "internalType": "uint256",
          "name": "toTokenId",
          "type": "uint256"
        },
        {
          "indexed": true,
          "internalType": "address",
          "name": "from",
          "type": "address"
        },
        {
          "indexed": true,
          "internalType": "address",
          "name": "to",
          "type": "address"
        }
      ],
      "name": "ConsecutiveTransfer",
      "type": "event"
    },
    {
      "anonymous": false,
      "inputs": [
        {
          "indexed": true,
          "internalType": "address",
          "name": "previousOwner",
          "type": "address"
        },
        {
          "indexed": true,
          "internalType": "address",
          "name": "newOwner",
          "type": "address"
        }
      ],
      "name": "OwnershipTransferred",
      "type": "event"
    },
    {
      "anonymous": false,
      "inputs": [
        {
          "indexed": true,
          "internalType": "address",
          "name": "minter",
          "type": "address"
        },
        {
          "indexed": true,
          "internalType": "uint16",
          "name": "amount",
          "type": "uint16"
        }
      ],
      "name": "PresaleMint",
      "type": "event"
    },
    {
      "anonymous": false,
      "inputs": [
        {
          "indexed": true,
          "internalType": "address",
          "name": "from",
          "type": "address"
        },
        {
          "indexed": true,
          "internalType": "address",
          "name": "to",
          "type": "address"
        },
        {
          "indexed": true,
          "internalType": "uint256",
          "name": "tokenId",
          "type": "uint256"
        }
      ],
      "name": "Transfer",
      "type": "event"
    },
    {
      "inputs": [],
      "name": "AZUKI",
      "outputs": [
        {
          "internalType": "contract Azuki",
          "name": "",
          "type": "address"
        }
      ],
      "stateMutability": "view",
      "type": "function"
    },
    {
      "inputs": [],
      "name": "MAX_PER_ADDRESS_PUBLIC_MINT",
      "outputs": [
        {
          "internalType": "uint256",
          "name": "",
          "type": "uint256"
        }
      ],
      "stateMutability": "view",
      "type": "function"
    },
    {
      "inputs": [],
      "name": "MAX_SUPPLY",
      "outputs": [
        {
          "internalType": "uint256",
          "name": "",
          "type": "uint256"
        }
      ],
      "stateMutability": "view",
      "type": "function"
    },
    {
      "inputs": [],
      "name": "MINT_BATCH_SIZE",
      "outputs": [
        {
          "internalType": "uint256",
          "name": "",
          "type": "uint256"
        }
      ],
      "stateMutability": "view",
      "type": "function"
    },
    {
      "inputs": [],
      "name": "TOTAL_PRESALE_AND_AUCTION_SUPPLY",
      "outputs": [
        {
          "internalType": "uint256",
          "name": "",
          "type": "uint256"
        }
      ],
      "stateMutability": "view",
      "type": "function"
    },
    {
      "inputs": [],
      "name": "WITHDRAW_ADDRESS",
      "outputs": [
        {
          "internalType": "address payable",
          "name": "",
          "type": "address"
        }
      ],
      "stateMutability": "view",
      "type": "function"
    },
    {
      "inputs": [
        {
          "internalType": "address[]",
          "name": "receivers",
          "type": "address[]"
        },
        {
          "internalType": "uint256[]",
          "name": "amounts",
          "type": "uint256[]"
        },
        {
          "internalType": "uint256",
          "name": "chunkNum",
          "type": "uint256"
        }
      ],
      "name": "airdrop",
      "outputs": [],
      "stateMutability": "nonpayable",
      "type": "function"
    },
    {
      "inputs": [],
      "name": "allowlistMint",
      "outputs": [],
      "stateMutability": "payable",
      "type": "function"
    },
    {
      "inputs": [],
      "name": "allowlistMintPrice",
      "outputs": [
        {
          "internalType": "uint256",
          "name": "",
          "type": "uint256"
        }
      ],
      "stateMutability": "view",
      "type": "function"
    },
    {
      "inputs": [
        {
          "internalType": "address",
          "name": "",
          "type": "address"
        }
      ],
      "name": "allowlistMintsAlloc",
      "outputs": [
        {
          "internalType": "uint256",
          "name": "",
          "type": "uint256"
        }
      ],
      "stateMutability": "view",
      "type": "function"
    },
    {
      "inputs": [
        {
          "internalType": "address",
          "name": "operator",
          "type": "address"
        },
        {
          "internalType": "uint256",
          "name": "tokenId",
          "type": "uint256"
        }
      ],
      "name": "approve",
      "outputs": [],
      "stateMutability": "payable",
      "type": "function"
    },
    {
      "inputs": [],
      "name": "auctionInfo",
      "outputs": [
        {
          "internalType": "uint32",
          "name": "auctionSaleStartTime",
          "type": "uint32"
        },
        {
          "internalType": "uint64",
          "name": "auctionStartPrice",
          "type": "uint64"
        },
        {
          "internalType": "uint64",
          "name": "auctionEndPrice",
          "type": "uint64"
        },
        {
          "internalType": "uint32",
          "name": "auctionPriceCurveLength",
          "type": "uint32"
        },
        {
          "internalType": "uint32",
          "name": "auctionDropInterval",
          "type": "uint32"
        }
      ],
      "stateMutability": "view",
      "type": "function"
    },
    {
      "inputs": [
        {
          "internalType": "uint8",
          "name": "amount",
          "type": "uint8"
        },
        {
          "internalType": "bytes",
          "name": "_signature",
          "type": "bytes"
        }
      ],
      "name": "auctionMint",
      "outputs": [],
      "stateMutability": "payable",
      "type": "function"
    },
    {
      "inputs": [
        {
          "internalType": "address",
          "name": "owner",
          "type": "address"
        }
      ],
      "name": "balanceOf",
      "outputs": [
        {
          "internalType": "uint256",
          "name": "",
          "type": "uint256"
        }
      ],
      "stateMutability": "view",
      "type": "function"
    },
    {
      "inputs": [],
      "name": "breakTransferLock",
      "outputs": [],
      "stateMutability": "nonpayable",
      "type": "function"
    },
    {
      "inputs": [
        {
          "internalType": "uint256[]",
          "name": "azukiTokenIds",
          "type": "uint256[]"
        }
      ],
      "name": "claim",
      "outputs": [],
      "stateMutability": "nonpayable",
      "type": "function"
    },
    {
      "inputs": [],
      "name": "claimBeanOpen",
      "outputs": [
        {
          "internalType": "bool",
          "name": "",
          "type": "bool"
        }
      ],
      "stateMutability": "view",
      "type": "function"
    },
    {
      "inputs": [
        {
          "internalType": "address",
          "name": "beanOwner",
          "type": "address"
        },
        {
          "internalType": "uint256[]",
          "name": "beanIds",
          "type": "uint256[]"
        }
      ],
      "name": "forceRedeemBeans",
      "outputs": [
        {
          "internalType": "uint256[]",
          "name": "",
          "type": "uint256[]"
        }
      ],
      "stateMutability": "nonpayable",
      "type": "function"
    },
    {
      "inputs": [
        {
          "internalType": "uint256",
          "name": "tokenId",
          "type": "uint256"
        }
      ],
      "name": "getApproved",
      "outputs": [
        {
          "internalType": "address",
          "name": "",
          "type": "address"
        }
      ],
      "stateMutability": "view",
      "type": "function"
    },
    {
      "inputs": [],
      "name": "getAuctionPrice",
      "outputs": [
        {
          "internalType": "uint256",
          "name": "",
          "type": "uint256"
        }
      ],
      "stateMutability": "view",
      "type": "function"
    },
    {
      "inputs": [
        {
          "internalType": "uint256[]",
          "name": "azukiIds",
          "type": "uint256[]"
        }
      ],
      "name": "getCanClaims",
      "outputs": [
        {
          "internalType": "bool[]",
          "name": "",
          "type": "bool[]"
        }
      ],
      "stateMutability": "view",
      "type": "function"
    },
    {
      "inputs": [
        {
          "internalType": "address",
          "name": "addr",
          "type": "address"
        }
      ],
      "name": "getNumAuctionMinted",
      "outputs": [
        {
          "internalType": "uint256",
          "name": "",
          "type": "uint256"
        }
      ],
      "stateMutability": "view",
      "type": "function"
    },
    {
      "inputs": [],
      "name": "initialTransferLockOn",
      "outputs": [
        {
          "internalType": "bool",
          "name": "",
          "type": "bool"
        }
      ],
      "stateMutability": "view",
      "type": "function"
    },
    {
      "inputs": [
        {
          "internalType": "address",
          "name": "owner",
          "type": "address"
        },
        {
          "internalType": "address",
          "name": "operator",
          "type": "address"
        }
      ],
      "name": "isApprovedForAll",
      "outputs": [
        {
          "internalType": "bool",
          "name": "",
          "type": "bool"
        }
      ],
      "stateMutability": "view",
      "type": "function"
    },
    {
      "inputs": [],
      "name": "isRegistryActive",
      "outputs": [
        {
          "internalType": "bool",
          "name": "",
          "type": "bool"
        }
      ],
      "stateMutability": "view",
      "type": "function"
    },
    {
      "inputs": [],
      "name": "name",
      "outputs": [
        {
          "internalType": "string",
          "name": "",
          "type": "string"
        }
      ],
      "stateMutability": "view",
      "type": "function"
    },
    {
      "inputs": [
        {
          "internalType": "address",
          "name": "",
          "type": "address"
        }
      ],
      "name": "numMintedInPresale",
      "outputs": [
        {
          "internalType": "uint256",
          "name": "",
          "type": "uint256"
        }
      ],
      "stateMutability": "view",
      "type": "function"
    },
    {
      "inputs": [],
      "name": "openRedeemBeanState",
      "outputs": [],
      "stateMutability": "nonpayable",
      "type": "function"
    },
    {
      "inputs": [],
      "name": "operatorFilteringEnabled",
      "outputs": [
        {
          "internalType": "bool",
          "name": "",
          "type": "bool"
        }
      ],
      "stateMutability": "view",
      "type": "function"
    },
    {
      "inputs": [],
      "name": "owner",
      "outputs": [
        {
          "internalType": "address",
          "name": "",
          "type": "address"
        }
      ],
      "stateMutability": "view",
      "type": "function"
    },
    {
      "inputs": [
        {
          "internalType": "uint256",
          "name": "tokenId",
          "type": "uint256"
        }
      ],
      "name": "ownerOf",
      "outputs": [
        {
          "internalType": "address",
          "name": "",
          "type": "address"
        }
      ],
      "stateMutability": "view",
      "type": "function"
    },
    {
      "inputs": [],
      "name": "presaleInfo",
      "outputs": [
        {
          "internalType": "uint32",
          "name": "presaleStartTime",
          "type": "uint32"
        },
        {
          "internalType": "uint32",
          "name": "presaleEndTime",
          "type": "uint32"
        },
        {
          "internalType": "uint64",
          "name": "presalePrice",
          "type": "uint64"
        }
      ],
      "stateMutability": "view",
      "type": "function"
    },
    {
      "inputs": [
        {
          "internalType": "uint16",
          "name": "amount",
          "type": "uint16"
        },
        {
          "internalType": "uint16",
          "name": "maxAllowedForPresaleForAddr",
          "type": "uint16"
        },
        {
          "internalType": "bytes",
          "name": "_signature",
          "type": "bytes"
        }
      ],
      "name": "presaleMint",
      "outputs": [],
      "stateMutability": "payable",
      "type": "function"
    },
    {
      "inputs": [
        {
          "internalType": "address[]",
          "name": "receivers",
          "type": "address[]"
        },
        {
          "internalType": "uint256[]",
          "name": "amounts",
          "type": "uint256[]"
        }
      ],
      "name": "privilegedMint",
      "outputs": [],
      "stateMutability": "nonpayable",
      "type": "function"
    },
    {
      "inputs": [],
      "name": "realOwner",
      "outputs": [
        {
          "internalType": "address",
          "name": "",
          "type": "address"
        }
      ],
      "stateMutability": "view",
      "type": "function"
    },
    {
      "inputs": [
        {
          "internalType": "uint256[]",
          "name": "beanIds",
          "type": "uint256[]"
        }
      ],
      "name": "redeemBeans",
      "outputs": [
        {
          "internalType": "uint256[]",
          "name": "",
          "type": "uint256[]"
        }
      ],
      "stateMutability": "nonpayable",
      "type": "function"
    },
    {
      "inputs": [],
      "name": "redeemInfo",
      "outputs": [
        {
          "internalType": "bool",
          "name": "redeemBeanOpen",
          "type": "bool"
        },
        {
          "internalType": "address",
          "name": "beanRedeemer",
          "type": "address"
        }
      ],
      "stateMutability": "view",
      "type": "function"
    },
    {
      "inputs": [],
      "name": "registryAddress",
      "outputs": [
        {
          "internalType": "address",
          "name": "",
          "type": "address"
        }
      ],
      "stateMutability": "view",
      "type": "function"
    },
    {
      "inputs": [],
      "name": "renounceOwnership",
      "outputs": [],
      "stateMutability": "nonpayable",
      "type": "function"
    },
    {
      "inputs": [
        {
          "internalType": "uint256",
          "name": "tokenId",
          "type": "uint256"
        },
        {
          "internalType": "uint256",
          "name": "salePrice",
          "type": "uint256"
        }
      ],
      "name": "royaltyInfo",
      "outputs": [
        {
          "internalType": "address",
          "name": "",
          "type": "address"
        },
        {
          "internalType": "uint256",
          "name": "",
          "type": "uint256"
        }
      ],
      "stateMutability": "view",
      "type": "function"
    },
    {
      "inputs": [
        {
          "internalType": "address",
          "name": "from",
          "type": "address"
        },
        {
          "internalType": "address",
          "name": "to",
          "type": "address"
        },
        {
          "internalType": "uint256",
          "name": "tokenId",
          "type": "uint256"
        }
      ],
      "name": "safeTransferFrom",
      "outputs": [],
      "stateMutability": "payable",
      "type": "function"
    },
    {
      "inputs": [
        {
          "internalType": "address",
          "name": "from",
          "type": "address"
        },
        {
          "internalType": "address",
          "name": "to",
          "type": "address"
        },
        {
          "internalType": "uint256",
          "name": "tokenId",
          "type": "uint256"
        },
        {
          "internalType": "bytes",
          "name": "_data",
          "type": "bytes"
        }
      ],
      "name": "safeTransferFrom",
      "outputs": [],
      "stateMutability": "payable",
      "type": "function"
    },
    {
      "inputs": [
        {
          "internalType": "uint256",
          "name": "price",
          "type": "uint256"
        }
      ],
      "name": "setAllowlistMintPrice",
      "outputs": [],
      "stateMutability": "nonpayable",
      "type": "function"
    },
    {
      "inputs": [
        {
          "internalType": "address[]",
          "name": "addresses",
          "type": "address[]"
        },
        {
          "internalType": "uint256[]",
          "name": "amounts",
          "type": "uint256[]"
        }
      ],
      "name": "setAllowlistMintsAlloc",
      "outputs": [],
      "stateMutability": "nonpayable",
      "type": "function"
    },
    {
      "inputs": [
        {
          "internalType": "address",
          "name": "operator",
          "type": "address"
        },
        {
          "internalType": "bool",
          "name": "approved",
          "type": "bool"
        }
      ],
      "name": "setApprovalForAll",
      "outputs": [],
      "stateMutability": "nonpayable",
      "type": "function"
    },
    {
      "inputs": [
        {
          "internalType": "uint32",
          "name": "_startTime",
          "type": "uint32"
        },
        {
          "internalType": "uint64",
          "name": "_startPriceWei",
          "type": "uint64"
        },
        {
          "internalType": "uint64",
          "name": "_endPriceWei",
          "type": "uint64"
        },
        {
          "internalType": "uint32",
          "name": "_priceCurveNumSeconds",
          "type": "uint32"
        },
        {
          "internalType": "uint32",
          "name": "_dropIntervalNumSeconds",
          "type": "uint32"
        }
      ],
      "name": "setAuctionParams",
      "outputs": [],
      "stateMutability": "nonpayable",
      "type": "function"
    },
    {
      "inputs": [
        {
          "internalType": "uint32",
          "name": "timestamp",
          "type": "uint32"
        }
      ],
      "name": "setAuctionSaleStartTime",
      "outputs": [],
      "stateMutability": "nonpayable",
      "type": "function"
    },
    {
      "inputs": [
        {
          "internalType": "string",
          "name": "baseURI",
          "type": "string"
        }
      ],
      "name": "setBaseURI",
      "outputs": [],
      "stateMutability": "nonpayable",
      "type": "function"
    },
    {
      "inputs": [
        {
          "internalType": "address",
          "name": "contractAddress",
          "type": "address"
        }
      ],
      "name": "setBeanRedeemer",
      "outputs": [],
      "stateMutability": "nonpayable",
      "type": "function"
    },
    {
      "inputs": [
        {
          "internalType": "uint256[]",
          "name": "azukiIds",
          "type": "uint256[]"
        }
      ],
      "name": "setCanClaim",
      "outputs": [],
      "stateMutability": "nonpayable",
      "type": "function"
    },
    {
      "inputs": [
        {
          "internalType": "bool",
          "name": "_claimBeanOpen",
          "type": "bool"
        }
      ],
      "name": "setClaimBeanState",
      "outputs": [],
      "stateMutability": "nonpayable",
      "type": "function"
    },
    {
      "inputs": [
        {
          "internalType": "address",
          "name": "receiver",
          "type": "address"
        },
        {
          "internalType": "uint96",
          "name": "feeNumerator",
          "type": "uint96"
        }
      ],
      "name": "setDefaultRoyalty",
      "outputs": [],
      "stateMutability": "nonpayable",
      "type": "function"
    },
    {
      "inputs": [
        {
          "internalType": "bool",
          "name": "_isRegistryActive",
          "type": "bool"
        }
      ],
      "name": "setIsRegistryActive",
      "outputs": [],
      "stateMutability": "nonpayable",
      "type": "function"
    },
    {
      "inputs": [
        {
          "internalType": "address",
          "name": "_signer",
          "type": "address"
        }
      ],
      "name": "setOffchainSigner",
      "outputs": [],
      "stateMutability": "nonpayable",
      "type": "function"
    },
    {
      "inputs": [
        {
          "internalType": "bool",
          "name": "value",
          "type": "bool"
        }
      ],
      "name": "setOperatorFilteringEnabled",
      "outputs": [],
      "stateMutability": "nonpayable",
      "type": "function"
    },
    {
      "inputs": [
        {
          "internalType": "uint32",
          "name": "_presaleStartTime",
          "type": "uint32"
        },
        {
          "internalType": "uint32",
          "name": "_presaleEndTime",
          "type": "uint32"
        },
        {
          "internalType": "uint64",
          "name": "_presalePrice",
          "type": "uint64"
        }
      ],
      "name": "setPresaleParams",
      "outputs": [],
      "stateMutability": "nonpayable",
      "type": "function"
    },
    {
      "inputs": [
        {
          "internalType": "address",
          "name": "_registryAddress",
          "type": "address"
        }
      ],
      "name": "setRegistryAddress",
      "outputs": [],
      "stateMutability": "nonpayable",
      "type": "function"
    },
    {
      "inputs": [
        {
          "internalType": "uint256",
          "name": "tokenId",
          "type": "uint256"
        },
        {
          "internalType": "address",
          "name": "receiver",
          "type": "address"
        },
        {
          "internalType": "uint96",
          "name": "feeNumerator",
          "type": "uint96"
        }
      ],
      "name": "setTokenRoyalty",
      "outputs": [],
      "stateMutability": "nonpayable",
      "type": "function"
    },
    {
      "inputs": [
        {
          "internalType": "bytes4",
          "name": "interfaceId",
          "type": "bytes4"
        }
      ],
      "name": "supportsInterface",
      "outputs": [
        {
          "internalType": "bool",
          "name": "",
          "type": "bool"
        }
      ],
      "stateMutability": "view",
      "type": "function"
    },
    {
      "inputs": [],
      "name": "symbol",
      "outputs": [
        {
          "internalType": "string",
          "name": "",
          "type": "string"
        }
      ],
      "stateMutability": "view",
      "type": "function"
    },
    {
      "inputs": [
        {
          "internalType": "uint256",
          "name": "tokenId",
          "type": "uint256"
        }
      ],
      "name": "tokenURI",
      "outputs": [
        {
          "internalType": "string",
          "name": "",
          "type": "string"
        }
      ],
      "stateMutability": "view",
      "type": "function"
    },
    {
      "inputs": [],
      "name": "totalPresaleAndAuctionMinted",
      "outputs": [
        {
          "internalType": "uint16",
          "name": "",
          "type": "uint16"
        }
      ],
      "stateMutability": "view",
      "type": "function"
    },
    {
      "inputs": [],
      "name": "totalSupply",
      "outputs": [
        {
          "internalType": "uint256",
          "name": "",
          "type": "uint256"
        }
      ],
      "stateMutability": "view",
      "type": "function"
    },
    {
      "inputs": [
        {
          "internalType": "address",
          "name": "from",
          "type": "address"
        },
        {
          "internalType": "address",
          "name": "to",
          "type": "address"
        },
        {
          "internalType": "uint256",
          "name": "tokenId",
          "type": "uint256"
        }
      ],
      "name": "transferFrom",
      "outputs": [],
      "stateMutability": "payable",
      "type": "function"
    },
    {
      "inputs": [
        {
          "internalType": "address",
          "name": "newOwner",
          "type": "address"
        }
      ],
      "name": "transferLowerOwnership",
      "outputs": [],
      "stateMutability": "nonpayable",
      "type": "function"
    },
    {
      "inputs": [
        {
          "internalType": "address",
          "name": "newOwner",
          "type": "address"
        }
      ],
      "name": "transferOwnership",
      "outputs": [],
      "stateMutability": "nonpayable",
      "type": "function"
    },
    {
      "inputs": [
        {
          "internalType": "address",
          "name": "newRealOwner",
          "type": "address"
        }
      ],
      "name": "transferRealOwnership",
      "outputs": [],
      "stateMutability": "nonpayable",
      "type": "function"
    },
    {
      "inputs": [],
      "name": "withdraw",
      "outputs": [],
      "stateMutability": "nonpayable",
      "type": "function"
    }
  ],
  "transactionHash": "0x6b0da1f26e530fd3bf8d3bbc225bf2ed8712a51ffdaf836c2d785d40b98789d9",
  "args": [
    "0x9DF66E7019fd1C02346ae835B06d67a68096F6eb",
    20000,
    10000,
    "0x43b1DB0EC2167C8811cA0216A35B3bEfc339689c"
  ],
  "numDeployments": 1,
  "solcInputHash": "97d2274a533cec76ead5db9c8f567870",
  "bytecode": "0x610100604052600e805462ffffff60ff60b81b0119166101011790553480156200002857600080fd5b50604051620048e7380380620048e78339810160408190526200004b916200024a565b6040518060400160405280600b81526020016a26bcb9ba32b93ca132b0b760a91b8152506040518060400160405280600581526020016426a122a0a760d91b815250620000a7620000a16200013e60201b60201c565b62000142565b600380546001600160a01b031916331790556006620000c7838262000340565b506007620000d6828262000340565b50600060045550506001600160a01b0380851660c05260a08490526080839052811660e0528282106200011c57604051634808530f60e11b815260040160405180910390fd5b6200012662000194565b5050600e805460ff19166001179055506200040c9050565b3390565b600280546001600160a01b038381166001600160a01b0319831681179093556040519116919082907f8be0079c531659141344cd1fd0a4f28419497f9722a3daafe3b4186f6b6457e090600090a35050565b620001b5733cc6cdda760b79bafa08df41ecfa224f810dceb66001620001b7565b565b6001600160a01b0390911690637d3e3dbe81620001e75782620001e05750634420e486620001e7565b5063a0af29035b8060e01b60005230600452826024526004600060446000806daaeb6d7670e522a718067333cd4e5af162000227578060005160e01c036200022757600080fd5b5060006024525050565b6001600160a01b03811681146200024757600080fd5b50565b600080600080608085870312156200026157600080fd5b84516200026e8162000231565b8094505060208501519250604085015191506060850151620002908162000231565b939692955090935050565b634e487b7160e01b600052604160045260246000fd5b600181811c90821680620002c657607f821691505b602082108103620002e757634e487b7160e01b600052602260045260246000fd5b50919050565b601f8211156200033b57600081815260208120601f850160051c81016020861015620003165750805b601f850160051c820191505b81811015620003375782815560010162000322565b5050505b505050565b81516001600160401b038111156200035c576200035c6200029b565b62000374816200036d8454620002b1565b84620002ed565b602080601f831160018114620003ac5760008415620003935750858301515b600019600386901b1c1916600185901b17855562000337565b600085815260208120601f198616915b82811015620003dd57888601518255948401946001909101908401620003bc565b5085821015620003fc5787850151600019600388901b60f8161c191681555b5050505050600190811b01905550565b60805160a05160c05160e051614462620004856000396000818161050a01526112c0015260008181610bf901526117a40152600081816106c6015281816113b9015281816114b60152818161171101528181611bd101526120a00152600081816108f001528181611b83015261204f01526144626000f3fe6080604052600436106103ef5760003560e01c806370a0823111610208578063abd017ea11610118578063e985e9c5116100ab578063f49ed4e71161007a578063f49ed4e714610d14578063f80067df14610d2a578063f99de7a014610d57578063fb796e6c14610d77578063fe6b301314610d9157600080fd5b8063e985e9c514610c3b578063ed9aab5114610c84578063efe7aa4914610cab578063f2fde38b14610cf457600080fd5b8063c78461d7116100e7578063c78461d714610ba7578063c87b56dd14610bc7578063d2c8ed4c14610be7578063d684340914610c1b57600080fd5b8063abd017ea14610b3f578063adceef0714610b5f578063b7c0b8e814610b74578063b88d4fde14610b9457600080fd5b80638da5cb5b1161019b578063a22cb4651161016a578063a22cb46514610a93578063a2623f7514610ab3578063a73762b514610aec578063a9ba0b8714610b0c578063ab7b499314610b1f57600080fd5b80638da5cb5b14610a1f578063954b801714610a3d57806395d89b4114610a5e57806395fd95fc14610a7357600080fd5b80637809c6b1116101d75780637809c6b1146109b4578063788ca64c146109c75780637bcbf571146109f55780637fd147a414610a0a57600080fd5b806370a0823114610932578063715018a614610952578063731186eb1461096757806376cba7441461098757600080fd5b806332cb6b0c1161030357806346fff98d116102965780635944c753116102655780635944c7531461087e5780636352211e1461089e5780636ba4c138146108be5780636cd10ae2146108de5780636ebc56011461091257600080fd5b806346fff98d1461079a5780634bd25c6f146107ba57806355d64d03146107cf57806355f804b31461085e57600080fd5b80633ccfd60b116102d25780633ccfd60b1461074a57806341fbddbd1461075f5780634202d18d1461076757806342842e0e1461078757600080fd5b806332cb6b0c146106b457806333d66b5b146106e8578063364a5c001461070857806337dc95411461073557600080fd5b806312b365101161038657806323b872dd1161035557806323b872dd146105ae57806324846647146105c15780632a55205a146105ee5780632cff67701461062d5780632edf08691461064d57600080fd5b806312b365101461052c578063139e633e1461054b57806318160ddd1461056b5780631df270f31461058e57600080fd5b8063081812fc116103c2578063081812fc1461048d578063095ea7b3146104c557806309af3f9a146104d8578063122e04a8146104f857600080fd5b806301ffc9a7146103f457806304634d8d1461042957806304f81b111461044b57806306fdde031461046b575b600080fd5b34801561040057600080fd5b5061041461040f366004613791565b610db1565b60405190151581526020015b60405180910390f35b34801561043557600080fd5b506104496104443660046137df565b610dd1565b005b34801561045757600080fd5b50610449610466366004613814565b610de7565b34801561047757600080fd5b50610480610e11565b6040516104209190613881565b34801561049957600080fd5b506104ad6104a8366004613894565b610ea3565b6040516001600160a01b039091168152602001610420565b6104496104d33660046138ad565b610ee7565b3480156104e457600080fd5b506104496104f3366004613814565b610f34565b34801561050457600080fd5b506104ad7f000000000000000000000000000000000000000000000000000000000000000081565b34801561053857600080fd5b50600e5461041490610100900460ff1681565b34801561055757600080fd5b50610449610566366004613814565b610f73565b34801561057757600080fd5b50600554600454035b604051908152602001610420565b34801561059a57600080fd5b506003546104ad906001600160a01b031681565b6104496105bc3660046138d9565b610fcc565b3480156105cd57600080fd5b506105e16105dc36600461395e565b611002565b604051610420919061399f565b3480156105fa57600080fd5b5061060e6106093660046139e5565b6110b3565b604080516001600160a01b039093168352602083019190915201610420565b34801561063957600080fd5b50610449610648366004613814565b611161565b34801561065957600080fd5b506011546106889063ffffffff80821691600160201b810490911690600160401b90046001600160401b031683565b6040805163ffffffff94851681529390921660208401526001600160401b031690820152606001610420565b3480156106c057600080fd5b506105807f000000000000000000000000000000000000000000000000000000000000000081565b3480156106f457600080fd5b5061044961070336600461395e565b6111ad565b34801561071457600080fd5b50610728610723366004613a07565b6111f4565b6040516104209190613a96565b34801561074157600080fd5b50610580600381565b34801561075657600080fd5b506104496112bc565b610449611350565b34801561077357600080fd5b50610449610782366004613aa9565b611425565b6104496107953660046138d9565b6114fd565b3480156107a657600080fd5b506104496107b5366004613b22565b611518565b3480156107c657600080fd5b5061058061156c565b3480156107db57600080fd5b5060135461081f9063ffffffff808216916001600160401b03600160201b8204811692600160601b830490911691600160a01b8104821691600160c01b9091041685565b6040805163ffffffff96871681526001600160401b0395861660208201529390941693830193909352831660608201529116608082015260a001610420565b34801561086a57600080fd5b50610449610879366004613b80565b6116b1565b34801561088a57600080fd5b50610449610899366004613bb5565b6116c6565b3480156108aa57600080fd5b506104ad6108b9366004613894565b6116d9565b3480156108ca57600080fd5b506104496108d936600461395e565b6116e4565b3480156108ea57600080fd5b506105807f000000000000000000000000000000000000000000000000000000000000000081565b34801561091e57600080fd5b5061044961092d366004613c07565b6118fa565b34801561093e57600080fd5b5061058061094d366004613814565b6119d6565b34801561095e57600080fd5b50610449611a24565b34801561097357600080fd5b50610449610982366004613c22565b611a38565b34801561099357600080fd5b506105806109a2366004613814565b60126020526000908152604090205481565b6104496109c2366004613ca7565b611ab3565b3480156109d357600080fd5b506010546109e29061ffff1681565b60405161ffff9091168152602001610420565b348015610a0157600080fd5b50610449611d3c565b348015610a1657600080fd5b50610449611d51565b348015610a2b57600080fd5b506002546001600160a01b03166104ad565b348015610a4957600080fd5b50600e5461041490600160b81b900460ff1681565b348015610a6a57600080fd5b50610480611de2565b348015610a7f57600080fd5b50610449610a8e366004613b22565b611df1565b348015610a9f57600080fd5b50610449610aae366004613cfb565b611e17565b348015610abf57600080fd5b50610580610ace366004613814565b6001600160a01b031660009081526009602052604090205460c01c90565b348015610af857600080fd5b50610449610b07366004613d4b565b611e5f565b610449610b1a366004613db0565b611f6d565b348015610b2b57600080fd5b50610449610b3a366004613814565b61229c565b348015610b4b57600080fd5b50600e546104149062010000900460ff1681565b348015610b6b57600080fd5b50610580600a81565b348015610b8057600080fd5b50610449610b8f366004613b22565b6122d0565b610449610ba2366004613e43565b6122eb565b348015610bb357600080fd5b50610728610bc236600461395e565b61232f565b348015610bd357600080fd5b50610480610be2366004613894565b6123be565b348015610bf357600080fd5b506104ad7f000000000000000000000000000000000000000000000000000000000000000081565b348015610c2757600080fd5b50610449610c36366004613894565b612442565b348015610c4757600080fd5b50610414610c56366004613f06565b6001600160a01b039182166000908152600b6020908152604080832093909416825291909152205460ff1690565b348015610c9057600080fd5b50600e546104ad90630100000090046001600160a01b031681565b348015610cb757600080fd5b50601554610cd59060ff81169061010090046001600160a01b031682565b6040805192151583526001600160a01b03909116602083015201610420565b348015610d0057600080fd5b50610449610d0f366004613814565b61244f565b348015610d2057600080fd5b5061058060175481565b348015610d3657600080fd5b50610580610d45366004613814565b60166020526000908152604090205481565b348015610d6357600080fd5b50610449610d72366004613aa9565b6124c5565b348015610d8357600080fd5b50600e546104149060ff1681565b348015610d9d57600080fd5b50610449610dac366004613f34565b612570565b6000610dbc8261265a565b80610dcb5750610dcb826126a8565b92915050565b610dd96126dd565b610de38282612737565b5050565b610def6126dd565b601480546001600160a01b0319166001600160a01b0392909216919091179055565b606060068054610e2090613f6e565b80601f0160208091040260200160405190810160405280929190818152602001828054610e4c90613f6e565b8015610e995780601f10610e6e57610100808354040283529160200191610e99565b820191906000526020600020905b815481529060010190602001808311610e7c57829003601f168201915b5050505050905090565b6000610eae826127f1565b610ecb576040516333d1c03960e21b815260040160405180910390fd5b506000908152600a60205260409020546001600160a01b031690565b81600e5460ff1615610efc57610efc81612819565b600e54610100900460ff1615610f2557604051630b95754760e31b815260040160405180910390fd5b610f2f838361285d565b505050565b6003546001600160a01b03163314610f675760405162461bcd60e51b8152600401610f5e90613fa8565b60405180910390fd5b610f708161244f565b50565b610f7b6126dd565b604080518082019091526015805460ff811615158084526001600160a01b039490941660209093018390526001600160a81b031916610100600160a81b031990931692909217610100909102179055565b826001600160a01b0381163314610ff157600e5460ff1615610ff157610ff133612819565b610ffc8484846128fd565b50505050565b60606000826001600160401b0381111561101e5761101e613dfd565b604051908082528060200260200182016040528015611047578160200160208202803683370190505b50905060005b838110156110ab5761108185858381811061106a5761106a613ff5565b90506020020135600f612a9b90919063ffffffff16565b82828151811061109357611093613ff5565b9115156020928302919091019091015260010161104d565b509392505050565b60008281526001602090815260408083208151808301909252546001600160a01b038116808352600160a01b9091046001600160601b03169282019290925282916111285750604080518082019091526000546001600160a01b0381168252600160a01b90046001600160601b031660208201525b602081015160009061271090611147906001600160601b031687614021565b611151919061404e565b91519350909150505b9250929050565b6003546001600160a01b0316331461118b5760405162461bcd60e51b8152600401610f5e90613fa8565b600380546001600160a01b0319166001600160a01b0392909216919091179055565b6111b56126dd565b60005b81811015610f2f576111ec8383838181106111d5576111d5613ff5565b90506020020135600f612abf90919063ffffffff16565b6001016111b8565b60606111fe6126dd565b60005b8281101561126357846001600160a01b031661123485858481811061122857611228613ff5565b905060200201356116d9565b6001600160a01b03161461125b57604051631f382b5160e01b815260040160405180910390fd5b600101611201565b506112b484848480806020026020016040519081016040528093929190818152602001838360200280828437600092018290525060155490935061010090046001600160a01b03169150612ae89050565b949350505050565b60007f00000000000000000000000000000000000000000000000000000000000000006001600160a01b03164760405160006040518083038185875af1925050503d8060008114611329576040519150601f19603f3d011682016040523d82523d6000602084013e61132e565b606091505b5050905080610f7057604051631d42c86760e21b815260040160405180910390fd5b60175460000361137357604051638438385160e01b815260040160405180910390fd5b33600090815260166020526040812054601754909190611394908390614021565b9050803410156113b75760405163356680b760e01b815260040160405180910390fd5b7f0000000000000000000000000000000000000000000000000000000000000000826113e260045490565b6113ec9190614062565b111561140b57604051634c9c5c3360e11b815260040160405180910390fd5b33600081815260166020526040812055610de39083612ba0565b61142d6126dd565b828114158061143a575082155b156114585760405163a121188760e01b815260040160405180910390fd5b60005b838110156114b3576114ab85858381811061147857611478613ff5565b905060200201602081019061148d9190613814565b84848481811061149f5761149f613ff5565b90506020020135612bba565b60010161145b565b507f00000000000000000000000000000000000000000000000000000000000000006114de60045490565b1115610ffc57604051634c9c5c3360e11b815260040160405180910390fd5b610f2f838383604051806020016040528060008152506122eb565b6115206126dd565b600e54630100000090046001600160a01b031661155057604051630e048e7160e41b815260040160405180910390fd5b600e8054911515620100000262ff000019909216919091179055565b6040805160a08101825260135463ffffffff8082168084526001600160401b03600160201b840481166020860152600160601b84041694840194909452600160a01b820481166060840152600160c01b9091041660808201526000914210156115e157602001516001600160401b0316919050565b6060810151815163ffffffff918216916115fc911642614075565b1061161357604001516001600160401b0316919050565b6000816080015163ffffffff16826000015163ffffffff16426116369190614075565b611640919061404e565b90506000826080015183606001516116589190614088565b63ffffffff168360400151846020015161167291906140ab565b61167c91906140d2565b6001600160401b031690506116918183614021565b83602001516001600160401b03166116a99190614075565b935050505090565b6116b96126dd565b6018610f2f828483614132565b6116ce6126dd565b610f2f838383612c0f565b6000610dcb82612cda565b600e54600160b81b900460ff1661170e576040516309ca1d3560e11b815260040160405180910390fd5b807f00000000000000000000000000000000000000000000000000000000000000008161173a60045490565b6117449190614062565b111561176357604051634c9c5c3360e11b815260040160405180910390fd5b600061176e60045490565b905060005b828110156118ef57600085858381811061178f5761178f613ff5565b905060200201359050336001600160a01b03167f00000000000000000000000000000000000000000000000000000000000000006001600160a01b0316636352211e836040518263ffffffff1660e01b81526004016117f091815260200190565b602060405180830381865afa15801561180d573d6000803e3d6000fd5b505050506040513d601f19601f8201168201806040525081019061183191906141f1565b6001600160a01b0316146118585760405163242e855d60e11b815260040160405180910390fd5b600881901c6000908152600f6020526040902054600160ff83161b1661189157604051635366f67d60e11b815260040160405180910390fd5b600881901c6000908152600f602052604090208054600160ff84161b191690556118bb8284614062565b60405182907fe2301216b3a6988694011d9b19d84b3171cb7166636ac0bee7ea70ccde950f7e90600090a350600101611773565b50610ffc3383612d41565b6119026126dd565b6040805160a08101825260135463ffffffff80821683526001600160401b03600160201b830481166020850152600160601b83041693830193909352600160a01b810483166060830152600160c01b9004821660808201529082161580159061199b575060208101516001600160401b031615806119885750606081015163ffffffff16155b8061199b5750608081015163ffffffff16155b156119b957604051630b21892f60e11b815260040160405180910390fd5b506013805463ffffffff191663ffffffff92909216919091179055565b60006001600160a01b0382166119ff576040516323d3ad8160e21b815260040160405180910390fd5b506001600160a01b03166000908152600960205260409020546001600160401b031690565b611a2c6126dd565b611a366000612db6565b565b611a406126dd565b611a4b600c82612e08565b15611a6957604051639acc88ef60e01b815260040160405180910390fd5b611a74600c82612e20565b50611a8185858585611425565b60405181907f413cafed652c0749798b60dc0fc27072e4370c1e64b5074b303140f24ccc78fe90600090a25050505050565b6040805160608101825260115463ffffffff808216808452600160201b83049091166020840152600160401b9091046001600160401b031692820192909252901580611b055750805163ffffffff1642105b80611b1a5750806020015163ffffffff164210155b15611b3857604051637963e2b560e01b815260040160405180910390fd5b33600090815260126020526040902054611b568161ffff8716614075565b8661ffff161115611b7a57604051630b39b31760e11b815260040160405180910390fd5b60105461ffff167f0000000000000000000000000000000000000000000000000000000000000000611bac828961420e565b61ffff161115611bcf576040516314231de560e01b815260040160405180910390fd5b7f00000000000000000000000000000000000000000000000000000000000000008761ffff16611bfe60045490565b611c089190614062565b1115611c2757604051634c9c5c3360e11b815260040160405180910390fd5b611c68878787878080601f016020809104026020016040519081016040528093929190818152602001838380828437600092019190915250612e2c92505050565b611c8557604051638baa579f60e01b815260040160405180910390fd5b60008761ffff1684604001516001600160401b0316611ca49190614021565b905080341015611cc75760405163356680b760e01b815260040160405180910390fd5b33600081815260126020526040902061ffff8a81168681019092556010805461ffff1916868d01909216919091179055611d019190612bba565b60405161ffff89169033907f0389e698beae4e95f3527cf960f0140615c9c3db399008f23fcc79f61853d91090600090a35050505050505050565b611d446126dd565b600e805461ff0019169055565b611d596126dd565b6040805180820190915260155460ff81161515825261010090046001600160a01b031660208201819052611da057604051630296fadb60e51b815260040160405180910390fd5b6040805180820190915260018082526020928301516001600160a01b031692909101829052601580546001600160a81b03191661010090930292909217179055565b606060078054610e2090613f6e565b611df96126dd565b600e8054911515600160b81b0260ff60b81b19909216919091179055565b81600e5460ff1615611e2c57611e2c81612819565b600e54610100900460ff1615611e5557604051630b95754760e31b815260040160405180910390fd5b610f2f8383612ee3565b611e676126dd565b63ffffffff851615801590611ea057506001600160401b0384161580611e91575063ffffffff8216155b80611ea0575063ffffffff8116155b15611ebe57604051630b21892f60e11b815260040160405180910390fd5b6040805160a08101825263ffffffff9687168082526001600160401b03968716602083018190529590961691810182905292861660608401819052919095166080909201829052601380546001600160601b031916909417600160201b909302929092176bffffffffffffffffffffffff60601b1916600160601b90940263ffffffff60a01b191693909317600160a01b9091021763ffffffff60c01b1916600160c01b909202919091179055565b323314611fbc5760405162461bcd60e51b815260206004820152601e60248201527f5468652063616c6c657220697320616e6f7468657220636f6e747261637400006044820152606401610f5e565b6040805160a08101825260135463ffffffff8082168084526001600160401b03600160201b840481166020860152600160601b84041694840194909452600160a01b820481166060840152600160c01b9091041660808201529015806120285750805163ffffffff1642105b1561204657604051635ccb0f5960e01b815260040160405180910390fd5b60105461ffff167f000000000000000000000000000000000000000000000000000000000000000061207b8260ff881661420e565b61ffff16111561209e576040516314231de560e01b815260040160405180910390fd5b7f00000000000000000000000000000000000000000000000000000000000000008560ff166120cc60045490565b6120d69190614062565b11156120f557604051634c9c5c3360e11b815260040160405180910390fd5b3360009081526009602052604090205460c01c600361211760ff881683614062565b111561213657604051639e3ef52560e01b815260040160405180910390fd5b61217585858080601f016020809104026020016040519081016040528093929190818152602001838380828437600092019190915250612f4f92505050565b61219257604051638baa579f60e01b815260040160405180910390fd5b60008660ff166121a061156c565b6121aa9190614021565b9050803410156121cd5760405163356680b760e01b815260040160405180910390fd5b33600090815260096020526040902080546001600160c01b031660ff8916840160c01b1790556010805461ffff191660ff891685810161ffff1691909117909155612219903390612fe6565b803411156122935760003361222e8334614075565b604051600081818185875af1925050503d806000811461226a576040519150601f19603f3d011682016040523d82523d6000602084013e61226f565b606091505b505090508061229157604051633c31275160e21b815260040160405180910390fd5b505b50505050505050565b6122a46126dd565b600e80546001600160a01b039092166301000000026301000000600160b81b0319909216919091179055565b6122d86126dd565b600e805460ff1916911515919091179055565b6122f6848484610fcc565b6001600160a01b0383163b15610ffc57612312848484846130cd565b610ffc576040516368d2bf6b60e11b815260040160405180910390fd5b6040805180820190915260155460ff811615158083526101009091046001600160a01b031660208301526060919061237a576040516372a58b2b60e11b815260040160405180910390fd5b6112b4338585808060200260200160405190810160405280939291908181526020018383602002808284376000920191909152505050602085015160019150612ae8565b60606123c9826127f1565b6123e657604051630a14c4b560e41b815260040160405180910390fd5b60006123f06131b5565b90508051600003612410576040518060200160405280600081525061243b565b8061241a846131c4565b60405160200161242b929190614229565b6040516020818303038152906040525b9392505050565b61244a6126dd565b601755565b6124576126dd565b6001600160a01b0381166124bc5760405162461bcd60e51b815260206004820152602660248201527f4f776e61626c653a206e6577206f776e657220697320746865207a65726f206160448201526564647265737360d01b6064820152608401610f5e565b610f7081612db6565b6124cd6126dd565b82811415806124da575082155b156124f85760405163a121188760e01b815260040160405180910390fd5b60005b838110156125695782828281811061251557612515613ff5565b905060200201356016600087878581811061253257612532613ff5565b90506020020160208101906125479190613814565b6001600160a01b031681526020810191909152604001600020556001016124fb565b5050505050565b6125786126dd565b63ffffffff8316158061258f575063ffffffff8216155b806125a157506001600160401b038116155b156125bf57604051638299f4c360e01b815260040160405180910390fd5b8163ffffffff168363ffffffff16106125eb57604051638299f4c360e01b815260040160405180910390fd5b6040805160608101825263ffffffff94851680825293909416602085018190526001600160401b039290921693018390526011805467ffffffffffffffff1916909217600160201b909102176fffffffffffffffff00000000000000001916600160401b909202919091179055565b60006301ffc9a760e01b6001600160e01b03198316148061268b57506380ac58cd60e01b6001600160e01b03198316145b80610dcb5750506001600160e01b031916635b5e139f60e01b1490565b60006001600160e01b0319821663152a902d60e11b1480610dcb57506301ffc9a760e01b6001600160e01b0319831614610dcb565b6002546001600160a01b03163314611a365760405162461bcd60e51b815260206004820181905260248201527f4f776e61626c653a2063616c6c6572206973206e6f7420746865206f776e65726044820152606401610f5e565b6127106001600160601b03821611156127625760405162461bcd60e51b8152600401610f5e90614258565b6001600160a01b0382166127b85760405162461bcd60e51b815260206004820152601960248201527f455243323938313a20696e76616c6964207265636569766572000000000000006044820152606401610f5e565b604080518082019091526001600160a01b039092168083526001600160601b039091166020909201829052600160a01b90910217600055565b600060045482108015610dcb575050600090815260086020526040902054600160e01b161590565b69c617113400112233445560005230601a5280603a52600080604460166daaeb6d7670e522a718067333cd4e5afa612855573d6000803e3d6000fd5b6000603a5250565b6000612868826116d9565b9050336001600160a01b038216146128a1576128848133610c56565b6128a1576040516367d9dca160e11b815260040160405180910390fd5b6000828152600a602052604080822080546001600160a01b0319166001600160a01b0387811691821790925591518593918516917f8c5be1e5ebec7d5bd14f71427d1e84f3dd0314c0f7b2291e5b200ac8c7c3b92591a4505050565b600061290882612cda565b9050836001600160a01b0316816001600160a01b03161461293b5760405162a1148160e81b815260040160405180910390fd5b6000828152600a6020526040902080546129678187335b6001600160a01b039081169116811491141790565b612992576129758633610c56565b61299257604051632ce44b5f60e11b815260040160405180910390fd5b6001600160a01b0385166129b957604051633a954ecd60e21b815260040160405180910390fd5b6129c68686866001613208565b80156129d157600082555b6001600160a01b038681166000908152600960205260408082208054600019019055918716808252919020805460010190554260a01b17600160e11b17600085815260086020526040812091909155600160e11b84169003612a6357600184016000818152600860205260408120549003612a61576004548114612a615760008181526008602052604090208490555b505b83856001600160a01b0316876001600160a01b031660008051602061440d83398151915260405160405180910390a45b505050505050565b600881901c600090815260208390526040902054600160ff83161b16151592915050565b600881901c600090815260209290925260409091208054600160ff9093169290921b9091179055565b606060005b8451811015612b2157612b19858281518110612b0b57612b0b613ff5565b60200260200101518561327f565b600101612aed565b506040516301a8875f60e71b81526001600160a01b0383169063d443af8090612b5090889088906004016142a2565b6000604051808303816000875af1158015612b6f573d6000803e3d6000fd5b505050506040513d6000823e601f3d908101601f19168201604052612b9791908101906142c6565b95945050505050565b610de38282604051806020016040528060008152506133c6565b6000612bc7600a8361404e565b905060005b81811015612be757612bdf84600a612fe6565b600101612bcc565b506000612bf5600a8461436b565b1115610f2f57610f2f83612c0a600a8561436b565b612fe6565b6127106001600160601b0382161115612c3a5760405162461bcd60e51b8152600401610f5e90614258565b6001600160a01b038216612c905760405162461bcd60e51b815260206004820152601b60248201527f455243323938313a20496e76616c696420706172616d657465727300000000006044820152606401610f5e565b6040805180820182526001600160a01b0393841681526001600160601b0392831660208083019182526000968752600190529190942093519051909116600160a01b029116179055565b600081600454811015612d285760008181526008602052604081205490600160e01b82169003612d26575b8060000361243b575060001901600081815260086020526040902054612d05565b505b604051636f96cda160e11b815260040160405180910390fd5b6000612d4e600a8361404e565b905060005b81811015612d7e57612d7684600a604051806020016040528060008152506133c6565b600101612d53565b506000612d8c600a8461436b565b1115610f2f57610f2f83612da1600a8561436b565b604051806020016040528060008152506133c6565b600280546001600160a01b038381166001600160a01b0319831681179093556040519116919082907f8be0079c531659141344cd1fd0a4f28419497f9722a3daafe3b4186f6b6457e090600090a35050565b6000818152600183016020526040812054151561243b565b600061243b838361342c565b6040516001600160f01b031960f085811b821660208401526001600160601b03193360601b16602284015284901b16603682015260009081906038016040516020818303038152906040528051906020012090506000612eb9827f19457468657265756d205369676e6564204d6573736167653a0a3332000000006000908152601c91909152603c902090565b90506000612ec7828661347b565b6014546001600160a01b03908116911614979650505050505050565b336000818152600b602090815260408083206001600160a01b03871680855290835292819020805460ff191686151590811790915590519081529192917f17307eab39ab6107e8899845ad3d59bd9653f200f220920489ca2b5937696c31910160405180910390a35050565b6040516001600160601b03193360601b16602082015260009081906034016040516020818303038152906040528051906020012090506000612fbe827f19457468657265756d205369676e6564204d6573736167653a0a3332000000006000908152601c91909152603c902090565b90506000612fcc828661347b565b6014546001600160a01b0391821691161495945050505050565b600454600082900361300b5760405163b562e8dd60e01b815260040160405180910390fd5b6130186000848385613208565b6001600160a01b03831660008181526009602090815260408083208054680100000000000000018802019055848352600890915281206001851460e11b4260a01b1783179055828401908390839060008051602061440d8339815191528180a4600183015b8181146130a3578083600060008051602061440d833981519152600080a460010161307d565b50816000036130c457604051622e076360e81b815260040160405180910390fd5b60045550505050565b604051630a85bd0160e11b81526000906001600160a01b0385169063150b7a029061310290339089908890889060040161437f565b6020604051808303816000875af192505050801561313d575060408051601f3d908101601f1916820190925261313a918101906143bc565b60015b61319b573d80801561316b576040519150601f19603f3d011682016040523d82523d6000602084013e613170565b606091505b508051600003613193576040516368d2bf6b60e11b815260040160405180910390fd5b805181602001fd5b6001600160e01b031916630a85bd0160e11b1490506112b4565b606060188054610e2090613f6e565b606060a06040510180604052602081039150506000815280825b600183039250600a81066030018353600a9004806131de5750819003601f19909101908152919050565b600e54610100900460ff16801561322757506001600160a01b03841615155b801561323b57506001600160a01b03831615155b1561325957604051630b95754760e31b815260040160405180910390fd5b61326233613497565b610ffc576040516326406c5f60e11b815260040160405180910390fd5b600061328a83612cda565b9050806000806132a8866000908152600a6020526040902080549091565b9150915084156132e8576132bd818433612952565b6132e8576132cb8333610c56565b6132e857604051632ce44b5f60e11b815260040160405180910390fd5b6132f6836000886001613208565b801561330157600082555b6001600160a01b038316600081815260096020526040902080546fffffffffffffffffffffffffffffffff0190554260a01b17600360e01b17600087815260086020526040812091909155600160e11b8516900361338f5760018601600081815260086020526040812054900361338d57600454811461338d5760008181526008602052604090208590555b505b60405186906000906001600160a01b0386169060008051602061440d833981519152908390a4505060058054600101905550505050565b6133d08383612fe6565b6001600160a01b0383163b15610f2f576004548281035b6133fa60008683806001019450866130cd565b613417576040516368d2bf6b60e11b815260040160405180910390fd5b8181106133e757816004541461256957600080fd5b600081815260018301602052604081205461347357508154600181810184556000848152602080822090930184905584548482528286019093526040902091909155610dcb565b506000610dcb565b600080600061348a858561352b565b915091506110ab8161356d565b600e5460009062010000900460ff161561352357600e546040516370c5e04560e11b81526001600160a01b038481166004830152630100000090920490911690819063e18bc08a90602401602060405180830381865afa1580156134ff573d6000803e3d6000fd5b505050506040513d601f19601f8201168201806040525081019061243b91906143d9565b506001919050565b60008082516041036135615760208301516040840151606085015160001a613555878285856136b7565b9450945050505061115a565b5060009050600261115a565b6000816004811115613581576135816143f6565b036135895750565b600181600481111561359d5761359d6143f6565b036135ea5760405162461bcd60e51b815260206004820152601860248201527f45434453413a20696e76616c6964207369676e617475726500000000000000006044820152606401610f5e565b60028160048111156135fe576135fe6143f6565b0361364b5760405162461bcd60e51b815260206004820152601f60248201527f45434453413a20696e76616c6964207369676e6174757265206c656e677468006044820152606401610f5e565b600381600481111561365f5761365f6143f6565b03610f705760405162461bcd60e51b815260206004820152602260248201527f45434453413a20696e76616c6964207369676e6174757265202773272076616c604482015261756560f01b6064820152608401610f5e565b6000807f7fffffffffffffffffffffffffffffff5d576e7357a4501ddfe92f46681b20a08311156136ee5750600090506003613772565b6040805160008082526020820180845289905260ff881692820192909252606081018690526080810185905260019060a0016020604051602081039080840390855afa158015613742573d6000803e3d6000fd5b5050604051601f1901519150506001600160a01b03811661376b57600060019250925050613772565b9150600090505b94509492505050565b6001600160e01b031981168114610f7057600080fd5b6000602082840312156137a357600080fd5b813561243b8161377b565b6001600160a01b0381168114610f7057600080fd5b80356001600160601b03811681146137da57600080fd5b919050565b600080604083850312156137f257600080fd5b82356137fd816137ae565b915061380b602084016137c3565b90509250929050565b60006020828403121561382657600080fd5b813561243b816137ae565b60005b8381101561384c578181015183820152602001613834565b50506000910152565b6000815180845261386d816020860160208601613831565b601f01601f19169290920160200192915050565b60208152600061243b6020830184613855565b6000602082840312156138a657600080fd5b5035919050565b600080604083850312156138c057600080fd5b82356138cb816137ae565b946020939093013593505050565b6000806000606084860312156138ee57600080fd5b83356138f9816137ae565b92506020840135613909816137ae565b929592945050506040919091013590565b60008083601f84011261392c57600080fd5b5081356001600160401b0381111561394357600080fd5b6020830191508360208260051b850101111561115a57600080fd5b6000806020838503121561397157600080fd5b82356001600160401b0381111561398757600080fd5b6139938582860161391a565b90969095509350505050565b6020808252825182820181905260009190848201906040850190845b818110156139d95783511515835292840192918401916001016139bb565b50909695505050505050565b600080604083850312156139f857600080fd5b50508035926020909101359150565b600080600060408486031215613a1c57600080fd5b8335613a27816137ae565b925060208401356001600160401b03811115613a4257600080fd5b613a4e8682870161391a565b9497909650939450505050565b600081518084526020808501945080840160005b83811015613a8b57815187529582019590820190600101613a6f565b509495945050505050565b60208152600061243b6020830184613a5b565b60008060008060408587031215613abf57600080fd5b84356001600160401b0380821115613ad657600080fd5b613ae28883890161391a565b90965094506020870135915080821115613afb57600080fd5b50613b088782880161391a565b95989497509550505050565b8015158114610f7057600080fd5b600060208284031215613b3457600080fd5b813561243b81613b14565b60008083601f840112613b5157600080fd5b5081356001600160401b03811115613b6857600080fd5b60208301915083602082850101111561115a57600080fd5b60008060208385031215613b9357600080fd5b82356001600160401b03811115613ba957600080fd5b61399385828601613b3f565b600080600060608486031215613bca57600080fd5b833592506020840135613bdc816137ae565b9150613bea604085016137c3565b90509250925092565b803563ffffffff811681146137da57600080fd5b600060208284031215613c1957600080fd5b61243b82613bf3565b600080600080600060608688031215613c3a57600080fd5b85356001600160401b0380821115613c5157600080fd5b613c5d89838a0161391a565b90975095506020880135915080821115613c7657600080fd5b50613c838882890161391a565b96999598509660400135949350505050565b803561ffff811681146137da57600080fd5b60008060008060608587031215613cbd57600080fd5b613cc685613c95565b9350613cd460208601613c95565b925060408501356001600160401b03811115613cef57600080fd5b613b0887828801613b3f565b60008060408385031215613d0e57600080fd5b8235613d19816137ae565b91506020830135613d2981613b14565b809150509250929050565b80356001600160401b03811681146137da57600080fd5b600080600080600060a08688031215613d6357600080fd5b613d6c86613bf3565b9450613d7a60208701613d34565b9350613d8860408701613d34565b9250613d9660608701613bf3565b9150613da460808701613bf3565b90509295509295909350565b600080600060408486031215613dc557600080fd5b833560ff81168114613dd657600080fd5b925060208401356001600160401b03811115613df157600080fd5b613a4e86828701613b3f565b634e487b7160e01b600052604160045260246000fd5b604051601f8201601f191681016001600160401b0381118282101715613e3b57613e3b613dfd565b604052919050565b60008060008060808587031215613e5957600080fd5b8435613e64816137ae565b9350602085810135613e75816137ae565b93506040860135925060608601356001600160401b0380821115613e9857600080fd5b818801915088601f830112613eac57600080fd5b813581811115613ebe57613ebe613dfd565b613ed0601f8201601f19168501613e13565b91508082528984828501011115613ee657600080fd5b808484018584013760008482840101525080935050505092959194509250565b60008060408385031215613f1957600080fd5b8235613f24816137ae565b91506020830135613d29816137ae565b600080600060608486031215613f4957600080fd5b613f5284613bf3565b9250613f6060208501613bf3565b9150613bea60408501613d34565b600181811c90821680613f8257607f821691505b602082108103613fa257634e487b7160e01b600052602260045260246000fd5b50919050565b6020808252602d908201527f4d756c74697369674f776e61626c653a2063616c6c6572206973206e6f74207460408201526c3432903932b0b61037bbb732b960991b606082015260800190565b634e487b7160e01b600052603260045260246000fd5b634e487b7160e01b600052601160045260246000fd5b8082028115828204841417610dcb57610dcb61400b565b634e487b7160e01b600052601260045260246000fd5b60008261405d5761405d614038565b500490565b80820180821115610dcb57610dcb61400b565b81810381811115610dcb57610dcb61400b565b600063ffffffff8084168061409f5761409f614038565b92169190910492915050565b6001600160401b038281168282160390808211156140cb576140cb61400b565b5092915050565b60006001600160401b038084168061409f5761409f614038565b601f821115610f2f57600081815260208120601f850160051c810160208610156141135750805b601f850160051c820191505b81811015612a935782815560010161411f565b6001600160401b0383111561414957614149613dfd565b61415d836141578354613f6e565b836140ec565b6000601f84116001811461419157600085156141795750838201355b600019600387901b1c1916600186901b178355612569565b600083815260209020601f19861690835b828110156141c257868501358255602094850194600190920191016141a2565b50868210156141df5760001960f88860031b161c19848701351681555b505060018560011b0183555050505050565b60006020828403121561420357600080fd5b815161243b816137ae565b61ffff8181168382160190808211156140cb576140cb61400b565b6000835161423b818460208801613831565b83519083019061424f818360208801613831565b01949350505050565b6020808252602a908201527f455243323938313a20726f79616c7479206665652077696c6c206578636565646040820152692073616c65507269636560b01b606082015260800190565b6001600160a01b03831681526040602082018190526000906112b490830184613a5b565b600060208083850312156142d957600080fd5b82516001600160401b03808211156142f057600080fd5b818501915085601f83011261430457600080fd5b81518181111561431657614316613dfd565b8060051b9150614327848301613e13565b818152918301840191848101908884111561434157600080fd5b938501935b8385101561435f57845182529385019390850190614346565b98975050505050505050565b60008261437a5761437a614038565b500690565b6001600160a01b03858116825284166020820152604081018390526080606082018190526000906143b290830184613855565b9695505050505050565b6000602082840312156143ce57600080fd5b815161243b8161377b565b6000602082840312156143eb57600080fd5b815161243b81613b14565b634e487b7160e01b600052602160045260246000fdfeddf252ad1be2c89b69c2b068fc378daa952ba7f163c4a11628f55a4df523b3efa2646970667358221220613f4455bfda66e554d6109ae1ed94160f6c1709a44b7ba543944c62537bdc1864736f6c63430008120033",
  "devdoc": {
    "events": {
      "Approval(address,address,uint256)": {
        "details": "Emitted when `owner` enables `approved` to manage the `tokenId` token."
      },
      "ApprovalForAll(address,address,bool)": {
        "details": "Emitted when `owner` enables or disables (`approved`) `operator` to manage all of its assets."
      },
      "ConsecutiveTransfer(uint256,uint256,address,address)": {
        "details": "Emitted when tokens in `fromTokenId` to `toTokenId` (inclusive) is transferred from `from` to `to`, as defined in the [ERC2309](https://eips.ethereum.org/EIPS/eip-2309) standard. See {_mintERC2309} for more details."
      },
      "Transfer(address,address,uint256)": {
        "details": "Emitted when `tokenId` token is transferred from `from` to `to`."
      }
    },
    "kind": "dev",
    "methods": {
      "balanceOf(address)": {
        "details": "Returns the number of tokens in `owner`'s account."
      },
      "getApproved(uint256)": {
        "details": "Returns the account approved for `tokenId` token. Requirements: - `tokenId` must exist."
      },
      "isApprovedForAll(address,address)": {
        "details": "Returns if the `operator` is allowed to manage all of the assets of `owner`. See {setApprovalForAll}."
      },
      "name()": {
        "details": "Returns the token collection name."
      },
      "owner()": {
        "details": "Returns the address of the current owner."
      },
      "ownerOf(uint256)": {
        "details": "Returns the owner of the `tokenId` token. Requirements: - `tokenId` must exist."
      },
      "renounceOwnership()": {
        "details": "Leaves the contract without owner. It will not be possible to call `onlyOwner` functions. Can only be called by the current owner. NOTE: Renouncing ownership will leave the contract without an owner, thereby disabling any functionality that is only available to the owner."
      },
      "royaltyInfo(uint256,uint256)": {
        "details": "Returns how much royalty is owed and to whom, based on a sale price that may be denominated in any unit of exchange. The royalty amount is denominated and should be paid in that same unit of exchange."
      },
      "safeTransferFrom(address,address,uint256)": {
        "details": "Equivalent to `safeTransferFrom(from, to, tokenId, '')`."
      },
      "safeTransferFrom(address,address,uint256,bytes)": {
        "details": "Safely transfers `tokenId` token from `from` to `to`. Requirements: - `from` cannot be the zero address. - `to` cannot be the zero address. - `tokenId` token must exist and be owned by `from`. - If the caller is not `from`, it must be approved to move this token by either {approve} or {setApprovalForAll}. - If `to` refers to a smart contract, it must implement {IERC721Receiver-onERC721Received}, which is called upon a safe transfer. Emits a {Transfer} event."
      },
      "setApprovalForAll(address,bool)": {
        "details": "Approve or remove `operator` as an operator for the caller. Operators can call {transferFrom} or {safeTransferFrom} for any token owned by the caller. Requirements: - The `operator` cannot be the caller. Emits an {ApprovalForAll} event."
      },
      "symbol()": {
        "details": "Returns the token collection symbol."
      },
      "tokenURI(uint256)": {
        "details": "Returns the Uniform Resource Identifier (URI) for `tokenId` token."
      },
      "totalSupply()": {
        "details": "Returns the total number of tokens in existence. Burned tokens will reduce the count. To get the total number of tokens minted, please see {_totalMinted}."
      },
      "transferFrom(address,address,uint256)": {
        "details": "Transfers `tokenId` from `from` to `to`. Requirements: - `from` cannot be the zero address. - `to` cannot be the zero address. - `tokenId` token must be owned by `from`. - If the caller is not `from`, it must be approved to move this token by either {approve} or {setApprovalForAll}. Emits a {Transfer} event."
      },
      "transferOwnership(address)": {
        "details": "Transfers ownership of the contract to a new account (`newOwner`). Can only be called by the current owner."
      }
    },
    "version": 1
  },
  "userdoc": {
    "errors": {
      "ApprovalCallerNotOwnerNorApproved()": [
        {
          "notice": "The caller must own the token or be an approved operator."
        }
      ],
      "ApprovalQueryForNonexistentToken()": [
        {
          "notice": "The token does not exist."
        }
      ],
      "BalanceQueryForZeroAddress()": [
        {
          "notice": "Cannot query the balance for the zero address."
        }
      ],
      "MintERC2309QuantityExceedsLimit()": [
        {
          "notice": "The `quantity` minted with ERC2309 exceeds the safety limit."
        }
      ],
      "MintToZeroAddress()": [
        {
          "notice": "Cannot mint to the zero address."
        }
      ],
      "MintZeroQuantity()": [
        {
          "notice": "The quantity of tokens minted must be more than zero."
        }
      ],
      "OwnerQueryForNonexistentToken()": [
        {
          "notice": "The token does not exist."
        }
      ],
      "OwnershipNotInitializedForExtraData()": [
        {
          "notice": "The `extraData` cannot be set on an unintialized ownership slot."
        }
      ],
      "TransferCallerNotOwnerNorApproved()": [
        {
          "notice": "The caller must own the token or be an approved operator."
        }
      ],
      "TransferFromIncorrectOwner()": [
        {
          "notice": "The token must be owned by `from`."
        }
      ],
      "TransferToNonERC721ReceiverImplementer()": [
        {
          "notice": "Cannot safely transfer to a contract that does not implement the ERC721Receiver interface."
        }
      ],
      "TransferToZeroAddress()": [
        {
          "notice": "Cannot transfer to the zero address."
        }
      ],
      "URIQueryForNonexistentToken()": [
        {
          "notice": "The token does not exist."
        }
      ]
    },
    "kind": "user",
    "methods": {},
    "version": 1
  },
  "storageLayout": {
    "storage": [
      {
        "astId": 148,
        "contract": "contracts/Azuki/MysteryBean.sol:MysteryBean",
        "label": "_defaultRoyaltyInfo",
        "offset": 0,
        "slot": "0",
        "type": "t_struct(RoyaltyInfo)145_storage"
      },
      {
        "astId": 153,
        "contract": "contracts/Azuki/MysteryBean.sol:MysteryBean",
        "label": "_tokenRoyaltyInfo",
        "offset": 0,
        "slot": "1",
        "type": "t_mapping(t_uint256,t_struct(RoyaltyInfo)145_storage)"
      },
      {
        "astId": 7,
        "contract": "contracts/Azuki/MysteryBean.sol:MysteryBean",
        "label": "_owner",
        "offset": 0,
        "slot": "2",
        "type": "t_address"
      },
      {
        "astId": 4055,
        "contract": "contracts/Azuki/MysteryBean.sol:MysteryBean",
        "label": "realOwner",
        "offset": 0,
        "slot": "3",
        "type": "t_address"
      },
      {
        "astId": 6125,
        "contract": "contracts/Azuki/MysteryBean.sol:MysteryBean",
        "label": "_currentIndex",
        "offset": 0,
        "slot": "4",
        "type": "t_uint256"
      },
      {
        "astId": 6127,
        "contract": "contracts/Azuki/MysteryBean.sol:MysteryBean",
        "label": "_burnCounter",
        "offset": 0,
        "slot": "5",
        "type": "t_uint256"
      },
      {
        "astId": 6129,
        "contract": "contracts/Azuki/MysteryBean.sol:MysteryBean",
        "label": "_name",
        "offset": 0,
        "slot": "6",
        "type": "t_string_storage"
      },
      {
        "astId": 6131,
        "contract": "contracts/Azuki/MysteryBean.sol:MysteryBean",
        "label": "_symbol",
        "offset": 0,
        "slot": "7",
        "type": "t_string_storage"
      },
      {
        "astId": 6135,
        "contract": "contracts/Azuki/MysteryBean.sol:MysteryBean",
        "label": "_packedOwnerships",
        "offset": 0,
        "slot": "8",
        "type": "t_mapping(t_uint256,t_uint256)"
      },
      {
        "astId": 6139,
        "contract": "contracts/Azuki/MysteryBean.sol:MysteryBean",
        "label": "_packedAddressData",
        "offset": 0,
        "slot": "9",
        "type": "t_mapping(t_address,t_uint256)"
      },
      {
        "astId": 6144,
        "contract": "contracts/Azuki/MysteryBean.sol:MysteryBean",
        "label": "_tokenApprovals",
        "offset": 0,
        "slot": "10",
        "type": "t_mapping(t_uint256,t_struct(TokenApprovalRef)6057_storage)"
      },
      {
        "astId": 6150,
        "contract": "contracts/Azuki/MysteryBean.sol:MysteryBean",
        "label": "_operatorApprovals",
        "offset": 0,
        "slot": "11",
        "type": "t_mapping(t_address,t_mapping(t_address,t_bool))"
      },
      {
        "astId": 4227,
        "contract": "contracts/Azuki/MysteryBean.sol:MysteryBean",
        "label": "_processedChunksForAirdrop",
        "offset": 0,
        "slot": "12",
        "type": "t_struct(UintSet)2582_storage"
      },
      {
        "astId": 4230,
        "contract": "contracts/Azuki/MysteryBean.sol:MysteryBean",
        "label": "operatorFilteringEnabled",
        "offset": 0,
        "slot": "14",
        "type": "t_bool"
      },
      {
        "astId": 4233,
        "contract": "contracts/Azuki/MysteryBean.sol:MysteryBean",
        "label": "initialTransferLockOn",
        "offset": 1,
        "slot": "14",
        "type": "t_bool"
      },
      {
        "astId": 4236,
        "contract": "contracts/Azuki/MysteryBean.sol:MysteryBean",
        "label": "isRegistryActive",
        "offset": 2,
        "slot": "14",
        "type": "t_bool"
      },
      {
        "astId": 4238,
        "contract": "contracts/Azuki/MysteryBean.sol:MysteryBean",
        "label": "registryAddress",
        "offset": 3,
        "slot": "14",
        "type": "t_address"
      },
      {
        "astId": 4241,
        "contract": "contracts/Azuki/MysteryBean.sol:MysteryBean",
        "label": "claimBeanOpen",
        "offset": 23,
        "slot": "14",
        "type": "t_bool"
      },
      {
        "astId": 4244,
        "contract": "contracts/Azuki/MysteryBean.sol:MysteryBean",
        "label": "_azukiCanClaim",
        "offset": 0,
        "slot": "15",
        "type": "t_struct(BitMap)1969_storage"
      },
      {
        "astId": 4248,
        "contract": "contracts/Azuki/MysteryBean.sol:MysteryBean",
        "label": "totalPresaleAndAuctionMinted",
        "offset": 0,
        "slot": "16",
        "type": "t_uint16"
      },
      {
        "astId": 4258,
        "contract": "contracts/Azuki/MysteryBean.sol:MysteryBean",
        "label": "presaleInfo",
        "offset": 0,
        "slot": "17",
        "type": "t_struct(PresaleInfo)4255_storage"
      },
      {
        "astId": 4262,
        "contract": "contracts/Azuki/MysteryBean.sol:MysteryBean",
        "label": "numMintedInPresale",
        "offset": 0,
        "slot": "18",
        "type": "t_mapping(t_address,t_uint256)"
      },
      {
        "astId": 4276,
        "contract": "contracts/Azuki/MysteryBean.sol:MysteryBean",
        "label": "auctionInfo",
        "offset": 0,
        "slot": "19",
        "type": "t_struct(AuctionInfo)4273_storage"
      },
      {
        "astId": 4278,
        "contract": "contracts/Azuki/MysteryBean.sol:MysteryBean",
        "label": "_offchainSigner",
        "offset": 0,
        "slot": "20",
        "type": "t_address"
      },
      {
        "astId": 4286,
        "contract": "contracts/Azuki/MysteryBean.sol:MysteryBean",
        "label": "redeemInfo",
        "offset": 0,
        "slot": "21",
        "type": "t_struct(RedeemInfo)4283_storage"
      },
      {
        "astId": 4290,
        "contract": "contracts/Azuki/MysteryBean.sol:MysteryBean",
        "label": "allowlistMintsAlloc",
        "offset": 0,
        "slot": "22",
        "type": "t_mapping(t_address,t_uint256)"
      },
      {
        "astId": 4292,
        "contract": "contracts/Azuki/MysteryBean.sol:MysteryBean",
        "label": "allowlistMintPrice",
        "offset": 0,
        "slot": "23",
        "type": "t_uint256"
      },
      {
        "astId": 4296,
        "contract": "contracts/Azuki/MysteryBean.sol:MysteryBean",
        "label": "_baseTokenURI",
        "offset": 0,
        "slot": "24",
        "type": "t_string_storage"
      }
    ],
    "types": {
      "t_address": {
        "encoding": "inplace",
        "label": "address",
        "numberOfBytes": "20"
      },
      "t_array(t_bytes32)dyn_storage": {
        "base": "t_bytes32",
        "encoding": "dynamic_array",
        "label": "bytes32[]",
        "numberOfBytes": "32"
      },
      "t_bool": {
        "encoding": "inplace",
        "label": "bool",
        "numberOfBytes": "1"
      },
      "t_bytes32": {
        "encoding": "inplace",
        "label": "bytes32",
        "numberOfBytes": "32"
      },
      "t_mapping(t_address,t_bool)": {
        "encoding": "mapping",
        "key": "t_address",
        "label": "mapping(address => bool)",
        "numberOfBytes": "32",
        "value": "t_bool"
      },
      "t_mapping(t_address,t_mapping(t_address,t_bool))": {
        "encoding": "mapping",
        "key": "t_address",
        "label": "mapping(address => mapping(address => bool))",
        "numberOfBytes": "32",
        "value": "t_mapping(t_address,t_bool)"
      },
      "t_mapping(t_address,t_uint256)": {
        "encoding": "mapping",
        "key": "t_address",
        "label": "mapping(address => uint256)",
        "numberOfBytes": "32",
        "value": "t_uint256"
      },
      "t_mapping(t_bytes32,t_uint256)": {
        "encoding": "mapping",
        "key": "t_bytes32",
        "label": "mapping(bytes32 => uint256)",
        "numberOfBytes": "32",
        "value": "t_uint256"
      },
      "t_mapping(t_uint256,t_struct(RoyaltyInfo)145_storage)": {
        "encoding": "mapping",
        "key": "t_uint256",
        "label": "mapping(uint256 => struct ERC2981.RoyaltyInfo)",
        "numberOfBytes": "32",
        "value": "t_struct(RoyaltyInfo)145_storage"
      },
      "t_mapping(t_uint256,t_struct(TokenApprovalRef)6057_storage)": {
        "encoding": "mapping",
        "key": "t_uint256",
        "label": "mapping(uint256 => struct ERC721A.TokenApprovalRef)",
        "numberOfBytes": "32",
        "value": "t_struct(TokenApprovalRef)6057_storage"
      },
      "t_mapping(t_uint256,t_uint256)": {
        "encoding": "mapping",
        "key": "t_uint256",
        "label": "mapping(uint256 => uint256)",
        "numberOfBytes": "32",
        "value": "t_uint256"
      },
      "t_string_storage": {
        "encoding": "bytes",
        "label": "string",
        "numberOfBytes": "32"
      },
      "t_struct(AuctionInfo)4273_storage": {
        "encoding": "inplace",
        "label": "struct MysteryBean.AuctionInfo",
        "members": [
          {
            "astId": 4264,
            "contract": "contracts/Azuki/MysteryBean.sol:MysteryBean",
            "label": "auctionSaleStartTime",
            "offset": 0,
            "slot": "0",
            "type": "t_uint32"
          },
          {
            "astId": 4266,
            "contract": "contracts/Azuki/MysteryBean.sol:MysteryBean",
            "label": "auctionStartPrice",
            "offset": 4,
            "slot": "0",
            "type": "t_uint64"
          },
          {
            "astId": 4268,
            "contract": "contracts/Azuki/MysteryBean.sol:MysteryBean",
            "label": "auctionEndPrice",
            "offset": 12,
            "slot": "0",
            "type": "t_uint64"
          },
          {
            "astId": 4270,
            "contract": "contracts/Azuki/MysteryBean.sol:MysteryBean",
            "label": "auctionPriceCurveLength",
            "offset": 20,
            "slot": "0",
            "type": "t_uint32"
          },
          {
            "astId": 4272,
            "contract": "contracts/Azuki/MysteryBean.sol:MysteryBean",
            "label": "auctionDropInterval",
            "offset": 24,
            "slot": "0",
            "type": "t_uint32"
          }
        ],
        "numberOfBytes": "32"
      },
      "t_struct(BitMap)1969_storage": {
        "encoding": "inplace",
        "label": "struct BitMaps.BitMap",
        "members": [
          {
            "astId": 1968,
            "contract": "contracts/Azuki/MysteryBean.sol:MysteryBean",
            "label": "_data",
            "offset": 0,
            "slot": "0",
            "type": "t_mapping(t_uint256,t_uint256)"
          }
        ],
        "numberOfBytes": "32"
      },
      "t_struct(PresaleInfo)4255_storage": {
        "encoding": "inplace",
        "label": "struct MysteryBean.PresaleInfo",
        "members": [
          {
            "astId": 4250,
            "contract": "contracts/Azuki/MysteryBean.sol:MysteryBean",
            "label": "presaleStartTime",
            "offset": 0,
            "slot": "0",
            "type": "t_uint32"
          },
          {
            "astId": 4252,
            "contract": "contracts/Azuki/MysteryBean.sol:MysteryBean",
            "label": "presaleEndTime",
            "offset": 4,
            "slot": "0",
            "type": "t_uint32"
          },
          {
            "astId": 4254,
            "contract": "contracts/Azuki/MysteryBean.sol:MysteryBean",
            "label": "presalePrice",
            "offset": 8,
            "slot": "0",
            "type": "t_uint64"
          }
        ],
        "numberOfBytes": "32"
      },
      "t_struct(RedeemInfo)4283_storage": {
        "encoding": "inplace",
        "label": "struct MysteryBean.RedeemInfo",
        "members": [
          {
            "astId": 4280,
            "contract": "contracts/Azuki/MysteryBean.sol:MysteryBean",
            "label": "redeemBeanOpen",
            "offset": 0,
            "slot": "0",
            "type": "t_bool"
          },
          {
            "astId": 4282,
            "contract": "contracts/Azuki/MysteryBean.sol:MysteryBean",
            "label": "beanRedeemer",
            "offset": 1,
            "slot": "0",
            "type": "t_address"
          }
        ],
        "numberOfBytes": "32"
      },
      "t_struct(RoyaltyInfo)145_storage": {
        "encoding": "inplace",
        "label": "struct ERC2981.RoyaltyInfo",
        "members": [
          {
            "astId": 142,
            "contract": "contracts/Azuki/MysteryBean.sol:MysteryBean",
            "label": "receiver",
            "offset": 0,
            "slot": "0",
            "type": "t_address"
          },
          {
            "astId": 144,
            "contract": "contracts/Azuki/MysteryBean.sol:MysteryBean",
            "label": "royaltyFraction",
            "offset": 20,
            "slot": "0",
            "type": "t_uint96"
          }
        ],
        "numberOfBytes": "32"
      },
      "t_struct(Set)2110_storage": {
        "encoding": "inplace",
        "label": "struct EnumerableSet.Set",
        "members": [
          {
            "astId": 2105,
            "contract": "contracts/Azuki/MysteryBean.sol:MysteryBean",
            "label": "_values",
            "offset": 0,
            "slot": "0",
            "type": "t_array(t_bytes32)dyn_storage"
          },
          {
            "astId": 2109,
            "contract": "contracts/Azuki/MysteryBean.sol:MysteryBean",
            "label": "_indexes",
            "offset": 0,
            "slot": "1",
            "type": "t_mapping(t_bytes32,t_uint256)"
          }
        ],
        "numberOfBytes": "64"
      },
      "t_struct(TokenApprovalRef)6057_storage": {
        "encoding": "inplace",
        "label": "struct ERC721A.TokenApprovalRef",
        "members": [
          {
            "astId": 6056,
            "contract": "contracts/Azuki/MysteryBean.sol:MysteryBean",
            "label": "value",
            "offset": 0,
            "slot": "0",
            "type": "t_address"
          }
        ],
        "numberOfBytes": "32"
      },
      "t_struct(UintSet)2582_storage": {
        "encoding": "inplace",
        "label": "struct EnumerableSet.UintSet",
        "members": [
          {
            "astId": 2581,
            "contract": "contracts/Azuki/MysteryBean.sol:MysteryBean",
            "label": "_inner",
            "offset": 0,
            "slot": "0",
            "type": "t_struct(Set)2110_storage"
          }
        ],
        "numberOfBytes": "64"
      },
      "t_uint16": {
        "encoding": "inplace",
        "label": "uint16",
        "numberOfBytes": "2"
      },
      "t_uint256": {
        "encoding": "inplace",
        "label": "uint256",
        "numberOfBytes": "32"
      },
      "t_uint32": {
        "encoding": "inplace",
        "label": "uint32",
        "numberOfBytes": "4"
      },
      "t_uint64": {
        "encoding": "inplace",
        "label": "uint64",
        "numberOfBytes": "8"
      },
      "t_uint96": {
        "encoding": "inplace",
        "label": "uint96",
        "numberOfBytes": "12"
      }
    }
  }
}