{
  "address": "0x6b63555b734204B3Ee5B8595A9E8a022a606Fb61",
  "abi": [
    {
      "inputs": [
        {
          "internalType": "string",
          "name": "_name",
          "type": "string"
        },
        {
          "internalType": "string",
          "name": "_symbol",
          "type": "string"
        },
        {
          "internalType": "uint256",
          "name": "_maxSupply",
          "type": "uint256"
        },
        {
          "internalType": "address payable",
          "name": "_withdrawAddress",
          "type": "address"
        }
      ],
      "stateMutability": "nonpayable",
      "type": "constructor"
    },
    {
      "inputs": [],
      "name": "ApprovalCallerNotOwnerNorApproved",
      "type": "error"
    },
    {
      "inputs": [],
      "name": "ApprovalQueryForNonexistentToken",
      "type": "error"
    },
    {
      "inputs": [],
      "name": "BagRedeemerNotSet",
      "type": "error"
    },
    {
      "inputs": [],
      "name": "BalanceQueryForZeroAddress",
      "type": "error"
    },
    {
      "inputs": [],
      "name": "InitialTransferLockOn",
      "type": "error"
    },
    {
      "inputs": [],
      "name": "InsufficientFunds",
      "type": "error"
    },
    {
      "inputs": [],
      "name": "InvalidPeriodSetup",
      "type": "error"
    },
    {
      "inputs": [],
      "name": "MaxPeriodMintSupplyReached",
      "type": "error"
    },
    {
      "inputs": [],
      "name": "MintERC2309QuantityExceedsLimit",
      "type": "error"
    },
    {
      "inputs": [],
      "name": "MintToZeroAddress",
      "type": "error"
    },
    {
      "inputs": [],
      "name": "MintZeroQuantity",
      "type": "error"
    },
    {
      "inputs": [],
      "name": "MintingTooMuchInPeriod",
      "type": "error"
    },
    {
      "inputs": [],
      "name": "NotAllowedByRegistry",
      "type": "error"
    },
    {
      "inputs": [],
      "name": "OverMaxSupply",
      "type": "error"
    },
    {
      "inputs": [],
      "name": "OwnerQueryForNonexistentToken",
      "type": "error"
    },
    {
      "inputs": [],
      "name": "OwnershipNotInitializedForExtraData",
      "type": "error"
    },
    {
      "inputs": [],
      "name": "PeriodNotOpen",
      "type": "error"
    },
    {
      "inputs": [],
      "name": "RedeemBagNotOpen",
      "type": "error"
    },
    {
      "inputs": [],
      "name": "RegistryNotSet",
      "type": "error"
    },
    {
      "inputs": [],
      "name": "TransferCallerNotOwnerNorApproved",
      "type": "error"
    },
    {
      "inputs": [],
      "name": "TransferFromIncorrectOwner",
      "type": "error"
    },
    {
      "inputs": [],
      "name": "TransferToNonERC721ReceiverImplementer",
      "type": "error"
    },
    {
      "inputs": [],
      "name": "TransferToZeroAddress",
      "type": "error"
    },
    {
      "inputs": [],
      "name": "URIQueryForNonexistentToken",
      "type": "error"
    },
    {
      "inputs": [],
      "name": "WithdrawFailed",
      "type": "error"
    },
    {
      "anonymous": false,
      "inputs": [
        {
          "indexed": true,
          "internalType": "address",
          "name": "owner",
          "type": "address"
        },
        {
          "indexed": true,
          "internalType": "address",
          "name": "approved",
          "type": "address"
        },
        {
          "indexed": true,
          "internalType": "uint256",
          "name": "tokenId",
          "type": "uint256"
        }
      ],
      "name": "Approval",
      "type": "event"
    },
    {
      "anonymous": false,
      "inputs": [
        {
          "indexed": true,
          "internalType": "address",
          "name": "owner",
          "type": "address"
        },
        {
          "indexed": true,
          "internalType": "address",
          "name": "operator",
          "type": "address"
        },
        {
          "indexed": false,
          "internalType": "bool",
          "name": "approved",
          "type": "bool"
        }
      ],
      "name": "ApprovalForAll",
      "type": "event"
    },
    {
      "anonymous": false,
      "inputs": [
        {
          "indexed": true,
          "internalType": "uint256",
          "name": "fromTokenId",
          "type": "uint256"
        },
        {
          "indexed": false,
          "internalType": "uint256",
          "name": "toTokenId",
          "type": "uint256"
        },
        {
          "indexed": true,
          "internalType": "address",
          "name": "from",
          "type": "address"
        },
        {
          "indexed": true,
          "internalType": "address",
          "name": "to",
          "type": "address"
        }
      ],
      "name": "ConsecutiveTransfer",
      "type": "event"
    },
    {
      "anonymous": false,
      "inputs": [
        {
          "indexed": true,
          "internalType": "address",
          "name": "previousOwner",
          "type": "address"
        },
        {
          "indexed": true,
          "internalType": "address",
          "name": "newOwner",
          "type": "address"
        }
      ],
      "name": "OwnershipTransferred",
      "type": "event"
    },
    {
      "anonymous": false,
      "inputs": [
        {
          "indexed": true,
          "internalType": "address",
          "name": "minter",
          "type": "address"
        },
        {
          "indexed": false,
          "internalType": "uint256",
          "name": "period",
          "type": "uint256"
        },
        {
          "indexed": true,
          "internalType": "uint16",
          "name": "amount",
          "type": "uint16"
        }
      ],
      "name": "PeriodMint",
      "type": "event"
    },
    {
      "anonymous": false,
      "inputs": [
        {
          "indexed": true,
          "internalType": "address",
          "name": "from",
          "type": "address"
        },
        {
          "indexed": true,
          "internalType": "address",
          "name": "to",
          "type": "address"
        },
        {
          "indexed": true,
          "internalType": "uint256",
          "name": "tokenId",
          "type": "uint256"
        }
      ],
      "name": "Transfer",
      "type": "event"
    },
    {
      "inputs": [],
      "name": "FCFS_PERIOD",
      "outputs": [
        {
          "internalType": "uint256",
          "name": "",
          "type": "uint256"
        }
      ],
      "stateMutability": "view",
      "type": "function"
    },
    {
      "inputs": [],
      "name": "GTD_PERIOD",
      "outputs": [
        {
          "internalType": "uint256",
          "name": "",
          "type": "uint256"
        }
      ],
      "stateMutability": "view",
      "type": "function"
    },
    {
      "inputs": [],
      "name": "MAX_SUPPLY",
      "outputs": [
        {
          "internalType": "uint256",
          "name": "",
          "type": "uint256"
        }
      ],
      "stateMutability": "view",
      "type": "function"
    },
    {
      "inputs": [],
      "name": "PUBLIC_PERIOD",
      "outputs": [
        {
          "internalType": "uint256",
          "name": "",
          "type": "uint256"
        }
      ],
      "stateMutability": "view",
      "type": "function"
    },
    {
      "inputs": [],
      "name": "WITHDRAW_ADDRESS",
      "outputs": [
        {
          "internalType": "address payable",
          "name": "",
          "type": "address"
        }
      ],
      "stateMutability": "view",
      "type": "function"
    },
    {
      "inputs": [
        {
          "internalType": "address",
          "name": "operator",
          "type": "address"
        },
        {
          "internalType": "uint256",
          "name": "tokenId",
          "type": "uint256"
        }
      ],
      "name": "approve",
      "outputs": [],
      "stateMutability": "payable",
      "type": "function"
    },
    {
      "inputs": [
        {
          "internalType": "address",
          "name": "owner",
          "type": "address"
        }
      ],
      "name": "balanceOf",
      "outputs": [
        {
          "internalType": "uint256",
          "name": "",
          "type": "uint256"
        }
      ],
      "stateMutability": "view",
      "type": "function"
    },
    {
      "inputs": [],
      "name": "breakTransferLock",
      "outputs": [],
      "stateMutability": "nonpayable",
      "type": "function"
    },
    {
      "inputs": [],
      "name": "currentPeriod",
      "outputs": [
        {
          "internalType": "uint256",
          "name": "",
          "type": "uint256"
        }
      ],
      "stateMutability": "view",
      "type": "function"
    },
    {
      "inputs": [
        {
          "internalType": "bytes32[]",
          "name": "_merkleProof",
          "type": "bytes32[]"
        },
        {
          "internalType": "address",
          "name": "addr",
          "type": "address"
        }
      ],
      "name": "fcfs_validateAddress",
      "outputs": [
        {
          "internalType": "bool",
          "name": "",
          "type": "bool"
        }
      ],
      "stateMutability": "view",
      "type": "function"
    },
    {
      "inputs": [
        {
          "internalType": "uint256",
          "name": "tokenId",
          "type": "uint256"
        }
      ],
      "name": "getApproved",
      "outputs": [
        {
          "internalType": "address",
          "name": "",
          "type": "address"
        }
      ],
      "stateMutability": "view",
      "type": "function"
    },
    {
      "inputs": [
        {
          "internalType": "bytes32[]",
          "name": "_merkleProof",
          "type": "bytes32[]"
        },
        {
          "internalType": "address",
          "name": "addr",
          "type": "address"
        }
      ],
      "name": "gtd_validateAddress",
      "outputs": [
        {
          "internalType": "bool",
          "name": "",
          "type": "bool"
        }
      ],
      "stateMutability": "view",
      "type": "function"
    },
    {
      "inputs": [
        {
          "internalType": "uint256",
          "name": "",
          "type": "uint256"
        },
        {
          "internalType": "address",
          "name": "",
          "type": "address"
        }
      ],
      "name": "individualMintedInPeriod",
      "outputs": [
        {
          "internalType": "uint256",
          "name": "",
          "type": "uint256"
        }
      ],
      "stateMutability": "view",
      "type": "function"
    },
    {
      "inputs": [],
      "name": "initialTransferLockOn",
      "outputs": [
        {
          "internalType": "bool",
          "name": "",
          "type": "bool"
        }
      ],
      "stateMutability": "view",
      "type": "function"
    },
    {
      "inputs": [
        {
          "internalType": "address",
          "name": "owner",
          "type": "address"
        },
        {
          "internalType": "address",
          "name": "operator",
          "type": "address"
        }
      ],
      "name": "isApprovedForAll",
      "outputs": [
        {
          "internalType": "bool",
          "name": "",
          "type": "bool"
        }
      ],
      "stateMutability": "view",
      "type": "function"
    },
    {
      "inputs": [],
      "name": "isRegistryActive",
      "outputs": [
        {
          "internalType": "bool",
          "name": "",
          "type": "bool"
        }
      ],
      "stateMutability": "view",
      "type": "function"
    },
    {
      "inputs": [],
      "name": "name",
      "outputs": [
        {
          "internalType": "string",
          "name": "",
          "type": "string"
        }
      ],
      "stateMutability": "view",
      "type": "function"
    },
    {
      "inputs": [
        {
          "internalType": "uint256",
          "name": "_period",
          "type": "uint256"
        }
      ],
      "name": "openPeriod",
      "outputs": [],
      "stateMutability": "nonpayable",
      "type": "function"
    },
    {
      "inputs": [],
      "name": "openRedeemBagState",
      "outputs": [],
      "stateMutability": "nonpayable",
      "type": "function"
    },
    {
      "inputs": [],
      "name": "operatorFilteringEnabled",
      "outputs": [
        {
          "internalType": "bool",
          "name": "",
          "type": "bool"
        }
      ],
      "stateMutability": "view",
      "type": "function"
    },
    {
      "inputs": [],
      "name": "owner",
      "outputs": [
        {
          "internalType": "address",
          "name": "",
          "type": "address"
        }
      ],
      "stateMutability": "view",
      "type": "function"
    },
    {
      "inputs": [
        {
          "internalType": "uint256",
          "name": "tokenId",
          "type": "uint256"
        }
      ],
      "name": "ownerOf",
      "outputs": [
        {
          "internalType": "address",
          "name": "",
          "type": "address"
        }
      ],
      "stateMutability": "view",
      "type": "function"
    },
    {
      "inputs": [
        {
          "internalType": "uint256",
          "name": "",
          "type": "uint256"
        }
      ],
      "name": "periodInfo",
      "outputs": [
        {
          "internalType": "uint32",
          "name": "startTime",
          "type": "uint32"
        },
        {
          "internalType": "uint32",
          "name": "endTime",
          "type": "uint32"
        },
        {
          "internalType": "uint64",
          "name": "price",
          "type": "uint64"
        },
        {
          "internalType": "uint64",
          "name": "MAX_MINT_ALLOWED",
          "type": "uint64"
        },
        {
          "internalType": "uint64",
          "name": "MAX_SUPPLY",
          "type": "uint64"
        }
      ],
      "stateMutability": "view",
      "type": "function"
    },
    {
      "inputs": [
        {
          "internalType": "uint256",
          "name": "_period",
          "type": "uint256"
        },
        {
          "internalType": "uint16",
          "name": "amount",
          "type": "uint16"
        },
        {
          "internalType": "bytes32[]",
          "name": "proof",
          "type": "bytes32[]"
        }
      ],
      "name": "periodMint",
      "outputs": [],
      "stateMutability": "payable",
      "type": "function"
    },
    {
      "inputs": [],
      "name": "realOwner",
      "outputs": [
        {
          "internalType": "address",
          "name": "",
          "type": "address"
        }
      ],
      "stateMutability": "view",
      "type": "function"
    },
    {
      "inputs": [
        {
          "internalType": "uint256[]",
          "name": "BagIds",
          "type": "uint256[]"
        }
      ],
      "name": "redeemBags",
      "outputs": [
        {
          "internalType": "uint256[]",
          "name": "",
          "type": "uint256[]"
        }
      ],
      "stateMutability": "nonpayable",
      "type": "function"
    },
    {
      "inputs": [],
      "name": "redeemInfo",
      "outputs": [
        {
          "internalType": "bool",
          "name": "redeemBagOpen",
          "type": "bool"
        },
        {
          "internalType": "address",
          "name": "BagRedeemer",
          "type": "address"
        }
      ],
      "stateMutability": "view",
      "type": "function"
    },
    {
      "inputs": [],
      "name": "registryAddress",
      "outputs": [
        {
          "internalType": "address",
          "name": "",
          "type": "address"
        }
      ],
      "stateMutability": "view",
      "type": "function"
    },
    {
      "inputs": [],
      "name": "renounceOwnership",
      "outputs": [],
      "stateMutability": "nonpayable",
      "type": "function"
    },
    {
      "inputs": [
        {
          "internalType": "uint256",
          "name": "tokenId",
          "type": "uint256"
        },
        {
          "internalType": "uint256",
          "name": "salePrice",
          "type": "uint256"
        }
      ],
      "name": "royaltyInfo",
      "outputs": [
        {
          "internalType": "address",
          "name": "",
          "type": "address"
        },
        {
          "internalType": "uint256",
          "name": "",
          "type": "uint256"
        }
      ],
      "stateMutability": "view",
      "type": "function"
    },
    {
      "inputs": [
        {
          "internalType": "address",
          "name": "from",
          "type": "address"
        },
        {
          "internalType": "address",
          "name": "to",
          "type": "address"
        },
        {
          "internalType": "uint256",
          "name": "tokenId",
          "type": "uint256"
        }
      ],
      "name": "safeTransferFrom",
      "outputs": [],
      "stateMutability": "payable",
      "type": "function"
    },
    {
      "inputs": [
        {
          "internalType": "address",
          "name": "from",
          "type": "address"
        },
        {
          "internalType": "address",
          "name": "to",
          "type": "address"
        },
        {
          "internalType": "uint256",
          "name": "tokenId",
          "type": "uint256"
        },
        {
          "internalType": "bytes",
          "name": "_data",
          "type": "bytes"
        }
      ],
      "name": "safeTransferFrom",
      "outputs": [],
      "stateMutability": "payable",
      "type": "function"
    },
    {
      "inputs": [
        {
          "internalType": "address",
          "name": "operator",
          "type": "address"
        },
        {
          "internalType": "bool",
          "name": "approved",
          "type": "bool"
        }
      ],
      "name": "setApprovalForAll",
      "outputs": [],
      "stateMutability": "nonpayable",
      "type": "function"
    },
    {
      "inputs": [
        {
          "internalType": "address",
          "name": "contractAddress",
          "type": "address"
        }
      ],
      "name": "setBagRedeemer",
      "outputs": [],
      "stateMutability": "nonpayable",
      "type": "function"
    },
    {
      "inputs": [
        {
          "internalType": "string",
          "name": "baseURI",
          "type": "string"
        }
      ],
      "name": "setBaseURI",
      "outputs": [],
      "stateMutability": "nonpayable",
      "type": "function"
    },
    {
      "inputs": [
        {
          "internalType": "address",
          "name": "receiver",
          "type": "address"
        },
        {
          "internalType": "uint96",
          "name": "feeNumerator",
          "type": "uint96"
        }
      ],
      "name": "setDefaultRoyalty",
      "outputs": [],
      "stateMutability": "nonpayable",
      "type": "function"
    },
    {
      "inputs": [
        {
          "internalType": "bytes32",
          "name": "_fcfsMerkleRoot",
          "type": "bytes32"
        }
      ],
      "name": "setFcfsMerkleRoot",
      "outputs": [
        {
          "internalType": "bytes32",
          "name": "",
          "type": "bytes32"
        }
      ],
      "stateMutability": "nonpayable",
      "type": "function"
    },
    {
      "inputs": [
        {
          "internalType": "bytes32",
          "name": "_gtdMerkleRoot",
          "type": "bytes32"
        }
      ],
      "name": "setGtdMerkleRoot",
      "outputs": [
        {
          "internalType": "bytes32",
          "name": "",
          "type": "bytes32"
        }
      ],
      "stateMutability": "nonpayable",
      "type": "function"
    },
    {
      "inputs": [
        {
          "internalType": "bool",
          "name": "_isRegistryActive",
          "type": "bool"
        }
      ],
      "name": "setIsRegistryActive",
      "outputs": [],
      "stateMutability": "nonpayable",
      "type": "function"
    },
    {
      "inputs": [
        {
          "internalType": "bool",
          "name": "value",
          "type": "bool"
        }
      ],
      "name": "setOperatorFilteringEnabled",
      "outputs": [],
      "stateMutability": "nonpayable",
      "type": "function"
    },
    {
      "inputs": [
        {
          "internalType": "uint256",
          "name": "_period",
          "type": "uint256"
        },
        {
          "internalType": "uint32",
          "name": "_startTime",
          "type": "uint32"
        },
        {
          "internalType": "uint32",
          "name": "_endTime",
          "type": "uint32"
        },
        {
          "internalType": "uint64",
          "name": "_price",
          "type": "uint64"
        },
        {
          "internalType": "uint64",
          "name": "_MAX_MINT_ALLOWED",
          "type": "uint64"
        },
        {
          "internalType": "uint64",
          "name": "_MAX_SUPPLY",
          "type": "uint64"
        }
      ],
      "name": "setPeriodParams",
      "outputs": [],
      "stateMutability": "nonpayable",
      "type": "function"
    },
    {
      "inputs": [
        {
          "internalType": "address",
          "name": "_registryAddress",
          "type": "address"
        }
      ],
      "name": "setRegistryAddress",
      "outputs": [],
      "stateMutability": "nonpayable",
      "type": "function"
    },
    {
      "inputs": [
        {
          "internalType": "uint256",
          "name": "tokenId",
          "type": "uint256"
        },
        {
          "internalType": "address",
          "name": "receiver",
          "type": "address"
        },
        {
          "internalType": "uint96",
          "name": "feeNumerator",
          "type": "uint96"
        }
      ],
      "name": "setTokenRoyalty",
      "outputs": [],
      "stateMutability": "nonpayable",
      "type": "function"
    },
    {
      "inputs": [
        {
          "internalType": "bytes4",
          "name": "interfaceId",
          "type": "bytes4"
        }
      ],
      "name": "supportsInterface",
      "outputs": [
        {
          "internalType": "bool",
          "name": "",
          "type": "bool"
        }
      ],
      "stateMutability": "view",
      "type": "function"
    },
    {
      "inputs": [],
      "name": "symbol",
      "outputs": [
        {
          "internalType": "string",
          "name": "",
          "type": "string"
        }
      ],
      "stateMutability": "view",
      "type": "function"
    },
    {
      "inputs": [
        {
          "internalType": "uint256",
          "name": "tokenId",
          "type": "uint256"
        }
      ],
      "name": "tokenURI",
      "outputs": [
        {
          "internalType": "string",
          "name": "",
          "type": "string"
        }
      ],
      "stateMutability": "view",
      "type": "function"
    },
    {
      "inputs": [
        {
          "internalType": "uint256",
          "name": "",
          "type": "uint256"
        }
      ],
      "name": "totalMintedInPeriod",
      "outputs": [
        {
          "internalType": "uint64",
          "name": "",
          "type": "uint64"
        }
      ],
      "stateMutability": "view",
      "type": "function"
    },
    {
      "inputs": [],
      "name": "totalSupply",
      "outputs": [
        {
          "internalType": "uint256",
          "name": "",
          "type": "uint256"
        }
      ],
      "stateMutability": "view",
      "type": "function"
    },
    {
      "inputs": [
        {
          "internalType": "address",
          "name": "from",
          "type": "address"
        },
        {
          "internalType": "address",
          "name": "to",
          "type": "address"
        },
        {
          "internalType": "uint256",
          "name": "tokenId",
          "type": "uint256"
        }
      ],
      "name": "transferFrom",
      "outputs": [],
      "stateMutability": "payable",
      "type": "function"
    },
    {
      "inputs": [
        {
          "internalType": "address",
          "name": "newOwner",
          "type": "address"
        }
      ],
      "name": "transferLowerOwnership",
      "outputs": [],
      "stateMutability": "nonpayable",
      "type": "function"
    },
    {
      "inputs": [
        {
          "internalType": "address",
          "name": "newOwner",
          "type": "address"
        }
      ],
      "name": "transferOwnership",
      "outputs": [],
      "stateMutability": "nonpayable",
      "type": "function"
    },
    {
      "inputs": [
        {
          "internalType": "address",
          "name": "newRealOwner",
          "type": "address"
        }
      ],
      "name": "transferRealOwnership",
      "outputs": [],
      "stateMutability": "nonpayable",
      "type": "function"
    },
    {
      "inputs": [],
      "name": "withdraw",
      "outputs": [],
      "stateMutability": "nonpayable",
      "type": "function"
    }
  ],
  "transactionHash": "0x7cebf9f88e83902bd556587d8fc32f1cb8de7ddbc4a1eed58e5cf5234a3d57b6",
  "args": [
    "SpheraKitBag",
    "SKB",
    3000,
    "0x43b1DB0EC2167C8811cA0216A35B3bEfc339689c"
  ],
  "numDeployments": 2,
  "solcInputHash": "e1f6d9b971eb2c6eeabc7d9ff0c5f749",
  "bytecode": "0x60c0604052600e805462ffffff19166101011790553480156200002157600080fd5b50604051620033d7380380620033d78339810160408190526200004491620001ba565b83836200005133620000a3565b600380546001600160a01b031916331790556006620000718382620002de565b506007620000808282620002de565b50600160045550506080919091526001600160a01b031660a05250620003aa9050565b600280546001600160a01b038381166001600160a01b0319831681179093556040519116919082907f8be0079c531659141344cd1fd0a4f28419497f9722a3daafe3b4186f6b6457e090600090a35050565b634e487b7160e01b600052604160045260246000fd5b600082601f8301126200011d57600080fd5b81516001600160401b03808211156200013a576200013a620000f5565b604051601f8301601f19908116603f01168101908282118183101715620001655762000165620000f5565b816040528381526020925086838588010111156200018257600080fd5b600091505b83821015620001a6578582018301518183018401529082019062000187565b600093810190920192909252949350505050565b60008060008060808587031215620001d157600080fd5b84516001600160401b0380821115620001e957600080fd5b620001f7888389016200010b565b955060208701519150808211156200020e57600080fd5b506200021d878288016200010b565b60408701516060880151919550935090506001600160a01b03811681146200024457600080fd5b939692955090935050565b600181811c908216806200026457607f821691505b6020821081036200028557634e487b7160e01b600052602260045260246000fd5b50919050565b601f821115620002d957600081815260208120601f850160051c81016020861015620002b45750805b601f850160051c820191505b81811015620002d557828155600101620002c0565b5050505b505050565b81516001600160401b03811115620002fa57620002fa620000f5565b62000312816200030b84546200024f565b846200028b565b602080601f8311600181146200034a5760008415620003315750858301515b600019600386901b1c1916600185901b178555620002d5565b600085815260208120601f198616915b828110156200037b578886015182559484019460019091019084016200035a565b50858210156200039a5787850151600019600388901b60f8161c191681555b5050505050600190811b01905550565b60805160a051612feb620003ec6000396000818161043901528181610fd10152818161100101526112350152600081816105c60152610edd0152612feb6000f3fe60806040526004361061031a5760003560e01c80635944c753116101ab578063ab7b4993116100f7578063e985e9c511610095578063efe7aa491161006f578063efe7aa4914610a24578063f2fde38b14610a6d578063f71a5d8814610a8d578063fb796e6c14610aad57600080fd5b8063e985e9c514610994578063eb3f3e01146109dd578063ed9aab51146109fd57600080fd5b8063b88d4fde116100d1578063b88d4fde14610921578063bad5d48314610934578063c87b56dd14610954578063d6649f801461097457600080fd5b8063ab7b4993146108c1578063abd017ea146108e1578063b7c0b8e81461090157600080fd5b80637bcbf5711161016457806395d89b411161013e57806395d89b41146107d2578063a22cb465146107e7578063a4d8008614610807578063a7ec1765146108ac57600080fd5b80637bcbf5711461077f5780638d0f7c16146107945780638da5cb5b146107b457600080fd5b80635944c753146106e05780635b477e19146107005780636352211e1461071557806370a0823114610735578063715018a614610755578063719bebbd1461076a57600080fd5b80631df270f31161026a5780633960be691161022357806346fff98d116101fd57806346fff98d1461065e5780634d8afe271461067e5780635594c545146106ab57806355f804b3146106c057600080fd5b80633960be69146105e85780633ccfd60b1461063657806342842e0e1461064b57600080fd5b80631df270f3146105025780631ed7852a1461052257806323b872dd146105425780632a55205a146105555780632cff67701461059457806332cb6b0c146105b457600080fd5b806309af3f9a116102d757806318160ddd116102b157806318160ddd1461047a57806318443df51461049757806319024047146104b75780631a9ec177146104ef57600080fd5b806309af3f9a14610407578063122e04a81461042757806312b365101461045b57600080fd5b806301ffc9a71461031f57806304634d8d14610354578063060406181461037657806306fdde031461039a578063081812fc146103bc578063095ea7b3146103f4575b600080fd5b34801561032b57600080fd5b5061033f61033a36600461250c565b610ac7565b60405190151581526020015b60405180910390f35b34801561036057600080fd5b5061037461036f366004612557565b610ae7565b005b34801561038257600080fd5b5061038c600f5481565b60405190815260200161034b565b3480156103a657600080fd5b506103af610afd565b60405161034b91906125da565b3480156103c857600080fd5b506103dc6103d73660046125ed565b610b8f565b6040516001600160a01b03909116815260200161034b565b610374610402366004612606565b610bd3565b34801561041357600080fd5b50610374610422366004612630565b610c20565b34801561043357600080fd5b506103dc7f000000000000000000000000000000000000000000000000000000000000000081565b34801561046757600080fd5b50600e5461033f90610100900460ff1681565b34801561048657600080fd5b50600554600454036000190161038c565b3480156104a357600080fd5b506103746104b2366004612630565b610c5f565b3480156104c357600080fd5b5061038c6104d236600461264b565b601160209081526000928352604080842090915290825290205481565b6103746104fd366004612742565b610cb8565b34801561050e57600080fd5b506003546103dc906001600160a01b031681565b34801561052e57600080fd5b5061038c61053d3660046125ed565b6110e4565b6103746105503660046127a1565b6110fb565b34801561056157600080fd5b506105756105703660046127dd565b611131565b604080516001600160a01b03909316835260208301919091520161034b565b3480156105a057600080fd5b506103746105af366004612630565b6111dd565b3480156105c057600080fd5b5061038c7f000000000000000000000000000000000000000000000000000000000000000081565b3480156105f457600080fd5b5061061e6106033660046125ed565b6012602052600090815260409020546001600160401b031681565b6040516001600160401b03909116815260200161034b565b34801561064257600080fd5b50610374611229565b6103746106593660046127a1565b6112c5565b34801561066a57600080fd5b5061037461067936600461280d565b6112e0565b34801561068a57600080fd5b5061069e61069936600461282a565b611334565b60405161034b91906128d9565b3480156106b757600080fd5b5061038c600381565b3480156106cc57600080fd5b506103746106db3660046128ec565b6113cb565b3480156106ec57600080fd5b506103746106fb36600461294b565b6113e0565b34801561070c57600080fd5b5061038c600281565b34801561072157600080fd5b506103dc6107303660046125ed565b6113f3565b34801561074157600080fd5b5061038c610750366004612630565b6113fe565b34801561076157600080fd5b5061037461144c565b34801561077657600080fd5b50610374611460565b34801561078b57600080fd5b506103746114f1565b3480156107a057600080fd5b5061038c6107af3660046125ed565b611506565b3480156107c057600080fd5b506002546001600160a01b03166103dc565b3480156107de57600080fd5b506103af611519565b3480156107f357600080fd5b50610374610802366004612987565b611528565b34801561081357600080fd5b5061086e6108223660046125ed565b60106020526000908152604090205463ffffffff808216916401000000008104909116906001600160401b03600160401b8204811691600160801b8104821691600160c01b9091041685565b6040805163ffffffff96871681529590941660208601526001600160401b03928316938501939093528116606084015216608082015260a00161034b565b3480156108b857600080fd5b5061038c600181565b3480156108cd57600080fd5b506103746108dc366004612630565b611570565b3480156108ed57600080fd5b50600e5461033f9062010000900460ff1681565b34801561090d57600080fd5b5061037461091c36600461280d565b6115a4565b61037461092f3660046129be565b6115bf565b34801561094057600080fd5b5061033f61094f366004612a7d565b611603565b34801561096057600080fd5b506103af61096f3660046125ed565b61164c565b34801561098057600080fd5b5061033f61098f366004612a7d565b6116d0565b3480156109a057600080fd5b5061033f6109af366004612ac1565b6001600160a01b039182166000908152600b6020908152604080832093909416825291909152205460ff1690565b3480156109e957600080fd5b506103746109f8366004612b16565b611719565b348015610a0957600080fd5b50600e546103dc90630100000090046001600160a01b031681565b348015610a3057600080fd5b50601354610a4e9060ff81169061010090046001600160a01b031682565b6040805192151583526001600160a01b0390911660208301520161034b565b348015610a7957600080fd5b50610374610a88366004612630565b611872565b348015610a9957600080fd5b50610374610aa83660046125ed565b6118e8565b348015610ab957600080fd5b50600e5461033f9060ff1681565b6000610ad2826118f5565b80610ae15750610ae182611943565b92915050565b610aef611978565b610af982826119d2565b5050565b606060068054610b0c90612b83565b80601f0160208091040260200160405190810160405280929190818152602001828054610b3890612b83565b8015610b855780601f10610b5a57610100808354040283529160200191610b85565b820191906000526020600020905b815481529060010190602001808311610b6857829003601f168201915b5050505050905090565b6000610b9a82611a8c565b610bb7576040516333d1c03960e21b815260040160405180910390fd5b506000908152600a60205260409020546001600160a01b031690565b81600e5460ff1615610be857610be881611ac1565b600e54610100900460ff1615610c1157604051630b95754760e31b815260040160405180910390fd5b610c1b8383611b05565b505050565b6003546001600160a01b03163314610c535760405162461bcd60e51b8152600401610c4a90612bbd565b60405180910390fd5b610c5c81611872565b50565b610c67611978565b604080518082019091526013805460ff811615158084526001600160a01b039490941660209093018390526001600160a81b031916610100600160a81b031990931692909217610100909102179055565b600083815260106020908152604091829020825160a081018452905463ffffffff8082168352640100000000820416928201929092526001600160401b03600160401b8304811693820193909352600160801b820483166060820152600160c01b9091049091166080820152600f5484141580610d3a5750805163ffffffff16155b80610d4b5750805163ffffffff1642105b80610d605750806020015163ffffffff164210155b15610d7e57604051639546a99360e01b815260040160405180910390fd5b60018403610dd857610d908233611603565b1515600114610dd35760405162461bcd60e51b815260206004820152600f60248201526e24b73b30b634b21036b4b73a32b91760891b6044820152606401610c4a565b610e2d565b60028403610e2d57610dea82336116d0565b1515600114610e2d5760405162461bcd60e51b815260206004820152600f60248201526e24b73b30b634b21036b4b73a32b91760891b6044820152606401610c4a565b60008481526011602090815260408083203384529091529020546060820151610e609082906001600160401b0316612c20565b8461ffff161115610e8457604051630236501f60e61b815260040160405180910390fd5b60008581526012602052604090205460808301516001600160401b039182169116610eb38261ffff8816612c33565b6001600160401b03161115610edb5760405163b45a22f960e01b815260040160405180910390fd5b7f00000000000000000000000000000000000000000000000000000000000000008561ffff16610f0e6004546000190190565b610f189190612c5a565b1115610f3757604051634c9c5c3360e11b815260040160405180910390fd5b60008561ffff1684604001516001600160401b0316610f569190612c6d565b905080341015610f795760405163356680b760e01b815260040160405180910390fd5b6000878152601160209081526040808320338452825280832061ffff8a168781019091558a84526012909252909120805467ffffffffffffffff19169184016001600160401b03169190911790556001600160a01b037f000000000000000000000000000000000000000000000000000000000000000016610ffd57610ffd612c84565b60007f00000000000000000000000000000000000000000000000000000000000000006001600160a01b03164760405160006040518083038185875af1925050503d806000811461106a576040519150601f19603f3d011682016040523d82523d6000602084013e61106f565b606091505b505090508061109157604051631d42c86760e21b815260040160405180910390fd5b61109f338861ffff16611ba5565b60405188815261ffff88169033907f0b3fa6d1ad76d7cf2bed405eb629252cc4f3dfe6a400576cf13f39d60bcc3ed69060200160405180910390a35050505050505050565b60006110ee611978565b50600d819055805b919050565b826001600160a01b038116331461112057600e5460ff16156111205761112033611ac1565b61112b848484611c8c565b50505050565b60008281526001602090815260408083208151808301909252546001600160a01b038116808352600160a01b9091046001600160601b03169282019290925282916111a65750604080518082019091526000546001600160a01b0381168252600160a01b90046001600160601b031660208201525b6020810151600090612710906111c5906001600160601b031687612c6d565b6111cf9190612c9a565b915196919550909350505050565b6003546001600160a01b031633146112075760405162461bcd60e51b8152600401610c4a90612bbd565b600380546001600160a01b0319166001600160a01b0392909216919091179055565b611231611978565b60007f00000000000000000000000000000000000000000000000000000000000000006001600160a01b03164760405160006040518083038185875af1925050503d806000811461129e576040519150601f19603f3d011682016040523d82523d6000602084013e6112a3565b606091505b5050905080610c5c57604051631d42c86760e21b815260040160405180910390fd5b610c1b838383604051806020016040528060008152506115bf565b6112e8611978565b600e54630100000090046001600160a01b031661131857604051630e048e7160e41b815260040160405180910390fd5b600e8054911515620100000262ff000019909216919091179055565b6040805180820190915260135460ff811615158083526101009091046001600160a01b031660208301526060919061137f57604051630871f9a360e21b815260040160405180910390fd5b6113c3338585808060200260200160405190810160405280939291908181526020018383602002808284376000920191909152505050602085015160019150611e2a565b949350505050565b6113d3611978565b6014610c1b828483612d02565b6113e8611978565b610c1b838383611ee2565b6000610ae182611fad565b60006001600160a01b038216611427576040516323d3ad8160e21b815260040160405180910390fd5b506001600160a01b03166000908152600960205260409020546001600160401b031690565b611454611978565b61145e600061201c565b565b611468611978565b6040805180820190915260135460ff81161515825261010090046001600160a01b0316602082018190526114af57604051638b0277bb60e01b815260040160405180910390fd5b6040805180820190915260018082526020928301516001600160a01b031692909101829052601380546001600160a81b03191661010090930292909217179055565b6114f9611978565b600e805461ff0019169055565b6000611510611978565b50600c81905590565b606060078054610b0c90612b83565b81600e5460ff161561153d5761153d81611ac1565b600e54610100900460ff161561156657604051630b95754760e31b815260040160405180910390fd5b610c1b838361206e565b611578611978565b600e80546001600160a01b039092166301000000026301000000600160b81b0319909216919091179055565b6115ac611978565b600e805460ff1916911515919091179055565b6115ca8484846110fb565b6001600160a01b0383163b1561112b576115e6848484846120da565b61112b576040516368d2bf6b60e11b815260040160405180910390fd5b6040516bffffffffffffffffffffffff19606083901b16602082015260009081906034016040516020818303038152906040528051906020012090506113c384600c54836121c2565b606061165782611a8c565b61167457604051630a14c4b560e41b815260040160405180910390fd5b600061167e6121d8565b9050805160000361169e57604051806020016040528060008152506116c9565b806116a8846121e7565b6040516020016116b9929190612dc2565b6040516020818303038152906040525b9392505050565b6040516bffffffffffffffffffffffff19606083901b16602082015260009081906034016040516020818303038152906040528051906020012090506113c384600d54836121c2565b611721611978565b63ffffffff85161580611738575063ffffffff8416155b8061174a57506001600160401b038316155b1561176857604051638531df0f60e01b815260040160405180910390fd5b8363ffffffff168563ffffffff161061179457604051638531df0f60e01b815260040160405180910390fd5b6040805160a08101825263ffffffff968716815294861660208087019182526001600160401b0395861687840190815294861660608801908152938616608088019081526000998a526010909152919097209451855497519351925191518516600160c01b026001600160c01b03928616600160801b0267ffffffffffffffff60801b1994909616600160401b029390931677ffffffffffffffffffffffffffffffff0000000000000000199488166401000000000267ffffffffffffffff1990991691909716179690961791909116939093171792909216179055565b61187a611978565b6001600160a01b0381166118df5760405162461bcd60e51b815260206004820152602660248201527f4f776e61626c653a206e6577206f776e657220697320746865207a65726f206160448201526564647265737360d01b6064820152608401610c4a565b610c5c8161201c565b6118f0611978565b600f55565b60006301ffc9a760e01b6001600160e01b03198316148061192657506380ac58cd60e01b6001600160e01b03198316145b80610ae15750506001600160e01b031916635b5e139f60e01b1490565b60006001600160e01b0319821663152a902d60e11b1480610ae157506301ffc9a760e01b6001600160e01b0319831614610ae1565b6002546001600160a01b0316331461145e5760405162461bcd60e51b815260206004820181905260248201527f4f776e61626c653a2063616c6c6572206973206e6f7420746865206f776e65726044820152606401610c4a565b6127106001600160601b03821611156119fd5760405162461bcd60e51b8152600401610c4a90612df1565b6001600160a01b038216611a535760405162461bcd60e51b815260206004820152601960248201527f455243323938313a20696e76616c6964207265636569766572000000000000006044820152606401610c4a565b604080518082019091526001600160a01b039092168083526001600160601b039091166020909201829052600160a01b90910217600055565b600081600111158015611aa0575060045482105b8015610ae1575050600090815260086020526040902054600160e01b161590565b69c617113400112233445560005230601a5280603a52600080604460166daaeb6d7670e522a718067333cd4e5afa611afd573d6000803e3d6000fd5b6000603a5250565b6000611b10826113f3565b9050336001600160a01b03821614611b4957611b2c81336109af565b611b49576040516367d9dca160e11b815260040160405180910390fd5b6000828152600a602052604080822080546001600160a01b0319166001600160a01b0387811691821790925591518593918516917f8c5be1e5ebec7d5bd14f71427d1e84f3dd0314c0f7b2291e5b200ac8c7c3b92591a4505050565b6004546000829003611bca5760405163b562e8dd60e01b815260040160405180910390fd5b611bd7600084838561222b565b6001600160a01b03831660008181526009602090815260408083208054680100000000000000018802019055848352600890915281206001851460e11b4260a01b17831790558284019083908390600080516020612f968339815191528180a4600183015b818114611c625780836000600080516020612f96833981519152600080a4600101611c3c565b5081600003611c8357604051622e076360e81b815260040160405180910390fd5b60045550505050565b6000611c9782611fad565b9050836001600160a01b0316816001600160a01b031614611cca5760405162a1148160e81b815260040160405180910390fd5b6000828152600a602052604090208054611cf68187335b6001600160a01b039081169116811491141790565b611d2157611d0486336109af565b611d2157604051632ce44b5f60e11b815260040160405180910390fd5b6001600160a01b038516611d4857604051633a954ecd60e21b815260040160405180910390fd5b611d55868686600161222b565b8015611d6057600082555b6001600160a01b038681166000908152600960205260408082208054600019019055918716808252919020805460010190554260a01b17600160e11b17600085815260086020526040812091909155600160e11b84169003611df257600184016000818152600860205260408120549003611df0576004548114611df05760008181526008602052604090208490555b505b83856001600160a01b0316876001600160a01b0316600080516020612f9683398151915260405160405180910390a45b505050505050565b606060005b8451811015611e6357611e5b858281518110611e4d57611e4d612e3b565b6020026020010151856122a2565b600101611e2f565b50604051635fb4271b60e01b81526001600160a01b03831690635fb4271b90611e929088908890600401612e51565b6000604051808303816000875af1158015611eb1573d6000803e3d6000fd5b505050506040513d6000823e601f3d908101601f19168201604052611ed99190810190612e75565b95945050505050565b6127106001600160601b0382161115611f0d5760405162461bcd60e51b8152600401610c4a90612df1565b6001600160a01b038216611f635760405162461bcd60e51b815260206004820152601b60248201527f455243323938313a20496e76616c696420706172616d657465727300000000006044820152606401610c4a565b6040805180820182526001600160a01b0393841681526001600160601b0392831660208083019182526000968752600190529190942093519051909116600160a01b029116179055565b60008180600111612003576004548110156120035760008181526008602052604081205490600160e01b82169003612001575b806000036116c9575060001901600081815260086020526040902054611fe0565b505b604051636f96cda160e11b815260040160405180910390fd5b600280546001600160a01b038381166001600160a01b0319831681179093556040519116919082907f8be0079c531659141344cd1fd0a4f28419497f9722a3daafe3b4186f6b6457e090600090a35050565b336000818152600b602090815260408083206001600160a01b03871680855290835292819020805460ff191686151590811790915590519081529192917f17307eab39ab6107e8899845ad3d59bd9653f200f220920489ca2b5937696c31910160405180910390a35050565b604051630a85bd0160e11b81526000906001600160a01b0385169063150b7a029061210f903390899088908890600401612f05565b6020604051808303816000875af192505050801561214a575060408051601f3d908101601f1916820190925261214791810190612f42565b60015b6121a8573d808015612178576040519150601f19603f3d011682016040523d82523d6000602084013e61217d565b606091505b5080516000036121a0576040516368d2bf6b60e11b815260040160405180910390fd5b805181602001fd5b6001600160e01b031916630a85bd0160e11b1490506113c3565b6000826121cf85846123e9565b14949350505050565b606060148054610b0c90612b83565b606060a06040510180604052602081039150506000815280825b600183039250600a81066030018353600a9004806122015750819003601f19909101908152919050565b600e54610100900460ff16801561224a57506001600160a01b03841615155b801561225e57506001600160a01b03831615155b1561227c57604051630b95754760e31b815260040160405180910390fd5b61228533612436565b61112b576040516326406c5f60e11b815260040160405180910390fd5b60006122ad83611fad565b9050806000806122cb866000908152600a6020526040902080549091565b91509150841561230b576122e0818433611ce1565b61230b576122ee83336109af565b61230b57604051632ce44b5f60e11b815260040160405180910390fd5b61231983600088600161222b565b801561232457600082555b6001600160a01b038316600081815260096020526040902080546fffffffffffffffffffffffffffffffff0190554260a01b17600360e01b17600087815260086020526040812091909155600160e11b851690036123b2576001860160008181526008602052604081205490036123b05760045481146123b05760008181526008602052604090208590555b505b60405186906000906001600160a01b03861690600080516020612f96833981519152908390a4505060058054600101905550505050565b600081815b845181101561242e5761241a8286838151811061240d5761240d612e3b565b60200260200101516124ca565b91508061242681612f5f565b9150506123ee565b509392505050565b600e5460009062010000900460ff16156124c257600e546040516370c5e04560e11b81526001600160a01b038481166004830152630100000090920490911690819063e18bc08a90602401602060405180830381865afa15801561249e573d6000803e3d6000fd5b505050506040513d601f19601f820116820180604052508101906116c99190612f78565b506001919050565b60008183106124e65760008281526020849052604090206116c9565b5060009182526020526040902090565b6001600160e01b031981168114610c5c57600080fd5b60006020828403121561251e57600080fd5b81356116c9816124f6565b80356001600160a01b03811681146110f657600080fd5b80356001600160601b03811681146110f657600080fd5b6000806040838503121561256a57600080fd5b61257383612529565b915061258160208401612540565b90509250929050565b60005b838110156125a557818101518382015260200161258d565b50506000910152565b600081518084526125c681602086016020860161258a565b601f01601f19169290920160200192915050565b6020815260006116c960208301846125ae565b6000602082840312156125ff57600080fd5b5035919050565b6000806040838503121561261957600080fd5b61262283612529565b946020939093013593505050565b60006020828403121561264257600080fd5b6116c982612529565b6000806040838503121561265e57600080fd5b8235915061258160208401612529565b634e487b7160e01b600052604160045260246000fd5b604051601f8201601f191681016001600160401b03811182821017156126ac576126ac61266e565b604052919050565b60006001600160401b038211156126cd576126cd61266e565b5060051b60200190565b600082601f8301126126e857600080fd5b813560206126fd6126f8836126b4565b612684565b82815260059290921b8401810191818101908684111561271c57600080fd5b8286015b848110156127375780358352918301918301612720565b509695505050505050565b60008060006060848603121561275757600080fd5b83359250602084013561ffff8116811461277057600080fd5b915060408401356001600160401b0381111561278b57600080fd5b612797868287016126d7565b9150509250925092565b6000806000606084860312156127b657600080fd5b6127bf84612529565b92506127cd60208501612529565b9150604084013590509250925092565b600080604083850312156127f057600080fd5b50508035926020909101359150565b8015158114610c5c57600080fd5b60006020828403121561281f57600080fd5b81356116c9816127ff565b6000806020838503121561283d57600080fd5b82356001600160401b038082111561285457600080fd5b818501915085601f83011261286857600080fd5b81358181111561287757600080fd5b8660208260051b850101111561288c57600080fd5b60209290920196919550909350505050565b600081518084526020808501945080840160005b838110156128ce578151875295820195908201906001016128b2565b509495945050505050565b6020815260006116c9602083018461289e565b600080602083850312156128ff57600080fd5b82356001600160401b038082111561291657600080fd5b818501915085601f83011261292a57600080fd5b81358181111561293957600080fd5b86602082850101111561288c57600080fd5b60008060006060848603121561296057600080fd5b8335925061297060208501612529565b915061297e60408501612540565b90509250925092565b6000806040838503121561299a57600080fd5b6129a383612529565b915060208301356129b3816127ff565b809150509250929050565b600080600080608085870312156129d457600080fd5b6129dd85612529565b935060206129ec818701612529565b93506040860135925060608601356001600160401b0380821115612a0f57600080fd5b818801915088601f830112612a2357600080fd5b813581811115612a3557612a3561266e565b612a47601f8201601f19168501612684565b91508082528984828501011115612a5d57600080fd5b808484018584013760008482840101525080935050505092959194509250565b60008060408385031215612a9057600080fd5b82356001600160401b03811115612aa657600080fd5b612ab2858286016126d7565b92505061258160208401612529565b60008060408385031215612ad457600080fd5b612add83612529565b915061258160208401612529565b803563ffffffff811681146110f657600080fd5b80356001600160401b03811681146110f657600080fd5b60008060008060008060c08789031215612b2f57600080fd5b86359550612b3f60208801612aeb565b9450612b4d60408801612aeb565b9350612b5b60608801612aff565b9250612b6960808801612aff565b9150612b7760a08801612aff565b90509295509295509295565b600181811c90821680612b9757607f821691505b602082108103612bb757634e487b7160e01b600052602260045260246000fd5b50919050565b6020808252602d908201527f4d756c74697369674f776e61626c653a2063616c6c6572206973206e6f74207460408201526c3432903932b0b61037bbb732b960991b606082015260800190565b634e487b7160e01b600052601160045260246000fd5b81810381811115610ae157610ae1612c0a565b6001600160401b03818116838216019080821115612c5357612c53612c0a565b5092915050565b80820180821115610ae157610ae1612c0a565b8082028115828204841417610ae157610ae1612c0a565b634e487b7160e01b600052600160045260246000fd5b600082612cb757634e487b7160e01b600052601260045260246000fd5b500490565b601f821115610c1b57600081815260208120601f850160051c81016020861015612ce35750805b601f850160051c820191505b81811015611e2257828155600101612cef565b6001600160401b03831115612d1957612d1961266e565b612d2d83612d278354612b83565b83612cbc565b6000601f841160018114612d615760008515612d495750838201355b600019600387901b1c1916600186901b178355612dbb565b600083815260209020601f19861690835b82811015612d925786850135825560209485019460019092019101612d72565b5086821015612daf5760001960f88860031b161c19848701351681555b505060018560011b0183555b5050505050565b60008351612dd481846020880161258a565b835190830190612de881836020880161258a565b01949350505050565b6020808252602a908201527f455243323938313a20726f79616c7479206665652077696c6c206578636565646040820152692073616c65507269636560b01b606082015260800190565b634e487b7160e01b600052603260045260246000fd5b6001600160a01b03831681526040602082018190526000906113c39083018461289e565b60006020808385031215612e8857600080fd5b82516001600160401b03811115612e9e57600080fd5b8301601f81018513612eaf57600080fd5b8051612ebd6126f8826126b4565b81815260059190911b82018301908381019087831115612edc57600080fd5b928401925b82841015612efa57835182529284019290840190612ee1565b979650505050505050565b6001600160a01b0385811682528416602082015260408101839052608060608201819052600090612f38908301846125ae565b9695505050505050565b600060208284031215612f5457600080fd5b81516116c9816124f6565b600060018201612f7157612f71612c0a565b5060010190565b600060208284031215612f8a57600080fd5b81516116c9816127ff56feddf252ad1be2c89b69c2b068fc378daa952ba7f163c4a11628f55a4df523b3efa264697066735822122047ae1731246bb11b4dbd2177283133607c6756fa6a3ddccb632e9b2819e24a2964736f6c63430008120033",
  "devdoc": {
    "events": {
      "Approval(address,address,uint256)": {
        "details": "Emitted when `owner` enables `approved` to manage the `tokenId` token."
      },
      "ApprovalForAll(address,address,bool)": {
        "details": "Emitted when `owner` enables or disables (`approved`) `operator` to manage all of its assets."
      },
      "ConsecutiveTransfer(uint256,uint256,address,address)": {
        "details": "Emitted when tokens in `fromTokenId` to `toTokenId` (inclusive) is transferred from `from` to `to`, as defined in the [ERC2309](https://eips.ethereum.org/EIPS/eip-2309) standard. See {_mintERC2309} for more details."
      },
      "Transfer(address,address,uint256)": {
        "details": "Emitted when `tokenId` token is transferred from `from` to `to`."
      }
    },
    "kind": "dev",
    "methods": {
      "balanceOf(address)": {
        "details": "Returns the number of tokens in `owner`'s account."
      },
      "getApproved(uint256)": {
        "details": "Returns the account approved for `tokenId` token. Requirements: - `tokenId` must exist."
      },
      "isApprovedForAll(address,address)": {
        "details": "Returns if the `operator` is allowed to manage all of the assets of `owner`. See {setApprovalForAll}."
      },
      "name()": {
        "details": "Returns the token collection name."
      },
      "owner()": {
        "details": "Returns the address of the current owner."
      },
      "ownerOf(uint256)": {
        "details": "Returns the owner of the `tokenId` token. Requirements: - `tokenId` must exist."
      },
      "renounceOwnership()": {
        "details": "Leaves the contract without owner. It will not be possible to call `onlyOwner` functions. Can only be called by the current owner. NOTE: Renouncing ownership will leave the contract without an owner, thereby disabling any functionality that is only available to the owner."
      },
      "royaltyInfo(uint256,uint256)": {
        "details": "Returns how much royalty is owed and to whom, based on a sale price that may be denominated in any unit of exchange. The royalty amount is denominated and should be paid in that same unit of exchange."
      },
      "safeTransferFrom(address,address,uint256)": {
        "details": "Equivalent to `safeTransferFrom(from, to, tokenId, '')`."
      },
      "safeTransferFrom(address,address,uint256,bytes)": {
        "details": "Safely transfers `tokenId` token from `from` to `to`. Requirements: - `from` cannot be the zero address. - `to` cannot be the zero address. - `tokenId` token must exist and be owned by `from`. - If the caller is not `from`, it must be approved to move this token by either {approve} or {setApprovalForAll}. - If `to` refers to a smart contract, it must implement {IERC721Receiver-onERC721Received}, which is called upon a safe transfer. Emits a {Transfer} event."
      },
      "setApprovalForAll(address,bool)": {
        "details": "Approve or remove `operator` as an operator for the caller. Operators can call {transferFrom} or {safeTransferFrom} for any token owned by the caller. Requirements: - The `operator` cannot be the caller. Emits an {ApprovalForAll} event."
      },
      "symbol()": {
        "details": "Returns the token collection symbol."
      },
      "tokenURI(uint256)": {
        "details": "Returns the Uniform Resource Identifier (URI) for `tokenId` token."
      },
      "totalSupply()": {
        "details": "Returns the total number of tokens in existence. Burned tokens will reduce the count. To get the total number of tokens minted, please see {_totalMinted}."
      },
      "transferFrom(address,address,uint256)": {
        "details": "Transfers `tokenId` from `from` to `to`. Requirements: - `from` cannot be the zero address. - `to` cannot be the zero address. - `tokenId` token must be owned by `from`. - If the caller is not `from`, it must be approved to move this token by either {approve} or {setApprovalForAll}. Emits a {Transfer} event."
      },
      "transferOwnership(address)": {
        "details": "Transfers ownership of the contract to a new account (`newOwner`). Can only be called by the current owner."
      }
    },
    "version": 1
  },
  "userdoc": {
    "errors": {
      "ApprovalCallerNotOwnerNorApproved()": [
        {
          "notice": "The caller must own the token or be an approved operator."
        }
      ],
      "ApprovalQueryForNonexistentToken()": [
        {
          "notice": "The token does not exist."
        }
      ],
      "BalanceQueryForZeroAddress()": [
        {
          "notice": "Cannot query the balance for the zero address."
        }
      ],
      "MintERC2309QuantityExceedsLimit()": [
        {
          "notice": "The `quantity` minted with ERC2309 exceeds the safety limit."
        }
      ],
      "MintToZeroAddress()": [
        {
          "notice": "Cannot mint to the zero address."
        }
      ],
      "MintZeroQuantity()": [
        {
          "notice": "The quantity of tokens minted must be more than zero."
        }
      ],
      "OwnerQueryForNonexistentToken()": [
        {
          "notice": "The token does not exist."
        }
      ],
      "OwnershipNotInitializedForExtraData()": [
        {
          "notice": "The `extraData` cannot be set on an unintialized ownership slot."
        }
      ],
      "TransferCallerNotOwnerNorApproved()": [
        {
          "notice": "The caller must own the token or be an approved operator."
        }
      ],
      "TransferFromIncorrectOwner()": [
        {
          "notice": "The token must be owned by `from`."
        }
      ],
      "TransferToNonERC721ReceiverImplementer()": [
        {
          "notice": "Cannot safely transfer to a contract that does not implement the ERC721Receiver interface."
        }
      ],
      "TransferToZeroAddress()": [
        {
          "notice": "Cannot transfer to the zero address."
        }
      ],
      "URIQueryForNonexistentToken()": [
        {
          "notice": "The token does not exist."
        }
      ]
    },
    "kind": "user",
    "methods": {},
    "version": 1
  },
  "storageLayout": {
    "storage": [
      {
        "astId": 148,
        "contract": "contracts/SpheraKitBag.sol:SpheraKitBag",
        "label": "_defaultRoyaltyInfo",
        "offset": 0,
        "slot": "0",
        "type": "t_struct(RoyaltyInfo)145_storage"
      },
      {
        "astId": 153,
        "contract": "contracts/SpheraKitBag.sol:SpheraKitBag",
        "label": "_tokenRoyaltyInfo",
        "offset": 0,
        "slot": "1",
        "type": "t_mapping(t_uint256,t_struct(RoyaltyInfo)145_storage)"
      },
      {
        "astId": 7,
        "contract": "contracts/SpheraKitBag.sol:SpheraKitBag",
        "label": "_owner",
        "offset": 0,
        "slot": "2",
        "type": "t_address"
      },
      {
        "astId": 2496,
        "contract": "contracts/SpheraKitBag.sol:SpheraKitBag",
        "label": "realOwner",
        "offset": 0,
        "slot": "3",
        "type": "t_address"
      },
      {
        "astId": 3718,
        "contract": "contracts/SpheraKitBag.sol:SpheraKitBag",
        "label": "_currentIndex",
        "offset": 0,
        "slot": "4",
        "type": "t_uint256"
      },
      {
        "astId": 3720,
        "contract": "contracts/SpheraKitBag.sol:SpheraKitBag",
        "label": "_burnCounter",
        "offset": 0,
        "slot": "5",
        "type": "t_uint256"
      },
      {
        "astId": 3722,
        "contract": "contracts/SpheraKitBag.sol:SpheraKitBag",
        "label": "_name",
        "offset": 0,
        "slot": "6",
        "type": "t_string_storage"
      },
      {
        "astId": 3724,
        "contract": "contracts/SpheraKitBag.sol:SpheraKitBag",
        "label": "_symbol",
        "offset": 0,
        "slot": "7",
        "type": "t_string_storage"
      },
      {
        "astId": 3728,
        "contract": "contracts/SpheraKitBag.sol:SpheraKitBag",
        "label": "_packedOwnerships",
        "offset": 0,
        "slot": "8",
        "type": "t_mapping(t_uint256,t_uint256)"
      },
      {
        "astId": 3732,
        "contract": "contracts/SpheraKitBag.sol:SpheraKitBag",
        "label": "_packedAddressData",
        "offset": 0,
        "slot": "9",
        "type": "t_mapping(t_address,t_uint256)"
      },
      {
        "astId": 3737,
        "contract": "contracts/SpheraKitBag.sol:SpheraKitBag",
        "label": "_tokenApprovals",
        "offset": 0,
        "slot": "10",
        "type": "t_mapping(t_uint256,t_struct(TokenApprovalRef)3650_storage)"
      },
      {
        "astId": 3743,
        "contract": "contracts/SpheraKitBag.sol:SpheraKitBag",
        "label": "_operatorApprovals",
        "offset": 0,
        "slot": "11",
        "type": "t_mapping(t_address,t_mapping(t_address,t_bool))"
      },
      {
        "astId": 3429,
        "contract": "contracts/SpheraKitBag.sol:SpheraKitBag",
        "label": "gtdMerkleRoot",
        "offset": 0,
        "slot": "12",
        "type": "t_bytes32"
      },
      {
        "astId": 3431,
        "contract": "contracts/SpheraKitBag.sol:SpheraKitBag",
        "label": "fcfsMerkleRoot",
        "offset": 0,
        "slot": "13",
        "type": "t_bytes32"
      },
      {
        "astId": 2615,
        "contract": "contracts/SpheraKitBag.sol:SpheraKitBag",
        "label": "operatorFilteringEnabled",
        "offset": 0,
        "slot": "14",
        "type": "t_bool"
      },
      {
        "astId": 2618,
        "contract": "contracts/SpheraKitBag.sol:SpheraKitBag",
        "label": "initialTransferLockOn",
        "offset": 1,
        "slot": "14",
        "type": "t_bool"
      },
      {
        "astId": 2621,
        "contract": "contracts/SpheraKitBag.sol:SpheraKitBag",
        "label": "isRegistryActive",
        "offset": 2,
        "slot": "14",
        "type": "t_bool"
      },
      {
        "astId": 2623,
        "contract": "contracts/SpheraKitBag.sol:SpheraKitBag",
        "label": "registryAddress",
        "offset": 3,
        "slot": "14",
        "type": "t_address"
      },
      {
        "astId": 2647,
        "contract": "contracts/SpheraKitBag.sol:SpheraKitBag",
        "label": "currentPeriod",
        "offset": 0,
        "slot": "15",
        "type": "t_uint256"
      },
      {
        "astId": 2652,
        "contract": "contracts/SpheraKitBag.sol:SpheraKitBag",
        "label": "periodInfo",
        "offset": 0,
        "slot": "16",
        "type": "t_mapping(t_uint256,t_struct(PeriodInfo)2645_storage)"
      },
      {
        "astId": 2658,
        "contract": "contracts/SpheraKitBag.sol:SpheraKitBag",
        "label": "individualMintedInPeriod",
        "offset": 0,
        "slot": "17",
        "type": "t_mapping(t_uint256,t_mapping(t_address,t_uint256))"
      },
      {
        "astId": 2662,
        "contract": "contracts/SpheraKitBag.sol:SpheraKitBag",
        "label": "totalMintedInPeriod",
        "offset": 0,
        "slot": "18",
        "type": "t_mapping(t_uint256,t_uint64)"
      },
      {
        "astId": 2670,
        "contract": "contracts/SpheraKitBag.sol:SpheraKitBag",
        "label": "redeemInfo",
        "offset": 0,
        "slot": "19",
        "type": "t_struct(RedeemInfo)2667_storage"
      },
      {
        "astId": 2672,
        "contract": "contracts/SpheraKitBag.sol:SpheraKitBag",
        "label": "_baseTokenURI",
        "offset": 0,
        "slot": "20",
        "type": "t_string_storage"
      }
    ],
    "types": {
      "t_address": {
        "encoding": "inplace",
        "label": "address",
        "numberOfBytes": "20"
      },
      "t_bool": {
        "encoding": "inplace",
        "label": "bool",
        "numberOfBytes": "1"
      },
      "t_bytes32": {
        "encoding": "inplace",
        "label": "bytes32",
        "numberOfBytes": "32"
      },
      "t_mapping(t_address,t_bool)": {
        "encoding": "mapping",
        "key": "t_address",
        "label": "mapping(address => bool)",
        "numberOfBytes": "32",
        "value": "t_bool"
      },
      "t_mapping(t_address,t_mapping(t_address,t_bool))": {
        "encoding": "mapping",
        "key": "t_address",
        "label": "mapping(address => mapping(address => bool))",
        "numberOfBytes": "32",
        "value": "t_mapping(t_address,t_bool)"
      },
      "t_mapping(t_address,t_uint256)": {
        "encoding": "mapping",
        "key": "t_address",
        "label": "mapping(address => uint256)",
        "numberOfBytes": "32",
        "value": "t_uint256"
      },
      "t_mapping(t_uint256,t_mapping(t_address,t_uint256))": {
        "encoding": "mapping",
        "key": "t_uint256",
        "label": "mapping(uint256 => mapping(address => uint256))",
        "numberOfBytes": "32",
        "value": "t_mapping(t_address,t_uint256)"
      },
      "t_mapping(t_uint256,t_struct(PeriodInfo)2645_storage)": {
        "encoding": "mapping",
        "key": "t_uint256",
        "label": "mapping(uint256 => struct SpheraKitBag.PeriodInfo)",
        "numberOfBytes": "32",
        "value": "t_struct(PeriodInfo)2645_storage"
      },
      "t_mapping(t_uint256,t_struct(RoyaltyInfo)145_storage)": {
        "encoding": "mapping",
        "key": "t_uint256",
        "label": "mapping(uint256 => struct ERC2981.RoyaltyInfo)",
        "numberOfBytes": "32",
        "value": "t_struct(RoyaltyInfo)145_storage"
      },
      "t_mapping(t_uint256,t_struct(TokenApprovalRef)3650_storage)": {
        "encoding": "mapping",
        "key": "t_uint256",
        "label": "mapping(uint256 => struct ERC721A.TokenApprovalRef)",
        "numberOfBytes": "32",
        "value": "t_struct(TokenApprovalRef)3650_storage"
      },
      "t_mapping(t_uint256,t_uint256)": {
        "encoding": "mapping",
        "key": "t_uint256",
        "label": "mapping(uint256 => uint256)",
        "numberOfBytes": "32",
        "value": "t_uint256"
      },
      "t_mapping(t_uint256,t_uint64)": {
        "encoding": "mapping",
        "key": "t_uint256",
        "label": "mapping(uint256 => uint64)",
        "numberOfBytes": "32",
        "value": "t_uint64"
      },
      "t_string_storage": {
        "encoding": "bytes",
        "label": "string",
        "numberOfBytes": "32"
      },
      "t_struct(PeriodInfo)2645_storage": {
        "encoding": "inplace",
        "label": "struct SpheraKitBag.PeriodInfo",
        "members": [
          {
            "astId": 2636,
            "contract": "contracts/SpheraKitBag.sol:SpheraKitBag",
            "label": "startTime",
            "offset": 0,
            "slot": "0",
            "type": "t_uint32"
          },
          {
            "astId": 2638,
            "contract": "contracts/SpheraKitBag.sol:SpheraKitBag",
            "label": "endTime",
            "offset": 4,
            "slot": "0",
            "type": "t_uint32"
          },
          {
            "astId": 2640,
            "contract": "contracts/SpheraKitBag.sol:SpheraKitBag",
            "label": "price",
            "offset": 8,
            "slot": "0",
            "type": "t_uint64"
          },
          {
            "astId": 2642,
            "contract": "contracts/SpheraKitBag.sol:SpheraKitBag",
            "label": "MAX_MINT_ALLOWED",
            "offset": 16,
            "slot": "0",
            "type": "t_uint64"
          },
          {
            "astId": 2644,
            "contract": "contracts/SpheraKitBag.sol:SpheraKitBag",
            "label": "MAX_SUPPLY",
            "offset": 24,
            "slot": "0",
            "type": "t_uint64"
          }
        ],
        "numberOfBytes": "32"
      },
      "t_struct(RedeemInfo)2667_storage": {
        "encoding": "inplace",
        "label": "struct SpheraKitBag.RedeemInfo",
        "members": [
          {
            "astId": 2664,
            "contract": "contracts/SpheraKitBag.sol:SpheraKitBag",
            "label": "redeemBagOpen",
            "offset": 0,
            "slot": "0",
            "type": "t_bool"
          },
          {
            "astId": 2666,
            "contract": "contracts/SpheraKitBag.sol:SpheraKitBag",
            "label": "BagRedeemer",
            "offset": 1,
            "slot": "0",
            "type": "t_address"
          }
        ],
        "numberOfBytes": "32"
      },
      "t_struct(RoyaltyInfo)145_storage": {
        "encoding": "inplace",
        "label": "struct ERC2981.RoyaltyInfo",
        "members": [
          {
            "astId": 142,
            "contract": "contracts/SpheraKitBag.sol:SpheraKitBag",
            "label": "receiver",
            "offset": 0,
            "slot": "0",
            "type": "t_address"
          },
          {
            "astId": 144,
            "contract": "contracts/SpheraKitBag.sol:SpheraKitBag",
            "label": "royaltyFraction",
            "offset": 20,
            "slot": "0",
            "type": "t_uint96"
          }
        ],
        "numberOfBytes": "32"
      },
      "t_struct(TokenApprovalRef)3650_storage": {
        "encoding": "inplace",
        "label": "struct ERC721A.TokenApprovalRef",
        "members": [
          {
            "astId": 3649,
            "contract": "contracts/SpheraKitBag.sol:SpheraKitBag",
            "label": "value",
            "offset": 0,
            "slot": "0",
            "type": "t_address"
          }
        ],
        "numberOfBytes": "32"
      },
      "t_uint256": {
        "encoding": "inplace",
        "label": "uint256",
        "numberOfBytes": "32"
      },
      "t_uint32": {
        "encoding": "inplace",
        "label": "uint32",
        "numberOfBytes": "4"
      },
      "t_uint64": {
        "encoding": "inplace",
        "label": "uint64",
        "numberOfBytes": "8"
      },
      "t_uint96": {
        "encoding": "inplace",
        "label": "uint96",
        "numberOfBytes": "12"
      }
    }
  }
}