{
  "address": "0xc92504C930e1a8cAea8c4F25087423D26b1C929a",
  "abi": [
    {
      "inputs": [
        {
          "internalType": "uint256",
          "name": "_maxSupply",
          "type": "uint256"
        },
        {
          "internalType": "address payable",
          "name": "_withdrawAddress",
          "type": "address"
        },
        {
          "internalType": "uint256",
          "name": "_minGasToStore",
          "type": "uint256"
        },
        {
          "internalType": "address",
          "name": "_lzEndpoint",
          "type": "address"
        }
      ],
      "stateMutability": "nonpayable",
      "type": "constructor"
    },
    {
      "inputs": [],
      "name": "ApprovalCallerNotOwnerNorApproved",
      "type": "error"
    },
    {
      "inputs": [],
      "name": "ApprovalQueryForNonexistentToken",
      "type": "error"
    },
    {
      "inputs": [],
      "name": "BagRedeemerNotSet",
      "type": "error"
    },
    {
      "inputs": [],
      "name": "BalanceQueryForZeroAddress",
      "type": "error"
    },
    {
      "inputs": [],
      "name": "InitialTransferLockOn",
      "type": "error"
    },
    {
      "inputs": [],
      "name": "InsufficientFunds",
      "type": "error"
    },
    {
      "inputs": [],
      "name": "InvalidPeriodSetup",
      "type": "error"
    },
    {
      "inputs": [],
      "name": "MaxPeriodMintSupplyReached",
      "type": "error"
    },
    {
      "inputs": [],
      "name": "MintERC2309QuantityExceedsLimit",
      "type": "error"
    },
    {
      "inputs": [],
      "name": "MintToZeroAddress",
      "type": "error"
    },
    {
      "inputs": [],
      "name": "MintZeroQuantity",
      "type": "error"
    },
    {
      "inputs": [],
      "name": "MintingTooMuchInPeriod",
      "type": "error"
    },
    {
      "inputs": [],
      "name": "NotAllowedByRegistry",
      "type": "error"
    },
    {
      "inputs": [],
      "name": "OverMaxSupply",
      "type": "error"
    },
    {
      "inputs": [],
      "name": "OwnerQueryForNonexistentToken",
      "type": "error"
    },
    {
      "inputs": [],
      "name": "OwnershipNotInitializedForExtraData",
      "type": "error"
    },
    {
      "inputs": [],
      "name": "PeriodNotOpen",
      "type": "error"
    },
    {
      "inputs": [],
      "name": "RedeemBagNotOpen",
      "type": "error"
    },
    {
      "inputs": [],
      "name": "RegistryNotSet",
      "type": "error"
    },
    {
      "inputs": [],
      "name": "TransferCallerNotOwnerNorApproved",
      "type": "error"
    },
    {
      "inputs": [],
      "name": "TransferFromIncorrectOwner",
      "type": "error"
    },
    {
      "inputs": [],
      "name": "TransferToNonERC721ReceiverImplementer",
      "type": "error"
    },
    {
      "inputs": [],
      "name": "TransferToZeroAddress",
      "type": "error"
    },
    {
      "inputs": [],
      "name": "URIQueryForNonexistentToken",
      "type": "error"
    },
    {
      "inputs": [],
      "name": "WithdrawFailed",
      "type": "error"
    },
    {
      "anonymous": false,
      "inputs": [
        {
          "indexed": true,
          "internalType": "address",
          "name": "owner",
          "type": "address"
        },
        {
          "indexed": true,
          "internalType": "address",
          "name": "approved",
          "type": "address"
        },
        {
          "indexed": true,
          "internalType": "uint256",
          "name": "tokenId",
          "type": "uint256"
        }
      ],
      "name": "Approval",
      "type": "event"
    },
    {
      "anonymous": false,
      "inputs": [
        {
          "indexed": true,
          "internalType": "address",
          "name": "owner",
          "type": "address"
        },
        {
          "indexed": true,
          "internalType": "address",
          "name": "operator",
          "type": "address"
        },
        {
          "indexed": false,
          "internalType": "bool",
          "name": "approved",
          "type": "bool"
        }
      ],
      "name": "ApprovalForAll",
      "type": "event"
    },
    {
      "anonymous": false,
      "inputs": [
        {
          "indexed": true,
          "internalType": "uint256",
          "name": "fromTokenId",
          "type": "uint256"
        },
        {
          "indexed": false,
          "internalType": "uint256",
          "name": "toTokenId",
          "type": "uint256"
        },
        {
          "indexed": true,
          "internalType": "address",
          "name": "from",
          "type": "address"
        },
        {
          "indexed": true,
          "internalType": "address",
          "name": "to",
          "type": "address"
        }
      ],
      "name": "ConsecutiveTransfer",
      "type": "event"
    },
    {
      "anonymous": false,
      "inputs": [
        {
          "indexed": false,
          "internalType": "bytes32",
          "name": "_hashedPayload",
          "type": "bytes32"
        }
      ],
      "name": "CreditCleared",
      "type": "event"
    },
    {
      "anonymous": false,
      "inputs": [
        {
          "indexed": false,
          "internalType": "bytes32",
          "name": "_hashedPayload",
          "type": "bytes32"
        },
        {
          "indexed": false,
          "internalType": "bytes",
          "name": "_payload",
          "type": "bytes"
        }
      ],
      "name": "CreditStored",
      "type": "event"
    },
    {
      "anonymous": false,
      "inputs": [
        {
          "indexed": false,
          "internalType": "uint16",
          "name": "_srcChainId",
          "type": "uint16"
        },
        {
          "indexed": false,
          "internalType": "bytes",
          "name": "_srcAddress",
          "type": "bytes"
        },
        {
          "indexed": false,
          "internalType": "uint64",
          "name": "_nonce",
          "type": "uint64"
        },
        {
          "indexed": false,
          "internalType": "bytes",
          "name": "_payload",
          "type": "bytes"
        },
        {
          "indexed": false,
          "internalType": "bytes",
          "name": "_reason",
          "type": "bytes"
        }
      ],
      "name": "MessageFailed",
      "type": "event"
    },
    {
      "anonymous": false,
      "inputs": [
        {
          "indexed": true,
          "internalType": "address",
          "name": "previousOwner",
          "type": "address"
        },
        {
          "indexed": true,
          "internalType": "address",
          "name": "newOwner",
          "type": "address"
        }
      ],
      "name": "OwnershipTransferred",
      "type": "event"
    },
    {
      "anonymous": false,
      "inputs": [
        {
          "indexed": true,
          "internalType": "address",
          "name": "minter",
          "type": "address"
        },
        {
          "indexed": false,
          "internalType": "uint256",
          "name": "period",
          "type": "uint256"
        },
        {
          "indexed": true,
          "internalType": "uint16",
          "name": "amount",
          "type": "uint16"
        }
      ],
      "name": "PeriodMint",
      "type": "event"
    },
    {
      "anonymous": false,
      "inputs": [
        {
          "indexed": true,
          "internalType": "uint16",
          "name": "_srcChainId",
          "type": "uint16"
        },
        {
          "indexed": true,
          "internalType": "bytes",
          "name": "_srcAddress",
          "type": "bytes"
        },
        {
          "indexed": true,
          "internalType": "address",
          "name": "_toAddress",
          "type": "address"
        },
        {
          "indexed": false,
          "internalType": "uint256[]",
          "name": "_tokenIds",
          "type": "uint256[]"
        }
      ],
      "name": "ReceiveFromChain",
      "type": "event"
    },
    {
      "anonymous": false,
      "inputs": [
        {
          "indexed": false,
          "internalType": "uint16",
          "name": "_srcChainId",
          "type": "uint16"
        },
        {
          "indexed": false,
          "internalType": "bytes",
          "name": "_srcAddress",
          "type": "bytes"
        },
        {
          "indexed": false,
          "internalType": "uint64",
          "name": "_nonce",
          "type": "uint64"
        },
        {
          "indexed": false,
          "internalType": "bytes32",
          "name": "_payloadHash",
          "type": "bytes32"
        }
      ],
      "name": "RetryMessageSuccess",
      "type": "event"
    },
    {
      "anonymous": false,
      "inputs": [
        {
          "indexed": true,
          "internalType": "uint16",
          "name": "_dstChainId",
          "type": "uint16"
        },
        {
          "indexed": true,
          "internalType": "address",
          "name": "_from",
          "type": "address"
        },
        {
          "indexed": true,
          "internalType": "bytes",
          "name": "_toAddress",
          "type": "bytes"
        },
        {
          "indexed": false,
          "internalType": "uint256[]",
          "name": "_tokenIds",
          "type": "uint256[]"
        }
      ],
      "name": "SendToChain",
      "type": "event"
    },
    {
      "anonymous": false,
      "inputs": [
        {
          "indexed": false,
          "internalType": "uint16",
          "name": "_dstChainId",
          "type": "uint16"
        },
        {
          "indexed": false,
          "internalType": "uint256",
          "name": "_dstChainIdToBatchLimit",
          "type": "uint256"
        }
      ],
      "name": "SetDstChainIdToBatchLimit",
      "type": "event"
    },
    {
      "anonymous": false,
      "inputs": [
        {
          "indexed": false,
          "internalType": "uint16",
          "name": "_dstChainId",
          "type": "uint16"
        },
        {
          "indexed": false,
          "internalType": "uint256",
          "name": "_dstChainIdToTransferGas",
          "type": "uint256"
        }
      ],
      "name": "SetDstChainIdToTransferGas",
      "type": "event"
    },
    {
      "anonymous": false,
      "inputs": [
        {
          "indexed": false,
          "internalType": "uint16",
          "name": "_dstChainId",
          "type": "uint16"
        },
        {
          "indexed": false,
          "internalType": "uint16",
          "name": "_type",
          "type": "uint16"
        },
        {
          "indexed": false,
          "internalType": "uint256",
          "name": "_minDstGas",
          "type": "uint256"
        }
      ],
      "name": "SetMinDstGas",
      "type": "event"
    },
    {
      "anonymous": false,
      "inputs": [
        {
          "indexed": false,
          "internalType": "uint256",
          "name": "_minGasToTransferAndStore",
          "type": "uint256"
        }
      ],
      "name": "SetMinGasToTransferAndStore",
      "type": "event"
    },
    {
      "anonymous": false,
      "inputs": [
        {
          "indexed": false,
          "internalType": "address",
          "name": "precrime",
          "type": "address"
        }
      ],
      "name": "SetPrecrime",
      "type": "event"
    },
    {
      "anonymous": false,
      "inputs": [
        {
          "indexed": false,
          "internalType": "uint16",
          "name": "_remoteChainId",
          "type": "uint16"
        },
        {
          "indexed": false,
          "internalType": "bytes",
          "name": "_path",
          "type": "bytes"
        }
      ],
      "name": "SetTrustedRemote",
      "type": "event"
    },
    {
      "anonymous": false,
      "inputs": [
        {
          "indexed": false,
          "internalType": "uint16",
          "name": "_remoteChainId",
          "type": "uint16"
        },
        {
          "indexed": false,
          "internalType": "bytes",
          "name": "_remoteAddress",
          "type": "bytes"
        }
      ],
      "name": "SetTrustedRemoteAddress",
      "type": "event"
    },
    {
      "anonymous": false,
      "inputs": [
        {
          "indexed": true,
          "internalType": "address",
          "name": "from",
          "type": "address"
        },
        {
          "indexed": true,
          "internalType": "address",
          "name": "to",
          "type": "address"
        },
        {
          "indexed": true,
          "internalType": "uint256",
          "name": "tokenId",
          "type": "uint256"
        }
      ],
      "name": "Transfer",
      "type": "event"
    },
    {
      "inputs": [],
      "name": "DEFAULT_PAYLOAD_SIZE_LIMIT",
      "outputs": [
        {
          "internalType": "uint256",
          "name": "",
          "type": "uint256"
        }
      ],
      "stateMutability": "view",
      "type": "function"
    },
    {
      "inputs": [],
      "name": "FCFS_PERIOD",
      "outputs": [
        {
          "internalType": "uint256",
          "name": "",
          "type": "uint256"
        }
      ],
      "stateMutability": "view",
      "type": "function"
    },
    {
      "inputs": [],
      "name": "FUNCTION_TYPE_SEND",
      "outputs": [
        {
          "internalType": "uint16",
          "name": "",
          "type": "uint16"
        }
      ],
      "stateMutability": "view",
      "type": "function"
    },
    {
      "inputs": [],
      "name": "GTD_PERIOD",
      "outputs": [
        {
          "internalType": "uint256",
          "name": "",
          "type": "uint256"
        }
      ],
      "stateMutability": "view",
      "type": "function"
    },
    {
      "inputs": [],
      "name": "MAX_SUPPLY",
      "outputs": [
        {
          "internalType": "uint256",
          "name": "",
          "type": "uint256"
        }
      ],
      "stateMutability": "view",
      "type": "function"
    },
    {
      "inputs": [],
      "name": "PUBLIC_PERIOD",
      "outputs": [
        {
          "internalType": "uint256",
          "name": "",
          "type": "uint256"
        }
      ],
      "stateMutability": "view",
      "type": "function"
    },
    {
      "inputs": [],
      "name": "WITHDRAW_ADDRESS",
      "outputs": [
        {
          "internalType": "address payable",
          "name": "",
          "type": "address"
        }
      ],
      "stateMutability": "view",
      "type": "function"
    },
    {
      "inputs": [
        {
          "internalType": "address",
          "name": "operator",
          "type": "address"
        },
        {
          "internalType": "uint256",
          "name": "tokenId",
          "type": "uint256"
        }
      ],
      "name": "approve",
      "outputs": [],
      "stateMutability": "payable",
      "type": "function"
    },
    {
      "inputs": [
        {
          "internalType": "address",
          "name": "owner",
          "type": "address"
        }
      ],
      "name": "balanceOf",
      "outputs": [
        {
          "internalType": "uint256",
          "name": "",
          "type": "uint256"
        }
      ],
      "stateMutability": "view",
      "type": "function"
    },
    {
      "inputs": [],
      "name": "breakTransferLock",
      "outputs": [],
      "stateMutability": "nonpayable",
      "type": "function"
    },
    {
      "inputs": [
        {
          "internalType": "bytes",
          "name": "_payload",
          "type": "bytes"
        }
      ],
      "name": "clearCredits",
      "outputs": [],
      "stateMutability": "nonpayable",
      "type": "function"
    },
    {
      "inputs": [],
      "name": "currentPeriod",
      "outputs": [
        {
          "internalType": "uint256",
          "name": "",
          "type": "uint256"
        }
      ],
      "stateMutability": "view",
      "type": "function"
    },
    {
      "inputs": [
        {
          "internalType": "uint16",
          "name": "",
          "type": "uint16"
        }
      ],
      "name": "dstChainIdToBatchLimit",
      "outputs": [
        {
          "internalType": "uint256",
          "name": "",
          "type": "uint256"
        }
      ],
      "stateMutability": "view",
      "type": "function"
    },
    {
      "inputs": [
        {
          "internalType": "uint16",
          "name": "",
          "type": "uint16"
        }
      ],
      "name": "dstChainIdToTransferGas",
      "outputs": [
        {
          "internalType": "uint256",
          "name": "",
          "type": "uint256"
        }
      ],
      "stateMutability": "view",
      "type": "function"
    },
    {
      "inputs": [
        {
          "internalType": "uint16",
          "name": "_dstChainId",
          "type": "uint16"
        },
        {
          "internalType": "bytes",
          "name": "_toAddress",
          "type": "bytes"
        },
        {
          "internalType": "uint256[]",
          "name": "_tokenIds",
          "type": "uint256[]"
        },
        {
          "internalType": "bool",
          "name": "_useZro",
          "type": "bool"
        },
        {
          "internalType": "bytes",
          "name": "_adapterParams",
          "type": "bytes"
        }
      ],
      "name": "estimateSendBatchFee",
      "outputs": [
        {
          "internalType": "uint256",
          "name": "nativeFee",
          "type": "uint256"
        },
        {
          "internalType": "uint256",
          "name": "zroFee",
          "type": "uint256"
        }
      ],
      "stateMutability": "view",
      "type": "function"
    },
    {
      "inputs": [
        {
          "internalType": "uint16",
          "name": "_dstChainId",
          "type": "uint16"
        },
        {
          "internalType": "bytes",
          "name": "_toAddress",
          "type": "bytes"
        },
        {
          "internalType": "uint256",
          "name": "_tokenId",
          "type": "uint256"
        },
        {
          "internalType": "bool",
          "name": "_useZro",
          "type": "bool"
        },
        {
          "internalType": "bytes",
          "name": "_adapterParams",
          "type": "bytes"
        }
      ],
      "name": "estimateSendFee",
      "outputs": [
        {
          "internalType": "uint256",
          "name": "nativeFee",
          "type": "uint256"
        },
        {
          "internalType": "uint256",
          "name": "zroFee",
          "type": "uint256"
        }
      ],
      "stateMutability": "view",
      "type": "function"
    },
    {
      "inputs": [
        {
          "internalType": "uint16",
          "name": "",
          "type": "uint16"
        },
        {
          "internalType": "bytes",
          "name": "",
          "type": "bytes"
        },
        {
          "internalType": "uint64",
          "name": "",
          "type": "uint64"
        }
      ],
      "name": "failedMessages",
      "outputs": [
        {
          "internalType": "bytes32",
          "name": "",
          "type": "bytes32"
        }
      ],
      "stateMutability": "view",
      "type": "function"
    },
    {
      "inputs": [
        {
          "internalType": "bytes32[]",
          "name": "_merkleProof",
          "type": "bytes32[]"
        },
        {
          "internalType": "address",
          "name": "addr",
          "type": "address"
        }
      ],
      "name": "fcfs_validateAddress",
      "outputs": [
        {
          "internalType": "bool",
          "name": "",
          "type": "bool"
        }
      ],
      "stateMutability": "view",
      "type": "function"
    },
    {
      "inputs": [
        {
          "internalType": "uint16",
          "name": "_srcChainId",
          "type": "uint16"
        },
        {
          "internalType": "bytes",
          "name": "_srcAddress",
          "type": "bytes"
        }
      ],
      "name": "forceResumeReceive",
      "outputs": [],
      "stateMutability": "nonpayable",
      "type": "function"
    },
    {
      "inputs": [
        {
          "internalType": "uint256",
          "name": "tokenId",
          "type": "uint256"
        }
      ],
      "name": "getApproved",
      "outputs": [
        {
          "internalType": "address",
          "name": "",
          "type": "address"
        }
      ],
      "stateMutability": "view",
      "type": "function"
    },
    {
      "inputs": [
        {
          "internalType": "uint16",
          "name": "_version",
          "type": "uint16"
        },
        {
          "internalType": "uint16",
          "name": "_chainId",
          "type": "uint16"
        },
        {
          "internalType": "address",
          "name": "",
          "type": "address"
        },
        {
          "internalType": "uint256",
          "name": "_configType",
          "type": "uint256"
        }
      ],
      "name": "getConfig",
      "outputs": [
        {
          "internalType": "bytes",
          "name": "",
          "type": "bytes"
        }
      ],
      "stateMutability": "view",
      "type": "function"
    },
    {
      "inputs": [
        {
          "internalType": "uint16",
          "name": "_remoteChainId",
          "type": "uint16"
        }
      ],
      "name": "getTrustedRemoteAddress",
      "outputs": [
        {
          "internalType": "bytes",
          "name": "",
          "type": "bytes"
        }
      ],
      "stateMutability": "view",
      "type": "function"
    },
    {
      "inputs": [
        {
          "internalType": "bytes32[]",
          "name": "_merkleProof",
          "type": "bytes32[]"
        },
        {
          "internalType": "address",
          "name": "addr",
          "type": "address"
        }
      ],
      "name": "gtd_validateAddress",
      "outputs": [
        {
          "internalType": "bool",
          "name": "",
          "type": "bool"
        }
      ],
      "stateMutability": "view",
      "type": "function"
    },
    {
      "inputs": [
        {
          "internalType": "uint256",
          "name": "",
          "type": "uint256"
        },
        {
          "internalType": "address",
          "name": "",
          "type": "address"
        }
      ],
      "name": "individualMintedInPeriod",
      "outputs": [
        {
          "internalType": "uint256",
          "name": "",
          "type": "uint256"
        }
      ],
      "stateMutability": "view",
      "type": "function"
    },
    {
      "inputs": [],
      "name": "initialTransferLockOn",
      "outputs": [
        {
          "internalType": "bool",
          "name": "",
          "type": "bool"
        }
      ],
      "stateMutability": "view",
      "type": "function"
    },
    {
      "inputs": [
        {
          "internalType": "address",
          "name": "owner",
          "type": "address"
        },
        {
          "internalType": "address",
          "name": "operator",
          "type": "address"
        }
      ],
      "name": "isApprovedForAll",
      "outputs": [
        {
          "internalType": "bool",
          "name": "",
          "type": "bool"
        }
      ],
      "stateMutability": "view",
      "type": "function"
    },
    {
      "inputs": [],
      "name": "isRegistryActive",
      "outputs": [
        {
          "internalType": "bool",
          "name": "",
          "type": "bool"
        }
      ],
      "stateMutability": "view",
      "type": "function"
    },
    {
      "inputs": [
        {
          "internalType": "uint16",
          "name": "_srcChainId",
          "type": "uint16"
        },
        {
          "internalType": "bytes",
          "name": "_srcAddress",
          "type": "bytes"
        }
      ],
      "name": "isTrustedRemote",
      "outputs": [
        {
          "internalType": "bool",
          "name": "",
          "type": "bool"
        }
      ],
      "stateMutability": "view",
      "type": "function"
    },
    {
      "inputs": [],
      "name": "lzEndpoint",
      "outputs": [
        {
          "internalType": "contract ILayerZeroEndpoint",
          "name": "",
          "type": "address"
        }
      ],
      "stateMutability": "view",
      "type": "function"
    },
    {
      "inputs": [
        {
          "internalType": "uint16",
          "name": "_srcChainId",
          "type": "uint16"
        },
        {
          "internalType": "bytes",
          "name": "_srcAddress",
          "type": "bytes"
        },
        {
          "internalType": "uint64",
          "name": "_nonce",
          "type": "uint64"
        },
        {
          "internalType": "bytes",
          "name": "_payload",
          "type": "bytes"
        }
      ],
      "name": "lzReceive",
      "outputs": [],
      "stateMutability": "nonpayable",
      "type": "function"
    },
    {
      "inputs": [
        {
          "internalType": "uint16",
          "name": "",
          "type": "uint16"
        },
        {
          "internalType": "uint16",
          "name": "",
          "type": "uint16"
        }
      ],
      "name": "minDstGasLookup",
      "outputs": [
        {
          "internalType": "uint256",
          "name": "",
          "type": "uint256"
        }
      ],
      "stateMutability": "view",
      "type": "function"
    },
    {
      "inputs": [],
      "name": "minGasToTransferAndStore",
      "outputs": [
        {
          "internalType": "uint256",
          "name": "",
          "type": "uint256"
        }
      ],
      "stateMutability": "view",
      "type": "function"
    },
    {
      "inputs": [],
      "name": "name",
      "outputs": [
        {
          "internalType": "string",
          "name": "",
          "type": "string"
        }
      ],
      "stateMutability": "view",
      "type": "function"
    },
    {
      "inputs": [
        {
          "internalType": "uint16",
          "name": "_srcChainId",
          "type": "uint16"
        },
        {
          "internalType": "bytes",
          "name": "_srcAddress",
          "type": "bytes"
        },
        {
          "internalType": "uint64",
          "name": "_nonce",
          "type": "uint64"
        },
        {
          "internalType": "bytes",
          "name": "_payload",
          "type": "bytes"
        }
      ],
      "name": "nonblockingLzReceive",
      "outputs": [],
      "stateMutability": "nonpayable",
      "type": "function"
    },
    {
      "inputs": [
        {
          "internalType": "address",
          "name": "",
          "type": "address"
        },
        {
          "internalType": "address",
          "name": "",
          "type": "address"
        },
        {
          "internalType": "uint256",
          "name": "",
          "type": "uint256"
        },
        {
          "internalType": "bytes",
          "name": "",
          "type": "bytes"
        }
      ],
      "name": "onERC721Received",
      "outputs": [
        {
          "internalType": "bytes4",
          "name": "",
          "type": "bytes4"
        }
      ],
      "stateMutability": "nonpayable",
      "type": "function"
    },
    {
      "inputs": [
        {
          "internalType": "uint256",
          "name": "_period",
          "type": "uint256"
        }
      ],
      "name": "openPeriod",
      "outputs": [],
      "stateMutability": "nonpayable",
      "type": "function"
    },
    {
      "inputs": [],
      "name": "openRedeemBagState",
      "outputs": [],
      "stateMutability": "nonpayable",
      "type": "function"
    },
    {
      "inputs": [],
      "name": "operatorFilteringEnabled",
      "outputs": [
        {
          "internalType": "bool",
          "name": "",
          "type": "bool"
        }
      ],
      "stateMutability": "view",
      "type": "function"
    },
    {
      "inputs": [],
      "name": "owner",
      "outputs": [
        {
          "internalType": "address",
          "name": "",
          "type": "address"
        }
      ],
      "stateMutability": "view",
      "type": "function"
    },
    {
      "inputs": [
        {
          "internalType": "uint256",
          "name": "tokenId",
          "type": "uint256"
        }
      ],
      "name": "ownerOf",
      "outputs": [
        {
          "internalType": "address",
          "name": "",
          "type": "address"
        }
      ],
      "stateMutability": "view",
      "type": "function"
    },
    {
      "inputs": [
        {
          "internalType": "uint16",
          "name": "",
          "type": "uint16"
        }
      ],
      "name": "payloadSizeLimitLookup",
      "outputs": [
        {
          "internalType": "uint256",
          "name": "",
          "type": "uint256"
        }
      ],
      "stateMutability": "view",
      "type": "function"
    },
    {
      "inputs": [
        {
          "internalType": "uint256",
          "name": "",
          "type": "uint256"
        }
      ],
      "name": "periodInfo",
      "outputs": [
        {
          "internalType": "uint32",
          "name": "startTime",
          "type": "uint32"
        },
        {
          "internalType": "uint32",
          "name": "endTime",
          "type": "uint32"
        },
        {
          "internalType": "uint64",
          "name": "price",
          "type": "uint64"
        },
        {
          "internalType": "uint64",
          "name": "MAX_MINT_ALLOWED",
          "type": "uint64"
        },
        {
          "internalType": "uint64",
          "name": "MAX_SUPPLY",
          "type": "uint64"
        }
      ],
      "stateMutability": "view",
      "type": "function"
    },
    {
      "inputs": [
        {
          "internalType": "uint256",
          "name": "_period",
          "type": "uint256"
        },
        {
          "internalType": "uint16",
          "name": "amount",
          "type": "uint16"
        },
        {
          "internalType": "bytes32[]",
          "name": "proof",
          "type": "bytes32[]"
        }
      ],
      "name": "periodMint",
      "outputs": [],
      "stateMutability": "payable",
      "type": "function"
    },
    {
      "inputs": [],
      "name": "precrime",
      "outputs": [
        {
          "internalType": "address",
          "name": "",
          "type": "address"
        }
      ],
      "stateMutability": "view",
      "type": "function"
    },
    {
      "inputs": [],
      "name": "realOwner",
      "outputs": [
        {
          "internalType": "address",
          "name": "",
          "type": "address"
        }
      ],
      "stateMutability": "view",
      "type": "function"
    },
    {
      "inputs": [
        {
          "internalType": "uint256[]",
          "name": "BagIds",
          "type": "uint256[]"
        }
      ],
      "name": "redeemBags",
      "outputs": [
        {
          "internalType": "uint256[]",
          "name": "",
          "type": "uint256[]"
        }
      ],
      "stateMutability": "nonpayable",
      "type": "function"
    },
    {
      "inputs": [],
      "name": "redeemInfo",
      "outputs": [
        {
          "internalType": "bool",
          "name": "redeemBagOpen",
          "type": "bool"
        },
        {
          "internalType": "address",
          "name": "BagRedeemer",
          "type": "address"
        }
      ],
      "stateMutability": "view",
      "type": "function"
    },
    {
      "inputs": [],
      "name": "registryAddress",
      "outputs": [
        {
          "internalType": "address",
          "name": "",
          "type": "address"
        }
      ],
      "stateMutability": "view",
      "type": "function"
    },
    {
      "inputs": [],
      "name": "renounceOwnership",
      "outputs": [],
      "stateMutability": "nonpayable",
      "type": "function"
    },
    {
      "inputs": [
        {
          "internalType": "uint16",
          "name": "_srcChainId",
          "type": "uint16"
        },
        {
          "internalType": "bytes",
          "name": "_srcAddress",
          "type": "bytes"
        },
        {
          "internalType": "uint64",
          "name": "_nonce",
          "type": "uint64"
        },
        {
          "internalType": "bytes",
          "name": "_payload",
          "type": "bytes"
        }
      ],
      "name": "retryMessage",
      "outputs": [],
      "stateMutability": "payable",
      "type": "function"
    },
    {
      "inputs": [
        {
          "internalType": "uint256",
          "name": "tokenId",
          "type": "uint256"
        },
        {
          "internalType": "uint256",
          "name": "salePrice",
          "type": "uint256"
        }
      ],
      "name": "royaltyInfo",
      "outputs": [
        {
          "internalType": "address",
          "name": "",
          "type": "address"
        },
        {
          "internalType": "uint256",
          "name": "",
          "type": "uint256"
        }
      ],
      "stateMutability": "view",
      "type": "function"
    },
    {
      "inputs": [
        {
          "internalType": "address",
          "name": "from",
          "type": "address"
        },
        {
          "internalType": "address",
          "name": "to",
          "type": "address"
        },
        {
          "internalType": "uint256",
          "name": "tokenId",
          "type": "uint256"
        }
      ],
      "name": "safeTransferFrom",
      "outputs": [],
      "stateMutability": "payable",
      "type": "function"
    },
    {
      "inputs": [
        {
          "internalType": "address",
          "name": "from",
          "type": "address"
        },
        {
          "internalType": "address",
          "name": "to",
          "type": "address"
        },
        {
          "internalType": "uint256",
          "name": "tokenId",
          "type": "uint256"
        },
        {
          "internalType": "bytes",
          "name": "_data",
          "type": "bytes"
        }
      ],
      "name": "safeTransferFrom",
      "outputs": [],
      "stateMutability": "payable",
      "type": "function"
    },
    {
      "inputs": [
        {
          "internalType": "address",
          "name": "_from",
          "type": "address"
        },
        {
          "internalType": "uint16",
          "name": "_dstChainId",
          "type": "uint16"
        },
        {
          "internalType": "bytes",
          "name": "_toAddress",
          "type": "bytes"
        },
        {
          "internalType": "uint256[]",
          "name": "_tokenIds",
          "type": "uint256[]"
        },
        {
          "internalType": "address payable",
          "name": "_refundAddress",
          "type": "address"
        },
        {
          "internalType": "address",
          "name": "_zroPaymentAddress",
          "type": "address"
        },
        {
          "internalType": "bytes",
          "name": "_adapterParams",
          "type": "bytes"
        }
      ],
      "name": "sendBatchFrom",
      "outputs": [],
      "stateMutability": "payable",
      "type": "function"
    },
    {
      "inputs": [
        {
          "internalType": "address",
          "name": "_from",
          "type": "address"
        },
        {
          "internalType": "uint16",
          "name": "_dstChainId",
          "type": "uint16"
        },
        {
          "internalType": "bytes",
          "name": "_toAddress",
          "type": "bytes"
        },
        {
          "internalType": "uint256",
          "name": "_tokenId",
          "type": "uint256"
        },
        {
          "internalType": "address payable",
          "name": "_refundAddress",
          "type": "address"
        },
        {
          "internalType": "address",
          "name": "_zroPaymentAddress",
          "type": "address"
        },
        {
          "internalType": "bytes",
          "name": "_adapterParams",
          "type": "bytes"
        }
      ],
      "name": "sendFrom",
      "outputs": [],
      "stateMutability": "payable",
      "type": "function"
    },
    {
      "inputs": [
        {
          "internalType": "address",
          "name": "operator",
          "type": "address"
        },
        {
          "internalType": "bool",
          "name": "approved",
          "type": "bool"
        }
      ],
      "name": "setApprovalForAll",
      "outputs": [],
      "stateMutability": "nonpayable",
      "type": "function"
    },
    {
      "inputs": [
        {
          "internalType": "address",
          "name": "contractAddress",
          "type": "address"
        }
      ],
      "name": "setBagRedeemer",
      "outputs": [],
      "stateMutability": "nonpayable",
      "type": "function"
    },
    {
      "inputs": [
        {
          "internalType": "string",
          "name": "baseURI",
          "type": "string"
        }
      ],
      "name": "setBaseURI",
      "outputs": [],
      "stateMutability": "nonpayable",
      "type": "function"
    },
    {
      "inputs": [
        {
          "internalType": "uint16",
          "name": "_version",
          "type": "uint16"
        },
        {
          "internalType": "uint16",
          "name": "_chainId",
          "type": "uint16"
        },
        {
          "internalType": "uint256",
          "name": "_configType",
          "type": "uint256"
        },
        {
          "internalType": "bytes",
          "name": "_config",
          "type": "bytes"
        }
      ],
      "name": "setConfig",
      "outputs": [],
      "stateMutability": "nonpayable",
      "type": "function"
    },
    {
      "inputs": [
        {
          "internalType": "address",
          "name": "receiver",
          "type": "address"
        },
        {
          "internalType": "uint96",
          "name": "feeNumerator",
          "type": "uint96"
        }
      ],
      "name": "setDefaultRoyalty",
      "outputs": [],
      "stateMutability": "nonpayable",
      "type": "function"
    },
    {
      "inputs": [
        {
          "internalType": "uint16",
          "name": "_dstChainId",
          "type": "uint16"
        },
        {
          "internalType": "uint256",
          "name": "_dstChainIdToBatchLimit",
          "type": "uint256"
        }
      ],
      "name": "setDstChainIdToBatchLimit",
      "outputs": [],
      "stateMutability": "nonpayable",
      "type": "function"
    },
    {
      "inputs": [
        {
          "internalType": "uint16",
          "name": "_dstChainId",
          "type": "uint16"
        },
        {
          "internalType": "uint256",
          "name": "_dstChainIdToTransferGas",
          "type": "uint256"
        }
      ],
      "name": "setDstChainIdToTransferGas",
      "outputs": [],
      "stateMutability": "nonpayable",
      "type": "function"
    },
    {
      "inputs": [
        {
          "internalType": "bytes32",
          "name": "_fcfsMerkleRoot",
          "type": "bytes32"
        }
      ],
      "name": "setFcfsMerkleRoot",
      "outputs": [
        {
          "internalType": "bytes32",
          "name": "",
          "type": "bytes32"
        }
      ],
      "stateMutability": "nonpayable",
      "type": "function"
    },
    {
      "inputs": [
        {
          "internalType": "bytes32",
          "name": "_gtdMerkleRoot",
          "type": "bytes32"
        }
      ],
      "name": "setGtdMerkleRoot",
      "outputs": [
        {
          "internalType": "bytes32",
          "name": "",
          "type": "bytes32"
        }
      ],
      "stateMutability": "nonpayable",
      "type": "function"
    },
    {
      "inputs": [
        {
          "internalType": "bool",
          "name": "_isRegistryActive",
          "type": "bool"
        }
      ],
      "name": "setIsRegistryActive",
      "outputs": [],
      "stateMutability": "nonpayable",
      "type": "function"
    },
    {
      "inputs": [
        {
          "internalType": "uint16",
          "name": "_dstChainId",
          "type": "uint16"
        },
        {
          "internalType": "uint16",
          "name": "_packetType",
          "type": "uint16"
        },
        {
          "internalType": "uint256",
          "name": "_minGas",
          "type": "uint256"
        }
      ],
      "name": "setMinDstGas",
      "outputs": [],
      "stateMutability": "nonpayable",
      "type": "function"
    },
    {
      "inputs": [
        {
          "internalType": "uint256",
          "name": "_minGasToTransferAndStore",
          "type": "uint256"
        }
      ],
      "name": "setMinGasToTransferAndStore",
      "outputs": [],
      "stateMutability": "nonpayable",
      "type": "function"
    },
    {
      "inputs": [
        {
          "internalType": "bool",
          "name": "value",
          "type": "bool"
        }
      ],
      "name": "setOperatorFilteringEnabled",
      "outputs": [],
      "stateMutability": "nonpayable",
      "type": "function"
    },
    {
      "inputs": [
        {
          "internalType": "uint16",
          "name": "_dstChainId",
          "type": "uint16"
        },
        {
          "internalType": "uint256",
          "name": "_size",
          "type": "uint256"
        }
      ],
      "name": "setPayloadSizeLimit",
      "outputs": [],
      "stateMutability": "nonpayable",
      "type": "function"
    },
    {
      "inputs": [
        {
          "internalType": "uint256",
          "name": "_period",
          "type": "uint256"
        },
        {
          "internalType": "uint32",
          "name": "_startTime",
          "type": "uint32"
        },
        {
          "internalType": "uint32",
          "name": "_endTime",
          "type": "uint32"
        },
        {
          "internalType": "uint64",
          "name": "_price",
          "type": "uint64"
        },
        {
          "internalType": "uint64",
          "name": "_MAX_MINT_ALLOWED",
          "type": "uint64"
        },
        {
          "internalType": "uint64",
          "name": "_MAX_SUPPLY",
          "type": "uint64"
        }
      ],
      "name": "setPeriodParams",
      "outputs": [],
      "stateMutability": "nonpayable",
      "type": "function"
    },
    {
      "inputs": [
        {
          "internalType": "address",
          "name": "_precrime",
          "type": "address"
        }
      ],
      "name": "setPrecrime",
      "outputs": [],
      "stateMutability": "nonpayable",
      "type": "function"
    },
    {
      "inputs": [
        {
          "internalType": "uint16",
          "name": "_version",
          "type": "uint16"
        }
      ],
      "name": "setReceiveVersion",
      "outputs": [],
      "stateMutability": "nonpayable",
      "type": "function"
    },
    {
      "inputs": [
        {
          "internalType": "address",
          "name": "_registryAddress",
          "type": "address"
        }
      ],
      "name": "setRegistryAddress",
      "outputs": [],
      "stateMutability": "nonpayable",
      "type": "function"
    },
    {
      "inputs": [
        {
          "internalType": "uint16",
          "name": "_version",
          "type": "uint16"
        }
      ],
      "name": "setSendVersion",
      "outputs": [],
      "stateMutability": "nonpayable",
      "type": "function"
    },
    {
      "inputs": [
        {
          "internalType": "uint256",
          "name": "tokenId",
          "type": "uint256"
        },
        {
          "internalType": "address",
          "name": "receiver",
          "type": "address"
        },
        {
          "internalType": "uint96",
          "name": "feeNumerator",
          "type": "uint96"
        }
      ],
      "name": "setTokenRoyalty",
      "outputs": [],
      "stateMutability": "nonpayable",
      "type": "function"
    },
    {
      "inputs": [
        {
          "internalType": "uint16",
          "name": "_remoteChainId",
          "type": "uint16"
        },
        {
          "internalType": "bytes",
          "name": "_path",
          "type": "bytes"
        }
      ],
      "name": "setTrustedRemote",
      "outputs": [],
      "stateMutability": "nonpayable",
      "type": "function"
    },
    {
      "inputs": [
        {
          "internalType": "uint16",
          "name": "_remoteChainId",
          "type": "uint16"
        },
        {
          "internalType": "bytes",
          "name": "_remoteAddress",
          "type": "bytes"
        }
      ],
      "name": "setTrustedRemoteAddress",
      "outputs": [],
      "stateMutability": "nonpayable",
      "type": "function"
    },
    {
      "inputs": [
        {
          "internalType": "bytes32",
          "name": "",
          "type": "bytes32"
        }
      ],
      "name": "storedCredits",
      "outputs": [
        {
          "internalType": "uint16",
          "name": "srcChainId",
          "type": "uint16"
        },
        {
          "internalType": "address",
          "name": "toAddress",
          "type": "address"
        },
        {
          "internalType": "uint256",
          "name": "index",
          "type": "uint256"
        },
        {
          "internalType": "bool",
          "name": "creditsRemain",
          "type": "bool"
        }
      ],
      "stateMutability": "view",
      "type": "function"
    },
    {
      "inputs": [
        {
          "internalType": "bytes4",
          "name": "interfaceId",
          "type": "bytes4"
        }
      ],
      "name": "supportsInterface",
      "outputs": [
        {
          "internalType": "bool",
          "name": "",
          "type": "bool"
        }
      ],
      "stateMutability": "view",
      "type": "function"
    },
    {
      "inputs": [],
      "name": "symbol",
      "outputs": [
        {
          "internalType": "string",
          "name": "",
          "type": "string"
        }
      ],
      "stateMutability": "view",
      "type": "function"
    },
    {
      "inputs": [
        {
          "internalType": "uint256",
          "name": "tokenId",
          "type": "uint256"
        }
      ],
      "name": "tokenURI",
      "outputs": [
        {
          "internalType": "string",
          "name": "",
          "type": "string"
        }
      ],
      "stateMutability": "view",
      "type": "function"
    },
    {
      "inputs": [
        {
          "internalType": "uint256",
          "name": "",
          "type": "uint256"
        }
      ],
      "name": "totalMintedInPeriod",
      "outputs": [
        {
          "internalType": "uint64",
          "name": "",
          "type": "uint64"
        }
      ],
      "stateMutability": "view",
      "type": "function"
    },
    {
      "inputs": [],
      "name": "totalSupply",
      "outputs": [
        {
          "internalType": "uint256",
          "name": "",
          "type": "uint256"
        }
      ],
      "stateMutability": "view",
      "type": "function"
    },
    {
      "inputs": [
        {
          "internalType": "address",
          "name": "from",
          "type": "address"
        },
        {
          "internalType": "address",
          "name": "to",
          "type": "address"
        },
        {
          "internalType": "uint256",
          "name": "tokenId",
          "type": "uint256"
        }
      ],
      "name": "transferFrom",
      "outputs": [],
      "stateMutability": "payable",
      "type": "function"
    },
    {
      "inputs": [
        {
          "internalType": "address",
          "name": "newOwner",
          "type": "address"
        }
      ],
      "name": "transferLowerOwnership",
      "outputs": [],
      "stateMutability": "nonpayable",
      "type": "function"
    },
    {
      "inputs": [
        {
          "internalType": "address",
          "name": "newOwner",
          "type": "address"
        }
      ],
      "name": "transferOwnership",
      "outputs": [],
      "stateMutability": "nonpayable",
      "type": "function"
    },
    {
      "inputs": [
        {
          "internalType": "address",
          "name": "newRealOwner",
          "type": "address"
        }
      ],
      "name": "transferRealOwnership",
      "outputs": [],
      "stateMutability": "nonpayable",
      "type": "function"
    },
    {
      "inputs": [
        {
          "internalType": "uint16",
          "name": "",
          "type": "uint16"
        }
      ],
      "name": "trustedRemoteLookup",
      "outputs": [
        {
          "internalType": "bytes",
          "name": "",
          "type": "bytes"
        }
      ],
      "stateMutability": "view",
      "type": "function"
    },
    {
      "inputs": [],
      "name": "withdraw",
      "outputs": [],
      "stateMutability": "nonpayable",
      "type": "function"
    }
  ],
  "transactionHash": "0x57c26e88b28a4b8f226ddbd2a5e879a5896846bab41e135d89844dbaf44819c0",
  "args": [
    3000,
    "0x43b1DB0EC2167C8811cA0216A35B3bEfc339689c",
    100000,
    "0xae92d5aD7583AD66E49A0c67BAd18F6ba52dDDc1"
  ],
  "numDeployments": 1,
  "solcInputHash": "0efbedb724edbcf3b6994f08a838f16f",
  "bytecode": "0x60e06040526018805462ffffff19166101011790553480156200002157600080fd5b5060405162005fe238038062005fe28339810160408190526200004491620001dd565b6040518060400160405280600c81526020016b5370686572614b697442616760a01b8152506040518060400160405280600381526020016229a5a160e91b8152508383838383838080620000a7620000a16200017060201b60201c565b62000174565b6001600160a01b031660805250600880546001600160a01b03191633179055600160095581620001295760405162461bcd60e51b8152602060048201526024808201527f6d696e476173546f5472616e73666572416e6453746f7265206d7573742062656044820152630203e20360e41b606482015260840160405180910390fd5b50600a5560106200013b8382620002d2565b5060116200014a8282620002d2565b506000600e5550505060a096909652505050506001600160a01b031660c052506200039e565b3390565b600080546001600160a01b038381166001600160a01b0319831681178455604051919092169283917f8be0079c531659141344cd1fd0a4f28419497f9722a3daafe3b4186f6b6457e09190a35050565b6001600160a01b0381168114620001da57600080fd5b50565b60008060008060808587031215620001f457600080fd5b8451935060208501516200020881620001c4565b6040860151606087015191945092506200022281620001c4565b939692955090935050565b634e487b7160e01b600052604160045260246000fd5b600181811c908216806200025857607f821691505b6020821081036200027957634e487b7160e01b600052602260045260246000fd5b50919050565b601f821115620002cd57600081815260208120601f850160051c81016020861015620002a85750805b601f850160051c820191505b81811015620002c957828155600101620002b4565b5050505b505050565b81516001600160401b03811115620002ee57620002ee6200022d565b6200030681620002ff845462000243565b846200027f565b602080601f8311600181146200033e5760008415620003255750858301515b600019600386901b1c1916600185901b178555620002c9565b600085815260208120601f198616915b828110156200036f578886015182559484019460019091019084016200034e565b50858210156200038e5787850151600019600388901b60f8161c191681555b5050505050600190811b01905550565b60805160a05160c051615bce62000414600039600081816106940152611c7001526000818161090e01526119cd015260008181610ec0015281816111e1015281816114f80152818161170701528181611e06015281816128fe01528181612eda0152818161300d01526144600152615bce6000f3fe6080604052600436106104d55760003560e01c806366ad5c8a11610281578063b353aaa71161015a578063df2a5b3b116100cc578063f235364111610085578063f235364114611117578063f2fde38b14611137578063f5ecbdbc14611157578063f71a5d8814611177578063fa25f9b614611197578063fb796e6c146111c457600080fd5b8063df2a5b3b14610ffe578063e985e9c51461101e578063eb3f3e0114611067578063eb8d72b714611087578063ed9aab51146110a7578063efe7aa49146110ce57600080fd5b8063c44618341161011e578063c446183414610f55578063c87b56dd14610f6b578063cbed8b9c14610f8b578063d12473a514610fab578063d1deba1f14610fcb578063d6649f8014610fde57600080fd5b8063b353aaa714610eae578063b7c0b8e814610ee2578063b88d4fde14610f02578063bad5d48314610f15578063baf3292d14610f3557600080fd5b806395d89b41116101f3578063a6c3d165116101b7578063a6c3d16514610dfe578063a7ec176514610e1e578063ab3ffb9314610e33578063ab7b499314610e46578063abd017ea14610e66578063af3fb21c14610e8657600080fd5b806395d89b4114610ce45780639ea5d6b114610cf95780639f38369a14610d19578063a22cb46514610d39578063a4d8008614610d5957600080fd5b80637bcbf571116102455780637bcbf57114610c195780638cfd8f5c14610c2e5780638d0f7c1614610c665780638da5cb5b14610c865780638ffa1f2a14610ca4578063950c8a7414610cc457600080fd5b806366ad5c8a14610b8f57806370a0823114610baf578063715018a614610bcf578063719bebbd14610be45780637533d78814610bf957600080fd5b806323b872dd116103b357806346fff98d116103255780635594c545116102e95780635594c54514610ab657806355f804b314610acb5780635944c75314610aeb5780635b477e1914610b0b5780635b8c41e614610b205780636352211e14610b6f57600080fd5b806346fff98d14610a135780634828819014610a335780634ac3f4ff14610a495780634d8afe2714610a765780635190563614610aa357600080fd5b80633960be69116103775780633960be69146109305780633ccfd60b1461097e5780633d8b38f6146109935780633f1f4fa4146109b357806342842e0e146109e057806342d65a8d146109f357600080fd5b806323b872dd146108555780632a205e3d146108685780632a55205a1461089d5780632cff6770146108dc57806332cb6b0c146108fc57600080fd5b806310ddb1371161044c57806318443df51161041057806318443df51461072757806319024047146107475780631a9ec1771461077f5780631df270f3146107925780631ed7852a146107b257806322a3ecf9146107d257600080fd5b806310ddb13714610662578063122e04a81461068257806312b36510146106b6578063150b7a02146106d557806318160ddd1461070e57600080fd5b806307e0db171161049e57806307e0db1714610597578063081812fc146105b7578063095ea7b3146105ef57806309af3f9a146106025780630b4cad4c146106225780630df374831461064257600080fd5b80621d3567146104da57806301ffc9a7146104fc57806304634d8d14610531578063060406181461055157806306fdde0314610575575b600080fd5b3480156104e657600080fd5b506104fa6104f5366004614759565b6111de565b005b34801561050857600080fd5b5061051c610517366004614802565b61140f565b60405190151581526020015b60405180910390f35b34801561053d57600080fd5b506104fa61054c366004614856565b61142f565b34801561055d57600080fd5b5061056760195481565b604051908152602001610528565b34801561058157600080fd5b5061058a611445565b60405161052891906148db565b3480156105a357600080fd5b506104fa6105b23660046148ee565b6114d7565b3480156105c357600080fd5b506105d76105d2366004614909565b611560565b6040516001600160a01b039091168152602001610528565b6104fa6105fd366004614922565b6115a4565b34801561060e57600080fd5b506104fa61061d36600461494e565b6115f1565b34801561062e57600080fd5b506104fa61063d366004614909565b611627565b34801561064e57600080fd5b506104fa61065d36600461496b565b6116c7565b34801561066e57600080fd5b506104fa61067d3660046148ee565b6116e6565b34801561068e57600080fd5b506105d77f000000000000000000000000000000000000000000000000000000000000000081565b3480156106c257600080fd5b5060185461051c90610100900460ff1681565b3480156106e157600080fd5b506106f56106f0366004614a4a565b61173e565b6040516001600160e01b03199091168152602001610528565b34801561071a57600080fd5b50600f54600e5403610567565b34801561073357600080fd5b506104fa61074236600461494e565b61174f565b34801561075357600080fd5b50610567610762366004614ab5565b601b60209081526000928352604080842090915290825290205481565b6104fa61078d366004614b6e565b6117a8565b34801561079e57600080fd5b506008546105d7906001600160a01b031681565b3480156107be57600080fd5b506105676107cd366004614909565b611aff565b3480156107de57600080fd5b506108266107ed366004614909565b600d6020526000908152604090208054600182015460029092015461ffff821692620100009092046001600160a01b0316919060ff1684565b6040805161ffff90951685526001600160a01b0390931660208501529183015215156060820152608001610528565b6104fa610863366004614bc4565b611b16565b34801561087457600080fd5b50610888610883366004614c13565b611b4c565b60408051928352602083019190915201610528565b3480156108a957600080fd5b506108bd6108b8366004614ca5565b611b72565b604080516001600160a01b039093168352602083019190915201610528565b3480156108e857600080fd5b506104fa6108f736600461494e565b611c20565b34801561090857600080fd5b506105677f000000000000000000000000000000000000000000000000000000000000000081565b34801561093c57600080fd5b5061096661094b366004614909565b601c602052600090815260409020546001600160401b031681565b6040516001600160401b039091168152602001610528565b34801561098a57600080fd5b506104fa611c6c565b34801561099f57600080fd5b5061051c6109ae366004614cc7565b611d00565b3480156109bf57600080fd5b506105676109ce3660046148ee565b60036020526000908152604090205481565b6104fa6109ee366004614bc4565b611dcc565b3480156109ff57600080fd5b506104fa610a0e366004614cc7565b611de7565b348015610a1f57600080fd5b506104fa610a2e366004614d19565b611e6d565b348015610a3f57600080fd5b50610567600a5481565b348015610a5557600080fd5b50610567610a643660046148ee565b600b6020526000908152604090205481565b348015610a8257600080fd5b50610a96610a91366004614d36565b611ec1565b6040516105289190614de5565b6104fa610ab1366004614df8565b611f50565b348015610ac257600080fd5b50610567600381565b348015610ad757600080fd5b506104fa610ae6366004614eb1565b611f67565b348015610af757600080fd5b506104fa610b06366004614ef2565b611f7c565b348015610b1757600080fd5b50610567600281565b348015610b2c57600080fd5b50610567610b3b366004614f30565b6005602090815260009384526040808520845180860184018051928152908401958401959095209452929052825290205481565b348015610b7b57600080fd5b506105d7610b8a366004614909565b611f8f565b348015610b9b57600080fd5b506104fa610baa366004614759565b611f9a565b348015610bbb57600080fd5b50610567610bca36600461494e565b612076565b348015610bdb57600080fd5b506104fa6120c4565b348015610bf057600080fd5b506104fa6120d8565b348015610c0557600080fd5b5061058a610c143660046148ee565b612169565b348015610c2557600080fd5b506104fa612203565b348015610c3a57600080fd5b50610567610c49366004614f84565b600260209081526000928352604080842090915290825290205481565b348015610c7257600080fd5b50610567610c81366004614909565b612218565b348015610c9257600080fd5b506000546001600160a01b03166105d7565b348015610cb057600080fd5b506104fa610cbf366004614fae565b61222b565b348015610cd057600080fd5b506004546105d7906001600160a01b031681565b348015610cf057600080fd5b5061058a612473565b348015610d0557600080fd5b506104fa610d1436600461496b565b612482565b348015610d2557600080fd5b5061058a610d343660046148ee565b612539565b348015610d4557600080fd5b506104fa610d54366004614fe2565b61264f565b348015610d6557600080fd5b50610dc0610d74366004614909565b601a6020526000908152604090205463ffffffff808216916401000000008104909116906001600160401b03600160401b8204811691600160801b8104821691600160c01b9091041685565b6040805163ffffffff96871681529590941660208601526001600160401b03928316938501939093528116606084015216608082015260a001610528565b348015610e0a57600080fd5b506104fa610e19366004614cc7565b612697565b348015610e2a57600080fd5b50610567600181565b6104fa610e41366004615010565b612720565b348015610e5257600080fd5b506104fa610e6136600461494e565b61272f565b348015610e7257600080fd5b5060185461051c9062010000900460ff1681565b348015610e9257600080fd5b50610e9b600181565b60405161ffff9091168152602001610528565b348015610eba57600080fd5b506105d77f000000000000000000000000000000000000000000000000000000000000000081565b348015610eee57600080fd5b506104fa610efd366004614d19565b612763565b6104fa610f10366004614a4a565b61277e565b348015610f2157600080fd5b5061051c610f303660046150c5565b6127c2565b348015610f4157600080fd5b506104fa610f5036600461494e565b612806565b348015610f6157600080fd5b5061056761271081565b348015610f7757600080fd5b5061058a610f86366004614909565b61285c565b348015610f9757600080fd5b506104fa610fa636600461510b565b6128df565b348015610fb757600080fd5b506104fa610fc636600461496b565b612974565b6104fa610fd9366004614759565b612a24565b348015610fea57600080fd5b5061051c610ff93660046150c5565b612c3a565b34801561100a57600080fd5b506104fa611019366004615179565b612c7e565b34801561102a57600080fd5b5061051c6110393660046151b5565b6001600160a01b03918216600090815260156020908152604080832093909416825291909152205460ff1690565b34801561107357600080fd5b506104fa6110823660046151f7565b612ce8565b34801561109357600080fd5b506104fa6110a2366004614cc7565b612e41565b3480156110b357600080fd5b506018546105d790630100000090046001600160a01b031681565b3480156110da57600080fd5b50601d546110f89060ff81169061010090046001600160a01b031682565b6040805192151583526001600160a01b03909116602083015201610528565b34801561112357600080fd5b50610888611132366004615264565b612e9b565b34801561114357600080fd5b506104fa61115236600461494e565b612f66565b34801561116357600080fd5b5061058a6111723660046152e1565b612fdc565b34801561118357600080fd5b506104fa611192366004614909565b61308d565b3480156111a357600080fd5b506105676111b23660046148ee565b600c6020526000908152604090205481565b3480156111d057600080fd5b5060185461051c9060ff1681565b337f00000000000000000000000000000000000000000000000000000000000000006001600160a01b03161461125b5760405162461bcd60e51b815260206004820152601e60248201527f4c7a4170703a20696e76616c696420656e64706f696e742063616c6c6572000060448201526064015b60405180910390fd5b61ffff8616600090815260016020526040812080546112799061532e565b80601f01602080910402602001604051908101604052809291908181526020018280546112a59061532e565b80156112f25780601f106112c7576101008083540402835291602001916112f2565b820191906000526020600020905b8154815290600101906020018083116112d557829003601f168201915b5050505050905080518686905014801561130d575060008151115b801561133557508051602082012060405161132b9088908890615368565b6040518091039020145b6113905760405162461bcd60e51b815260206004820152602660248201527f4c7a4170703a20696e76616c696420736f757263652073656e64696e6720636f6044820152651b9d1c9858dd60d21b6064820152608401611252565b6114068787878080601f01602080910402602001604051908101604052809392919081815260200183838082843760009201919091525050604080516020601f8a018190048102820181019092528881528a93509150889088908190840183828082843760009201919091525061309a92505050565b50505050505050565b600061141a82613113565b80611429575061142982613138565b92915050565b61143761316d565b61144182826131c7565b5050565b6060601080546114549061532e565b80601f01602080910402602001604051908101604052809291908181526020018280546114809061532e565b80156114cd5780601f106114a2576101008083540402835291602001916114cd565b820191906000526020600020905b8154815290600101906020018083116114b057829003601f168201915b5050505050905090565b6114df61316d565b6040516307e0db1760e01b815261ffff821660048201527f00000000000000000000000000000000000000000000000000000000000000006001600160a01b0316906307e0db17906024015b600060405180830381600087803b15801561154557600080fd5b505af1158015611559573d6000803e3d6000fd5b5050505050565b600061156b82613281565b611588576040516333d1c03960e21b815260040160405180910390fd5b506000908152601460205260409020546001600160a01b031690565b8160185460ff16156115b9576115b9816132a9565b601854610100900460ff16156115e257604051630b95754760e31b815260040160405180910390fd5b6115ec83836132ed565b505050565b6008546001600160a01b0316331461161b5760405162461bcd60e51b815260040161125290615378565b61162481612f66565b50565b61162f61316d565b6000811161168b5760405162461bcd60e51b8152602060048201526024808201527f6d696e476173546f5472616e73666572416e6453746f7265206d7573742062656044820152630203e20360e41b6064820152608401611252565b600a8190556040518181527ffebbc4f8bb9ec2313950c718d43123124b15778efda4c1f1d529de2995b4f34d906020015b60405180910390a150565b6116cf61316d565b61ffff909116600090815260036020526040902055565b6116ee61316d565b6040516310ddb13760e01b815261ffff821660048201527f00000000000000000000000000000000000000000000000000000000000000006001600160a01b0316906310ddb1379060240161152b565b630a85bd0160e11b5b949350505050565b61175761316d565b60408051808201909152601d805460ff811615158084526001600160a01b039490941660209093018390526001600160a81b031916610100600160a81b031990931692909217610100909102179055565b6000838152601a6020908152604091829020825160a081018452905463ffffffff8082168352640100000000820416928201929092526001600160401b03600160401b8304811693820193909352600160801b820483166060820152600160c01b90910490911660808201526019548414158061182a5750805163ffffffff16155b8061183b5750805163ffffffff1642105b806118505750806020015163ffffffff164210155b1561186e57604051639546a99360e01b815260040160405180910390fd5b600184036118c85761188082336127c2565b15156001146118c35760405162461bcd60e51b815260206004820152600f60248201526e24b73b30b634b21036b4b73a32b91760891b6044820152606401611252565b61191d565b6002840361191d576118da8233612c3a565b151560011461191d5760405162461bcd60e51b815260206004820152600f60248201526e24b73b30b634b21036b4b73a32b91760891b6044820152606401611252565b6000848152601b6020908152604080832033845290915290205460608201516119509082906001600160401b03166153db565b8461ffff16111561197457604051630236501f60e61b815260040160405180910390fd5b6000858152601c602052604090205460808301516001600160401b0391821691166119a38261ffff88166153ee565b6001600160401b031611156119cb5760405163b45a22f960e01b815260040160405180910390fd5b7f00000000000000000000000000000000000000000000000000000000000000008561ffff166119fa600e5490565b611a049190615415565b1115611a2357604051634c9c5c3360e11b815260040160405180910390fd5b60008561ffff1684604001516001600160401b0316611a429190615428565b905080341015611a655760405163356680b760e01b815260040160405180910390fd5b6000878152601b602090815260408083203380855290835281842061ffff8b168881019091558b8552601c9093529220805467ffffffffffffffff19168583016001600160401b0316179055611abb919061338d565b60405187815261ffff87169033907f0b3fa6d1ad76d7cf2bed405eb629252cc4f3dfe6a400576cf13f39d60bcc3ed69060200160405180910390a350505050505050565b6000611b0961316d565b506017819055805b919050565b826001600160a01b0381163314611b3b5760185460ff1615611b3b57611b3b336132a9565b611b46848484613474565b50505050565b600080611b648787611b5d8861360e565b8787612e9b565b915091509550959350505050565b60008281526007602090815260408083208151808301909252546001600160a01b038116808352600160a01b9091046001600160601b0316928201929092528291611be75750604080518082019091526006546001600160a01b0381168252600160a01b90046001600160601b031660208201525b602081015160009061271090611c06906001600160601b031687615428565b611c10919061543f565b91519350909150505b9250929050565b6008546001600160a01b03163314611c4a5760405162461bcd60e51b815260040161125290615378565b600880546001600160a01b0319166001600160a01b0392909216919091179055565b60007f00000000000000000000000000000000000000000000000000000000000000006001600160a01b03164760405160006040518083038185875af1925050503d8060008114611cd9576040519150601f19603f3d011682016040523d82523d6000602084013e611cde565b606091505b505090508061162457604051631d42c86760e21b815260040160405180910390fd5b61ffff831660009081526001602052604081208054829190611d219061532e565b80601f0160208091040260200160405190810160405280929190818152602001828054611d4d9061532e565b8015611d9a5780601f10611d6f57610100808354040283529160200191611d9a565b820191906000526020600020905b815481529060010190602001808311611d7d57829003601f168201915b505050505090508383604051611db1929190615368565b60405180910390208180519060200120149150509392505050565b6115ec8383836040518060200160405280600081525061277e565b611def61316d565b6040516342d65a8d60e01b81526001600160a01b037f000000000000000000000000000000000000000000000000000000000000000016906342d65a8d90611e3f9086908690869060040161548a565b600060405180830381600087803b158015611e5957600080fd5b505af1158015611406573d6000803e3d6000fd5b611e7561316d565b601854630100000090046001600160a01b0316611ea557604051630e048e7160e41b815260040160405180910390fd5b60188054911515620100000262ff000019909216919091179055565b60408051808201909152601d5460ff811615158083526101009091046001600160a01b0316602083015260609190611f0c57604051630871f9a360e21b815260040160405180910390fd5b611747338585808060200260200160405190810160405280939291908181526020018383602002808284376000920191909152505050602085015160019150613659565b611406878787611f5f8861360e565b878787613708565b611f6f61316d565b601e6115ec8284836154ee565b611f8461316d565b6115ec8383836138dc565b6000611429826139a7565b333014611ff85760405162461bcd60e51b815260206004820152602660248201527f4e6f6e626c6f636b696e674c7a4170703a2063616c6c6572206d7573742062656044820152650204c7a4170760d41b6064820152608401611252565b61206e8686868080601f01602080910402602001604051908101604052809392919081815260200183838082843760009201919091525050604080516020601f890181900481028201810190925287815289935091508790879081908401838280828437600092019190915250613a0e92505050565b505050505050565b60006001600160a01b03821661209f576040516323d3ad8160e21b815260040160405180910390fd5b506001600160a01b03166000908152601360205260409020546001600160401b031690565b6120cc61316d565b6120d66000613b65565b565b6120e061316d565b60408051808201909152601d5460ff81161515825261010090046001600160a01b03166020820181905261212757604051638b0277bb60e01b815260040160405180910390fd5b6040805180820190915260018082526020928301516001600160a01b031692909101829052601d80546001600160a81b03191661010090930292909217179055565b600160205260009081526040902080546121829061532e565b80601f01602080910402602001604051908101604052809291908181526020018280546121ae9061532e565b80156121fb5780601f106121d0576101008083540402835291602001916121fb565b820191906000526020600020905b8154815290600101906020018083116121de57829003601f168201915b505050505081565b61220b61316d565b6018805461ff0019169055565b600061222261316d565b50601681905590565b612233613bb5565b80516020808301919091206000818152600d90925260409091206002015460ff166122945760405162461bcd60e51b81526020600482015260116024820152701b9bc818dc99591a5d1cc81cdd1bdc9959607a1b6044820152606401611252565b6000828060200190518101906122aa919061564d565b6000848152600d6020526040812080546001909101549294509092506122e69161ffff8216916201000090046001600160a01b03169085613c0e565b6000848152600d6020526040902060010154909150811161235b5760405162461bcd60e51b815260206004820152602960248201527f6e6f7420656e6f7567682067617320746f2070726f6365737320637265646974604482015268103a3930b739b332b960b91b6064820152608401611252565b815181036123d2576000838152600d602052604080822080546001600160b01b031916815560018101929092556002909101805460ff19169055517fd7be02b8dd0d27bd0517a9cb4d7469ce27df4313821ae5ec1ff69acc594ba233906123c59085815260200190565b60405180910390a1612466565b604080516080810182526000858152600d6020818152848320805461ffff80821687526001600160a01b03620100008084048216868a019081529989018b8152600160608b01818152998f90529790965297519851169096026001600160b01b03199091169690951695909517939093178455915191830191909155516002909101805491151560ff199092169190911790555b5050506116246001600955565b6060601180546114549061532e565b61248a61316d565b600081116124e55760405162461bcd60e51b815260206004820152602260248201527f647374436861696e4964546f42617463684c696d6974206d757374206265203e604482015261020360f41b6064820152608401611252565b61ffff82166000818152600b6020908152604091829020849055815192835282018390527f7315f7654d594ead24a30160ed9ba2d23247f543016b918343591e93d7afdb6d91015b60405180910390a15050565b61ffff811660009081526001602052604081208054606092919061255c9061532e565b80601f01602080910402602001604051908101604052809291908181526020018280546125889061532e565b80156125d55780601f106125aa576101008083540402835291602001916125d5565b820191906000526020600020905b8154815290600101906020018083116125b857829003601f168201915b50505050509050805160000361262d5760405162461bcd60e51b815260206004820152601d60248201527f4c7a4170703a206e6f20747275737465642070617468207265636f72640000006044820152606401611252565b61264860006014835161264091906153db565b839190613c5a565b9392505050565b8160185460ff161561266457612664816132a9565b601854610100900460ff161561268d57604051630b95754760e31b815260040160405180910390fd5b6115ec8383613d67565b61269f61316d565b8181306040516020016126b4939291906156b0565b60408051601f1981840301815291815261ffff85166000908152600160205220906126df90826156d1565b507f8c0400cfe2d1199b1a725c78960bcc2a344d869b80590d0f2bd005db15a572ce8383836040516127139392919061548a565b60405180910390a1505050565b61140687878787878787613708565b61273761316d565b601880546001600160a01b039092166301000000026301000000600160b81b0319909216919091179055565b61276b61316d565b6018805460ff1916911515919091179055565b612789848484611b16565b6001600160a01b0383163b15611b46576127a584848484613dd3565b611b46576040516368d2bf6b60e11b815260040160405180910390fd5b6040516001600160601b0319606083901b16602082015260009081906034016040516020818303038152906040528051906020012090506117478460165483613ebb565b61280e61316d565b600480546001600160a01b0319166001600160a01b0383169081179091556040519081527f5db758e995a17ec1ad84bdef7e8c3293a0bd6179bcce400dff5d4c3d87db726b906020016116bc565b606061286782613281565b61288457604051630a14c4b560e41b815260040160405180910390fd5b600061288e613ed1565b905080516000036128ae5760405180602001604052806000815250612648565b806128b884613ee0565b6040516020016128c9929190615790565b6040516020818303038152906040529392505050565b6128e761316d565b6040516332fb62e760e21b81526001600160a01b037f0000000000000000000000000000000000000000000000000000000000000000169063cbed8b9c9061293b90889088908890889088906004016157bf565b600060405180830381600087803b15801561295557600080fd5b505af1158015612969573d6000803e3d6000fd5b505050505050505050565b61297c61316d565b600081116129d85760405162461bcd60e51b815260206004820152602360248201527f647374436861696e4964546f5472616e73666572476173206d7573742062652060448201526203e20360ec1b6064820152608401611252565b61ffff82166000818152600c6020908152604091829020849055815192835282018390527fc46df2983228ac2d9754e94a0d565e6671665dc8ad38602bc8e544f0685a29fb910161252d565b61ffff86166000908152600560205260408082209051612a479088908890615368565b90815260408051602092819003830190206001600160401b03871660009081529252902054905080612ac75760405162461bcd60e51b815260206004820152602360248201527f4e6f6e626c6f636b696e674c7a4170703a206e6f2073746f726564206d65737360448201526261676560e81b6064820152608401611252565b808383604051612ad8929190615368565b604051809103902014612b375760405162461bcd60e51b815260206004820152602160248201527f4e6f6e626c6f636b696e674c7a4170703a20696e76616c6964207061796c6f616044820152601960fa1b6064820152608401611252565b61ffff87166000908152600560205260408082209051612b5a9089908990615368565b90815260408051602092819003830181206001600160401b038916600090815290845282902093909355601f88018290048202830182019052868252612bf2918991899089908190840183828082843760009201919091525050604080516020601f8a018190048102820181019092528881528a935091508890889081908401838280828437600092019190915250613a0e92505050565b7fc264d91f3adc5588250e1551f547752ca0cfa8f6b530d243b9f9f4cab10ea8e58787878785604051612c299594939291906157f8565b60405180910390a150505050505050565b6040516001600160601b0319606083901b16602082015260009081906034016040516020818303038152906040528051906020012090506117478460175483613ebb565b612c8661316d565b61ffff83811660008181526002602090815260408083209487168084529482529182902085905581519283528201929092529081018290527f9d5c7c0b934da8fefa9c7760c98383778a12dfbfc0c3b3106518f43fb9508ac090606001612713565b612cf061316d565b63ffffffff85161580612d07575063ffffffff8416155b80612d1957506001600160401b038316155b15612d3757604051638531df0f60e01b815260040160405180910390fd5b8363ffffffff168563ffffffff1610612d6357604051638531df0f60e01b815260040160405180910390fd5b6040805160a08101825263ffffffff968716815294861660208087019182526001600160401b0395861687840190815294861660608801908152938616608088019081526000998a52601a909152919097209451855497519351925191518516600160c01b026001600160c01b03928616600160801b0267ffffffffffffffff60801b1994909616600160401b029390931677ffffffffffffffffffffffffffffffff0000000000000000199488166401000000000267ffffffffffffffff1990991691909716179690961791909116939093171792909216179055565b612e4961316d565b61ffff83166000908152600160205260409020612e678284836154ee565b507ffa41487ad5d6728f0b19276fa1eddc16558578f5109fc39d2dc33c3230470dab8383836040516127139392919061548a565b60008060008686604051602001612eb3929190615833565b60408051601f198184030181529082905263040a7bb160e41b825291506001600160a01b037f000000000000000000000000000000000000000000000000000000000000000016906340a7bb1090612f17908b90309086908b908b90600401615858565b6040805180830381865afa158015612f33573d6000803e3d6000fd5b505050506040513d601f19601f82011682018060405250810190612f5791906158ac565b92509250509550959350505050565b612f6e61316d565b6001600160a01b038116612fd35760405162461bcd60e51b815260206004820152602660248201527f4f776e61626c653a206e6577206f776e657220697320746865207a65726f206160448201526564647265737360d01b6064820152608401611252565b61162481613b65565b604051633d7b2f6f60e21b815261ffff808616600483015284166024820152306044820152606481018290526060907f00000000000000000000000000000000000000000000000000000000000000006001600160a01b03169063f5ecbdbc90608401600060405180830381865afa15801561305c573d6000803e3d6000fd5b505050506040513d6000823e601f3d908101601f1916820160405261308491908101906158d0565b95945050505050565b61309561316d565b601955565b6000806130fd5a60966366ad5c8a60e01b898989896040516024016130c29493929190615904565b60408051601f198184030181529190526020810180516001600160e01b03166001600160e01b03199093169290921790915230929190613f24565b915091508161206e5761206e8686868685613fae565b60006001600160e01b031982166322bac5d960e01b148061142957506114298261404b565b60006001600160e01b0319821663152a902d60e11b148061142957506301ffc9a760e01b6001600160e01b0319831614611429565b6000546001600160a01b031633146120d65760405162461bcd60e51b815260206004820181905260248201527f4f776e61626c653a2063616c6c6572206973206e6f7420746865206f776e65726044820152606401611252565b6127106001600160601b03821611156131f25760405162461bcd60e51b815260040161125290615942565b6001600160a01b0382166132485760405162461bcd60e51b815260206004820152601960248201527f455243323938313a20696e76616c6964207265636569766572000000000000006044820152606401611252565b604080518082019091526001600160a01b039092168083526001600160601b039091166020909201829052600160a01b90910217600655565b6000600e5482108015611429575050600090815260126020526040902054600160e01b161590565b69c617113400112233445560005230601a5280603a52600080604460166daaeb6d7670e522a718067333cd4e5afa6132e5573d6000803e3d6000fd5b6000603a5250565b60006132f882611f8f565b9050336001600160a01b03821614613331576133148133611039565b613331576040516367d9dca160e11b815260040160405180910390fd5b60008281526014602052604080822080546001600160a01b0319166001600160a01b0387811691821790925591518593918516917f8c5be1e5ebec7d5bd14f71427d1e84f3dd0314c0f7b2291e5b200ac8c7c3b92591a4505050565b600e5460008290036133b25760405163b562e8dd60e01b815260040160405180910390fd5b6133bf6000848385614099565b6001600160a01b03831660008181526013602090815260408083208054680100000000000000018802019055848352601290915281206001851460e11b4260a01b17831790558284019083908390600080516020615b798339815191528180a4600183015b81811461344a5780836000600080516020615b79833981519152600080a4600101613424565b508160000361346b57604051622e076360e81b815260040160405180910390fd5b600e5550505050565b600061347f826139a7565b9050836001600160a01b0316816001600160a01b0316146134b25760405162a1148160e81b815260040160405180910390fd5b600082815260146020526040902080546134de8187335b6001600160a01b039081169116811491141790565b613509576134ec8633611039565b61350957604051632ce44b5f60e11b815260040160405180910390fd5b6001600160a01b03851661353057604051633a954ecd60e21b815260040160405180910390fd5b61353d8686866001614099565b801561354857600082555b6001600160a01b038681166000908152601360205260408082208054600019019055918716808252919020805460010190554260a01b17600160e11b17600085815260126020526040812091909155600160e11b841690036135da576001840160008181526012602052604081205490036135d857600e5481146135d85760008181526012602052604090208490555b505b83856001600160a01b0316876001600160a01b0316600080516020615b7983398151915260405160405180910390a461206e565b604080516001808252818301909252606091600091906020808301908036833701905050905082816000815181106136485761364861598c565b602090810291909101015292915050565b606060005b84518110156136925761368a85828151811061367c5761367c61598c565b602002602001015185614110565b60010161365e565b50604051635fb4271b60e01b81526001600160a01b03831690635fb4271b906136c190889088906004016159a2565b6000604051808303816000875af11580156136e0573d6000803e3d6000fd5b505050506040513d6000823e601f3d908101601f1916820160405261308491908101906159c6565b600084511161374f5760405162461bcd60e51b8152602060048201526013602482015272746f6b656e4964735b5d20697320656d70747960681b6044820152606401611252565b835160011480613773575061ffff86166000908152600b6020526040902054845111155b6137ca5760405162461bcd60e51b815260206004820152602260248201527f62617463682073697a65206578636565647320647374206261746368206c696d6044820152611a5d60f21b6064820152608401611252565b60005b845181101561380d576137fb8888888885815181106137ee576137ee61598c565b6020026020010151614257565b80613805816159fa565b9150506137cd565b5060008585604051602001613823929190615833565b6040516020818303038152906040529050613868876001848851600c60008d61ffff1661ffff168152602001908152602001600020546138639190615428565b614262565b613876878286868634614337565b856040516138849190615a13565b6040518091039020886001600160a01b03168861ffff167fe1b87c47fdeb4f9cbadbca9df3af7aba453bb6e501075d0440d88125b711522a886040516138ca9190614de5565b60405180910390a45050505050505050565b6127106001600160601b03821611156139075760405162461bcd60e51b815260040161125290615942565b6001600160a01b03821661395d5760405162461bcd60e51b815260206004820152601b60248201527f455243323938313a20496e76616c696420706172616d657465727300000000006044820152606401611252565b6040805180820182526001600160a01b0393841681526001600160601b0392831660208083019182526000968752600790529190942093519051909116600160a01b029116179055565b600081600e548110156139f55760008181526012602052604081205490600160e01b821690036139f3575b806000036126485750600019016000818152601260205260409020546139d2565b505b604051636f96cda160e11b815260040160405180910390fd5b60008082806020019051810190613a25919061564d565b601482015191935091506000613a3d88838386613c0e565b90508251811015613b115784516020808701919091206040805160808101825261ffff808d1682526001600160a01b038088168387019081528385018881526001606086018181526000898152600d909a529887902095518654935190941662010000026001600160b01b03199093169390941692909217178355519082015592516002909301805493151560ff199094169390931790925590517f10e0b70d256bccc84b7027506978bd8b68984a870788b93b479def144c839ad790613b079083908990615a2f565b60405180910390a1505b816001600160a01b031687604051613b299190615a13565b60405180910390208961ffff167f5b821db8a46f8ecbe1941ba2f51cfeea9643268b56631f70d45e2a745d990265866040516138ca9190614de5565b600080546001600160a01b038381166001600160a01b0319831681178455604051919092169283917f8be0079c531659141344cd1fd0a4f28419497f9722a3daafe3b4186f6b6457e09190a35050565b600260095403613c075760405162461bcd60e51b815260206004820152601f60248201527f5265656e7472616e637947756172643a207265656e7472616e742063616c6c006044820152606401611252565b6002600955565b6000825b825181101561308457600a545a1061308457613c488686858481518110613c3b57613c3b61598c565b60200260200101516144dc565b80613c52816159fa565b915050613c12565b606081613c6881601f615415565b1015613ca75760405162461bcd60e51b815260206004820152600e60248201526d736c6963655f6f766572666c6f7760901b6044820152606401611252565b613cb18284615415565b84511015613cf55760405162461bcd60e51b8152602060048201526011602482015270736c6963655f6f75744f66426f756e647360781b6044820152606401611252565b606082158015613d145760405191506000825260208201604052613d5e565b6040519150601f8416801560200281840101858101878315602002848b0101015b81831015613d4d578051835260209283019201613d35565b5050858452601f01601f1916604052505b50949350505050565b3360008181526015602090815260408083206001600160a01b03871680855290835292819020805460ff191686151590811790915590519081529192917f17307eab39ab6107e8899845ad3d59bd9653f200f220920489ca2b5937696c31910160405180910390a35050565b604051630a85bd0160e11b81526000906001600160a01b0385169063150b7a0290613e08903390899088908890600401615a48565b6020604051808303816000875af1925050508015613e43575060408051601f3d908101601f19168201909252613e4091810190615a85565b60015b613ea1573d808015613e71576040519150601f19603f3d011682016040523d82523d6000602084013e613e76565b606091505b508051600003613e99576040516368d2bf6b60e11b815260040160405180910390fd5b805181602001fd5b6001600160e01b031916630a85bd0160e11b149050611747565b600082613ec88584614515565b14949350505050565b6060601e80546114549061532e565b606060a06040510180604052602081039150506000815280825b600183039250600a81066030018353600a900480613efa5750819003601f19909101908152919050565b6000606060008060008661ffff166001600160401b03811115613f4957613f49614987565b6040519080825280601f01601f191660200182016040528015613f73576020820181803683370190505b50905060008087516020890160008d8df191503d925086831115613f95578692505b828152826000602083013e909890975095505050505050565b8180519060200120600560008761ffff1661ffff16815260200190815260200160002085604051613fdf9190615a13565b9081526040805191829003602090810183206001600160401b0388166000908152915220919091557fe183f33de2837795525b4792ca4cd60535bd77c53b7e7030060bfcf5734d6b0c9061403c9087908790879087908790615aa2565b60405180910390a15050505050565b60006301ffc9a760e01b6001600160e01b03198316148061407c57506380ac58cd60e01b6001600160e01b03198316145b806114295750506001600160e01b031916635b5e139f60e01b1490565b601854610100900460ff1680156140b857506001600160a01b03841615155b80156140cc57506001600160a01b03831615155b156140ea57604051630b95754760e31b815260040160405180910390fd5b6140f333614562565b611b46576040516326406c5f60e11b815260040160405180910390fd5b600061411b836139a7565b90508060008061413986600090815260146020526040902080549091565b9150915084156141795761414e8184336134c9565b6141795761415c8333611039565b61417957604051632ce44b5f60e11b815260040160405180910390fd5b614187836000886001614099565b801561419257600082555b6001600160a01b038316600081815260136020526040902080546fffffffffffffffffffffffffffffffff0190554260a01b17600360e01b17600087815260126020526040812091909155600160e11b851690036142205760018601600081815260126020526040812054900361421e57600e54811461421e5760008181526012602052604090208590555b505b60405186906000906001600160a01b03861690600080516020615b79833981519152908390a45050600f8054600101905550505050565b611b46843083611dcc565b600061426d836145f6565b61ffff808716600090815260026020908152604080832093891683529290522054909150806142de5760405162461bcd60e51b815260206004820152601a60248201527f4c7a4170703a206d696e4761734c696d6974206e6f74207365740000000000006044820152606401611252565b6142e88382615415565b82101561206e5760405162461bcd60e51b815260206004820152601b60248201527f4c7a4170703a20676173206c696d697420697320746f6f206c6f7700000000006044820152606401611252565b61ffff8616600090815260016020526040812080546143559061532e565b80601f01602080910402602001604051908101604052809291908181526020018280546143819061532e565b80156143ce5780601f106143a3576101008083540402835291602001916143ce565b820191906000526020600020905b8154815290600101906020018083116143b157829003601f168201915b50505050509050805160000361443f5760405162461bcd60e51b815260206004820152603060248201527f4c7a4170703a2064657374696e6174696f6e20636861696e206973206e6f742060448201526f61207472757374656420736f7572636560801b6064820152608401611252565b61444a878751614652565b60405162c5803160e81b81526001600160a01b037f0000000000000000000000000000000000000000000000000000000000000000169063c58031009084906144a1908b9086908c908c908c908c90600401615af4565b6000604051808303818588803b1580156144ba57600080fd5b505af11580156144ce573d6000803e3d6000fd5b505050505050505050505050565b6144e581613281565b80156145015750306144f682611f8f565b6001600160a01b0316145b61450a57600080fd5b6115ec308383611dcc565b600081815b845181101561455a57614546828683815181106145395761453961598c565b60200260200101516146c3565b915080614552816159fa565b91505061451a565b509392505050565b60185460009062010000900460ff16156145ee576018546040516370c5e04560e11b81526001600160a01b038481166004830152630100000090920490911690819063e18bc08a90602401602060405180830381865afa1580156145ca573d6000803e3d6000fd5b505050506040513d601f19601f820116820180604052508101906126489190615b5b565b506001919050565b600060228251101561464a5760405162461bcd60e51b815260206004820152601c60248201527f4c7a4170703a20696e76616c69642061646170746572506172616d73000000006044820152606401611252565b506022015190565b61ffff82166000908152600360205260408120549081900361467357506127105b808211156115ec5760405162461bcd60e51b815260206004820181905260248201527f4c7a4170703a207061796c6f61642073697a6520697320746f6f206c617267656044820152606401611252565b60008183106146df576000828152602084905260409020612648565b5060009182526020526040902090565b803561ffff81168114611b1157600080fd5b60008083601f84011261471357600080fd5b5081356001600160401b0381111561472a57600080fd5b602083019150836020828501011115611c1957600080fd5b80356001600160401b0381168114611b1157600080fd5b6000806000806000806080878903121561477257600080fd5b61477b876146ef565b955060208701356001600160401b038082111561479757600080fd5b6147a38a838b01614701565b90975095508591506147b760408a01614742565b945060608901359150808211156147cd57600080fd5b506147da89828a01614701565b979a9699509497509295939492505050565b6001600160e01b03198116811461162457600080fd5b60006020828403121561481457600080fd5b8135612648816147ec565b6001600160a01b038116811461162457600080fd5b8035611b118161481f565b80356001600160601b0381168114611b1157600080fd5b6000806040838503121561486957600080fd5b82356148748161481f565b91506148826020840161483f565b90509250929050565b60005b838110156148a657818101518382015260200161488e565b50506000910152565b600081518084526148c781602086016020860161488b565b601f01601f19169290920160200192915050565b60208152600061264860208301846148af565b60006020828403121561490057600080fd5b612648826146ef565b60006020828403121561491b57600080fd5b5035919050565b6000806040838503121561493557600080fd5b82356149408161481f565b946020939093013593505050565b60006020828403121561496057600080fd5b81356126488161481f565b6000806040838503121561497e57600080fd5b614940836146ef565b634e487b7160e01b600052604160045260246000fd5b604051601f8201601f191681016001600160401b03811182821017156149c5576149c5614987565b604052919050565b60006001600160401b038211156149e6576149e6614987565b50601f01601f191660200190565b600082601f830112614a0557600080fd5b8135614a18614a13826149cd565b61499d565b818152846020838601011115614a2d57600080fd5b816020850160208301376000918101602001919091529392505050565b60008060008060808587031215614a6057600080fd5b8435614a6b8161481f565b93506020850135614a7b8161481f565b92506040850135915060608501356001600160401b03811115614a9d57600080fd5b614aa9878288016149f4565b91505092959194509250565b60008060408385031215614ac857600080fd5b823591506020830135614ada8161481f565b809150509250929050565b60006001600160401b03821115614afe57614afe614987565b5060051b60200190565b600082601f830112614b1957600080fd5b81356020614b29614a1383614ae5565b82815260059290921b84018101918181019086841115614b4857600080fd5b8286015b84811015614b635780358352918301918301614b4c565b509695505050505050565b600080600060608486031215614b8357600080fd5b83359250614b93602085016146ef565b915060408401356001600160401b03811115614bae57600080fd5b614bba86828701614b08565b9150509250925092565b600080600060608486031215614bd957600080fd5b8335614be48161481f565b92506020840135614bf48161481f565b929592945050506040919091013590565b801515811461162457600080fd5b600080600080600060a08688031215614c2b57600080fd5b614c34866146ef565b945060208601356001600160401b0380821115614c5057600080fd5b614c5c89838a016149f4565b95506040880135945060608801359150614c7582614c05565b90925060808701359080821115614c8b57600080fd5b50614c98888289016149f4565b9150509295509295909350565b60008060408385031215614cb857600080fd5b50508035926020909101359150565b600080600060408486031215614cdc57600080fd5b614ce5846146ef565b925060208401356001600160401b03811115614d0057600080fd5b614d0c86828701614701565b9497909650939450505050565b600060208284031215614d2b57600080fd5b813561264881614c05565b60008060208385031215614d4957600080fd5b82356001600160401b0380821115614d6057600080fd5b818501915085601f830112614d7457600080fd5b813581811115614d8357600080fd5b8660208260051b8501011115614d9857600080fd5b60209290920196919550909350505050565b600081518084526020808501945080840160005b83811015614dda57815187529582019590820190600101614dbe565b509495945050505050565b6020815260006126486020830184614daa565b600080600080600080600060e0888a031215614e1357600080fd5b8735614e1e8161481f565b9650614e2c602089016146ef565b955060408801356001600160401b0380821115614e4857600080fd5b614e548b838c016149f4565b965060608a0135955060808a01359150614e6d8261481f565b90935060a089013590614e7f8261481f565b90925060c08901359080821115614e9557600080fd5b50614ea28a828b016149f4565b91505092959891949750929550565b60008060208385031215614ec457600080fd5b82356001600160401b03811115614eda57600080fd5b614ee685828601614701565b90969095509350505050565b600080600060608486031215614f0757600080fd5b833592506020840135614f198161481f565b9150614f276040850161483f565b90509250925092565b600080600060608486031215614f4557600080fd5b614f4e846146ef565b925060208401356001600160401b03811115614f6957600080fd5b614f75868287016149f4565b925050614f2760408501614742565b60008060408385031215614f9757600080fd5b614fa0836146ef565b9150614882602084016146ef565b600060208284031215614fc057600080fd5b81356001600160401b03811115614fd657600080fd5b611747848285016149f4565b60008060408385031215614ff557600080fd5b82356150008161481f565b91506020830135614ada81614c05565b600080600080600080600060e0888a03121561502b57600080fd5b87356150368161481f565b9650615044602089016146ef565b955060408801356001600160401b038082111561506057600080fd5b61506c8b838c016149f4565b965060608a013591508082111561508257600080fd5b61508e8b838c01614b08565b955060808a013591506150a08261481f565b8194506150af60a08b01614834565b935060c08a0135915080821115614e9557600080fd5b600080604083850312156150d857600080fd5b82356001600160401b038111156150ee57600080fd5b6150fa85828601614b08565b9250506020830135614ada8161481f565b60008060008060006080868803121561512357600080fd5b61512c866146ef565b945061513a602087016146ef565b93506040860135925060608601356001600160401b0381111561515c57600080fd5b61516888828901614701565b969995985093965092949392505050565b60008060006060848603121561518e57600080fd5b615197846146ef565b92506151a5602085016146ef565b9150604084013590509250925092565b600080604083850312156151c857600080fd5b82356151d38161481f565b91506020830135614ada8161481f565b803563ffffffff81168114611b1157600080fd5b60008060008060008060c0878903121561521057600080fd5b86359550615220602088016151e3565b945061522e604088016151e3565b935061523c60608801614742565b925061524a60808801614742565b915061525860a08801614742565b90509295509295509295565b600080600080600060a0868803121561527c57600080fd5b615285866146ef565b945060208601356001600160401b03808211156152a157600080fd5b6152ad89838a016149f4565b955060408801359150808211156152c357600080fd5b6152cf89838a01614b08565b945060608801359150614c7582614c05565b600080600080608085870312156152f757600080fd5b615300856146ef565b935061530e602086016146ef565b9250604085013561531e8161481f565b9396929550929360600135925050565b600181811c9082168061534257607f821691505b60208210810361536257634e487b7160e01b600052602260045260246000fd5b50919050565b8183823760009101908152919050565b6020808252602d908201527f4d756c74697369674f776e61626c653a2063616c6c6572206973206e6f74207460408201526c3432903932b0b61037bbb732b960991b606082015260800190565b634e487b7160e01b600052601160045260246000fd5b81810381811115611429576114296153c5565b6001600160401b0381811683821601908082111561540e5761540e6153c5565b5092915050565b80820180821115611429576114296153c5565b8082028115828204841417611429576114296153c5565b60008261545c57634e487b7160e01b600052601260045260246000fd5b500490565b81835281816020850137506000828201602090810191909152601f909101601f19169091010190565b61ffff84168152604060208201526000613084604083018486615461565b601f8211156115ec57600081815260208120601f850160051c810160208610156154cf5750805b601f850160051c820191505b8181101561206e578281556001016154db565b6001600160401b0383111561550557615505614987565b61551983615513835461532e565b836154a8565b6000601f84116001811461554d57600085156155355750838201355b600019600387901b1c1916600186901b178355611559565b600083815260209020601f19861690835b8281101561557e578685013582556020948501946001909201910161555e565b508682101561559b5760001960f88860031b161c19848701351681555b505060018560011b0183555050505050565b600082601f8301126155be57600080fd5b81516155cc614a13826149cd565b8181528460208386010111156155e157600080fd5b61174782602083016020870161488b565b600082601f83011261560357600080fd5b81516020615613614a1383614ae5565b82815260059290921b8401810191818101908684111561563257600080fd5b8286015b84811015614b635780518352918301918301615636565b6000806040838503121561566057600080fd5b82516001600160401b038082111561567757600080fd5b615683868387016155ad565b9350602085015191508082111561569957600080fd5b506156a6858286016155f2565b9150509250929050565b8284823760609190911b6001600160601b0319169101908152601401919050565b81516001600160401b038111156156ea576156ea614987565b6156fe816156f8845461532e565b846154a8565b602080601f831160018114615733576000841561571b5750858301515b600019600386901b1c1916600185901b17855561206e565b600085815260208120601f198616915b8281101561576257888601518255948401946001909101908401615743565b50858210156157805787850151600019600388901b60f8161c191681555b5050505050600190811b01905550565b600083516157a281846020880161488b565b8351908301906157b681836020880161488b565b01949350505050565b600061ffff8088168352808716602084015250846040830152608060608301526157ed608083018486615461565b979650505050505050565b61ffff86168152608060208201526000615816608083018688615461565b6001600160401b0394909416604083015250606001529392505050565b60408152600061584660408301856148af565b82810360208401526130848185614daa565b61ffff861681526001600160a01b038516602082015260a060408201819052600090615886908301866148af565b841515606084015282810360808401526158a081856148af565b98975050505050505050565b600080604083850312156158bf57600080fd5b505080516020909101519092909150565b6000602082840312156158e257600080fd5b81516001600160401b038111156158f857600080fd5b611747848285016155ad565b61ffff8516815260806020820152600061592160808301866148af565b6001600160401b038516604084015282810360608401526157ed81856148af565b6020808252602a908201527f455243323938313a20726f79616c7479206665652077696c6c206578636565646040820152692073616c65507269636560b01b606082015260800190565b634e487b7160e01b600052603260045260246000fd5b6001600160a01b038316815260406020820181905260009061174790830184614daa565b6000602082840312156159d857600080fd5b81516001600160401b038111156159ee57600080fd5b611747848285016155f2565b600060018201615a0c57615a0c6153c5565b5060010190565b60008251615a2581846020870161488b565b9190910192915050565b82815260406020820152600061174760408301846148af565b6001600160a01b0385811682528416602082015260408101839052608060608201819052600090615a7b908301846148af565b9695505050505050565b600060208284031215615a9757600080fd5b8151612648816147ec565b61ffff8616815260a060208201526000615abf60a08301876148af565b6001600160401b03861660408401528281036060840152615ae081866148af565b905082810360808401526158a081856148af565b61ffff8716815260c060208201526000615b1160c08301886148af565b8281036040840152615b2381886148af565b6001600160a01b0387811660608601528616608085015283810360a08501529050615b4e81856148af565b9998505050505050505050565b600060208284031215615b6d57600080fd5b815161264881614c0556feddf252ad1be2c89b69c2b068fc378daa952ba7f163c4a11628f55a4df523b3efa2646970667358221220ec5fc819b45fcdf90365538449f0274fa6ff838a105bd6766ecc97cf54343dd764736f6c63430008120033",
  "devdoc": {
    "events": {
      "Approval(address,address,uint256)": {
        "details": "Emitted when `owner` enables `approved` to manage the `tokenId` token."
      },
      "ApprovalForAll(address,address,bool)": {
        "details": "Emitted when `owner` enables or disables (`approved`) `operator` to manage all of its assets."
      },
      "ConsecutiveTransfer(uint256,uint256,address,address)": {
        "details": "Emitted when tokens in `fromTokenId` to `toTokenId` (inclusive) is transferred from `from` to `to`, as defined in the [ERC2309](https://eips.ethereum.org/EIPS/eip-2309) standard. See {_mintERC2309} for more details."
      },
      "CreditCleared(bytes32)": {
        "details": "Emitted when `_hashedPayload` has been completely delivered"
      },
      "CreditStored(bytes32,bytes)": {
        "details": "Emitted when `_payload` was received from lz, but not enough gas to deliver all tokenIds"
      },
      "SendToChain(uint16,address,bytes,uint256[])": {
        "details": "Emitted when `_tokenIds[]` are moved from the `_sender` to (`_dstChainId`, `_toAddress`) `_nonce` is the outbound nonce from"
      },
      "Transfer(address,address,uint256)": {
        "details": "Emitted when `tokenId` token is transferred from `from` to `to`."
      }
    },
    "kind": "dev",
    "methods": {
      "balanceOf(address)": {
        "details": "Returns the number of tokens in `owner`'s account."
      },
      "estimateSendBatchFee(uint16,bytes,uint256[],bool,bytes)": {
        "details": "estimate send token `_tokenId` to (`_dstChainId`, `_toAddress`) _dstChainId - L0 defined chain id to send tokens too _toAddress - dynamic bytes array which contains the address to whom you are sending tokens to on the dstChain _tokenIds[] - token Ids to transfer _useZro - indicates to use zro to pay L0 fees _adapterParams - flexible bytes array to indicate messaging adapter services in L0"
      },
      "estimateSendFee(uint16,bytes,uint256,bool,bytes)": {
        "details": "estimate send token `_tokenId` to (`_dstChainId`, `_toAddress`) _dstChainId - L0 defined chain id to send tokens too _toAddress - dynamic bytes array which contains the address to whom you are sending tokens to on the dstChain _tokenId - token Id to transfer _useZro - indicates to use zro to pay L0 fees _adapterParams - flexible bytes array to indicate messaging adapter services in L0"
      },
      "getApproved(uint256)": {
        "details": "Returns the account approved for `tokenId` token. Requirements: - `tokenId` must exist."
      },
      "isApprovedForAll(address,address)": {
        "details": "Returns if the `operator` is allowed to manage all of the assets of `owner`. See {setApprovalForAll}."
      },
      "name()": {
        "details": "Returns the token collection name."
      },
      "owner()": {
        "details": "Returns the address of the current owner."
      },
      "ownerOf(uint256)": {
        "details": "Returns the owner of the `tokenId` token. Requirements: - `tokenId` must exist."
      },
      "renounceOwnership()": {
        "details": "Leaves the contract without owner. It will not be possible to call `onlyOwner` functions. Can only be called by the current owner. NOTE: Renouncing ownership will leave the contract without an owner, thereby disabling any functionality that is only available to the owner."
      },
      "royaltyInfo(uint256,uint256)": {
        "details": "Returns how much royalty is owed and to whom, based on a sale price that may be denominated in any unit of exchange. The royalty amount is denominated and should be paid in that same unit of exchange."
      },
      "safeTransferFrom(address,address,uint256)": {
        "details": "Equivalent to `safeTransferFrom(from, to, tokenId, '')`."
      },
      "safeTransferFrom(address,address,uint256,bytes)": {
        "details": "Safely transfers `tokenId` token from `from` to `to`. Requirements: - `from` cannot be the zero address. - `to` cannot be the zero address. - `tokenId` token must exist and be owned by `from`. - If the caller is not `from`, it must be approved to move this token by either {approve} or {setApprovalForAll}. - If `to` refers to a smart contract, it must implement {IERC721Receiver-onERC721Received}, which is called upon a safe transfer. Emits a {Transfer} event."
      },
      "sendBatchFrom(address,uint16,bytes,uint256[],address,address,bytes)": {
        "details": "send tokens `_tokenIds[]` to (`_dstChainId`, `_toAddress`) from `_from` `_toAddress` can be any size depending on the `dstChainId`. `_zroPaymentAddress` set to address(0x0) if not paying in ZRO (LayerZero Token) `_adapterParams` is a flexible bytes array to indicate messaging adapter services"
      },
      "sendFrom(address,uint16,bytes,uint256,address,address,bytes)": {
        "details": "send token `_tokenId` to (`_dstChainId`, `_toAddress`) from `_from` `_toAddress` can be any size depending on the `dstChainId`. `_zroPaymentAddress` set to address(0x0) if not paying in ZRO (LayerZero Token) `_adapterParams` is a flexible bytes array to indicate messaging adapter services"
      },
      "setApprovalForAll(address,bool)": {
        "details": "Approve or remove `operator` as an operator for the caller. Operators can call {transferFrom} or {safeTransferFrom} for any token owned by the caller. Requirements: - The `operator` cannot be the caller. Emits an {ApprovalForAll} event."
      },
      "symbol()": {
        "details": "Returns the token collection symbol."
      },
      "tokenURI(uint256)": {
        "details": "Returns the Uniform Resource Identifier (URI) for `tokenId` token."
      },
      "totalSupply()": {
        "details": "Returns the total number of tokens in existence. Burned tokens will reduce the count. To get the total number of tokens minted, please see {_totalMinted}."
      },
      "transferFrom(address,address,uint256)": {
        "details": "Transfers `tokenId` from `from` to `to`. Requirements: - `from` cannot be the zero address. - `to` cannot be the zero address. - `tokenId` token must be owned by `from`. - If the caller is not `from`, it must be approved to move this token by either {approve} or {setApprovalForAll}. Emits a {Transfer} event."
      },
      "transferOwnership(address)": {
        "details": "Transfers ownership of the contract to a new account (`newOwner`). Can only be called by the current owner."
      }
    },
    "version": 1
  },
  "userdoc": {
    "errors": {
      "ApprovalCallerNotOwnerNorApproved()": [
        {
          "notice": "The caller must own the token or be an approved operator."
        }
      ],
      "ApprovalQueryForNonexistentToken()": [
        {
          "notice": "The token does not exist."
        }
      ],
      "BalanceQueryForZeroAddress()": [
        {
          "notice": "Cannot query the balance for the zero address."
        }
      ],
      "MintERC2309QuantityExceedsLimit()": [
        {
          "notice": "The `quantity` minted with ERC2309 exceeds the safety limit."
        }
      ],
      "MintToZeroAddress()": [
        {
          "notice": "Cannot mint to the zero address."
        }
      ],
      "MintZeroQuantity()": [
        {
          "notice": "The quantity of tokens minted must be more than zero."
        }
      ],
      "OwnerQueryForNonexistentToken()": [
        {
          "notice": "The token does not exist."
        }
      ],
      "OwnershipNotInitializedForExtraData()": [
        {
          "notice": "The `extraData` cannot be set on an unintialized ownership slot."
        }
      ],
      "TransferCallerNotOwnerNorApproved()": [
        {
          "notice": "The caller must own the token or be an approved operator."
        }
      ],
      "TransferFromIncorrectOwner()": [
        {
          "notice": "The token must be owned by `from`."
        }
      ],
      "TransferToNonERC721ReceiverImplementer()": [
        {
          "notice": "Cannot safely transfer to a contract that does not implement the ERC721Receiver interface."
        }
      ],
      "TransferToZeroAddress()": [
        {
          "notice": "Cannot transfer to the zero address."
        }
      ],
      "URIQueryForNonexistentToken()": [
        {
          "notice": "The token does not exist."
        }
      ]
    },
    "kind": "user",
    "methods": {},
    "version": 1
  },
  "storageLayout": {
    "storage": [
      {
        "astId": 2505,
        "contract": "contracts/SKB/SpheraKitBag.sol:SpheraKitBag",
        "label": "_owner",
        "offset": 0,
        "slot": "0",
        "type": "t_address"
      },
      {
        "astId": 455,
        "contract": "contracts/SKB/SpheraKitBag.sol:SpheraKitBag",
        "label": "trustedRemoteLookup",
        "offset": 0,
        "slot": "1",
        "type": "t_mapping(t_uint16,t_bytes_storage)"
      },
      {
        "astId": 461,
        "contract": "contracts/SKB/SpheraKitBag.sol:SpheraKitBag",
        "label": "minDstGasLookup",
        "offset": 0,
        "slot": "2",
        "type": "t_mapping(t_uint16,t_mapping(t_uint16,t_uint256))"
      },
      {
        "astId": 465,
        "contract": "contracts/SKB/SpheraKitBag.sol:SpheraKitBag",
        "label": "payloadSizeLimitLookup",
        "offset": 0,
        "slot": "3",
        "type": "t_mapping(t_uint16,t_uint256)"
      },
      {
        "astId": 467,
        "contract": "contracts/SKB/SpheraKitBag.sol:SpheraKitBag",
        "label": "precrime",
        "offset": 0,
        "slot": "4",
        "type": "t_address"
      },
      {
        "astId": 997,
        "contract": "contracts/SKB/SpheraKitBag.sol:SpheraKitBag",
        "label": "failedMessages",
        "offset": 0,
        "slot": "5",
        "type": "t_mapping(t_uint16,t_mapping(t_bytes_memory_ptr,t_mapping(t_uint64,t_bytes32)))"
      },
      {
        "astId": 3799,
        "contract": "contracts/SKB/SpheraKitBag.sol:SpheraKitBag",
        "label": "_defaultRoyaltyInfo",
        "offset": 0,
        "slot": "6",
        "type": "t_struct(RoyaltyInfo)3796_storage"
      },
      {
        "astId": 3804,
        "contract": "contracts/SKB/SpheraKitBag.sol:SpheraKitBag",
        "label": "_tokenRoyaltyInfo",
        "offset": 0,
        "slot": "7",
        "type": "t_mapping(t_uint256,t_struct(RoyaltyInfo)3796_storage)"
      },
      {
        "astId": 10549,
        "contract": "contracts/SKB/SpheraKitBag.sol:SpheraKitBag",
        "label": "realOwner",
        "offset": 0,
        "slot": "8",
        "type": "t_address"
      },
      {
        "astId": 2640,
        "contract": "contracts/SKB/SpheraKitBag.sol:SpheraKitBag",
        "label": "_status",
        "offset": 0,
        "slot": "9",
        "type": "t_uint256"
      },
      {
        "astId": 1718,
        "contract": "contracts/SKB/SpheraKitBag.sol:SpheraKitBag",
        "label": "minGasToTransferAndStore",
        "offset": 0,
        "slot": "10",
        "type": "t_uint256"
      },
      {
        "astId": 1722,
        "contract": "contracts/SKB/SpheraKitBag.sol:SpheraKitBag",
        "label": "dstChainIdToBatchLimit",
        "offset": 0,
        "slot": "11",
        "type": "t_mapping(t_uint16,t_uint256)"
      },
      {
        "astId": 1726,
        "contract": "contracts/SKB/SpheraKitBag.sol:SpheraKitBag",
        "label": "dstChainIdToTransferGas",
        "offset": 0,
        "slot": "12",
        "type": "t_mapping(t_uint16,t_uint256)"
      },
      {
        "astId": 1731,
        "contract": "contracts/SKB/SpheraKitBag.sol:SpheraKitBag",
        "label": "storedCredits",
        "offset": 0,
        "slot": "13",
        "type": "t_mapping(t_bytes32,t_struct(StoredCredit)1716_storage)"
      },
      {
        "astId": 12313,
        "contract": "contracts/SKB/SpheraKitBag.sol:SpheraKitBag",
        "label": "_currentIndex",
        "offset": 0,
        "slot": "14",
        "type": "t_uint256"
      },
      {
        "astId": 12315,
        "contract": "contracts/SKB/SpheraKitBag.sol:SpheraKitBag",
        "label": "_burnCounter",
        "offset": 0,
        "slot": "15",
        "type": "t_uint256"
      },
      {
        "astId": 12317,
        "contract": "contracts/SKB/SpheraKitBag.sol:SpheraKitBag",
        "label": "_name",
        "offset": 0,
        "slot": "16",
        "type": "t_string_storage"
      },
      {
        "astId": 12319,
        "contract": "contracts/SKB/SpheraKitBag.sol:SpheraKitBag",
        "label": "_symbol",
        "offset": 0,
        "slot": "17",
        "type": "t_string_storage"
      },
      {
        "astId": 12323,
        "contract": "contracts/SKB/SpheraKitBag.sol:SpheraKitBag",
        "label": "_packedOwnerships",
        "offset": 0,
        "slot": "18",
        "type": "t_mapping(t_uint256,t_uint256)"
      },
      {
        "astId": 12327,
        "contract": "contracts/SKB/SpheraKitBag.sol:SpheraKitBag",
        "label": "_packedAddressData",
        "offset": 0,
        "slot": "19",
        "type": "t_mapping(t_address,t_uint256)"
      },
      {
        "astId": 12332,
        "contract": "contracts/SKB/SpheraKitBag.sol:SpheraKitBag",
        "label": "_tokenApprovals",
        "offset": 0,
        "slot": "20",
        "type": "t_mapping(t_uint256,t_struct(TokenApprovalRef)12245_storage)"
      },
      {
        "astId": 12338,
        "contract": "contracts/SKB/SpheraKitBag.sol:SpheraKitBag",
        "label": "_operatorApprovals",
        "offset": 0,
        "slot": "21",
        "type": "t_mapping(t_address,t_mapping(t_address,t_bool))"
      },
      {
        "astId": 12024,
        "contract": "contracts/SKB/SpheraKitBag.sol:SpheraKitBag",
        "label": "gtdMerkleRoot",
        "offset": 0,
        "slot": "22",
        "type": "t_bytes32"
      },
      {
        "astId": 12026,
        "contract": "contracts/SKB/SpheraKitBag.sol:SpheraKitBag",
        "label": "fcfsMerkleRoot",
        "offset": 0,
        "slot": "23",
        "type": "t_bytes32"
      },
      {
        "astId": 11248,
        "contract": "contracts/SKB/SpheraKitBag.sol:SpheraKitBag",
        "label": "operatorFilteringEnabled",
        "offset": 0,
        "slot": "24",
        "type": "t_bool"
      },
      {
        "astId": 11251,
        "contract": "contracts/SKB/SpheraKitBag.sol:SpheraKitBag",
        "label": "initialTransferLockOn",
        "offset": 1,
        "slot": "24",
        "type": "t_bool"
      },
      {
        "astId": 11254,
        "contract": "contracts/SKB/SpheraKitBag.sol:SpheraKitBag",
        "label": "isRegistryActive",
        "offset": 2,
        "slot": "24",
        "type": "t_bool"
      },
      {
        "astId": 11256,
        "contract": "contracts/SKB/SpheraKitBag.sol:SpheraKitBag",
        "label": "registryAddress",
        "offset": 3,
        "slot": "24",
        "type": "t_address"
      },
      {
        "astId": 11280,
        "contract": "contracts/SKB/SpheraKitBag.sol:SpheraKitBag",
        "label": "currentPeriod",
        "offset": 0,
        "slot": "25",
        "type": "t_uint256"
      },
      {
        "astId": 11285,
        "contract": "contracts/SKB/SpheraKitBag.sol:SpheraKitBag",
        "label": "periodInfo",
        "offset": 0,
        "slot": "26",
        "type": "t_mapping(t_uint256,t_struct(PeriodInfo)11278_storage)"
      },
      {
        "astId": 11291,
        "contract": "contracts/SKB/SpheraKitBag.sol:SpheraKitBag",
        "label": "individualMintedInPeriod",
        "offset": 0,
        "slot": "27",
        "type": "t_mapping(t_uint256,t_mapping(t_address,t_uint256))"
      },
      {
        "astId": 11295,
        "contract": "contracts/SKB/SpheraKitBag.sol:SpheraKitBag",
        "label": "totalMintedInPeriod",
        "offset": 0,
        "slot": "28",
        "type": "t_mapping(t_uint256,t_uint64)"
      },
      {
        "astId": 11303,
        "contract": "contracts/SKB/SpheraKitBag.sol:SpheraKitBag",
        "label": "redeemInfo",
        "offset": 0,
        "slot": "29",
        "type": "t_struct(RedeemInfo)11300_storage"
      },
      {
        "astId": 11305,
        "contract": "contracts/SKB/SpheraKitBag.sol:SpheraKitBag",
        "label": "_baseTokenURI",
        "offset": 0,
        "slot": "30",
        "type": "t_string_storage"
      }
    ],
    "types": {
      "t_address": {
        "encoding": "inplace",
        "label": "address",
        "numberOfBytes": "20"
      },
      "t_bool": {
        "encoding": "inplace",
        "label": "bool",
        "numberOfBytes": "1"
      },
      "t_bytes32": {
        "encoding": "inplace",
        "label": "bytes32",
        "numberOfBytes": "32"
      },
      "t_bytes_memory_ptr": {
        "encoding": "bytes",
        "label": "bytes",
        "numberOfBytes": "32"
      },
      "t_bytes_storage": {
        "encoding": "bytes",
        "label": "bytes",
        "numberOfBytes": "32"
      },
      "t_mapping(t_address,t_bool)": {
        "encoding": "mapping",
        "key": "t_address",
        "label": "mapping(address => bool)",
        "numberOfBytes": "32",
        "value": "t_bool"
      },
      "t_mapping(t_address,t_mapping(t_address,t_bool))": {
        "encoding": "mapping",
        "key": "t_address",
        "label": "mapping(address => mapping(address => bool))",
        "numberOfBytes": "32",
        "value": "t_mapping(t_address,t_bool)"
      },
      "t_mapping(t_address,t_uint256)": {
        "encoding": "mapping",
        "key": "t_address",
        "label": "mapping(address => uint256)",
        "numberOfBytes": "32",
        "value": "t_uint256"
      },
      "t_mapping(t_bytes32,t_struct(StoredCredit)1716_storage)": {
        "encoding": "mapping",
        "key": "t_bytes32",
        "label": "mapping(bytes32 => struct ONFT721Core.StoredCredit)",
        "numberOfBytes": "32",
        "value": "t_struct(StoredCredit)1716_storage"
      },
      "t_mapping(t_bytes_memory_ptr,t_mapping(t_uint64,t_bytes32))": {
        "encoding": "mapping",
        "key": "t_bytes_memory_ptr",
        "label": "mapping(bytes => mapping(uint64 => bytes32))",
        "numberOfBytes": "32",
        "value": "t_mapping(t_uint64,t_bytes32)"
      },
      "t_mapping(t_uint16,t_bytes_storage)": {
        "encoding": "mapping",
        "key": "t_uint16",
        "label": "mapping(uint16 => bytes)",
        "numberOfBytes": "32",
        "value": "t_bytes_storage"
      },
      "t_mapping(t_uint16,t_mapping(t_bytes_memory_ptr,t_mapping(t_uint64,t_bytes32)))": {
        "encoding": "mapping",
        "key": "t_uint16",
        "label": "mapping(uint16 => mapping(bytes => mapping(uint64 => bytes32)))",
        "numberOfBytes": "32",
        "value": "t_mapping(t_bytes_memory_ptr,t_mapping(t_uint64,t_bytes32))"
      },
      "t_mapping(t_uint16,t_mapping(t_uint16,t_uint256))": {
        "encoding": "mapping",
        "key": "t_uint16",
        "label": "mapping(uint16 => mapping(uint16 => uint256))",
        "numberOfBytes": "32",
        "value": "t_mapping(t_uint16,t_uint256)"
      },
      "t_mapping(t_uint16,t_uint256)": {
        "encoding": "mapping",
        "key": "t_uint16",
        "label": "mapping(uint16 => uint256)",
        "numberOfBytes": "32",
        "value": "t_uint256"
      },
      "t_mapping(t_uint256,t_mapping(t_address,t_uint256))": {
        "encoding": "mapping",
        "key": "t_uint256",
        "label": "mapping(uint256 => mapping(address => uint256))",
        "numberOfBytes": "32",
        "value": "t_mapping(t_address,t_uint256)"
      },
      "t_mapping(t_uint256,t_struct(PeriodInfo)11278_storage)": {
        "encoding": "mapping",
        "key": "t_uint256",
        "label": "mapping(uint256 => struct SpheraKitBag.PeriodInfo)",
        "numberOfBytes": "32",
        "value": "t_struct(PeriodInfo)11278_storage"
      },
      "t_mapping(t_uint256,t_struct(RoyaltyInfo)3796_storage)": {
        "encoding": "mapping",
        "key": "t_uint256",
        "label": "mapping(uint256 => struct ERC2981.RoyaltyInfo)",
        "numberOfBytes": "32",
        "value": "t_struct(RoyaltyInfo)3796_storage"
      },
      "t_mapping(t_uint256,t_struct(TokenApprovalRef)12245_storage)": {
        "encoding": "mapping",
        "key": "t_uint256",
        "label": "mapping(uint256 => struct ERC721A.TokenApprovalRef)",
        "numberOfBytes": "32",
        "value": "t_struct(TokenApprovalRef)12245_storage"
      },
      "t_mapping(t_uint256,t_uint256)": {
        "encoding": "mapping",
        "key": "t_uint256",
        "label": "mapping(uint256 => uint256)",
        "numberOfBytes": "32",
        "value": "t_uint256"
      },
      "t_mapping(t_uint256,t_uint64)": {
        "encoding": "mapping",
        "key": "t_uint256",
        "label": "mapping(uint256 => uint64)",
        "numberOfBytes": "32",
        "value": "t_uint64"
      },
      "t_mapping(t_uint64,t_bytes32)": {
        "encoding": "mapping",
        "key": "t_uint64",
        "label": "mapping(uint64 => bytes32)",
        "numberOfBytes": "32",
        "value": "t_bytes32"
      },
      "t_string_storage": {
        "encoding": "bytes",
        "label": "string",
        "numberOfBytes": "32"
      },
      "t_struct(PeriodInfo)11278_storage": {
        "encoding": "inplace",
        "label": "struct SpheraKitBag.PeriodInfo",
        "members": [
          {
            "astId": 11269,
            "contract": "contracts/SKB/SpheraKitBag.sol:SpheraKitBag",
            "label": "startTime",
            "offset": 0,
            "slot": "0",
            "type": "t_uint32"
          },
          {
            "astId": 11271,
            "contract": "contracts/SKB/SpheraKitBag.sol:SpheraKitBag",
            "label": "endTime",
            "offset": 4,
            "slot": "0",
            "type": "t_uint32"
          },
          {
            "astId": 11273,
            "contract": "contracts/SKB/SpheraKitBag.sol:SpheraKitBag",
            "label": "price",
            "offset": 8,
            "slot": "0",
            "type": "t_uint64"
          },
          {
            "astId": 11275,
            "contract": "contracts/SKB/SpheraKitBag.sol:SpheraKitBag",
            "label": "MAX_MINT_ALLOWED",
            "offset": 16,
            "slot": "0",
            "type": "t_uint64"
          },
          {
            "astId": 11277,
            "contract": "contracts/SKB/SpheraKitBag.sol:SpheraKitBag",
            "label": "MAX_SUPPLY",
            "offset": 24,
            "slot": "0",
            "type": "t_uint64"
          }
        ],
        "numberOfBytes": "32"
      },
      "t_struct(RedeemInfo)11300_storage": {
        "encoding": "inplace",
        "label": "struct SpheraKitBag.RedeemInfo",
        "members": [
          {
            "astId": 11297,
            "contract": "contracts/SKB/SpheraKitBag.sol:SpheraKitBag",
            "label": "redeemBagOpen",
            "offset": 0,
            "slot": "0",
            "type": "t_bool"
          },
          {
            "astId": 11299,
            "contract": "contracts/SKB/SpheraKitBag.sol:SpheraKitBag",
            "label": "BagRedeemer",
            "offset": 1,
            "slot": "0",
            "type": "t_address"
          }
        ],
        "numberOfBytes": "32"
      },
      "t_struct(RoyaltyInfo)3796_storage": {
        "encoding": "inplace",
        "label": "struct ERC2981.RoyaltyInfo",
        "members": [
          {
            "astId": 3793,
            "contract": "contracts/SKB/SpheraKitBag.sol:SpheraKitBag",
            "label": "receiver",
            "offset": 0,
            "slot": "0",
            "type": "t_address"
          },
          {
            "astId": 3795,
            "contract": "contracts/SKB/SpheraKitBag.sol:SpheraKitBag",
            "label": "royaltyFraction",
            "offset": 20,
            "slot": "0",
            "type": "t_uint96"
          }
        ],
        "numberOfBytes": "32"
      },
      "t_struct(StoredCredit)1716_storage": {
        "encoding": "inplace",
        "label": "struct ONFT721Core.StoredCredit",
        "members": [
          {
            "astId": 1709,
            "contract": "contracts/SKB/SpheraKitBag.sol:SpheraKitBag",
            "label": "srcChainId",
            "offset": 0,
            "slot": "0",
            "type": "t_uint16"
          },
          {
            "astId": 1711,
            "contract": "contracts/SKB/SpheraKitBag.sol:SpheraKitBag",
            "label": "toAddress",
            "offset": 2,
            "slot": "0",
            "type": "t_address"
          },
          {
            "astId": 1713,
            "contract": "contracts/SKB/SpheraKitBag.sol:SpheraKitBag",
            "label": "index",
            "offset": 0,
            "slot": "1",
            "type": "t_uint256"
          },
          {
            "astId": 1715,
            "contract": "contracts/SKB/SpheraKitBag.sol:SpheraKitBag",
            "label": "creditsRemain",
            "offset": 0,
            "slot": "2",
            "type": "t_bool"
          }
        ],
        "numberOfBytes": "96"
      },
      "t_struct(TokenApprovalRef)12245_storage": {
        "encoding": "inplace",
        "label": "struct ERC721A.TokenApprovalRef",
        "members": [
          {
            "astId": 12244,
            "contract": "contracts/SKB/SpheraKitBag.sol:SpheraKitBag",
            "label": "value",
            "offset": 0,
            "slot": "0",
            "type": "t_address"
          }
        ],
        "numberOfBytes": "32"
      },
      "t_uint16": {
        "encoding": "inplace",
        "label": "uint16",
        "numberOfBytes": "2"
      },
      "t_uint256": {
        "encoding": "inplace",
        "label": "uint256",
        "numberOfBytes": "32"
      },
      "t_uint32": {
        "encoding": "inplace",
        "label": "uint32",
        "numberOfBytes": "4"
      },
      "t_uint64": {
        "encoding": "inplace",
        "label": "uint64",
        "numberOfBytes": "8"
      },
      "t_uint96": {
        "encoding": "inplace",
        "label": "uint96",
        "numberOfBytes": "12"
      }
    }
  }
}