{
  "address": "0x744f391bD993BC17e0D2f057D3c098E3EcD168ED",
  "abi": [
    {
      "inputs": [
        {
          "internalType": "uint256",
          "name": "_maxSupply",
          "type": "uint256"
        },
        {
          "internalType": "address payable",
          "name": "_withdrawAddress",
          "type": "address"
        }
      ],
      "stateMutability": "nonpayable",
      "type": "constructor"
    },
    {
      "inputs": [],
      "name": "AllowlistMintNotOpen",
      "type": "error"
    },
    {
      "inputs": [],
      "name": "ApprovalCallerNotOwnerNorApproved",
      "type": "error"
    },
    {
      "inputs": [],
      "name": "ApprovalQueryForNonexistentToken",
      "type": "error"
    },
    {
      "inputs": [],
      "name": "BagRedeemerNotSet",
      "type": "error"
    },
    {
      "inputs": [],
      "name": "BalanceQueryForZeroAddress",
      "type": "error"
    },
    {
      "inputs": [],
      "name": "ForceRedeemBagOwnerMismatch",
      "type": "error"
    },
    {
      "inputs": [],
      "name": "InitialTransferLockOn",
      "type": "error"
    },
    {
      "inputs": [],
      "name": "InsufficientFunds",
      "type": "error"
    },
    {
      "inputs": [],
      "name": "InvalidPeriodSetup",
      "type": "error"
    },
    {
      "inputs": [],
      "name": "MaxPeriodMintSupplyReached",
      "type": "error"
    },
    {
      "inputs": [],
      "name": "MintERC2309QuantityExceedsLimit",
      "type": "error"
    },
    {
      "inputs": [],
      "name": "MintToZeroAddress",
      "type": "error"
    },
    {
      "inputs": [],
      "name": "MintZeroQuantity",
      "type": "error"
    },
    {
      "inputs": [],
      "name": "MintingTooMuchInPeriod",
      "type": "error"
    },
    {
      "inputs": [],
      "name": "MismatchedArrays",
      "type": "error"
    },
    {
      "inputs": [],
      "name": "NotAllowedByRegistry",
      "type": "error"
    },
    {
      "inputs": [],
      "name": "OverMaxSupply",
      "type": "error"
    },
    {
      "inputs": [],
      "name": "OwnerQueryForNonexistentToken",
      "type": "error"
    },
    {
      "inputs": [],
      "name": "OwnershipNotInitializedForExtraData",
      "type": "error"
    },
    {
      "inputs": [],
      "name": "PeriodNotOpen",
      "type": "error"
    },
    {
      "inputs": [],
      "name": "RedeemBagNotOpen",
      "type": "error"
    },
    {
      "inputs": [],
      "name": "RegistryNotSet",
      "type": "error"
    },
    {
      "inputs": [],
      "name": "TransferCallerNotOwnerNorApproved",
      "type": "error"
    },
    {
      "inputs": [],
      "name": "TransferFromIncorrectOwner",
      "type": "error"
    },
    {
      "inputs": [],
      "name": "TransferToNonERC721ReceiverImplementer",
      "type": "error"
    },
    {
      "inputs": [],
      "name": "TransferToZeroAddress",
      "type": "error"
    },
    {
      "inputs": [],
      "name": "URIQueryForNonexistentToken",
      "type": "error"
    },
    {
      "inputs": [],
      "name": "WithdrawFailed",
      "type": "error"
    },
    {
      "anonymous": false,
      "inputs": [
        {
          "indexed": true,
          "internalType": "uint256",
          "name": "chunkNum",
          "type": "uint256"
        }
      ],
      "name": "AirdroppedChunk",
      "type": "event"
    },
    {
      "anonymous": false,
      "inputs": [
        {
          "indexed": true,
          "internalType": "address",
          "name": "owner",
          "type": "address"
        },
        {
          "indexed": true,
          "internalType": "address",
          "name": "approved",
          "type": "address"
        },
        {
          "indexed": true,
          "internalType": "uint256",
          "name": "tokenId",
          "type": "uint256"
        }
      ],
      "name": "Approval",
      "type": "event"
    },
    {
      "anonymous": false,
      "inputs": [
        {
          "indexed": true,
          "internalType": "address",
          "name": "owner",
          "type": "address"
        },
        {
          "indexed": true,
          "internalType": "address",
          "name": "operator",
          "type": "address"
        },
        {
          "indexed": false,
          "internalType": "bool",
          "name": "approved",
          "type": "bool"
        }
      ],
      "name": "ApprovalForAll",
      "type": "event"
    },
    {
      "anonymous": false,
      "inputs": [
        {
          "indexed": true,
          "internalType": "uint256",
          "name": "sourceAzukiId",
          "type": "uint256"
        },
        {
          "indexed": true,
          "internalType": "uint256",
          "name": "BagId",
          "type": "uint256"
        }
      ],
      "name": "ClaimedBag",
      "type": "event"
    },
    {
      "anonymous": false,
      "inputs": [
        {
          "indexed": true,
          "internalType": "uint256",
          "name": "fromTokenId",
          "type": "uint256"
        },
        {
          "indexed": false,
          "internalType": "uint256",
          "name": "toTokenId",
          "type": "uint256"
        },
        {
          "indexed": true,
          "internalType": "address",
          "name": "from",
          "type": "address"
        },
        {
          "indexed": true,
          "internalType": "address",
          "name": "to",
          "type": "address"
        }
      ],
      "name": "ConsecutiveTransfer",
      "type": "event"
    },
    {
      "anonymous": false,
      "inputs": [
        {
          "indexed": true,
          "internalType": "address",
          "name": "previousOwner",
          "type": "address"
        },
        {
          "indexed": true,
          "internalType": "address",
          "name": "newOwner",
          "type": "address"
        }
      ],
      "name": "OwnershipTransferred",
      "type": "event"
    },
    {
      "anonymous": false,
      "inputs": [
        {
          "indexed": true,
          "internalType": "address",
          "name": "minter",
          "type": "address"
        },
        {
          "indexed": false,
          "internalType": "uint256",
          "name": "period",
          "type": "uint256"
        },
        {
          "indexed": true,
          "internalType": "uint16",
          "name": "amount",
          "type": "uint16"
        }
      ],
      "name": "PeriodMint",
      "type": "event"
    },
    {
      "anonymous": false,
      "inputs": [
        {
          "indexed": true,
          "internalType": "address",
          "name": "from",
          "type": "address"
        },
        {
          "indexed": true,
          "internalType": "address",
          "name": "to",
          "type": "address"
        },
        {
          "indexed": true,
          "internalType": "uint256",
          "name": "tokenId",
          "type": "uint256"
        }
      ],
      "name": "Transfer",
      "type": "event"
    },
    {
      "inputs": [],
      "name": "FSFS_PERIOD",
      "outputs": [
        {
          "internalType": "uint256",
          "name": "",
          "type": "uint256"
        }
      ],
      "stateMutability": "view",
      "type": "function"
    },
    {
      "inputs": [],
      "name": "GTD_PERIOD",
      "outputs": [
        {
          "internalType": "uint256",
          "name": "",
          "type": "uint256"
        }
      ],
      "stateMutability": "view",
      "type": "function"
    },
    {
      "inputs": [],
      "name": "MAX_SUPPLY",
      "outputs": [
        {
          "internalType": "uint256",
          "name": "",
          "type": "uint256"
        }
      ],
      "stateMutability": "view",
      "type": "function"
    },
    {
      "inputs": [],
      "name": "MINT_BATCH_SIZE",
      "outputs": [
        {
          "internalType": "uint256",
          "name": "",
          "type": "uint256"
        }
      ],
      "stateMutability": "view",
      "type": "function"
    },
    {
      "inputs": [],
      "name": "PUBLIC_PERIOD",
      "outputs": [
        {
          "internalType": "uint256",
          "name": "",
          "type": "uint256"
        }
      ],
      "stateMutability": "view",
      "type": "function"
    },
    {
      "inputs": [],
      "name": "WITHDRAW_ADDRESS",
      "outputs": [
        {
          "internalType": "address payable",
          "name": "",
          "type": "address"
        }
      ],
      "stateMutability": "view",
      "type": "function"
    },
    {
      "inputs": [],
      "name": "allowlistMint",
      "outputs": [],
      "stateMutability": "payable",
      "type": "function"
    },
    {
      "inputs": [],
      "name": "allowlistMintPrice",
      "outputs": [
        {
          "internalType": "uint256",
          "name": "",
          "type": "uint256"
        }
      ],
      "stateMutability": "view",
      "type": "function"
    },
    {
      "inputs": [
        {
          "internalType": "address",
          "name": "",
          "type": "address"
        }
      ],
      "name": "allowlistMintsAlloc",
      "outputs": [
        {
          "internalType": "uint256",
          "name": "",
          "type": "uint256"
        }
      ],
      "stateMutability": "view",
      "type": "function"
    },
    {
      "inputs": [
        {
          "internalType": "address",
          "name": "operator",
          "type": "address"
        },
        {
          "internalType": "uint256",
          "name": "tokenId",
          "type": "uint256"
        }
      ],
      "name": "approve",
      "outputs": [],
      "stateMutability": "payable",
      "type": "function"
    },
    {
      "inputs": [
        {
          "internalType": "address",
          "name": "owner",
          "type": "address"
        }
      ],
      "name": "balanceOf",
      "outputs": [
        {
          "internalType": "uint256",
          "name": "",
          "type": "uint256"
        }
      ],
      "stateMutability": "view",
      "type": "function"
    },
    {
      "inputs": [],
      "name": "breakTransferLock",
      "outputs": [],
      "stateMutability": "nonpayable",
      "type": "function"
    },
    {
      "inputs": [
        {
          "internalType": "address",
          "name": "BagOwner",
          "type": "address"
        },
        {
          "internalType": "uint256[]",
          "name": "BagIds",
          "type": "uint256[]"
        }
      ],
      "name": "forceRedeemBags",
      "outputs": [
        {
          "internalType": "uint256[]",
          "name": "",
          "type": "uint256[]"
        }
      ],
      "stateMutability": "nonpayable",
      "type": "function"
    },
    {
      "inputs": [
        {
          "internalType": "uint256",
          "name": "tokenId",
          "type": "uint256"
        }
      ],
      "name": "getApproved",
      "outputs": [
        {
          "internalType": "address",
          "name": "",
          "type": "address"
        }
      ],
      "stateMutability": "view",
      "type": "function"
    },
    {
      "inputs": [
        {
          "internalType": "uint256",
          "name": "",
          "type": "uint256"
        },
        {
          "internalType": "address",
          "name": "",
          "type": "address"
        }
      ],
      "name": "individualMintedInPeriod",
      "outputs": [
        {
          "internalType": "uint256",
          "name": "",
          "type": "uint256"
        }
      ],
      "stateMutability": "view",
      "type": "function"
    },
    {
      "inputs": [],
      "name": "initialTransferLockOn",
      "outputs": [
        {
          "internalType": "bool",
          "name": "",
          "type": "bool"
        }
      ],
      "stateMutability": "view",
      "type": "function"
    },
    {
      "inputs": [
        {
          "internalType": "address",
          "name": "owner",
          "type": "address"
        },
        {
          "internalType": "address",
          "name": "operator",
          "type": "address"
        }
      ],
      "name": "isApprovedForAll",
      "outputs": [
        {
          "internalType": "bool",
          "name": "",
          "type": "bool"
        }
      ],
      "stateMutability": "view",
      "type": "function"
    },
    {
      "inputs": [],
      "name": "isRegistryActive",
      "outputs": [
        {
          "internalType": "bool",
          "name": "",
          "type": "bool"
        }
      ],
      "stateMutability": "view",
      "type": "function"
    },
    {
      "inputs": [],
      "name": "name",
      "outputs": [
        {
          "internalType": "string",
          "name": "",
          "type": "string"
        }
      ],
      "stateMutability": "view",
      "type": "function"
    },
    {
      "inputs": [],
      "name": "openRedeemBagState",
      "outputs": [],
      "stateMutability": "nonpayable",
      "type": "function"
    },
    {
      "inputs": [],
      "name": "operatorFilteringEnabled",
      "outputs": [
        {
          "internalType": "bool",
          "name": "",
          "type": "bool"
        }
      ],
      "stateMutability": "view",
      "type": "function"
    },
    {
      "inputs": [],
      "name": "owner",
      "outputs": [
        {
          "internalType": "address",
          "name": "",
          "type": "address"
        }
      ],
      "stateMutability": "view",
      "type": "function"
    },
    {
      "inputs": [
        {
          "internalType": "uint256",
          "name": "tokenId",
          "type": "uint256"
        }
      ],
      "name": "ownerOf",
      "outputs": [
        {
          "internalType": "address",
          "name": "",
          "type": "address"
        }
      ],
      "stateMutability": "view",
      "type": "function"
    },
    {
      "inputs": [],
      "name": "period",
      "outputs": [
        {
          "internalType": "uint256",
          "name": "",
          "type": "uint256"
        }
      ],
      "stateMutability": "view",
      "type": "function"
    },
    {
      "inputs": [
        {
          "internalType": "uint256",
          "name": "",
          "type": "uint256"
        }
      ],
      "name": "periodInfo",
      "outputs": [
        {
          "internalType": "uint32",
          "name": "startTime",
          "type": "uint32"
        },
        {
          "internalType": "uint32",
          "name": "endTime",
          "type": "uint32"
        },
        {
          "internalType": "uint64",
          "name": "price",
          "type": "uint64"
        },
        {
          "internalType": "uint64",
          "name": "MAX_MINT_ALLOWED",
          "type": "uint64"
        },
        {
          "internalType": "uint64",
          "name": "MAX_SUPPLY",
          "type": "uint64"
        }
      ],
      "stateMutability": "view",
      "type": "function"
    },
    {
      "inputs": [
        {
          "internalType": "uint256",
          "name": "_period",
          "type": "uint256"
        },
        {
          "internalType": "uint16",
          "name": "amount",
          "type": "uint16"
        }
      ],
      "name": "periodMint",
      "outputs": [],
      "stateMutability": "payable",
      "type": "function"
    },
    {
      "inputs": [],
      "name": "realOwner",
      "outputs": [
        {
          "internalType": "address",
          "name": "",
          "type": "address"
        }
      ],
      "stateMutability": "view",
      "type": "function"
    },
    {
      "inputs": [
        {
          "internalType": "uint256[]",
          "name": "BagIds",
          "type": "uint256[]"
        }
      ],
      "name": "redeemBags",
      "outputs": [
        {
          "internalType": "uint256[]",
          "name": "",
          "type": "uint256[]"
        }
      ],
      "stateMutability": "nonpayable",
      "type": "function"
    },
    {
      "inputs": [],
      "name": "redeemInfo",
      "outputs": [
        {
          "internalType": "bool",
          "name": "redeemBagOpen",
          "type": "bool"
        },
        {
          "internalType": "address",
          "name": "BagRedeemer",
          "type": "address"
        }
      ],
      "stateMutability": "view",
      "type": "function"
    },
    {
      "inputs": [],
      "name": "registryAddress",
      "outputs": [
        {
          "internalType": "address",
          "name": "",
          "type": "address"
        }
      ],
      "stateMutability": "view",
      "type": "function"
    },
    {
      "inputs": [],
      "name": "renounceOwnership",
      "outputs": [],
      "stateMutability": "nonpayable",
      "type": "function"
    },
    {
      "inputs": [
        {
          "internalType": "uint256",
          "name": "tokenId",
          "type": "uint256"
        },
        {
          "internalType": "uint256",
          "name": "salePrice",
          "type": "uint256"
        }
      ],
      "name": "royaltyInfo",
      "outputs": [
        {
          "internalType": "address",
          "name": "",
          "type": "address"
        },
        {
          "internalType": "uint256",
          "name": "",
          "type": "uint256"
        }
      ],
      "stateMutability": "view",
      "type": "function"
    },
    {
      "inputs": [
        {
          "internalType": "address",
          "name": "from",
          "type": "address"
        },
        {
          "internalType": "address",
          "name": "to",
          "type": "address"
        },
        {
          "internalType": "uint256",
          "name": "tokenId",
          "type": "uint256"
        }
      ],
      "name": "safeTransferFrom",
      "outputs": [],
      "stateMutability": "payable",
      "type": "function"
    },
    {
      "inputs": [
        {
          "internalType": "address",
          "name": "from",
          "type": "address"
        },
        {
          "internalType": "address",
          "name": "to",
          "type": "address"
        },
        {
          "internalType": "uint256",
          "name": "tokenId",
          "type": "uint256"
        },
        {
          "internalType": "bytes",
          "name": "_data",
          "type": "bytes"
        }
      ],
      "name": "safeTransferFrom",
      "outputs": [],
      "stateMutability": "payable",
      "type": "function"
    },
    {
      "inputs": [
        {
          "internalType": "uint256",
          "name": "price",
          "type": "uint256"
        }
      ],
      "name": "setAllowlistMintPrice",
      "outputs": [],
      "stateMutability": "nonpayable",
      "type": "function"
    },
    {
      "inputs": [
        {
          "internalType": "address[]",
          "name": "addresses",
          "type": "address[]"
        },
        {
          "internalType": "uint256[]",
          "name": "amounts",
          "type": "uint256[]"
        }
      ],
      "name": "setAllowlistMintsAlloc",
      "outputs": [],
      "stateMutability": "nonpayable",
      "type": "function"
    },
    {
      "inputs": [
        {
          "internalType": "address",
          "name": "operator",
          "type": "address"
        },
        {
          "internalType": "bool",
          "name": "approved",
          "type": "bool"
        }
      ],
      "name": "setApprovalForAll",
      "outputs": [],
      "stateMutability": "nonpayable",
      "type": "function"
    },
    {
      "inputs": [
        {
          "internalType": "address",
          "name": "contractAddress",
          "type": "address"
        }
      ],
      "name": "setBagRedeemer",
      "outputs": [],
      "stateMutability": "nonpayable",
      "type": "function"
    },
    {
      "inputs": [
        {
          "internalType": "string",
          "name": "baseURI",
          "type": "string"
        }
      ],
      "name": "setBaseURI",
      "outputs": [],
      "stateMutability": "nonpayable",
      "type": "function"
    },
    {
      "inputs": [
        {
          "internalType": "address",
          "name": "receiver",
          "type": "address"
        },
        {
          "internalType": "uint96",
          "name": "feeNumerator",
          "type": "uint96"
        }
      ],
      "name": "setDefaultRoyalty",
      "outputs": [],
      "stateMutability": "nonpayable",
      "type": "function"
    },
    {
      "inputs": [
        {
          "internalType": "bool",
          "name": "_isRegistryActive",
          "type": "bool"
        }
      ],
      "name": "setIsRegistryActive",
      "outputs": [],
      "stateMutability": "nonpayable",
      "type": "function"
    },
    {
      "inputs": [
        {
          "internalType": "bool",
          "name": "value",
          "type": "bool"
        }
      ],
      "name": "setOperatorFilteringEnabled",
      "outputs": [],
      "stateMutability": "nonpayable",
      "type": "function"
    },
    {
      "inputs": [
        {
          "internalType": "uint256",
          "name": "_period",
          "type": "uint256"
        }
      ],
      "name": "setPeriod",
      "outputs": [],
      "stateMutability": "nonpayable",
      "type": "function"
    },
    {
      "inputs": [
        {
          "internalType": "uint256",
          "name": "_period",
          "type": "uint256"
        },
        {
          "internalType": "uint32",
          "name": "_startTime",
          "type": "uint32"
        },
        {
          "internalType": "uint32",
          "name": "_endTime",
          "type": "uint32"
        },
        {
          "internalType": "uint64",
          "name": "_price",
          "type": "uint64"
        },
        {
          "internalType": "uint64",
          "name": "_MAX_MINT_ALLOWED",
          "type": "uint64"
        },
        {
          "internalType": "uint64",
          "name": "_MAX_SUPPLY",
          "type": "uint64"
        }
      ],
      "name": "setPeriodParams",
      "outputs": [],
      "stateMutability": "nonpayable",
      "type": "function"
    },
    {
      "inputs": [
        {
          "internalType": "address",
          "name": "_registryAddress",
          "type": "address"
        }
      ],
      "name": "setRegistryAddress",
      "outputs": [],
      "stateMutability": "nonpayable",
      "type": "function"
    },
    {
      "inputs": [
        {
          "internalType": "uint256",
          "name": "tokenId",
          "type": "uint256"
        },
        {
          "internalType": "address",
          "name": "receiver",
          "type": "address"
        },
        {
          "internalType": "uint96",
          "name": "feeNumerator",
          "type": "uint96"
        }
      ],
      "name": "setTokenRoyalty",
      "outputs": [],
      "stateMutability": "nonpayable",
      "type": "function"
    },
    {
      "inputs": [
        {
          "internalType": "bytes4",
          "name": "interfaceId",
          "type": "bytes4"
        }
      ],
      "name": "supportsInterface",
      "outputs": [
        {
          "internalType": "bool",
          "name": "",
          "type": "bool"
        }
      ],
      "stateMutability": "view",
      "type": "function"
    },
    {
      "inputs": [],
      "name": "symbol",
      "outputs": [
        {
          "internalType": "string",
          "name": "",
          "type": "string"
        }
      ],
      "stateMutability": "view",
      "type": "function"
    },
    {
      "inputs": [
        {
          "internalType": "uint256",
          "name": "tokenId",
          "type": "uint256"
        }
      ],
      "name": "tokenURI",
      "outputs": [
        {
          "internalType": "string",
          "name": "",
          "type": "string"
        }
      ],
      "stateMutability": "view",
      "type": "function"
    },
    {
      "inputs": [
        {
          "internalType": "uint256",
          "name": "",
          "type": "uint256"
        }
      ],
      "name": "totalMintedInPeriod",
      "outputs": [
        {
          "internalType": "uint64",
          "name": "",
          "type": "uint64"
        }
      ],
      "stateMutability": "view",
      "type": "function"
    },
    {
      "inputs": [],
      "name": "totalSupply",
      "outputs": [
        {
          "internalType": "uint256",
          "name": "",
          "type": "uint256"
        }
      ],
      "stateMutability": "view",
      "type": "function"
    },
    {
      "inputs": [
        {
          "internalType": "address",
          "name": "from",
          "type": "address"
        },
        {
          "internalType": "address",
          "name": "to",
          "type": "address"
        },
        {
          "internalType": "uint256",
          "name": "tokenId",
          "type": "uint256"
        }
      ],
      "name": "transferFrom",
      "outputs": [],
      "stateMutability": "payable",
      "type": "function"
    },
    {
      "inputs": [
        {
          "internalType": "address",
          "name": "newOwner",
          "type": "address"
        }
      ],
      "name": "transferLowerOwnership",
      "outputs": [],
      "stateMutability": "nonpayable",
      "type": "function"
    },
    {
      "inputs": [
        {
          "internalType": "address",
          "name": "newOwner",
          "type": "address"
        }
      ],
      "name": "transferOwnership",
      "outputs": [],
      "stateMutability": "nonpayable",
      "type": "function"
    },
    {
      "inputs": [
        {
          "internalType": "address",
          "name": "newRealOwner",
          "type": "address"
        }
      ],
      "name": "transferRealOwnership",
      "outputs": [],
      "stateMutability": "nonpayable",
      "type": "function"
    },
    {
      "inputs": [],
      "name": "withdraw",
      "outputs": [],
      "stateMutability": "nonpayable",
      "type": "function"
    }
  ],
  "transactionHash": "0xdae8d1e86efc40b3ffb0b9f92e93aecea57f93c8749d64cece143a075e002c77",
  "args": [
    3000,
    "0x43b1DB0EC2167C8811cA0216A35B3bEfc339689c"
  ],
  "numDeployments": 1,
  "solcInputHash": "bd716d88cb179309ca8ec552d03d4f57",
  "bytecode": "0x60c0604052600e805462ffffff19166101011790553480156200002157600080fd5b506040516200334a3803806200334a833981016040819052620000449162000144565b6040518060400160405280600c81526020016b5370686572614b697442616760a01b8152506040518060400160405280600381526020016229a5a160e91b8152506200009f62000099620000ee60201b60201c565b620000f2565b600380546001600160a01b031916331790556006620000bf838262000228565b506007620000ce828262000228565b50600060045550506080919091526001600160a01b031660a052620002f4565b3390565b600280546001600160a01b038381166001600160a01b0319831681179093556040519116919082907f8be0079c531659141344cd1fd0a4f28419497f9722a3daafe3b4186f6b6457e090600090a35050565b600080604083850312156200015857600080fd5b825160208401519092506001600160a01b03811681146200017857600080fd5b809150509250929050565b634e487b7160e01b600052604160045260246000fd5b600181811c90821680620001ae57607f821691505b602082108103620001cf57634e487b7160e01b600052602260045260246000fd5b50919050565b601f8211156200022357600081815260208120601f850160051c81016020861015620001fe5750805b601f850160051c820191505b818110156200021f578281556001016200020a565b5050505b505050565b81516001600160401b0381111562000244576200024462000183565b6200025c8162000255845462000199565b84620001d5565b602080601f8311600181146200029457600084156200027b5750858301515b600019600386901b1c1916600185901b1785556200021f565b600085815260208120601f198616915b82811015620002c557888601518255948401946001909101908401620002a4565b5085821015620002e45787850151600019600388901b60f8161c191681555b5050505050600190811b01905550565b60805160a05161301b6200032f600039600081816104860152610e820152600081816105e601528181610f7b0152611178015261301b6000f3fe60806040526004361061036b5760003560e01c806370a08231116101c6578063b88d4fde116100f7578063ef78d4fd11610095578063f49ed4e71161006f578063f49ed4e714610ad3578063f80067df14610ae9578063f99de7a014610b16578063fb796e6c14610b3657600080fd5b8063ef78d4fd14610a54578063efe7aa4914610a6a578063f2fde38b14610ab357600080fd5b8063d6843409116100d1578063d6843409146109a4578063e985e9c5146109c4578063eb3f3e0114610a0d578063ed9aab5114610a2d57600080fd5b8063b88d4fde1461095c578063c87b56dd1461096f578063d54835891461098f57600080fd5b8063a22cb46511610164578063ab7b49931161013e578063ab7b4993146108e7578063abd017ea14610907578063adceef0714610927578063b7c0b8e81461093c57600080fd5b8063a22cb4651461080d578063a4d800861461082d578063a7ec1765146108d257600080fd5b80637bcbf571116101a05780637bcbf571146107a55780638da5cb5b146107ba57806395d89b41146107d85780639c4477e2146107ed57600080fd5b806370a082311461075b578063715018a61461077b578063719bebbd1461079057600080fd5b80632a55205a116102a0578063467c7ed31161023e5780635594c545116102185780635594c545146106e657806355f804b3146106fb5780635944c7531461071b5780636352211e1461073b57600080fd5b8063467c7ed31461068657806346fff98d146106995780634d8afe27146106b957600080fd5b80633960be691161027a5780633960be69146106085780633ccfd60b1461065657806341fbddbd1461066b57806342842e0e1461067357600080fd5b80632a55205a146105755780632cff6770146105b457806332cb6b0c146105d457600080fd5b8063122e04a81161030d57806318443df5116102e757806318443df5146104ea578063190240471461050a5780631df270f31461054257806323b872dd1461056257600080fd5b8063122e04a81461047457806312b36510146104a857806318160ddd146104c757600080fd5b8063081812fc11610349578063081812fc146103e9578063095ea7b31461042157806309af3f9a146104345780630f3a9f651461045457600080fd5b806301ffc9a71461037057806304634d8d146103a557806306fdde03146103c7575b600080fd5b34801561037c57600080fd5b5061039061038b366004612577565b610b50565b60405190151581526020015b60405180910390f35b3480156103b157600080fd5b506103c56103c03660046125c7565b610b70565b005b3480156103d357600080fd5b506103dc610b86565b60405161039c919061264a565b3480156103f557600080fd5b5061040961040436600461265d565b610c18565b6040516001600160a01b03909116815260200161039c565b6103c561042f366004612676565b610c5c565b34801561044057600080fd5b506103c561044f3660046126a0565b610ca9565b34801561046057600080fd5b506103c561046f36600461265d565b610ce8565b34801561048057600080fd5b506104097f000000000000000000000000000000000000000000000000000000000000000081565b3480156104b457600080fd5b50600e5461039090610100900460ff1681565b3480156104d357600080fd5b50600554600454035b60405190815260200161039c565b3480156104f657600080fd5b506103c56105053660046126a0565b610cf5565b34801561051657600080fd5b506104dc6105253660046126bb565b601060209081526000928352604080842090915290825290205481565b34801561054e57600080fd5b50600354610409906001600160a01b031681565b6103c56105703660046126de565b610d4e565b34801561058157600080fd5b5061059561059036600461271a565b610d84565b604080516001600160a01b03909316835260208301919091520161039c565b3480156105c057600080fd5b506103c56105cf3660046126a0565b610e32565b3480156105e057600080fd5b506104dc7f000000000000000000000000000000000000000000000000000000000000000081565b34801561061457600080fd5b5061063e61062336600461265d565b6011602052600090815260409020546001600160401b031681565b6040516001600160401b03909116815260200161039c565b34801561066257600080fd5b506103c5610e7e565b6103c5610f12565b6103c56106813660046126de565b610fe7565b6103c561069436600461273c565b611002565b3480156106a557600080fd5b506103c56106b4366004612781565b6112a9565b3480156106c557600080fd5b506106d96106d43660046127e2565b6112fd565b60405161039c919061285e565b3480156106f257600080fd5b506104dc600381565b34801561070757600080fd5b506103c5610716366004612871565b611394565b34801561072757600080fd5b506103c56107363660046128e2565b6113a9565b34801561074757600080fd5b5061040961075636600461265d565b6113bc565b34801561076757600080fd5b506104dc6107763660046126a0565b6113c7565b34801561078757600080fd5b506103c5611415565b34801561079c57600080fd5b506103c5611429565b3480156107b157600080fd5b506103c56114ba565b3480156107c657600080fd5b506002546001600160a01b0316610409565b3480156107e457600080fd5b506103dc6114cf565b3480156107f957600080fd5b506106d961080836600461291e565b6114de565b34801561081957600080fd5b506103c5610828366004612970565b61159e565b34801561083957600080fd5b5061089461084836600461265d565b600f6020526000908152604090205463ffffffff808216916401000000008104909116906001600160401b03600160401b8204811691600160801b8104821691600160c01b9091041685565b6040805163ffffffff96871681529590941660208601526001600160401b03928316938501939093528116606084015216608082015260a00161039c565b3480156108de57600080fd5b506104dc600181565b3480156108f357600080fd5b506103c56109023660046126a0565b6115e6565b34801561091357600080fd5b50600e546103909062010000900460ff1681565b34801561093357600080fd5b506104dc600a81565b34801561094857600080fd5b506103c5610957366004612781565b61161a565b6103c561096a3660046129e2565b611635565b34801561097b57600080fd5b506103dc61098a36600461265d565b611679565b34801561099b57600080fd5b506104dc600281565b3480156109b057600080fd5b506103c56109bf36600461265d565b6116fd565b3480156109d057600080fd5b506103906109df366004612aa1565b6001600160a01b039182166000908152600b6020908152604080832093909416825291909152205460ff1690565b348015610a1957600080fd5b506103c5610a28366004612af6565b61170a565b348015610a3957600080fd5b50600e5461040990630100000090046001600160a01b031681565b348015610a6057600080fd5b506104dc60125481565b348015610a7657600080fd5b50601354610a949060ff81169061010090046001600160a01b031682565b6040805192151583526001600160a01b0390911660208301520161039c565b348015610abf57600080fd5b506103c5610ace3660046126a0565b611863565b348015610adf57600080fd5b506104dc60155481565b348015610af557600080fd5b506104dc610b043660046126a0565b60146020526000908152604090205481565b348015610b2257600080fd5b506103c5610b31366004612b63565b6118d9565b348015610b4257600080fd5b50600e546103909060ff1681565b6000610b5b82611984565b80610b6a5750610b6a826119d2565b92915050565b610b78611a07565b610b828282611a61565b5050565b606060068054610b9590612bce565b80601f0160208091040260200160405190810160405280929190818152602001828054610bc190612bce565b8015610c0e5780601f10610be357610100808354040283529160200191610c0e565b820191906000526020600020905b815481529060010190602001808311610bf157829003601f168201915b5050505050905090565b6000610c2382611b1b565b610c40576040516333d1c03960e21b815260040160405180910390fd5b506000908152600a60205260409020546001600160a01b031690565b81600e5460ff1615610c7157610c7181611b43565b600e54610100900460ff1615610c9a57604051630b95754760e31b815260040160405180910390fd5b610ca48383611b87565b505050565b6003546001600160a01b03163314610cdc5760405162461bcd60e51b8152600401610cd390612c08565b60405180910390fd5b610ce581611863565b50565b610cf0611a07565b601255565b610cfd611a07565b604080518082019091526013805460ff811615158084526001600160a01b039490941660209093018390526001600160a81b031916610100600160a81b031990931692909217610100909102179055565b826001600160a01b0381163314610d7357600e5460ff1615610d7357610d7333611b43565b610d7e848484611c27565b50505050565b60008281526001602090815260408083208151808301909252546001600160a01b038116808352600160a01b9091046001600160601b0316928201929092528291610df95750604080518082019091526000546001600160a01b0381168252600160a01b90046001600160601b031660208201525b602081015160009061271090610e18906001600160601b031687612c6b565b610e229190612c82565b91519350909150505b9250929050565b6003546001600160a01b03163314610e5c5760405162461bcd60e51b8152600401610cd390612c08565b600380546001600160a01b0319166001600160a01b0392909216919091179055565b60007f00000000000000000000000000000000000000000000000000000000000000006001600160a01b03164760405160006040518083038185875af1925050503d8060008114610eeb576040519150601f19603f3d011682016040523d82523d6000602084013e610ef0565b606091505b5050905080610ce557604051631d42c86760e21b815260040160405180910390fd5b601554600003610f3557604051638438385160e01b815260040160405180910390fd5b33600090815260146020526040812054601554909190610f56908390612c6b565b905080341015610f795760405163356680b760e01b815260040160405180910390fd5b7f000000000000000000000000000000000000000000000000000000000000000082610fa460045490565b610fae9190612ca4565b1115610fcd57604051634c9c5c3360e11b815260040160405180910390fd5b33600081815260146020526040812055610b829083611dc5565b610ca483838360405180602001604052806000815250611635565b6000828152600f6020908152604091829020825160a081018452905463ffffffff8082168352640100000000820416928201929092526001600160401b03600160401b8304811693820193909352600160801b820483166060820152600160c01b9091049091166080820152601254831415806110845750805163ffffffff16155b806110955750805163ffffffff1642105b806110aa5750806020015163ffffffff164210155b156110c857604051639546a99360e01b815260040160405180910390fd5b600083815260106020908152604080832033845290915290205460608201516110fb9082906001600160401b0316612cb7565b8361ffff16111561111f57604051630236501f60e61b815260040160405180910390fd5b60008481526011602052604090205460808301516001600160401b03918216911661114e8261ffff8716612cca565b6001600160401b031611156111765760405163b45a22f960e01b815260040160405180910390fd5b7f00000000000000000000000000000000000000000000000000000000000000008461ffff166111a560045490565b6111af9190612ca4565b11156111ce57604051634c9c5c3360e11b815260040160405180910390fd5b60008461ffff1684604001516001600160401b03166111ed9190612c6b565b9050803410156112105760405163356680b760e01b815260040160405180910390fd5b60008681526010602090815260408083203380855290835281842061ffff8a168881019091558a855260119093529220805467ffffffffffffffff19168583016001600160401b03161790556112669190611ddf565b60405186815261ffff86169033907f0b3fa6d1ad76d7cf2bed405eb629252cc4f3dfe6a400576cf13f39d60bcc3ed69060200160405180910390a3505050505050565b6112b1611a07565b600e54630100000090046001600160a01b03166112e157604051630e048e7160e41b815260040160405180910390fd5b600e8054911515620100000262ff000019909216919091179055565b6040805180820190915260135460ff811615158083526101009091046001600160a01b031660208301526060919061134857604051630871f9a360e21b815260040160405180910390fd5b61138c338585808060200260200160405190810160405280939291908181526020018383602002808284376000920191909152505050602085015160019150611ec6565b949350505050565b61139c611a07565b6016610ca4828483612d37565b6113b1611a07565b610ca4838383611f7e565b6000610b6a82612049565b60006001600160a01b0382166113f0576040516323d3ad8160e21b815260040160405180910390fd5b506001600160a01b03166000908152600960205260409020546001600160401b031690565b61141d611a07565b61142760006120b0565b565b611431611a07565b6040805180820190915260135460ff81161515825261010090046001600160a01b03166020820181905261147857604051638b0277bb60e01b815260040160405180910390fd5b6040805180820190915260018082526020928301516001600160a01b031692909101829052601380546001600160a81b03191661010090930292909217179055565b6114c2611a07565b600e805461ff0019169055565b606060078054610b9590612bce565b60606114e8611a07565b60005b8281101561154d57846001600160a01b031661151e85858481811061151257611512612df6565b905060200201356113bc565b6001600160a01b031614611545576040516335338b8d60e01b815260040160405180910390fd5b6001016114eb565b5061138c84848480806020026020016040519081016040528093929190818152602001838360200280828437600092018290525060135490935061010090046001600160a01b03169150611ec69050565b81600e5460ff16156115b3576115b381611b43565b600e54610100900460ff16156115dc57604051630b95754760e31b815260040160405180910390fd5b610ca48383612102565b6115ee611a07565b600e80546001600160a01b039092166301000000026301000000600160b81b0319909216919091179055565b611622611a07565b600e805460ff1916911515919091179055565b611640848484610d4e565b6001600160a01b0383163b15610d7e5761165c8484848461216e565b610d7e576040516368d2bf6b60e11b815260040160405180910390fd5b606061168482611b1b565b6116a157604051630a14c4b560e41b815260040160405180910390fd5b60006116ab612256565b905080516000036116cb57604051806020016040528060008152506116f6565b806116d584612265565b6040516020016116e6929190612e0c565b6040516020818303038152906040525b9392505050565b611705611a07565b601555565b611712611a07565b63ffffffff85161580611729575063ffffffff8416155b8061173b57506001600160401b038316155b1561175957604051638531df0f60e01b815260040160405180910390fd5b8363ffffffff168563ffffffff161061178557604051638531df0f60e01b815260040160405180910390fd5b6040805160a08101825263ffffffff968716815294861660208087019182526001600160401b0395861687840190815294861660608801908152938616608088019081526000998a52600f909152919097209451855497519351925191518516600160c01b026001600160c01b03928616600160801b0267ffffffffffffffff60801b1994909616600160401b029390931677ffffffffffffffffffffffffffffffff0000000000000000199488166401000000000267ffffffffffffffff1990991691909716179690961791909116939093171792909216179055565b61186b611a07565b6001600160a01b0381166118d05760405162461bcd60e51b815260206004820152602660248201527f4f776e61626c653a206e6577206f776e657220697320746865207a65726f206160448201526564647265737360d01b6064820152608401610cd3565b610ce5816120b0565b6118e1611a07565b82811415806118ee575082155b1561190c5760405163a121188760e01b815260040160405180910390fd5b60005b8381101561197d5782828281811061192957611929612df6565b905060200201356014600087878581811061194657611946612df6565b905060200201602081019061195b91906126a0565b6001600160a01b0316815260208101919091526040016000205560010161190f565b5050505050565b60006301ffc9a760e01b6001600160e01b0319831614806119b557506380ac58cd60e01b6001600160e01b03198316145b80610b6a5750506001600160e01b031916635b5e139f60e01b1490565b60006001600160e01b0319821663152a902d60e11b1480610b6a57506301ffc9a760e01b6001600160e01b0319831614610b6a565b6002546001600160a01b031633146114275760405162461bcd60e51b815260206004820181905260248201527f4f776e61626c653a2063616c6c6572206973206e6f7420746865206f776e65726044820152606401610cd3565b6127106001600160601b0382161115611a8c5760405162461bcd60e51b8152600401610cd390612e3b565b6001600160a01b038216611ae25760405162461bcd60e51b815260206004820152601960248201527f455243323938313a20696e76616c6964207265636569766572000000000000006044820152606401610cd3565b604080518082019091526001600160a01b039092168083526001600160601b039091166020909201829052600160a01b90910217600055565b600060045482108015610b6a575050600090815260086020526040902054600160e01b161590565b69c617113400112233445560005230601a5280603a52600080604460166daaeb6d7670e522a718067333cd4e5afa611b7f573d6000803e3d6000fd5b6000603a5250565b6000611b92826113bc565b9050336001600160a01b03821614611bcb57611bae81336109df565b611bcb576040516367d9dca160e11b815260040160405180910390fd5b6000828152600a602052604080822080546001600160a01b0319166001600160a01b0387811691821790925591518593918516917f8c5be1e5ebec7d5bd14f71427d1e84f3dd0314c0f7b2291e5b200ac8c7c3b92591a4505050565b6000611c3282612049565b9050836001600160a01b0316816001600160a01b031614611c655760405162a1148160e81b815260040160405180910390fd5b6000828152600a602052604090208054611c918187335b6001600160a01b039081169116811491141790565b611cbc57611c9f86336109df565b611cbc57604051632ce44b5f60e11b815260040160405180910390fd5b6001600160a01b038516611ce357604051633a954ecd60e21b815260040160405180910390fd5b611cf086868660016122a9565b8015611cfb57600082555b6001600160a01b038681166000908152600960205260408082208054600019019055918716808252919020805460010190554260a01b17600160e11b17600085815260086020526040812091909155600160e11b84169003611d8d57600184016000818152600860205260408120549003611d8b576004548114611d8b5760008181526008602052604090208490555b505b83856001600160a01b0316876001600160a01b0316600080516020612fc683398151915260405160405180910390a45b505050505050565b610b82828260405180602001604052806000815250612320565b6004546000829003611e045760405163b562e8dd60e01b815260040160405180910390fd5b611e1160008483856122a9565b6001600160a01b03831660008181526009602090815260408083208054680100000000000000018802019055848352600890915281206001851460e11b4260a01b17831790558284019083908390600080516020612fc68339815191528180a4600183015b818114611e9c5780836000600080516020612fc6833981519152600080a4600101611e76565b5081600003611ebd57604051622e076360e81b815260040160405180910390fd5b60045550505050565b606060005b8451811015611eff57611ef7858281518110611ee957611ee9612df6565b602002602001015185612386565b600101611ecb565b50604051635fb4271b60e01b81526001600160a01b03831690635fb4271b90611f2e9088908890600401612e85565b6000604051808303816000875af1158015611f4d573d6000803e3d6000fd5b505050506040513d6000823e601f3d908101601f19168201604052611f759190810190612ea9565b95945050505050565b6127106001600160601b0382161115611fa95760405162461bcd60e51b8152600401610cd390612e3b565b6001600160a01b038216611fff5760405162461bcd60e51b815260206004820152601b60248201527f455243323938313a20496e76616c696420706172616d657465727300000000006044820152606401610cd3565b6040805180820182526001600160a01b0393841681526001600160601b0392831660208083019182526000968752600190529190942093519051909116600160a01b029116179055565b6000816004548110156120975760008181526008602052604081205490600160e01b82169003612095575b806000036116f6575060001901600081815260086020526040902054612074565b505b604051636f96cda160e11b815260040160405180910390fd5b600280546001600160a01b038381166001600160a01b0319831681179093556040519116919082907f8be0079c531659141344cd1fd0a4f28419497f9722a3daafe3b4186f6b6457e090600090a35050565b336000818152600b602090815260408083206001600160a01b03871680855290835292819020805460ff191686151590811790915590519081529192917f17307eab39ab6107e8899845ad3d59bd9653f200f220920489ca2b5937696c31910160405180910390a35050565b604051630a85bd0160e11b81526000906001600160a01b0385169063150b7a02906121a3903390899088908890600401612f4e565b6020604051808303816000875af19250505080156121de575060408051601f3d908101601f191682019092526121db91810190612f8b565b60015b61223c573d80801561220c576040519150601f19603f3d011682016040523d82523d6000602084013e612211565b606091505b508051600003612234576040516368d2bf6b60e11b815260040160405180910390fd5b805181602001fd5b6001600160e01b031916630a85bd0160e11b14905061138c565b606060168054610b9590612bce565b606060a06040510180604052602081039150506000815280825b600183039250600a81066030018353600a90048061227f5750819003601f19909101908152919050565b600e54610100900460ff1680156122c857506001600160a01b03841615155b80156122dc57506001600160a01b03831615155b156122fa57604051630b95754760e31b815260040160405180910390fd5b612303336124cd565b610d7e576040516326406c5f60e11b815260040160405180910390fd5b61232a8383611ddf565b6001600160a01b0383163b15610ca4576004548281035b612354600086838060010194508661216e565b612371576040516368d2bf6b60e11b815260040160405180910390fd5b81811061234157816004541461197d57600080fd5b600061239183612049565b9050806000806123af866000908152600a6020526040902080549091565b9150915084156123ef576123c4818433611c7c565b6123ef576123d283336109df565b6123ef57604051632ce44b5f60e11b815260040160405180910390fd5b6123fd8360008860016122a9565b801561240857600082555b6001600160a01b038316600081815260096020526040902080546fffffffffffffffffffffffffffffffff0190554260a01b17600360e01b17600087815260086020526040812091909155600160e11b85169003612496576001860160008181526008602052604081205490036124945760045481146124945760008181526008602052604090208590555b505b60405186906000906001600160a01b03861690600080516020612fc6833981519152908390a4505060058054600101905550505050565b600e5460009062010000900460ff161561255957600e546040516370c5e04560e11b81526001600160a01b038481166004830152630100000090920490911690819063e18bc08a90602401602060405180830381865afa158015612535573d6000803e3d6000fd5b505050506040513d601f19601f820116820180604052508101906116f69190612fa8565b506001919050565b6001600160e01b031981168114610ce557600080fd5b60006020828403121561258957600080fd5b81356116f681612561565b80356001600160a01b03811681146125ab57600080fd5b919050565b80356001600160601b03811681146125ab57600080fd5b600080604083850312156125da57600080fd5b6125e383612594565b91506125f1602084016125b0565b90509250929050565b60005b838110156126155781810151838201526020016125fd565b50506000910152565b600081518084526126368160208601602086016125fa565b601f01601f19169290920160200192915050565b6020815260006116f6602083018461261e565b60006020828403121561266f57600080fd5b5035919050565b6000806040838503121561268957600080fd5b61269283612594565b946020939093013593505050565b6000602082840312156126b257600080fd5b6116f682612594565b600080604083850312156126ce57600080fd5b823591506125f160208401612594565b6000806000606084860312156126f357600080fd5b6126fc84612594565b925061270a60208501612594565b9150604084013590509250925092565b6000806040838503121561272d57600080fd5b50508035926020909101359150565b6000806040838503121561274f57600080fd5b82359150602083013561ffff8116811461276857600080fd5b809150509250929050565b8015158114610ce557600080fd5b60006020828403121561279357600080fd5b81356116f681612773565b60008083601f8401126127b057600080fd5b5081356001600160401b038111156127c757600080fd5b6020830191508360208260051b8501011115610e2b57600080fd5b600080602083850312156127f557600080fd5b82356001600160401b0381111561280b57600080fd5b6128178582860161279e565b90969095509350505050565b600081518084526020808501945080840160005b8381101561285357815187529582019590820190600101612837565b509495945050505050565b6020815260006116f66020830184612823565b6000806020838503121561288457600080fd5b82356001600160401b038082111561289b57600080fd5b818501915085601f8301126128af57600080fd5b8135818111156128be57600080fd5b8660208285010111156128d057600080fd5b60209290920196919550909350505050565b6000806000606084860312156128f757600080fd5b8335925061290760208501612594565b9150612915604085016125b0565b90509250925092565b60008060006040848603121561293357600080fd5b61293c84612594565b925060208401356001600160401b0381111561295757600080fd5b6129638682870161279e565b9497909650939450505050565b6000806040838503121561298357600080fd5b61298c83612594565b9150602083013561276881612773565b634e487b7160e01b600052604160045260246000fd5b604051601f8201601f191681016001600160401b03811182821017156129da576129da61299c565b604052919050565b600080600080608085870312156129f857600080fd5b612a0185612594565b93506020612a10818701612594565b93506040860135925060608601356001600160401b0380821115612a3357600080fd5b818801915088601f830112612a4757600080fd5b813581811115612a5957612a5961299c565b612a6b601f8201601f191685016129b2565b91508082528984828501011115612a8157600080fd5b808484018584013760008482840101525080935050505092959194509250565b60008060408385031215612ab457600080fd5b612abd83612594565b91506125f160208401612594565b803563ffffffff811681146125ab57600080fd5b80356001600160401b03811681146125ab57600080fd5b60008060008060008060c08789031215612b0f57600080fd5b86359550612b1f60208801612acb565b9450612b2d60408801612acb565b9350612b3b60608801612adf565b9250612b4960808801612adf565b9150612b5760a08801612adf565b90509295509295509295565b60008060008060408587031215612b7957600080fd5b84356001600160401b0380821115612b9057600080fd5b612b9c8883890161279e565b90965094506020870135915080821115612bb557600080fd5b50612bc28782880161279e565b95989497509550505050565b600181811c90821680612be257607f821691505b602082108103612c0257634e487b7160e01b600052602260045260246000fd5b50919050565b6020808252602d908201527f4d756c74697369674f776e61626c653a2063616c6c6572206973206e6f74207460408201526c3432903932b0b61037bbb732b960991b606082015260800190565b634e487b7160e01b600052601160045260246000fd5b8082028115828204841417610b6a57610b6a612c55565b600082612c9f57634e487b7160e01b600052601260045260246000fd5b500490565b80820180821115610b6a57610b6a612c55565b81810381811115610b6a57610b6a612c55565b6001600160401b03818116838216019080821115612cea57612cea612c55565b5092915050565b601f821115610ca457600081815260208120601f850160051c81016020861015612d185750805b601f850160051c820191505b81811015611dbd57828155600101612d24565b6001600160401b03831115612d4e57612d4e61299c565b612d6283612d5c8354612bce565b83612cf1565b6000601f841160018114612d965760008515612d7e5750838201355b600019600387901b1c1916600186901b17835561197d565b600083815260209020601f19861690835b82811015612dc75786850135825560209485019460019092019101612da7565b5086821015612de45760001960f88860031b161c19848701351681555b505060018560011b0183555050505050565b634e487b7160e01b600052603260045260246000fd5b60008351612e1e8184602088016125fa565b835190830190612e328183602088016125fa565b01949350505050565b6020808252602a908201527f455243323938313a20726f79616c7479206665652077696c6c206578636565646040820152692073616c65507269636560b01b606082015260800190565b6001600160a01b038316815260406020820181905260009061138c90830184612823565b60006020808385031215612ebc57600080fd5b82516001600160401b0380821115612ed357600080fd5b818501915085601f830112612ee757600080fd5b815181811115612ef957612ef961299c565b8060051b9150612f0a8483016129b2565b8181529183018401918481019088841115612f2457600080fd5b938501935b83851015612f4257845182529385019390850190612f29565b98975050505050505050565b6001600160a01b0385811682528416602082015260408101839052608060608201819052600090612f819083018461261e565b9695505050505050565b600060208284031215612f9d57600080fd5b81516116f681612561565b600060208284031215612fba57600080fd5b81516116f68161277356feddf252ad1be2c89b69c2b068fc378daa952ba7f163c4a11628f55a4df523b3efa264697066735822122061c205dc3963d7c56acab56189d11caeb0b827bb3191a2a81a4a138f2d5e2a7d64736f6c63430008120033",
  "devdoc": {
    "events": {
      "Approval(address,address,uint256)": {
        "details": "Emitted when `owner` enables `approved` to manage the `tokenId` token."
      },
      "ApprovalForAll(address,address,bool)": {
        "details": "Emitted when `owner` enables or disables (`approved`) `operator` to manage all of its assets."
      },
      "ConsecutiveTransfer(uint256,uint256,address,address)": {
        "details": "Emitted when tokens in `fromTokenId` to `toTokenId` (inclusive) is transferred from `from` to `to`, as defined in the [ERC2309](https://eips.ethereum.org/EIPS/eip-2309) standard. See {_mintERC2309} for more details."
      },
      "Transfer(address,address,uint256)": {
        "details": "Emitted when `tokenId` token is transferred from `from` to `to`."
      }
    },
    "kind": "dev",
    "methods": {
      "balanceOf(address)": {
        "details": "Returns the number of tokens in `owner`'s account."
      },
      "getApproved(uint256)": {
        "details": "Returns the account approved for `tokenId` token. Requirements: - `tokenId` must exist."
      },
      "isApprovedForAll(address,address)": {
        "details": "Returns if the `operator` is allowed to manage all of the assets of `owner`. See {setApprovalForAll}."
      },
      "name()": {
        "details": "Returns the token collection name."
      },
      "owner()": {
        "details": "Returns the address of the current owner."
      },
      "ownerOf(uint256)": {
        "details": "Returns the owner of the `tokenId` token. Requirements: - `tokenId` must exist."
      },
      "renounceOwnership()": {
        "details": "Leaves the contract without owner. It will not be possible to call `onlyOwner` functions. Can only be called by the current owner. NOTE: Renouncing ownership will leave the contract without an owner, thereby disabling any functionality that is only available to the owner."
      },
      "royaltyInfo(uint256,uint256)": {
        "details": "Returns how much royalty is owed and to whom, based on a sale price that may be denominated in any unit of exchange. The royalty amount is denominated and should be paid in that same unit of exchange."
      },
      "safeTransferFrom(address,address,uint256)": {
        "details": "Equivalent to `safeTransferFrom(from, to, tokenId, '')`."
      },
      "safeTransferFrom(address,address,uint256,bytes)": {
        "details": "Safely transfers `tokenId` token from `from` to `to`. Requirements: - `from` cannot be the zero address. - `to` cannot be the zero address. - `tokenId` token must exist and be owned by `from`. - If the caller is not `from`, it must be approved to move this token by either {approve} or {setApprovalForAll}. - If `to` refers to a smart contract, it must implement {IERC721Receiver-onERC721Received}, which is called upon a safe transfer. Emits a {Transfer} event."
      },
      "setApprovalForAll(address,bool)": {
        "details": "Approve or remove `operator` as an operator for the caller. Operators can call {transferFrom} or {safeTransferFrom} for any token owned by the caller. Requirements: - The `operator` cannot be the caller. Emits an {ApprovalForAll} event."
      },
      "symbol()": {
        "details": "Returns the token collection symbol."
      },
      "tokenURI(uint256)": {
        "details": "Returns the Uniform Resource Identifier (URI) for `tokenId` token."
      },
      "totalSupply()": {
        "details": "Returns the total number of tokens in existence. Burned tokens will reduce the count. To get the total number of tokens minted, please see {_totalMinted}."
      },
      "transferFrom(address,address,uint256)": {
        "details": "Transfers `tokenId` from `from` to `to`. Requirements: - `from` cannot be the zero address. - `to` cannot be the zero address. - `tokenId` token must be owned by `from`. - If the caller is not `from`, it must be approved to move this token by either {approve} or {setApprovalForAll}. Emits a {Transfer} event."
      },
      "transferOwnership(address)": {
        "details": "Transfers ownership of the contract to a new account (`newOwner`). Can only be called by the current owner."
      }
    },
    "version": 1
  },
  "userdoc": {
    "errors": {
      "ApprovalCallerNotOwnerNorApproved()": [
        {
          "notice": "The caller must own the token or be an approved operator."
        }
      ],
      "ApprovalQueryForNonexistentToken()": [
        {
          "notice": "The token does not exist."
        }
      ],
      "BalanceQueryForZeroAddress()": [
        {
          "notice": "Cannot query the balance for the zero address."
        }
      ],
      "MintERC2309QuantityExceedsLimit()": [
        {
          "notice": "The `quantity` minted with ERC2309 exceeds the safety limit."
        }
      ],
      "MintToZeroAddress()": [
        {
          "notice": "Cannot mint to the zero address."
        }
      ],
      "MintZeroQuantity()": [
        {
          "notice": "The quantity of tokens minted must be more than zero."
        }
      ],
      "OwnerQueryForNonexistentToken()": [
        {
          "notice": "The token does not exist."
        }
      ],
      "OwnershipNotInitializedForExtraData()": [
        {
          "notice": "The `extraData` cannot be set on an unintialized ownership slot."
        }
      ],
      "TransferCallerNotOwnerNorApproved()": [
        {
          "notice": "The caller must own the token or be an approved operator."
        }
      ],
      "TransferFromIncorrectOwner()": [
        {
          "notice": "The token must be owned by `from`."
        }
      ],
      "TransferToNonERC721ReceiverImplementer()": [
        {
          "notice": "Cannot safely transfer to a contract that does not implement the ERC721Receiver interface."
        }
      ],
      "TransferToZeroAddress()": [
        {
          "notice": "Cannot transfer to the zero address."
        }
      ],
      "URIQueryForNonexistentToken()": [
        {
          "notice": "The token does not exist."
        }
      ]
    },
    "kind": "user",
    "methods": {},
    "version": 1
  },
  "storageLayout": {
    "storage": [
      {
        "astId": 9085,
        "contract": "contracts/SKB/SpheraKitBag.sol:SpheraKitBag",
        "label": "_defaultRoyaltyInfo",
        "offset": 0,
        "slot": "0",
        "type": "t_struct(RoyaltyInfo)9082_storage"
      },
      {
        "astId": 9090,
        "contract": "contracts/SKB/SpheraKitBag.sol:SpheraKitBag",
        "label": "_tokenRoyaltyInfo",
        "offset": 0,
        "slot": "1",
        "type": "t_mapping(t_uint256,t_struct(RoyaltyInfo)9082_storage)"
      },
      {
        "astId": 6993,
        "contract": "contracts/SKB/SpheraKitBag.sol:SpheraKitBag",
        "label": "_owner",
        "offset": 0,
        "slot": "2",
        "type": "t_address"
      },
      {
        "astId": 18275,
        "contract": "contracts/SKB/SpheraKitBag.sol:SpheraKitBag",
        "label": "realOwner",
        "offset": 0,
        "slot": "3",
        "type": "t_address"
      },
      {
        "astId": 19534,
        "contract": "contracts/SKB/SpheraKitBag.sol:SpheraKitBag",
        "label": "_currentIndex",
        "offset": 0,
        "slot": "4",
        "type": "t_uint256"
      },
      {
        "astId": 19536,
        "contract": "contracts/SKB/SpheraKitBag.sol:SpheraKitBag",
        "label": "_burnCounter",
        "offset": 0,
        "slot": "5",
        "type": "t_uint256"
      },
      {
        "astId": 19538,
        "contract": "contracts/SKB/SpheraKitBag.sol:SpheraKitBag",
        "label": "_name",
        "offset": 0,
        "slot": "6",
        "type": "t_string_storage"
      },
      {
        "astId": 19540,
        "contract": "contracts/SKB/SpheraKitBag.sol:SpheraKitBag",
        "label": "_symbol",
        "offset": 0,
        "slot": "7",
        "type": "t_string_storage"
      },
      {
        "astId": 19544,
        "contract": "contracts/SKB/SpheraKitBag.sol:SpheraKitBag",
        "label": "_packedOwnerships",
        "offset": 0,
        "slot": "8",
        "type": "t_mapping(t_uint256,t_uint256)"
      },
      {
        "astId": 19548,
        "contract": "contracts/SKB/SpheraKitBag.sol:SpheraKitBag",
        "label": "_packedAddressData",
        "offset": 0,
        "slot": "9",
        "type": "t_mapping(t_address,t_uint256)"
      },
      {
        "astId": 19553,
        "contract": "contracts/SKB/SpheraKitBag.sol:SpheraKitBag",
        "label": "_tokenApprovals",
        "offset": 0,
        "slot": "10",
        "type": "t_mapping(t_uint256,t_struct(TokenApprovalRef)19466_storage)"
      },
      {
        "astId": 19559,
        "contract": "contracts/SKB/SpheraKitBag.sol:SpheraKitBag",
        "label": "_operatorApprovals",
        "offset": 0,
        "slot": "11",
        "type": "t_mapping(t_address,t_mapping(t_address,t_bool))"
      },
      {
        "astId": 18429,
        "contract": "contracts/SKB/SpheraKitBag.sol:SpheraKitBag",
        "label": "_processedChunksForAirdrop",
        "offset": 0,
        "slot": "12",
        "type": "t_struct(UintSet)12571_storage"
      },
      {
        "astId": 18432,
        "contract": "contracts/SKB/SpheraKitBag.sol:SpheraKitBag",
        "label": "operatorFilteringEnabled",
        "offset": 0,
        "slot": "14",
        "type": "t_bool"
      },
      {
        "astId": 18435,
        "contract": "contracts/SKB/SpheraKitBag.sol:SpheraKitBag",
        "label": "initialTransferLockOn",
        "offset": 1,
        "slot": "14",
        "type": "t_bool"
      },
      {
        "astId": 18438,
        "contract": "contracts/SKB/SpheraKitBag.sol:SpheraKitBag",
        "label": "isRegistryActive",
        "offset": 2,
        "slot": "14",
        "type": "t_bool"
      },
      {
        "astId": 18440,
        "contract": "contracts/SKB/SpheraKitBag.sol:SpheraKitBag",
        "label": "registryAddress",
        "offset": 3,
        "slot": "14",
        "type": "t_address"
      },
      {
        "astId": 18465,
        "contract": "contracts/SKB/SpheraKitBag.sol:SpheraKitBag",
        "label": "periodInfo",
        "offset": 0,
        "slot": "15",
        "type": "t_mapping(t_uint256,t_struct(PeriodInfo)18460_storage)"
      },
      {
        "astId": 18471,
        "contract": "contracts/SKB/SpheraKitBag.sol:SpheraKitBag",
        "label": "individualMintedInPeriod",
        "offset": 0,
        "slot": "16",
        "type": "t_mapping(t_uint256,t_mapping(t_address,t_uint256))"
      },
      {
        "astId": 18475,
        "contract": "contracts/SKB/SpheraKitBag.sol:SpheraKitBag",
        "label": "totalMintedInPeriod",
        "offset": 0,
        "slot": "17",
        "type": "t_mapping(t_uint256,t_uint64)"
      },
      {
        "astId": 18477,
        "contract": "contracts/SKB/SpheraKitBag.sol:SpheraKitBag",
        "label": "period",
        "offset": 0,
        "slot": "18",
        "type": "t_uint256"
      },
      {
        "astId": 18485,
        "contract": "contracts/SKB/SpheraKitBag.sol:SpheraKitBag",
        "label": "redeemInfo",
        "offset": 0,
        "slot": "19",
        "type": "t_struct(RedeemInfo)18482_storage"
      },
      {
        "astId": 18489,
        "contract": "contracts/SKB/SpheraKitBag.sol:SpheraKitBag",
        "label": "allowlistMintsAlloc",
        "offset": 0,
        "slot": "20",
        "type": "t_mapping(t_address,t_uint256)"
      },
      {
        "astId": 18491,
        "contract": "contracts/SKB/SpheraKitBag.sol:SpheraKitBag",
        "label": "allowlistMintPrice",
        "offset": 0,
        "slot": "21",
        "type": "t_uint256"
      },
      {
        "astId": 18495,
        "contract": "contracts/SKB/SpheraKitBag.sol:SpheraKitBag",
        "label": "_baseTokenURI",
        "offset": 0,
        "slot": "22",
        "type": "t_string_storage"
      }
    ],
    "types": {
      "t_address": {
        "encoding": "inplace",
        "label": "address",
        "numberOfBytes": "20"
      },
      "t_array(t_bytes32)dyn_storage": {
        "base": "t_bytes32",
        "encoding": "dynamic_array",
        "label": "bytes32[]",
        "numberOfBytes": "32"
      },
      "t_bool": {
        "encoding": "inplace",
        "label": "bool",
        "numberOfBytes": "1"
      },
      "t_bytes32": {
        "encoding": "inplace",
        "label": "bytes32",
        "numberOfBytes": "32"
      },
      "t_mapping(t_address,t_bool)": {
        "encoding": "mapping",
        "key": "t_address",
        "label": "mapping(address => bool)",
        "numberOfBytes": "32",
        "value": "t_bool"
      },
      "t_mapping(t_address,t_mapping(t_address,t_bool))": {
        "encoding": "mapping",
        "key": "t_address",
        "label": "mapping(address => mapping(address => bool))",
        "numberOfBytes": "32",
        "value": "t_mapping(t_address,t_bool)"
      },
      "t_mapping(t_address,t_uint256)": {
        "encoding": "mapping",
        "key": "t_address",
        "label": "mapping(address => uint256)",
        "numberOfBytes": "32",
        "value": "t_uint256"
      },
      "t_mapping(t_bytes32,t_uint256)": {
        "encoding": "mapping",
        "key": "t_bytes32",
        "label": "mapping(bytes32 => uint256)",
        "numberOfBytes": "32",
        "value": "t_uint256"
      },
      "t_mapping(t_uint256,t_mapping(t_address,t_uint256))": {
        "encoding": "mapping",
        "key": "t_uint256",
        "label": "mapping(uint256 => mapping(address => uint256))",
        "numberOfBytes": "32",
        "value": "t_mapping(t_address,t_uint256)"
      },
      "t_mapping(t_uint256,t_struct(PeriodInfo)18460_storage)": {
        "encoding": "mapping",
        "key": "t_uint256",
        "label": "mapping(uint256 => struct SpheraKitBag.PeriodInfo)",
        "numberOfBytes": "32",
        "value": "t_struct(PeriodInfo)18460_storage"
      },
      "t_mapping(t_uint256,t_struct(RoyaltyInfo)9082_storage)": {
        "encoding": "mapping",
        "key": "t_uint256",
        "label": "mapping(uint256 => struct ERC2981.RoyaltyInfo)",
        "numberOfBytes": "32",
        "value": "t_struct(RoyaltyInfo)9082_storage"
      },
      "t_mapping(t_uint256,t_struct(TokenApprovalRef)19466_storage)": {
        "encoding": "mapping",
        "key": "t_uint256",
        "label": "mapping(uint256 => struct ERC721A.TokenApprovalRef)",
        "numberOfBytes": "32",
        "value": "t_struct(TokenApprovalRef)19466_storage"
      },
      "t_mapping(t_uint256,t_uint256)": {
        "encoding": "mapping",
        "key": "t_uint256",
        "label": "mapping(uint256 => uint256)",
        "numberOfBytes": "32",
        "value": "t_uint256"
      },
      "t_mapping(t_uint256,t_uint64)": {
        "encoding": "mapping",
        "key": "t_uint256",
        "label": "mapping(uint256 => uint64)",
        "numberOfBytes": "32",
        "value": "t_uint64"
      },
      "t_string_storage": {
        "encoding": "bytes",
        "label": "string",
        "numberOfBytes": "32"
      },
      "t_struct(PeriodInfo)18460_storage": {
        "encoding": "inplace",
        "label": "struct SpheraKitBag.PeriodInfo",
        "members": [
          {
            "astId": 18451,
            "contract": "contracts/SKB/SpheraKitBag.sol:SpheraKitBag",
            "label": "startTime",
            "offset": 0,
            "slot": "0",
            "type": "t_uint32"
          },
          {
            "astId": 18453,
            "contract": "contracts/SKB/SpheraKitBag.sol:SpheraKitBag",
            "label": "endTime",
            "offset": 4,
            "slot": "0",
            "type": "t_uint32"
          },
          {
            "astId": 18455,
            "contract": "contracts/SKB/SpheraKitBag.sol:SpheraKitBag",
            "label": "price",
            "offset": 8,
            "slot": "0",
            "type": "t_uint64"
          },
          {
            "astId": 18457,
            "contract": "contracts/SKB/SpheraKitBag.sol:SpheraKitBag",
            "label": "MAX_MINT_ALLOWED",
            "offset": 16,
            "slot": "0",
            "type": "t_uint64"
          },
          {
            "astId": 18459,
            "contract": "contracts/SKB/SpheraKitBag.sol:SpheraKitBag",
            "label": "MAX_SUPPLY",
            "offset": 24,
            "slot": "0",
            "type": "t_uint64"
          }
        ],
        "numberOfBytes": "32"
      },
      "t_struct(RedeemInfo)18482_storage": {
        "encoding": "inplace",
        "label": "struct SpheraKitBag.RedeemInfo",
        "members": [
          {
            "astId": 18479,
            "contract": "contracts/SKB/SpheraKitBag.sol:SpheraKitBag",
            "label": "redeemBagOpen",
            "offset": 0,
            "slot": "0",
            "type": "t_bool"
          },
          {
            "astId": 18481,
            "contract": "contracts/SKB/SpheraKitBag.sol:SpheraKitBag",
            "label": "BagRedeemer",
            "offset": 1,
            "slot": "0",
            "type": "t_address"
          }
        ],
        "numberOfBytes": "32"
      },
      "t_struct(RoyaltyInfo)9082_storage": {
        "encoding": "inplace",
        "label": "struct ERC2981.RoyaltyInfo",
        "members": [
          {
            "astId": 9079,
            "contract": "contracts/SKB/SpheraKitBag.sol:SpheraKitBag",
            "label": "receiver",
            "offset": 0,
            "slot": "0",
            "type": "t_address"
          },
          {
            "astId": 9081,
            "contract": "contracts/SKB/SpheraKitBag.sol:SpheraKitBag",
            "label": "royaltyFraction",
            "offset": 20,
            "slot": "0",
            "type": "t_uint96"
          }
        ],
        "numberOfBytes": "32"
      },
      "t_struct(Set)12099_storage": {
        "encoding": "inplace",
        "label": "struct EnumerableSet.Set",
        "members": [
          {
            "astId": 12094,
            "contract": "contracts/SKB/SpheraKitBag.sol:SpheraKitBag",
            "label": "_values",
            "offset": 0,
            "slot": "0",
            "type": "t_array(t_bytes32)dyn_storage"
          },
          {
            "astId": 12098,
            "contract": "contracts/SKB/SpheraKitBag.sol:SpheraKitBag",
            "label": "_indexes",
            "offset": 0,
            "slot": "1",
            "type": "t_mapping(t_bytes32,t_uint256)"
          }
        ],
        "numberOfBytes": "64"
      },
      "t_struct(TokenApprovalRef)19466_storage": {
        "encoding": "inplace",
        "label": "struct ERC721A.TokenApprovalRef",
        "members": [
          {
            "astId": 19465,
            "contract": "contracts/SKB/SpheraKitBag.sol:SpheraKitBag",
            "label": "value",
            "offset": 0,
            "slot": "0",
            "type": "t_address"
          }
        ],
        "numberOfBytes": "32"
      },
      "t_struct(UintSet)12571_storage": {
        "encoding": "inplace",
        "label": "struct EnumerableSet.UintSet",
        "members": [
          {
            "astId": 12570,
            "contract": "contracts/SKB/SpheraKitBag.sol:SpheraKitBag",
            "label": "_inner",
            "offset": 0,
            "slot": "0",
            "type": "t_struct(Set)12099_storage"
          }
        ],
        "numberOfBytes": "64"
      },
      "t_uint256": {
        "encoding": "inplace",
        "label": "uint256",
        "numberOfBytes": "32"
      },
      "t_uint32": {
        "encoding": "inplace",
        "label": "uint32",
        "numberOfBytes": "4"
      },
      "t_uint64": {
        "encoding": "inplace",
        "label": "uint64",
        "numberOfBytes": "8"
      },
      "t_uint96": {
        "encoding": "inplace",
        "label": "uint96",
        "numberOfBytes": "12"
      }
    }
  }
}