{
  "address": "0x6Cee3cFC99dD145287030414563eFc5176da5feE",
  "abi": [
    {
      "inputs": [],
      "stateMutability": "nonpayable",
      "type": "constructor"
    },
    {
      "anonymous": false,
      "inputs": [
        {
          "indexed": true,
          "internalType": "address",
          "name": "token",
          "type": "address"
        },
        {
          "indexed": false,
          "internalType": "uint256",
          "name": "serialNumber",
          "type": "uint256"
        },
        {
          "indexed": true,
          "internalType": "address",
          "name": "owner",
          "type": "address"
        },
        {
          "indexed": true,
          "internalType": "address",
          "name": "buyer",
          "type": "address"
        },
        {
          "indexed": false,
          "internalType": "uint256",
          "name": "acceptedBidAmount",
          "type": "uint256"
        }
      ],
      "name": "AcceptBid",
      "type": "event"
    },
    {
      "anonymous": false,
      "inputs": [
        {
          "indexed": true,
          "internalType": "address",
          "name": "token",
          "type": "address"
        },
        {
          "indexed": false,
          "internalType": "uint256",
          "name": "serialNumber",
          "type": "uint256"
        },
        {
          "indexed": true,
          "internalType": "address",
          "name": "owner",
          "type": "address"
        },
        {
          "indexed": true,
          "internalType": "address",
          "name": "buyer",
          "type": "address"
        },
        {
          "indexed": false,
          "internalType": "uint256",
          "name": "amount",
          "type": "uint256"
        }
      ],
      "name": "AddBid",
      "type": "event"
    },
    {
      "anonymous": false,
      "inputs": [
        {
          "indexed": false,
          "internalType": "bool",
          "name": "",
          "type": "bool"
        },
        {
          "indexed": false,
          "internalType": "bytes",
          "name": "",
          "type": "bytes"
        }
      ],
      "name": "CallResponseEvent",
      "type": "event"
    },
    {
      "anonymous": false,
      "inputs": [
        {
          "indexed": true,
          "internalType": "address",
          "name": "token",
          "type": "address"
        },
        {
          "indexed": true,
          "internalType": "uint256",
          "name": "serialNumber",
          "type": "uint256"
        },
        {
          "indexed": true,
          "internalType": "address",
          "name": "owner",
          "type": "address"
        },
        {
          "indexed": false,
          "internalType": "uint256",
          "name": "amount",
          "type": "uint256"
        }
      ],
      "name": "DeleteBid",
      "type": "event"
    },
    {
      "anonymous": false,
      "inputs": [
        {
          "indexed": true,
          "internalType": "address",
          "name": "token",
          "type": "address"
        },
        {
          "indexed": true,
          "internalType": "uint256",
          "name": "serialNumber",
          "type": "uint256"
        },
        {
          "indexed": true,
          "internalType": "address",
          "name": "_owner",
          "type": "address"
        },
        {
          "indexed": false,
          "internalType": "uint256",
          "name": "price",
          "type": "uint256"
        }
      ],
      "name": "ListNFT",
      "type": "event"
    },
    {
      "anonymous": false,
      "inputs": [
        {
          "indexed": true,
          "internalType": "address",
          "name": "token",
          "type": "address"
        },
        {
          "indexed": true,
          "internalType": "uint256",
          "name": "serialNumber",
          "type": "uint256"
        },
        {
          "indexed": true,
          "internalType": "address",
          "name": "owner",
          "type": "address"
        },
        {
          "indexed": false,
          "internalType": "uint256",
          "name": "price",
          "type": "uint256"
        }
      ],
      "name": "UnlistNFT",
      "type": "event"
    },
    {
      "stateMutability": "payable",
      "type": "fallback"
    },
    {
      "inputs": [
        {
          "internalType": "address",
          "name": "_token",
          "type": "address"
        },
        {
          "internalType": "uint256",
          "name": "_serialNumber",
          "type": "uint256"
        },
        {
          "internalType": "address payable",
          "name": "_buyer",
          "type": "address"
        },
        {
          "internalType": "uint256",
          "name": "_acceptedBidAmount",
          "type": "uint256"
        }
      ],
      "name": "acceptBid",
      "outputs": [
        {
          "internalType": "uint256",
          "name": "",
          "type": "uint256"
        }
      ],
      "stateMutability": "nonpayable",
      "type": "function"
    },
    {
      "inputs": [
        {
          "internalType": "address",
          "name": "_token",
          "type": "address"
        },
        {
          "internalType": "uint256",
          "name": "_serialNumber",
          "type": "uint256"
        },
        {
          "internalType": "uint256",
          "name": "tokenAmount",
          "type": "uint256"
        }
      ],
      "name": "addBid",
      "outputs": [
        {
          "internalType": "uint256",
          "name": "",
          "type": "uint256"
        }
      ],
      "stateMutability": "payable",
      "type": "function"
    },
    {
      "inputs": [
        {
          "internalType": "address",
          "name": "_token",
          "type": "address"
        }
      ],
      "name": "associateToken",
      "outputs": [
        {
          "internalType": "int256",
          "name": "",
          "type": "int256"
        }
      ],
      "stateMutability": "nonpayable",
      "type": "function"
    },
    {
      "inputs": [
        {
          "internalType": "address",
          "name": "",
          "type": "address"
        },
        {
          "internalType": "string",
          "name": "",
          "type": "string"
        }
      ],
      "name": "buyersBidsIndexes",
      "outputs": [
        {
          "internalType": "uint256",
          "name": "tokenIndex",
          "type": "uint256"
        },
        {
          "internalType": "uint256",
          "name": "receivedIndex",
          "type": "uint256"
        },
        {
          "internalType": "uint256",
          "name": "sentIndex",
          "type": "uint256"
        },
        {
          "internalType": "bool",
          "name": "isSet",
          "type": "bool"
        }
      ],
      "stateMutability": "view",
      "type": "function"
    },
    {
      "inputs": [
        {
          "internalType": "address",
          "name": "",
          "type": "address"
        }
      ],
      "name": "buyersTokens",
      "outputs": [
        {
          "internalType": "uint256",
          "name": "sphs",
          "type": "uint256"
        }
      ],
      "stateMutability": "view",
      "type": "function"
    },
    {
      "inputs": [
        {
          "internalType": "uint256",
          "name": "_newFee",
          "type": "uint256"
        }
      ],
      "name": "changeTaxFee",
      "outputs": [],
      "stateMutability": "nonpayable",
      "type": "function"
    },
    {
      "inputs": [
        {
          "internalType": "address",
          "name": "_token",
          "type": "address"
        },
        {
          "internalType": "uint256",
          "name": "_serialNumber",
          "type": "uint256"
        },
        {
          "internalType": "address payable",
          "name": "_buyer",
          "type": "address"
        }
      ],
      "name": "deleteBid",
      "outputs": [
        {
          "internalType": "uint256",
          "name": "",
          "type": "uint256"
        }
      ],
      "stateMutability": "nonpayable",
      "type": "function"
    },
    {
      "inputs": [
        {
          "internalType": "address",
          "name": "_owner",
          "type": "address"
        },
        {
          "internalType": "uint64",
          "name": "page",
          "type": "uint64"
        },
        {
          "internalType": "uint64",
          "name": "pageSize",
          "type": "uint64"
        }
      ],
      "name": "getReceivedBids",
      "outputs": [
        {
          "components": [
            {
              "internalType": "address payable",
              "name": "owner",
              "type": "address"
            },
            {
              "internalType": "uint256",
              "name": "amount",
              "type": "uint256"
            },
            {
              "internalType": "address",
              "name": "token",
              "type": "address"
            },
            {
              "internalType": "uint256",
              "name": "serialNumber",
              "type": "uint256"
            }
          ],
          "internalType": "struct Market.Bid[]",
          "name": "",
          "type": "tuple[]"
        }
      ],
      "stateMutability": "view",
      "type": "function"
    },
    {
      "inputs": [
        {
          "internalType": "address",
          "name": "_buyer",
          "type": "address"
        },
        {
          "internalType": "uint64",
          "name": "page",
          "type": "uint64"
        },
        {
          "internalType": "uint64",
          "name": "pageSize",
          "type": "uint64"
        }
      ],
      "name": "getSentBids",
      "outputs": [
        {
          "components": [
            {
              "internalType": "address payable",
              "name": "owner",
              "type": "address"
            },
            {
              "internalType": "uint256",
              "name": "amount",
              "type": "uint256"
            },
            {
              "internalType": "address",
              "name": "token",
              "type": "address"
            },
            {
              "internalType": "uint256",
              "name": "serialNumber",
              "type": "uint256"
            }
          ],
          "internalType": "struct Market.Bid[]",
          "name": "",
          "type": "tuple[]"
        }
      ],
      "stateMutability": "view",
      "type": "function"
    },
    {
      "inputs": [
        {
          "internalType": "address",
          "name": "_token",
          "type": "address"
        },
        {
          "internalType": "uint256",
          "name": "_serialNumber",
          "type": "uint256"
        },
        {
          "internalType": "address",
          "name": "_buyer",
          "type": "address"
        }
      ],
      "name": "getTokenBid",
      "outputs": [
        {
          "components": [
            {
              "internalType": "address payable",
              "name": "owner",
              "type": "address"
            },
            {
              "internalType": "uint256",
              "name": "amount",
              "type": "uint256"
            },
            {
              "internalType": "address",
              "name": "token",
              "type": "address"
            },
            {
              "internalType": "uint256",
              "name": "serialNumber",
              "type": "uint256"
            }
          ],
          "internalType": "struct Market.Bid",
          "name": "",
          "type": "tuple"
        }
      ],
      "stateMutability": "view",
      "type": "function"
    },
    {
      "inputs": [
        {
          "internalType": "address",
          "name": "_token",
          "type": "address"
        },
        {
          "internalType": "uint256",
          "name": "_serialNumber",
          "type": "uint256"
        },
        {
          "internalType": "uint64",
          "name": "page",
          "type": "uint64"
        },
        {
          "internalType": "uint64",
          "name": "pageSize",
          "type": "uint64"
        }
      ],
      "name": "getTokenBids",
      "outputs": [
        {
          "components": [
            {
              "internalType": "address payable",
              "name": "owner",
              "type": "address"
            },
            {
              "internalType": "uint256",
              "name": "amount",
              "type": "uint256"
            },
            {
              "internalType": "address",
              "name": "token",
              "type": "address"
            },
            {
              "internalType": "uint256",
              "name": "serialNumber",
              "type": "uint256"
            }
          ],
          "internalType": "struct Market.Bid[]",
          "name": "",
          "type": "tuple[]"
        }
      ],
      "stateMutability": "view",
      "type": "function"
    },
    {
      "inputs": [
        {
          "internalType": "address[]",
          "name": "_tokens",
          "type": "address[]"
        },
        {
          "internalType": "uint256[]",
          "name": "_serialNumbers",
          "type": "uint256[]"
        },
        {
          "internalType": "uint256[]",
          "name": "_prices",
          "type": "uint256[]"
        }
      ],
      "name": "listNFT",
      "outputs": [
        {
          "internalType": "uint256",
          "name": "",
          "type": "uint256"
        }
      ],
      "stateMutability": "nonpayable",
      "type": "function"
    },
    {
      "inputs": [
        {
          "internalType": "string",
          "name": "",
          "type": "string"
        }
      ],
      "name": "nfts",
      "outputs": [
        {
          "internalType": "address payable",
          "name": "owner",
          "type": "address"
        },
        {
          "internalType": "uint256",
          "name": "price",
          "type": "uint256"
        },
        {
          "internalType": "address",
          "name": "token",
          "type": "address"
        },
        {
          "internalType": "uint256",
          "name": "serialNumber",
          "type": "uint256"
        },
        {
          "internalType": "bool",
          "name": "isListed",
          "type": "bool"
        }
      ],
      "stateMutability": "view",
      "type": "function"
    },
    {
      "inputs": [
        {
          "internalType": "address",
          "name": "",
          "type": "address"
        },
        {
          "internalType": "uint256",
          "name": "",
          "type": "uint256"
        }
      ],
      "name": "receivedBids",
      "outputs": [
        {
          "internalType": "address payable",
          "name": "owner",
          "type": "address"
        },
        {
          "internalType": "uint256",
          "name": "amount",
          "type": "uint256"
        },
        {
          "internalType": "address",
          "name": "token",
          "type": "address"
        },
        {
          "internalType": "uint256",
          "name": "serialNumber",
          "type": "uint256"
        }
      ],
      "stateMutability": "view",
      "type": "function"
    },
    {
      "inputs": [
        {
          "internalType": "address",
          "name": "token",
          "type": "address"
        },
        {
          "internalType": "bytes",
          "name": "encodedFunctionSelector",
          "type": "bytes"
        }
      ],
      "name": "redirectForToken",
      "outputs": [
        {
          "internalType": "int256",
          "name": "responseCode",
          "type": "int256"
        },
        {
          "internalType": "bytes",
          "name": "response",
          "type": "bytes"
        }
      ],
      "stateMutability": "nonpayable",
      "type": "function"
    },
    {
      "inputs": [
        {
          "internalType": "address",
          "name": "_tokenAddress",
          "type": "address"
        }
      ],
      "name": "registerSpheraToken",
      "outputs": [],
      "stateMutability": "nonpayable",
      "type": "function"
    },
    {
      "inputs": [],
      "name": "sendSphsToContract",
      "outputs": [
        {
          "internalType": "uint256",
          "name": "",
          "type": "uint256"
        }
      ],
      "stateMutability": "payable",
      "type": "function"
    },
    {
      "inputs": [
        {
          "internalType": "address",
          "name": "",
          "type": "address"
        },
        {
          "internalType": "uint256",
          "name": "",
          "type": "uint256"
        }
      ],
      "name": "sentBids",
      "outputs": [
        {
          "internalType": "address payable",
          "name": "owner",
          "type": "address"
        },
        {
          "internalType": "uint256",
          "name": "amount",
          "type": "uint256"
        },
        {
          "internalType": "address",
          "name": "token",
          "type": "address"
        },
        {
          "internalType": "uint256",
          "name": "serialNumber",
          "type": "uint256"
        }
      ],
      "stateMutability": "view",
      "type": "function"
    },
    {
      "inputs": [],
      "name": "spheraTokenAddress",
      "outputs": [
        {
          "internalType": "address",
          "name": "",
          "type": "address"
        }
      ],
      "stateMutability": "view",
      "type": "function"
    },
    {
      "inputs": [],
      "name": "taxFee",
      "outputs": [
        {
          "internalType": "uint256",
          "name": "",
          "type": "uint256"
        }
      ],
      "stateMutability": "view",
      "type": "function"
    },
    {
      "inputs": [
        {
          "internalType": "string",
          "name": "",
          "type": "string"
        },
        {
          "internalType": "uint256",
          "name": "",
          "type": "uint256"
        }
      ],
      "name": "tokenBids",
      "outputs": [
        {
          "internalType": "address payable",
          "name": "owner",
          "type": "address"
        },
        {
          "internalType": "uint256",
          "name": "amount",
          "type": "uint256"
        },
        {
          "internalType": "address",
          "name": "token",
          "type": "address"
        },
        {
          "internalType": "uint256",
          "name": "serialNumber",
          "type": "uint256"
        }
      ],
      "stateMutability": "view",
      "type": "function"
    },
    {
      "inputs": [
        {
          "internalType": "address",
          "name": "token",
          "type": "address"
        },
        {
          "internalType": "address",
          "name": "from",
          "type": "address"
        },
        {
          "internalType": "address",
          "name": "to",
          "type": "address"
        },
        {
          "internalType": "uint256",
          "name": "amount",
          "type": "uint256"
        }
      ],
      "name": "transferFrom",
      "outputs": [
        {
          "internalType": "int64",
          "name": "responseCode",
          "type": "int64"
        }
      ],
      "stateMutability": "nonpayable",
      "type": "function"
    },
    {
      "inputs": [
        {
          "internalType": "address",
          "name": "token",
          "type": "address"
        },
        {
          "internalType": "address",
          "name": "from",
          "type": "address"
        },
        {
          "internalType": "address",
          "name": "to",
          "type": "address"
        },
        {
          "internalType": "uint256",
          "name": "serialNumber",
          "type": "uint256"
        }
      ],
      "name": "transferFromNFT",
      "outputs": [
        {
          "internalType": "int64",
          "name": "responseCode",
          "type": "int64"
        }
      ],
      "stateMutability": "nonpayable",
      "type": "function"
    },
    {
      "inputs": [
        {
          "internalType": "address",
          "name": "_token",
          "type": "address"
        },
        {
          "internalType": "uint256",
          "name": "_serialNumber",
          "type": "uint256"
        }
      ],
      "name": "unlistNFT",
      "outputs": [
        {
          "internalType": "uint256",
          "name": "",
          "type": "uint256"
        }
      ],
      "stateMutability": "nonpayable",
      "type": "function"
    },
    {
      "stateMutability": "payable",
      "type": "receive"
    }
  ],
  "transactionHash": "0x16b139db249b5b1d201c16fe26350eee3fd5ac9f41b24c5237ac0221b159fcee",
  "args": [],
  "numDeployments": 2,
  "solcInputHash": "b0d0b4bbf5cf6871b2c27cfdb38df6b0",
  "bytecode": "0x6080604052601960095534801561001557600080fd5b50600680546001600160a01b0319163317905561484f806100376000396000f3fe6080604052600436106101435760003560e01c80639b23d3d9116100b0578063bc78a32a1161006c578063bc78a32a1461044f578063d5cae81f1461046f578063d7dbd71b1461048f578063e2d4d360146104af578063f2ce238a146104dc578063f40774061461056057005b80639b23d3d91461031c5780639d170dd71461033c578063a071dcf41461035c578063a7e5c46414610372578063a7efe34814610392578063b66fb090146103b257005b80634e524b50116100ff5780634e524b501461025a578063584e8d2a1461027a578063618dc65e1461029a5780636c7f20c0146102c85780637fc27efd146102f55780638883edf11461031557005b806315dacbea1461014c57806316e807c414610184578063322b71d8146101a557806332a12a23146101dd578063443349b11461020d5780634d0df92b1461023a57005b3661014a57005b005b34801561015857600080fd5b5061016c61016736600461354f565b610580565b60405160079190910b81526020015b60405180910390f35b6101976101923660046135a0565b610663565b60405190815260200161017b565b3480156101b157600080fd5b506007546101c5906001600160a01b031681565b6040516001600160a01b03909116815260200161017b565b3480156101e957600080fd5b506101fd6101f83660046135d5565b610f14565b60405161017b9493929190613601565b34801561021957600080fd5b5061022d610228366004613642565b610f68565b60405161017b9190613691565b34801561024657600080fd5b5061014a61025536600461370b565b611035565b34801561026657600080fd5b50610197610275366004613728565b611081565b34801561028657600080fd5b5061014a610295366004613760565b6117a7565b3480156102a657600080fd5b506102ba6102b53660046138b3565b6117d6565b60405161017b929190613966565b3480156102d457600080fd5b506101976102e336600461370b565b60046020526000908152604090205481565b34801561030157600080fd5b506101976103103660046135d5565b611904565b6000610197565b34801561032857600080fd5b5061016c61033736600461354f565b611a4b565b34801561034857600080fd5b5061022d61035736600461397f565b611a7b565b34801561036857600080fd5b5061019760095481565b34801561037e57600080fd5b5061019761038d3660046139c4565b611b2c565b34801561039e57600080fd5b506101976103ad36600461370b565b611e39565b3480156103be57600080fd5b506104166103cd366004613a26565b8051602081830181018051600582529282019190930120915280546001820154600283015460038401546004909401546001600160a01b03938416949293909116919060ff1685565b604080516001600160a01b039687168152602081019590955292909416918301919091526060820152901515608082015260a00161017b565b34801561045b57600080fd5b506101fd61046a366004613a5a565b611ecc565b34801561047b57600080fd5b5061019761048a366004613b1c565b611ef7565b34801561049b57600080fd5b5061022d6104aa36600461397f565b612438565b3480156104bb57600080fd5b506104cf6104ca3660046139c4565b6124cc565b60405161017b9190613c01565b3480156104e857600080fd5b5061053e6104f7366004613c3a565b600360208181526000938452604090932082518084018501805192815290850193909401929092209190925280546001820154600283015492909301549092919060ff1684565b604080519485526020850193909352918301521515606082015260800161017b565b34801561056c57600080fd5b506101fd61057b3660046135d5565b612611565b60008060006101676001600160a01b03166315dacbea60e01b888888886040516024016105b09493929190613c7f565b60408051601f198184030181529181526020820180516001600160e01b03166001600160e01b03199094169390931790925290516105ee9190613ca9565b6000604051808303816000865af19150503d806000811461062b576040519150601f19603f3d011682016040523d82523d6000602084013e610630565b606091505b509150915081610641576015610655565b808060200190518101906106559190613cd7565b60030b979650505050505050565b60003381610671868661262d565b90506005816040516106839190613ca9565b9081526040519081900360200190206004015460ff166106db5760405162461bcd60e51b815260206004820152600e60248201526d139195081b9bdd081b1a5cdd195960921b60448201526064015b60405180910390fd5b6000806106e88888612639565b90925090506016821461070d5760405162461bcd60e51b81526004016106d290613cf2565b60058360405161071d9190613ca9565b908152604080519182900360200190912054908201516001600160a01b039081169116146107a65760405162461bcd60e51b815260206004820152603060248201527f4e6674206f776e657220686173206265656e206368616e6765642e20496e766160448201526f3634b21027232a103634b9ba34b7339760811b60648201526084016106d2565b6007546000906107c1906001600160a01b031633308a612726565b9050601681146108135760405162461bcd60e51b815260206004820152601f60248201527f4661696c656420746f207472616e736665722053706865726120546f6b656e0060448201526064016106d2565b6001600160a01b03851660009081526004602052604081205490036108615760408051602080820183528982526001600160a01b03881660009081526004909152919091209051905561088f565b6001600160a01b03851660009081526004602052604081208054899290610889908490613d3f565b90915550505b6001600160a01b03851660009081526003602052604080822090516108b5908790613ca9565b9081526040805191829003602090810183206080840183528054845260018101548483015260028101548484015260039081015460ff16151560608501526001600160a01b038a1660009081529152819020905191925090610918908790613ca9565b9081526040519081900360200190206003015460ff1615610bb657600080866040516109449190613ca9565b90815260405190819003602001902082518154811061096557610965613d52565b600091825260209182902060408051608081018252600490930290910180546001600160a01b03908116845260018201549484018590526002820154169183019190915260030154606082015291506109c1908890819061276e565b886000876040516109d29190613ca9565b9081526040519081900360200190208351815481106109f3576109f3613d52565b9060005260206000209060040201600101819055508860016000600589604051610a1d9190613ca9565b9081526040805160209281900383019020546001600160a01b031683528282019390935291016000209084015181548110610a5a57610a5a613d52565b9060005260206000209060040201600101819055508860026000896001600160a01b03166001600160a01b03168152602001908152602001600020836040015181548110610aaa57610aaa613d52565b906000526020600020906004020160010181905550600586604051610acf9190613ca9565b9081526020016040518091039020600101548910610b61576040516304e524b560e41b81523090634e524b5090610b10908e908e908c908f90600401613601565b6020604051808303816000875af1158015610b2f573d6000803e3d6000fd5b505050506040513d601f19601f82011682018060405250810190610b539190613d68565b975050505050505050610f0d565b60408085015181518c8152602081018c905233926001600160a01b03928316928f16917f36d6fe2f8514bad704749bcc0910b552f83180da8b6690b8a953fc2086d9a9c1910160405180910390a46000610b53565b604080516080810182526001600160a01b038089168252602082018b90528c1681830152606081018b90529051600090610bf1908890613ca9565b908152604080516020928190038301812080546001808201835560009283528583208751600493840290910180546001600160a01b03199081166001600160a01b039384161782558989018051838601558a890180516002808601805486169288169290921790915560608d018051600396870155338a52818d529a892080548089018255908a529b89208d519c909802909701805484169b86169b909b178b5590518a860155519489018054909116949092169390931790559351940193909355909190600590610cc4908a90613ca9565b90815260408051918290036020908101909220546001600160a01b039081168452838301949094529182016000908120805460018181018355918352838320875160049092020180549187166001600160a01b031992831617815593870151848301558685015160028501805491909716911617909455606085015160039092019190915581516080810192839052928392909190610d64908b90613ca9565b90815260405190819003602001902054610d7e9190613d81565b8152602001600180600060058b604051610d989190613ca9565b9081526040805160209281900383019020546001600160a01b03168352908201929092520160002054610dcb9190613d81565b815233600090815260026020908152604090912054910190610def90600190613d81565b815260016020918201526001600160a01b038916600090815260039091526040908190209051610e20908990613ca9565b9081526040805160209281900383018120845181559284015160018401559083015160028301556060909201516003909101805460ff1916911515919091179055600590610e6f908890613ca9565b9081526020016040518091039020600101548910610eb35760208101516040516304e524b560e41b81523091634e524b5091610b10918f918f918d91600401613601565b60408085015181518c8152602081018c905233926001600160a01b03928316928f16917f36d6fe2f8514bad704749bcc0910b552f83180da8b6690b8a953fc2086d9a9c1910160405180910390a460009750505050505050505b9392505050565b60026020528160005260406000208181548110610f3057600080fd5b600091825260209091206004909102018054600182015460028301546003909301546001600160a01b03928316955090935091169084565b60606000610f76868661262d565b905060008082604051610f899190613ca9565b9081526020016040518091039020805480602002602001604051908101604052809291908181526020016000905b82821015611019576000848152602090819020604080516080810182526004860290920180546001600160a01b039081168452600180830154858701526002830154909116928401929092526003015460608301529083529092019101610fb7565b50505050905061102a818686612895565b979650505050505050565b6006546001600160a01b0316331461105f5760405162461bcd60e51b81526004016106d290613d94565b600780546001600160a01b0319166001600160a01b0392909216919091179055565b60008061108e868661262d565b90506005816040516110a09190613ca9565b90815260405190819003602001902054336001600160a01b0390911614806110c757503330145b6110e35760405162461bcd60e51b81526004016106d290613dc4565b6005816040516110f39190613ca9565b9081526040519081900360200190206004015460ff166111465760405162461bcd60e51b815260206004820152600e60248201526d139195081b9bdd081b1a5cdd195960921b60448201526064016106d2565b6000806111538888612639565b9092509050601682146111785760405162461bcd60e51b81526004016106d290613cf2565b60a08101516001600160a01b031630146111e95760405162461bcd60e51b815260206004820152602c60248201527f436f6e747261637420646f65736e2774206861766520616c6c6f77616e63652060448201526b199bdc881d1a1a5cc813919560a21b60648201526084016106d2565b6001600160a01b038616600090815260036020526040908190209051611210908590613ca9565b9081526040519081900360200190206003015460ff1661127e5760405162461bcd60e51b815260206004820152602360248201527f427579657220646f65736e277420686176652062696420666f7220746869732060448201526213919560ea1b60648201526084016106d2565b8460008460405161128f9190613ca9565b908152602001604051809103902060036000896001600160a01b03166001600160a01b03168152602001908152602001600020856040516112d09190613ca9565b90815260405190819003602001902054815481106112f0576112f0613d52565b906000526020600020906004020160010154146113755760405162461bcd60e51b815260206004820152603760248201527f54686973206275796572206469646e277420737567676573742074686174207060448201527f726963652076616c756520666f722074686973204e465400000000000000000060648201526084016106d2565b6001600160a01b0386166000908152600460205260409020548511156113f45760405162461bcd60e51b815260206004820152602e60248201527f427579657220646f65736e2774206861766520656e6f7567682053504873206960448201526d1b881d1a194818dbdb9d1c9858dd60921b60648201526084016106d2565b6009548590156114a05760006103e86009546114109190613e22565b61141a9083613e36565b60075460085491925060009161143f916001600160a01b039081169130911685612726565b9050601681146114915760405162461bcd60e51b815260206004820152601760248201527f4661696c656420746f2073656e6420746178205370682e00000000000000000060448201526064016106d2565b61149b8284613d81565b925050505b6000826000015160e001516000815181106114bd576114bd613d52565b602002602001015190506000816000015160070b131561157c57602081015181516000916114ea91613e4d565b6114f79060070b84613e36565b60075460a084015191925060009161151b916001600160a01b031690309085612726565b90506016811461156d5760405162461bcd60e51b815260206004820152601a60248201527f4661696c656420746f2073656e6420726f79616c74792053706800000000000060448201526064016106d2565b6115778285613d81565b935050505b6115af886005876040516115909190613ca9565b908152604051908190036020019020546001600160a01b03168461276e565b6000306001600160a01b0316639b23d3d98c6005896040516115d19190613ca9565b908152602001604051809103902060000160009054906101000a90046001600160a01b03168c8e6040518563ffffffff1660e01b81526004016116179493929190613c7f565b6020604051808303816000875af1158015611636573d6000803e3d6000fd5b505050506040513d601f19601f8201168201806040525081019061165a9190613e9e565b60070b9050601681146116a85760405162461bcd60e51b815260206004820152601660248201527511985a5b1959081d1bc81d1c985b9cd9995c8813919560521b60448201526064016106d2565b6116b2868a612aae565b886001600160a01b03166005876040516116cc9190613ca9565b9081526040805160209281900383018120548e82529281018c90526001600160a01b03928316928f16917f6e7a4c46395b56b7d97ccc3926f0db0dac3c760b187854dd2497e50c4dc82d62910160405180910390a460006005876040516117339190613ca9565b908152604051908190036020018120600401805492151560ff19909316929092179091558990600590611767908990613ca9565b90815260405190819003602001902080546001600160a01b03929092166001600160a01b031990921691909117905560009b9a5050505050505050505050565b6006546001600160a01b031633146117d15760405162461bcd60e51b81526004016106d290613d94565b600955565b600060606000806101676001600160a01b031663618dc65e60e01b8787604051602401611804929190613eb9565b60408051601f198184030181529181526020820180516001600160e01b03166001600160e01b03199094169390931790925290516118429190613ca9565b6000604051808303816000865af19150503d806000811461187f576040519150601f19603f3d011682016040523d82523d6000602084013e611884565b606091505b50915091507f4af4780e06fe8cb9df64b0794fa6f01399af979175bb988e35e0e57e594567bc82826040516118ba929190613edd565b60405180910390a1816118de576015604051806020016040528060008152506118f2565b808060200190518101906118f29190613f3d565b60039190910b97909650945050505050565b600080611911848461262d565b90506000806119208686612639565b9092509050601682146119455760405162461bcd60e51b81526004016106d290613cf2565b80604001516001600160a01b0316336001600160a01b0316148061197357506006546001600160a01b031633145b61198f5760405162461bcd60e51b81526004016106d290613dc4565b61199a836000612aae565b60006005846040516119ac9190613ca9565b908152602001604051809103902060040160006101000a81548160ff02191690831515021790555080604001516001600160a01b031685876001600160a01b03167f80a72ae9592e395c65a589d23febcc7bef05213af5110bf6e547949373c81503600587604051611a1e9190613ca9565b908152604051602091819003820181206001015481520160405180910390a4600093505050505b92915050565b60008060006101676001600160a01b0316639b23d3d960e01b888888886040516024016105b09493929190613c7f565b6001600160a01b0383166000908152600160209081526040808320805482518185028101850190935280835260609493849084015b82821015611b12576000848152602090819020604080516080810182526004860290920180546001600160a01b039081168452600180830154858701526002830154909116928401929092526003015460608301529083529092019101611ab0565b505050509050611b23818585612895565b95945050505050565b600080611b39858561262d565b9050336001600160a01b0384161480611b5c57506006546001600160a01b031633145b611bbb5760405162461bcd60e51b815260206004820152602a60248201527f596f752068617665206e6f207065726d697373696f6e7320666f72207468697360448201526910333ab731ba34b7b71760b11b60648201526084016106d2565b6001600160a01b038316600090815260036020526040908190209051611be2908390613ca9565b9081526040519081900360200190206003015460ff16611c445760405162461bcd60e51b815260206004820152601d60248201527f596f752068617665206e6f206269647320666f722074686973204e465400000060448201526064016106d2565b6001600160a01b0383166000908152600360205260408082209051611c6a908490613ca9565b9081526040519081900360200181205491506000908190611c8c908590613ca9565b90815260200160405180910390208281548110611cab57611cab613d52565b6000918252602080832060408051608081018252600490940290910180546001600160a01b039081168552600182015493850193909352600281015490921683820152600390910154606083015251909250611d08908590613ca9565b90815260200160405180910390208281548110611d2757611d27613d52565b60009182526020808320600492830201600101546001600160a01b03891684529190526040909120541015611dbd5760405162461bcd60e51b815260206004820152603660248201527f596f752068617665206e6f20656e6f756768206d6f6e657920696e207468652060448201527518dbdb9d1c9858dd081d1bc819195b195d1948189a5960521b60648201526084016106d2565b336001600160a01b031686886001600160a01b03167f14db41ce7a73af30b2195ae2a1cdfe6165695f7af0d286d97da60d47b75318258460200151604051611e0791815260200190565b60405180910390a4611e1e8586836020015161276e565b611e2c838260000151612bd1565b6000979650505050505050565b6006546000906001600160a01b03163314611e665760405162461bcd60e51b81526004016106d290613d94565b6000611e72308461300a565b905060168114611ec45760405162461bcd60e51b815260206004820152601960248201527f4661696c656420746f206173736f636961746520746f6b656e0000000000000060448201526064016106d2565b90505b919050565b81516020818401810180516000825292820191850191909120919052805482908110610f3057600080fd5b6000808451118015611f0a575060008351115b8015611f17575060008251115b611f6e5760405162461bcd60e51b815260206004820152602260248201527f4172726179206c656e6774682073686f756c64206265206d6f7265207468616e604482015261020360f41b60648201526084016106d2565b82518451148015611f80575081518451145b611fc55760405162461bcd60e51b8152602060048201526016602482015275082e4e4c2f2e640d8cadccee8d040dad2e6dac2e8c6d60531b60448201526064016106d2565b60005b845181101561242c576000858281518110611fe557611fe5613d52565b60200260200101519050600085838151811061200357612003613d52565b60200260200101519050600085848151811061202157612021613d52565b602002602001015190506000806120388585612639565b90925090506016821461205d5760405162461bcd60e51b81526004016106d290613cf2565b60a08101516001600160a01b031630146120d45760405162461bcd60e51b815260206004820152603260248201527f54686520436f6e747261637420646f65736e2774206861766520616c6c6f77616044820152713731b2903337b9103a3434b9903a37b5b2b760711b60648201526084016106d2565b80604001516001600160a01b0316336001600160a01b0316146121095760405162461bcd60e51b81526004016106d290613dc4565b6000612115868661262d565b90506005816040516121279190613ca9565b9081526040519081900360200190206004015460ff16801561217e575081604001516001600160a01b03166005826040516121629190613ca9565b908152604051908190036020019020546001600160a01b031614155b1561218e5761218e816000612aae565b6040518060a0016040528083604001516001600160a01b03168152602001858152602001876001600160a01b03168152602001868152602001600115158152506005826040516121de9190613ca9565b9081526040805160209281900383018120845181546001600160a01b03199081166001600160a01b039283161783558686015160018401559386015160028301805490951690821617909355606085015160038201556080909401516004909401805460ff19169415159490941790935586835233928892918a16917fe065949781be696d3f91077ee93178e3eb0472a4e60456f00a1161fde5735832910160405180910390a461228d61341e565b60005b6000836040516122a09190613ca9565b9081526040519081900360200190205481101561239457600080846040516122c89190613ca9565b908152602001604051809103902082815481106122e7576122e7613d52565b600091825260209182902060408051608081018252600490930290910180546001600160a01b03908116845260018201549484019490945260028101549093168282015260039092015460608201529051909150600590612349908690613ca9565b908152602001604051809103902060010154816020015110158015612375575082602001518160200151115b15612381579150612394565b508061238c81613f80565b915050612290565b5060208101511561241257805160208201516040516304e524b560e41b81523092634e524b50926123cd928c928c929091600401613601565b6020604051808303816000875af11580156123ec573d6000803e3d6000fd5b505050506040513d601f19601f820116820180604052508101906124109190613d68565b505b50505050505050808061242490613f80565b915050611fc8565b5060005b949350505050565b6001600160a01b0383166000908152600260209081526040808320805482518185028101850190935280835260609493849084018215611b12576000848152602090819020604080516080810182526004860290920180546001600160a01b039081168452600180830154858701526002830154909116928401929092526003015460608301529083529092019101611ab0565b6124d461341e565b60006124e0858561262d565b604080516080810182526001600160a01b0380871680835260006020808501829052928b1684860152606084018a9052908152600390915282812092519394509092909190612530908590613ca9565b908152604080519182900360209081018320608084018352805484526001810154918401919091526002810154918301919091526003015460ff1615156060820181905290915061258557509150610f0d9050565b6000836040516125959190613ca9565b9081526040519081900360200190208151815481106125b6576125b6613d52565b600091825260209182902060408051608081018252600490930290910180546001600160a01b039081168452600182015494840194909452600281015490931690820152600390910154606082015293505050509392505050565b60016020528160005260406000208181548110610f3057600080fd5b6060610f0d83836130de565b6000612643613458565b604080516001600160a01b0386166024820152600785900b60448083019190915282518083039091018152606490910182526020810180516001600160e01b031663050fc3b560e31b17905290516000918291610167916126a391613ca9565b6000604051808303816000865af19150503d80600081146126e0576040519150601f19603f3d011682016040523d82523d6000602084013e6126e5565b606091505b50915091506126f2613458565b826126ff57601581612713565b818060200190518101906127139190614624565b60039190910b9890975095505050505050565b6040516001600160a01b038581166024830152848116604483015283166064820152600782900b6084820152600090819081906101679063eca3691760e01b9060a4016105b0565b6001600160a01b0383166000908152600460205260409020548111156127e45760405162461bcd60e51b815260206004820152602560248201527f4e6f7420656e6f75676820757365722073706873206f6e2074686520636f6e74604482015264726163742160d81b60648201526084016106d2565b6007546000906127ff906001600160a01b0316308585612726565b9050601681146128515760405162461bcd60e51b815260206004820152601f60248201527f4661696c656420746f207472616e736665722053706865726120546f6b656e0060448201526064016106d2565b6001600160a01b038416301461288f576001600160a01b03841660009081526004602052604081208054849290612889908490613d81565b90915550505b50505050565b606083516000036128a7575082610f0d565b6000826001600160401b0316116129005760405162461bcd60e51b815260206004820152601f60248201527f7061676553697a65206d7573742062652067726561746572207468616e20300060448201526064016106d2565b6000836001600160401b0316116129595760405162461bcd60e51b815260206004820152601b60248201527f706167696e6174696f6e206973207374617274696e672061742031000000000060448201526064016106d2565b60008261296760018661470b565b6129719190614732565b6001600160401b03169050845181106129c15760405162461bcd60e51b815260206004820152601260248201527150616765206f7574206f6620626f756e647360701b60448201526064016106d2565b60006129d66001600160401b03851683613d3f565b905085518111156129e5575084515b60006129f18383613d81565b6001600160401b03811115612a0857612a08613779565b604051908082528060200260200182016040528015612a4157816020015b612a2e61341e565b815260200190600190039081612a265790505b509050825b82811015612aa357878181518110612a6057612a60613d52565b6020026020010151828583612a759190613d81565b81518110612a8557612a85613d52565b60200260200101819052508080612a9b90613f80565b915050612a46565b509695505050505050565b60006001600084604051612ac29190613ca9565b90815260405190819003602001902054612adc919061475d565b90505b60008112612bcc57600081905060008085604051612afd9190613ca9565b90815260200160405180910390208281548110612b1c57612b1c613d52565b600091825260209182902060408051608081018252600490930290910180546001600160a01b039081168085526001830154958501959095526002820154811692840192909252600301546060830152909250851614612b895780516020820151612b899190819061276e565b612b97858260000151612bd1565b6001600086604051612ba99190613ca9565b90815260405190819003602001902054612bc3919061475d565b92505050612adf565b505050565b6000600583604051612be39190613ca9565b908152604080519182900360209081018320546001600160a01b0386811660009081526003909352929091209116925090612c1f908590613ca9565b9081526040519081900360200190206003015460ff16612c8d5760405162461bcd60e51b8152602060048201526024808201527f5468657265206973206e6f206269642c20796f752063616e27742072656d6f7660448201526319481a5d60e21b60648201526084016106d2565b6001600160a01b0382166000908152600360205260408082209051612cb3908690613ca9565b908152604080519182900360209081018320608084018352805484526001810154918401919091526002810154918301919091526003015460ff1615156060820152905060005b60038160ff161015612fba576000808260ff16600003612d4057600087604051612d249190613ca9565b9081526020016040518091039020915083600001519050612d92565b8260ff16600103612d705750506001600160a01b0384166000908152600260205260409081902090830151612d92565b50506001600160a01b0383166000908152600160209081526040909120908301515b8154600090612da390600190613d81565b90506000838281548110612db957612db9613d52565b600091825260209182902060408051608081018252600490930290910180546001600160a01b039081168452600182015494840194909452600281015490931690820152600390910154606082015284549091508190859085908110612e2157612e21613d52565b6000918252602091829020835160049092020180546001600160a01b039283166001600160a01b031991821617825592840151600182015560408401516002820180549190931693169290921790556060909101516003909101558354849080612e8d57612e8d61477d565b60008281526020812060046000199093019283020180546001600160a01b03199081168255600182018390556002820180549091169055600301819055915560ff86169003612f165780516001600160a01b0316600090815260036020526040908190209051849190612f01908c90613ca9565b90815260405190819003602001902055612fa3565b8460ff16600103612f645780516001600160a01b0316600090815260036020526040908190209051849190612f4c908c90613ca9565b90815260405190819003602001902060020155612fa3565b80516001600160a01b0316600090815260036020526040908190209051849190612f8f908c90613ca9565b908152604051908190036020019020600101555b505050508080612fb290614793565b915050612cfa565b506001600160a01b0383166000908152600360205260408082209051612fe1908790613ca9565b908152604051908190036020019020600301805491151560ff1990921691909117905550505050565b604080516001600160a01b038481166024830152831660448083019190915282518083039091018152606490910182526020810180516001600160e01b031663248a35ef60e11b1790529051600091829182916101679161306b9190613ca9565b6000604051808303816000865af19150503d80600081146130a8576040519150601f19603f3d011682016040523d82523d6000602084013e6130ad565b606091505b5091509150816130be5760156130d2565b808060200190518101906130d29190613cd7565b60030b95945050505050565b606060006130eb84613126565b905060006130f884613311565b9050818160405160200161310d9291906147b2565b6040516020818303038152906040529250505092915050565b604080518082018252601081526f181899199a1a9b1b9c1cb0b131b232b360811b60208201528151602a80825260608281019094526001600160a01b0385169291600091602082018180368337019050509050600360fc1b8160008151811061319157613191613d52565b60200101906001600160f81b031916908160001a905350600f60fb1b816001815181106131c0576131c0613d52565b60200101906001600160f81b031916908160001a90535060005b601481101561330857826004856131f284600c613d3f565b6020811061320257613202613d52565b1a60f81b6001600160f81b031916901c60f81c60ff168151811061322857613228613d52565b01602001516001600160f81b03191682613243836002613e36565b61324e906002613d3f565b8151811061325e5761325e613d52565b60200101906001600160f81b031916908160001a905350828461328283600c613d3f565b6020811061329257613292613d52565b825191901a600f169081106132a9576132a9613d52565b01602001516001600160f81b031916826132c4836002613e36565b6132cf906003613d3f565b815181106132df576132df613d52565b60200101906001600160f81b031916908160001a9053508061330081613f80565b9150506131da565b50949350505050565b6060816000036133385750506040805180820190915260018152600360fc1b602082015290565b816000815b8015613363578161334d81613f80565b925061335c9050600a82613e22565b905061333d565b6000826001600160401b0381111561337d5761337d613779565b6040519080825280601f01601f1916602001820160405280156133a7576020820181803683370190505b509050825b841561341457806133bc816147ee565b91506133cb9050600a86614805565b6133d6906030613d3f565b60f81b8282815181106133eb576133eb613d52565b60200101906001600160f81b031916908160001a90535061340d600a86613e22565b94506133ac565b5095945050505050565b604051806080016040528060006001600160a01b031681526020016000815260200160006001600160a01b03168152602001600081525090565b604080516103008101825260606101e082018181526102008301829052600061022084018190526102408401839052610260840181905261028084018190526102a084018190526102c0840183905284518084018652818152602081018290529485018190526102e084019490945260c0830190815260e0830184905261010083018490526101208301849052610140830193909352610160820181905261018082018190526101a082018190526101c08201529081908152600060208201819052604082018190526060808301829052608083015260a09091015290565b6001600160a01b038116811461354c57600080fd5b50565b6000806000806080858703121561356557600080fd5b843561357081613537565b9350602085013561358081613537565b9250604085013561359081613537565b9396929550929360600135925050565b6000806000606084860312156135b557600080fd5b83356135c081613537565b95602085013595506040909401359392505050565b600080604083850312156135e857600080fd5b82356135f381613537565b946020939093013593505050565b6001600160a01b039485168152602081019390935292166040820152606081019190915260800190565b80356001600160401b0381168114611ec757600080fd5b6000806000806080858703121561365857600080fd5b843561366381613537565b9350602085013592506136786040860161362b565b91506136866060860161362b565b905092959194509250565b6020808252825182820181905260009190848201906040850190845b818110156136ff576136ec83855180516001600160a01b0390811683526020808301519084015260408083015190911690830152606090810151910152565b92840192608092909201916001016136ad565b50909695505050505050565b60006020828403121561371d57600080fd5b8135610f0d81613537565b6000806000806080858703121561373e57600080fd5b843561374981613537565b935060208501359250604085013561359081613537565b60006020828403121561377257600080fd5b5035919050565b634e487b7160e01b600052604160045260246000fd5b604080519081016001600160401b03811182821017156137b1576137b1613779565b60405290565b60405160a081016001600160401b03811182821017156137b1576137b1613779565b60405161012081016001600160401b03811182821017156137b1576137b1613779565b60405160c081016001600160401b03811182821017156137b1576137b1613779565b604051601f8201601f191681016001600160401b038111828210171561384657613846613779565b604052919050565b60006001600160401b0382111561386757613867613779565b50601f01601f191660200190565b60006138886138838461384e565b61381e565b905082815283838301111561389c57600080fd5b828260208301376000602084830101529392505050565b600080604083850312156138c657600080fd5b82356138d181613537565b915060208301356001600160401b038111156138ec57600080fd5b8301601f810185136138fd57600080fd5b61390c85823560208401613875565b9150509250929050565b60005b83811015613931578181015183820152602001613919565b50506000910152565b60008151808452613952816020860160208601613916565b601f01601f19169290920160200192915050565b828152604060208201526000612430604083018461393a565b60008060006060848603121561399457600080fd5b833561399f81613537565b92506139ad6020850161362b565b91506139bb6040850161362b565b90509250925092565b6000806000606084860312156139d957600080fd5b83356139e481613537565b92506020840135915060408401356139fb81613537565b809150509250925092565b600082601f830112613a1757600080fd5b610f0d83833560208501613875565b600060208284031215613a3857600080fd5b81356001600160401b03811115613a4e57600080fd5b61243084828501613a06565b60008060408385031215613a6d57600080fd5b82356001600160401b03811115613a8357600080fd5b613a8f85828601613a06565b95602094909401359450505050565b60006001600160401b03821115613ab757613ab7613779565b5060051b60200190565b600082601f830112613ad257600080fd5b81356020613ae261388383613a9e565b82815260059290921b84018101918181019086841115613b0157600080fd5b8286015b84811015612aa35780358352918301918301613b05565b600080600060608486031215613b3157600080fd5b83356001600160401b0380821115613b4857600080fd5b818601915086601f830112613b5c57600080fd5b81356020613b6c61388383613a9e565b82815260059290921b8401810191818101908a841115613b8b57600080fd5b948201945b83861015613bb2578535613ba381613537565b82529482019490820190613b90565b97505087013592505080821115613bc857600080fd5b613bd487838801613ac1565b93506040860135915080821115613bea57600080fd5b50613bf786828701613ac1565b9150509250925092565b81516001600160a01b03908116825260208084015190830152604080840151909116908201526060808301519082015260808101611a45565b60008060408385031215613c4d57600080fd5b8235613c5881613537565b915060208301356001600160401b03811115613c7357600080fd5b61390c85828601613a06565b6001600160a01b039485168152928416602084015292166040820152606081019190915260800190565b60008251613cbb818460208701613916565b9190910192915050565b8051600381900b8114611ec757600080fd5b600060208284031215613ce957600080fd5b610f0d82613cc5565b60208082526018908201527f4661696c656420746f206665746368204e465420496e666f0000000000000000604082015260600190565b634e487b7160e01b600052601160045260246000fd5b80820180821115611a4557611a45613d29565b634e487b7160e01b600052603260045260246000fd5b600060208284031215613d7a57600080fd5b5051919050565b81810381811115611a4557611a45613d29565b6020808252601690820152752737ba103a34329031b7b73a3930b1ba1037bbb732b960511b604082015260600190565b60208082526028908201527f596f752068617665206e6f207065726d697373696f6e20666f72207468697320604082015267333ab731ba34b7b760c11b606082015260800190565b634e487b7160e01b600052601260045260246000fd5b600082613e3157613e31613e0c565b500490565b8082028115828204841417611a4557611a45613d29565b60008160070b8360070b80613e6457613e64613e0c565b677fffffffffffffff19821460001982141615613e8357613e83613d29565b90059392505050565b8051600781900b8114611ec757600080fd5b600060208284031215613eb057600080fd5b610f0d82613e8c565b6001600160a01b03831681526040602082018190526000906124309083018461393a565b8215158152604060208201526000612430604083018461393a565b600082601f830112613f0957600080fd5b8151613f176138838261384e565b818152846020838601011115613f2c57600080fd5b612430826020830160208701613916565b60008060408385031215613f5057600080fd5b613f5983613cc5565b915060208301516001600160401b03811115613f7457600080fd5b61390c85828601613ef8565b600060018201613f9257613f92613d29565b5060010190565b8051611ec781613537565b80518015158114611ec757600080fd5b600082601f830112613fc557600080fd5b81516020613fd561388383613a9e565b82815260059290921b84018101918181019086841115613ff457600080fd5b8286015b84811015612aa35780516001600160401b038082111561401757600080fd5b908801906040601f19838c03810182131561403157600080fd5b61403961378f565b888501518152828501518481111561405057600080fd5b949094019360a0858e03830112156140685760008081fd5b6140706137b7565b915061407d898601613fa4565b82528285015161408c81613537565b828a0152606085810151858111156140a45760008081fd5b6140b28f8c838a0101613ef8565b85850152506080935083860151858111156140cd5760008081fd5b6140db8f8c838a0101613ef8565b82850152505060a085015194506140f185613537565b9181019390935280870192909252508352918301918301613ff8565b60006060828403121561411f57600080fd5b604051606081018181106001600160401b038211171561414157614141613779565b60405290508061415083613e8c565b8152602083015161416081613537565b602082015261417160408401613e8c565b60408201525092915050565b6000610160828403121561419057600080fd5b6141986137d9565b905081516001600160401b03808211156141b157600080fd5b6141bd85838601613ef8565b835260208401519150808211156141d357600080fd5b6141df85838601613ef8565b60208401526141f060408501613f99565b6040840152606084015191508082111561420957600080fd5b61421585838601613ef8565b606084015261422660808501613fa4565b608084015261423760a08501613e8c565b60a084015261424860c08501613fa4565b60c084015260e084015191508082111561426157600080fd5b5061426e84828501613fb4565b60e0830152506101006142838482850161410d565b9082015292915050565b600082601f83011261429e57600080fd5b815160206142ae61388383613a9e565b82815260a092830285018201928282019190878511156142cd57600080fd5b8387015b8581101561434f5781818a0312156142e95760008081fd5b6142f16137b7565b6142fa82613e8c565b81528582015161430981613537565b81870152604061431a838201613fa4565b90820152606061432b838201613fa4565b9082015260808281015161433e81613537565b9082015284529284019281016142d1565b5090979650505050505050565b600082601f83011261436d57600080fd5b8151602061437d61388383613a9e565b82815260c0928302850182019282820191908785111561439c57600080fd5b8387015b8581101561434f5781818a0312156143b85760008081fd5b6143c06137fc565b6143c982613e8c565b81526143d6868301613e8c565b8682015260406143e7818401613e8c565b9082015260606143f8838201613e8c565b908201526080614409838201613fa4565b9082015260a08281015161441c81613537565b9082015284529284019281016143a0565b600082601f83011261443e57600080fd5b8151602061444e61388383613a9e565b82815260c0928302850182019282820191908785111561446d57600080fd5b8387015b8581101561434f5781818a0312156144895760008081fd5b6144916137fc565b61449a82613e8c565b81526144a7868301613e8c565b8682015260406144b8818401613e8c565b908201526060828101516144cb81613537565b9082015260806144dc838201613fa4565b9082015260a0828101516144ef81613537565b908201528452928401928101614471565b6000610120828403121561451357600080fd5b61451b6137d9565b905081516001600160401b038082111561453457600080fd5b6145408583860161417d565b835261454e60208501613e8c565b602084015261455f60408501613fa4565b604084015261457060608501613fa4565b606084015261458160808501613fa4565b608084015260a084015191508082111561459a57600080fd5b6145a68583860161428d565b60a084015260c08401519150808211156145bf57600080fd5b6145cb8583860161435c565b60c084015260e08401519150808211156145e457600080fd5b6145f08583860161442d565b60e08401526101009150818401518181111561460b57600080fd5b61461786828701613ef8565b8385015250505092915050565b6000806040838503121561463757600080fd5b61464083613cc5565b915060208301516001600160401b038082111561465c57600080fd5b9084019060c0828703121561467057600080fd5b6146786137fc565b82518281111561468757600080fd5b61469388828601614500565b8252506146a260208401613e8c565b60208201526146b360408401613f99565b60408201526146c460608401613e8c565b60608201526080830151828111156146db57600080fd5b6146e788828601613ef8565b6080830152506146f960a08401613f99565b60a08201528093505050509250929050565b6001600160401b0382811682821603908082111561472b5761472b613d29565b5092915050565b6001600160401b0381811683821602808216919082811461475557614755613d29565b505092915050565b818103600083128015838313168383128216171561472b5761472b613d29565b634e487b7160e01b600052603160045260246000fd5b600060ff821660ff81036147a9576147a9613d29565b60010192915050565b600083516147c4818460208801613916565b602f60f81b90830190815283516147e2816001840160208801613916565b01600101949350505050565b6000816147fd576147fd613d29565b506000190190565b60008261481457614814613e0c565b50069056fea2646970667358221220ca7ab18202335581011b40c53ca958cb2f98aa48fc2330beed3b110fec06c3c764736f6c63430008120033",
  "devdoc": {
    "kind": "dev",
    "methods": {
      "redirectForToken(address,bytes)": {
        "params": {
          "encodedFunctionSelector": "The function selector from the ERC20 interface + the bytes input for the function called",
          "token": "The token address"
        },
        "returns": {
          "response": "The result of the call that had been encoded and sent for execution.",
          "responseCode": "The response code for the status of the request. SUCCESS is 22."
        }
      },
      "transferFrom(address,address,address,uint256)": {
        "params": {
          "amount": "The amount of tokens to transfer from `from` to `to`",
          "from": "The account address of the owner of the token, on the behalf of which to transfer `amount` tokens",
          "to": "The account address of the receiver of the `amount` tokens",
          "token": "The address of the fungible Hedera token to transfer"
        },
        "returns": {
          "responseCode": "The response code for the status of the request. SUCCESS is 22."
        }
      },
      "transferFromNFT(address,address,address,uint256)": {
        "params": {
          "from": "The account address of the owner of `serialNumber` of `token`",
          "serialNumber": "The NFT serial number to transfer",
          "to": "The account address of the receiver of `serialNumber`",
          "token": "The address of the non-fungible Hedera token to transfer"
        },
        "returns": {
          "responseCode": "The response code for the status of the request. SUCCESS is 22."
        }
      }
    },
    "version": 1
  },
  "userdoc": {
    "events": {
      "CallResponseEvent(bool,bytes)": {
        "notice": "Generic event"
      }
    },
    "kind": "user",
    "methods": {
      "redirectForToken(address,bytes)": {
        "notice": "Redirect for token"
      },
      "transferFrom(address,address,address,uint256)": {
        "notice": "Only applicable to fungible tokens"
      },
      "transferFromNFT(address,address,address,uint256)": {
        "notice": "Transfers `serialNumber` of `token` from `from` to `to` using the allowance mechanism. Only applicable to NFT tokens"
      }
    },
    "version": 1
  },
  "storageLayout": {
    "storage": [
      {
        "astId": 4172,
        "contract": "contracts/SpheraMarketplace/Market.sol:Market",
        "label": "tokenBids",
        "offset": 0,
        "slot": "0",
        "type": "t_mapping(t_string_memory_ptr,t_array(t_struct(Bid)4143_storage)dyn_storage)"
      },
      {
        "astId": 4178,
        "contract": "contracts/SpheraMarketplace/Market.sol:Market",
        "label": "receivedBids",
        "offset": 0,
        "slot": "1",
        "type": "t_mapping(t_address,t_array(t_struct(Bid)4143_storage)dyn_storage)"
      },
      {
        "astId": 4184,
        "contract": "contracts/SpheraMarketplace/Market.sol:Market",
        "label": "sentBids",
        "offset": 0,
        "slot": "2",
        "type": "t_mapping(t_address,t_array(t_struct(Bid)4143_storage)dyn_storage)"
      },
      {
        "astId": 4191,
        "contract": "contracts/SpheraMarketplace/Market.sol:Market",
        "label": "buyersBidsIndexes",
        "offset": 0,
        "slot": "3",
        "type": "t_mapping(t_address,t_mapping(t_string_memory_ptr,t_struct(BidIndexes)4152_storage))"
      },
      {
        "astId": 4196,
        "contract": "contracts/SpheraMarketplace/Market.sol:Market",
        "label": "buyersTokens",
        "offset": 0,
        "slot": "4",
        "type": "t_mapping(t_address,t_struct(BuyerTokens)4155_storage)"
      },
      {
        "astId": 4201,
        "contract": "contracts/SpheraMarketplace/Market.sol:Market",
        "label": "nfts",
        "offset": 0,
        "slot": "5",
        "type": "t_mapping(t_string_memory_ptr,t_struct(NFT)4166_storage)"
      },
      {
        "astId": 4203,
        "contract": "contracts/SpheraMarketplace/Market.sol:Market",
        "label": "contractOwner",
        "offset": 0,
        "slot": "6",
        "type": "t_address"
      },
      {
        "astId": 4205,
        "contract": "contracts/SpheraMarketplace/Market.sol:Market",
        "label": "spheraTokenAddress",
        "offset": 0,
        "slot": "7",
        "type": "t_address"
      },
      {
        "astId": 4207,
        "contract": "contracts/SpheraMarketplace/Market.sol:Market",
        "label": "treasuryWalletAddress",
        "offset": 0,
        "slot": "8",
        "type": "t_address"
      },
      {
        "astId": 4210,
        "contract": "contracts/SpheraMarketplace/Market.sol:Market",
        "label": "taxFee",
        "offset": 0,
        "slot": "9",
        "type": "t_uint256"
      }
    ],
    "types": {
      "t_address": {
        "encoding": "inplace",
        "label": "address",
        "numberOfBytes": "20"
      },
      "t_address_payable": {
        "encoding": "inplace",
        "label": "address payable",
        "numberOfBytes": "20"
      },
      "t_array(t_struct(Bid)4143_storage)dyn_storage": {
        "base": "t_struct(Bid)4143_storage",
        "encoding": "dynamic_array",
        "label": "struct Market.Bid[]",
        "numberOfBytes": "32"
      },
      "t_bool": {
        "encoding": "inplace",
        "label": "bool",
        "numberOfBytes": "1"
      },
      "t_mapping(t_address,t_array(t_struct(Bid)4143_storage)dyn_storage)": {
        "encoding": "mapping",
        "key": "t_address",
        "label": "mapping(address => struct Market.Bid[])",
        "numberOfBytes": "32",
        "value": "t_array(t_struct(Bid)4143_storage)dyn_storage"
      },
      "t_mapping(t_address,t_mapping(t_string_memory_ptr,t_struct(BidIndexes)4152_storage))": {
        "encoding": "mapping",
        "key": "t_address",
        "label": "mapping(address => mapping(string => struct Market.BidIndexes))",
        "numberOfBytes": "32",
        "value": "t_mapping(t_string_memory_ptr,t_struct(BidIndexes)4152_storage)"
      },
      "t_mapping(t_address,t_struct(BuyerTokens)4155_storage)": {
        "encoding": "mapping",
        "key": "t_address",
        "label": "mapping(address => struct Market.BuyerTokens)",
        "numberOfBytes": "32",
        "value": "t_struct(BuyerTokens)4155_storage"
      },
      "t_mapping(t_string_memory_ptr,t_array(t_struct(Bid)4143_storage)dyn_storage)": {
        "encoding": "mapping",
        "key": "t_string_memory_ptr",
        "label": "mapping(string => struct Market.Bid[])",
        "numberOfBytes": "32",
        "value": "t_array(t_struct(Bid)4143_storage)dyn_storage"
      },
      "t_mapping(t_string_memory_ptr,t_struct(BidIndexes)4152_storage)": {
        "encoding": "mapping",
        "key": "t_string_memory_ptr",
        "label": "mapping(string => struct Market.BidIndexes)",
        "numberOfBytes": "32",
        "value": "t_struct(BidIndexes)4152_storage"
      },
      "t_mapping(t_string_memory_ptr,t_struct(NFT)4166_storage)": {
        "encoding": "mapping",
        "key": "t_string_memory_ptr",
        "label": "mapping(string => struct Market.NFT)",
        "numberOfBytes": "32",
        "value": "t_struct(NFT)4166_storage"
      },
      "t_string_memory_ptr": {
        "encoding": "bytes",
        "label": "string",
        "numberOfBytes": "32"
      },
      "t_struct(Bid)4143_storage": {
        "encoding": "inplace",
        "label": "struct Market.Bid",
        "members": [
          {
            "astId": 4136,
            "contract": "contracts/SpheraMarketplace/Market.sol:Market",
            "label": "owner",
            "offset": 0,
            "slot": "0",
            "type": "t_address_payable"
          },
          {
            "astId": 4138,
            "contract": "contracts/SpheraMarketplace/Market.sol:Market",
            "label": "amount",
            "offset": 0,
            "slot": "1",
            "type": "t_uint256"
          },
          {
            "astId": 4140,
            "contract": "contracts/SpheraMarketplace/Market.sol:Market",
            "label": "token",
            "offset": 0,
            "slot": "2",
            "type": "t_address"
          },
          {
            "astId": 4142,
            "contract": "contracts/SpheraMarketplace/Market.sol:Market",
            "label": "serialNumber",
            "offset": 0,
            "slot": "3",
            "type": "t_uint256"
          }
        ],
        "numberOfBytes": "128"
      },
      "t_struct(BidIndexes)4152_storage": {
        "encoding": "inplace",
        "label": "struct Market.BidIndexes",
        "members": [
          {
            "astId": 4145,
            "contract": "contracts/SpheraMarketplace/Market.sol:Market",
            "label": "tokenIndex",
            "offset": 0,
            "slot": "0",
            "type": "t_uint256"
          },
          {
            "astId": 4147,
            "contract": "contracts/SpheraMarketplace/Market.sol:Market",
            "label": "receivedIndex",
            "offset": 0,
            "slot": "1",
            "type": "t_uint256"
          },
          {
            "astId": 4149,
            "contract": "contracts/SpheraMarketplace/Market.sol:Market",
            "label": "sentIndex",
            "offset": 0,
            "slot": "2",
            "type": "t_uint256"
          },
          {
            "astId": 4151,
            "contract": "contracts/SpheraMarketplace/Market.sol:Market",
            "label": "isSet",
            "offset": 0,
            "slot": "3",
            "type": "t_bool"
          }
        ],
        "numberOfBytes": "128"
      },
      "t_struct(BuyerTokens)4155_storage": {
        "encoding": "inplace",
        "label": "struct Market.BuyerTokens",
        "members": [
          {
            "astId": 4154,
            "contract": "contracts/SpheraMarketplace/Market.sol:Market",
            "label": "sphs",
            "offset": 0,
            "slot": "0",
            "type": "t_uint256"
          }
        ],
        "numberOfBytes": "32"
      },
      "t_struct(NFT)4166_storage": {
        "encoding": "inplace",
        "label": "struct Market.NFT",
        "members": [
          {
            "astId": 4157,
            "contract": "contracts/SpheraMarketplace/Market.sol:Market",
            "label": "owner",
            "offset": 0,
            "slot": "0",
            "type": "t_address_payable"
          },
          {
            "astId": 4159,
            "contract": "contracts/SpheraMarketplace/Market.sol:Market",
            "label": "price",
            "offset": 0,
            "slot": "1",
            "type": "t_uint256"
          },
          {
            "astId": 4161,
            "contract": "contracts/SpheraMarketplace/Market.sol:Market",
            "label": "token",
            "offset": 0,
            "slot": "2",
            "type": "t_address"
          },
          {
            "astId": 4163,
            "contract": "contracts/SpheraMarketplace/Market.sol:Market",
            "label": "serialNumber",
            "offset": 0,
            "slot": "3",
            "type": "t_uint256"
          },
          {
            "astId": 4165,
            "contract": "contracts/SpheraMarketplace/Market.sol:Market",
            "label": "isListed",
            "offset": 0,
            "slot": "4",
            "type": "t_bool"
          }
        ],
        "numberOfBytes": "160"
      },
      "t_uint256": {
        "encoding": "inplace",
        "label": "uint256",
        "numberOfBytes": "32"
      }
    }
  }
}