{
  "address": "0x88E023Abf51E3A1F8754847bFb3A45226Bfab1e6",
  "abi": [
    {
      "inputs": [],
      "stateMutability": "nonpayable",
      "type": "constructor"
    },
    {
      "anonymous": false,
      "inputs": [
        {
          "indexed": true,
          "internalType": "address",
          "name": "token",
          "type": "address"
        },
        {
          "indexed": false,
          "internalType": "uint256",
          "name": "serialNumber",
          "type": "uint256"
        },
        {
          "indexed": true,
          "internalType": "address",
          "name": "owner",
          "type": "address"
        },
        {
          "indexed": true,
          "internalType": "address",
          "name": "buyer",
          "type": "address"
        },
        {
          "indexed": false,
          "internalType": "uint256",
          "name": "acceptedBidAmount",
          "type": "uint256"
        }
      ],
      "name": "AcceptBid",
      "type": "event"
    },
    {
      "anonymous": false,
      "inputs": [
        {
          "indexed": true,
          "internalType": "address",
          "name": "token",
          "type": "address"
        },
        {
          "indexed": false,
          "internalType": "uint256",
          "name": "serialNumber",
          "type": "uint256"
        },
        {
          "indexed": true,
          "internalType": "address",
          "name": "owner",
          "type": "address"
        },
        {
          "indexed": true,
          "internalType": "address",
          "name": "buyer",
          "type": "address"
        },
        {
          "indexed": false,
          "internalType": "uint256",
          "name": "amount",
          "type": "uint256"
        }
      ],
      "name": "AddBid",
      "type": "event"
    },
    {
      "anonymous": false,
      "inputs": [
        {
          "indexed": false,
          "internalType": "bool",
          "name": "",
          "type": "bool"
        },
        {
          "indexed": false,
          "internalType": "bytes",
          "name": "",
          "type": "bytes"
        }
      ],
      "name": "CallResponseEvent",
      "type": "event"
    },
    {
      "anonymous": false,
      "inputs": [
        {
          "indexed": true,
          "internalType": "address",
          "name": "token",
          "type": "address"
        },
        {
          "indexed": true,
          "internalType": "uint256",
          "name": "serialNumber",
          "type": "uint256"
        },
        {
          "indexed": true,
          "internalType": "address",
          "name": "owner",
          "type": "address"
        },
        {
          "indexed": false,
          "internalType": "uint256",
          "name": "amount",
          "type": "uint256"
        }
      ],
      "name": "DeleteBid",
      "type": "event"
    },
    {
      "anonymous": false,
      "inputs": [
        {
          "indexed": true,
          "internalType": "address",
          "name": "token",
          "type": "address"
        },
        {
          "indexed": true,
          "internalType": "uint256",
          "name": "serialNumber",
          "type": "uint256"
        },
        {
          "indexed": true,
          "internalType": "address",
          "name": "_owner",
          "type": "address"
        },
        {
          "indexed": false,
          "internalType": "uint256",
          "name": "price",
          "type": "uint256"
        }
      ],
      "name": "ListNFT",
      "type": "event"
    },
    {
      "anonymous": false,
      "inputs": [
        {
          "indexed": true,
          "internalType": "address",
          "name": "token",
          "type": "address"
        },
        {
          "indexed": true,
          "internalType": "uint256",
          "name": "serialNumber",
          "type": "uint256"
        },
        {
          "indexed": true,
          "internalType": "address",
          "name": "owner",
          "type": "address"
        },
        {
          "indexed": false,
          "internalType": "uint256",
          "name": "price",
          "type": "uint256"
        }
      ],
      "name": "UnlistNFT",
      "type": "event"
    },
    {
      "stateMutability": "payable",
      "type": "fallback"
    },
    {
      "inputs": [
        {
          "internalType": "address",
          "name": "_token",
          "type": "address"
        },
        {
          "internalType": "uint256",
          "name": "_serialNumber",
          "type": "uint256"
        },
        {
          "internalType": "address payable",
          "name": "_buyer",
          "type": "address"
        },
        {
          "internalType": "uint256",
          "name": "_acceptedBidAmount",
          "type": "uint256"
        }
      ],
      "name": "acceptBid",
      "outputs": [
        {
          "internalType": "uint256",
          "name": "",
          "type": "uint256"
        }
      ],
      "stateMutability": "nonpayable",
      "type": "function"
    },
    {
      "inputs": [
        {
          "internalType": "address",
          "name": "_token",
          "type": "address"
        },
        {
          "internalType": "uint256",
          "name": "_serialNumber",
          "type": "uint256"
        },
        {
          "internalType": "uint256",
          "name": "tokenAmount",
          "type": "uint256"
        }
      ],
      "name": "addBid",
      "outputs": [
        {
          "internalType": "uint256",
          "name": "",
          "type": "uint256"
        }
      ],
      "stateMutability": "payable",
      "type": "function"
    },
    {
      "inputs": [
        {
          "internalType": "address",
          "name": "_token",
          "type": "address"
        }
      ],
      "name": "associateToken",
      "outputs": [
        {
          "internalType": "int256",
          "name": "",
          "type": "int256"
        }
      ],
      "stateMutability": "nonpayable",
      "type": "function"
    },
    {
      "inputs": [
        {
          "internalType": "address",
          "name": "",
          "type": "address"
        },
        {
          "internalType": "string",
          "name": "",
          "type": "string"
        }
      ],
      "name": "buyersBidsIndexes",
      "outputs": [
        {
          "internalType": "uint256",
          "name": "tokenIndex",
          "type": "uint256"
        },
        {
          "internalType": "uint256",
          "name": "receivedIndex",
          "type": "uint256"
        },
        {
          "internalType": "uint256",
          "name": "sentIndex",
          "type": "uint256"
        },
        {
          "internalType": "bool",
          "name": "isSet",
          "type": "bool"
        }
      ],
      "stateMutability": "view",
      "type": "function"
    },
    {
      "inputs": [
        {
          "internalType": "address",
          "name": "",
          "type": "address"
        }
      ],
      "name": "buyersTokens",
      "outputs": [
        {
          "internalType": "uint256",
          "name": "sphs",
          "type": "uint256"
        }
      ],
      "stateMutability": "view",
      "type": "function"
    },
    {
      "inputs": [
        {
          "internalType": "uint256",
          "name": "_newFee",
          "type": "uint256"
        }
      ],
      "name": "changeTaxFee",
      "outputs": [],
      "stateMutability": "nonpayable",
      "type": "function"
    },
    {
      "inputs": [
        {
          "internalType": "address",
          "name": "_token",
          "type": "address"
        },
        {
          "internalType": "uint256",
          "name": "_serialNumber",
          "type": "uint256"
        },
        {
          "internalType": "address payable",
          "name": "_buyer",
          "type": "address"
        }
      ],
      "name": "deleteBid",
      "outputs": [
        {
          "internalType": "uint256",
          "name": "",
          "type": "uint256"
        }
      ],
      "stateMutability": "nonpayable",
      "type": "function"
    },
    {
      "inputs": [
        {
          "internalType": "address",
          "name": "_owner",
          "type": "address"
        },
        {
          "internalType": "uint64",
          "name": "page",
          "type": "uint64"
        },
        {
          "internalType": "uint64",
          "name": "pageSize",
          "type": "uint64"
        }
      ],
      "name": "getReceivedBids",
      "outputs": [
        {
          "components": [
            {
              "internalType": "address payable",
              "name": "owner",
              "type": "address"
            },
            {
              "internalType": "uint256",
              "name": "amount",
              "type": "uint256"
            },
            {
              "internalType": "address",
              "name": "token",
              "type": "address"
            },
            {
              "internalType": "uint256",
              "name": "serialNumber",
              "type": "uint256"
            }
          ],
          "internalType": "struct Market.Bid[]",
          "name": "",
          "type": "tuple[]"
        }
      ],
      "stateMutability": "view",
      "type": "function"
    },
    {
      "inputs": [
        {
          "internalType": "address",
          "name": "_buyer",
          "type": "address"
        },
        {
          "internalType": "uint64",
          "name": "page",
          "type": "uint64"
        },
        {
          "internalType": "uint64",
          "name": "pageSize",
          "type": "uint64"
        }
      ],
      "name": "getSentBids",
      "outputs": [
        {
          "components": [
            {
              "internalType": "address payable",
              "name": "owner",
              "type": "address"
            },
            {
              "internalType": "uint256",
              "name": "amount",
              "type": "uint256"
            },
            {
              "internalType": "address",
              "name": "token",
              "type": "address"
            },
            {
              "internalType": "uint256",
              "name": "serialNumber",
              "type": "uint256"
            }
          ],
          "internalType": "struct Market.Bid[]",
          "name": "",
          "type": "tuple[]"
        }
      ],
      "stateMutability": "view",
      "type": "function"
    },
    {
      "inputs": [
        {
          "internalType": "address",
          "name": "_token",
          "type": "address"
        },
        {
          "internalType": "uint256",
          "name": "_serialNumber",
          "type": "uint256"
        },
        {
          "internalType": "address",
          "name": "_buyer",
          "type": "address"
        }
      ],
      "name": "getTokenBid",
      "outputs": [
        {
          "components": [
            {
              "internalType": "address payable",
              "name": "owner",
              "type": "address"
            },
            {
              "internalType": "uint256",
              "name": "amount",
              "type": "uint256"
            },
            {
              "internalType": "address",
              "name": "token",
              "type": "address"
            },
            {
              "internalType": "uint256",
              "name": "serialNumber",
              "type": "uint256"
            }
          ],
          "internalType": "struct Market.Bid",
          "name": "",
          "type": "tuple"
        }
      ],
      "stateMutability": "view",
      "type": "function"
    },
    {
      "inputs": [
        {
          "internalType": "address",
          "name": "_token",
          "type": "address"
        },
        {
          "internalType": "uint256",
          "name": "_serialNumber",
          "type": "uint256"
        },
        {
          "internalType": "uint64",
          "name": "page",
          "type": "uint64"
        },
        {
          "internalType": "uint64",
          "name": "pageSize",
          "type": "uint64"
        }
      ],
      "name": "getTokenBids",
      "outputs": [
        {
          "components": [
            {
              "internalType": "address payable",
              "name": "owner",
              "type": "address"
            },
            {
              "internalType": "uint256",
              "name": "amount",
              "type": "uint256"
            },
            {
              "internalType": "address",
              "name": "token",
              "type": "address"
            },
            {
              "internalType": "uint256",
              "name": "serialNumber",
              "type": "uint256"
            }
          ],
          "internalType": "struct Market.Bid[]",
          "name": "",
          "type": "tuple[]"
        }
      ],
      "stateMutability": "view",
      "type": "function"
    },
    {
      "inputs": [
        {
          "internalType": "address[]",
          "name": "_tokens",
          "type": "address[]"
        },
        {
          "internalType": "uint256[]",
          "name": "_serialNumbers",
          "type": "uint256[]"
        },
        {
          "internalType": "uint256[]",
          "name": "_prices",
          "type": "uint256[]"
        }
      ],
      "name": "listNFT",
      "outputs": [
        {
          "internalType": "uint256",
          "name": "",
          "type": "uint256"
        }
      ],
      "stateMutability": "nonpayable",
      "type": "function"
    },
    {
      "inputs": [
        {
          "internalType": "string",
          "name": "",
          "type": "string"
        }
      ],
      "name": "nfts",
      "outputs": [
        {
          "internalType": "address payable",
          "name": "owner",
          "type": "address"
        },
        {
          "internalType": "uint256",
          "name": "price",
          "type": "uint256"
        },
        {
          "internalType": "address",
          "name": "token",
          "type": "address"
        },
        {
          "internalType": "uint256",
          "name": "serialNumber",
          "type": "uint256"
        },
        {
          "internalType": "bool",
          "name": "isListed",
          "type": "bool"
        }
      ],
      "stateMutability": "view",
      "type": "function"
    },
    {
      "inputs": [
        {
          "internalType": "address",
          "name": "",
          "type": "address"
        },
        {
          "internalType": "uint256",
          "name": "",
          "type": "uint256"
        }
      ],
      "name": "receivedBids",
      "outputs": [
        {
          "internalType": "address payable",
          "name": "owner",
          "type": "address"
        },
        {
          "internalType": "uint256",
          "name": "amount",
          "type": "uint256"
        },
        {
          "internalType": "address",
          "name": "token",
          "type": "address"
        },
        {
          "internalType": "uint256",
          "name": "serialNumber",
          "type": "uint256"
        }
      ],
      "stateMutability": "view",
      "type": "function"
    },
    {
      "inputs": [
        {
          "internalType": "address",
          "name": "token",
          "type": "address"
        },
        {
          "internalType": "bytes",
          "name": "encodedFunctionSelector",
          "type": "bytes"
        }
      ],
      "name": "redirectForToken",
      "outputs": [
        {
          "internalType": "int256",
          "name": "responseCode",
          "type": "int256"
        },
        {
          "internalType": "bytes",
          "name": "response",
          "type": "bytes"
        }
      ],
      "stateMutability": "nonpayable",
      "type": "function"
    },
    {
      "inputs": [
        {
          "internalType": "address",
          "name": "_tokenAddress",
          "type": "address"
        }
      ],
      "name": "registerSpheraToken",
      "outputs": [],
      "stateMutability": "nonpayable",
      "type": "function"
    },
    {
      "inputs": [],
      "name": "sendSphsToContract",
      "outputs": [
        {
          "internalType": "uint256",
          "name": "",
          "type": "uint256"
        }
      ],
      "stateMutability": "payable",
      "type": "function"
    },
    {
      "inputs": [
        {
          "internalType": "address",
          "name": "",
          "type": "address"
        },
        {
          "internalType": "uint256",
          "name": "",
          "type": "uint256"
        }
      ],
      "name": "sentBids",
      "outputs": [
        {
          "internalType": "address payable",
          "name": "owner",
          "type": "address"
        },
        {
          "internalType": "uint256",
          "name": "amount",
          "type": "uint256"
        },
        {
          "internalType": "address",
          "name": "token",
          "type": "address"
        },
        {
          "internalType": "uint256",
          "name": "serialNumber",
          "type": "uint256"
        }
      ],
      "stateMutability": "view",
      "type": "function"
    },
    {
      "inputs": [],
      "name": "spheraTokenAddress",
      "outputs": [
        {
          "internalType": "address",
          "name": "",
          "type": "address"
        }
      ],
      "stateMutability": "view",
      "type": "function"
    },
    {
      "inputs": [],
      "name": "taxFee",
      "outputs": [
        {
          "internalType": "uint256",
          "name": "",
          "type": "uint256"
        }
      ],
      "stateMutability": "view",
      "type": "function"
    },
    {
      "inputs": [
        {
          "internalType": "string",
          "name": "",
          "type": "string"
        },
        {
          "internalType": "uint256",
          "name": "",
          "type": "uint256"
        }
      ],
      "name": "tokenBids",
      "outputs": [
        {
          "internalType": "address payable",
          "name": "owner",
          "type": "address"
        },
        {
          "internalType": "uint256",
          "name": "amount",
          "type": "uint256"
        },
        {
          "internalType": "address",
          "name": "token",
          "type": "address"
        },
        {
          "internalType": "uint256",
          "name": "serialNumber",
          "type": "uint256"
        }
      ],
      "stateMutability": "view",
      "type": "function"
    },
    {
      "inputs": [
        {
          "internalType": "address",
          "name": "token",
          "type": "address"
        },
        {
          "internalType": "address",
          "name": "from",
          "type": "address"
        },
        {
          "internalType": "address",
          "name": "to",
          "type": "address"
        },
        {
          "internalType": "uint256",
          "name": "amount",
          "type": "uint256"
        }
      ],
      "name": "transferFrom",
      "outputs": [
        {
          "internalType": "int64",
          "name": "responseCode",
          "type": "int64"
        }
      ],
      "stateMutability": "nonpayable",
      "type": "function"
    },
    {
      "inputs": [
        {
          "internalType": "address",
          "name": "token",
          "type": "address"
        },
        {
          "internalType": "address",
          "name": "from",
          "type": "address"
        },
        {
          "internalType": "address",
          "name": "to",
          "type": "address"
        },
        {
          "internalType": "uint256",
          "name": "serialNumber",
          "type": "uint256"
        }
      ],
      "name": "transferFromNFT",
      "outputs": [
        {
          "internalType": "int64",
          "name": "responseCode",
          "type": "int64"
        }
      ],
      "stateMutability": "nonpayable",
      "type": "function"
    },
    {
      "inputs": [
        {
          "internalType": "address",
          "name": "_token",
          "type": "address"
        },
        {
          "internalType": "uint256",
          "name": "_serialNumber",
          "type": "uint256"
        }
      ],
      "name": "unlistNFT",
      "outputs": [
        {
          "internalType": "uint256",
          "name": "",
          "type": "uint256"
        }
      ],
      "stateMutability": "nonpayable",
      "type": "function"
    },
    {
      "stateMutability": "payable",
      "type": "receive"
    }
  ],
  "transactionHash": "0xe10b46afc67efff074df9747bbc855af19f42048ecd0798a08d6b5045a835dff",
  "args": [],
  "numDeployments": 1,
  "solcInputHash": "2f4200f4ae8ff356146c6d1da3aa0683",
  "bytecode": "0x6080604052601960095534801561001557600080fd5b50600680546001600160a01b03191633179055614882806100376000396000f3fe6080604052600436106101435760003560e01c80639b23d3d9116100b0578063bc78a32a1161006c578063bc78a32a1461044f578063d5cae81f1461046f578063d7dbd71b1461048f578063e2d4d360146104af578063f2ce238a146104dc578063f40774061461056057005b80639b23d3d91461031c5780639d170dd71461033c578063a071dcf41461035c578063a7e5c46414610372578063a7efe34814610392578063b66fb090146103b257005b80634e524b50116100ff5780634e524b501461025a578063584e8d2a1461027a578063618dc65e1461029a5780636c7f20c0146102c85780637fc27efd146102f55780638883edf11461031557005b806315dacbea1461014c57806316e807c414610184578063322b71d8146101a557806332a12a23146101dd578063443349b11461020d5780634d0df92b1461023a57005b3661014a57005b005b34801561015857600080fd5b5061016c610167366004613582565b610580565b60405160079190910b81526020015b60405180910390f35b6101976101923660046135d3565b610663565b60405190815260200161017b565b3480156101b157600080fd5b506007546101c5906001600160a01b031681565b6040516001600160a01b03909116815260200161017b565b3480156101e957600080fd5b506101fd6101f8366004613608565b610f14565b60405161017b9493929190613634565b34801561021957600080fd5b5061022d610228366004613675565b610f68565b60405161017b91906136c4565b34801561024657600080fd5b5061014a61025536600461373e565b611035565b34801561026657600080fd5b5061019761027536600461375b565b611081565b34801561028657600080fd5b5061014a610295366004613793565b6117da565b3480156102a657600080fd5b506102ba6102b53660046138e6565b611809565b60405161017b929190613999565b3480156102d457600080fd5b506101976102e336600461373e565b60046020526000908152604090205481565b34801561030157600080fd5b50610197610310366004613608565b611937565b6000610197565b34801561032857600080fd5b5061016c610337366004613582565b611a7e565b34801561034857600080fd5b5061022d6103573660046139b2565b611aae565b34801561036857600080fd5b5061019760095481565b34801561037e57600080fd5b5061019761038d3660046139f7565b611b5f565b34801561039e57600080fd5b506101976103ad36600461373e565b611e6c565b3480156103be57600080fd5b506104166103cd366004613a59565b8051602081830181018051600582529282019190930120915280546001820154600283015460038401546004909401546001600160a01b03938416949293909116919060ff1685565b604080516001600160a01b039687168152602081019590955292909416918301919091526060820152901515608082015260a00161017b565b34801561045b57600080fd5b506101fd61046a366004613a8d565b611eff565b34801561047b57600080fd5b5061019761048a366004613b4f565b611f2a565b34801561049b57600080fd5b5061022d6104aa3660046139b2565b61246b565b3480156104bb57600080fd5b506104cf6104ca3660046139f7565b6124ff565b60405161017b9190613c34565b3480156104e857600080fd5b5061053e6104f7366004613c6d565b600360208181526000938452604090932082518084018501805192815290850193909401929092209190925280546001820154600283015492909301549092919060ff1684565b604080519485526020850193909352918301521515606082015260800161017b565b34801561056c57600080fd5b506101fd61057b366004613608565b612644565b60008060006101676001600160a01b03166315dacbea60e01b888888886040516024016105b09493929190613cb2565b60408051601f198184030181529181526020820180516001600160e01b03166001600160e01b03199094169390931790925290516105ee9190613cdc565b6000604051808303816000865af19150503d806000811461062b576040519150601f19603f3d011682016040523d82523d6000602084013e610630565b606091505b509150915081610641576015610655565b808060200190518101906106559190613d0a565b60030b979650505050505050565b600033816106718686612660565b90506005816040516106839190613cdc565b9081526040519081900360200190206004015460ff166106db5760405162461bcd60e51b815260206004820152600e60248201526d139195081b9bdd081b1a5cdd195960921b60448201526064015b60405180910390fd5b6000806106e8888861266c565b90925090506016821461070d5760405162461bcd60e51b81526004016106d290613d25565b60058360405161071d9190613cdc565b908152604080519182900360200190912054908201516001600160a01b039081169116146107a65760405162461bcd60e51b815260206004820152603060248201527f4e6674206f776e657220686173206265656e206368616e6765642e20496e766160448201526f3634b21027232a103634b9ba34b7339760811b60648201526084016106d2565b6007546000906107c1906001600160a01b031633308a612759565b9050601681146108135760405162461bcd60e51b815260206004820152601f60248201527f4661696c656420746f207472616e736665722053706865726120546f6b656e0060448201526064016106d2565b6001600160a01b03851660009081526004602052604081205490036108615760408051602080820183528982526001600160a01b03881660009081526004909152919091209051905561088f565b6001600160a01b03851660009081526004602052604081208054899290610889908490613d72565b90915550505b6001600160a01b03851660009081526003602052604080822090516108b5908790613cdc565b9081526040805191829003602090810183206080840183528054845260018101548483015260028101548484015260039081015460ff16151560608501526001600160a01b038a1660009081529152819020905191925090610918908790613cdc565b9081526040519081900360200190206003015460ff1615610bb657600080866040516109449190613cdc565b90815260405190819003602001902082518154811061096557610965613d85565b600091825260209182902060408051608081018252600490930290910180546001600160a01b03908116845260018201549484018590526002820154169183019190915260030154606082015291506109c190889081906127a1565b886000876040516109d29190613cdc565b9081526040519081900360200190208351815481106109f3576109f3613d85565b9060005260206000209060040201600101819055508860016000600589604051610a1d9190613cdc565b9081526040805160209281900383019020546001600160a01b031683528282019390935291016000209084015181548110610a5a57610a5a613d85565b9060005260206000209060040201600101819055508860026000896001600160a01b03166001600160a01b03168152602001908152602001600020836040015181548110610aaa57610aaa613d85565b906000526020600020906004020160010181905550600586604051610acf9190613cdc565b9081526020016040518091039020600101548910610b61576040516304e524b560e41b81523090634e524b5090610b10908e908e908c908f90600401613634565b6020604051808303816000875af1158015610b2f573d6000803e3d6000fd5b505050506040513d601f19601f82011682018060405250810190610b539190613d9b565b975050505050505050610f0d565b60408085015181518c8152602081018c905233926001600160a01b03928316928f16917f36d6fe2f8514bad704749bcc0910b552f83180da8b6690b8a953fc2086d9a9c1910160405180910390a46000610b53565b604080516080810182526001600160a01b038089168252602082018b90528c1681830152606081018b90529051600090610bf1908890613cdc565b908152604080516020928190038301812080546001808201835560009283528583208751600493840290910180546001600160a01b03199081166001600160a01b039384161782558989018051838601558a890180516002808601805486169288169290921790915560608d018051600396870155338a52818d529a892080548089018255908a529b89208d519c909802909701805484169b86169b909b178b5590518a860155519489018054909116949092169390931790559351940193909355909190600590610cc4908a90613cdc565b90815260408051918290036020908101909220546001600160a01b039081168452838301949094529182016000908120805460018181018355918352838320875160049092020180549187166001600160a01b031992831617815593870151848301558685015160028501805491909716911617909455606085015160039092019190915581516080810192839052928392909190610d64908b90613cdc565b90815260405190819003602001902054610d7e9190613db4565b8152602001600180600060058b604051610d989190613cdc565b9081526040805160209281900383019020546001600160a01b03168352908201929092520160002054610dcb9190613db4565b815233600090815260026020908152604090912054910190610def90600190613db4565b815260016020918201526001600160a01b038916600090815260039091526040908190209051610e20908990613cdc565b9081526040805160209281900383018120845181559284015160018401559083015160028301556060909201516003909101805460ff1916911515919091179055600590610e6f908890613cdc565b9081526020016040518091039020600101548910610eb35760208101516040516304e524b560e41b81523091634e524b5091610b10918f918f918d91600401613634565b60408085015181518c8152602081018c905233926001600160a01b03928316928f16917f36d6fe2f8514bad704749bcc0910b552f83180da8b6690b8a953fc2086d9a9c1910160405180910390a460009750505050505050505b9392505050565b60026020528160005260406000208181548110610f3057600080fd5b600091825260209091206004909102018054600182015460028301546003909301546001600160a01b03928316955090935091169084565b60606000610f768686612660565b905060008082604051610f899190613cdc565b9081526020016040518091039020805480602002602001604051908101604052809291908181526020016000905b82821015611019576000848152602090819020604080516080810182526004860290920180546001600160a01b039081168452600180830154858701526002830154909116928401929092526003015460608301529083529092019101610fb7565b50505050905061102a8186866128c8565b979650505050505050565b6006546001600160a01b0316331461105f5760405162461bcd60e51b81526004016106d290613dc7565b600780546001600160a01b0319166001600160a01b0392909216919091179055565b60008061108e8686612660565b90506005816040516110a09190613cdc565b90815260405190819003602001902054336001600160a01b0390911614806110c757503330145b6110e35760405162461bcd60e51b81526004016106d290613df7565b6005816040516110f39190613cdc565b9081526040519081900360200190206004015460ff166111465760405162461bcd60e51b815260206004820152600e60248201526d139195081b9bdd081b1a5cdd195960921b60448201526064016106d2565b600080611153888861266c565b9092509050601682146111785760405162461bcd60e51b81526004016106d290613d25565b60a08101516001600160a01b031630146111e95760405162461bcd60e51b815260206004820152602c60248201527f436f6e747261637420646f65736e2774206861766520616c6c6f77616e63652060448201526b199bdc881d1a1a5cc813919560a21b60648201526084016106d2565b6001600160a01b038616600090815260036020526040908190209051611210908590613cdc565b9081526040519081900360200190206003015460ff1661127e5760405162461bcd60e51b815260206004820152602360248201527f427579657220646f65736e277420686176652062696420666f7220746869732060448201526213919560ea1b60648201526084016106d2565b8460008460405161128f9190613cdc565b908152602001604051809103902060036000896001600160a01b03166001600160a01b03168152602001908152602001600020856040516112d09190613cdc565b90815260405190819003602001902054815481106112f0576112f0613d85565b906000526020600020906004020160010154146113755760405162461bcd60e51b815260206004820152603760248201527f54686973206275796572206469646e277420737567676573742074686174207060448201527f726963652076616c756520666f722074686973204e465400000000000000000060648201526084016106d2565b6001600160a01b0386166000908152600460205260409020548511156113f45760405162461bcd60e51b815260206004820152602e60248201527f427579657220646f65736e2774206861766520656e6f7567682053504873206960448201526d1b881d1a194818dbdb9d1c9858dd60921b60648201526084016106d2565b6009548590156114a05760006103e86009546114109190613e55565b61141a9083613e69565b60075460085491925060009161143f916001600160a01b039081169130911685612759565b9050601681146114915760405162461bcd60e51b815260206004820152601760248201527f4661696c656420746f2073656e6420746178205370682e00000000000000000060448201526064016106d2565b61149b8284613db4565b925050505b6000826000015160e001516000815181106114bd576114bd613d85565b602002602001015190506000816000015160070b13156115af57602081015181516000916114ea91613e80565b6114f79060070b84613e69565b905060008260a001516001600160a01b03168260405160006040518083038185875af1925050503d806000811461154a576040519150601f19603f3d011682016040523d82523d6000602084013e61154f565b606091505b50509050806115a05760405162461bcd60e51b815260206004820152601a60248201527f4661696c656420746f2073656e6420726f79616c74792053706800000000000060448201526064016106d2565b6115aa8285613db4565b935050505b6115e2886005876040516115c39190613cdc565b908152604051908190036020019020546001600160a01b0316846127a1565b6000306001600160a01b0316639b23d3d98c6005896040516116049190613cdc565b908152602001604051809103902060000160009054906101000a90046001600160a01b03168c8e6040518563ffffffff1660e01b815260040161164a9493929190613cb2565b6020604051808303816000875af1158015611669573d6000803e3d6000fd5b505050506040513d601f19601f8201168201806040525081019061168d9190613ed1565b60070b9050601681146116db5760405162461bcd60e51b815260206004820152601660248201527511985a5b1959081d1bc81d1c985b9cd9995c8813919560521b60448201526064016106d2565b6116e5868a612ae1565b886001600160a01b03166005876040516116ff9190613cdc565b9081526040805160209281900383018120548e82529281018c90526001600160a01b03928316928f16917f6e7a4c46395b56b7d97ccc3926f0db0dac3c760b187854dd2497e50c4dc82d62910160405180910390a460006005876040516117669190613cdc565b908152604051908190036020018120600401805492151560ff1990931692909217909155899060059061179a908990613cdc565b90815260405190819003602001902080546001600160a01b03929092166001600160a01b031990921691909117905560009b9a5050505050505050505050565b6006546001600160a01b031633146118045760405162461bcd60e51b81526004016106d290613dc7565b600955565b600060606000806101676001600160a01b031663618dc65e60e01b8787604051602401611837929190613eec565b60408051601f198184030181529181526020820180516001600160e01b03166001600160e01b03199094169390931790925290516118759190613cdc565b6000604051808303816000865af19150503d80600081146118b2576040519150601f19603f3d011682016040523d82523d6000602084013e6118b7565b606091505b50915091507f4af4780e06fe8cb9df64b0794fa6f01399af979175bb988e35e0e57e594567bc82826040516118ed929190613f10565b60405180910390a18161191157601560405180602001604052806000815250611925565b808060200190518101906119259190613f70565b60039190910b97909650945050505050565b6000806119448484612660565b9050600080611953868661266c565b9092509050601682146119785760405162461bcd60e51b81526004016106d290613d25565b80604001516001600160a01b0316336001600160a01b031614806119a657506006546001600160a01b031633145b6119c25760405162461bcd60e51b81526004016106d290613df7565b6119cd836000612ae1565b60006005846040516119df9190613cdc565b908152602001604051809103902060040160006101000a81548160ff02191690831515021790555080604001516001600160a01b031685876001600160a01b03167f80a72ae9592e395c65a589d23febcc7bef05213af5110bf6e547949373c81503600587604051611a519190613cdc565b908152604051602091819003820181206001015481520160405180910390a4600093505050505b92915050565b60008060006101676001600160a01b0316639b23d3d960e01b888888886040516024016105b09493929190613cb2565b6001600160a01b0383166000908152600160209081526040808320805482518185028101850190935280835260609493849084015b82821015611b45576000848152602090819020604080516080810182526004860290920180546001600160a01b039081168452600180830154858701526002830154909116928401929092526003015460608301529083529092019101611ae3565b505050509050611b568185856128c8565b95945050505050565b600080611b6c8585612660565b9050336001600160a01b0384161480611b8f57506006546001600160a01b031633145b611bee5760405162461bcd60e51b815260206004820152602a60248201527f596f752068617665206e6f207065726d697373696f6e7320666f72207468697360448201526910333ab731ba34b7b71760b11b60648201526084016106d2565b6001600160a01b038316600090815260036020526040908190209051611c15908390613cdc565b9081526040519081900360200190206003015460ff16611c775760405162461bcd60e51b815260206004820152601d60248201527f596f752068617665206e6f206269647320666f722074686973204e465400000060448201526064016106d2565b6001600160a01b0383166000908152600360205260408082209051611c9d908490613cdc565b9081526040519081900360200181205491506000908190611cbf908590613cdc565b90815260200160405180910390208281548110611cde57611cde613d85565b6000918252602080832060408051608081018252600490940290910180546001600160a01b039081168552600182015493850193909352600281015490921683820152600390910154606083015251909250611d3b908590613cdc565b90815260200160405180910390208281548110611d5a57611d5a613d85565b60009182526020808320600492830201600101546001600160a01b03891684529190526040909120541015611df05760405162461bcd60e51b815260206004820152603660248201527f596f752068617665206e6f20656e6f756768206d6f6e657920696e207468652060448201527518dbdb9d1c9858dd081d1bc819195b195d1948189a5960521b60648201526084016106d2565b336001600160a01b031686886001600160a01b03167f14db41ce7a73af30b2195ae2a1cdfe6165695f7af0d286d97da60d47b75318258460200151604051611e3a91815260200190565b60405180910390a4611e51858683602001516127a1565b611e5f838260000151612c04565b6000979650505050505050565b6006546000906001600160a01b03163314611e995760405162461bcd60e51b81526004016106d290613dc7565b6000611ea5308461303d565b905060168114611ef75760405162461bcd60e51b815260206004820152601960248201527f4661696c656420746f206173736f636961746520746f6b656e0000000000000060448201526064016106d2565b90505b919050565b81516020818401810180516000825292820191850191909120919052805482908110610f3057600080fd5b6000808451118015611f3d575060008351115b8015611f4a575060008251115b611fa15760405162461bcd60e51b815260206004820152602260248201527f4172726179206c656e6774682073686f756c64206265206d6f7265207468616e604482015261020360f41b60648201526084016106d2565b82518451148015611fb3575081518451145b611ff85760405162461bcd60e51b8152602060048201526016602482015275082e4e4c2f2e640d8cadccee8d040dad2e6dac2e8c6d60531b60448201526064016106d2565b60005b845181101561245f57600085828151811061201857612018613d85565b60200260200101519050600085838151811061203657612036613d85565b60200260200101519050600085848151811061205457612054613d85565b6020026020010151905060008061206b858561266c565b9092509050601682146120905760405162461bcd60e51b81526004016106d290613d25565b60a08101516001600160a01b031630146121075760405162461bcd60e51b815260206004820152603260248201527f54686520436f6e747261637420646f65736e2774206861766520616c6c6f77616044820152713731b2903337b9103a3434b9903a37b5b2b760711b60648201526084016106d2565b80604001516001600160a01b0316336001600160a01b03161461213c5760405162461bcd60e51b81526004016106d290613df7565b60006121488686612660565b905060058160405161215a9190613cdc565b9081526040519081900360200190206004015460ff1680156121b1575081604001516001600160a01b03166005826040516121959190613cdc565b908152604051908190036020019020546001600160a01b031614155b156121c1576121c1816000612ae1565b6040518060a0016040528083604001516001600160a01b03168152602001858152602001876001600160a01b03168152602001868152602001600115158152506005826040516122119190613cdc565b9081526040805160209281900383018120845181546001600160a01b03199081166001600160a01b039283161783558686015160018401559386015160028301805490951690821617909355606085015160038201556080909401516004909401805460ff19169415159490941790935586835233928892918a16917fe065949781be696d3f91077ee93178e3eb0472a4e60456f00a1161fde5735832910160405180910390a46122c0613451565b60005b6000836040516122d39190613cdc565b908152604051908190036020019020548110156123c757600080846040516122fb9190613cdc565b9081526020016040518091039020828154811061231a5761231a613d85565b600091825260209182902060408051608081018252600490930290910180546001600160a01b0390811684526001820154948401949094526002810154909316828201526003909201546060820152905190915060059061237c908690613cdc565b9081526020016040518091039020600101548160200151101580156123a8575082602001518160200151115b156123b45791506123c7565b50806123bf81613fb3565b9150506122c3565b5060208101511561244557805160208201516040516304e524b560e41b81523092634e524b5092612400928c928c929091600401613634565b6020604051808303816000875af115801561241f573d6000803e3d6000fd5b505050506040513d601f19601f820116820180604052508101906124439190613d9b565b505b50505050505050808061245790613fb3565b915050611ffb565b5060005b949350505050565b6001600160a01b0383166000908152600260209081526040808320805482518185028101850190935280835260609493849084018215611b45576000848152602090819020604080516080810182526004860290920180546001600160a01b039081168452600180830154858701526002830154909116928401929092526003015460608301529083529092019101611ae3565b612507613451565b60006125138585612660565b604080516080810182526001600160a01b0380871680835260006020808501829052928b1684860152606084018a9052908152600390915282812092519394509092909190612563908590613cdc565b908152604080519182900360209081018320608084018352805484526001810154918401919091526002810154918301919091526003015460ff161515606082018190529091506125b857509150610f0d9050565b6000836040516125c89190613cdc565b9081526040519081900360200190208151815481106125e9576125e9613d85565b600091825260209182902060408051608081018252600490930290910180546001600160a01b039081168452600182015494840194909452600281015490931690820152600390910154606082015293505050509392505050565b60016020528160005260406000208181548110610f3057600080fd5b6060610f0d8383613111565b600061267661348b565b604080516001600160a01b0386166024820152600785900b60448083019190915282518083039091018152606490910182526020810180516001600160e01b031663050fc3b560e31b17905290516000918291610167916126d691613cdc565b6000604051808303816000865af19150503d8060008114612713576040519150601f19603f3d011682016040523d82523d6000602084013e612718565b606091505b509150915061272561348b565b8261273257601581612746565b818060200190518101906127469190614657565b60039190910b9890975095505050505050565b6040516001600160a01b038581166024830152848116604483015283166064820152600782900b6084820152600090819081906101679063eca3691760e01b9060a4016105b0565b6001600160a01b0383166000908152600460205260409020548111156128175760405162461bcd60e51b815260206004820152602560248201527f4e6f7420656e6f75676820757365722073706873206f6e2074686520636f6e74604482015264726163742160d81b60648201526084016106d2565b600754600090612832906001600160a01b0316308585612759565b9050601681146128845760405162461bcd60e51b815260206004820152601f60248201527f4661696c656420746f207472616e736665722053706865726120546f6b656e0060448201526064016106d2565b6001600160a01b03841630146128c2576001600160a01b038416600090815260046020526040812080548492906128bc908490613db4565b90915550505b50505050565b606083516000036128da575082610f0d565b6000826001600160401b0316116129335760405162461bcd60e51b815260206004820152601f60248201527f7061676553697a65206d7573742062652067726561746572207468616e20300060448201526064016106d2565b6000836001600160401b03161161298c5760405162461bcd60e51b815260206004820152601b60248201527f706167696e6174696f6e206973207374617274696e672061742031000000000060448201526064016106d2565b60008261299a60018661473e565b6129a49190614765565b6001600160401b03169050845181106129f45760405162461bcd60e51b815260206004820152601260248201527150616765206f7574206f6620626f756e647360701b60448201526064016106d2565b6000612a096001600160401b03851683613d72565b90508551811115612a18575084515b6000612a248383613db4565b6001600160401b03811115612a3b57612a3b6137ac565b604051908082528060200260200182016040528015612a7457816020015b612a61613451565b815260200190600190039081612a595790505b509050825b82811015612ad657878181518110612a9357612a93613d85565b6020026020010151828583612aa89190613db4565b81518110612ab857612ab8613d85565b60200260200101819052508080612ace90613fb3565b915050612a79565b509695505050505050565b60006001600084604051612af59190613cdc565b90815260405190819003602001902054612b0f9190614790565b90505b60008112612bff57600081905060008085604051612b309190613cdc565b90815260200160405180910390208281548110612b4f57612b4f613d85565b600091825260209182902060408051608081018252600490930290910180546001600160a01b039081168085526001830154958501959095526002820154811692840192909252600301546060830152909250851614612bbc5780516020820151612bbc919081906127a1565b612bca858260000151612c04565b6001600086604051612bdc9190613cdc565b90815260405190819003602001902054612bf69190614790565b92505050612b12565b505050565b6000600583604051612c169190613cdc565b908152604080519182900360209081018320546001600160a01b0386811660009081526003909352929091209116925090612c52908590613cdc565b9081526040519081900360200190206003015460ff16612cc05760405162461bcd60e51b8152602060048201526024808201527f5468657265206973206e6f206269642c20796f752063616e27742072656d6f7660448201526319481a5d60e21b60648201526084016106d2565b6001600160a01b0382166000908152600360205260408082209051612ce6908690613cdc565b908152604080519182900360209081018320608084018352805484526001810154918401919091526002810154918301919091526003015460ff1615156060820152905060005b60038160ff161015612fed576000808260ff16600003612d7357600087604051612d579190613cdc565b9081526020016040518091039020915083600001519050612dc5565b8260ff16600103612da35750506001600160a01b0384166000908152600260205260409081902090830151612dc5565b50506001600160a01b0383166000908152600160209081526040909120908301515b8154600090612dd690600190613db4565b90506000838281548110612dec57612dec613d85565b600091825260209182902060408051608081018252600490930290910180546001600160a01b039081168452600182015494840194909452600281015490931690820152600390910154606082015284549091508190859085908110612e5457612e54613d85565b6000918252602091829020835160049092020180546001600160a01b039283166001600160a01b031991821617825592840151600182015560408401516002820180549190931693169290921790556060909101516003909101558354849080612ec057612ec06147b0565b60008281526020812060046000199093019283020180546001600160a01b03199081168255600182018390556002820180549091169055600301819055915560ff86169003612f495780516001600160a01b0316600090815260036020526040908190209051849190612f34908c90613cdc565b90815260405190819003602001902055612fd6565b8460ff16600103612f975780516001600160a01b0316600090815260036020526040908190209051849190612f7f908c90613cdc565b90815260405190819003602001902060020155612fd6565b80516001600160a01b0316600090815260036020526040908190209051849190612fc2908c90613cdc565b908152604051908190036020019020600101555b505050508080612fe5906147c6565b915050612d2d565b506001600160a01b0383166000908152600360205260408082209051613014908790613cdc565b908152604051908190036020019020600301805491151560ff1990921691909117905550505050565b604080516001600160a01b038481166024830152831660448083019190915282518083039091018152606490910182526020810180516001600160e01b031663248a35ef60e11b1790529051600091829182916101679161309e9190613cdc565b6000604051808303816000865af19150503d80600081146130db576040519150601f19603f3d011682016040523d82523d6000602084013e6130e0565b606091505b5091509150816130f1576015613105565b808060200190518101906131059190613d0a565b60030b95945050505050565b6060600061311e84613159565b9050600061312b84613344565b905081816040516020016131409291906147e5565b6040516020818303038152906040529250505092915050565b604080518082018252601081526f181899199a1a9b1b9c1cb0b131b232b360811b60208201528151602a80825260608281019094526001600160a01b0385169291600091602082018180368337019050509050600360fc1b816000815181106131c4576131c4613d85565b60200101906001600160f81b031916908160001a905350600f60fb1b816001815181106131f3576131f3613d85565b60200101906001600160f81b031916908160001a90535060005b601481101561333b578260048561322584600c613d72565b6020811061323557613235613d85565b1a60f81b6001600160f81b031916901c60f81c60ff168151811061325b5761325b613d85565b01602001516001600160f81b03191682613276836002613e69565b613281906002613d72565b8151811061329157613291613d85565b60200101906001600160f81b031916908160001a90535082846132b583600c613d72565b602081106132c5576132c5613d85565b825191901a600f169081106132dc576132dc613d85565b01602001516001600160f81b031916826132f7836002613e69565b613302906003613d72565b8151811061331257613312613d85565b60200101906001600160f81b031916908160001a9053508061333381613fb3565b91505061320d565b50949350505050565b60608160000361336b5750506040805180820190915260018152600360fc1b602082015290565b816000815b8015613396578161338081613fb3565b925061338f9050600a82613e55565b9050613370565b6000826001600160401b038111156133b0576133b06137ac565b6040519080825280601f01601f1916602001820160405280156133da576020820181803683370190505b509050825b841561344757806133ef81614821565b91506133fe9050600a86614838565b613409906030613d72565b60f81b82828151811061341e5761341e613d85565b60200101906001600160f81b031916908160001a905350613440600a86613e55565b94506133df565b5095945050505050565b604051806080016040528060006001600160a01b031681526020016000815260200160006001600160a01b03168152602001600081525090565b604080516103008101825260606101e082018181526102008301829052600061022084018190526102408401839052610260840181905261028084018190526102a084018190526102c0840183905284518084018652818152602081018290529485018190526102e084019490945260c0830190815260e0830184905261010083018490526101208301849052610140830193909352610160820181905261018082018190526101a082018190526101c08201529081908152600060208201819052604082018190526060808301829052608083015260a09091015290565b6001600160a01b038116811461357f57600080fd5b50565b6000806000806080858703121561359857600080fd5b84356135a38161356a565b935060208501356135b38161356a565b925060408501356135c38161356a565b9396929550929360600135925050565b6000806000606084860312156135e857600080fd5b83356135f38161356a565b95602085013595506040909401359392505050565b6000806040838503121561361b57600080fd5b82356136268161356a565b946020939093013593505050565b6001600160a01b039485168152602081019390935292166040820152606081019190915260800190565b80356001600160401b0381168114611efa57600080fd5b6000806000806080858703121561368b57600080fd5b84356136968161356a565b9350602085013592506136ab6040860161365e565b91506136b96060860161365e565b905092959194509250565b6020808252825182820181905260009190848201906040850190845b818110156137325761371f83855180516001600160a01b0390811683526020808301519084015260408083015190911690830152606090810151910152565b92840192608092909201916001016136e0565b50909695505050505050565b60006020828403121561375057600080fd5b8135610f0d8161356a565b6000806000806080858703121561377157600080fd5b843561377c8161356a565b93506020850135925060408501356135c38161356a565b6000602082840312156137a557600080fd5b5035919050565b634e487b7160e01b600052604160045260246000fd5b604080519081016001600160401b03811182821017156137e4576137e46137ac565b60405290565b60405160a081016001600160401b03811182821017156137e4576137e46137ac565b60405161012081016001600160401b03811182821017156137e4576137e46137ac565b60405160c081016001600160401b03811182821017156137e4576137e46137ac565b604051601f8201601f191681016001600160401b0381118282101715613879576138796137ac565b604052919050565b60006001600160401b0382111561389a5761389a6137ac565b50601f01601f191660200190565b60006138bb6138b684613881565b613851565b90508281528383830111156138cf57600080fd5b828260208301376000602084830101529392505050565b600080604083850312156138f957600080fd5b82356139048161356a565b915060208301356001600160401b0381111561391f57600080fd5b8301601f8101851361393057600080fd5b61393f858235602084016138a8565b9150509250929050565b60005b8381101561396457818101518382015260200161394c565b50506000910152565b60008151808452613985816020860160208601613949565b601f01601f19169290920160200192915050565b828152604060208201526000612463604083018461396d565b6000806000606084860312156139c757600080fd5b83356139d28161356a565b92506139e06020850161365e565b91506139ee6040850161365e565b90509250925092565b600080600060608486031215613a0c57600080fd5b8335613a178161356a565b9250602084013591506040840135613a2e8161356a565b809150509250925092565b600082601f830112613a4a57600080fd5b610f0d838335602085016138a8565b600060208284031215613a6b57600080fd5b81356001600160401b03811115613a8157600080fd5b61246384828501613a39565b60008060408385031215613aa057600080fd5b82356001600160401b03811115613ab657600080fd5b613ac285828601613a39565b95602094909401359450505050565b60006001600160401b03821115613aea57613aea6137ac565b5060051b60200190565b600082601f830112613b0557600080fd5b81356020613b156138b683613ad1565b82815260059290921b84018101918181019086841115613b3457600080fd5b8286015b84811015612ad65780358352918301918301613b38565b600080600060608486031215613b6457600080fd5b83356001600160401b0380821115613b7b57600080fd5b818601915086601f830112613b8f57600080fd5b81356020613b9f6138b683613ad1565b82815260059290921b8401810191818101908a841115613bbe57600080fd5b948201945b83861015613be5578535613bd68161356a565b82529482019490820190613bc3565b97505087013592505080821115613bfb57600080fd5b613c0787838801613af4565b93506040860135915080821115613c1d57600080fd5b50613c2a86828701613af4565b9150509250925092565b81516001600160a01b03908116825260208084015190830152604080840151909116908201526060808301519082015260808101611a78565b60008060408385031215613c8057600080fd5b8235613c8b8161356a565b915060208301356001600160401b03811115613ca657600080fd5b61393f85828601613a39565b6001600160a01b039485168152928416602084015292166040820152606081019190915260800190565b60008251613cee818460208701613949565b9190910192915050565b8051600381900b8114611efa57600080fd5b600060208284031215613d1c57600080fd5b610f0d82613cf8565b60208082526018908201527f4661696c656420746f206665746368204e465420496e666f0000000000000000604082015260600190565b634e487b7160e01b600052601160045260246000fd5b80820180821115611a7857611a78613d5c565b634e487b7160e01b600052603260045260246000fd5b600060208284031215613dad57600080fd5b5051919050565b81810381811115611a7857611a78613d5c565b6020808252601690820152752737ba103a34329031b7b73a3930b1ba1037bbb732b960511b604082015260600190565b60208082526028908201527f596f752068617665206e6f207065726d697373696f6e20666f72207468697320604082015267333ab731ba34b7b760c11b606082015260800190565b634e487b7160e01b600052601260045260246000fd5b600082613e6457613e64613e3f565b500490565b8082028115828204841417611a7857611a78613d5c565b60008160070b8360070b80613e9757613e97613e3f565b677fffffffffffffff19821460001982141615613eb657613eb6613d5c565b90059392505050565b8051600781900b8114611efa57600080fd5b600060208284031215613ee357600080fd5b610f0d82613ebf565b6001600160a01b03831681526040602082018190526000906124639083018461396d565b8215158152604060208201526000612463604083018461396d565b600082601f830112613f3c57600080fd5b8151613f4a6138b682613881565b818152846020838601011115613f5f57600080fd5b612463826020830160208701613949565b60008060408385031215613f8357600080fd5b613f8c83613cf8565b915060208301516001600160401b03811115613fa757600080fd5b61393f85828601613f2b565b600060018201613fc557613fc5613d5c565b5060010190565b8051611efa8161356a565b80518015158114611efa57600080fd5b600082601f830112613ff857600080fd5b815160206140086138b683613ad1565b82815260059290921b8401810191818101908684111561402757600080fd5b8286015b84811015612ad65780516001600160401b038082111561404a57600080fd5b908801906040601f19838c03810182131561406457600080fd5b61406c6137c2565b888501518152828501518481111561408357600080fd5b949094019360a0858e038301121561409b5760008081fd5b6140a36137ea565b91506140b0898601613fd7565b8252828501516140bf8161356a565b828a0152606085810151858111156140d75760008081fd5b6140e58f8c838a0101613f2b565b85850152506080935083860151858111156141005760008081fd5b61410e8f8c838a0101613f2b565b82850152505060a085015194506141248561356a565b918101939093528087019290925250835291830191830161402b565b60006060828403121561415257600080fd5b604051606081018181106001600160401b0382111715614174576141746137ac565b60405290508061418383613ebf565b815260208301516141938161356a565b60208201526141a460408401613ebf565b60408201525092915050565b600061016082840312156141c357600080fd5b6141cb61380c565b905081516001600160401b03808211156141e457600080fd5b6141f085838601613f2b565b8352602084015191508082111561420657600080fd5b61421285838601613f2b565b602084015261422360408501613fcc565b6040840152606084015191508082111561423c57600080fd5b61424885838601613f2b565b606084015261425960808501613fd7565b608084015261426a60a08501613ebf565b60a084015261427b60c08501613fd7565b60c084015260e084015191508082111561429457600080fd5b506142a184828501613fe7565b60e0830152506101006142b684828501614140565b9082015292915050565b600082601f8301126142d157600080fd5b815160206142e16138b683613ad1565b82815260a0928302850182019282820191908785111561430057600080fd5b8387015b858110156143825781818a03121561431c5760008081fd5b6143246137ea565b61432d82613ebf565b81528582015161433c8161356a565b81870152604061434d838201613fd7565b90820152606061435e838201613fd7565b908201526080828101516143718161356a565b908201528452928401928101614304565b5090979650505050505050565b600082601f8301126143a057600080fd5b815160206143b06138b683613ad1565b82815260c092830285018201928282019190878511156143cf57600080fd5b8387015b858110156143825781818a0312156143eb5760008081fd5b6143f361382f565b6143fc82613ebf565b8152614409868301613ebf565b86820152604061441a818401613ebf565b90820152606061442b838201613ebf565b90820152608061443c838201613fd7565b9082015260a08281015161444f8161356a565b9082015284529284019281016143d3565b600082601f83011261447157600080fd5b815160206144816138b683613ad1565b82815260c092830285018201928282019190878511156144a057600080fd5b8387015b858110156143825781818a0312156144bc5760008081fd5b6144c461382f565b6144cd82613ebf565b81526144da868301613ebf565b8682015260406144eb818401613ebf565b908201526060828101516144fe8161356a565b90820152608061450f838201613fd7565b9082015260a0828101516145228161356a565b9082015284529284019281016144a4565b6000610120828403121561454657600080fd5b61454e61380c565b905081516001600160401b038082111561456757600080fd5b614573858386016141b0565b835261458160208501613ebf565b602084015261459260408501613fd7565b60408401526145a360608501613fd7565b60608401526145b460808501613fd7565b608084015260a08401519150808211156145cd57600080fd5b6145d9858386016142c0565b60a084015260c08401519150808211156145f257600080fd5b6145fe8583860161438f565b60c084015260e084015191508082111561461757600080fd5b61462385838601614460565b60e08401526101009150818401518181111561463e57600080fd5b61464a86828701613f2b565b8385015250505092915050565b6000806040838503121561466a57600080fd5b61467383613cf8565b915060208301516001600160401b038082111561468f57600080fd5b9084019060c082870312156146a357600080fd5b6146ab61382f565b8251828111156146ba57600080fd5b6146c688828601614533565b8252506146d560208401613ebf565b60208201526146e660408401613fcc565b60408201526146f760608401613ebf565b606082015260808301518281111561470e57600080fd5b61471a88828601613f2b565b60808301525061472c60a08401613fcc565b60a08201528093505050509250929050565b6001600160401b0382811682821603908082111561475e5761475e613d5c565b5092915050565b6001600160401b0381811683821602808216919082811461478857614788613d5c565b505092915050565b818103600083128015838313168383128216171561475e5761475e613d5c565b634e487b7160e01b600052603160045260246000fd5b600060ff821660ff81036147dc576147dc613d5c565b60010192915050565b600083516147f7818460208801613949565b602f60f81b9083019081528351614815816001840160208801613949565b01600101949350505050565b60008161483057614830613d5c565b506000190190565b60008261484757614847613e3f565b50069056fea26469706673582212205f55ea3880f4eef34fa38d80b2829aa2fedbbb1359eb8645c6f9a01cf8683f4764736f6c63430008120033",
  "devdoc": {
    "kind": "dev",
    "methods": {
      "redirectForToken(address,bytes)": {
        "params": {
          "encodedFunctionSelector": "The function selector from the ERC20 interface + the bytes input for the function called",
          "token": "The token address"
        },
        "returns": {
          "response": "The result of the call that had been encoded and sent for execution.",
          "responseCode": "The response code for the status of the request. SUCCESS is 22."
        }
      },
      "transferFrom(address,address,address,uint256)": {
        "params": {
          "amount": "The amount of tokens to transfer from `from` to `to`",
          "from": "The account address of the owner of the token, on the behalf of which to transfer `amount` tokens",
          "to": "The account address of the receiver of the `amount` tokens",
          "token": "The address of the fungible Hedera token to transfer"
        },
        "returns": {
          "responseCode": "The response code for the status of the request. SUCCESS is 22."
        }
      },
      "transferFromNFT(address,address,address,uint256)": {
        "params": {
          "from": "The account address of the owner of `serialNumber` of `token`",
          "serialNumber": "The NFT serial number to transfer",
          "to": "The account address of the receiver of `serialNumber`",
          "token": "The address of the non-fungible Hedera token to transfer"
        },
        "returns": {
          "responseCode": "The response code for the status of the request. SUCCESS is 22."
        }
      }
    },
    "version": 1
  },
  "userdoc": {
    "events": {
      "CallResponseEvent(bool,bytes)": {
        "notice": "Generic event"
      }
    },
    "kind": "user",
    "methods": {
      "redirectForToken(address,bytes)": {
        "notice": "Redirect for token"
      },
      "transferFrom(address,address,address,uint256)": {
        "notice": "Only applicable to fungible tokens"
      },
      "transferFromNFT(address,address,address,uint256)": {
        "notice": "Transfers `serialNumber` of `token` from `from` to `to` using the allowance mechanism. Only applicable to NFT tokens"
      }
    },
    "version": 1
  },
  "storageLayout": {
    "storage": [
      {
        "astId": 13208,
        "contract": "contracts/SpheraMarketplace/Market.sol:Market",
        "label": "tokenBids",
        "offset": 0,
        "slot": "0",
        "type": "t_mapping(t_string_memory_ptr,t_array(t_struct(Bid)13179_storage)dyn_storage)"
      },
      {
        "astId": 13214,
        "contract": "contracts/SpheraMarketplace/Market.sol:Market",
        "label": "receivedBids",
        "offset": 0,
        "slot": "1",
        "type": "t_mapping(t_address,t_array(t_struct(Bid)13179_storage)dyn_storage)"
      },
      {
        "astId": 13220,
        "contract": "contracts/SpheraMarketplace/Market.sol:Market",
        "label": "sentBids",
        "offset": 0,
        "slot": "2",
        "type": "t_mapping(t_address,t_array(t_struct(Bid)13179_storage)dyn_storage)"
      },
      {
        "astId": 13227,
        "contract": "contracts/SpheraMarketplace/Market.sol:Market",
        "label": "buyersBidsIndexes",
        "offset": 0,
        "slot": "3",
        "type": "t_mapping(t_address,t_mapping(t_string_memory_ptr,t_struct(BidIndexes)13188_storage))"
      },
      {
        "astId": 13232,
        "contract": "contracts/SpheraMarketplace/Market.sol:Market",
        "label": "buyersTokens",
        "offset": 0,
        "slot": "4",
        "type": "t_mapping(t_address,t_struct(BuyerTokens)13191_storage)"
      },
      {
        "astId": 13237,
        "contract": "contracts/SpheraMarketplace/Market.sol:Market",
        "label": "nfts",
        "offset": 0,
        "slot": "5",
        "type": "t_mapping(t_string_memory_ptr,t_struct(NFT)13202_storage)"
      },
      {
        "astId": 13239,
        "contract": "contracts/SpheraMarketplace/Market.sol:Market",
        "label": "contractOwner",
        "offset": 0,
        "slot": "6",
        "type": "t_address"
      },
      {
        "astId": 13241,
        "contract": "contracts/SpheraMarketplace/Market.sol:Market",
        "label": "spheraTokenAddress",
        "offset": 0,
        "slot": "7",
        "type": "t_address"
      },
      {
        "astId": 13243,
        "contract": "contracts/SpheraMarketplace/Market.sol:Market",
        "label": "treasuryWalletAddress",
        "offset": 0,
        "slot": "8",
        "type": "t_address"
      },
      {
        "astId": 13246,
        "contract": "contracts/SpheraMarketplace/Market.sol:Market",
        "label": "taxFee",
        "offset": 0,
        "slot": "9",
        "type": "t_uint256"
      }
    ],
    "types": {
      "t_address": {
        "encoding": "inplace",
        "label": "address",
        "numberOfBytes": "20"
      },
      "t_address_payable": {
        "encoding": "inplace",
        "label": "address payable",
        "numberOfBytes": "20"
      },
      "t_array(t_struct(Bid)13179_storage)dyn_storage": {
        "base": "t_struct(Bid)13179_storage",
        "encoding": "dynamic_array",
        "label": "struct Market.Bid[]",
        "numberOfBytes": "32"
      },
      "t_bool": {
        "encoding": "inplace",
        "label": "bool",
        "numberOfBytes": "1"
      },
      "t_mapping(t_address,t_array(t_struct(Bid)13179_storage)dyn_storage)": {
        "encoding": "mapping",
        "key": "t_address",
        "label": "mapping(address => struct Market.Bid[])",
        "numberOfBytes": "32",
        "value": "t_array(t_struct(Bid)13179_storage)dyn_storage"
      },
      "t_mapping(t_address,t_mapping(t_string_memory_ptr,t_struct(BidIndexes)13188_storage))": {
        "encoding": "mapping",
        "key": "t_address",
        "label": "mapping(address => mapping(string => struct Market.BidIndexes))",
        "numberOfBytes": "32",
        "value": "t_mapping(t_string_memory_ptr,t_struct(BidIndexes)13188_storage)"
      },
      "t_mapping(t_address,t_struct(BuyerTokens)13191_storage)": {
        "encoding": "mapping",
        "key": "t_address",
        "label": "mapping(address => struct Market.BuyerTokens)",
        "numberOfBytes": "32",
        "value": "t_struct(BuyerTokens)13191_storage"
      },
      "t_mapping(t_string_memory_ptr,t_array(t_struct(Bid)13179_storage)dyn_storage)": {
        "encoding": "mapping",
        "key": "t_string_memory_ptr",
        "label": "mapping(string => struct Market.Bid[])",
        "numberOfBytes": "32",
        "value": "t_array(t_struct(Bid)13179_storage)dyn_storage"
      },
      "t_mapping(t_string_memory_ptr,t_struct(BidIndexes)13188_storage)": {
        "encoding": "mapping",
        "key": "t_string_memory_ptr",
        "label": "mapping(string => struct Market.BidIndexes)",
        "numberOfBytes": "32",
        "value": "t_struct(BidIndexes)13188_storage"
      },
      "t_mapping(t_string_memory_ptr,t_struct(NFT)13202_storage)": {
        "encoding": "mapping",
        "key": "t_string_memory_ptr",
        "label": "mapping(string => struct Market.NFT)",
        "numberOfBytes": "32",
        "value": "t_struct(NFT)13202_storage"
      },
      "t_string_memory_ptr": {
        "encoding": "bytes",
        "label": "string",
        "numberOfBytes": "32"
      },
      "t_struct(Bid)13179_storage": {
        "encoding": "inplace",
        "label": "struct Market.Bid",
        "members": [
          {
            "astId": 13172,
            "contract": "contracts/SpheraMarketplace/Market.sol:Market",
            "label": "owner",
            "offset": 0,
            "slot": "0",
            "type": "t_address_payable"
          },
          {
            "astId": 13174,
            "contract": "contracts/SpheraMarketplace/Market.sol:Market",
            "label": "amount",
            "offset": 0,
            "slot": "1",
            "type": "t_uint256"
          },
          {
            "astId": 13176,
            "contract": "contracts/SpheraMarketplace/Market.sol:Market",
            "label": "token",
            "offset": 0,
            "slot": "2",
            "type": "t_address"
          },
          {
            "astId": 13178,
            "contract": "contracts/SpheraMarketplace/Market.sol:Market",
            "label": "serialNumber",
            "offset": 0,
            "slot": "3",
            "type": "t_uint256"
          }
        ],
        "numberOfBytes": "128"
      },
      "t_struct(BidIndexes)13188_storage": {
        "encoding": "inplace",
        "label": "struct Market.BidIndexes",
        "members": [
          {
            "astId": 13181,
            "contract": "contracts/SpheraMarketplace/Market.sol:Market",
            "label": "tokenIndex",
            "offset": 0,
            "slot": "0",
            "type": "t_uint256"
          },
          {
            "astId": 13183,
            "contract": "contracts/SpheraMarketplace/Market.sol:Market",
            "label": "receivedIndex",
            "offset": 0,
            "slot": "1",
            "type": "t_uint256"
          },
          {
            "astId": 13185,
            "contract": "contracts/SpheraMarketplace/Market.sol:Market",
            "label": "sentIndex",
            "offset": 0,
            "slot": "2",
            "type": "t_uint256"
          },
          {
            "astId": 13187,
            "contract": "contracts/SpheraMarketplace/Market.sol:Market",
            "label": "isSet",
            "offset": 0,
            "slot": "3",
            "type": "t_bool"
          }
        ],
        "numberOfBytes": "128"
      },
      "t_struct(BuyerTokens)13191_storage": {
        "encoding": "inplace",
        "label": "struct Market.BuyerTokens",
        "members": [
          {
            "astId": 13190,
            "contract": "contracts/SpheraMarketplace/Market.sol:Market",
            "label": "sphs",
            "offset": 0,
            "slot": "0",
            "type": "t_uint256"
          }
        ],
        "numberOfBytes": "32"
      },
      "t_struct(NFT)13202_storage": {
        "encoding": "inplace",
        "label": "struct Market.NFT",
        "members": [
          {
            "astId": 13193,
            "contract": "contracts/SpheraMarketplace/Market.sol:Market",
            "label": "owner",
            "offset": 0,
            "slot": "0",
            "type": "t_address_payable"
          },
          {
            "astId": 13195,
            "contract": "contracts/SpheraMarketplace/Market.sol:Market",
            "label": "price",
            "offset": 0,
            "slot": "1",
            "type": "t_uint256"
          },
          {
            "astId": 13197,
            "contract": "contracts/SpheraMarketplace/Market.sol:Market",
            "label": "token",
            "offset": 0,
            "slot": "2",
            "type": "t_address"
          },
          {
            "astId": 13199,
            "contract": "contracts/SpheraMarketplace/Market.sol:Market",
            "label": "serialNumber",
            "offset": 0,
            "slot": "3",
            "type": "t_uint256"
          },
          {
            "astId": 13201,
            "contract": "contracts/SpheraMarketplace/Market.sol:Market",
            "label": "isListed",
            "offset": 0,
            "slot": "4",
            "type": "t_bool"
          }
        ],
        "numberOfBytes": "160"
      },
      "t_uint256": {
        "encoding": "inplace",
        "label": "uint256",
        "numberOfBytes": "32"
      }
    }
  }
}