{
  "address": "0x12785Dfc99d8A2F6710B7E4F05FF62dc8Ec5c203",
  "abi": [
    {
      "inputs": [
        {
          "internalType": "string",
          "name": "baseURI",
          "type": "string"
        },
        {
          "internalType": "string",
          "name": "_name",
          "type": "string"
        },
        {
          "internalType": "string",
          "name": "_symbol",
          "type": "string"
        },
        {
          "internalType": "uint256",
          "name": "_minGasToTransfer",
          "type": "uint256"
        },
        {
          "internalType": "address",
          "name": "_lzEndpoint",
          "type": "address"
        }
      ],
      "stateMutability": "nonpayable",
      "type": "constructor"
    },
    {
      "inputs": [],
      "name": "ApprovalCallerNotOwnerNorApproved",
      "type": "error"
    },
    {
      "inputs": [],
      "name": "ApprovalQueryForNonexistentToken",
      "type": "error"
    },
    {
      "inputs": [],
      "name": "BalanceQueryForZeroAddress",
      "type": "error"
    },
    {
      "inputs": [
        {
          "internalType": "address",
          "name": "minter",
          "type": "address"
        }
      ],
      "name": "InvalidMinter",
      "type": "error"
    },
    {
      "inputs": [],
      "name": "MintERC2309QuantityExceedsLimit",
      "type": "error"
    },
    {
      "inputs": [
        {
          "internalType": "uint256",
          "name": "quantity",
          "type": "uint256"
        }
      ],
      "name": "MintLimitExceeded",
      "type": "error"
    },
    {
      "inputs": [],
      "name": "MintNotAvailable",
      "type": "error"
    },
    {
      "inputs": [],
      "name": "MintToZeroAddress",
      "type": "error"
    },
    {
      "inputs": [],
      "name": "MintZeroQuantity",
      "type": "error"
    },
    {
      "inputs": [],
      "name": "OwnerQueryForNonexistentToken",
      "type": "error"
    },
    {
      "inputs": [],
      "name": "OwnershipNotInitializedForExtraData",
      "type": "error"
    },
    {
      "inputs": [],
      "name": "ReachedMaxTotalSupply",
      "type": "error"
    },
    {
      "inputs": [],
      "name": "ReachedMaxTreasurySupply",
      "type": "error"
    },
    {
      "inputs": [],
      "name": "TransferCallerNotOwnerNorApproved",
      "type": "error"
    },
    {
      "inputs": [],
      "name": "TransferFromIncorrectOwner",
      "type": "error"
    },
    {
      "inputs": [],
      "name": "TransferToNonERC721ReceiverImplementer",
      "type": "error"
    },
    {
      "inputs": [],
      "name": "TransferToZeroAddress",
      "type": "error"
    },
    {
      "inputs": [],
      "name": "URIQueryForNonexistentToken",
      "type": "error"
    },
    {
      "anonymous": false,
      "inputs": [
        {
          "indexed": true,
          "internalType": "address",
          "name": "owner",
          "type": "address"
        },
        {
          "indexed": true,
          "internalType": "address",
          "name": "approved",
          "type": "address"
        },
        {
          "indexed": true,
          "internalType": "uint256",
          "name": "tokenId",
          "type": "uint256"
        }
      ],
      "name": "Approval",
      "type": "event"
    },
    {
      "anonymous": false,
      "inputs": [
        {
          "indexed": true,
          "internalType": "address",
          "name": "owner",
          "type": "address"
        },
        {
          "indexed": true,
          "internalType": "address",
          "name": "operator",
          "type": "address"
        },
        {
          "indexed": false,
          "internalType": "bool",
          "name": "approved",
          "type": "bool"
        }
      ],
      "name": "ApprovalForAll",
      "type": "event"
    },
    {
      "anonymous": false,
      "inputs": [
        {
          "indexed": true,
          "internalType": "uint256",
          "name": "fromTokenId",
          "type": "uint256"
        },
        {
          "indexed": false,
          "internalType": "uint256",
          "name": "toTokenId",
          "type": "uint256"
        },
        {
          "indexed": true,
          "internalType": "address",
          "name": "from",
          "type": "address"
        },
        {
          "indexed": true,
          "internalType": "address",
          "name": "to",
          "type": "address"
        }
      ],
      "name": "ConsecutiveTransfer",
      "type": "event"
    },
    {
      "anonymous": false,
      "inputs": [
        {
          "indexed": false,
          "internalType": "bytes32",
          "name": "_hashedPayload",
          "type": "bytes32"
        }
      ],
      "name": "CreditCleared",
      "type": "event"
    },
    {
      "anonymous": false,
      "inputs": [
        {
          "indexed": false,
          "internalType": "bytes32",
          "name": "_hashedPayload",
          "type": "bytes32"
        },
        {
          "indexed": false,
          "internalType": "bytes",
          "name": "_payload",
          "type": "bytes"
        }
      ],
      "name": "CreditStored",
      "type": "event"
    },
    {
      "anonymous": false,
      "inputs": [
        {
          "indexed": false,
          "internalType": "uint16",
          "name": "_srcChainId",
          "type": "uint16"
        },
        {
          "indexed": false,
          "internalType": "bytes",
          "name": "_srcAddress",
          "type": "bytes"
        },
        {
          "indexed": false,
          "internalType": "uint64",
          "name": "_nonce",
          "type": "uint64"
        },
        {
          "indexed": false,
          "internalType": "bytes",
          "name": "_payload",
          "type": "bytes"
        },
        {
          "indexed": false,
          "internalType": "bytes",
          "name": "_reason",
          "type": "bytes"
        }
      ],
      "name": "MessageFailed",
      "type": "event"
    },
    {
      "anonymous": false,
      "inputs": [
        {
          "indexed": false,
          "internalType": "bool",
          "name": "state",
          "type": "bool"
        }
      ],
      "name": "MintStateChanged",
      "type": "event"
    },
    {
      "anonymous": false,
      "inputs": [
        {
          "indexed": true,
          "internalType": "address",
          "name": "previousOwner",
          "type": "address"
        },
        {
          "indexed": true,
          "internalType": "address",
          "name": "newOwner",
          "type": "address"
        }
      ],
      "name": "OwnershipTransferred",
      "type": "event"
    },
    {
      "anonymous": false,
      "inputs": [
        {
          "indexed": true,
          "internalType": "uint16",
          "name": "_srcChainId",
          "type": "uint16"
        },
        {
          "indexed": true,
          "internalType": "bytes",
          "name": "_srcAddress",
          "type": "bytes"
        },
        {
          "indexed": true,
          "internalType": "address",
          "name": "_toAddress",
          "type": "address"
        },
        {
          "indexed": false,
          "internalType": "uint256[]",
          "name": "_tokenIds",
          "type": "uint256[]"
        }
      ],
      "name": "ReceiveFromChain",
      "type": "event"
    },
    {
      "anonymous": false,
      "inputs": [
        {
          "indexed": false,
          "internalType": "uint16",
          "name": "_srcChainId",
          "type": "uint16"
        },
        {
          "indexed": false,
          "internalType": "bytes",
          "name": "_srcAddress",
          "type": "bytes"
        },
        {
          "indexed": false,
          "internalType": "uint64",
          "name": "_nonce",
          "type": "uint64"
        },
        {
          "indexed": false,
          "internalType": "bytes32",
          "name": "_payloadHash",
          "type": "bytes32"
        }
      ],
      "name": "RetryMessageSuccess",
      "type": "event"
    },
    {
      "anonymous": false,
      "inputs": [
        {
          "indexed": true,
          "internalType": "uint16",
          "name": "_dstChainId",
          "type": "uint16"
        },
        {
          "indexed": true,
          "internalType": "address",
          "name": "_from",
          "type": "address"
        },
        {
          "indexed": true,
          "internalType": "bytes",
          "name": "_toAddress",
          "type": "bytes"
        },
        {
          "indexed": false,
          "internalType": "uint256[]",
          "name": "_tokenIds",
          "type": "uint256[]"
        }
      ],
      "name": "SendToChain",
      "type": "event"
    },
    {
      "anonymous": false,
      "inputs": [
        {
          "indexed": false,
          "internalType": "uint16",
          "name": "_dstChainId",
          "type": "uint16"
        },
        {
          "indexed": false,
          "internalType": "uint256",
          "name": "_dstChainIdToBatchLimit",
          "type": "uint256"
        }
      ],
      "name": "SetDstChainIdToBatchLimit",
      "type": "event"
    },
    {
      "anonymous": false,
      "inputs": [
        {
          "indexed": false,
          "internalType": "uint16",
          "name": "_dstChainId",
          "type": "uint16"
        },
        {
          "indexed": false,
          "internalType": "uint256",
          "name": "_dstChainIdToTransferGas",
          "type": "uint256"
        }
      ],
      "name": "SetDstChainIdToTransferGas",
      "type": "event"
    },
    {
      "anonymous": false,
      "inputs": [
        {
          "indexed": false,
          "internalType": "uint16",
          "name": "_dstChainId",
          "type": "uint16"
        },
        {
          "indexed": false,
          "internalType": "uint16",
          "name": "_type",
          "type": "uint16"
        },
        {
          "indexed": false,
          "internalType": "uint256",
          "name": "_minDstGas",
          "type": "uint256"
        }
      ],
      "name": "SetMinDstGas",
      "type": "event"
    },
    {
      "anonymous": false,
      "inputs": [
        {
          "indexed": false,
          "internalType": "uint256",
          "name": "_minGasToTransferAndStore",
          "type": "uint256"
        }
      ],
      "name": "SetMinGasToTransferAndStore",
      "type": "event"
    },
    {
      "anonymous": false,
      "inputs": [
        {
          "indexed": false,
          "internalType": "address",
          "name": "precrime",
          "type": "address"
        }
      ],
      "name": "SetPrecrime",
      "type": "event"
    },
    {
      "anonymous": false,
      "inputs": [
        {
          "indexed": false,
          "internalType": "uint16",
          "name": "_remoteChainId",
          "type": "uint16"
        },
        {
          "indexed": false,
          "internalType": "bytes",
          "name": "_path",
          "type": "bytes"
        }
      ],
      "name": "SetTrustedRemote",
      "type": "event"
    },
    {
      "anonymous": false,
      "inputs": [
        {
          "indexed": false,
          "internalType": "uint16",
          "name": "_remoteChainId",
          "type": "uint16"
        },
        {
          "indexed": false,
          "internalType": "bytes",
          "name": "_remoteAddress",
          "type": "bytes"
        }
      ],
      "name": "SetTrustedRemoteAddress",
      "type": "event"
    },
    {
      "anonymous": false,
      "inputs": [
        {
          "indexed": true,
          "internalType": "address",
          "name": "from",
          "type": "address"
        },
        {
          "indexed": true,
          "internalType": "address",
          "name": "to",
          "type": "address"
        },
        {
          "indexed": true,
          "internalType": "uint256",
          "name": "tokenId",
          "type": "uint256"
        }
      ],
      "name": "Transfer",
      "type": "event"
    },
    {
      "anonymous": false,
      "inputs": [
        {
          "indexed": true,
          "internalType": "address",
          "name": "recipient",
          "type": "address"
        },
        {
          "indexed": false,
          "internalType": "uint256",
          "name": "quantity",
          "type": "uint256"
        },
        {
          "indexed": false,
          "internalType": "uint256",
          "name": "fromIndex",
          "type": "uint256"
        }
      ],
      "name": "TreasuryMint",
      "type": "event"
    },
    {
      "inputs": [],
      "name": "DEFAULT_PAYLOAD_SIZE_LIMIT",
      "outputs": [
        {
          "internalType": "uint256",
          "name": "",
          "type": "uint256"
        }
      ],
      "stateMutability": "view",
      "type": "function"
    },
    {
      "inputs": [],
      "name": "FUNCTION_TYPE_SEND",
      "outputs": [
        {
          "internalType": "uint16",
          "name": "",
          "type": "uint16"
        }
      ],
      "stateMutability": "view",
      "type": "function"
    },
    {
      "inputs": [],
      "name": "MAX_ELEMENTS",
      "outputs": [
        {
          "internalType": "uint256",
          "name": "",
          "type": "uint256"
        }
      ],
      "stateMutability": "view",
      "type": "function"
    },
    {
      "inputs": [
        {
          "internalType": "address",
          "name": "minterAddress",
          "type": "address"
        }
      ],
      "name": "addMinter",
      "outputs": [],
      "stateMutability": "nonpayable",
      "type": "function"
    },
    {
      "inputs": [
        {
          "internalType": "address",
          "name": "to",
          "type": "address"
        },
        {
          "internalType": "uint256",
          "name": "tokenId",
          "type": "uint256"
        }
      ],
      "name": "approve",
      "outputs": [],
      "stateMutability": "payable",
      "type": "function"
    },
    {
      "inputs": [
        {
          "internalType": "address",
          "name": "owner",
          "type": "address"
        }
      ],
      "name": "balanceOf",
      "outputs": [
        {
          "internalType": "uint256",
          "name": "",
          "type": "uint256"
        }
      ],
      "stateMutability": "view",
      "type": "function"
    },
    {
      "inputs": [],
      "name": "baseTokenURI",
      "outputs": [
        {
          "internalType": "string",
          "name": "",
          "type": "string"
        }
      ],
      "stateMutability": "view",
      "type": "function"
    },
    {
      "inputs": [
        {
          "internalType": "uint256",
          "name": "tokenId",
          "type": "uint256"
        }
      ],
      "name": "burn",
      "outputs": [],
      "stateMutability": "nonpayable",
      "type": "function"
    },
    {
      "inputs": [
        {
          "internalType": "bytes",
          "name": "_payload",
          "type": "bytes"
        }
      ],
      "name": "clearCredits",
      "outputs": [],
      "stateMutability": "nonpayable",
      "type": "function"
    },
    {
      "inputs": [
        {
          "internalType": "uint16",
          "name": "",
          "type": "uint16"
        }
      ],
      "name": "dstChainIdToBatchLimit",
      "outputs": [
        {
          "internalType": "uint256",
          "name": "",
          "type": "uint256"
        }
      ],
      "stateMutability": "view",
      "type": "function"
    },
    {
      "inputs": [
        {
          "internalType": "uint16",
          "name": "",
          "type": "uint16"
        }
      ],
      "name": "dstChainIdToTransferGas",
      "outputs": [
        {
          "internalType": "uint256",
          "name": "",
          "type": "uint256"
        }
      ],
      "stateMutability": "view",
      "type": "function"
    },
    {
      "inputs": [
        {
          "internalType": "bool",
          "name": "_minterOnly",
          "type": "bool"
        }
      ],
      "name": "enableWhiteListing",
      "outputs": [],
      "stateMutability": "nonpayable",
      "type": "function"
    },
    {
      "inputs": [
        {
          "internalType": "uint16",
          "name": "_dstChainId",
          "type": "uint16"
        },
        {
          "internalType": "bytes",
          "name": "_toAddress",
          "type": "bytes"
        },
        {
          "internalType": "uint256[]",
          "name": "_tokenIds",
          "type": "uint256[]"
        },
        {
          "internalType": "bool",
          "name": "_useZro",
          "type": "bool"
        },
        {
          "internalType": "bytes",
          "name": "_adapterParams",
          "type": "bytes"
        }
      ],
      "name": "estimateSendBatchFee",
      "outputs": [
        {
          "internalType": "uint256",
          "name": "nativeFee",
          "type": "uint256"
        },
        {
          "internalType": "uint256",
          "name": "zroFee",
          "type": "uint256"
        }
      ],
      "stateMutability": "view",
      "type": "function"
    },
    {
      "inputs": [
        {
          "internalType": "uint16",
          "name": "_dstChainId",
          "type": "uint16"
        },
        {
          "internalType": "bytes",
          "name": "_toAddress",
          "type": "bytes"
        },
        {
          "internalType": "uint256",
          "name": "_tokenId",
          "type": "uint256"
        },
        {
          "internalType": "bool",
          "name": "_useZro",
          "type": "bool"
        },
        {
          "internalType": "bytes",
          "name": "_adapterParams",
          "type": "bytes"
        }
      ],
      "name": "estimateSendFee",
      "outputs": [
        {
          "internalType": "uint256",
          "name": "nativeFee",
          "type": "uint256"
        },
        {
          "internalType": "uint256",
          "name": "zroFee",
          "type": "uint256"
        }
      ],
      "stateMutability": "view",
      "type": "function"
    },
    {
      "inputs": [
        {
          "internalType": "uint16",
          "name": "",
          "type": "uint16"
        },
        {
          "internalType": "bytes",
          "name": "",
          "type": "bytes"
        },
        {
          "internalType": "uint64",
          "name": "",
          "type": "uint64"
        }
      ],
      "name": "failedMessages",
      "outputs": [
        {
          "internalType": "bytes32",
          "name": "",
          "type": "bytes32"
        }
      ],
      "stateMutability": "view",
      "type": "function"
    },
    {
      "inputs": [
        {
          "internalType": "uint16",
          "name": "_srcChainId",
          "type": "uint16"
        },
        {
          "internalType": "bytes",
          "name": "_srcAddress",
          "type": "bytes"
        }
      ],
      "name": "forceResumeReceive",
      "outputs": [],
      "stateMutability": "nonpayable",
      "type": "function"
    },
    {
      "inputs": [
        {
          "internalType": "uint256",
          "name": "tokenId",
          "type": "uint256"
        }
      ],
      "name": "getApproved",
      "outputs": [
        {
          "internalType": "address",
          "name": "",
          "type": "address"
        }
      ],
      "stateMutability": "view",
      "type": "function"
    },
    {
      "inputs": [
        {
          "internalType": "uint16",
          "name": "_version",
          "type": "uint16"
        },
        {
          "internalType": "uint16",
          "name": "_chainId",
          "type": "uint16"
        },
        {
          "internalType": "address",
          "name": "",
          "type": "address"
        },
        {
          "internalType": "uint256",
          "name": "_configType",
          "type": "uint256"
        }
      ],
      "name": "getConfig",
      "outputs": [
        {
          "internalType": "bytes",
          "name": "",
          "type": "bytes"
        }
      ],
      "stateMutability": "view",
      "type": "function"
    },
    {
      "inputs": [
        {
          "internalType": "uint16",
          "name": "_remoteChainId",
          "type": "uint16"
        }
      ],
      "name": "getTrustedRemoteAddress",
      "outputs": [
        {
          "internalType": "bytes",
          "name": "",
          "type": "bytes"
        }
      ],
      "stateMutability": "view",
      "type": "function"
    },
    {
      "inputs": [
        {
          "internalType": "address",
          "name": "owner",
          "type": "address"
        },
        {
          "internalType": "address",
          "name": "operator",
          "type": "address"
        }
      ],
      "name": "isApprovedForAll",
      "outputs": [
        {
          "internalType": "bool",
          "name": "",
          "type": "bool"
        }
      ],
      "stateMutability": "view",
      "type": "function"
    },
    {
      "inputs": [
        {
          "internalType": "uint16",
          "name": "_srcChainId",
          "type": "uint16"
        },
        {
          "internalType": "bytes",
          "name": "_srcAddress",
          "type": "bytes"
        }
      ],
      "name": "isTrustedRemote",
      "outputs": [
        {
          "internalType": "bool",
          "name": "",
          "type": "bool"
        }
      ],
      "stateMutability": "view",
      "type": "function"
    },
    {
      "inputs": [],
      "name": "lzEndpoint",
      "outputs": [
        {
          "internalType": "contract ILayerZeroEndpoint",
          "name": "",
          "type": "address"
        }
      ],
      "stateMutability": "view",
      "type": "function"
    },
    {
      "inputs": [
        {
          "internalType": "uint16",
          "name": "_srcChainId",
          "type": "uint16"
        },
        {
          "internalType": "bytes",
          "name": "_srcAddress",
          "type": "bytes"
        },
        {
          "internalType": "uint64",
          "name": "_nonce",
          "type": "uint64"
        },
        {
          "internalType": "bytes",
          "name": "_payload",
          "type": "bytes"
        }
      ],
      "name": "lzReceive",
      "outputs": [],
      "stateMutability": "nonpayable",
      "type": "function"
    },
    {
      "inputs": [
        {
          "internalType": "uint16",
          "name": "",
          "type": "uint16"
        },
        {
          "internalType": "uint16",
          "name": "",
          "type": "uint16"
        }
      ],
      "name": "minDstGasLookup",
      "outputs": [
        {
          "internalType": "uint256",
          "name": "",
          "type": "uint256"
        }
      ],
      "stateMutability": "view",
      "type": "function"
    },
    {
      "inputs": [],
      "name": "minGasToTransferAndStore",
      "outputs": [
        {
          "internalType": "uint256",
          "name": "",
          "type": "uint256"
        }
      ],
      "stateMutability": "view",
      "type": "function"
    },
    {
      "inputs": [
        {
          "internalType": "uint256",
          "name": "quantity",
          "type": "uint256"
        }
      ],
      "name": "mint",
      "outputs": [],
      "stateMutability": "nonpayable",
      "type": "function"
    },
    {
      "inputs": [],
      "name": "mintLimit",
      "outputs": [
        {
          "internalType": "uint256",
          "name": "",
          "type": "uint256"
        }
      ],
      "stateMutability": "view",
      "type": "function"
    },
    {
      "inputs": [],
      "name": "mintState",
      "outputs": [
        {
          "internalType": "bool",
          "name": "",
          "type": "bool"
        }
      ],
      "stateMutability": "view",
      "type": "function"
    },
    {
      "inputs": [],
      "name": "minterOnly",
      "outputs": [
        {
          "internalType": "bool",
          "name": "",
          "type": "bool"
        }
      ],
      "stateMutability": "view",
      "type": "function"
    },
    {
      "inputs": [
        {
          "internalType": "address",
          "name": "",
          "type": "address"
        }
      ],
      "name": "minters",
      "outputs": [
        {
          "internalType": "bool",
          "name": "",
          "type": "bool"
        }
      ],
      "stateMutability": "view",
      "type": "function"
    },
    {
      "inputs": [],
      "name": "name",
      "outputs": [
        {
          "internalType": "string",
          "name": "",
          "type": "string"
        }
      ],
      "stateMutability": "view",
      "type": "function"
    },
    {
      "inputs": [
        {
          "internalType": "uint16",
          "name": "_srcChainId",
          "type": "uint16"
        },
        {
          "internalType": "bytes",
          "name": "_srcAddress",
          "type": "bytes"
        },
        {
          "internalType": "uint64",
          "name": "_nonce",
          "type": "uint64"
        },
        {
          "internalType": "bytes",
          "name": "_payload",
          "type": "bytes"
        }
      ],
      "name": "nonblockingLzReceive",
      "outputs": [],
      "stateMutability": "nonpayable",
      "type": "function"
    },
    {
      "inputs": [
        {
          "internalType": "address",
          "name": "",
          "type": "address"
        },
        {
          "internalType": "address",
          "name": "",
          "type": "address"
        },
        {
          "internalType": "uint256",
          "name": "",
          "type": "uint256"
        },
        {
          "internalType": "bytes",
          "name": "",
          "type": "bytes"
        }
      ],
      "name": "onERC721Received",
      "outputs": [
        {
          "internalType": "bytes4",
          "name": "",
          "type": "bytes4"
        }
      ],
      "stateMutability": "nonpayable",
      "type": "function"
    },
    {
      "inputs": [],
      "name": "owner",
      "outputs": [
        {
          "internalType": "address",
          "name": "",
          "type": "address"
        }
      ],
      "stateMutability": "view",
      "type": "function"
    },
    {
      "inputs": [
        {
          "internalType": "uint256",
          "name": "tokenId",
          "type": "uint256"
        }
      ],
      "name": "ownerOf",
      "outputs": [
        {
          "internalType": "address",
          "name": "",
          "type": "address"
        }
      ],
      "stateMutability": "view",
      "type": "function"
    },
    {
      "inputs": [
        {
          "internalType": "uint16",
          "name": "",
          "type": "uint16"
        }
      ],
      "name": "payloadSizeLimitLookup",
      "outputs": [
        {
          "internalType": "uint256",
          "name": "",
          "type": "uint256"
        }
      ],
      "stateMutability": "view",
      "type": "function"
    },
    {
      "inputs": [],
      "name": "precrime",
      "outputs": [
        {
          "internalType": "address",
          "name": "",
          "type": "address"
        }
      ],
      "stateMutability": "view",
      "type": "function"
    },
    {
      "inputs": [],
      "name": "prerevealTokenURI",
      "outputs": [
        {
          "internalType": "string",
          "name": "",
          "type": "string"
        }
      ],
      "stateMutability": "view",
      "type": "function"
    },
    {
      "inputs": [
        {
          "internalType": "address",
          "name": "minterAddress",
          "type": "address"
        }
      ],
      "name": "removeMinter",
      "outputs": [],
      "stateMutability": "nonpayable",
      "type": "function"
    },
    {
      "inputs": [],
      "name": "renounceOwnership",
      "outputs": [],
      "stateMutability": "nonpayable",
      "type": "function"
    },
    {
      "inputs": [
        {
          "internalType": "uint16",
          "name": "_srcChainId",
          "type": "uint16"
        },
        {
          "internalType": "bytes",
          "name": "_srcAddress",
          "type": "bytes"
        },
        {
          "internalType": "uint64",
          "name": "_nonce",
          "type": "uint64"
        },
        {
          "internalType": "bytes",
          "name": "_payload",
          "type": "bytes"
        }
      ],
      "name": "retryMessage",
      "outputs": [],
      "stateMutability": "payable",
      "type": "function"
    },
    {
      "inputs": [],
      "name": "revealed",
      "outputs": [
        {
          "internalType": "bool",
          "name": "",
          "type": "bool"
        }
      ],
      "stateMutability": "view",
      "type": "function"
    },
    {
      "inputs": [
        {
          "internalType": "uint256",
          "name": "tokenId",
          "type": "uint256"
        },
        {
          "internalType": "uint256",
          "name": "salePrice",
          "type": "uint256"
        }
      ],
      "name": "royaltyInfo",
      "outputs": [
        {
          "internalType": "address",
          "name": "",
          "type": "address"
        },
        {
          "internalType": "uint256",
          "name": "",
          "type": "uint256"
        }
      ],
      "stateMutability": "view",
      "type": "function"
    },
    {
      "inputs": [
        {
          "internalType": "address",
          "name": "from",
          "type": "address"
        },
        {
          "internalType": "address",
          "name": "to",
          "type": "address"
        },
        {
          "internalType": "uint256",
          "name": "tokenId",
          "type": "uint256"
        }
      ],
      "name": "safeTransferFrom",
      "outputs": [],
      "stateMutability": "payable",
      "type": "function"
    },
    {
      "inputs": [
        {
          "internalType": "address",
          "name": "from",
          "type": "address"
        },
        {
          "internalType": "address",
          "name": "to",
          "type": "address"
        },
        {
          "internalType": "uint256",
          "name": "tokenId",
          "type": "uint256"
        },
        {
          "internalType": "bytes",
          "name": "_data",
          "type": "bytes"
        }
      ],
      "name": "safeTransferFrom",
      "outputs": [],
      "stateMutability": "payable",
      "type": "function"
    },
    {
      "inputs": [
        {
          "internalType": "address",
          "name": "_from",
          "type": "address"
        },
        {
          "internalType": "uint16",
          "name": "_dstChainId",
          "type": "uint16"
        },
        {
          "internalType": "bytes",
          "name": "_toAddress",
          "type": "bytes"
        },
        {
          "internalType": "uint256[]",
          "name": "_tokenIds",
          "type": "uint256[]"
        },
        {
          "internalType": "address payable",
          "name": "_refundAddress",
          "type": "address"
        },
        {
          "internalType": "address",
          "name": "_zroPaymentAddress",
          "type": "address"
        },
        {
          "internalType": "bytes",
          "name": "_adapterParams",
          "type": "bytes"
        }
      ],
      "name": "sendBatchFrom",
      "outputs": [],
      "stateMutability": "payable",
      "type": "function"
    },
    {
      "inputs": [
        {
          "internalType": "address",
          "name": "_from",
          "type": "address"
        },
        {
          "internalType": "uint16",
          "name": "_dstChainId",
          "type": "uint16"
        },
        {
          "internalType": "bytes",
          "name": "_toAddress",
          "type": "bytes"
        },
        {
          "internalType": "uint256",
          "name": "_tokenId",
          "type": "uint256"
        },
        {
          "internalType": "address payable",
          "name": "_refundAddress",
          "type": "address"
        },
        {
          "internalType": "address",
          "name": "_zroPaymentAddress",
          "type": "address"
        },
        {
          "internalType": "bytes",
          "name": "_adapterParams",
          "type": "bytes"
        }
      ],
      "name": "sendFrom",
      "outputs": [],
      "stateMutability": "payable",
      "type": "function"
    },
    {
      "inputs": [
        {
          "internalType": "address",
          "name": "operator",
          "type": "address"
        },
        {
          "internalType": "bool",
          "name": "approved",
          "type": "bool"
        }
      ],
      "name": "setApprovalForAll",
      "outputs": [],
      "stateMutability": "nonpayable",
      "type": "function"
    },
    {
      "inputs": [
        {
          "internalType": "string",
          "name": "baseURI",
          "type": "string"
        }
      ],
      "name": "setBaseURI",
      "outputs": [],
      "stateMutability": "nonpayable",
      "type": "function"
    },
    {
      "inputs": [
        {
          "internalType": "uint16",
          "name": "_version",
          "type": "uint16"
        },
        {
          "internalType": "uint16",
          "name": "_chainId",
          "type": "uint16"
        },
        {
          "internalType": "uint256",
          "name": "_configType",
          "type": "uint256"
        },
        {
          "internalType": "bytes",
          "name": "_config",
          "type": "bytes"
        }
      ],
      "name": "setConfig",
      "outputs": [],
      "stateMutability": "nonpayable",
      "type": "function"
    },
    {
      "inputs": [
        {
          "internalType": "address",
          "name": "receiver",
          "type": "address"
        },
        {
          "internalType": "uint96",
          "name": "feeNumerator",
          "type": "uint96"
        }
      ],
      "name": "setDefaultRoyalty",
      "outputs": [],
      "stateMutability": "nonpayable",
      "type": "function"
    },
    {
      "inputs": [
        {
          "internalType": "uint16",
          "name": "_dstChainId",
          "type": "uint16"
        },
        {
          "internalType": "uint256",
          "name": "_dstChainIdToBatchLimit",
          "type": "uint256"
        }
      ],
      "name": "setDstChainIdToBatchLimit",
      "outputs": [],
      "stateMutability": "nonpayable",
      "type": "function"
    },
    {
      "inputs": [
        {
          "internalType": "uint16",
          "name": "_dstChainId",
          "type": "uint16"
        },
        {
          "internalType": "uint256",
          "name": "_dstChainIdToTransferGas",
          "type": "uint256"
        }
      ],
      "name": "setDstChainIdToTransferGas",
      "outputs": [],
      "stateMutability": "nonpayable",
      "type": "function"
    },
    {
      "inputs": [
        {
          "internalType": "uint16",
          "name": "_dstChainId",
          "type": "uint16"
        },
        {
          "internalType": "uint16",
          "name": "_packetType",
          "type": "uint16"
        },
        {
          "internalType": "uint256",
          "name": "_minGas",
          "type": "uint256"
        }
      ],
      "name": "setMinDstGas",
      "outputs": [],
      "stateMutability": "nonpayable",
      "type": "function"
    },
    {
      "inputs": [
        {
          "internalType": "uint256",
          "name": "_minGasToTransferAndStore",
          "type": "uint256"
        }
      ],
      "name": "setMinGasToTransferAndStore",
      "outputs": [],
      "stateMutability": "nonpayable",
      "type": "function"
    },
    {
      "inputs": [
        {
          "internalType": "uint256",
          "name": "_mintLimit",
          "type": "uint256"
        }
      ],
      "name": "setMintLimit",
      "outputs": [],
      "stateMutability": "nonpayable",
      "type": "function"
    },
    {
      "inputs": [
        {
          "internalType": "bool",
          "name": "_mintState",
          "type": "bool"
        }
      ],
      "name": "setMintState",
      "outputs": [],
      "stateMutability": "nonpayable",
      "type": "function"
    },
    {
      "inputs": [
        {
          "internalType": "uint16",
          "name": "_dstChainId",
          "type": "uint16"
        },
        {
          "internalType": "uint256",
          "name": "_size",
          "type": "uint256"
        }
      ],
      "name": "setPayloadSizeLimit",
      "outputs": [],
      "stateMutability": "nonpayable",
      "type": "function"
    },
    {
      "inputs": [
        {
          "internalType": "address",
          "name": "_precrime",
          "type": "address"
        }
      ],
      "name": "setPrecrime",
      "outputs": [],
      "stateMutability": "nonpayable",
      "type": "function"
    },
    {
      "inputs": [
        {
          "internalType": "string",
          "name": "prerevealURI",
          "type": "string"
        }
      ],
      "name": "setPrerevealTokenURI",
      "outputs": [],
      "stateMutability": "nonpayable",
      "type": "function"
    },
    {
      "inputs": [
        {
          "internalType": "uint16",
          "name": "_version",
          "type": "uint16"
        }
      ],
      "name": "setReceiveVersion",
      "outputs": [],
      "stateMutability": "nonpayable",
      "type": "function"
    },
    {
      "inputs": [
        {
          "internalType": "bool",
          "name": "_revealed",
          "type": "bool"
        }
      ],
      "name": "setRevealed",
      "outputs": [],
      "stateMutability": "nonpayable",
      "type": "function"
    },
    {
      "inputs": [
        {
          "internalType": "uint16",
          "name": "_version",
          "type": "uint16"
        }
      ],
      "name": "setSendVersion",
      "outputs": [],
      "stateMutability": "nonpayable",
      "type": "function"
    },
    {
      "inputs": [
        {
          "internalType": "address",
          "name": "_treasuryAddress",
          "type": "address"
        }
      ],
      "name": "setTreasuryAddress",
      "outputs": [],
      "stateMutability": "nonpayable",
      "type": "function"
    },
    {
      "inputs": [
        {
          "internalType": "uint16",
          "name": "_remoteChainId",
          "type": "uint16"
        },
        {
          "internalType": "bytes",
          "name": "_path",
          "type": "bytes"
        }
      ],
      "name": "setTrustedRemote",
      "outputs": [],
      "stateMutability": "nonpayable",
      "type": "function"
    },
    {
      "inputs": [
        {
          "internalType": "uint16",
          "name": "_remoteChainId",
          "type": "uint16"
        },
        {
          "internalType": "bytes",
          "name": "_remoteAddress",
          "type": "bytes"
        }
      ],
      "name": "setTrustedRemoteAddress",
      "outputs": [],
      "stateMutability": "nonpayable",
      "type": "function"
    },
    {
      "inputs": [
        {
          "internalType": "bytes32",
          "name": "",
          "type": "bytes32"
        }
      ],
      "name": "storedCredits",
      "outputs": [
        {
          "internalType": "uint16",
          "name": "srcChainId",
          "type": "uint16"
        },
        {
          "internalType": "address",
          "name": "toAddress",
          "type": "address"
        },
        {
          "internalType": "uint256",
          "name": "index",
          "type": "uint256"
        },
        {
          "internalType": "bool",
          "name": "creditsRemain",
          "type": "bool"
        }
      ],
      "stateMutability": "view",
      "type": "function"
    },
    {
      "inputs": [
        {
          "internalType": "bytes4",
          "name": "interfaceId",
          "type": "bytes4"
        }
      ],
      "name": "supportsInterface",
      "outputs": [
        {
          "internalType": "bool",
          "name": "",
          "type": "bool"
        }
      ],
      "stateMutability": "view",
      "type": "function"
    },
    {
      "inputs": [],
      "name": "symbol",
      "outputs": [
        {
          "internalType": "string",
          "name": "",
          "type": "string"
        }
      ],
      "stateMutability": "view",
      "type": "function"
    },
    {
      "inputs": [
        {
          "internalType": "uint256",
          "name": "tokenId",
          "type": "uint256"
        }
      ],
      "name": "tokenURI",
      "outputs": [
        {
          "internalType": "string",
          "name": "",
          "type": "string"
        }
      ],
      "stateMutability": "view",
      "type": "function"
    },
    {
      "inputs": [],
      "name": "totalSupply",
      "outputs": [
        {
          "internalType": "uint256",
          "name": "",
          "type": "uint256"
        }
      ],
      "stateMutability": "view",
      "type": "function"
    },
    {
      "inputs": [
        {
          "internalType": "address",
          "name": "from",
          "type": "address"
        },
        {
          "internalType": "address",
          "name": "to",
          "type": "address"
        },
        {
          "internalType": "uint256",
          "name": "tokenId",
          "type": "uint256"
        }
      ],
      "name": "transferFrom",
      "outputs": [],
      "stateMutability": "payable",
      "type": "function"
    },
    {
      "inputs": [
        {
          "internalType": "address",
          "name": "newOwner",
          "type": "address"
        }
      ],
      "name": "transferOwnership",
      "outputs": [],
      "stateMutability": "nonpayable",
      "type": "function"
    },
    {
      "inputs": [],
      "name": "treasuryAddress",
      "outputs": [
        {
          "internalType": "address",
          "name": "",
          "type": "address"
        }
      ],
      "stateMutability": "view",
      "type": "function"
    },
    {
      "inputs": [
        {
          "internalType": "uint256",
          "name": "quantity",
          "type": "uint256"
        }
      ],
      "name": "treasuryMint",
      "outputs": [],
      "stateMutability": "nonpayable",
      "type": "function"
    },
    {
      "inputs": [],
      "name": "treasuryMintedCount",
      "outputs": [
        {
          "internalType": "uint256",
          "name": "",
          "type": "uint256"
        }
      ],
      "stateMutability": "view",
      "type": "function"
    },
    {
      "inputs": [
        {
          "internalType": "uint16",
          "name": "",
          "type": "uint16"
        }
      ],
      "name": "trustedRemoteLookup",
      "outputs": [
        {
          "internalType": "bytes",
          "name": "",
          "type": "bytes"
        }
      ],
      "stateMutability": "view",
      "type": "function"
    },
    {
      "inputs": [
        {
          "internalType": "address",
          "name": "_owner",
          "type": "address"
        }
      ],
      "name": "walletOfOwner",
      "outputs": [
        {
          "internalType": "uint256[]",
          "name": "",
          "type": "uint256[]"
        }
      ],
      "stateMutability": "view",
      "type": "function"
    }
  ],
  "transactionHash": "0x1b217e54015fc672059ffcf52149d8ba6916656a37bbcac023b4e9fefd289549",
  "args": [
    "",
    "DecaNFT",
    "DNFT",
    150000,
    "0xbfD2135BFfbb0B5378b56643c2Df8a87552Bfa23"
  ],
  "numDeployments": 1,
  "solcInputHash": "8525a6017409eaf0d15ec063235edbd0",
  "bytecode": "0x60a0604052600560185560006019553480156200001b57600080fd5b506040516200525e3803806200525e8339810160408190526200003e9162000346565b8383838383838383808062000053336200011c565b60601b6001600160601b03191660805250600160065581620000c85760405162461bcd60e51b8152602060048201526024808201527f6d696e476173546f5472616e73666572416e6453746f7265206d7573742062656044820152630203e20360e41b60648201526084015b60405180910390fd5b506007558151620000e190600d906020850190620001ed565b508051620000f790600e906020840190620001ed565b506000600b5550620001119450899350506200016c915050565b505050505062000453565b600080546001600160a01b038381166001600160a01b0319831681178455604051919092169283917f8be0079c531659141344cd1fd0a4f28419497f9722a3daafe3b4186f6b6457e09190a35050565b620001766200018f565b80516200018b906015906020840190620001ed565b5050565b6000546001600160a01b03163314620001eb5760405162461bcd60e51b815260206004820181905260248201527f4f776e61626c653a2063616c6c6572206973206e6f7420746865206f776e65726044820152606401620000bf565b565b828054620001fb9062000400565b90600052602060002090601f0160209004810192826200021f57600085556200026a565b82601f106200023a57805160ff19168380011785556200026a565b828001600101855582156200026a579182015b828111156200026a5782518255916020019190600101906200024d565b50620002789291506200027c565b5090565b5b808211156200027857600081556001016200027d565b600082601f830112620002a4578081fd5b81516001600160401b0380821115620002c157620002c16200043d565b604051601f8301601f19908116603f01168101908282118183101715620002ec57620002ec6200043d565b8160405283815260209250868385880101111562000308578485fd5b8491505b838210156200032b57858201830151818301840152908201906200030c565b838211156200033c57848385830101525b9695505050505050565b600080600080600060a086880312156200035e578081fd5b85516001600160401b038082111562000375578283fd5b6200038389838a0162000293565b9650602088015191508082111562000399578283fd5b620003a789838a0162000293565b95506040880151915080821115620003bd578283fd5b50620003cc8882890162000293565b60608801516080890151919550935090506001600160a01b0381168114620003f2578182fd5b809150509295509295909350565b600181811c908216806200041557607f821691505b602082108114156200043757634e487b7160e01b600052602260045260246000fd5b50919050565b634e487b7160e01b600052604160045260246000fd5b60805160601c614db4620004aa60003960008181610c0f01528181610f160152818161122d015281816114590152818161189c015281816123df015281816128c801528181612a170152613a1e0152614db46000f3fe60806040526004361061045c5760003560e01c80638da5cb5b1161023f578063c446183411610139578063e985e9c5116100b6578063f46eccc41161007a578063f46eccc414610e61578063f4ad0f9714610e91578063f5ecbdbc14610ea6578063f769572d14610ec6578063fa25f9b614610ee657600080fd5b8063e985e9c514610d98578063eb8d72b714610de1578063efdc778814610e01578063f235364114610e21578063f2fde38b14610e4157600080fd5b8063d12473a5116100fd578063d12473a514610d10578063d1deba1f14610d30578063d547cfb714610d43578063df2a5b3b14610d58578063e0a8085314610d7857600080fd5b8063c446183414610c84578063c5f956af14610c9a578063c87b56dd14610cba578063cbed8b9c14610cda578063d0aa0a0d14610cfa57600080fd5b8063a0712d68116101c7578063b09d28cc1161018b578063b09d28cc14610bdd578063b353aaa714610bfd578063b88d4fde14610c31578063baf3292d14610c44578063c051e38a14610c6457600080fd5b8063a0712d6814610b42578063a22cb46514610b62578063a6c3d16514610b82578063ab3ffb9314610ba2578063af3fb21c14610bb557600080fd5b8063983b2d561161020e578063983b2d5614610aac578063996517cf14610acc5780639e6a1d7d14610ae25780639ea5d6b114610b025780639f38369a14610b2257600080fd5b80638da5cb5b14610a395780638ffa1f2a14610a57578063950c8a7414610a7757806395d89b4114610a9757600080fd5b80633d8b38f61161035b57806355f804b3116102d857806366ad5c8a1161029c57806366ad5c8a1461098c57806370a08231146109ac578063715018a6146109cc5780637533d788146109e15780638cfd8f5c14610a0157600080fd5b806355f804b3146108be5780635b8c41e6146108de5780635e84c36b1461092d5780636352211e1461094c5780636605bfda1461096c57600080fd5b8063438b63001161031f578063438b630014610821578063482881901461084e5780634ac3f4ff14610864578063518302271461089157806351905636146108ab57600080fd5b80633d8b38f6146107815780633f1f4fa4146107a157806342842e0e146107ce57806342966c68146107e157806342d65a8d1461080157600080fd5b806310ddb137116103e957806326412aca116103ad57806326412aca146106b75780632a205e3d146106d75780632a55205a1461070c5780633092afd51461074b5780633502a7161461076b57600080fd5b806310ddb137146105a5578063150b7a02146105c557806318160ddd146105fe57806322a3ecf91461062157806323b872dd146106a457600080fd5b806307e0db171161043057806307e0db17146104fa578063081812fc1461051a578063095ea7b3146105525780630b4cad4c146105655780630df374831461058557600080fd5b80621d35671461046157806301ffc9a71461048357806304634d8d146104b857806306fdde03146104d8575b600080fd5b34801561046d57600080fd5b5061048161047c3660046144a8565b610f13565b005b34801561048f57600080fd5b506104a361049e3660046142a2565b611144565b60405190151581526020015b60405180910390f35b3480156104c457600080fd5b506104816104d3366004614238565b611164565b3480156104e457600080fd5b506104ed61117a565b6040516104af9190614988565b34801561050657600080fd5b5061048161051536600461443e565b61120c565b34801561052657600080fd5b5061053a61053536600461428a565b611295565b6040516001600160a01b0390911681526020016104af565b61048161056036600461420d565b6112d9565b34801561057157600080fd5b5061048161058036600461428a565b611379565b34801561059157600080fd5b506104816105a03660046147b0565b611419565b3480156105b157600080fd5b506104816105c036600461443e565b611438565b3480156105d157600080fd5b506105e56105e0366004614009565b611490565b6040516001600160e01b031990911681526020016104af565b34801561060a57600080fd5b50600c54600b54035b6040519081526020016104af565b34801561062d57600080fd5b5061067561063c36600461428a565b600a6020526000908152604090208054600182015460029092015461ffff821692620100009092046001600160a01b0316919060ff1684565b6040805161ffff90951685526001600160a01b03909316602085015291830152151560608201526080016104af565b6104816106b2366004613fc9565b6114a1565b3480156106c357600080fd5b506104816106d2366004614270565b61162b565b3480156106e357600080fd5b506106f76106f23660046145dd565b611686565b604080519283526020830191909152016104af565b34801561071857600080fd5b5061072c6107273660046147cb565b6116ac565b604080516001600160a01b0390931683526020830191909152016104af565b34801561075757600080fd5b50610481610766366004613f75565b61175a565b34801561077757600080fd5b506106136107e881565b34801561078d57600080fd5b506104a361079c366004614458565b611783565b3480156107ad57600080fd5b506106136107bc36600461443e565b60036020526000908152604090205481565b6104816107dc366004613fc9565b61184f565b3480156107ed57600080fd5b506104816107fc36600461428a565b61186f565b34801561080d57600080fd5b5061048161081c366004614458565b61187d565b34801561082d57600080fd5b5061084161083c366004613f75565b611903565b6040516104af919061495c565b34801561085a57600080fd5b5061061360075481565b34801561087057600080fd5b5061061361087f36600461443e565b60086020526000908152604090205481565b34801561089d57600080fd5b506017546104a39060ff1681565b6104816108b9366004614173565b611a04565b3480156108ca57600080fd5b506104816108d93660046143f9565b611a1b565b3480156108ea57600080fd5b506106136108f9366004614639565b6005602090815260009384526040808520845180860184018051928152908401958401959095209452929052825290205481565b34801561093957600080fd5b506017546104a390610100900460ff1681565b34801561095857600080fd5b5061053a61096736600461428a565b611a36565b34801561097857600080fd5b50610481610987366004613f75565b611a41565b34801561099857600080fd5b506104816109a73660046144a8565b611a6b565b3480156109b857600080fd5b506106136109c7366004613f75565b611b3f565b3480156109d857600080fd5b50610481611b8d565b3480156109ed57600080fd5b506104ed6109fc36600461443e565b611ba1565b348015610a0d57600080fd5b50610613610a1c366004614694565b600260209081526000928352604080842090915290825290205481565b348015610a4557600080fd5b506000546001600160a01b031661053a565b348015610a6357600080fd5b50610481610a723660046142da565b611c3b565b348015610a8357600080fd5b5060045461053a906001600160a01b031681565b348015610aa357600080fd5b506104ed611e84565b348015610ab857600080fd5b50610481610ac7366004613f75565b611e93565b348015610ad857600080fd5b5061061360185481565b348015610aee57600080fd5b50610481610afd36600461428a565b611ebf565b348015610b0e57600080fd5b50610481610b1d3660046147b0565b611ecc565b348015610b2e57600080fd5b506104ed610b3d36600461443e565b611f83565b348015610b4e57600080fd5b50610481610b5d36600461428a565b61209a565b348015610b6e57600080fd5b50610481610b7d366004614072565b612173565b348015610b8e57600080fd5b50610481610b9d366004614458565b6121df565b610481610bb03660046140a6565b612272565b348015610bc157600080fd5b50610bca600181565b60405161ffff90911681526020016104af565b348015610be957600080fd5b50610481610bf83660046143f9565b612281565b348015610c0957600080fd5b5061053a7f000000000000000000000000000000000000000000000000000000000000000081565b610481610c3f366004614009565b61229c565b348015610c5057600080fd5b50610481610c5f366004613f75565b6122e6565b348015610c7057600080fd5b506017546104a39062010000900460ff1681565b348015610c9057600080fd5b5061061361271081565b348015610ca657600080fd5b50601a5461053a906001600160a01b031681565b348015610cc657600080fd5b506104ed610cd536600461428a565b61233c565b348015610ce657600080fd5b50610481610cf5366004614744565b6123c0565b348015610d0657600080fd5b5061061360195481565b348015610d1c57600080fd5b50610481610d2b3660046147b0565b612455565b610481610d3e3660046144a8565b612505565b348015610d4f57600080fd5b506104ed61271b565b348015610d6457600080fd5b50610481610d73366004614709565b612728565b348015610d8457600080fd5b50610481610d93366004614270565b612792565b348015610da457600080fd5b506104a3610db3366004613f91565b6001600160a01b03918216600090815260126020908152604080832093909416825291909152205460ff1690565b348015610ded57600080fd5b50610481610dfc366004614458565b6127ad565b348015610e0d57600080fd5b50610481610e1c36600461428a565b612807565b348015610e2d57600080fd5b506106f7610e3c366004614538565b612889565b348015610e4d57600080fd5b50610481610e5c366004613f75565b612963565b348015610e6d57600080fd5b506104a3610e7c366004613f75565b601b6020526000908152604090205460ff1681565b348015610e9d57600080fd5b506104ed6129d9565b348015610eb257600080fd5b506104ed610ec13660046146bd565b6129e6565b348015610ed257600080fd5b50610481610ee1366004614270565b612aa6565b348015610ef257600080fd5b50610613610f0136600461443e565b60096020526000908152604090205481565b337f00000000000000000000000000000000000000000000000000000000000000006001600160a01b031614610f905760405162461bcd60e51b815260206004820152601e60248201527f4c7a4170703a20696e76616c696420656e64706f696e742063616c6c6572000060448201526064015b60405180910390fd5b61ffff861660009081526001602052604081208054610fae90614cb1565b80601f0160208091040260200160405190810160405280929190818152602001828054610fda90614cb1565b80156110275780601f10610ffc57610100808354040283529160200191611027565b820191906000526020600020905b81548152906001019060200180831161100a57829003601f168201915b50505050509050805186869050148015611042575060008151115b801561106a575080516020820120604051611060908890889061489e565b6040518091039020145b6110c55760405162461bcd60e51b815260206004820152602660248201527f4c7a4170703a20696e76616c696420736f757263652073656e64696e6720636f6044820152651b9d1c9858dd60d21b6064820152608401610f87565b61113b8787878080601f01602080910402602001604051908101604052809392919081815260200183838082843760009201919091525050604080516020601f8a018190048102820181019092528881528a935091508890889081908401838280828437600092019190915250612ac892505050565b50505050505050565b600061114f82612b41565b8061115e575061115e82612b8f565b92915050565b61116c612bb4565b6111768282612c0e565b5050565b6060600d805461118990614cb1565b80601f01602080910402602001604051908101604052809291908181526020018280546111b590614cb1565b80156112025780601f106111d757610100808354040283529160200191611202565b820191906000526020600020905b8154815290600101906020018083116111e557829003601f168201915b5050505050905090565b611214612bb4565b6040516307e0db1760e01b815261ffff821660048201527f00000000000000000000000000000000000000000000000000000000000000006001600160a01b0316906307e0db17906024015b600060405180830381600087803b15801561127a57600080fd5b505af115801561128e573d6000803e3d6000fd5b5050505050565b60006112a082612d0b565b6112bd576040516333d1c03960e21b815260040160405180910390fd5b506000908152601160205260409020546001600160a01b031690565b60006112e482611a36565b9050336001600160a01b0382161461131d576113008133610db3565b61131d576040516367d9dca160e11b815260040160405180910390fd5b60008281526011602052604080822080546001600160a01b0319166001600160a01b0387811691821790925591518593918516917f8c5be1e5ebec7d5bd14f71427d1e84f3dd0314c0f7b2291e5b200ac8c7c3b92591a4505050565b611381612bb4565b600081116113dd5760405162461bcd60e51b8152602060048201526024808201527f6d696e476173546f5472616e73666572416e6453746f7265206d7573742062656044820152630203e20360e41b6064820152608401610f87565b60078190556040518181527ffebbc4f8bb9ec2313950c718d43123124b15778efda4c1f1d529de2995b4f34d906020015b60405180910390a150565b611421612bb4565b61ffff909116600090815260036020526040902055565b611440612bb4565b6040516310ddb13760e01b815261ffff821660048201527f00000000000000000000000000000000000000000000000000000000000000006001600160a01b0316906310ddb13790602401611260565b630a85bd0160e11b5b949350505050565b60006114ac82612d33565b9050836001600160a01b0316816001600160a01b0316146114df5760405162a1148160e81b815260040160405180910390fd5b6000828152601160205260409020805461150b8187335b6001600160a01b039081169116811491141790565b611536576115198633610db3565b61153657604051632ce44b5f60e11b815260040160405180910390fd5b6001600160a01b03851661155d57604051633a954ecd60e21b815260040160405180910390fd5b801561156857600082555b6001600160a01b038681166000908152601060205260408082208054600019019055918716808252919020805460010190554260a01b17600160e11b176000858152600f6020526040902055600160e11b83166115f357600184016000818152600f60205260409020546115f157600b5481146115f1576000818152600f602052604090208490555b505b83856001600160a01b0316876001600160a01b0316600080516020614d5f83398151915260405160405180910390a45b505050505050565b611633612bb4565b6017805462ff00001916620100008315158102919091179182905560405160ff9190920416151581527f992fe84c8bbd52855b22035907ca1f9e1d6bcbb390bc81150808e8443d01668c9060200161140e565b60008061169e878761169788612d94565b8787612889565b915091509550959350505050565b60008281526014602090815260408083208151808301909252546001600160a01b038116808352600160a01b9091046001600160601b03169282019290925282916117215750604080518082019091526013546001600160a01b0381168252600160a01b90046001600160601b031660208201525b602081015160009061271090611740906001600160601b031687614c4f565b61174a9190614c2f565b91519350909150505b9250929050565b611762612bb4565b6001600160a01b03166000908152601b60205260409020805460ff19169055565b61ffff8316600090815260016020526040812080548291906117a490614cb1565b80601f01602080910402602001604051908101604052809291908181526020018280546117d090614cb1565b801561181d5780601f106117f25761010080835404028352916020019161181d565b820191906000526020600020905b81548152906001019060200180831161180057829003601f168201915b50505050509050838360405161183492919061489e565b60405180910390208180519060200120149150509392505050565b61186a8383836040518060200160405280600081525061229c565b505050565b61187a816001612ded565b50565b611885612bb4565b6040516342d65a8d60e01b81526001600160a01b037f000000000000000000000000000000000000000000000000000000000000000016906342d65a8d906118d590869086908690600401614a14565b600060405180830381600087803b1580156118ef57600080fd5b505af115801561113b573d6000803e3d6000fd5b6060600061191083611b3f565b90506000816001600160401b0381111561193a57634e487b7160e01b600052604160045260246000fd5b604051908082528060200260200182016040528015611963578160200160208202803683370190505b50905081611972579392505050565b6000805b6107e88110156119fa57856001600160a01b031661199382611a36565b6001600160a01b031614156119e857808383815181106119c357634e487b7160e01b600052603260045260246000fd5b6020908102919091010152816119d881614cec565b925050838214156119e8576119fa565b806119f281614cec565b915050611976565b5090949350505050565b61113b878787611a1388612d94565b878787612f1f565b611a23612bb4565b8051611176906015906020840190613cd6565b600061115e82612d33565b611a49612bb4565b601a80546001600160a01b0319166001600160a01b0392909216919091179055565b333014611ac95760405162461bcd60e51b815260206004820152602660248201527f4e6f6e626c6f636b696e674c7a4170703a2063616c6c6572206d7573742062656044820152650204c7a4170760d41b6064820152608401610f87565b6116238686868080601f01602080910402602001604051908101604052809392919081815260200183838082843760009201919091525050604080516020601f89018190048102820181019092528781528993509150879087908190840183828082843760009201919091525061310192505050565b60006001600160a01b038216611b68576040516323d3ad8160e21b815260040160405180910390fd5b506001600160a01b03166000908152601060205260409020546001600160401b031690565b611b95612bb4565b611b9f6000613258565b565b60016020526000908152604090208054611bba90614cb1565b80601f0160208091040260200160405190810160405280929190818152602001828054611be690614cb1565b8015611c335780601f10611c0857610100808354040283529160200191611c33565b820191906000526020600020905b815481529060010190602001808311611c1657829003601f168201915b505050505081565b611c436132a8565b80516020808301919091206000818152600a90925260409091206002015460ff16611ca45760405162461bcd60e51b81526020600482015260116024820152701b9bc818dc99591a5d1cc81cdd1bdc9959607a1b6044820152606401610f87565b600082806020019051810190611cba919061433e565b6000848152600a602052604081208054600190910154929450909250611cf69161ffff8216916201000090046001600160a01b03169085613302565b6000848152600a60205260409020600101549091508111611d6b5760405162461bcd60e51b815260206004820152602960248201527f6e6f7420656e6f7567682067617320746f2070726f6365737320637265646974604482015268103a3930b739b332b960b91b6064820152608401610f87565b8151811415611de3576000838152600a602052604080822080546001600160b01b031916815560018101929092556002909101805460ff19169055517fd7be02b8dd0d27bd0517a9cb4d7469ce27df4313821ae5ec1ff69acc594ba23390611dd69085815260200190565b60405180910390a1611e77565b604080516080810182526000858152600a6020818152848320805461ffff80821687526001600160a01b03620100008084048216868a019081529989018b8152600160608b01818152998f90529790965297519851169096026001600160b01b03199091169690951695909517939093178455915191830191909155516002909101805491151560ff199092169190911790555b50505061187a6001600655565b6060600e805461118990614cb1565b611e9b612bb4565b6001600160a01b03166000908152601b60205260409020805460ff19166001179055565b611ec7612bb4565b601855565b611ed4612bb4565b60008111611f2f5760405162461bcd60e51b815260206004820152602260248201527f647374436861696e4964546f42617463684c696d6974206d757374206265203e604482015261020360f41b6064820152608401610f87565b61ffff8216600081815260086020908152604091829020849055815192835282018390527f7315f7654d594ead24a30160ed9ba2d23247f543016b918343591e93d7afdb6d91015b60405180910390a15050565b61ffff8116600090815260016020526040812080546060929190611fa690614cb1565b80601f0160208091040260200160405190810160405280929190818152602001828054611fd290614cb1565b801561201f5780601f10611ff45761010080835404028352916020019161201f565b820191906000526020600020905b81548152906001019060200180831161200257829003601f168201915b505050505090508051600014156120785760405162461bcd60e51b815260206004820152601d60248201527f4c7a4170703a206e6f20747275737465642070617468207265636f72640000006044820152606401610f87565b61209360006014835161208b9190614c6e565b839190613362565b9392505050565b601754610100900460ff1680156120c15750336000908152601b602052604090205460ff16155b156120e05760405162f78d2360e81b8152336004820152602401610f87565b60175462010000900460ff16612109576040516365a2ea6560e11b815260040160405180910390fd5b60185481111561212f57604051637e0311c360e11b815260048101829052602401610f87565b6107e881612140600c54600b540390565b61214a9190614c17565b11156121695760405163152bdec360e21b815260040160405180910390fd5b61187a338261346f565b3360008181526012602090815260408083206001600160a01b03871680855290835292819020805460ff191686151590811790915590519081529192917f17307eab39ab6107e8899845ad3d59bd9653f200f220920489ca2b5937696c31910160405180910390a35050565b6121e7612bb4565b8181306040516020016121fc939291906148ae565b60408051601f1981840301815291815261ffff8516600090815260016020908152919020825161223193919290910190613cd6565b507f8c0400cfe2d1199b1a725c78960bcc2a344d869b80590d0f2bd005db15a572ce83838360405161226593929190614a14565b60405180910390a1505050565b61113b87878787878787612f1f565b612289612bb4565b8051611176906016906020840190613cd6565b6122a78484846114a1565b6001600160a01b0383163b156122e0576122c384848484613489565b6122e0576040516368d2bf6b60e11b815260040160405180910390fd5b50505050565b6122ee612bb4565b600480546001600160a01b0319166001600160a01b0383169081179091556040519081527f5db758e995a17ec1ad84bdef7e8c3293a0bd6179bcce400dff5d4c3d87db726b9060200161140e565b606061234782612d0b565b61236457604051630a14c4b560e41b815260040160405180910390fd5b600061236e61357d565b905080516000141561238f5760405180602001604052806000815250612093565b806123998461358c565b6040516020016123aa9291906148f0565b6040516020818303038152906040529392505050565b6123c8612bb4565b6040516332fb62e760e21b81526001600160a01b037f0000000000000000000000000000000000000000000000000000000000000000169063cbed8b9c9061241c9088908890889088908890600401614b6f565b600060405180830381600087803b15801561243657600080fd5b505af115801561244a573d6000803e3d6000fd5b505050505050505050565b61245d612bb4565b600081116124b95760405162461bcd60e51b815260206004820152602360248201527f647374436861696e4964546f5472616e73666572476173206d7573742062652060448201526203e20360ec1b6064820152608401610f87565b61ffff8216600081815260096020908152604091829020849055815192835282018390527fc46df2983228ac2d9754e94a0d565e6671665dc8ad38602bc8e544f0685a29fb9101611f77565b61ffff86166000908152600560205260408082209051612528908890889061489e565b90815260408051602092819003830190206001600160401b038716600090815292529020549050806125a85760405162461bcd60e51b815260206004820152602360248201527f4e6f6e626c6f636b696e674c7a4170703a206e6f2073746f726564206d65737360448201526261676560e81b6064820152608401610f87565b8083836040516125b992919061489e565b6040518091039020146126185760405162461bcd60e51b815260206004820152602160248201527f4e6f6e626c6f636b696e674c7a4170703a20696e76616c6964207061796c6f616044820152601960fa1b6064820152608401610f87565b61ffff8716600090815260056020526040808220905161263b908990899061489e565b90815260408051602092819003830181206001600160401b038916600090815290845282902093909355601f880182900482028301820190528682526126d3918991899089908190840183828082843760009201919091525050604080516020601f8a018190048102820181019092528881528a93509150889088908190840183828082843760009201919091525061310192505050565b7fc264d91f3adc5588250e1551f547752ca0cfa8f6b530d243b9f9f4cab10ea8e5878787878560405161270a959493929190614a32565b60405180910390a150505050505050565b60158054611bba90614cb1565b612730612bb4565b61ffff83811660008181526002602090815260408083209487168084529482529182902085905581519283528201929092529081018290527f9d5c7c0b934da8fefa9c7760c98383778a12dfbfc0c3b3106518f43fb9508ac090606001612265565b61279a612bb4565b6017805460ff1916911515919091179055565b6127b5612bb4565b61ffff831660009081526001602052604090206127d3908383613d5a565b507ffa41487ad5d6728f0b19276fa1eddc16558578f5109fc39d2dc33c3230470dab83838360405161226593929190614a14565b61280f612bb4565b601a546001600160a01b03166128725760405162461bcd60e51b815260206004820152602260248201527f547265617375727920416464726573732073686f756c64206265207365742075604482015261381760f11b6064820152608401610f87565b601a5461187a9082906001600160a01b03166135da565b600080600086866040516020016128a192919061499b565b60408051601f198184030181529082905263040a7bb160e41b825291506001600160a01b037f000000000000000000000000000000000000000000000000000000000000000016906340a7bb1090612905908b90309086908b908b906004016149c0565b604080518083038186803b15801561291c57600080fd5b505afa158015612930573d6000803e3d6000fd5b505050506040513d601f19601f8201168201806040525081019061295491906147ec565b92509250509550959350505050565b61296b612bb4565b6001600160a01b0381166129d05760405162461bcd60e51b815260206004820152602660248201527f4f776e61626c653a206e6577206f776e657220697320746865207a65726f206160448201526564647265737360d01b6064820152608401610f87565b61187a81613258565b60168054611bba90614cb1565b604051633d7b2f6f60e21b815261ffff808616600483015284166024820152306044820152606481018290526060907f00000000000000000000000000000000000000000000000000000000000000006001600160a01b03169063f5ecbdbc9060840160006040518083038186803b158015612a6157600080fd5b505afa158015612a75573d6000803e3d6000fd5b505050506040513d6000823e601f3d908101601f19168201604052612a9d919081019061430c565b95945050505050565b612aae612bb4565b601780549115156101000261ff0019909216919091179055565b600080612b2b5a60966366ad5c8a60e01b89898989604051602401612af09493929190614ad4565b60408051601f198184030181529190526020810180516001600160e01b03166001600160e01b031990931692909217909152309291906136ba565b9150915081611623576116238686868685613752565b60006301ffc9a760e01b6001600160e01b031983161480612b7257506380ac58cd60e01b6001600160e01b03198316145b8061115e5750506001600160e01b031916635b5e139f60e01b1490565b60006001600160e01b0319821663152a902d60e11b148061115e575061115e826137ef565b6000546001600160a01b03163314611b9f5760405162461bcd60e51b815260206004820181905260248201527f4f776e61626c653a2063616c6c6572206973206e6f7420746865206f776e65726044820152606401610f87565b6127106001600160601b0382161115612c7c5760405162461bcd60e51b815260206004820152602a60248201527f455243323938313a20726f79616c7479206665652077696c6c206578636565646044820152692073616c65507269636560b01b6064820152608401610f87565b6001600160a01b038216612cd25760405162461bcd60e51b815260206004820152601960248201527f455243323938313a20696e76616c6964207265636569766572000000000000006044820152606401610f87565b604080518082019091526001600160a01b039092168083526001600160601b039091166020909201829052600160a01b90910217601355565b6000600b548210801561115e5750506000908152600f6020526040902054600160e01b161590565b600081600b54811015612d7b576000818152600f6020526040902054600160e01b8116612d79575b806120935750600019016000818152600f6020526040902054612d5b565b505b604051636f96cda160e11b815260040160405180910390fd5b60408051600180825281830190925260609160009190602080830190803683370190505090508281600081518110612ddc57634e487b7160e01b600052603260045260246000fd5b602090810291909101015292915050565b6000612df883612d33565b905080600080612e1686600090815260116020526040902080549091565b915091508415612e5657612e2b8184336114f6565b612e5657612e398333610db3565b612e5657604051632ce44b5f60e11b815260040160405180910390fd5b8015612e6157600082555b6001600160a01b038316600081815260106020526040902080546fffffffffffffffffffffffffffffffff0190554260a01b17600360e01b176000878152600f6020526040902055600160e11b8416612ee857600186016000818152600f6020526040902054612ee657600b548114612ee6576000818152600f602052604090208590555b505b60405186906000906001600160a01b03861690600080516020614d5f833981519152908390a45050600c8054600101905550505050565b6000845111612f665760405162461bcd60e51b8152602060048201526013602482015272746f6b656e4964735b5d20697320656d70747960681b6044820152606401610f87565b835160011480612f8a575061ffff8616600090815260086020526040902054845111155b612fe15760405162461bcd60e51b815260206004820152602260248201527f62617463682073697a65206578636565647320647374206261746368206c696d6044820152611a5d60f21b6064820152608401610f87565b60005b84518110156130325761302088888888858151811061301357634e487b7160e01b600052603260045260246000fd5b6020026020010151613814565b8061302a81614cec565b915050612fe4565b506000858560405160200161304892919061499b565b604051602081830303815290604052905061308d876001848851600960008d61ffff1661ffff168152602001908152602001600020546130889190614c4f565b61381f565b61309b8782868686346138f4565b856040516130a991906148d4565b6040518091039020886001600160a01b03168861ffff167fe1b87c47fdeb4f9cbadbca9df3af7aba453bb6e501075d0440d88125b711522a886040516130ef919061495c565b60405180910390a45050505050505050565b60008082806020019051810190613118919061433e565b60148201519193509150600061313088838386613302565b905082518110156132045784516020808701919091206040805160808101825261ffff808d1682526001600160a01b038088168387019081528385018881526001606086018181526000898152600a909a529887902095518654935190941662010000026001600160b01b03199093169390941692909217178355519082015592516002909301805493151560ff199094169390931790925590517f10e0b70d256bccc84b7027506978bd8b68984a870788b93b479def144c839ad7906131fa908390899061496f565b60405180910390a1505b816001600160a01b03168760405161321c91906148d4565b60405180910390208961ffff167f5b821db8a46f8ecbe1941ba2f51cfeea9643268b56631f70d45e2a745d990265866040516130ef919061495c565b600080546001600160a01b038381166001600160a01b0319831681178455604051919092169283917f8be0079c531659141344cd1fd0a4f28419497f9722a3daafe3b4186f6b6457e09190a35050565b600260065414156132fb5760405162461bcd60e51b815260206004820152601f60248201527f5265656e7472616e637947756172643a207265656e7472616e742063616c6c006044820152606401610f87565b6002600655565b6000825b8251811015612a9d576007545a101561331e57612a9d565b613350868685848151811061334357634e487b7160e01b600052603260045260246000fd5b6020026020010151613a9a565b8061335a81614cec565b915050613306565b60608161337081601f614c17565b10156133af5760405162461bcd60e51b815260206004820152600e60248201526d736c6963655f6f766572666c6f7760901b6044820152606401610f87565b6133b98284614c17565b845110156133fd5760405162461bcd60e51b8152602060048201526011602482015270736c6963655f6f75744f66426f756e647360781b6044820152606401610f87565b60608215801561341c5760405191506000825260208201604052613466565b6040519150601f8416801560200281840101858101878315602002848b0101015b8183101561345557805183526020928301920161343d565b5050858452601f01601f1916604052505b50949350505050565b611176828260405180602001604052806000815250613ad3565b604051630a85bd0160e11b81526000906001600160a01b0385169063150b7a02906134be90339089908890889060040161491f565b602060405180830381600087803b1580156134d857600080fd5b505af1925050508015613508575060408051601f3d908101601f19168201909252613505918101906142be565b60015b613563573d808015613536576040519150601f19603f3d011682016040523d82523d6000602084013e61353b565b606091505b50805161355b576040516368d2bf6b60e11b815260040160405180910390fd5b805181602001fd5b6001600160e01b031916630a85bd0160e11b149050611499565b60606015805461118990614cb1565b606060a06040510180604052602081039150506000815280825b600183039250600a81066030018353600a9004806135c3576135c8565b6135a6565b50819003601f19909101908152919050565b6064826019546135ea9190614c17565b1115613609576040516320703ae960e21b815260040160405180910390fd5b6107e88261361a600c54600b540390565b6136249190614c17565b11156136435760405163152bdec360e21b815260040160405180910390fd5b600061364e600b5490565b905061365a828461346f565b826019600082825461366c9190614c17565b909155505060408051848152602081018390526001600160a01b038416917f9cd0acb32569ceda8941e44882da22360e497bdb8a171f4cc7b607e594606214910160405180910390a2505050565b6000606060008060008661ffff166001600160401b038111156136ed57634e487b7160e01b600052604160045260246000fd5b6040519080825280601f01601f191660200182016040528015613717576020820181803683370190505b50905060008087516020890160008d8df191503d925086831115613739578692505b828152826000602083013e909890975095505050505050565b8180519060200120600560008761ffff1661ffff1681526020019081526020016000208560405161378391906148d4565b9081526040805191829003602090810183206001600160401b0388166000908152915220919091557fe183f33de2837795525b4792ca4cd60535bd77c53b7e7030060bfcf5734d6b0c906137e09087908790879087908790614b1d565b60405180910390a15050505050565b60006001600160e01b031982166322bac5d960e01b148061115e575061115e82612b41565b6122e084308361184f565b600061382a83613b39565b61ffff8087166000908152600260209081526040808320938916835292905220549091508061389b5760405162461bcd60e51b815260206004820152601a60248201527f4c7a4170703a206d696e4761734c696d6974206e6f74207365740000000000006044820152606401610f87565b6138a58382614c17565b8210156116235760405162461bcd60e51b815260206004820152601b60248201527f4c7a4170703a20676173206c696d697420697320746f6f206c6f7700000000006044820152606401610f87565b61ffff86166000908152600160205260408120805461391290614cb1565b80601f016020809104026020016040519081016040528092919081815260200182805461393e90614cb1565b801561398b5780601f106139605761010080835404028352916020019161398b565b820191906000526020600020905b81548152906001019060200180831161396e57829003601f168201915b505050505090508051600014156139fd5760405162461bcd60e51b815260206004820152603060248201527f4c7a4170703a2064657374696e6174696f6e20636861696e206973206e6f742060448201526f61207472757374656420736f7572636560801b6064820152608401610f87565b613a08878751613b95565b60405162c5803160e81b81526001600160a01b037f0000000000000000000000000000000000000000000000000000000000000000169063c5803100908490613a5f908b9086908c908c908c908c90600401614a6d565b6000604051808303818588803b158015613a7857600080fd5b505af1158015613a8c573d6000803e3d6000fd5b505050505050505050505050565b613aa381612d0b565b8015613abf575030613ab482611a36565b6001600160a01b0316145b613ac857600080fd5b61186a30838361184f565b613add8383613c03565b6001600160a01b0383163b1561186a57600b548281035b613b076000868380600101945086613489565b613b24576040516368d2bf6b60e11b815260040160405180910390fd5b818110613af45781600b541461128e57600080fd5b6000602282511015613b8d5760405162461bcd60e51b815260206004820152601c60248201527f4c7a4170703a20696e76616c69642061646170746572506172616d73000000006044820152606401610f87565b506022015190565b61ffff821660009081526003602052604090205480613bb357506127105b8082111561186a5760405162461bcd60e51b815260206004820181905260248201527f4c7a4170703a207061796c6f61642073697a6520697320746f6f206c617267656044820152606401610f87565b600b5481613c245760405163b562e8dd60e01b815260040160405180910390fd5b6001600160a01b03831660008181526010602090815260408083208054680100000000000000018802019055848352600f90915281206001851460e11b4260a01b17831790558284019083908390600080516020614d5f8339815191528180a4600183015b818114613caf5780836000600080516020614d5f833981519152600080a4600101613c89565b5081613ccd57604051622e076360e81b815260040160405180910390fd5b600b5550505050565b828054613ce290614cb1565b90600052602060002090601f016020900481019282613d045760008555613d4a565b82601f10613d1d57805160ff1916838001178555613d4a565b82800160010185558215613d4a579182015b82811115613d4a578251825591602001919060010190613d2f565b50613d56929150613dce565b5090565b828054613d6690614cb1565b90600052602060002090601f016020900481019282613d885760008555613d4a565b82601f10613da15782800160ff19823516178555613d4a565b82800160010185558215613d4a579182015b82811115613d4a578235825591602001919060010190613db3565b5b80821115613d565760008155600101613dcf565b6000613df6613df184614bf0565b614b9d565b9050828152838383011115613e0a57600080fd5b828260208301376000602084830101529392505050565b8035613e2c81614d33565b919050565b600082601f830112613e41578081fd5b81356020613e51613df183614bcd565b80838252828201915082860187848660051b8901011115613e70578586fd5b855b85811015613e8e57813584529284019290840190600101613e72565b5090979650505050505050565b80358015158114613e2c57600080fd5b60008083601f840112613ebc578182fd5b5081356001600160401b03811115613ed2578182fd5b60208301915083602082850101111561175357600080fd5b600082601f830112613efa578081fd5b61209383833560208501613de3565b600082601f830112613f19578081fd5b8151613f27613df182614bf0565b818152846020838601011115613f3b578283fd5b611499826020830160208701614c85565b803561ffff81168114613e2c57600080fd5b80356001600160401b0381168114613e2c57600080fd5b600060208284031215613f86578081fd5b813561209381614d33565b60008060408385031215613fa3578081fd5b8235613fae81614d33565b91506020830135613fbe81614d33565b809150509250929050565b600080600060608486031215613fdd578081fd5b8335613fe881614d33565b92506020840135613ff881614d33565b929592945050506040919091013590565b6000806000806080858703121561401e578081fd5b843561402981614d33565b9350602085013561403981614d33565b92506040850135915060608501356001600160401b0381111561405a578182fd5b61406687828801613eea565b91505092959194509250565b60008060408385031215614084578182fd5b823561408f81614d33565b915061409d60208401613e9b565b90509250929050565b600080600080600080600060e0888a0312156140c0578485fd5b87356140cb81614d33565b96506140d960208901613f4c565b955060408801356001600160401b03808211156140f4578687fd5b6141008b838c01613eea565b965060608a0135915080821115614115578485fd5b6141218b838c01613e31565b955060808a0135915061413382614d33565b81945061414260a08b01613e21565b935060c08a0135915080821115614157578283fd5b506141648a828b01613eea565b91505092959891949750929550565b600080600080600080600060e0888a03121561418d578081fd5b873561419881614d33565b96506141a660208901613f4c565b955060408801356001600160401b03808211156141c1578283fd5b6141cd8b838c01613eea565b965060608a0135955060808a013591506141e682614d33565b90935060a0890135906141f882614d33565b90925060c08901359080821115614157578283fd5b6000806040838503121561421f578182fd5b823561422a81614d33565b946020939093013593505050565b6000806040838503121561424a578182fd5b823561425581614d33565b915060208301356001600160601b0381168114613fbe578182fd5b600060208284031215614281578081fd5b61209382613e9b565b60006020828403121561429b578081fd5b5035919050565b6000602082840312156142b3578081fd5b813561209381614d48565b6000602082840312156142cf578081fd5b815161209381614d48565b6000602082840312156142eb578081fd5b81356001600160401b03811115614300578182fd5b61149984828501613eea565b60006020828403121561431d578081fd5b81516001600160401b03811115614332578182fd5b61149984828501613f09565b60008060408385031215614350578182fd5b82516001600160401b0380821115614366578384fd5b61437286838701613f09565b9350602091508185015181811115614388578384fd5b85019050601f8101861361439a578283fd5b80516143a8613df182614bcd565b80828252848201915084840189868560051b87010111156143c7578687fd5b8694505b838510156143e95780518352600194909401939185019185016143cb565b5080955050505050509250929050565b60006020828403121561440a578081fd5b81356001600160401b0381111561441f578182fd5b8201601f8101841361442f578182fd5b61149984823560208401613de3565b60006020828403121561444f578081fd5b61209382613f4c565b60008060006040848603121561446c578081fd5b61447584613f4c565b925060208401356001600160401b0381111561448f578182fd5b61449b86828701613eab565b9497909650939450505050565b600080600080600080608087890312156144c0578384fd5b6144c987613f4c565b955060208701356001600160401b03808211156144e4578586fd5b6144f08a838b01613eab565b909750955085915061450460408a01613f5e565b94506060890135915080821115614519578384fd5b5061452689828a01613eab565b979a9699509497509295939492505050565b600080600080600060a0868803121561454f578283fd5b61455886613f4c565b945060208601356001600160401b0380821115614573578485fd5b61457f89838a01613eea565b95506040880135915080821115614594578485fd5b6145a089838a01613e31565b94506145ae60608901613e9b565b935060808801359150808211156145c3578283fd5b506145d088828901613eea565b9150509295509295909350565b600080600080600060a086880312156145f4578283fd5b6145fd86613f4c565b945060208601356001600160401b0380821115614618578485fd5b61462489838a01613eea565b9550604088013594506145ae60608901613e9b565b60008060006060848603121561464d578081fd5b61465684613f4c565b925060208401356001600160401b03811115614670578182fd5b61467c86828701613eea565b92505061468b60408501613f5e565b90509250925092565b600080604083850312156146a6578182fd5b6146af83613f4c565b915061409d60208401613f4c565b600080600080608085870312156146d2578182fd5b6146db85613f4c565b93506146e960208601613f4c565b925060408501356146f981614d33565b9396929550929360600135925050565b60008060006060848603121561471d578081fd5b61472684613f4c565b925061473460208501613f4c565b9150604084013590509250925092565b60008060008060006080868803121561475b578283fd5b61476486613f4c565b945061477260208701613f4c565b93506040860135925060608601356001600160401b03811115614793578182fd5b61479f88828901613eab565b969995985093965092949392505050565b600080604083850312156147c2578182fd5b61422a83613f4c565b600080604083850312156147dd578182fd5b50508035926020909101359150565b600080604083850312156147fe578182fd5b505080516020909101519092909150565b6000815180845260208085019450808401835b8381101561483e57815187529582019590820190600101614822565b509495945050505050565b81835281816020850137506000828201602090810191909152601f909101601f19169091010190565b6000815180845261488a816020860160208601614c85565b601f01601f19169290920160200192915050565b8183823760009101908152919050565b8284823760609190911b6bffffffffffffffffffffffff19169101908152601401919050565b600082516148e6818460208701614c85565b9190910192915050565b60008351614902818460208801614c85565b835190830190614916818360208801614c85565b01949350505050565b6001600160a01b038581168252841660208201526040810183905260806060820181905260009061495290830184614872565b9695505050505050565b602081526000612093602083018461480f565b8281526040602082015260006114996040830184614872565b6020815260006120936020830184614872565b6040815260006149ae6040830185614872565b8281036020840152612a9d818561480f565b61ffff861681526001600160a01b038516602082015260a0604082018190526000906149ee90830186614872565b84151560608401528281036080840152614a088185614872565b98975050505050505050565b61ffff84168152604060208201526000612a9d604083018486614849565b61ffff86168152608060208201526000614a50608083018688614849565b6001600160401b0394909416604083015250606001529392505050565b61ffff8716815260c060208201526000614a8a60c0830188614872565b8281036040840152614a9c8188614872565b6001600160a01b0387811660608601528616608085015283810360a08501529050614ac78185614872565b9998505050505050505050565b61ffff85168152608060208201526000614af16080830186614872565b6001600160401b03851660408401528281036060840152614b128185614872565b979650505050505050565b61ffff8616815260a060208201526000614b3a60a0830187614872565b6001600160401b03861660408401528281036060840152614b5b8186614872565b90508281036080840152614a088185614872565b600061ffff808816835280871660208401525084604083015260806060830152614b12608083018486614849565b604051601f8201601f191681016001600160401b0381118282101715614bc557614bc5614d1d565b604052919050565b60006001600160401b03821115614be657614be6614d1d565b5060051b60200190565b60006001600160401b03821115614c0957614c09614d1d565b50601f01601f191660200190565b60008219821115614c2a57614c2a614d07565b500190565b600082614c4a57634e487b7160e01b81526012600452602481fd5b500490565b6000816000190483118215151615614c6957614c69614d07565b500290565b600082821015614c8057614c80614d07565b500390565b60005b83811015614ca0578181015183820152602001614c88565b838111156122e05750506000910152565b600181811c90821680614cc557607f821691505b60208210811415614ce657634e487b7160e01b600052602260045260246000fd5b50919050565b6000600019821415614d0057614d00614d07565b5060010190565b634e487b7160e01b600052601160045260246000fd5b634e487b7160e01b600052604160045260246000fd5b6001600160a01b038116811461187a57600080fd5b6001600160e01b03198116811461187a57600080fdfeddf252ad1be2c89b69c2b068fc378daa952ba7f163c4a11628f55a4df523b3efa2646970667358221220fcf8391c4f4f364754ffc69d0307ad29d427090f7c8a2f3fe79601dc78eebb5364736f6c63430008040033",
  "devdoc": {
    "kind": "dev",
    "methods": {
      "approve(address,uint256)": {
        "details": "Gives permission to `to` to transfer `tokenId` token to another account. The approval is cleared when the token is transferred. Only a single account can be approved at a time, so approving the zero address clears previous approvals. Requirements: - The caller must own the token or be an approved operator. - `tokenId` must exist. Emits an {Approval} event."
      },
      "balanceOf(address)": {
        "details": "Returns the number of tokens in `owner`'s account."
      },
      "estimateSendBatchFee(uint16,bytes,uint256[],bool,bytes)": {
        "details": "estimate send token `_tokenId` to (`_dstChainId`, `_toAddress`) _dstChainId - L0 defined chain id to send tokens too _toAddress - dynamic bytes array which contains the address to whom you are sending tokens to on the dstChain _tokenIds[] - token Ids to transfer _useZro - indicates to use zro to pay L0 fees _adapterParams - flexible bytes array to indicate messaging adapter services in L0"
      },
      "estimateSendFee(uint16,bytes,uint256,bool,bytes)": {
        "details": "estimate send token `_tokenId` to (`_dstChainId`, `_toAddress`) _dstChainId - L0 defined chain id to send tokens too _toAddress - dynamic bytes array which contains the address to whom you are sending tokens to on the dstChain _tokenId - token Id to transfer _useZro - indicates to use zro to pay L0 fees _adapterParams - flexible bytes array to indicate messaging adapter services in L0"
      },
      "getApproved(uint256)": {
        "details": "Returns the account approved for `tokenId` token. Requirements: - `tokenId` must exist."
      },
      "isApprovedForAll(address,address)": {
        "details": "Returns if the `operator` is allowed to manage all of the assets of `owner`. See {setApprovalForAll}."
      },
      "name()": {
        "details": "Returns the token collection name."
      },
      "owner()": {
        "details": "Returns the address of the current owner."
      },
      "ownerOf(uint256)": {
        "details": "Returns the owner of the `tokenId` token. Requirements: - `tokenId` must exist."
      },
      "renounceOwnership()": {
        "details": "Leaves the contract without owner. It will not be possible to call `onlyOwner` functions. Can only be called by the current owner. NOTE: Renouncing ownership will leave the contract without an owner, thereby disabling any functionality that is only available to the owner."
      },
      "royaltyInfo(uint256,uint256)": {
        "details": "Returns how much royalty is owed and to whom, based on a sale price that may be denominated in any unit of exchange. The royalty amount is denominated and should be paid in that same unit of exchange."
      },
      "safeTransferFrom(address,address,uint256)": {
        "details": "Equivalent to `safeTransferFrom(from, to, tokenId, '')`."
      },
      "safeTransferFrom(address,address,uint256,bytes)": {
        "details": "Safely transfers `tokenId` token from `from` to `to`. Requirements: - `from` cannot be the zero address. - `to` cannot be the zero address. - `tokenId` token must exist and be owned by `from`. - If the caller is not `from`, it must be approved to move this token by either {approve} or {setApprovalForAll}. - If `to` refers to a smart contract, it must implement {IERC721Receiver-onERC721Received}, which is called upon a safe transfer. Emits a {Transfer} event."
      },
      "sendBatchFrom(address,uint16,bytes,uint256[],address,address,bytes)": {
        "details": "send tokens `_tokenIds[]` to (`_dstChainId`, `_toAddress`) from `_from` `_toAddress` can be any size depending on the `dstChainId`. `_zroPaymentAddress` set to address(0x0) if not paying in ZRO (LayerZero Token) `_adapterParams` is a flexible bytes array to indicate messaging adapter services"
      },
      "sendFrom(address,uint16,bytes,uint256,address,address,bytes)": {
        "details": "send token `_tokenId` to (`_dstChainId`, `_toAddress`) from `_from` `_toAddress` can be any size depending on the `dstChainId`. `_zroPaymentAddress` set to address(0x0) if not paying in ZRO (LayerZero Token) `_adapterParams` is a flexible bytes array to indicate messaging adapter services"
      },
      "setApprovalForAll(address,bool)": {
        "details": "Approve or remove `operator` as an operator for the caller. Operators can call {transferFrom} or {safeTransferFrom} for any token owned by the caller. Requirements: - The `operator` cannot be the caller. Emits an {ApprovalForAll} event."
      },
      "setPrerevealTokenURI(string)": {
        "details": "pre-revealing image URI for all NFTs"
      },
      "setRevealed(bool)": {
        "details": "toggle for showing default Image or individual images."
      },
      "setTreasuryAddress(address)": {
        "details": "set address for treasury wallet"
      },
      "symbol()": {
        "details": "Returns the token collection symbol."
      },
      "tokenURI(uint256)": {
        "details": "Returns the Uniform Resource Identifier (URI) for `tokenId` token."
      },
      "totalSupply()": {
        "details": "Returns the total number of tokens in existence. Burned tokens will reduce the count. To get the total number of tokens minted, please see {_totalMinted}."
      },
      "transferFrom(address,address,uint256)": {
        "details": "Transfers `tokenId` from `from` to `to`. Requirements: - `from` cannot be the zero address. - `to` cannot be the zero address. - `tokenId` token must be owned by `from`. - If the caller is not `from`, it must be approved to move this token by either {approve} or {setApprovalForAll}. Emits a {Transfer} event."
      },
      "transferOwnership(address)": {
        "details": "Transfers ownership of the contract to a new account (`newOwner`). Can only be called by the current owner."
      },
      "treasuryMint(uint256)": {
        "details": "mint certain number of NFTs to a treasury wallet"
      }
    },
    "version": 1
  },
  "userdoc": {
    "errors": {
      "ApprovalCallerNotOwnerNorApproved()": [
        {
          "notice": "The caller must own the token or be an approved operator."
        }
      ],
      "ApprovalQueryForNonexistentToken()": [
        {
          "notice": "The token does not exist."
        }
      ],
      "BalanceQueryForZeroAddress()": [
        {
          "notice": "Cannot query the balance for the zero address."
        }
      ],
      "MintERC2309QuantityExceedsLimit()": [
        {
          "notice": "The `quantity` minted with ERC2309 exceeds the safety limit."
        }
      ],
      "MintToZeroAddress()": [
        {
          "notice": "Cannot mint to the zero address."
        }
      ],
      "MintZeroQuantity()": [
        {
          "notice": "The quantity of tokens minted must be more than zero."
        }
      ],
      "OwnerQueryForNonexistentToken()": [
        {
          "notice": "The token does not exist."
        }
      ],
      "OwnershipNotInitializedForExtraData()": [
        {
          "notice": "The `extraData` cannot be set on an unintialized ownership slot."
        }
      ],
      "TransferCallerNotOwnerNorApproved()": [
        {
          "notice": "The caller must own the token or be an approved operator."
        }
      ],
      "TransferFromIncorrectOwner()": [
        {
          "notice": "The token must be owned by `from`."
        }
      ],
      "TransferToNonERC721ReceiverImplementer()": [
        {
          "notice": "Cannot safely transfer to a contract that does not implement the ERC721Receiver interface."
        }
      ],
      "TransferToZeroAddress()": [
        {
          "notice": "Cannot transfer to the zero address."
        }
      ],
      "URIQueryForNonexistentToken()": [
        {
          "notice": "The token does not exist."
        }
      ]
    },
    "kind": "user",
    "methods": {},
    "version": 1
  },
  "storageLayout": {
    "storage": [
      {
        "astId": 2508,
        "contract": "contracts/DecaNFT.sol:DecaNFT",
        "label": "_owner",
        "offset": 0,
        "slot": "0",
        "type": "t_address"
      },
      {
        "astId": 455,
        "contract": "contracts/DecaNFT.sol:DecaNFT",
        "label": "trustedRemoteLookup",
        "offset": 0,
        "slot": "1",
        "type": "t_mapping(t_uint16,t_bytes_storage)"
      },
      {
        "astId": 461,
        "contract": "contracts/DecaNFT.sol:DecaNFT",
        "label": "minDstGasLookup",
        "offset": 0,
        "slot": "2",
        "type": "t_mapping(t_uint16,t_mapping(t_uint16,t_uint256))"
      },
      {
        "astId": 465,
        "contract": "contracts/DecaNFT.sol:DecaNFT",
        "label": "payloadSizeLimitLookup",
        "offset": 0,
        "slot": "3",
        "type": "t_mapping(t_uint16,t_uint256)"
      },
      {
        "astId": 467,
        "contract": "contracts/DecaNFT.sol:DecaNFT",
        "label": "precrime",
        "offset": 0,
        "slot": "4",
        "type": "t_address"
      },
      {
        "astId": 997,
        "contract": "contracts/DecaNFT.sol:DecaNFT",
        "label": "failedMessages",
        "offset": 0,
        "slot": "5",
        "type": "t_mapping(t_uint16,t_mapping(t_bytes_memory_ptr,t_mapping(t_uint64,t_bytes32)))"
      },
      {
        "astId": 2643,
        "contract": "contracts/DecaNFT.sol:DecaNFT",
        "label": "_status",
        "offset": 0,
        "slot": "6",
        "type": "t_uint256"
      },
      {
        "astId": 1567,
        "contract": "contracts/DecaNFT.sol:DecaNFT",
        "label": "minGasToTransferAndStore",
        "offset": 0,
        "slot": "7",
        "type": "t_uint256"
      },
      {
        "astId": 1571,
        "contract": "contracts/DecaNFT.sol:DecaNFT",
        "label": "dstChainIdToBatchLimit",
        "offset": 0,
        "slot": "8",
        "type": "t_mapping(t_uint16,t_uint256)"
      },
      {
        "astId": 1575,
        "contract": "contracts/DecaNFT.sol:DecaNFT",
        "label": "dstChainIdToTransferGas",
        "offset": 0,
        "slot": "9",
        "type": "t_mapping(t_uint16,t_uint256)"
      },
      {
        "astId": 1580,
        "contract": "contracts/DecaNFT.sol:DecaNFT",
        "label": "storedCredits",
        "offset": 0,
        "slot": "10",
        "type": "t_mapping(t_bytes32,t_struct(StoredCredit)1565_storage)"
      },
      {
        "astId": 3868,
        "contract": "contracts/DecaNFT.sol:DecaNFT",
        "label": "_currentIndex",
        "offset": 0,
        "slot": "11",
        "type": "t_uint256"
      },
      {
        "astId": 3870,
        "contract": "contracts/DecaNFT.sol:DecaNFT",
        "label": "_burnCounter",
        "offset": 0,
        "slot": "12",
        "type": "t_uint256"
      },
      {
        "astId": 3872,
        "contract": "contracts/DecaNFT.sol:DecaNFT",
        "label": "_name",
        "offset": 0,
        "slot": "13",
        "type": "t_string_storage"
      },
      {
        "astId": 3874,
        "contract": "contracts/DecaNFT.sol:DecaNFT",
        "label": "_symbol",
        "offset": 0,
        "slot": "14",
        "type": "t_string_storage"
      },
      {
        "astId": 3878,
        "contract": "contracts/DecaNFT.sol:DecaNFT",
        "label": "_packedOwnerships",
        "offset": 0,
        "slot": "15",
        "type": "t_mapping(t_uint256,t_uint256)"
      },
      {
        "astId": 3882,
        "contract": "contracts/DecaNFT.sol:DecaNFT",
        "label": "_packedAddressData",
        "offset": 0,
        "slot": "16",
        "type": "t_mapping(t_address,t_uint256)"
      },
      {
        "astId": 3887,
        "contract": "contracts/DecaNFT.sol:DecaNFT",
        "label": "_tokenApprovals",
        "offset": 0,
        "slot": "17",
        "type": "t_mapping(t_uint256,t_struct(TokenApprovalRef)3800_storage)"
      },
      {
        "astId": 3893,
        "contract": "contracts/DecaNFT.sol:DecaNFT",
        "label": "_operatorApprovals",
        "offset": 0,
        "slot": "18",
        "type": "t_mapping(t_address,t_mapping(t_address,t_bool))"
      },
      {
        "astId": 2848,
        "contract": "contracts/DecaNFT.sol:DecaNFT",
        "label": "_defaultRoyaltyInfo",
        "offset": 0,
        "slot": "19",
        "type": "t_struct(RoyaltyInfo)2845_storage"
      },
      {
        "astId": 2853,
        "contract": "contracts/DecaNFT.sol:DecaNFT",
        "label": "_tokenRoyaltyInfo",
        "offset": 0,
        "slot": "20",
        "type": "t_mapping(t_uint256,t_struct(RoyaltyInfo)2845_storage)"
      },
      {
        "astId": 3314,
        "contract": "contracts/DecaNFT.sol:DecaNFT",
        "label": "baseTokenURI",
        "offset": 0,
        "slot": "21",
        "type": "t_string_storage"
      },
      {
        "astId": 3316,
        "contract": "contracts/DecaNFT.sol:DecaNFT",
        "label": "prerevealTokenURI",
        "offset": 0,
        "slot": "22",
        "type": "t_string_storage"
      },
      {
        "astId": 3318,
        "contract": "contracts/DecaNFT.sol:DecaNFT",
        "label": "revealed",
        "offset": 0,
        "slot": "23",
        "type": "t_bool"
      },
      {
        "astId": 3320,
        "contract": "contracts/DecaNFT.sol:DecaNFT",
        "label": "minterOnly",
        "offset": 1,
        "slot": "23",
        "type": "t_bool"
      },
      {
        "astId": 3322,
        "contract": "contracts/DecaNFT.sol:DecaNFT",
        "label": "mintState",
        "offset": 2,
        "slot": "23",
        "type": "t_bool"
      },
      {
        "astId": 3325,
        "contract": "contracts/DecaNFT.sol:DecaNFT",
        "label": "mintLimit",
        "offset": 0,
        "slot": "24",
        "type": "t_uint256"
      },
      {
        "astId": 3331,
        "contract": "contracts/DecaNFT.sol:DecaNFT",
        "label": "treasuryMintedCount",
        "offset": 0,
        "slot": "25",
        "type": "t_uint256"
      },
      {
        "astId": 3336,
        "contract": "contracts/DecaNFT.sol:DecaNFT",
        "label": "treasuryAddress",
        "offset": 0,
        "slot": "26",
        "type": "t_address"
      },
      {
        "astId": 3340,
        "contract": "contracts/DecaNFT.sol:DecaNFT",
        "label": "minters",
        "offset": 0,
        "slot": "27",
        "type": "t_mapping(t_address,t_bool)"
      }
    ],
    "types": {
      "t_address": {
        "encoding": "inplace",
        "label": "address",
        "numberOfBytes": "20"
      },
      "t_bool": {
        "encoding": "inplace",
        "label": "bool",
        "numberOfBytes": "1"
      },
      "t_bytes32": {
        "encoding": "inplace",
        "label": "bytes32",
        "numberOfBytes": "32"
      },
      "t_bytes_memory_ptr": {
        "encoding": "bytes",
        "label": "bytes",
        "numberOfBytes": "32"
      },
      "t_bytes_storage": {
        "encoding": "bytes",
        "label": "bytes",
        "numberOfBytes": "32"
      },
      "t_mapping(t_address,t_bool)": {
        "encoding": "mapping",
        "key": "t_address",
        "label": "mapping(address => bool)",
        "numberOfBytes": "32",
        "value": "t_bool"
      },
      "t_mapping(t_address,t_mapping(t_address,t_bool))": {
        "encoding": "mapping",
        "key": "t_address",
        "label": "mapping(address => mapping(address => bool))",
        "numberOfBytes": "32",
        "value": "t_mapping(t_address,t_bool)"
      },
      "t_mapping(t_address,t_uint256)": {
        "encoding": "mapping",
        "key": "t_address",
        "label": "mapping(address => uint256)",
        "numberOfBytes": "32",
        "value": "t_uint256"
      },
      "t_mapping(t_bytes32,t_struct(StoredCredit)1565_storage)": {
        "encoding": "mapping",
        "key": "t_bytes32",
        "label": "mapping(bytes32 => struct ONFT721Core.StoredCredit)",
        "numberOfBytes": "32",
        "value": "t_struct(StoredCredit)1565_storage"
      },
      "t_mapping(t_bytes_memory_ptr,t_mapping(t_uint64,t_bytes32))": {
        "encoding": "mapping",
        "key": "t_bytes_memory_ptr",
        "label": "mapping(bytes => mapping(uint64 => bytes32))",
        "numberOfBytes": "32",
        "value": "t_mapping(t_uint64,t_bytes32)"
      },
      "t_mapping(t_uint16,t_bytes_storage)": {
        "encoding": "mapping",
        "key": "t_uint16",
        "label": "mapping(uint16 => bytes)",
        "numberOfBytes": "32",
        "value": "t_bytes_storage"
      },
      "t_mapping(t_uint16,t_mapping(t_bytes_memory_ptr,t_mapping(t_uint64,t_bytes32)))": {
        "encoding": "mapping",
        "key": "t_uint16",
        "label": "mapping(uint16 => mapping(bytes => mapping(uint64 => bytes32)))",
        "numberOfBytes": "32",
        "value": "t_mapping(t_bytes_memory_ptr,t_mapping(t_uint64,t_bytes32))"
      },
      "t_mapping(t_uint16,t_mapping(t_uint16,t_uint256))": {
        "encoding": "mapping",
        "key": "t_uint16",
        "label": "mapping(uint16 => mapping(uint16 => uint256))",
        "numberOfBytes": "32",
        "value": "t_mapping(t_uint16,t_uint256)"
      },
      "t_mapping(t_uint16,t_uint256)": {
        "encoding": "mapping",
        "key": "t_uint16",
        "label": "mapping(uint16 => uint256)",
        "numberOfBytes": "32",
        "value": "t_uint256"
      },
      "t_mapping(t_uint256,t_struct(RoyaltyInfo)2845_storage)": {
        "encoding": "mapping",
        "key": "t_uint256",
        "label": "mapping(uint256 => struct ERC2981.RoyaltyInfo)",
        "numberOfBytes": "32",
        "value": "t_struct(RoyaltyInfo)2845_storage"
      },
      "t_mapping(t_uint256,t_struct(TokenApprovalRef)3800_storage)": {
        "encoding": "mapping",
        "key": "t_uint256",
        "label": "mapping(uint256 => struct ERC721A.TokenApprovalRef)",
        "numberOfBytes": "32",
        "value": "t_struct(TokenApprovalRef)3800_storage"
      },
      "t_mapping(t_uint256,t_uint256)": {
        "encoding": "mapping",
        "key": "t_uint256",
        "label": "mapping(uint256 => uint256)",
        "numberOfBytes": "32",
        "value": "t_uint256"
      },
      "t_mapping(t_uint64,t_bytes32)": {
        "encoding": "mapping",
        "key": "t_uint64",
        "label": "mapping(uint64 => bytes32)",
        "numberOfBytes": "32",
        "value": "t_bytes32"
      },
      "t_string_storage": {
        "encoding": "bytes",
        "label": "string",
        "numberOfBytes": "32"
      },
      "t_struct(RoyaltyInfo)2845_storage": {
        "encoding": "inplace",
        "label": "struct ERC2981.RoyaltyInfo",
        "members": [
          {
            "astId": 2842,
            "contract": "contracts/DecaNFT.sol:DecaNFT",
            "label": "receiver",
            "offset": 0,
            "slot": "0",
            "type": "t_address"
          },
          {
            "astId": 2844,
            "contract": "contracts/DecaNFT.sol:DecaNFT",
            "label": "royaltyFraction",
            "offset": 20,
            "slot": "0",
            "type": "t_uint96"
          }
        ],
        "numberOfBytes": "32"
      },
      "t_struct(StoredCredit)1565_storage": {
        "encoding": "inplace",
        "label": "struct ONFT721Core.StoredCredit",
        "members": [
          {
            "astId": 1558,
            "contract": "contracts/DecaNFT.sol:DecaNFT",
            "label": "srcChainId",
            "offset": 0,
            "slot": "0",
            "type": "t_uint16"
          },
          {
            "astId": 1560,
            "contract": "contracts/DecaNFT.sol:DecaNFT",
            "label": "toAddress",
            "offset": 2,
            "slot": "0",
            "type": "t_address"
          },
          {
            "astId": 1562,
            "contract": "contracts/DecaNFT.sol:DecaNFT",
            "label": "index",
            "offset": 0,
            "slot": "1",
            "type": "t_uint256"
          },
          {
            "astId": 1564,
            "contract": "contracts/DecaNFT.sol:DecaNFT",
            "label": "creditsRemain",
            "offset": 0,
            "slot": "2",
            "type": "t_bool"
          }
        ],
        "numberOfBytes": "96"
      },
      "t_struct(TokenApprovalRef)3800_storage": {
        "encoding": "inplace",
        "label": "struct ERC721A.TokenApprovalRef",
        "members": [
          {
            "astId": 3799,
            "contract": "contracts/DecaNFT.sol:DecaNFT",
            "label": "value",
            "offset": 0,
            "slot": "0",
            "type": "t_address"
          }
        ],
        "numberOfBytes": "32"
      },
      "t_uint16": {
        "encoding": "inplace",
        "label": "uint16",
        "numberOfBytes": "2"
      },
      "t_uint256": {
        "encoding": "inplace",
        "label": "uint256",
        "numberOfBytes": "32"
      },
      "t_uint64": {
        "encoding": "inplace",
        "label": "uint64",
        "numberOfBytes": "8"
      },
      "t_uint96": {
        "encoding": "inplace",
        "label": "uint96",
        "numberOfBytes": "12"
      }
    }
  }
}