{
  "address": "0x5d9d40D10D8b9ef9d9D9e421f3A115Db7E2Dc8FF",
  "abi": [
    {
      "inputs": [
        {
          "internalType": "string",
          "name": "baseURI",
          "type": "string"
        },
        {
          "internalType": "string",
          "name": "_name",
          "type": "string"
        },
        {
          "internalType": "string",
          "name": "_symbol",
          "type": "string"
        },
        {
          "internalType": "uint256",
          "name": "_minGasToTransfer",
          "type": "uint256"
        },
        {
          "internalType": "address",
          "name": "_lzEndpoint",
          "type": "address"
        }
      ],
      "stateMutability": "nonpayable",
      "type": "constructor"
    },
    {
      "inputs": [
        {
          "internalType": "address",
          "name": "minter",
          "type": "address"
        }
      ],
      "name": "InvalidMinter",
      "type": "error"
    },
    {
      "inputs": [],
      "name": "MintLimitExceeded",
      "type": "error"
    },
    {
      "inputs": [],
      "name": "MintNotAvailable",
      "type": "error"
    },
    {
      "inputs": [],
      "name": "ReachedMaxTotalSupply",
      "type": "error"
    },
    {
      "inputs": [],
      "name": "ReachedMaxTreasurySupply",
      "type": "error"
    },
    {
      "anonymous": false,
      "inputs": [
        {
          "indexed": true,
          "internalType": "address",
          "name": "owner",
          "type": "address"
        },
        {
          "indexed": true,
          "internalType": "address",
          "name": "approved",
          "type": "address"
        },
        {
          "indexed": true,
          "internalType": "uint256",
          "name": "tokenId",
          "type": "uint256"
        }
      ],
      "name": "Approval",
      "type": "event"
    },
    {
      "anonymous": false,
      "inputs": [
        {
          "indexed": true,
          "internalType": "address",
          "name": "owner",
          "type": "address"
        },
        {
          "indexed": true,
          "internalType": "address",
          "name": "operator",
          "type": "address"
        },
        {
          "indexed": false,
          "internalType": "bool",
          "name": "approved",
          "type": "bool"
        }
      ],
      "name": "ApprovalForAll",
      "type": "event"
    },
    {
      "anonymous": false,
      "inputs": [
        {
          "indexed": false,
          "internalType": "bytes32",
          "name": "_hashedPayload",
          "type": "bytes32"
        }
      ],
      "name": "CreditCleared",
      "type": "event"
    },
    {
      "anonymous": false,
      "inputs": [
        {
          "indexed": false,
          "internalType": "bytes32",
          "name": "_hashedPayload",
          "type": "bytes32"
        },
        {
          "indexed": false,
          "internalType": "bytes",
          "name": "_payload",
          "type": "bytes"
        }
      ],
      "name": "CreditStored",
      "type": "event"
    },
    {
      "anonymous": false,
      "inputs": [
        {
          "indexed": false,
          "internalType": "uint16",
          "name": "_srcChainId",
          "type": "uint16"
        },
        {
          "indexed": false,
          "internalType": "bytes",
          "name": "_srcAddress",
          "type": "bytes"
        },
        {
          "indexed": false,
          "internalType": "uint64",
          "name": "_nonce",
          "type": "uint64"
        },
        {
          "indexed": false,
          "internalType": "bytes",
          "name": "_payload",
          "type": "bytes"
        },
        {
          "indexed": false,
          "internalType": "bytes",
          "name": "_reason",
          "type": "bytes"
        }
      ],
      "name": "MessageFailed",
      "type": "event"
    },
    {
      "anonymous": false,
      "inputs": [
        {
          "indexed": false,
          "internalType": "bool",
          "name": "state",
          "type": "bool"
        }
      ],
      "name": "MintStateChanged",
      "type": "event"
    },
    {
      "anonymous": false,
      "inputs": [
        {
          "indexed": true,
          "internalType": "address",
          "name": "previousOwner",
          "type": "address"
        },
        {
          "indexed": true,
          "internalType": "address",
          "name": "newOwner",
          "type": "address"
        }
      ],
      "name": "OwnershipTransferred",
      "type": "event"
    },
    {
      "anonymous": false,
      "inputs": [
        {
          "indexed": true,
          "internalType": "uint16",
          "name": "_srcChainId",
          "type": "uint16"
        },
        {
          "indexed": true,
          "internalType": "bytes",
          "name": "_srcAddress",
          "type": "bytes"
        },
        {
          "indexed": true,
          "internalType": "address",
          "name": "_toAddress",
          "type": "address"
        },
        {
          "indexed": false,
          "internalType": "uint256[]",
          "name": "_tokenIds",
          "type": "uint256[]"
        }
      ],
      "name": "ReceiveFromChain",
      "type": "event"
    },
    {
      "anonymous": false,
      "inputs": [
        {
          "indexed": false,
          "internalType": "uint16",
          "name": "_srcChainId",
          "type": "uint16"
        },
        {
          "indexed": false,
          "internalType": "bytes",
          "name": "_srcAddress",
          "type": "bytes"
        },
        {
          "indexed": false,
          "internalType": "uint64",
          "name": "_nonce",
          "type": "uint64"
        },
        {
          "indexed": false,
          "internalType": "bytes32",
          "name": "_payloadHash",
          "type": "bytes32"
        }
      ],
      "name": "RetryMessageSuccess",
      "type": "event"
    },
    {
      "anonymous": false,
      "inputs": [
        {
          "indexed": true,
          "internalType": "uint16",
          "name": "_dstChainId",
          "type": "uint16"
        },
        {
          "indexed": true,
          "internalType": "address",
          "name": "_from",
          "type": "address"
        },
        {
          "indexed": true,
          "internalType": "bytes",
          "name": "_toAddress",
          "type": "bytes"
        },
        {
          "indexed": false,
          "internalType": "uint256[]",
          "name": "_tokenIds",
          "type": "uint256[]"
        }
      ],
      "name": "SendToChain",
      "type": "event"
    },
    {
      "anonymous": false,
      "inputs": [
        {
          "indexed": false,
          "internalType": "uint16",
          "name": "_dstChainId",
          "type": "uint16"
        },
        {
          "indexed": false,
          "internalType": "uint256",
          "name": "_dstChainIdToBatchLimit",
          "type": "uint256"
        }
      ],
      "name": "SetDstChainIdToBatchLimit",
      "type": "event"
    },
    {
      "anonymous": false,
      "inputs": [
        {
          "indexed": false,
          "internalType": "uint16",
          "name": "_dstChainId",
          "type": "uint16"
        },
        {
          "indexed": false,
          "internalType": "uint256",
          "name": "_dstChainIdToTransferGas",
          "type": "uint256"
        }
      ],
      "name": "SetDstChainIdToTransferGas",
      "type": "event"
    },
    {
      "anonymous": false,
      "inputs": [
        {
          "indexed": false,
          "internalType": "uint16",
          "name": "_dstChainId",
          "type": "uint16"
        },
        {
          "indexed": false,
          "internalType": "uint16",
          "name": "_type",
          "type": "uint16"
        },
        {
          "indexed": false,
          "internalType": "uint256",
          "name": "_minDstGas",
          "type": "uint256"
        }
      ],
      "name": "SetMinDstGas",
      "type": "event"
    },
    {
      "anonymous": false,
      "inputs": [
        {
          "indexed": false,
          "internalType": "uint256",
          "name": "_minGasToTransferAndStore",
          "type": "uint256"
        }
      ],
      "name": "SetMinGasToTransferAndStore",
      "type": "event"
    },
    {
      "anonymous": false,
      "inputs": [
        {
          "indexed": false,
          "internalType": "address",
          "name": "precrime",
          "type": "address"
        }
      ],
      "name": "SetPrecrime",
      "type": "event"
    },
    {
      "anonymous": false,
      "inputs": [
        {
          "indexed": false,
          "internalType": "uint16",
          "name": "_remoteChainId",
          "type": "uint16"
        },
        {
          "indexed": false,
          "internalType": "bytes",
          "name": "_path",
          "type": "bytes"
        }
      ],
      "name": "SetTrustedRemote",
      "type": "event"
    },
    {
      "anonymous": false,
      "inputs": [
        {
          "indexed": false,
          "internalType": "uint16",
          "name": "_remoteChainId",
          "type": "uint16"
        },
        {
          "indexed": false,
          "internalType": "bytes",
          "name": "_remoteAddress",
          "type": "bytes"
        }
      ],
      "name": "SetTrustedRemoteAddress",
      "type": "event"
    },
    {
      "anonymous": false,
      "inputs": [
        {
          "indexed": true,
          "internalType": "address",
          "name": "from",
          "type": "address"
        },
        {
          "indexed": true,
          "internalType": "address",
          "name": "to",
          "type": "address"
        },
        {
          "indexed": true,
          "internalType": "uint256",
          "name": "tokenId",
          "type": "uint256"
        }
      ],
      "name": "Transfer",
      "type": "event"
    },
    {
      "anonymous": false,
      "inputs": [
        {
          "indexed": true,
          "internalType": "address",
          "name": "recipient",
          "type": "address"
        },
        {
          "indexed": false,
          "internalType": "uint256",
          "name": "quantity",
          "type": "uint256"
        },
        {
          "indexed": false,
          "internalType": "uint256",
          "name": "fromIndex",
          "type": "uint256"
        }
      ],
      "name": "TreasuryMint",
      "type": "event"
    },
    {
      "inputs": [],
      "name": "DEFAULT_PAYLOAD_SIZE_LIMIT",
      "outputs": [
        {
          "internalType": "uint256",
          "name": "",
          "type": "uint256"
        }
      ],
      "stateMutability": "view",
      "type": "function"
    },
    {
      "inputs": [],
      "name": "FUNCTION_TYPE_SEND",
      "outputs": [
        {
          "internalType": "uint16",
          "name": "",
          "type": "uint16"
        }
      ],
      "stateMutability": "view",
      "type": "function"
    },
    {
      "inputs": [],
      "name": "MAX_ELEMENTS",
      "outputs": [
        {
          "internalType": "uint256",
          "name": "",
          "type": "uint256"
        }
      ],
      "stateMutability": "view",
      "type": "function"
    },
    {
      "inputs": [
        {
          "internalType": "address",
          "name": "minterAddress",
          "type": "address"
        }
      ],
      "name": "addToWhiteList",
      "outputs": [],
      "stateMutability": "nonpayable",
      "type": "function"
    },
    {
      "inputs": [
        {
          "internalType": "address",
          "name": "to",
          "type": "address"
        },
        {
          "internalType": "uint256",
          "name": "tokenId",
          "type": "uint256"
        }
      ],
      "name": "approve",
      "outputs": [],
      "stateMutability": "nonpayable",
      "type": "function"
    },
    {
      "inputs": [
        {
          "internalType": "address",
          "name": "owner",
          "type": "address"
        }
      ],
      "name": "balanceOf",
      "outputs": [
        {
          "internalType": "uint256",
          "name": "",
          "type": "uint256"
        }
      ],
      "stateMutability": "view",
      "type": "function"
    },
    {
      "inputs": [],
      "name": "baseTokenURI",
      "outputs": [
        {
          "internalType": "string",
          "name": "",
          "type": "string"
        }
      ],
      "stateMutability": "view",
      "type": "function"
    },
    {
      "inputs": [
        {
          "internalType": "uint256",
          "name": "tokenId",
          "type": "uint256"
        }
      ],
      "name": "burn",
      "outputs": [],
      "stateMutability": "nonpayable",
      "type": "function"
    },
    {
      "inputs": [
        {
          "internalType": "bytes",
          "name": "_payload",
          "type": "bytes"
        }
      ],
      "name": "clearCredits",
      "outputs": [],
      "stateMutability": "nonpayable",
      "type": "function"
    },
    {
      "inputs": [
        {
          "internalType": "uint16",
          "name": "",
          "type": "uint16"
        }
      ],
      "name": "dstChainIdToBatchLimit",
      "outputs": [
        {
          "internalType": "uint256",
          "name": "",
          "type": "uint256"
        }
      ],
      "stateMutability": "view",
      "type": "function"
    },
    {
      "inputs": [
        {
          "internalType": "uint16",
          "name": "",
          "type": "uint16"
        }
      ],
      "name": "dstChainIdToTransferGas",
      "outputs": [
        {
          "internalType": "uint256",
          "name": "",
          "type": "uint256"
        }
      ],
      "stateMutability": "view",
      "type": "function"
    },
    {
      "inputs": [
        {
          "internalType": "bool",
          "name": "_whiteListingPeriod",
          "type": "bool"
        }
      ],
      "name": "enableWhiteListing",
      "outputs": [],
      "stateMutability": "nonpayable",
      "type": "function"
    },
    {
      "inputs": [
        {
          "internalType": "uint16",
          "name": "_dstChainId",
          "type": "uint16"
        },
        {
          "internalType": "bytes",
          "name": "_toAddress",
          "type": "bytes"
        },
        {
          "internalType": "uint256[]",
          "name": "_tokenIds",
          "type": "uint256[]"
        },
        {
          "internalType": "bool",
          "name": "_useZro",
          "type": "bool"
        },
        {
          "internalType": "bytes",
          "name": "_adapterParams",
          "type": "bytes"
        }
      ],
      "name": "estimateSendBatchFee",
      "outputs": [
        {
          "internalType": "uint256",
          "name": "nativeFee",
          "type": "uint256"
        },
        {
          "internalType": "uint256",
          "name": "zroFee",
          "type": "uint256"
        }
      ],
      "stateMutability": "view",
      "type": "function"
    },
    {
      "inputs": [
        {
          "internalType": "uint16",
          "name": "_dstChainId",
          "type": "uint16"
        },
        {
          "internalType": "bytes",
          "name": "_toAddress",
          "type": "bytes"
        },
        {
          "internalType": "uint256",
          "name": "_tokenId",
          "type": "uint256"
        },
        {
          "internalType": "bool",
          "name": "_useZro",
          "type": "bool"
        },
        {
          "internalType": "bytes",
          "name": "_adapterParams",
          "type": "bytes"
        }
      ],
      "name": "estimateSendFee",
      "outputs": [
        {
          "internalType": "uint256",
          "name": "nativeFee",
          "type": "uint256"
        },
        {
          "internalType": "uint256",
          "name": "zroFee",
          "type": "uint256"
        }
      ],
      "stateMutability": "view",
      "type": "function"
    },
    {
      "inputs": [
        {
          "internalType": "uint16",
          "name": "",
          "type": "uint16"
        },
        {
          "internalType": "bytes",
          "name": "",
          "type": "bytes"
        },
        {
          "internalType": "uint64",
          "name": "",
          "type": "uint64"
        }
      ],
      "name": "failedMessages",
      "outputs": [
        {
          "internalType": "bytes32",
          "name": "",
          "type": "bytes32"
        }
      ],
      "stateMutability": "view",
      "type": "function"
    },
    {
      "inputs": [
        {
          "internalType": "uint16",
          "name": "_srcChainId",
          "type": "uint16"
        },
        {
          "internalType": "bytes",
          "name": "_srcAddress",
          "type": "bytes"
        }
      ],
      "name": "forceResumeReceive",
      "outputs": [],
      "stateMutability": "nonpayable",
      "type": "function"
    },
    {
      "inputs": [
        {
          "internalType": "uint256",
          "name": "tokenId",
          "type": "uint256"
        }
      ],
      "name": "getApproved",
      "outputs": [
        {
          "internalType": "address",
          "name": "",
          "type": "address"
        }
      ],
      "stateMutability": "view",
      "type": "function"
    },
    {
      "inputs": [
        {
          "internalType": "uint16",
          "name": "_version",
          "type": "uint16"
        },
        {
          "internalType": "uint16",
          "name": "_chainId",
          "type": "uint16"
        },
        {
          "internalType": "address",
          "name": "",
          "type": "address"
        },
        {
          "internalType": "uint256",
          "name": "_configType",
          "type": "uint256"
        }
      ],
      "name": "getConfig",
      "outputs": [
        {
          "internalType": "bytes",
          "name": "",
          "type": "bytes"
        }
      ],
      "stateMutability": "view",
      "type": "function"
    },
    {
      "inputs": [
        {
          "internalType": "uint16",
          "name": "_remoteChainId",
          "type": "uint16"
        }
      ],
      "name": "getTrustedRemoteAddress",
      "outputs": [
        {
          "internalType": "bytes",
          "name": "",
          "type": "bytes"
        }
      ],
      "stateMutability": "view",
      "type": "function"
    },
    {
      "inputs": [
        {
          "internalType": "address",
          "name": "owner",
          "type": "address"
        },
        {
          "internalType": "address",
          "name": "operator",
          "type": "address"
        }
      ],
      "name": "isApprovedForAll",
      "outputs": [
        {
          "internalType": "bool",
          "name": "",
          "type": "bool"
        }
      ],
      "stateMutability": "view",
      "type": "function"
    },
    {
      "inputs": [
        {
          "internalType": "uint16",
          "name": "_srcChainId",
          "type": "uint16"
        },
        {
          "internalType": "bytes",
          "name": "_srcAddress",
          "type": "bytes"
        }
      ],
      "name": "isTrustedRemote",
      "outputs": [
        {
          "internalType": "bool",
          "name": "",
          "type": "bool"
        }
      ],
      "stateMutability": "view",
      "type": "function"
    },
    {
      "inputs": [],
      "name": "lzEndpoint",
      "outputs": [
        {
          "internalType": "contract ILayerZeroEndpoint",
          "name": "",
          "type": "address"
        }
      ],
      "stateMutability": "view",
      "type": "function"
    },
    {
      "inputs": [
        {
          "internalType": "uint16",
          "name": "_srcChainId",
          "type": "uint16"
        },
        {
          "internalType": "bytes",
          "name": "_srcAddress",
          "type": "bytes"
        },
        {
          "internalType": "uint64",
          "name": "_nonce",
          "type": "uint64"
        },
        {
          "internalType": "bytes",
          "name": "_payload",
          "type": "bytes"
        }
      ],
      "name": "lzReceive",
      "outputs": [],
      "stateMutability": "nonpayable",
      "type": "function"
    },
    {
      "inputs": [
        {
          "internalType": "uint16",
          "name": "",
          "type": "uint16"
        },
        {
          "internalType": "uint16",
          "name": "",
          "type": "uint16"
        }
      ],
      "name": "minDstGasLookup",
      "outputs": [
        {
          "internalType": "uint256",
          "name": "",
          "type": "uint256"
        }
      ],
      "stateMutability": "view",
      "type": "function"
    },
    {
      "inputs": [],
      "name": "minGasToTransferAndStore",
      "outputs": [
        {
          "internalType": "uint256",
          "name": "",
          "type": "uint256"
        }
      ],
      "stateMutability": "view",
      "type": "function"
    },
    {
      "inputs": [
        {
          "internalType": "uint256",
          "name": "id",
          "type": "uint256"
        }
      ],
      "name": "mint",
      "outputs": [],
      "stateMutability": "nonpayable",
      "type": "function"
    },
    {
      "inputs": [],
      "name": "mintLimit",
      "outputs": [
        {
          "internalType": "uint256",
          "name": "",
          "type": "uint256"
        }
      ],
      "stateMutability": "view",
      "type": "function"
    },
    {
      "inputs": [],
      "name": "mintState",
      "outputs": [
        {
          "internalType": "bool",
          "name": "",
          "type": "bool"
        }
      ],
      "stateMutability": "view",
      "type": "function"
    },
    {
      "inputs": [
        {
          "internalType": "address",
          "name": "",
          "type": "address"
        }
      ],
      "name": "minters",
      "outputs": [
        {
          "internalType": "bool",
          "name": "",
          "type": "bool"
        }
      ],
      "stateMutability": "view",
      "type": "function"
    },
    {
      "inputs": [],
      "name": "name",
      "outputs": [
        {
          "internalType": "string",
          "name": "",
          "type": "string"
        }
      ],
      "stateMutability": "view",
      "type": "function"
    },
    {
      "inputs": [
        {
          "internalType": "uint16",
          "name": "_srcChainId",
          "type": "uint16"
        },
        {
          "internalType": "bytes",
          "name": "_srcAddress",
          "type": "bytes"
        },
        {
          "internalType": "uint64",
          "name": "_nonce",
          "type": "uint64"
        },
        {
          "internalType": "bytes",
          "name": "_payload",
          "type": "bytes"
        }
      ],
      "name": "nonblockingLzReceive",
      "outputs": [],
      "stateMutability": "nonpayable",
      "type": "function"
    },
    {
      "inputs": [],
      "name": "owner",
      "outputs": [
        {
          "internalType": "address",
          "name": "",
          "type": "address"
        }
      ],
      "stateMutability": "view",
      "type": "function"
    },
    {
      "inputs": [
        {
          "internalType": "uint256",
          "name": "tokenId",
          "type": "uint256"
        }
      ],
      "name": "ownerOf",
      "outputs": [
        {
          "internalType": "address",
          "name": "",
          "type": "address"
        }
      ],
      "stateMutability": "view",
      "type": "function"
    },
    {
      "inputs": [
        {
          "internalType": "uint16",
          "name": "",
          "type": "uint16"
        }
      ],
      "name": "payloadSizeLimitLookup",
      "outputs": [
        {
          "internalType": "uint256",
          "name": "",
          "type": "uint256"
        }
      ],
      "stateMutability": "view",
      "type": "function"
    },
    {
      "inputs": [],
      "name": "precrime",
      "outputs": [
        {
          "internalType": "address",
          "name": "",
          "type": "address"
        }
      ],
      "stateMutability": "view",
      "type": "function"
    },
    {
      "inputs": [],
      "name": "prerevealTokenURI",
      "outputs": [
        {
          "internalType": "string",
          "name": "",
          "type": "string"
        }
      ],
      "stateMutability": "view",
      "type": "function"
    },
    {
      "inputs": [
        {
          "internalType": "address",
          "name": "minterAddress",
          "type": "address"
        }
      ],
      "name": "removeFromWhiteList",
      "outputs": [],
      "stateMutability": "nonpayable",
      "type": "function"
    },
    {
      "inputs": [],
      "name": "renounceOwnership",
      "outputs": [],
      "stateMutability": "nonpayable",
      "type": "function"
    },
    {
      "inputs": [
        {
          "internalType": "uint16",
          "name": "_srcChainId",
          "type": "uint16"
        },
        {
          "internalType": "bytes",
          "name": "_srcAddress",
          "type": "bytes"
        },
        {
          "internalType": "uint64",
          "name": "_nonce",
          "type": "uint64"
        },
        {
          "internalType": "bytes",
          "name": "_payload",
          "type": "bytes"
        }
      ],
      "name": "retryMessage",
      "outputs": [],
      "stateMutability": "payable",
      "type": "function"
    },
    {
      "inputs": [],
      "name": "revealed",
      "outputs": [
        {
          "internalType": "bool",
          "name": "",
          "type": "bool"
        }
      ],
      "stateMutability": "view",
      "type": "function"
    },
    {
      "inputs": [
        {
          "internalType": "uint256",
          "name": "tokenId",
          "type": "uint256"
        },
        {
          "internalType": "uint256",
          "name": "salePrice",
          "type": "uint256"
        }
      ],
      "name": "royaltyInfo",
      "outputs": [
        {
          "internalType": "address",
          "name": "",
          "type": "address"
        },
        {
          "internalType": "uint256",
          "name": "",
          "type": "uint256"
        }
      ],
      "stateMutability": "view",
      "type": "function"
    },
    {
      "inputs": [
        {
          "internalType": "address",
          "name": "from",
          "type": "address"
        },
        {
          "internalType": "address",
          "name": "to",
          "type": "address"
        },
        {
          "internalType": "uint256",
          "name": "tokenId",
          "type": "uint256"
        }
      ],
      "name": "safeTransferFrom",
      "outputs": [],
      "stateMutability": "nonpayable",
      "type": "function"
    },
    {
      "inputs": [
        {
          "internalType": "address",
          "name": "from",
          "type": "address"
        },
        {
          "internalType": "address",
          "name": "to",
          "type": "address"
        },
        {
          "internalType": "uint256",
          "name": "tokenId",
          "type": "uint256"
        },
        {
          "internalType": "bytes",
          "name": "data",
          "type": "bytes"
        }
      ],
      "name": "safeTransferFrom",
      "outputs": [],
      "stateMutability": "nonpayable",
      "type": "function"
    },
    {
      "inputs": [
        {
          "internalType": "address",
          "name": "_from",
          "type": "address"
        },
        {
          "internalType": "uint16",
          "name": "_dstChainId",
          "type": "uint16"
        },
        {
          "internalType": "bytes",
          "name": "_toAddress",
          "type": "bytes"
        },
        {
          "internalType": "uint256[]",
          "name": "_tokenIds",
          "type": "uint256[]"
        },
        {
          "internalType": "address payable",
          "name": "_refundAddress",
          "type": "address"
        },
        {
          "internalType": "address",
          "name": "_zroPaymentAddress",
          "type": "address"
        },
        {
          "internalType": "bytes",
          "name": "_adapterParams",
          "type": "bytes"
        }
      ],
      "name": "sendBatchFrom",
      "outputs": [],
      "stateMutability": "payable",
      "type": "function"
    },
    {
      "inputs": [
        {
          "internalType": "address",
          "name": "_from",
          "type": "address"
        },
        {
          "internalType": "uint16",
          "name": "_dstChainId",
          "type": "uint16"
        },
        {
          "internalType": "bytes",
          "name": "_toAddress",
          "type": "bytes"
        },
        {
          "internalType": "uint256",
          "name": "_tokenId",
          "type": "uint256"
        },
        {
          "internalType": "address payable",
          "name": "_refundAddress",
          "type": "address"
        },
        {
          "internalType": "address",
          "name": "_zroPaymentAddress",
          "type": "address"
        },
        {
          "internalType": "bytes",
          "name": "_adapterParams",
          "type": "bytes"
        }
      ],
      "name": "sendFrom",
      "outputs": [],
      "stateMutability": "payable",
      "type": "function"
    },
    {
      "inputs": [
        {
          "internalType": "address",
          "name": "operator",
          "type": "address"
        },
        {
          "internalType": "bool",
          "name": "approved",
          "type": "bool"
        }
      ],
      "name": "setApprovalForAll",
      "outputs": [],
      "stateMutability": "nonpayable",
      "type": "function"
    },
    {
      "inputs": [
        {
          "internalType": "string",
          "name": "baseURI",
          "type": "string"
        }
      ],
      "name": "setBaseURI",
      "outputs": [],
      "stateMutability": "nonpayable",
      "type": "function"
    },
    {
      "inputs": [
        {
          "internalType": "uint16",
          "name": "_version",
          "type": "uint16"
        },
        {
          "internalType": "uint16",
          "name": "_chainId",
          "type": "uint16"
        },
        {
          "internalType": "uint256",
          "name": "_configType",
          "type": "uint256"
        },
        {
          "internalType": "bytes",
          "name": "_config",
          "type": "bytes"
        }
      ],
      "name": "setConfig",
      "outputs": [],
      "stateMutability": "nonpayable",
      "type": "function"
    },
    {
      "inputs": [
        {
          "internalType": "address",
          "name": "receiver",
          "type": "address"
        },
        {
          "internalType": "uint96",
          "name": "feeNumerator",
          "type": "uint96"
        }
      ],
      "name": "setDefaultRoyalty",
      "outputs": [],
      "stateMutability": "nonpayable",
      "type": "function"
    },
    {
      "inputs": [
        {
          "internalType": "uint16",
          "name": "_dstChainId",
          "type": "uint16"
        },
        {
          "internalType": "uint256",
          "name": "_dstChainIdToBatchLimit",
          "type": "uint256"
        }
      ],
      "name": "setDstChainIdToBatchLimit",
      "outputs": [],
      "stateMutability": "nonpayable",
      "type": "function"
    },
    {
      "inputs": [
        {
          "internalType": "uint16",
          "name": "_dstChainId",
          "type": "uint16"
        },
        {
          "internalType": "uint256",
          "name": "_dstChainIdToTransferGas",
          "type": "uint256"
        }
      ],
      "name": "setDstChainIdToTransferGas",
      "outputs": [],
      "stateMutability": "nonpayable",
      "type": "function"
    },
    {
      "inputs": [
        {
          "internalType": "uint16",
          "name": "_dstChainId",
          "type": "uint16"
        },
        {
          "internalType": "uint16",
          "name": "_packetType",
          "type": "uint16"
        },
        {
          "internalType": "uint256",
          "name": "_minGas",
          "type": "uint256"
        }
      ],
      "name": "setMinDstGas",
      "outputs": [],
      "stateMutability": "nonpayable",
      "type": "function"
    },
    {
      "inputs": [
        {
          "internalType": "uint256",
          "name": "_minGasToTransferAndStore",
          "type": "uint256"
        }
      ],
      "name": "setMinGasToTransferAndStore",
      "outputs": [],
      "stateMutability": "nonpayable",
      "type": "function"
    },
    {
      "inputs": [
        {
          "internalType": "uint256",
          "name": "_mintLimit",
          "type": "uint256"
        }
      ],
      "name": "setMintLimit",
      "outputs": [],
      "stateMutability": "nonpayable",
      "type": "function"
    },
    {
      "inputs": [
        {
          "internalType": "bool",
          "name": "_mintState",
          "type": "bool"
        }
      ],
      "name": "setMintState",
      "outputs": [],
      "stateMutability": "nonpayable",
      "type": "function"
    },
    {
      "inputs": [
        {
          "internalType": "uint16",
          "name": "_dstChainId",
          "type": "uint16"
        },
        {
          "internalType": "uint256",
          "name": "_size",
          "type": "uint256"
        }
      ],
      "name": "setPayloadSizeLimit",
      "outputs": [],
      "stateMutability": "nonpayable",
      "type": "function"
    },
    {
      "inputs": [
        {
          "internalType": "address",
          "name": "_precrime",
          "type": "address"
        }
      ],
      "name": "setPrecrime",
      "outputs": [],
      "stateMutability": "nonpayable",
      "type": "function"
    },
    {
      "inputs": [
        {
          "internalType": "string",
          "name": "prerevealURI",
          "type": "string"
        }
      ],
      "name": "setPrerevealTokenURI",
      "outputs": [],
      "stateMutability": "nonpayable",
      "type": "function"
    },
    {
      "inputs": [
        {
          "internalType": "uint16",
          "name": "_version",
          "type": "uint16"
        }
      ],
      "name": "setReceiveVersion",
      "outputs": [],
      "stateMutability": "nonpayable",
      "type": "function"
    },
    {
      "inputs": [
        {
          "internalType": "bool",
          "name": "_revealed",
          "type": "bool"
        }
      ],
      "name": "setRevealed",
      "outputs": [],
      "stateMutability": "nonpayable",
      "type": "function"
    },
    {
      "inputs": [
        {
          "internalType": "uint16",
          "name": "_version",
          "type": "uint16"
        }
      ],
      "name": "setSendVersion",
      "outputs": [],
      "stateMutability": "nonpayable",
      "type": "function"
    },
    {
      "inputs": [
        {
          "internalType": "address",
          "name": "_treasuryAddress",
          "type": "address"
        }
      ],
      "name": "setTreasuryAddress",
      "outputs": [],
      "stateMutability": "nonpayable",
      "type": "function"
    },
    {
      "inputs": [
        {
          "internalType": "uint16",
          "name": "_remoteChainId",
          "type": "uint16"
        },
        {
          "internalType": "bytes",
          "name": "_path",
          "type": "bytes"
        }
      ],
      "name": "setTrustedRemote",
      "outputs": [],
      "stateMutability": "nonpayable",
      "type": "function"
    },
    {
      "inputs": [
        {
          "internalType": "uint16",
          "name": "_remoteChainId",
          "type": "uint16"
        },
        {
          "internalType": "bytes",
          "name": "_remoteAddress",
          "type": "bytes"
        }
      ],
      "name": "setTrustedRemoteAddress",
      "outputs": [],
      "stateMutability": "nonpayable",
      "type": "function"
    },
    {
      "inputs": [
        {
          "internalType": "bytes32",
          "name": "",
          "type": "bytes32"
        }
      ],
      "name": "storedCredits",
      "outputs": [
        {
          "internalType": "uint16",
          "name": "srcChainId",
          "type": "uint16"
        },
        {
          "internalType": "address",
          "name": "toAddress",
          "type": "address"
        },
        {
          "internalType": "uint256",
          "name": "index",
          "type": "uint256"
        },
        {
          "internalType": "bool",
          "name": "creditsRemain",
          "type": "bool"
        }
      ],
      "stateMutability": "view",
      "type": "function"
    },
    {
      "inputs": [
        {
          "internalType": "bytes4",
          "name": "interfaceId",
          "type": "bytes4"
        }
      ],
      "name": "supportsInterface",
      "outputs": [
        {
          "internalType": "bool",
          "name": "",
          "type": "bool"
        }
      ],
      "stateMutability": "view",
      "type": "function"
    },
    {
      "inputs": [],
      "name": "symbol",
      "outputs": [
        {
          "internalType": "string",
          "name": "",
          "type": "string"
        }
      ],
      "stateMutability": "view",
      "type": "function"
    },
    {
      "inputs": [
        {
          "internalType": "uint256",
          "name": "tokenId",
          "type": "uint256"
        }
      ],
      "name": "tokenURI",
      "outputs": [
        {
          "internalType": "string",
          "name": "",
          "type": "string"
        }
      ],
      "stateMutability": "view",
      "type": "function"
    },
    {
      "inputs": [],
      "name": "totalSupply",
      "outputs": [
        {
          "internalType": "uint256",
          "name": "",
          "type": "uint256"
        }
      ],
      "stateMutability": "view",
      "type": "function"
    },
    {
      "inputs": [
        {
          "internalType": "address",
          "name": "from",
          "type": "address"
        },
        {
          "internalType": "address",
          "name": "to",
          "type": "address"
        },
        {
          "internalType": "uint256",
          "name": "tokenId",
          "type": "uint256"
        }
      ],
      "name": "transferFrom",
      "outputs": [],
      "stateMutability": "nonpayable",
      "type": "function"
    },
    {
      "inputs": [
        {
          "internalType": "address",
          "name": "newOwner",
          "type": "address"
        }
      ],
      "name": "transferOwnership",
      "outputs": [],
      "stateMutability": "nonpayable",
      "type": "function"
    },
    {
      "inputs": [],
      "name": "treasuryAddress",
      "outputs": [
        {
          "internalType": "address",
          "name": "",
          "type": "address"
        }
      ],
      "stateMutability": "view",
      "type": "function"
    },
    {
      "inputs": [
        {
          "internalType": "uint256",
          "name": "id",
          "type": "uint256"
        }
      ],
      "name": "treasuryMint",
      "outputs": [],
      "stateMutability": "nonpayable",
      "type": "function"
    },
    {
      "inputs": [],
      "name": "treasuryMintedCount",
      "outputs": [
        {
          "internalType": "uint256",
          "name": "",
          "type": "uint256"
        }
      ],
      "stateMutability": "view",
      "type": "function"
    },
    {
      "inputs": [
        {
          "internalType": "uint16",
          "name": "",
          "type": "uint16"
        }
      ],
      "name": "trustedRemoteLookup",
      "outputs": [
        {
          "internalType": "bytes",
          "name": "",
          "type": "bytes"
        }
      ],
      "stateMutability": "view",
      "type": "function"
    },
    {
      "inputs": [
        {
          "internalType": "address",
          "name": "_owner",
          "type": "address"
        }
      ],
      "name": "walletOfOwner",
      "outputs": [
        {
          "internalType": "uint256[]",
          "name": "",
          "type": "uint256[]"
        }
      ],
      "stateMutability": "view",
      "type": "function"
    },
    {
      "inputs": [],
      "name": "whiteListingPeriod",
      "outputs": [
        {
          "internalType": "bool",
          "name": "",
          "type": "bool"
        }
      ],
      "stateMutability": "view",
      "type": "function"
    }
  ],
  "transactionHash": "0xe6ac0850d4f3563abd1ce3fa3d3ff531431a1399e5418db8c5885ae3a64485ee",
  "args": [
    "",
    "DecaNFT",
    "DNFT",
    10000000,
    "0xbfD2135BFfbb0B5378b56643c2Df8a87552Bfa23"
  ],
  "numDeployments": 1,
  "solcInputHash": "83aa1f3c67be09b348e371306f35450b",
  "bytecode": "0x60a060405260006018553480156200001657600080fd5b50604051620057ad380380620057ad83398101604081905262000039916200033f565b838383838383838380806200004e3362000115565b60601b6001600160601b03191660805250600160065581620000c35760405162461bcd60e51b8152602060048201526024808201527f6d696e476173546f5472616e73666572416e6453746f7265206d7573742062656044820152630203e20360e41b60648201526084015b60405180910390fd5b506007558151620000dc90600b906020850190620001e6565b508051620000f290600c906020840190620001e6565b505050505050506200010a856200016560201b60201c565b50505050506200044c565b600080546001600160a01b038381166001600160a01b0319831681178455604051919092169283917f8be0079c531659141344cd1fd0a4f28419497f9722a3daafe3b4186f6b6457e09190a35050565b6200016f62000188565b805162000184906013906020840190620001e6565b5050565b6000546001600160a01b03163314620001e45760405162461bcd60e51b815260206004820181905260248201527f4f776e61626c653a2063616c6c6572206973206e6f7420746865206f776e65726044820152606401620000ba565b565b828054620001f490620003f9565b90600052602060002090601f01602090048101928262000218576000855562000263565b82601f106200023357805160ff191683800117855562000263565b8280016001018555821562000263579182015b828111156200026357825182559160200191906001019062000246565b506200027192915062000275565b5090565b5b8082111562000271576000815560010162000276565b600082601f8301126200029d578081fd5b81516001600160401b0380821115620002ba57620002ba62000436565b604051601f8301601f19908116603f01168101908282118183101715620002e557620002e562000436565b8160405283815260209250868385880101111562000301578485fd5b8491505b8382101562000324578582018301518183018401529082019062000305565b838211156200033557848385830101525b9695505050505050565b600080600080600060a0868803121562000357578081fd5b85516001600160401b03808211156200036e578283fd5b6200037c89838a016200028c565b9650602088015191508082111562000392578283fd5b620003a089838a016200028c565b95506040880151915080821115620003b6578283fd5b50620003c5888289016200028c565b60608801516080890151919550935090506001600160a01b0381168114620003eb578182fd5b809150509295509295909350565b600181811c908216806200040e57607f821691505b602082108114156200043057634e487b7160e01b600052602260045260246000fd5b50919050565b634e487b7160e01b600052604160045260246000fd5b60805160601c61530a620004a360003960008181610bd401528181610f0701528181611247015281816114cc015281816117760152818161228b015281816127ae015281816128fd0152613c10015261530a6000f3fe6080604052600436106104515760003560e01c80638da5cb5b1161023f578063c5f956af11610139578063eb8d72b7116100b6578063f4ad0f971161007a578063f4ad0f9714610e63578063f5ecbdbc14610e78578063f68dcaa214610e98578063f769572d14610eb7578063fa25f9b614610ed757600080fd5b8063eb8d72b714610db3578063efdc778814610dd3578063f235364114610df3578063f2fde38b14610e13578063f46eccc414610e3357600080fd5b8063d1deba1f116100fd578063d1deba1f14610d02578063d547cfb714610d15578063df2a5b3b14610d2a578063e0a8085314610d4a578063e985e9c514610d6a57600080fd5b8063c5f956af14610c6c578063c87b56dd14610c8c578063cbed8b9c14610cac578063d0aa0a0d14610ccc578063d12473a514610ce257600080fd5b8063a22cb465116101c7578063b353aaa71161018b578063b353aaa714610bc2578063b88d4fde14610bf6578063baf3292d14610c16578063c051e38a14610c36578063c446183414610c5657600080fd5b8063a22cb46514610b27578063a6c3d16514610b47578063ab3ffb9314610b67578063af3fb21c14610b7a578063b09d28cc14610ba257600080fd5b8063996517cf1161020e578063996517cf14610a915780639e6a1d7d14610aa75780639ea5d6b114610ac75780639f38369a14610ae7578063a0712d6814610b0757600080fd5b80638da5cb5b14610a1e5780638ffa1f2a14610a3c578063950c8a7414610a5c57806395d89b4114610a7c57600080fd5b80633f1f4fa41161035057806351905636116102d857806366ad5c8a1161029c57806366ad5c8a1461097157806370a0823114610991578063715018a6146109b15780637533d788146109c65780638cfd8f5c146109e657600080fd5b806351905636146108af57806355f804b3146108c25780635b8c41e6146108e25780636352211e146109315780636605bfda1461095157600080fd5b8063438b63001161031f578063438b63001461080557806347ee03941461083257806348288190146108525780634ac3f4ff14610868578063518302271461089557600080fd5b80633f1f4fa41461077857806342842e0e146107a557806342966c68146107c557806342d65a8d146107e557600080fd5b80630df37483116103de57806326412aca116103a257806326412aca146106ae5780632a205e3d146106ce5780632a55205a146107035780633502a716146107425780633d8b38f61461075857600080fd5b80630df37483146105a757806310ddb137146105c757806318160ddd146105e757806322a3ecf91461060b57806323b872dd1461068e57600080fd5b806306fdde031161042557806306fdde03146104ed57806307e0db171461050f578063081812fc1461052f578063095ea7b3146105675780630b4cad4c1461058757600080fd5b80621d35671461045657806301bf66481461047857806301ffc9a71461049857806304634d8d146104cd575b600080fd5b34801561046257600080fd5b50610476610471366004614924565b610f04565b005b34801561048457600080fd5b506104766104933660046143f1565b611135565b3480156104a457600080fd5b506104b86104b336600461471e565b61115e565b60405190151581526020015b60405180910390f35b3480156104d957600080fd5b506104766104e83660046146b4565b61117e565b3480156104f957600080fd5b50610502611194565b6040516104c49190614e11565b34801561051b57600080fd5b5061047661052a3660046148ba565b611226565b34801561053b57600080fd5b5061054f61054a366004614706565b6112af565b6040516001600160a01b0390911681526020016104c4565b34801561057357600080fd5b50610476610582366004614689565b6112d6565b34801561059357600080fd5b506104766105a2366004614706565b6113ec565b3480156105b357600080fd5b506104766105c2366004614c2c565b61148c565b3480156105d357600080fd5b506104766105e23660046148ba565b6114ab565b3480156105f357600080fd5b506105fd60175481565b6040519081526020016104c4565b34801561061757600080fd5b5061065f610626366004614706565b600a6020526000908152604090208054600182015460029092015461ffff821692620100009092046001600160a01b0316919060ff1684565b6040805161ffff90951685526001600160a01b03909316602085015291830152151560608201526080016104c4565b34801561069a57600080fd5b506104766106a9366004614445565b611503565b3480156106ba57600080fd5b506104766106c93660046146ec565b611535565b3480156106da57600080fd5b506106ee6106e9366004614a59565b611590565b604080519283526020830191909152016104c4565b34801561070f57600080fd5b5061072361071e366004614c47565b6115b6565b604080516001600160a01b0390931683526020830191909152016104c4565b34801561074e57600080fd5b506105fd6107e881565b34801561076457600080fd5b506104b86107733660046148d4565b611664565b34801561078457600080fd5b506105fd6107933660046148ba565b60036020526000908152604090205481565b3480156107b157600080fd5b506104766107c0366004614445565b611730565b3480156107d157600080fd5b506104766107e0366004614706565b61174b565b3480156107f157600080fd5b506104766108003660046148d4565b611757565b34801561081157600080fd5b506108256108203660046143f1565b6117dd565b6040516104c49190614de5565b34801561083e57600080fd5b5061047661084d3660046143f1565b6118de565b34801561085e57600080fd5b506105fd60075481565b34801561087457600080fd5b506105fd6108833660046148ba565b60086020526000908152604090205481565b3480156108a157600080fd5b506015546104b89060ff1681565b6104766108bd3660046145ef565b61190a565b3480156108ce57600080fd5b506104766108dd366004614875565b611921565b3480156108ee57600080fd5b506105fd6108fd366004614ab5565b6005602090815260009384526040808520845180860184018051928152908401958401959095209452929052825290205481565b34801561093d57600080fd5b5061054f61094c366004614706565b61193c565b34801561095d57600080fd5b5061047661096c3660046143f1565b61199c565b34801561097d57600080fd5b5061047661098c366004614924565b6119c6565b34801561099d57600080fd5b506105fd6109ac3660046143f1565b611aa2565b3480156109bd57600080fd5b50610476611b28565b3480156109d257600080fd5b506105026109e13660046148ba565b611b3c565b3480156109f257600080fd5b506105fd610a01366004614b10565b600260209081526000928352604080842090915290825290205481565b348015610a2a57600080fd5b506000546001600160a01b031661054f565b348015610a4857600080fd5b50610476610a57366004614756565b611bd6565b348015610a6857600080fd5b5060045461054f906001600160a01b031681565b348015610a8857600080fd5b50610502611e1f565b348015610a9d57600080fd5b506105fd60165481565b348015610ab357600080fd5b50610476610ac2366004614706565b611e2e565b348015610ad357600080fd5b50610476610ae2366004614c2c565b611e3b565b348015610af357600080fd5b50610502610b023660046148ba565b611ef2565b348015610b1357600080fd5b50610476610b22366004614706565b612009565b348015610b3357600080fd5b50610476610b423660046144ee565b612013565b348015610b5357600080fd5b50610476610b623660046148d4565b61201e565b610476610b75366004614522565b6120b1565b348015610b8657600080fd5b50610b8f600181565b60405161ffff90911681526020016104c4565b348015610bae57600080fd5b50610476610bbd366004614875565b6120c0565b348015610bce57600080fd5b5061054f7f000000000000000000000000000000000000000000000000000000000000000081565b348015610c0257600080fd5b50610476610c11366004614485565b6120db565b348015610c2257600080fd5b50610476610c313660046143f1565b612113565b348015610c4257600080fd5b506015546104b89062010000900460ff1681565b348015610c6257600080fd5b506105fd61271081565b348015610c7857600080fd5b5060195461054f906001600160a01b031681565b348015610c9857600080fd5b50610502610ca7366004614706565b612169565b348015610cb857600080fd5b50610476610cc7366004614bc0565b61226c565b348015610cd857600080fd5b506105fd60185481565b348015610cee57600080fd5b50610476610cfd366004614c2c565b612301565b610476610d10366004614924565b6123b1565b348015610d2157600080fd5b506105026125c7565b348015610d3657600080fd5b50610476610d45366004614b85565b6125d4565b348015610d5657600080fd5b50610476610d653660046146ec565b61263e565b348015610d7657600080fd5b506104b8610d8536600461440d565b6001600160a01b03918216600090815260106020908152604080832093909416825291909152205460ff1690565b348015610dbf57600080fd5b50610476610dce3660046148d4565b612659565b348015610ddf57600080fd5b50610476610dee366004614706565b6126b3565b348015610dff57600080fd5b506106ee610e0e3660046149b4565b61276f565b348015610e1f57600080fd5b50610476610e2e3660046143f1565b612849565b348015610e3f57600080fd5b506104b8610e4e3660046143f1565b601a6020526000908152604090205460ff1681565b348015610e6f57600080fd5b506105026128bf565b348015610e8457600080fd5b50610502610e93366004614b39565b6128cc565b348015610ea457600080fd5b506015546104b890610100900460ff1681565b348015610ec357600080fd5b50610476610ed23660046146ec565b61298e565b348015610ee357600080fd5b506105fd610ef23660046148ba565b60096020526000908152604090205481565b337f00000000000000000000000000000000000000000000000000000000000000006001600160a01b031614610f815760405162461bcd60e51b815260206004820152601e60248201527f4c7a4170703a20696e76616c696420656e64706f696e742063616c6c6572000060448201526064015b60405180910390fd5b61ffff861660009081526001602052604081208054610f9f90615227565b80601f0160208091040260200160405190810160405280929190818152602001828054610fcb90615227565b80156110185780601f10610fed57610100808354040283529160200191611018565b820191906000526020600020905b815481529060010190602001808311610ffb57829003601f168201915b50505050509050805186869050148015611033575060008151115b801561105b5750805160208201206040516110519088908890614d1a565b6040518091039020145b6110b65760405162461bcd60e51b815260206004820152602660248201527f4c7a4170703a20696e76616c696420736f757263652073656e64696e6720636f6044820152651b9d1c9858dd60d21b6064820152608401610f78565b61112c8787878080601f01602080910402602001604051908101604052809392919081815260200183838082843760009201919091525050604080516020601f8a018190048102820181019092528881528a9350915088908890819084018382808284376000920191909152506129b092505050565b50505050505050565b61113d612a29565b6001600160a01b03166000908152601a60205260409020805460ff19169055565b600061116982612a83565b80611178575061117882612ac3565b92915050565b611186612a29565b6111908282612ae8565b5050565b6060600b80546111a390615227565b80601f01602080910402602001604051908101604052809291908181526020018280546111cf90615227565b801561121c5780601f106111f15761010080835404028352916020019161121c565b820191906000526020600020905b8154815290600101906020018083116111ff57829003601f168201915b5050505050905090565b61122e612a29565b6040516307e0db1760e01b815261ffff821660048201527f00000000000000000000000000000000000000000000000000000000000000006001600160a01b0316906307e0db17906024015b600060405180830381600087803b15801561129457600080fd5b505af11580156112a8573d6000803e3d6000fd5b5050505050565b60006112ba82612be5565b506000908152600f60205260409020546001600160a01b031690565b60006112e18261193c565b9050806001600160a01b0316836001600160a01b0316141561134f5760405162461bcd60e51b815260206004820152602160248201527f4552433732313a20617070726f76616c20746f2063757272656e74206f776e656044820152603960f91b6064820152608401610f78565b336001600160a01b038216148061136b575061136b8133610d85565b6113dd5760405162461bcd60e51b815260206004820152603d60248201527f4552433732313a20617070726f76652063616c6c6572206973206e6f7420746f60448201527f6b656e206f776e6572206f7220617070726f76656420666f7220616c6c0000006064820152608401610f78565b6113e78383612c35565b505050565b6113f4612a29565b600081116114505760405162461bcd60e51b8152602060048201526024808201527f6d696e476173546f5472616e73666572416e6453746f7265206d7573742062656044820152630203e20360e41b6064820152608401610f78565b60078190556040518181527ffebbc4f8bb9ec2313950c718d43123124b15778efda4c1f1d529de2995b4f34d906020015b60405180910390a150565b611494612a29565b61ffff909116600090815260036020526040902055565b6114b3612a29565b6040516310ddb13760e01b815261ffff821660048201527f00000000000000000000000000000000000000000000000000000000000000006001600160a01b0316906310ddb1379060240161127a565b61150e335b82612ca3565b61152a5760405162461bcd60e51b8152600401610f7890614e52565b6113e7838383612d21565b61153d612a29565b6015805462ff00001916620100008315158102919091179182905560405160ff9190920416151581527f992fe84c8bbd52855b22035907ca1f9e1d6bcbb390bc81150808e8443d01668c90602001611481565b6000806115a887876115a188612e85565b878761276f565b915091509550959350505050565b60008281526012602090815260408083208151808301909252546001600160a01b038116808352600160a01b9091046001600160601b031692820192909252829161162b5750604080518082019091526011546001600160a01b0381168252600160a01b90046001600160601b031660208201525b60208101516000906127109061164a906001600160601b0316876151c5565b61165491906151a5565b91519350909150505b9250929050565b61ffff83166000908152600160205260408120805482919061168590615227565b80601f01602080910402602001604051908101604052809291908181526020018280546116b190615227565b80156116fe5780601f106116d3576101008083540402835291602001916116fe565b820191906000526020600020905b8154815290600101906020018083116116e157829003601f168201915b505050505090508383604051611715929190614d1a565b60405180910390208180519060200120149150509392505050565b6113e7838383604051806020016040528060008152506120db565b61175481612ede565b50565b61175f612a29565b6040516342d65a8d60e01b81526001600160a01b037f000000000000000000000000000000000000000000000000000000000000000016906342d65a8d906117af90869086908690600401614f8a565b600060405180830381600087803b1580156117c957600080fd5b505af115801561112c573d6000803e3d6000fd5b606060006117ea83611aa2565b90506000816001600160401b0381111561181457634e487b7160e01b600052604160045260246000fd5b60405190808252806020026020018201604052801561183d578160200160208202803683370190505b5090508161184c579392505050565b6000805b6107e88110156118d457856001600160a01b031661186d8261193c565b6001600160a01b031614156118c2578083838151811061189d57634e487b7160e01b600052603260045260246000fd5b6020908102919091010152816118b281615262565b925050838214156118c2576118d4565b806118cc81615262565b915050611850565b5090949350505050565b6118e6612a29565b6001600160a01b03166000908152601a60205260409020805460ff19166001179055565b61112c87878761191988612e85565b878787612f73565b611929612a29565b8051611190906013906020840190614152565b6000818152600d60205260408120546001600160a01b0316806111785760405162461bcd60e51b8152602060048201526018602482015277115490cdcc8c4e881a5b9d985b1a59081d1bdad95b88125160421b6044820152606401610f78565b6119a4612a29565b601980546001600160a01b0319166001600160a01b0392909216919091179055565b333014611a245760405162461bcd60e51b815260206004820152602660248201527f4e6f6e626c6f636b696e674c7a4170703a2063616c6c6572206d7573742062656044820152650204c7a4170760d41b6064820152608401610f78565b611a9a8686868080601f01602080910402602001604051908101604052809392919081815260200183838082843760009201919091525050604080516020601f89018190048102820181019092528781528993509150879087908190840183828082843760009201919091525061315592505050565b505050505050565b60006001600160a01b038216611b0c5760405162461bcd60e51b815260206004820152602960248201527f4552433732313a2061646472657373207a65726f206973206e6f7420612076616044820152683634b21037bbb732b960b91b6064820152608401610f78565b506001600160a01b03166000908152600e602052604090205490565b611b30612a29565b611b3a60006132ac565b565b60016020526000908152604090208054611b5590615227565b80601f0160208091040260200160405190810160405280929190818152602001828054611b8190615227565b8015611bce5780601f10611ba357610100808354040283529160200191611bce565b820191906000526020600020905b815481529060010190602001808311611bb157829003601f168201915b505050505081565b611bde6132fc565b80516020808301919091206000818152600a90925260409091206002015460ff16611c3f5760405162461bcd60e51b81526020600482015260116024820152701b9bc818dc99591a5d1cc81cdd1bdc9959607a1b6044820152606401610f78565b600082806020019051810190611c5591906147ba565b6000848152600a602052604081208054600190910154929450909250611c919161ffff8216916201000090046001600160a01b03169085613356565b6000848152600a60205260409020600101549091508111611d065760405162461bcd60e51b815260206004820152602960248201527f6e6f7420656e6f7567682067617320746f2070726f6365737320637265646974604482015268103a3930b739b332b960b91b6064820152608401610f78565b8151811415611d7e576000838152600a602052604080822080546001600160b01b031916815560018101929092556002909101805460ff19169055517fd7be02b8dd0d27bd0517a9cb4d7469ce27df4313821ae5ec1ff69acc594ba23390611d719085815260200190565b60405180910390a1611e12565b604080516080810182526000858152600a6020818152848320805461ffff80821687526001600160a01b03620100008084048216868a019081529989018b8152600160608b01818152998f90529790965297519851169096026001600160b01b03199091169690951695909517939093178455915191830191909155516002909101805491151560ff199092169190911790555b5050506117546001600655565b6060600c80546111a390615227565b611e36612a29565b601655565b611e43612a29565b60008111611e9e5760405162461bcd60e51b815260206004820152602260248201527f647374436861696e4964546f42617463684c696d6974206d757374206265203e604482015261020360f41b6064820152608401610f78565b61ffff8216600081815260086020908152604091829020849055815192835282018390527f7315f7654d594ead24a30160ed9ba2d23247f543016b918343591e93d7afdb6d91015b60405180910390a15050565b61ffff8116600090815260016020526040812080546060929190611f1590615227565b80601f0160208091040260200160405190810160405280929190818152602001828054611f4190615227565b8015611f8e5780601f10611f6357610100808354040283529160200191611f8e565b820191906000526020600020905b815481529060010190602001808311611f7157829003601f168201915b50505050509050805160001415611fe75760405162461bcd60e51b815260206004820152601d60248201527f4c7a4170703a206e6f20747275737465642070617468207265636f72640000006044820152606401610f78565b612002600060148351611ffa91906151e4565b8391906133b6565b9392505050565b61175433826134c3565b6111903383836135c7565b612026612a29565b81813060405160200161203b93929190614d2a565b60408051601f1981840301815291815261ffff8516600090815260016020908152919020825161207093919290910190614152565b507f8c0400cfe2d1199b1a725c78960bcc2a344d869b80590d0f2bd005db15a572ce8383836040516120a493929190614f8a565b60405180910390a1505050565b61112c87878787878787612f73565b6120c8612a29565b8051611190906014906020840190614152565b6120e53383612ca3565b6121015760405162461bcd60e51b8152600401610f7890614e52565b61210d84848484613696565b50505050565b61211b612a29565b600480546001600160a01b0319166001600160a01b0383169081179091556040519081527f5db758e995a17ec1ad84bdef7e8c3293a0bd6179bcce400dff5d4c3d87db726b90602001611481565b6060612174826136c9565b5060155460ff16612211576014805461218c90615227565b80601f01602080910402602001604051908101604052809291908181526020018280546121b890615227565b80156122055780601f106121da57610100808354040283529160200191612205565b820191906000526020600020905b8154815290600101906020018083116121e857829003601f168201915b50505050509050919050565b600061221b6136e6565b9050600081511161223b5760405180602001604052806000815250612002565b80612245846136f5565b604051602001612256929190614d6c565b6040516020818303038152906040529392505050565b612274612a29565b6040516332fb62e760e21b81526001600160a01b037f0000000000000000000000000000000000000000000000000000000000000000169063cbed8b9c906122c890889088908890889088906004016150e5565b600060405180830381600087803b1580156122e257600080fd5b505af11580156122f6573d6000803e3d6000fd5b505050505050505050565b612309612a29565b600081116123655760405162461bcd60e51b815260206004820152602360248201527f647374436861696e4964546f5472616e73666572476173206d7573742062652060448201526203e20360ec1b6064820152608401610f78565b61ffff8216600081815260096020908152604091829020849055815192835282018390527fc46df2983228ac2d9754e94a0d565e6671665dc8ad38602bc8e544f0685a29fb9101611ee6565b61ffff861660009081526005602052604080822090516123d49088908890614d1a565b90815260408051602092819003830190206001600160401b038716600090815292529020549050806124545760405162461bcd60e51b815260206004820152602360248201527f4e6f6e626c6f636b696e674c7a4170703a206e6f2073746f726564206d65737360448201526261676560e81b6064820152608401610f78565b808383604051612465929190614d1a565b6040518091039020146124c45760405162461bcd60e51b815260206004820152602160248201527f4e6f6e626c6f636b696e674c7a4170703a20696e76616c6964207061796c6f616044820152601960fa1b6064820152608401610f78565b61ffff871660009081526005602052604080822090516124e79089908990614d1a565b90815260408051602092819003830181206001600160401b038916600090815290845282902093909355601f8801829004820283018201905286825261257f918991899089908190840183828082843760009201919091525050604080516020601f8a018190048102820181019092528881528a93509150889088908190840183828082843760009201919091525061315592505050565b7fc264d91f3adc5588250e1551f547752ca0cfa8f6b530d243b9f9f4cab10ea8e587878787856040516125b6959493929190614fa8565b60405180910390a150505050505050565b60138054611b5590615227565b6125dc612a29565b61ffff83811660008181526002602090815260408083209487168084529482529182902085905581519283528201929092529081018290527f9d5c7c0b934da8fefa9c7760c98383778a12dfbfc0c3b3106518f43fb9508ac0906060016120a4565b612646612a29565b6015805460ff1916911515919091179055565b612661612a29565b61ffff8316600090815260016020526040902061267f9083836141d6565b507ffa41487ad5d6728f0b19276fa1eddc16558578f5109fc39d2dc33c3230470dab8383836040516120a493929190614f8a565b6126bb612a29565b6019546001600160a01b031661271e5760405162461bcd60e51b815260206004820152602260248201527f547265617375727920416464726573732073686f756c64206265207365742075604482015261381760f11b6064820152608401610f78565b606460185410612741576040516320703ae960e21b815260040160405180910390fd5b601954612757906001600160a01b0316826134c3565b6018805490600061276783615262565b919050555050565b60008060008686604051602001612787929190614e24565b60408051601f198184030181529082905263040a7bb160e41b825291506001600160a01b037f000000000000000000000000000000000000000000000000000000000000000016906340a7bb10906127eb908b90309086908b908b90600401614f36565b604080518083038186803b15801561280257600080fd5b505afa158015612816573d6000803e3d6000fd5b505050506040513d601f19601f8201168201806040525081019061283a9190614c68565b92509250509550959350505050565b612851612a29565b6001600160a01b0381166128b65760405162461bcd60e51b815260206004820152602660248201527f4f776e61626c653a206e6577206f776e657220697320746865207a65726f206160448201526564647265737360d01b6064820152608401610f78565b611754816132ac565b60148054611b5590615227565b604051633d7b2f6f60e21b815261ffff808616600483015284166024820152306044820152606481018290526060907f00000000000000000000000000000000000000000000000000000000000000006001600160a01b03169063f5ecbdbc9060840160006040518083038186803b15801561294757600080fd5b505afa15801561295b573d6000803e3d6000fd5b505050506040513d6000823e601f3d908101601f191682016040526129839190810190614788565b90505b949350505050565b612996612a29565b601580549115156101000261ff0019909216919091179055565b600080612a135a60966366ad5c8a60e01b898989896040516024016129d8949392919061504a565b60408051601f198184030181529190526020810180516001600160e01b03166001600160e01b0319909316929092179091523092919061379f565b9150915081611a9a57611a9a8686868685613837565b6000546001600160a01b03163314611b3a5760405162461bcd60e51b815260206004820181905260248201527f4f776e61626c653a2063616c6c6572206973206e6f7420746865206f776e65726044820152606401610f78565b60006001600160e01b031982166380ac58cd60e01b1480612ab457506001600160e01b03198216635b5e139f60e01b145b806111785750611178826138d4565b60006001600160e01b0319821663152a902d60e11b1480611178575061117882613909565b6127106001600160601b0382161115612b565760405162461bcd60e51b815260206004820152602a60248201527f455243323938313a20726f79616c7479206665652077696c6c206578636565646044820152692073616c65507269636560b01b6064820152608401610f78565b6001600160a01b038216612bac5760405162461bcd60e51b815260206004820152601960248201527f455243323938313a20696e76616c6964207265636569766572000000000000006044820152606401610f78565b604080518082019091526001600160a01b039092168083526001600160601b039091166020909201829052600160a01b90910217601155565b612bee816136c9565b6117545760405162461bcd60e51b8152602060048201526018602482015277115490cdcc8c4e881a5b9d985b1a59081d1bdad95b88125160421b6044820152606401610f78565b6000818152600f6020526040902080546001600160a01b0319166001600160a01b0384169081179091558190612c6a8261193c565b6001600160a01b03167f8c5be1e5ebec7d5bd14f71427d1e84f3dd0314c0f7b2291e5b200ac8c7c3b92560405160405180910390a45050565b600080612caf8361193c565b9050806001600160a01b0316846001600160a01b03161480612cf657506001600160a01b0380821660009081526010602090815260408083209388168352929052205460ff165b806129865750836001600160a01b0316612d0f846112af565b6001600160a01b031614949350505050565b826001600160a01b0316612d348261193c565b6001600160a01b031614612d5a5760405162461bcd60e51b8152600401610f7890614ef1565b6001600160a01b038216612dbc5760405162461bcd60e51b8152602060048201526024808201527f4552433732313a207472616e7366657220746f20746865207a65726f206164646044820152637265737360e01b6064820152608401610f78565b826001600160a01b0316612dcf8261193c565b6001600160a01b031614612df55760405162461bcd60e51b8152600401610f7890614ef1565b6000818152600f6020908152604080832080546001600160a01b03199081169091556001600160a01b03878116808652600e8552838620805460001901905590871680865283862080546001019055868652600d90945282852080549092168417909155905184937fddf252ad1be2c89b69c2b068fc378daa952ba7f163c4a11628f55a4df523b3ef91a4505050565b60408051600180825281830190925260609160009190602080830190803683370190505090508281600081518110612ecd57634e487b7160e01b600052603260045260246000fd5b602090810291909101015292915050565b6000612ee98261193c565b9050612ef48261193c565b6000838152600f6020908152604080832080546001600160a01b03199081169091556001600160a01b038516808552600e84528285208054600019019055878552600d909352818420805490911690555192935084927fddf252ad1be2c89b69c2b068fc378daa952ba7f163c4a11628f55a4df523b3ef908390a45050565b6000845111612fba5760405162461bcd60e51b8152602060048201526013602482015272746f6b656e4964735b5d20697320656d70747960681b6044820152606401610f78565b835160011480612fde575061ffff8616600090815260086020526040902054845111155b6130355760405162461bcd60e51b815260206004820152602260248201527f62617463682073697a65206578636565647320647374206261746368206c696d6044820152611a5d60f21b6064820152608401610f78565b60005b84518110156130865761307488888888858151811061306757634e487b7160e01b600052603260045260246000fd5b6020026020010151613926565b8061307e81615262565b915050613038565b506000858560405160200161309c929190614e24565b60405160208183030381529060405290506130e1876001848851600960008d61ffff1661ffff168152602001908152602001600020546130dc91906151c5565b613a11565b6130ef878286868634613ae6565b856040516130fd9190614d50565b6040518091039020886001600160a01b03168861ffff167fe1b87c47fdeb4f9cbadbca9df3af7aba453bb6e501075d0440d88125b711522a886040516131439190614de5565b60405180910390a45050505050505050565b6000808280602001905181019061316c91906147ba565b60148201519193509150600061318488838386613356565b905082518110156132585784516020808701919091206040805160808101825261ffff808d1682526001600160a01b038088168387019081528385018881526001606086018181526000898152600a909a529887902095518654935190941662010000026001600160b01b03199093169390941692909217178355519082015592516002909301805493151560ff199094169390931790925590517f10e0b70d256bccc84b7027506978bd8b68984a870788b93b479def144c839ad79061324e9083908990614df8565b60405180910390a1505b816001600160a01b0316876040516132709190614d50565b60405180910390208961ffff167f5b821db8a46f8ecbe1941ba2f51cfeea9643268b56631f70d45e2a745d990265866040516131439190614de5565b600080546001600160a01b038381166001600160a01b0319831681178455604051919092169283917f8be0079c531659141344cd1fd0a4f28419497f9722a3daafe3b4186f6b6457e09190a35050565b6002600654141561334f5760405162461bcd60e51b815260206004820152601f60248201527f5265656e7472616e637947756172643a207265656e7472616e742063616c6c006044820152606401610f78565b6002600655565b6000825b8251811015612983576007545a101561337257612983565b6133a4868685848151811061339757634e487b7160e01b600052603260045260246000fd5b6020026020010151613c8c565b806133ae81615262565b91505061335a565b6060816133c481601f61518d565b10156134035760405162461bcd60e51b815260206004820152600e60248201526d736c6963655f6f766572666c6f7760901b6044820152606401610f78565b61340d828461518d565b845110156134515760405162461bcd60e51b8152602060048201526011602482015270736c6963655f6f75744f66426f756e647360781b6044820152606401610f78565b60608215801561347057604051915060008252602082016040526134ba565b6040519150601f8416801560200281840101858101878315602002848b0101015b818310156134a9578051835260209283019201613491565b5050858452601f01601f1916604052505b50949350505050565b601554339062010000900460ff166134ee576040516365a2ea6560e11b815260040160405180910390fd5b6107e8601754106135125760405163152bdec360e21b815260040160405180910390fd5b6016541580159061352d575060165461352a82611aa2565b10155b1561354b57604051635b21dfd360e11b815260040160405180910390fd5b601554610100900460ff16801561357b57506001600160a01b0381166000908152601a602052604090205460ff16155b156135a35760405162f78d2360e81b81526001600160a01b0382166004820152602401610f78565b6135ad8383613cec565b601780549060006135bd83615262565b9190505550505050565b816001600160a01b0316836001600160a01b031614156136295760405162461bcd60e51b815260206004820152601960248201527f4552433732313a20617070726f766520746f2063616c6c6572000000000000006044820152606401610f78565b6001600160a01b03838116600081815260106020908152604080832094871680845294825291829020805460ff191686151590811790915591519182527f17307eab39ab6107e8899845ad3d59bd9653f200f220920489ca2b5937696c31910160405180910390a3505050565b6136a1848484612d21565b6136ad84848484613d06565b61210d5760405162461bcd60e51b8152600401610f7890614e9f565b6000908152600d60205260409020546001600160a01b0316151590565b6060601380546111a390615227565b6060600061370283613e10565b60010190506000816001600160401b0381111561372f57634e487b7160e01b600052604160045260246000fd5b6040519080825280601f01601f191660200182016040528015613759576020820181803683370190505b5090508181016020015b600019016f181899199a1a9b1b9c1cb0b131b232b360811b600a86061a8153600a850494508461379257613797565b613763565b509392505050565b6000606060008060008661ffff166001600160401b038111156137d257634e487b7160e01b600052604160045260246000fd5b6040519080825280601f01601f1916602001820160405280156137fc576020820181803683370190505b50905060008087516020890160008d8df191503d92508683111561381e578692505b828152826000602083013e909890975095505050505050565b8180519060200120600560008761ffff1661ffff168152602001908152602001600020856040516138689190614d50565b9081526040805191829003602090810183206001600160401b0388166000908152915220919091557fe183f33de2837795525b4792ca4cd60535bd77c53b7e7030060bfcf5734d6b0c906138c59087908790879087908790615093565b60405180910390a15050505050565b60006001600160e01b031982166322bac5d960e01b148061117857506301ffc9a760e01b6001600160e01b0319831614611178565b60006001600160e01b031982161580611178575061117882612a83565b61392f33611508565b6139925760405162461bcd60e51b815260206004820152602e60248201527f4f4e46543732313a2073656e642063616c6c6572206973206e6f74206f776e6560448201526d1c881b9bdc88185c1c1c9bdd995960921b6064820152608401610f78565b836001600160a01b03166139a58261193c565b6001600160a01b031614613a065760405162461bcd60e51b815260206004820152602260248201527f4f4e46543732313a2073656e642066726f6d20696e636f7272656374206f776e60448201526132b960f11b6064820152608401610f78565b61210d843083612d21565b6000613a1c83613ee8565b61ffff80871660009081526002602090815260408083209389168352929052205490915080613a8d5760405162461bcd60e51b815260206004820152601a60248201527f4c7a4170703a206d696e4761734c696d6974206e6f74207365740000000000006044820152606401610f78565b613a97838261518d565b821015611a9a5760405162461bcd60e51b815260206004820152601b60248201527f4c7a4170703a20676173206c696d697420697320746f6f206c6f7700000000006044820152606401610f78565b61ffff861660009081526001602052604081208054613b0490615227565b80601f0160208091040260200160405190810160405280929190818152602001828054613b3090615227565b8015613b7d5780601f10613b5257610100808354040283529160200191613b7d565b820191906000526020600020905b815481529060010190602001808311613b6057829003601f168201915b50505050509050805160001415613bef5760405162461bcd60e51b815260206004820152603060248201527f4c7a4170703a2064657374696e6174696f6e20636861696e206973206e6f742060448201526f61207472757374656420736f7572636560801b6064820152608401610f78565b613bfa878751613f44565b60405162c5803160e81b81526001600160a01b037f0000000000000000000000000000000000000000000000000000000000000000169063c5803100908490613c51908b9086908c908c908c908c90600401614fe3565b6000604051808303818588803b158015613c6a57600080fd5b505af1158015613c7e573d6000803e3d6000fd5b505050505050505050505050565b613c95816136c9565b1580613cc15750613ca5816136c9565b8015613cc1575030613cb68261193c565b6001600160a01b0316145b613cca57600080fd5b613cd3816136c9565b613ce1576113e78282613cec565b6113e7308383612d21565b611190828260405180602001604052806000815250613fb2565b60006001600160a01b0384163b15613e0857604051630a85bd0160e11b81526001600160a01b0385169063150b7a0290613d4a903390899088908890600401614da8565b602060405180830381600087803b158015613d6457600080fd5b505af1925050508015613d94575060408051601f3d908101601f19168201909252613d919181019061473a565b60015b613dee573d808015613dc2576040519150601f19603f3d011682016040523d82523d6000602084013e613dc7565b606091505b508051613de65760405162461bcd60e51b8152600401610f7890614e9f565b805181602001fd5b6001600160e01b031916630a85bd0160e11b149050612986565b506001612986565b60008072184f03e93ff9f4daa797ed6e38ed64bf6a1f0160401b8310613e4f5772184f03e93ff9f4daa797ed6e38ed64bf6a1f0160401b830492506040015b6d04ee2d6d415b85acef81000000008310613e7b576d04ee2d6d415b85acef8100000000830492506020015b662386f26fc100008310613e9957662386f26fc10000830492506010015b6305f5e1008310613eb1576305f5e100830492506008015b6127108310613ec557612710830492506004015b60648310613ed7576064830492506002015b600a83106111785760010192915050565b6000602282511015613f3c5760405162461bcd60e51b815260206004820152601c60248201527f4c7a4170703a20696e76616c69642061646170746572506172616d73000000006044820152606401610f78565b506022015190565b61ffff821660009081526003602052604090205480613f6257506127105b808211156113e75760405162461bcd60e51b815260206004820181905260248201527f4c7a4170703a207061796c6f61642073697a6520697320746f6f206c617267656044820152606401610f78565b613fbc8383613fe5565b613fc96000848484613d06565b6113e75760405162461bcd60e51b8152600401610f7890614e9f565b6001600160a01b03821661403b5760405162461bcd60e51b815260206004820181905260248201527f4552433732313a206d696e7420746f20746865207a65726f20616464726573736044820152606401610f78565b614044816136c9565b156140915760405162461bcd60e51b815260206004820152601c60248201527f4552433732313a20746f6b656e20616c7265616479206d696e746564000000006044820152606401610f78565b61409a816136c9565b156140e75760405162461bcd60e51b815260206004820152601c60248201527f4552433732313a20746f6b656e20616c7265616479206d696e746564000000006044820152606401610f78565b6001600160a01b0382166000818152600e6020908152604080832080546001019055848352600d90915280822080546001600160a01b0319168417905551839291907fddf252ad1be2c89b69c2b068fc378daa952ba7f163c4a11628f55a4df523b3ef908290a45050565b82805461415e90615227565b90600052602060002090601f01602090048101928261418057600085556141c6565b82601f1061419957805160ff19168380011785556141c6565b828001600101855582156141c6579182015b828111156141c65782518255916020019190600101906141ab565b506141d292915061424a565b5090565b8280546141e290615227565b90600052602060002090601f01602090048101928261420457600085556141c6565b82601f1061421d5782800160ff198235161785556141c6565b828001600101855582156141c6579182015b828111156141c657823582559160200191906001019061422f565b5b808211156141d2576000815560010161424b565b600061427261426d84615166565b615113565b905082815283838301111561428657600080fd5b828260208301376000602084830101529392505050565b80356142a8816152a9565b919050565b600082601f8301126142bd578081fd5b813560206142cd61426d83615143565b80838252828201915082860187848660051b89010111156142ec578586fd5b855b8581101561430a578135845292840192908401906001016142ee565b5090979650505050505050565b803580151581146142a857600080fd5b60008083601f840112614338578182fd5b5081356001600160401b0381111561434e578182fd5b60208301915083602082850101111561165d57600080fd5b600082601f830112614376578081fd5b6120028383356020850161425f565b600082601f830112614395578081fd5b81516143a361426d82615166565b8181528460208386010111156143b7578283fd5b6129868260208301602087016151fb565b803561ffff811681146142a857600080fd5b80356001600160401b03811681146142a857600080fd5b600060208284031215614402578081fd5b8135612002816152a9565b6000806040838503121561441f578081fd5b823561442a816152a9565b9150602083013561443a816152a9565b809150509250929050565b600080600060608486031215614459578081fd5b8335614464816152a9565b92506020840135614474816152a9565b929592945050506040919091013590565b6000806000806080858703121561449a578081fd5b84356144a5816152a9565b935060208501356144b5816152a9565b92506040850135915060608501356001600160401b038111156144d6578182fd5b6144e287828801614366565b91505092959194509250565b60008060408385031215614500578182fd5b823561450b816152a9565b915061451960208401614317565b90509250929050565b600080600080600080600060e0888a03121561453c578485fd5b8735614547816152a9565b9650614555602089016143c8565b955060408801356001600160401b0380821115614570578687fd5b61457c8b838c01614366565b965060608a0135915080821115614591578485fd5b61459d8b838c016142ad565b955060808a013591506145af826152a9565b8194506145be60a08b0161429d565b935060c08a01359150808211156145d3578283fd5b506145e08a828b01614366565b91505092959891949750929550565b600080600080600080600060e0888a031215614609578081fd5b8735614614816152a9565b9650614622602089016143c8565b955060408801356001600160401b038082111561463d578283fd5b6146498b838c01614366565b965060608a0135955060808a01359150614662826152a9565b90935060a089013590614674826152a9565b90925060c089013590808211156145d3578283fd5b6000806040838503121561469b578182fd5b82356146a6816152a9565b946020939093013593505050565b600080604083850312156146c6578182fd5b82356146d1816152a9565b915060208301356001600160601b038116811461443a578182fd5b6000602082840312156146fd578081fd5b61200282614317565b600060208284031215614717578081fd5b5035919050565b60006020828403121561472f578081fd5b8135612002816152be565b60006020828403121561474b578081fd5b8151612002816152be565b600060208284031215614767578081fd5b81356001600160401b0381111561477c578182fd5b61298684828501614366565b600060208284031215614799578081fd5b81516001600160401b038111156147ae578182fd5b61298684828501614385565b600080604083850312156147cc578182fd5b82516001600160401b03808211156147e2578384fd5b6147ee86838701614385565b9350602091508185015181811115614804578384fd5b85019050601f81018613614816578283fd5b805161482461426d82615143565b80828252848201915084840189868560051b8701011115614843578687fd5b8694505b83851015614865578051835260019490940193918501918501614847565b5080955050505050509250929050565b600060208284031215614886578081fd5b81356001600160401b0381111561489b578182fd5b8201601f810184136148ab578182fd5b6129868482356020840161425f565b6000602082840312156148cb578081fd5b612002826143c8565b6000806000604084860312156148e8578081fd5b6148f1846143c8565b925060208401356001600160401b0381111561490b578182fd5b61491786828701614327565b9497909650939450505050565b6000806000806000806080878903121561493c578384fd5b614945876143c8565b955060208701356001600160401b0380821115614960578586fd5b61496c8a838b01614327565b909750955085915061498060408a016143da565b94506060890135915080821115614995578384fd5b506149a289828a01614327565b979a9699509497509295939492505050565b600080600080600060a086880312156149cb578283fd5b6149d4866143c8565b945060208601356001600160401b03808211156149ef578485fd5b6149fb89838a01614366565b95506040880135915080821115614a10578485fd5b614a1c89838a016142ad565b9450614a2a60608901614317565b93506080880135915080821115614a3f578283fd5b50614a4c88828901614366565b9150509295509295909350565b600080600080600060a08688031215614a70578283fd5b614a79866143c8565b945060208601356001600160401b0380821115614a94578485fd5b614aa089838a01614366565b955060408801359450614a2a60608901614317565b600080600060608486031215614ac9578081fd5b614ad2846143c8565b925060208401356001600160401b03811115614aec578182fd5b614af886828701614366565b925050614b07604085016143da565b90509250925092565b60008060408385031215614b22578182fd5b614b2b836143c8565b9150614519602084016143c8565b60008060008060808587031215614b4e578182fd5b614b57856143c8565b9350614b65602086016143c8565b92506040850135614b75816152a9565b9396929550929360600135925050565b600080600060608486031215614b99578081fd5b614ba2846143c8565b9250614bb0602085016143c8565b9150604084013590509250925092565b600080600080600060808688031215614bd7578283fd5b614be0866143c8565b9450614bee602087016143c8565b93506040860135925060608601356001600160401b03811115614c0f578182fd5b614c1b88828901614327565b969995985093965092949392505050565b60008060408385031215614c3e578182fd5b6146a6836143c8565b60008060408385031215614c59578182fd5b50508035926020909101359150565b60008060408385031215614c7a578182fd5b505080516020909101519092909150565b6000815180845260208085019450808401835b83811015614cba57815187529582019590820190600101614c9e565b509495945050505050565b81835281816020850137506000828201602090810191909152601f909101601f19169091010190565b60008151808452614d068160208601602086016151fb565b601f01601f19169290920160200192915050565b8183823760009101908152919050565b8284823760609190911b6bffffffffffffffffffffffff19169101908152601401919050565b60008251614d628184602087016151fb565b9190910192915050565b60008351614d7e8184602088016151fb565b602f60f81b9083019081528351614d9c8160018401602088016151fb565b01600101949350505050565b6001600160a01b0385811682528416602082015260408101839052608060608201819052600090614ddb90830184614cee565b9695505050505050565b6020815260006120026020830184614c8b565b8281526040602082015260006129866040830184614cee565b6020815260006120026020830184614cee565b604081526000614e376040830185614cee565b8281036020840152614e498185614c8b565b95945050505050565b6020808252602d908201527f4552433732313a2063616c6c6572206973206e6f7420746f6b656e206f776e6560408201526c1c881bdc88185c1c1c9bdd9959609a1b606082015260800190565b60208082526032908201527f4552433732313a207472616e7366657220746f206e6f6e20455243373231526560408201527131b2b4bb32b91034b6b83632b6b2b73a32b960711b606082015260800190565b60208082526025908201527f4552433732313a207472616e736665722066726f6d20696e636f72726563742060408201526437bbb732b960d91b606082015260800190565b61ffff861681526001600160a01b038516602082015260a060408201819052600090614f6490830186614cee565b84151560608401528281036080840152614f7e8185614cee565b98975050505050505050565b61ffff84168152604060208201526000612983604083018486614cc5565b61ffff86168152608060208201526000614fc6608083018688614cc5565b6001600160401b0394909416604083015250606001529392505050565b61ffff8716815260c06020820152600061500060c0830188614cee565b82810360408401526150128188614cee565b6001600160a01b0387811660608601528616608085015283810360a0850152905061503d8185614cee565b9998505050505050505050565b61ffff851681526080602082015260006150676080830186614cee565b6001600160401b038516604084015282810360608401526150888185614cee565b979650505050505050565b61ffff8616815260a0602082015260006150b060a0830187614cee565b6001600160401b038616604084015282810360608401526150d18186614cee565b90508281036080840152614f7e8185614cee565b600061ffff808816835280871660208401525084604083015260806060830152615088608083018486614cc5565b604051601f8201601f191681016001600160401b038111828210171561513b5761513b615293565b604052919050565b60006001600160401b0382111561515c5761515c615293565b5060051b60200190565b60006001600160401b0382111561517f5761517f615293565b50601f01601f191660200190565b600082198211156151a0576151a061527d565b500190565b6000826151c057634e487b7160e01b81526012600452602481fd5b500490565b60008160001904831182151516156151df576151df61527d565b500290565b6000828210156151f6576151f661527d565b500390565b60005b838110156152165781810151838201526020016151fe565b8381111561210d5750506000910152565b600181811c9082168061523b57607f821691505b6020821081141561525c57634e487b7160e01b600052602260045260246000fd5b50919050565b60006000198214156152765761527661527d565b5060010190565b634e487b7160e01b600052601160045260246000fd5b634e487b7160e01b600052604160045260246000fd5b6001600160a01b038116811461175457600080fd5b6001600160e01b03198116811461175457600080fdfea2646970667358221220d2adf85807bbac37c35ab97213608472481c9973c5d07466f691d7d3ff870e4464736f6c63430008040033",
  "devdoc": {
    "kind": "dev",
    "methods": {
      "approve(address,uint256)": {
        "details": "See {IERC721-approve}."
      },
      "balanceOf(address)": {
        "details": "See {IERC721-balanceOf}."
      },
      "estimateSendBatchFee(uint16,bytes,uint256[],bool,bytes)": {
        "details": "estimate send token `_tokenId` to (`_dstChainId`, `_toAddress`) _dstChainId - L0 defined chain id to send tokens too _toAddress - dynamic bytes array which contains the address to whom you are sending tokens to on the dstChain _tokenIds[] - token Ids to transfer _useZro - indicates to use zro to pay L0 fees _adapterParams - flexible bytes array to indicate messaging adapter services in L0"
      },
      "estimateSendFee(uint16,bytes,uint256,bool,bytes)": {
        "details": "estimate send token `_tokenId` to (`_dstChainId`, `_toAddress`) _dstChainId - L0 defined chain id to send tokens too _toAddress - dynamic bytes array which contains the address to whom you are sending tokens to on the dstChain _tokenId - token Id to transfer _useZro - indicates to use zro to pay L0 fees _adapterParams - flexible bytes array to indicate messaging adapter services in L0"
      },
      "getApproved(uint256)": {
        "details": "See {IERC721-getApproved}."
      },
      "isApprovedForAll(address,address)": {
        "details": "See {IERC721-isApprovedForAll}."
      },
      "name()": {
        "details": "See {IERC721Metadata-name}."
      },
      "owner()": {
        "details": "Returns the address of the current owner."
      },
      "ownerOf(uint256)": {
        "details": "See {IERC721-ownerOf}."
      },
      "renounceOwnership()": {
        "details": "Leaves the contract without owner. It will not be possible to call `onlyOwner` functions. Can only be called by the current owner. NOTE: Renouncing ownership will leave the contract without an owner, thereby disabling any functionality that is only available to the owner."
      },
      "royaltyInfo(uint256,uint256)": {
        "details": "Returns how much royalty is owed and to whom, based on a sale price that may be denominated in any unit of exchange. The royalty amount is denominated and should be paid in that same unit of exchange."
      },
      "safeTransferFrom(address,address,uint256)": {
        "details": "See {IERC721-safeTransferFrom}."
      },
      "safeTransferFrom(address,address,uint256,bytes)": {
        "details": "See {IERC721-safeTransferFrom}."
      },
      "sendBatchFrom(address,uint16,bytes,uint256[],address,address,bytes)": {
        "details": "send tokens `_tokenIds[]` to (`_dstChainId`, `_toAddress`) from `_from` `_toAddress` can be any size depending on the `dstChainId`. `_zroPaymentAddress` set to address(0x0) if not paying in ZRO (LayerZero Token) `_adapterParams` is a flexible bytes array to indicate messaging adapter services"
      },
      "sendFrom(address,uint16,bytes,uint256,address,address,bytes)": {
        "details": "send token `_tokenId` to (`_dstChainId`, `_toAddress`) from `_from` `_toAddress` can be any size depending on the `dstChainId`. `_zroPaymentAddress` set to address(0x0) if not paying in ZRO (LayerZero Token) `_adapterParams` is a flexible bytes array to indicate messaging adapter services"
      },
      "setApprovalForAll(address,bool)": {
        "details": "See {IERC721-setApprovalForAll}."
      },
      "symbol()": {
        "details": "See {IERC721Metadata-symbol}."
      },
      "tokenURI(uint256)": {
        "details": "See {IERC721Metadata-tokenURI}."
      },
      "transferFrom(address,address,uint256)": {
        "details": "See {IERC721-transferFrom}."
      },
      "transferOwnership(address)": {
        "details": "Transfers ownership of the contract to a new account (`newOwner`). Can only be called by the current owner."
      }
    },
    "version": 1
  },
  "userdoc": {
    "kind": "user",
    "methods": {},
    "version": 1
  },
  "storageLayout": {
    "storage": [
      {
        "astId": 2368,
        "contract": "contracts/DecaNFT.sol:DecaNFT",
        "label": "_owner",
        "offset": 0,
        "slot": "0",
        "type": "t_address"
      },
      {
        "astId": 455,
        "contract": "contracts/DecaNFT.sol:DecaNFT",
        "label": "trustedRemoteLookup",
        "offset": 0,
        "slot": "1",
        "type": "t_mapping(t_uint16,t_bytes_storage)"
      },
      {
        "astId": 461,
        "contract": "contracts/DecaNFT.sol:DecaNFT",
        "label": "minDstGasLookup",
        "offset": 0,
        "slot": "2",
        "type": "t_mapping(t_uint16,t_mapping(t_uint16,t_uint256))"
      },
      {
        "astId": 465,
        "contract": "contracts/DecaNFT.sol:DecaNFT",
        "label": "payloadSizeLimitLookup",
        "offset": 0,
        "slot": "3",
        "type": "t_mapping(t_uint16,t_uint256)"
      },
      {
        "astId": 467,
        "contract": "contracts/DecaNFT.sol:DecaNFT",
        "label": "precrime",
        "offset": 0,
        "slot": "4",
        "type": "t_address"
      },
      {
        "astId": 997,
        "contract": "contracts/DecaNFT.sol:DecaNFT",
        "label": "failedMessages",
        "offset": 0,
        "slot": "5",
        "type": "t_mapping(t_uint16,t_mapping(t_bytes_memory_ptr,t_mapping(t_uint64,t_bytes32)))"
      },
      {
        "astId": 2503,
        "contract": "contracts/DecaNFT.sol:DecaNFT",
        "label": "_status",
        "offset": 0,
        "slot": "6",
        "type": "t_uint256"
      },
      {
        "astId": 1581,
        "contract": "contracts/DecaNFT.sol:DecaNFT",
        "label": "minGasToTransferAndStore",
        "offset": 0,
        "slot": "7",
        "type": "t_uint256"
      },
      {
        "astId": 1585,
        "contract": "contracts/DecaNFT.sol:DecaNFT",
        "label": "dstChainIdToBatchLimit",
        "offset": 0,
        "slot": "8",
        "type": "t_mapping(t_uint16,t_uint256)"
      },
      {
        "astId": 1589,
        "contract": "contracts/DecaNFT.sol:DecaNFT",
        "label": "dstChainIdToTransferGas",
        "offset": 0,
        "slot": "9",
        "type": "t_mapping(t_uint16,t_uint256)"
      },
      {
        "astId": 1594,
        "contract": "contracts/DecaNFT.sol:DecaNFT",
        "label": "storedCredits",
        "offset": 0,
        "slot": "10",
        "type": "t_mapping(t_bytes32,t_struct(StoredCredit)1579_storage)"
      },
      {
        "astId": 2583,
        "contract": "contracts/DecaNFT.sol:DecaNFT",
        "label": "_name",
        "offset": 0,
        "slot": "11",
        "type": "t_string_storage"
      },
      {
        "astId": 2585,
        "contract": "contracts/DecaNFT.sol:DecaNFT",
        "label": "_symbol",
        "offset": 0,
        "slot": "12",
        "type": "t_string_storage"
      },
      {
        "astId": 2589,
        "contract": "contracts/DecaNFT.sol:DecaNFT",
        "label": "_owners",
        "offset": 0,
        "slot": "13",
        "type": "t_mapping(t_uint256,t_address)"
      },
      {
        "astId": 2593,
        "contract": "contracts/DecaNFT.sol:DecaNFT",
        "label": "_balances",
        "offset": 0,
        "slot": "14",
        "type": "t_mapping(t_address,t_uint256)"
      },
      {
        "astId": 2597,
        "contract": "contracts/DecaNFT.sol:DecaNFT",
        "label": "_tokenApprovals",
        "offset": 0,
        "slot": "15",
        "type": "t_mapping(t_uint256,t_address)"
      },
      {
        "astId": 2603,
        "contract": "contracts/DecaNFT.sol:DecaNFT",
        "label": "_operatorApprovals",
        "offset": 0,
        "slot": "16",
        "type": "t_mapping(t_address,t_mapping(t_address,t_bool))"
      },
      {
        "astId": 3662,
        "contract": "contracts/DecaNFT.sol:DecaNFT",
        "label": "_defaultRoyaltyInfo",
        "offset": 0,
        "slot": "17",
        "type": "t_struct(RoyaltyInfo)3659_storage"
      },
      {
        "astId": 3667,
        "contract": "contracts/DecaNFT.sol:DecaNFT",
        "label": "_tokenRoyaltyInfo",
        "offset": 0,
        "slot": "18",
        "type": "t_mapping(t_uint256,t_struct(RoyaltyInfo)3659_storage)"
      },
      {
        "astId": 5466,
        "contract": "contracts/DecaNFT.sol:DecaNFT",
        "label": "baseTokenURI",
        "offset": 0,
        "slot": "19",
        "type": "t_string_storage"
      },
      {
        "astId": 5468,
        "contract": "contracts/DecaNFT.sol:DecaNFT",
        "label": "prerevealTokenURI",
        "offset": 0,
        "slot": "20",
        "type": "t_string_storage"
      },
      {
        "astId": 5470,
        "contract": "contracts/DecaNFT.sol:DecaNFT",
        "label": "revealed",
        "offset": 0,
        "slot": "21",
        "type": "t_bool"
      },
      {
        "astId": 5472,
        "contract": "contracts/DecaNFT.sol:DecaNFT",
        "label": "whiteListingPeriod",
        "offset": 1,
        "slot": "21",
        "type": "t_bool"
      },
      {
        "astId": 5474,
        "contract": "contracts/DecaNFT.sol:DecaNFT",
        "label": "mintState",
        "offset": 2,
        "slot": "21",
        "type": "t_bool"
      },
      {
        "astId": 5476,
        "contract": "contracts/DecaNFT.sol:DecaNFT",
        "label": "mintLimit",
        "offset": 0,
        "slot": "22",
        "type": "t_uint256"
      },
      {
        "astId": 5478,
        "contract": "contracts/DecaNFT.sol:DecaNFT",
        "label": "totalSupply",
        "offset": 0,
        "slot": "23",
        "type": "t_uint256"
      },
      {
        "astId": 5484,
        "contract": "contracts/DecaNFT.sol:DecaNFT",
        "label": "treasuryMintedCount",
        "offset": 0,
        "slot": "24",
        "type": "t_uint256"
      },
      {
        "astId": 5489,
        "contract": "contracts/DecaNFT.sol:DecaNFT",
        "label": "treasuryAddress",
        "offset": 0,
        "slot": "25",
        "type": "t_address"
      },
      {
        "astId": 5493,
        "contract": "contracts/DecaNFT.sol:DecaNFT",
        "label": "minters",
        "offset": 0,
        "slot": "26",
        "type": "t_mapping(t_address,t_bool)"
      }
    ],
    "types": {
      "t_address": {
        "encoding": "inplace",
        "label": "address",
        "numberOfBytes": "20"
      },
      "t_bool": {
        "encoding": "inplace",
        "label": "bool",
        "numberOfBytes": "1"
      },
      "t_bytes32": {
        "encoding": "inplace",
        "label": "bytes32",
        "numberOfBytes": "32"
      },
      "t_bytes_memory_ptr": {
        "encoding": "bytes",
        "label": "bytes",
        "numberOfBytes": "32"
      },
      "t_bytes_storage": {
        "encoding": "bytes",
        "label": "bytes",
        "numberOfBytes": "32"
      },
      "t_mapping(t_address,t_bool)": {
        "encoding": "mapping",
        "key": "t_address",
        "label": "mapping(address => bool)",
        "numberOfBytes": "32",
        "value": "t_bool"
      },
      "t_mapping(t_address,t_mapping(t_address,t_bool))": {
        "encoding": "mapping",
        "key": "t_address",
        "label": "mapping(address => mapping(address => bool))",
        "numberOfBytes": "32",
        "value": "t_mapping(t_address,t_bool)"
      },
      "t_mapping(t_address,t_uint256)": {
        "encoding": "mapping",
        "key": "t_address",
        "label": "mapping(address => uint256)",
        "numberOfBytes": "32",
        "value": "t_uint256"
      },
      "t_mapping(t_bytes32,t_struct(StoredCredit)1579_storage)": {
        "encoding": "mapping",
        "key": "t_bytes32",
        "label": "mapping(bytes32 => struct ONFT721Core.StoredCredit)",
        "numberOfBytes": "32",
        "value": "t_struct(StoredCredit)1579_storage"
      },
      "t_mapping(t_bytes_memory_ptr,t_mapping(t_uint64,t_bytes32))": {
        "encoding": "mapping",
        "key": "t_bytes_memory_ptr",
        "label": "mapping(bytes => mapping(uint64 => bytes32))",
        "numberOfBytes": "32",
        "value": "t_mapping(t_uint64,t_bytes32)"
      },
      "t_mapping(t_uint16,t_bytes_storage)": {
        "encoding": "mapping",
        "key": "t_uint16",
        "label": "mapping(uint16 => bytes)",
        "numberOfBytes": "32",
        "value": "t_bytes_storage"
      },
      "t_mapping(t_uint16,t_mapping(t_bytes_memory_ptr,t_mapping(t_uint64,t_bytes32)))": {
        "encoding": "mapping",
        "key": "t_uint16",
        "label": "mapping(uint16 => mapping(bytes => mapping(uint64 => bytes32)))",
        "numberOfBytes": "32",
        "value": "t_mapping(t_bytes_memory_ptr,t_mapping(t_uint64,t_bytes32))"
      },
      "t_mapping(t_uint16,t_mapping(t_uint16,t_uint256))": {
        "encoding": "mapping",
        "key": "t_uint16",
        "label": "mapping(uint16 => mapping(uint16 => uint256))",
        "numberOfBytes": "32",
        "value": "t_mapping(t_uint16,t_uint256)"
      },
      "t_mapping(t_uint16,t_uint256)": {
        "encoding": "mapping",
        "key": "t_uint16",
        "label": "mapping(uint16 => uint256)",
        "numberOfBytes": "32",
        "value": "t_uint256"
      },
      "t_mapping(t_uint256,t_address)": {
        "encoding": "mapping",
        "key": "t_uint256",
        "label": "mapping(uint256 => address)",
        "numberOfBytes": "32",
        "value": "t_address"
      },
      "t_mapping(t_uint256,t_struct(RoyaltyInfo)3659_storage)": {
        "encoding": "mapping",
        "key": "t_uint256",
        "label": "mapping(uint256 => struct ERC2981.RoyaltyInfo)",
        "numberOfBytes": "32",
        "value": "t_struct(RoyaltyInfo)3659_storage"
      },
      "t_mapping(t_uint64,t_bytes32)": {
        "encoding": "mapping",
        "key": "t_uint64",
        "label": "mapping(uint64 => bytes32)",
        "numberOfBytes": "32",
        "value": "t_bytes32"
      },
      "t_string_storage": {
        "encoding": "bytes",
        "label": "string",
        "numberOfBytes": "32"
      },
      "t_struct(RoyaltyInfo)3659_storage": {
        "encoding": "inplace",
        "label": "struct ERC2981.RoyaltyInfo",
        "members": [
          {
            "astId": 3656,
            "contract": "contracts/DecaNFT.sol:DecaNFT",
            "label": "receiver",
            "offset": 0,
            "slot": "0",
            "type": "t_address"
          },
          {
            "astId": 3658,
            "contract": "contracts/DecaNFT.sol:DecaNFT",
            "label": "royaltyFraction",
            "offset": 20,
            "slot": "0",
            "type": "t_uint96"
          }
        ],
        "numberOfBytes": "32"
      },
      "t_struct(StoredCredit)1579_storage": {
        "encoding": "inplace",
        "label": "struct ONFT721Core.StoredCredit",
        "members": [
          {
            "astId": 1572,
            "contract": "contracts/DecaNFT.sol:DecaNFT",
            "label": "srcChainId",
            "offset": 0,
            "slot": "0",
            "type": "t_uint16"
          },
          {
            "astId": 1574,
            "contract": "contracts/DecaNFT.sol:DecaNFT",
            "label": "toAddress",
            "offset": 2,
            "slot": "0",
            "type": "t_address"
          },
          {
            "astId": 1576,
            "contract": "contracts/DecaNFT.sol:DecaNFT",
            "label": "index",
            "offset": 0,
            "slot": "1",
            "type": "t_uint256"
          },
          {
            "astId": 1578,
            "contract": "contracts/DecaNFT.sol:DecaNFT",
            "label": "creditsRemain",
            "offset": 0,
            "slot": "2",
            "type": "t_bool"
          }
        ],
        "numberOfBytes": "96"
      },
      "t_uint16": {
        "encoding": "inplace",
        "label": "uint16",
        "numberOfBytes": "2"
      },
      "t_uint256": {
        "encoding": "inplace",
        "label": "uint256",
        "numberOfBytes": "32"
      },
      "t_uint64": {
        "encoding": "inplace",
        "label": "uint64",
        "numberOfBytes": "8"
      },
      "t_uint96": {
        "encoding": "inplace",
        "label": "uint96",
        "numberOfBytes": "12"
      }
    }
  }
}