{
  "address": "0x64FC395Bf05837F664211Cad9d2F4eEB035340ef",
  "abi": [
    {
      "inputs": [
        {
          "internalType": "string",
          "name": "baseURI",
          "type": "string"
        },
        {
          "internalType": "string",
          "name": "_name",
          "type": "string"
        },
        {
          "internalType": "string",
          "name": "_symbol",
          "type": "string"
        },
        {
          "internalType": "uint256",
          "name": "_minGasToStore",
          "type": "uint256"
        },
        {
          "internalType": "address",
          "name": "_lzEndpoint",
          "type": "address"
        }
      ],
      "stateMutability": "nonpayable",
      "type": "constructor"
    },
    {
      "anonymous": false,
      "inputs": [
        {
          "indexed": true,
          "internalType": "address",
          "name": "owner",
          "type": "address"
        },
        {
          "indexed": true,
          "internalType": "address",
          "name": "approved",
          "type": "address"
        },
        {
          "indexed": true,
          "internalType": "uint256",
          "name": "tokenId",
          "type": "uint256"
        }
      ],
      "name": "Approval",
      "type": "event"
    },
    {
      "anonymous": false,
      "inputs": [
        {
          "indexed": true,
          "internalType": "address",
          "name": "owner",
          "type": "address"
        },
        {
          "indexed": true,
          "internalType": "address",
          "name": "operator",
          "type": "address"
        },
        {
          "indexed": false,
          "internalType": "bool",
          "name": "approved",
          "type": "bool"
        }
      ],
      "name": "ApprovalForAll",
      "type": "event"
    },
    {
      "anonymous": false,
      "inputs": [
        {
          "indexed": false,
          "internalType": "bytes32",
          "name": "_hashedPayload",
          "type": "bytes32"
        }
      ],
      "name": "CreditCleared",
      "type": "event"
    },
    {
      "anonymous": false,
      "inputs": [
        {
          "indexed": false,
          "internalType": "bytes32",
          "name": "_hashedPayload",
          "type": "bytes32"
        },
        {
          "indexed": false,
          "internalType": "bytes",
          "name": "_payload",
          "type": "bytes"
        }
      ],
      "name": "CreditStored",
      "type": "event"
    },
    {
      "anonymous": false,
      "inputs": [
        {
          "indexed": false,
          "internalType": "uint16",
          "name": "_srcChainId",
          "type": "uint16"
        },
        {
          "indexed": false,
          "internalType": "bytes",
          "name": "_srcAddress",
          "type": "bytes"
        },
        {
          "indexed": false,
          "internalType": "uint64",
          "name": "_nonce",
          "type": "uint64"
        },
        {
          "indexed": false,
          "internalType": "bytes",
          "name": "_payload",
          "type": "bytes"
        },
        {
          "indexed": false,
          "internalType": "bytes",
          "name": "_reason",
          "type": "bytes"
        }
      ],
      "name": "MessageFailed",
      "type": "event"
    },
    {
      "anonymous": false,
      "inputs": [
        {
          "indexed": true,
          "internalType": "address",
          "name": "recipient",
          "type": "address"
        },
        {
          "indexed": false,
          "internalType": "uint256",
          "name": "quantity",
          "type": "uint256"
        },
        {
          "indexed": false,
          "internalType": "uint256",
          "name": "fromIndex",
          "type": "uint256"
        }
      ],
      "name": "Mint",
      "type": "event"
    },
    {
      "anonymous": false,
      "inputs": [
        {
          "indexed": false,
          "internalType": "bool",
          "name": "state",
          "type": "bool"
        }
      ],
      "name": "MintStateChanged",
      "type": "event"
    },
    {
      "anonymous": false,
      "inputs": [
        {
          "indexed": true,
          "internalType": "address",
          "name": "previousOwner",
          "type": "address"
        },
        {
          "indexed": true,
          "internalType": "address",
          "name": "newOwner",
          "type": "address"
        }
      ],
      "name": "OwnershipTransferred",
      "type": "event"
    },
    {
      "anonymous": false,
      "inputs": [
        {
          "indexed": false,
          "internalType": "address",
          "name": "account",
          "type": "address"
        }
      ],
      "name": "Paused",
      "type": "event"
    },
    {
      "anonymous": false,
      "inputs": [
        {
          "indexed": true,
          "internalType": "uint16",
          "name": "_srcChainId",
          "type": "uint16"
        },
        {
          "indexed": true,
          "internalType": "bytes",
          "name": "_srcAddress",
          "type": "bytes"
        },
        {
          "indexed": true,
          "internalType": "address",
          "name": "_toAddress",
          "type": "address"
        },
        {
          "indexed": false,
          "internalType": "uint256[]",
          "name": "_tokenIds",
          "type": "uint256[]"
        }
      ],
      "name": "ReceiveFromChain",
      "type": "event"
    },
    {
      "anonymous": false,
      "inputs": [
        {
          "indexed": false,
          "internalType": "uint16",
          "name": "_srcChainId",
          "type": "uint16"
        },
        {
          "indexed": false,
          "internalType": "bytes",
          "name": "_srcAddress",
          "type": "bytes"
        },
        {
          "indexed": false,
          "internalType": "uint64",
          "name": "_nonce",
          "type": "uint64"
        },
        {
          "indexed": false,
          "internalType": "bytes32",
          "name": "_payloadHash",
          "type": "bytes32"
        }
      ],
      "name": "RetryMessageSuccess",
      "type": "event"
    },
    {
      "anonymous": false,
      "inputs": [
        {
          "indexed": true,
          "internalType": "uint16",
          "name": "_dstChainId",
          "type": "uint16"
        },
        {
          "indexed": true,
          "internalType": "address",
          "name": "_from",
          "type": "address"
        },
        {
          "indexed": true,
          "internalType": "bytes",
          "name": "_toAddress",
          "type": "bytes"
        },
        {
          "indexed": false,
          "internalType": "uint256[]",
          "name": "_tokenIds",
          "type": "uint256[]"
        }
      ],
      "name": "SendToChain",
      "type": "event"
    },
    {
      "anonymous": false,
      "inputs": [
        {
          "indexed": false,
          "internalType": "uint16",
          "name": "_dstChainId",
          "type": "uint16"
        },
        {
          "indexed": false,
          "internalType": "uint256",
          "name": "_dstChainIdToBatchLimit",
          "type": "uint256"
        }
      ],
      "name": "SetDstChainIdToBatchLimit",
      "type": "event"
    },
    {
      "anonymous": false,
      "inputs": [
        {
          "indexed": false,
          "internalType": "uint16",
          "name": "_dstChainId",
          "type": "uint16"
        },
        {
          "indexed": false,
          "internalType": "uint256",
          "name": "_dstChainIdToTransferGas",
          "type": "uint256"
        }
      ],
      "name": "SetDstChainIdToTransferGas",
      "type": "event"
    },
    {
      "anonymous": false,
      "inputs": [
        {
          "indexed": false,
          "internalType": "uint16",
          "name": "_dstChainId",
          "type": "uint16"
        },
        {
          "indexed": false,
          "internalType": "uint16",
          "name": "_type",
          "type": "uint16"
        },
        {
          "indexed": false,
          "internalType": "uint256",
          "name": "_minDstGas",
          "type": "uint256"
        }
      ],
      "name": "SetMinDstGas",
      "type": "event"
    },
    {
      "anonymous": false,
      "inputs": [
        {
          "indexed": false,
          "internalType": "uint256",
          "name": "_minGasToTransferAndStore",
          "type": "uint256"
        }
      ],
      "name": "SetMinGasToTransferAndStore",
      "type": "event"
    },
    {
      "anonymous": false,
      "inputs": [
        {
          "indexed": false,
          "internalType": "address",
          "name": "precrime",
          "type": "address"
        }
      ],
      "name": "SetPrecrime",
      "type": "event"
    },
    {
      "anonymous": false,
      "inputs": [
        {
          "indexed": false,
          "internalType": "uint16",
          "name": "_remoteChainId",
          "type": "uint16"
        },
        {
          "indexed": false,
          "internalType": "bytes",
          "name": "_path",
          "type": "bytes"
        }
      ],
      "name": "SetTrustedRemote",
      "type": "event"
    },
    {
      "anonymous": false,
      "inputs": [
        {
          "indexed": false,
          "internalType": "uint16",
          "name": "_remoteChainId",
          "type": "uint16"
        },
        {
          "indexed": false,
          "internalType": "bytes",
          "name": "_remoteAddress",
          "type": "bytes"
        }
      ],
      "name": "SetTrustedRemoteAddress",
      "type": "event"
    },
    {
      "anonymous": false,
      "inputs": [
        {
          "indexed": true,
          "internalType": "address",
          "name": "from",
          "type": "address"
        },
        {
          "indexed": true,
          "internalType": "address",
          "name": "to",
          "type": "address"
        },
        {
          "indexed": true,
          "internalType": "uint256",
          "name": "tokenId",
          "type": "uint256"
        }
      ],
      "name": "Transfer",
      "type": "event"
    },
    {
      "anonymous": false,
      "inputs": [
        {
          "indexed": true,
          "internalType": "address",
          "name": "recipient",
          "type": "address"
        },
        {
          "indexed": false,
          "internalType": "uint256",
          "name": "quantity",
          "type": "uint256"
        }
      ],
      "name": "TreasuryMint",
      "type": "event"
    },
    {
      "anonymous": false,
      "inputs": [
        {
          "indexed": false,
          "internalType": "address",
          "name": "account",
          "type": "address"
        }
      ],
      "name": "Unpaused",
      "type": "event"
    },
    {
      "inputs": [],
      "name": "DEFAULT_PAYLOAD_SIZE_LIMIT",
      "outputs": [
        {
          "internalType": "uint256",
          "name": "",
          "type": "uint256"
        }
      ],
      "stateMutability": "view",
      "type": "function"
    },
    {
      "inputs": [],
      "name": "FUNCTION_TYPE_SEND",
      "outputs": [
        {
          "internalType": "uint16",
          "name": "",
          "type": "uint16"
        }
      ],
      "stateMutability": "view",
      "type": "function"
    },
    {
      "inputs": [],
      "name": "MAX_ELEMENTS",
      "outputs": [
        {
          "internalType": "uint256",
          "name": "",
          "type": "uint256"
        }
      ],
      "stateMutability": "view",
      "type": "function"
    },
    {
      "inputs": [
        {
          "internalType": "address",
          "name": "to",
          "type": "address"
        },
        {
          "internalType": "uint256",
          "name": "tokenId",
          "type": "uint256"
        }
      ],
      "name": "approve",
      "outputs": [],
      "stateMutability": "nonpayable",
      "type": "function"
    },
    {
      "inputs": [
        {
          "internalType": "address",
          "name": "owner",
          "type": "address"
        }
      ],
      "name": "balanceOf",
      "outputs": [
        {
          "internalType": "uint256",
          "name": "",
          "type": "uint256"
        }
      ],
      "stateMutability": "view",
      "type": "function"
    },
    {
      "inputs": [],
      "name": "baseTokenURI",
      "outputs": [
        {
          "internalType": "string",
          "name": "",
          "type": "string"
        }
      ],
      "stateMutability": "view",
      "type": "function"
    },
    {
      "inputs": [
        {
          "internalType": "bytes",
          "name": "_payload",
          "type": "bytes"
        }
      ],
      "name": "clearCredits",
      "outputs": [],
      "stateMutability": "nonpayable",
      "type": "function"
    },
    {
      "inputs": [
        {
          "internalType": "uint16",
          "name": "",
          "type": "uint16"
        }
      ],
      "name": "dstChainIdToBatchLimit",
      "outputs": [
        {
          "internalType": "uint256",
          "name": "",
          "type": "uint256"
        }
      ],
      "stateMutability": "view",
      "type": "function"
    },
    {
      "inputs": [
        {
          "internalType": "uint16",
          "name": "",
          "type": "uint16"
        }
      ],
      "name": "dstChainIdToTransferGas",
      "outputs": [
        {
          "internalType": "uint256",
          "name": "",
          "type": "uint256"
        }
      ],
      "stateMutability": "view",
      "type": "function"
    },
    {
      "inputs": [
        {
          "internalType": "bool",
          "name": "_whiteListingPeriod",
          "type": "bool"
        }
      ],
      "name": "enableWhiteListing",
      "outputs": [],
      "stateMutability": "nonpayable",
      "type": "function"
    },
    {
      "inputs": [
        {
          "internalType": "uint16",
          "name": "_dstChainId",
          "type": "uint16"
        },
        {
          "internalType": "bytes",
          "name": "_toAddress",
          "type": "bytes"
        },
        {
          "internalType": "uint256[]",
          "name": "_tokenIds",
          "type": "uint256[]"
        },
        {
          "internalType": "bool",
          "name": "_useZro",
          "type": "bool"
        },
        {
          "internalType": "bytes",
          "name": "_adapterParams",
          "type": "bytes"
        }
      ],
      "name": "estimateSendBatchFee",
      "outputs": [
        {
          "internalType": "uint256",
          "name": "nativeFee",
          "type": "uint256"
        },
        {
          "internalType": "uint256",
          "name": "zroFee",
          "type": "uint256"
        }
      ],
      "stateMutability": "view",
      "type": "function"
    },
    {
      "inputs": [
        {
          "internalType": "uint16",
          "name": "_dstChainId",
          "type": "uint16"
        },
        {
          "internalType": "bytes",
          "name": "_toAddress",
          "type": "bytes"
        },
        {
          "internalType": "uint256",
          "name": "_tokenId",
          "type": "uint256"
        },
        {
          "internalType": "bool",
          "name": "_useZro",
          "type": "bool"
        },
        {
          "internalType": "bytes",
          "name": "_adapterParams",
          "type": "bytes"
        }
      ],
      "name": "estimateSendFee",
      "outputs": [
        {
          "internalType": "uint256",
          "name": "nativeFee",
          "type": "uint256"
        },
        {
          "internalType": "uint256",
          "name": "zroFee",
          "type": "uint256"
        }
      ],
      "stateMutability": "view",
      "type": "function"
    },
    {
      "inputs": [
        {
          "internalType": "uint16",
          "name": "",
          "type": "uint16"
        },
        {
          "internalType": "bytes",
          "name": "",
          "type": "bytes"
        },
        {
          "internalType": "uint64",
          "name": "",
          "type": "uint64"
        }
      ],
      "name": "failedMessages",
      "outputs": [
        {
          "internalType": "bytes32",
          "name": "",
          "type": "bytes32"
        }
      ],
      "stateMutability": "view",
      "type": "function"
    },
    {
      "inputs": [
        {
          "internalType": "uint16",
          "name": "_srcChainId",
          "type": "uint16"
        },
        {
          "internalType": "bytes",
          "name": "_srcAddress",
          "type": "bytes"
        }
      ],
      "name": "forceResumeReceive",
      "outputs": [],
      "stateMutability": "nonpayable",
      "type": "function"
    },
    {
      "inputs": [
        {
          "internalType": "uint256",
          "name": "tokenId",
          "type": "uint256"
        }
      ],
      "name": "getApproved",
      "outputs": [
        {
          "internalType": "address",
          "name": "",
          "type": "address"
        }
      ],
      "stateMutability": "view",
      "type": "function"
    },
    {
      "inputs": [
        {
          "internalType": "uint16",
          "name": "_version",
          "type": "uint16"
        },
        {
          "internalType": "uint16",
          "name": "_chainId",
          "type": "uint16"
        },
        {
          "internalType": "address",
          "name": "",
          "type": "address"
        },
        {
          "internalType": "uint256",
          "name": "_configType",
          "type": "uint256"
        }
      ],
      "name": "getConfig",
      "outputs": [
        {
          "internalType": "bytes",
          "name": "",
          "type": "bytes"
        }
      ],
      "stateMutability": "view",
      "type": "function"
    },
    {
      "inputs": [
        {
          "internalType": "uint16",
          "name": "_remoteChainId",
          "type": "uint16"
        }
      ],
      "name": "getTrustedRemoteAddress",
      "outputs": [
        {
          "internalType": "bytes",
          "name": "",
          "type": "bytes"
        }
      ],
      "stateMutability": "view",
      "type": "function"
    },
    {
      "inputs": [
        {
          "internalType": "address",
          "name": "owner",
          "type": "address"
        },
        {
          "internalType": "address",
          "name": "operator",
          "type": "address"
        }
      ],
      "name": "isApprovedForAll",
      "outputs": [
        {
          "internalType": "bool",
          "name": "",
          "type": "bool"
        }
      ],
      "stateMutability": "view",
      "type": "function"
    },
    {
      "inputs": [
        {
          "internalType": "uint16",
          "name": "_srcChainId",
          "type": "uint16"
        },
        {
          "internalType": "bytes",
          "name": "_srcAddress",
          "type": "bytes"
        }
      ],
      "name": "isTrustedRemote",
      "outputs": [
        {
          "internalType": "bool",
          "name": "",
          "type": "bool"
        }
      ],
      "stateMutability": "view",
      "type": "function"
    },
    {
      "inputs": [],
      "name": "lzEndpoint",
      "outputs": [
        {
          "internalType": "contract ILayerZeroEndpoint",
          "name": "",
          "type": "address"
        }
      ],
      "stateMutability": "view",
      "type": "function"
    },
    {
      "inputs": [
        {
          "internalType": "uint16",
          "name": "_srcChainId",
          "type": "uint16"
        },
        {
          "internalType": "bytes",
          "name": "_srcAddress",
          "type": "bytes"
        },
        {
          "internalType": "uint64",
          "name": "_nonce",
          "type": "uint64"
        },
        {
          "internalType": "bytes",
          "name": "_payload",
          "type": "bytes"
        }
      ],
      "name": "lzReceive",
      "outputs": [],
      "stateMutability": "nonpayable",
      "type": "function"
    },
    {
      "inputs": [
        {
          "internalType": "uint16",
          "name": "",
          "type": "uint16"
        },
        {
          "internalType": "uint16",
          "name": "",
          "type": "uint16"
        }
      ],
      "name": "minDstGasLookup",
      "outputs": [
        {
          "internalType": "uint256",
          "name": "",
          "type": "uint256"
        }
      ],
      "stateMutability": "view",
      "type": "function"
    },
    {
      "inputs": [],
      "name": "minGasToTransferAndStore",
      "outputs": [
        {
          "internalType": "uint256",
          "name": "",
          "type": "uint256"
        }
      ],
      "stateMutability": "view",
      "type": "function"
    },
    {
      "inputs": [
        {
          "internalType": "address",
          "name": "_addr",
          "type": "address"
        },
        {
          "internalType": "uint256",
          "name": "id",
          "type": "uint256"
        }
      ],
      "name": "mint",
      "outputs": [],
      "stateMutability": "payable",
      "type": "function"
    },
    {
      "inputs": [],
      "name": "mintLimit",
      "outputs": [
        {
          "internalType": "uint256",
          "name": "",
          "type": "uint256"
        }
      ],
      "stateMutability": "view",
      "type": "function"
    },
    {
      "inputs": [
        {
          "internalType": "uint256",
          "name": "_quantity",
          "type": "uint256"
        },
        {
          "internalType": "bytes32[]",
          "name": "proof",
          "type": "bytes32[]"
        }
      ],
      "name": "mintNFT",
      "outputs": [],
      "stateMutability": "payable",
      "type": "function"
    },
    {
      "inputs": [],
      "name": "mintPrice",
      "outputs": [
        {
          "internalType": "uint256",
          "name": "",
          "type": "uint256"
        }
      ],
      "stateMutability": "view",
      "type": "function"
    },
    {
      "inputs": [],
      "name": "mintState",
      "outputs": [
        {
          "internalType": "bool",
          "name": "",
          "type": "bool"
        }
      ],
      "stateMutability": "view",
      "type": "function"
    },
    {
      "inputs": [],
      "name": "name",
      "outputs": [
        {
          "internalType": "string",
          "name": "",
          "type": "string"
        }
      ],
      "stateMutability": "view",
      "type": "function"
    },
    {
      "inputs": [
        {
          "internalType": "uint16",
          "name": "_srcChainId",
          "type": "uint16"
        },
        {
          "internalType": "bytes",
          "name": "_srcAddress",
          "type": "bytes"
        },
        {
          "internalType": "uint64",
          "name": "_nonce",
          "type": "uint64"
        },
        {
          "internalType": "bytes",
          "name": "_payload",
          "type": "bytes"
        }
      ],
      "name": "nonblockingLzReceive",
      "outputs": [],
      "stateMutability": "nonpayable",
      "type": "function"
    },
    {
      "inputs": [],
      "name": "owner",
      "outputs": [
        {
          "internalType": "address",
          "name": "",
          "type": "address"
        }
      ],
      "stateMutability": "view",
      "type": "function"
    },
    {
      "inputs": [
        {
          "internalType": "uint256",
          "name": "tokenId",
          "type": "uint256"
        }
      ],
      "name": "ownerOf",
      "outputs": [
        {
          "internalType": "address",
          "name": "",
          "type": "address"
        }
      ],
      "stateMutability": "view",
      "type": "function"
    },
    {
      "inputs": [],
      "name": "pause",
      "outputs": [],
      "stateMutability": "nonpayable",
      "type": "function"
    },
    {
      "inputs": [],
      "name": "paused",
      "outputs": [
        {
          "internalType": "bool",
          "name": "",
          "type": "bool"
        }
      ],
      "stateMutability": "view",
      "type": "function"
    },
    {
      "inputs": [
        {
          "internalType": "uint16",
          "name": "",
          "type": "uint16"
        }
      ],
      "name": "payloadSizeLimitLookup",
      "outputs": [
        {
          "internalType": "uint256",
          "name": "",
          "type": "uint256"
        }
      ],
      "stateMutability": "view",
      "type": "function"
    },
    {
      "inputs": [],
      "name": "precrime",
      "outputs": [
        {
          "internalType": "address",
          "name": "",
          "type": "address"
        }
      ],
      "stateMutability": "view",
      "type": "function"
    },
    {
      "inputs": [],
      "name": "prerevealTokenURI",
      "outputs": [
        {
          "internalType": "string",
          "name": "",
          "type": "string"
        }
      ],
      "stateMutability": "view",
      "type": "function"
    },
    {
      "inputs": [],
      "name": "renounceOwnership",
      "outputs": [],
      "stateMutability": "nonpayable",
      "type": "function"
    },
    {
      "inputs": [
        {
          "internalType": "uint16",
          "name": "_srcChainId",
          "type": "uint16"
        },
        {
          "internalType": "bytes",
          "name": "_srcAddress",
          "type": "bytes"
        },
        {
          "internalType": "uint64",
          "name": "_nonce",
          "type": "uint64"
        },
        {
          "internalType": "bytes",
          "name": "_payload",
          "type": "bytes"
        }
      ],
      "name": "retryMessage",
      "outputs": [],
      "stateMutability": "payable",
      "type": "function"
    },
    {
      "inputs": [],
      "name": "revealed",
      "outputs": [
        {
          "internalType": "bool",
          "name": "",
          "type": "bool"
        }
      ],
      "stateMutability": "view",
      "type": "function"
    },
    {
      "inputs": [
        {
          "internalType": "uint256",
          "name": "tokenId",
          "type": "uint256"
        },
        {
          "internalType": "uint256",
          "name": "salePrice",
          "type": "uint256"
        }
      ],
      "name": "royaltyInfo",
      "outputs": [
        {
          "internalType": "address",
          "name": "",
          "type": "address"
        },
        {
          "internalType": "uint256",
          "name": "",
          "type": "uint256"
        }
      ],
      "stateMutability": "view",
      "type": "function"
    },
    {
      "inputs": [
        {
          "internalType": "address",
          "name": "from",
          "type": "address"
        },
        {
          "internalType": "address",
          "name": "to",
          "type": "address"
        },
        {
          "internalType": "uint256",
          "name": "tokenId",
          "type": "uint256"
        }
      ],
      "name": "safeTransferFrom",
      "outputs": [],
      "stateMutability": "nonpayable",
      "type": "function"
    },
    {
      "inputs": [
        {
          "internalType": "address",
          "name": "from",
          "type": "address"
        },
        {
          "internalType": "address",
          "name": "to",
          "type": "address"
        },
        {
          "internalType": "uint256",
          "name": "tokenId",
          "type": "uint256"
        },
        {
          "internalType": "bytes",
          "name": "data",
          "type": "bytes"
        }
      ],
      "name": "safeTransferFrom",
      "outputs": [],
      "stateMutability": "nonpayable",
      "type": "function"
    },
    {
      "inputs": [
        {
          "internalType": "address",
          "name": "_from",
          "type": "address"
        },
        {
          "internalType": "uint16",
          "name": "_dstChainId",
          "type": "uint16"
        },
        {
          "internalType": "bytes",
          "name": "_toAddress",
          "type": "bytes"
        },
        {
          "internalType": "uint256[]",
          "name": "_tokenIds",
          "type": "uint256[]"
        },
        {
          "internalType": "address payable",
          "name": "_refundAddress",
          "type": "address"
        },
        {
          "internalType": "address",
          "name": "_zroPaymentAddress",
          "type": "address"
        },
        {
          "internalType": "bytes",
          "name": "_adapterParams",
          "type": "bytes"
        }
      ],
      "name": "sendBatchFrom",
      "outputs": [],
      "stateMutability": "payable",
      "type": "function"
    },
    {
      "inputs": [
        {
          "internalType": "address",
          "name": "_from",
          "type": "address"
        },
        {
          "internalType": "uint16",
          "name": "_dstChainId",
          "type": "uint16"
        },
        {
          "internalType": "bytes",
          "name": "_toAddress",
          "type": "bytes"
        },
        {
          "internalType": "uint256",
          "name": "_tokenId",
          "type": "uint256"
        },
        {
          "internalType": "address payable",
          "name": "_refundAddress",
          "type": "address"
        },
        {
          "internalType": "address",
          "name": "_zroPaymentAddress",
          "type": "address"
        },
        {
          "internalType": "bytes",
          "name": "_adapterParams",
          "type": "bytes"
        }
      ],
      "name": "sendFrom",
      "outputs": [],
      "stateMutability": "payable",
      "type": "function"
    },
    {
      "inputs": [
        {
          "internalType": "address",
          "name": "operator",
          "type": "address"
        },
        {
          "internalType": "bool",
          "name": "approved",
          "type": "bool"
        }
      ],
      "name": "setApprovalForAll",
      "outputs": [],
      "stateMutability": "nonpayable",
      "type": "function"
    },
    {
      "inputs": [
        {
          "internalType": "string",
          "name": "baseURI",
          "type": "string"
        }
      ],
      "name": "setBaseURI",
      "outputs": [],
      "stateMutability": "nonpayable",
      "type": "function"
    },
    {
      "inputs": [
        {
          "internalType": "uint16",
          "name": "_version",
          "type": "uint16"
        },
        {
          "internalType": "uint16",
          "name": "_chainId",
          "type": "uint16"
        },
        {
          "internalType": "uint256",
          "name": "_configType",
          "type": "uint256"
        },
        {
          "internalType": "bytes",
          "name": "_config",
          "type": "bytes"
        }
      ],
      "name": "setConfig",
      "outputs": [],
      "stateMutability": "nonpayable",
      "type": "function"
    },
    {
      "inputs": [
        {
          "internalType": "address",
          "name": "receiver",
          "type": "address"
        },
        {
          "internalType": "uint96",
          "name": "feeNumerator",
          "type": "uint96"
        }
      ],
      "name": "setDefaultRoyalty",
      "outputs": [],
      "stateMutability": "nonpayable",
      "type": "function"
    },
    {
      "inputs": [
        {
          "internalType": "uint16",
          "name": "_dstChainId",
          "type": "uint16"
        },
        {
          "internalType": "uint256",
          "name": "_dstChainIdToBatchLimit",
          "type": "uint256"
        }
      ],
      "name": "setDstChainIdToBatchLimit",
      "outputs": [],
      "stateMutability": "nonpayable",
      "type": "function"
    },
    {
      "inputs": [
        {
          "internalType": "uint16",
          "name": "_dstChainId",
          "type": "uint16"
        },
        {
          "internalType": "uint256",
          "name": "_dstChainIdToTransferGas",
          "type": "uint256"
        }
      ],
      "name": "setDstChainIdToTransferGas",
      "outputs": [],
      "stateMutability": "nonpayable",
      "type": "function"
    },
    {
      "inputs": [
        {
          "internalType": "bytes32",
          "name": "newRoot",
          "type": "bytes32"
        }
      ],
      "name": "setMerkleRoot",
      "outputs": [
        {
          "internalType": "bytes32",
          "name": "",
          "type": "bytes32"
        }
      ],
      "stateMutability": "nonpayable",
      "type": "function"
    },
    {
      "inputs": [
        {
          "internalType": "uint16",
          "name": "_dstChainId",
          "type": "uint16"
        },
        {
          "internalType": "uint16",
          "name": "_packetType",
          "type": "uint16"
        },
        {
          "internalType": "uint256",
          "name": "_minGas",
          "type": "uint256"
        }
      ],
      "name": "setMinDstGas",
      "outputs": [],
      "stateMutability": "nonpayable",
      "type": "function"
    },
    {
      "inputs": [
        {
          "internalType": "uint256",
          "name": "_minGasToTransferAndStore",
          "type": "uint256"
        }
      ],
      "name": "setMinGasToTransferAndStore",
      "outputs": [],
      "stateMutability": "nonpayable",
      "type": "function"
    },
    {
      "inputs": [
        {
          "internalType": "uint256",
          "name": "_mintLimit",
          "type": "uint256"
        }
      ],
      "name": "setMintLimit",
      "outputs": [],
      "stateMutability": "nonpayable",
      "type": "function"
    },
    {
      "inputs": [
        {
          "internalType": "uint256",
          "name": "_price",
          "type": "uint256"
        }
      ],
      "name": "setMintPrice",
      "outputs": [],
      "stateMutability": "nonpayable",
      "type": "function"
    },
    {
      "inputs": [
        {
          "internalType": "bool",
          "name": "_mintState",
          "type": "bool"
        }
      ],
      "name": "setMintState",
      "outputs": [],
      "stateMutability": "nonpayable",
      "type": "function"
    },
    {
      "inputs": [
        {
          "internalType": "uint16",
          "name": "_dstChainId",
          "type": "uint16"
        },
        {
          "internalType": "uint256",
          "name": "_size",
          "type": "uint256"
        }
      ],
      "name": "setPayloadSizeLimit",
      "outputs": [],
      "stateMutability": "nonpayable",
      "type": "function"
    },
    {
      "inputs": [
        {
          "internalType": "address",
          "name": "_precrime",
          "type": "address"
        }
      ],
      "name": "setPrecrime",
      "outputs": [],
      "stateMutability": "nonpayable",
      "type": "function"
    },
    {
      "inputs": [
        {
          "internalType": "string",
          "name": "prerevealURI",
          "type": "string"
        }
      ],
      "name": "setPrerevealTokenURI",
      "outputs": [],
      "stateMutability": "nonpayable",
      "type": "function"
    },
    {
      "inputs": [
        {
          "internalType": "uint16",
          "name": "_version",
          "type": "uint16"
        }
      ],
      "name": "setReceiveVersion",
      "outputs": [],
      "stateMutability": "nonpayable",
      "type": "function"
    },
    {
      "inputs": [
        {
          "internalType": "bool",
          "name": "_revealed",
          "type": "bool"
        }
      ],
      "name": "setRevealed",
      "outputs": [],
      "stateMutability": "nonpayable",
      "type": "function"
    },
    {
      "inputs": [
        {
          "internalType": "uint16",
          "name": "_version",
          "type": "uint16"
        }
      ],
      "name": "setSendVersion",
      "outputs": [],
      "stateMutability": "nonpayable",
      "type": "function"
    },
    {
      "inputs": [
        {
          "internalType": "uint256",
          "name": "_startTokenId",
          "type": "uint256"
        }
      ],
      "name": "setStartTokenId",
      "outputs": [],
      "stateMutability": "nonpayable",
      "type": "function"
    },
    {
      "inputs": [
        {
          "internalType": "address",
          "name": "_treasuryAddress",
          "type": "address"
        }
      ],
      "name": "setTreasuryAddress",
      "outputs": [],
      "stateMutability": "nonpayable",
      "type": "function"
    },
    {
      "inputs": [
        {
          "internalType": "uint16",
          "name": "_remoteChainId",
          "type": "uint16"
        },
        {
          "internalType": "bytes",
          "name": "_path",
          "type": "bytes"
        }
      ],
      "name": "setTrustedRemote",
      "outputs": [],
      "stateMutability": "nonpayable",
      "type": "function"
    },
    {
      "inputs": [
        {
          "internalType": "uint16",
          "name": "_remoteChainId",
          "type": "uint16"
        },
        {
          "internalType": "bytes",
          "name": "_remoteAddress",
          "type": "bytes"
        }
      ],
      "name": "setTrustedRemoteAddress",
      "outputs": [],
      "stateMutability": "nonpayable",
      "type": "function"
    },
    {
      "inputs": [],
      "name": "startTokenId",
      "outputs": [
        {
          "internalType": "uint256",
          "name": "",
          "type": "uint256"
        }
      ],
      "stateMutability": "view",
      "type": "function"
    },
    {
      "inputs": [
        {
          "internalType": "bytes32",
          "name": "",
          "type": "bytes32"
        }
      ],
      "name": "storedCredits",
      "outputs": [
        {
          "internalType": "uint16",
          "name": "srcChainId",
          "type": "uint16"
        },
        {
          "internalType": "address",
          "name": "toAddress",
          "type": "address"
        },
        {
          "internalType": "uint256",
          "name": "index",
          "type": "uint256"
        },
        {
          "internalType": "bool",
          "name": "creditsRemain",
          "type": "bool"
        }
      ],
      "stateMutability": "view",
      "type": "function"
    },
    {
      "inputs": [
        {
          "internalType": "bytes4",
          "name": "interfaceId",
          "type": "bytes4"
        }
      ],
      "name": "supportsInterface",
      "outputs": [
        {
          "internalType": "bool",
          "name": "",
          "type": "bool"
        }
      ],
      "stateMutability": "view",
      "type": "function"
    },
    {
      "inputs": [],
      "name": "symbol",
      "outputs": [
        {
          "internalType": "string",
          "name": "",
          "type": "string"
        }
      ],
      "stateMutability": "view",
      "type": "function"
    },
    {
      "inputs": [
        {
          "internalType": "uint256",
          "name": "tokenId",
          "type": "uint256"
        }
      ],
      "name": "tokenURI",
      "outputs": [
        {
          "internalType": "string",
          "name": "",
          "type": "string"
        }
      ],
      "stateMutability": "view",
      "type": "function"
    },
    {
      "inputs": [],
      "name": "totalSupply",
      "outputs": [
        {
          "internalType": "uint256",
          "name": "",
          "type": "uint256"
        }
      ],
      "stateMutability": "view",
      "type": "function"
    },
    {
      "inputs": [
        {
          "internalType": "address",
          "name": "from",
          "type": "address"
        },
        {
          "internalType": "address",
          "name": "to",
          "type": "address"
        },
        {
          "internalType": "uint256",
          "name": "tokenId",
          "type": "uint256"
        }
      ],
      "name": "transferFrom",
      "outputs": [],
      "stateMutability": "nonpayable",
      "type": "function"
    },
    {
      "inputs": [
        {
          "internalType": "address",
          "name": "newOwner",
          "type": "address"
        }
      ],
      "name": "transferOwnership",
      "outputs": [],
      "stateMutability": "nonpayable",
      "type": "function"
    },
    {
      "inputs": [],
      "name": "treasuryAddress",
      "outputs": [
        {
          "internalType": "address",
          "name": "",
          "type": "address"
        }
      ],
      "stateMutability": "view",
      "type": "function"
    },
    {
      "inputs": [
        {
          "internalType": "uint256",
          "name": "_quantity",
          "type": "uint256"
        }
      ],
      "name": "treasuryMint",
      "outputs": [],
      "stateMutability": "nonpayable",
      "type": "function"
    },
    {
      "inputs": [],
      "name": "treasuryMintedCount",
      "outputs": [
        {
          "internalType": "uint256",
          "name": "",
          "type": "uint256"
        }
      ],
      "stateMutability": "view",
      "type": "function"
    },
    {
      "inputs": [
        {
          "internalType": "uint16",
          "name": "",
          "type": "uint16"
        }
      ],
      "name": "trustedRemoteLookup",
      "outputs": [
        {
          "internalType": "bytes",
          "name": "",
          "type": "bytes"
        }
      ],
      "stateMutability": "view",
      "type": "function"
    },
    {
      "inputs": [],
      "name": "unpause",
      "outputs": [],
      "stateMutability": "nonpayable",
      "type": "function"
    },
    {
      "inputs": [
        {
          "internalType": "bytes32[]",
          "name": "_merkleProof",
          "type": "bytes32[]"
        },
        {
          "internalType": "address",
          "name": "addr",
          "type": "address"
        }
      ],
      "name": "validateAddress",
      "outputs": [
        {
          "internalType": "bool",
          "name": "",
          "type": "bool"
        }
      ],
      "stateMutability": "view",
      "type": "function"
    },
    {
      "inputs": [
        {
          "internalType": "address",
          "name": "_owner",
          "type": "address"
        }
      ],
      "name": "walletOfOwner",
      "outputs": [
        {
          "internalType": "uint256[]",
          "name": "",
          "type": "uint256[]"
        }
      ],
      "stateMutability": "view",
      "type": "function"
    },
    {
      "inputs": [],
      "name": "whiteListingPeriod",
      "outputs": [
        {
          "internalType": "bool",
          "name": "",
          "type": "bool"
        }
      ],
      "stateMutability": "view",
      "type": "function"
    }
  ],
  "transactionHash": "0x36c1fe66d975e9f21a0d34d47ea8964f35ba9fddca8c00d1d2660ff8eecdc1ef",
  "args": [
    "",
    "DecaNFT",
    "DNFT",
    100000,
    "0xbfD2135BFfbb0B5378b56643c2Df8a87552Bfa23"
  ],
  "numDeployments": 1,
  "solcInputHash": "5f379cc58589e7a431a213acb818d399",
  "bytecode": "0x60a06040526017805462ff00001916620100001790556000601c553480156200002757600080fd5b5060405162005eba38038062005eba8339810160408190526200004a9162000357565b838383838383838380806200005f336200012d565b60601b6001600160601b03191660805250600160065581620000d45760405162461bcd60e51b8152602060048201526024808201527f6d696e476173546f5472616e73666572416e6453746f7265206d7573742062656044820152630203e20360e41b60648201526084015b60405180910390fd5b506007558151620000ed90600b906020850190620001fe565b5080516200010390600c906020840190620001fe565b50506013805460ff1916905550620001229350889250506200017d9050565b505050505062000464565b600080546001600160a01b038381166001600160a01b0319831681178455604051919092169283917f8be0079c531659141344cd1fd0a4f28419497f9722a3daafe3b4186f6b6457e09190a35050565b62000187620001a0565b80516200019c906015906020840190620001fe565b5050565b6000546001600160a01b03163314620001fc5760405162461bcd60e51b815260206004820181905260248201527f4f776e61626c653a2063616c6c6572206973206e6f7420746865206f776e65726044820152606401620000cb565b565b8280546200020c9062000411565b90600052602060002090601f0160209004810192826200023057600085556200027b565b82601f106200024b57805160ff19168380011785556200027b565b828001600101855582156200027b579182015b828111156200027b5782518255916020019190600101906200025e565b50620002899291506200028d565b5090565b5b808211156200028957600081556001016200028e565b600082601f830112620002b5578081fd5b81516001600160401b0380821115620002d257620002d26200044e565b604051601f8301601f19908116603f01168101908282118183101715620002fd57620002fd6200044e565b8160405283815260209250868385880101111562000319578485fd5b8491505b838210156200033c57858201830151818301840152908201906200031d565b838211156200034d57848385830101525b9695505050505050565b600080600080600060a086880312156200036f578081fd5b85516001600160401b038082111562000386578283fd5b6200039489838a01620002a4565b96506020880151915080821115620003aa578283fd5b620003b889838a01620002a4565b95506040880151915080821115620003ce578283fd5b50620003dd88828901620002a4565b60608801516080890151919550935090506001600160a01b038116811462000403578182fd5b809150509295509295909350565b600181811c908216806200042657607f821691505b602082108114156200044857634e487b7160e01b600052602260045260246000fd5b50919050565b634e487b7160e01b600052604160045260246000fd5b60805160601c6159f8620004c260003960008181610c6101528181610fad015281816112c401528181611549015281816117d7015281816118d6015281816123ec01528181612da401528181612f00015261420101526159f86000f3fe6080604052600436106104935760003560e01c80638456cb5911610260578063c87b56dd11610144578063e985e9c5116100c1578063f4a0a52811610085578063f4a0a52814610ee9578063f4ad0f9714610f09578063f5ecbdbc14610f1e578063f68dcaa214610f3e578063f769572d14610f5d578063fa25f9b614610f7d57600080fd5b8063e985e9c514610e20578063eb8d72b714610e69578063efdc778814610e89578063f235364114610ea9578063f2fde38b14610ec957600080fd5b8063d547cfb711610108578063d547cfb714610da2578063d62fd29614610db7578063df2a5b3b14610dca578063e0a8085314610dea578063e6798baa14610e0a57600080fd5b8063c87b56dd14610d19578063cbed8b9c14610d39578063d0aa0a0d14610d59578063d12473a514610d6f578063d1deba1f14610d8f57600080fd5b8063a22cb465116101dd578063b353aaa7116101a1578063b353aaa714610c4f578063b88d4fde14610c83578063baf3292d14610ca3578063c051e38a14610cc3578063c446183414610ce3578063c5f956af14610cf957600080fd5b8063a22cb46514610bb4578063a6c3d16514610bd4578063ab3ffb9314610bf4578063af3fb21c14610c07578063b09d28cc14610c2f57600080fd5b806395d89b411161022457806395d89b4114610b29578063996517cf14610b3e5780639e6a1d7d14610b545780639ea5d6b114610b745780639f38369a14610b9457600080fd5b80638456cb5914610a7e5780638cfd8f5c14610a935780638da5cb5b14610acb5780638ffa1f2a14610ae9578063950c8a7414610b0957600080fd5b80633f4ba83a1161038757806355f804b31161030457806366ad5c8a116102c857806366ad5c8a146109d35780636817c76c146109f357806370a0823114610a09578063715018a614610a295780637533d78814610a3e5780637cb6475914610a5e57600080fd5b806355f804b31461090c5780635b8c41e61461092c5780635c975abb1461097b5780636352211e146109935780636605bfda146109b357600080fd5b8063482881901161034b578063482881901461087c5780634ac3f4ff146108925780634cf64173146108bf57806351830227146108df57806351905636146108f957600080fd5b80633f4ba83a146107e757806340c10f19146107fc57806342842e0e1461080f57806342d65a8d1461082f578063438b63001461084f57600080fd5b806318160ddd116104155780632a55205a116103d95780632a55205a146107255780632dfd8fae146107645780633502a716146107845780633d8b38f61461079a5780633f1f4fa4146107ba57600080fd5b806318160ddd1461060957806322a3ecf91461062d57806323b872dd146106b057806326412aca146106d05780632a205e3d146106f057600080fd5b8063081812fc1161045c578063081812fc14610551578063095ea7b3146105895780630b4cad4c146105a95780630df37483146105c957806310ddb137146105e957600080fd5b80621d35671461049857806301ffc9a7146104ba57806304634d8d146104ef57806306fdde031461050f57806307e0db1714610531575b600080fd5b3480156104a457600080fd5b506104b86104b3366004614fe4565b610faa565b005b3480156104c657600080fd5b506104da6104d5366004614dde565b6111db565b60405190151581526020015b60405180910390f35b3480156104fb57600080fd5b506104b861050a366004614d30565b6111fb565b34801561051b57600080fd5b50610524611211565b6040516104e69190615508565b34801561053d57600080fd5b506104b861054c366004614f7a565b6112a3565b34801561055d57600080fd5b5061057161056c366004614dc6565b61132c565b6040516001600160a01b0390911681526020016104e6565b34801561059557600080fd5b506104b86105a4366004614d05565b611353565b3480156105b557600080fd5b506104b86105c4366004614dc6565b611469565b3480156105d557600080fd5b506104b86105e43660046152ec565b611509565b3480156105f557600080fd5b506104b8610604366004614f7a565b611528565b34801561061557600080fd5b5061061f601b5481565b6040519081526020016104e6565b34801561063957600080fd5b50610681610648366004614dc6565b600a6020526000908152604090208054600182015460029092015461ffff821692620100009092046001600160a01b0316919060ff1684565b6040805161ffff90951685526001600160a01b03909316602085015291830152151560608201526080016104e6565b3480156106bc57600080fd5b506104b86106cb366004614ac1565b611580565b3480156106dc57600080fd5b506104b86106eb366004614dac565b6115b2565b3480156106fc57600080fd5b5061071061070b366004615119565b61160d565b604080519283526020830191909152016104e6565b34801561073157600080fd5b5061074561074036600461534b565b611633565b604080516001600160a01b0390931683526020830191909152016104e6565b34801561077057600080fd5b506104b861077f366004614dc6565b6116e1565b34801561079057600080fd5b5061061f6107e881565b3480156107a657600080fd5b506104da6107b5366004614f94565b6116ee565b3480156107c657600080fd5b5061061f6107d5366004614f7a565b60036020526000908152604090205481565b3480156107f357600080fd5b506104b86117ba565b6104b861080a366004614d05565b6117d4565b34801561081b57600080fd5b506104b861082a366004614ac1565b61189c565b34801561083b57600080fd5b506104b861084a366004614f94565b6118b7565b34801561085b57600080fd5b5061086f61086a366004614a6d565b61193d565b6040516104e691906154dc565b34801561088857600080fd5b5061061f60075481565b34801561089e57600080fd5b5061061f6108ad366004614f7a565b60086020526000908152604090205481565b3480156108cb57600080fd5b506104da6108da366004614d68565b611a4f565b3480156108eb57600080fd5b506017546104da9060ff1681565b6104b8610907366004614c6b565b611aa0565b34801561091857600080fd5b506104b8610927366004614f35565b611ab7565b34801561093857600080fd5b5061061f610947366004615175565b6005602090815260009384526040808520845180860184018051928152908401958401959095209452929052825290205481565b34801561098757600080fd5b5060135460ff166104da565b34801561099f57600080fd5b506105716109ae366004614dc6565b611ad2565b3480156109bf57600080fd5b506104b86109ce366004614a6d565b611b32565b3480156109df57600080fd5b506104b86109ee366004614fe4565b611b5c565b3480156109ff57600080fd5b5061061f601a5481565b348015610a1557600080fd5b5061061f610a24366004614a6d565b611c38565b348015610a3557600080fd5b506104b8611cbe565b348015610a4a57600080fd5b50610524610a59366004614f7a565b611cd0565b348015610a6a57600080fd5b5061061f610a79366004614dc6565b611d6a565b348015610a8a57600080fd5b506104b8611d81565b348015610a9f57600080fd5b5061061f610aae3660046151d0565b600260209081526000928352604080842090915290825290205481565b348015610ad757600080fd5b506000546001600160a01b0316610571565b348015610af557600080fd5b506104b8610b04366004614e16565b611d99565b348015610b1557600080fd5b50600454610571906001600160a01b031681565b348015610b3557600080fd5b50610524611fe5565b348015610b4a57600080fd5b5061061f60195481565b348015610b6057600080fd5b506104b8610b6f366004614dc6565b611ff4565b348015610b8057600080fd5b506104b8610b8f3660046152ec565b612001565b348015610ba057600080fd5b50610524610baf366004614f7a565b6120b8565b348015610bc057600080fd5b506104b8610bcf366004614b6a565b6121cf565b348015610be057600080fd5b506104b8610bef366004614f94565b6121da565b6104b8610c02366004614b9e565b61226d565b348015610c1357600080fd5b50610c1c600181565b60405161ffff90911681526020016104e6565b348015610c3b57600080fd5b506104b8610c4a366004614f35565b61227c565b348015610c5b57600080fd5b506105717f000000000000000000000000000000000000000000000000000000000000000081565b348015610c8f57600080fd5b506104b8610c9e366004614b01565b612297565b348015610caf57600080fd5b506104b8610cbe366004614a6d565b6122cf565b348015610ccf57600080fd5b506017546104da9062010000900460ff1681565b348015610cef57600080fd5b5061061f61271081565b348015610d0557600080fd5b50601d54610571906001600160a01b031681565b348015610d2557600080fd5b50610524610d34366004614dc6565b612325565b348015610d4557600080fd5b506104b8610d54366004615280565b6123cd565b348015610d6557600080fd5b5061061f601c5481565b348015610d7b57600080fd5b506104b8610d8a3660046152ec565b612462565b6104b8610d9d366004614fe4565b612512565b348015610dae57600080fd5b50610524612728565b6104b8610dc5366004615307565b612735565b348015610dd657600080fd5b506104b8610de5366004615245565b612a0f565b348015610df657600080fd5b506104b8610e05366004614dac565b612a79565b348015610e1657600080fd5b5061061f60185481565b348015610e2c57600080fd5b506104da610e3b366004614a89565b6001600160a01b03918216600090815260106020908152604080832093909416825291909152205460ff1690565b348015610e7557600080fd5b506104b8610e84366004614f94565b612a94565b348015610e9557600080fd5b506104b8610ea4366004614dc6565b612aee565b348015610eb557600080fd5b50610710610ec4366004615074565b612d65565b348015610ed557600080fd5b506104b8610ee4366004614a6d565b612e3f565b348015610ef557600080fd5b506104b8610f04366004614dc6565b612eb5565b348015610f1557600080fd5b50610524612ec2565b348015610f2a57600080fd5b50610524610f393660046151f9565b612ecf565b348015610f4a57600080fd5b506017546104da90610100900460ff1681565b348015610f6957600080fd5b506104b8610f78366004614dac565b612f8f565b348015610f8957600080fd5b5061061f610f98366004614f7a565b60096020526000908152604090205481565b337f00000000000000000000000000000000000000000000000000000000000000006001600160a01b0316146110275760405162461bcd60e51b815260206004820152601e60248201527f4c7a4170703a20696e76616c696420656e64706f696e742063616c6c6572000060448201526064015b60405180910390fd5b61ffff86166000908152600160205260408120805461104590615915565b80601f016020809104026020016040519081016040528092919081815260200182805461107190615915565b80156110be5780601f10611093576101008083540402835291602001916110be565b820191906000526020600020905b8154815290600101906020018083116110a157829003601f168201915b505050505090508051868690501480156110d9575060008151115b80156111015750805160208201206040516110f7908890889061541e565b6040518091039020145b61115c5760405162461bcd60e51b815260206004820152602660248201527f4c7a4170703a20696e76616c696420736f757263652073656e64696e6720636f6044820152651b9d1c9858dd60d21b606482015260840161101e565b6111d28787878080601f01602080910402602001604051908101604052809392919081815260200183838082843760009201919091525050604080516020601f8a018190048102820181019092528881528a935091508890889081908401838280828437600092019190915250612fb192505050565b50505050505050565b60006111e68261302a565b806111f557506111f58261306a565b92915050565b61120361308f565b61120d82826130e9565b5050565b6060600b805461122090615915565b80601f016020809104026020016040519081016040528092919081815260200182805461124c90615915565b80156112995780601f1061126e57610100808354040283529160200191611299565b820191906000526020600020905b81548152906001019060200180831161127c57829003601f168201915b5050505050905090565b6112ab61308f565b6040516307e0db1760e01b815261ffff821660048201527f00000000000000000000000000000000000000000000000000000000000000006001600160a01b0316906307e0db17906024015b600060405180830381600087803b15801561131157600080fd5b505af1158015611325573d6000803e3d6000fd5b5050505050565b6000611337826131e6565b506000908152600f60205260409020546001600160a01b031690565b600061135e82611ad2565b9050806001600160a01b0316836001600160a01b031614156113cc5760405162461bcd60e51b815260206004820152602160248201527f4552433732313a20617070726f76616c20746f2063757272656e74206f776e656044820152603960f91b606482015260840161101e565b336001600160a01b03821614806113e857506113e88133610e3b565b61145a5760405162461bcd60e51b815260206004820152603d60248201527f4552433732313a20617070726f76652063616c6c6572206973206e6f7420746f60448201527f6b656e206f776e6572206f7220617070726f76656420666f7220616c6c000000606482015260840161101e565b6114648383613236565b505050565b61147161308f565b600081116114cd5760405162461bcd60e51b8152602060048201526024808201527f6d696e476173546f5472616e73666572416e6453746f7265206d7573742062656044820152630203e20360e41b606482015260840161101e565b60078190556040518181527ffebbc4f8bb9ec2313950c718d43123124b15778efda4c1f1d529de2995b4f34d906020015b60405180910390a150565b61151161308f565b61ffff909116600090815260036020526040902055565b61153061308f565b6040516310ddb13760e01b815261ffff821660048201527f00000000000000000000000000000000000000000000000000000000000000006001600160a01b0316906310ddb137906024016112f7565b61158b335b826132a4565b6115a75760405162461bcd60e51b815260040161101e90615540565b611464838383613322565b6115ba61308f565b6017805462ff00001916620100008315158102919091179182905560405160ff9190920416151581527f992fe84c8bbd52855b22035907ca1f9e1d6bcbb390bc81150808e8443d01668c906020016114fe565b600080611625878761161e88613486565b8787612d65565b915091509550959350505050565b60008281526012602090815260408083208151808301909252546001600160a01b038116808352600160a01b9091046001600160601b03169282019290925282916116a85750604080518082019091526011546001600160a01b0381168252600160a01b90046001600160601b031660208201525b6020810151600090612710906116c7906001600160601b0316876158b3565b6116d19190615893565b91519350909150505b9250929050565b6116e961308f565b601855565b61ffff83166000908152600160205260408120805482919061170f90615915565b80601f016020809104026020016040519081016040528092919081815260200182805461173b90615915565b80156117885780601f1061175d57610100808354040283529160200191611788565b820191906000526020600020905b81548152906001019060200180831161176b57829003601f168201915b50505050509050838360405161179f92919061541e565b60405180910390208180519060200120149150509392505050565b6117c261308f565b6117ca6134df565b6117d2613528565b565b337f00000000000000000000000000000000000000000000000000000000000000006001600160a01b0316148061181557506000546001600160a01b031633145b6118795760405162461bcd60e51b815260206004820152602f60248201527f4f6e6c79206f776e657220616e6420656e64706f696e74732063616e2063616c60448201526e36103a3434b990333ab731ba34b7b760891b606482015260840161101e565b611883828261357a565b601b805490600061189383615950565b91905055505050565b61146483838360405180602001604052806000815250612297565b6118bf61308f565b6040516342d65a8d60e01b81526001600160a01b037f000000000000000000000000000000000000000000000000000000000000000016906342d65a8d9061190f90869086908690600401615678565b600060405180830381600087803b15801561192957600080fd5b505af11580156111d2573d6000803e3d6000fd5b6060600061194a83611c38565b90506000816001600160401b0381111561197457634e487b7160e01b600052604160045260246000fd5b60405190808252806020026020018201604052801561199d578160200160208202803683370190505b509050816119ac579392505050565b600060015b6107e88111611a45576119c381613594565b80156119e85750856001600160a01b03166119dd82611ad2565b6001600160a01b0316145b15611a335780838381518110611a0e57634e487b7160e01b600052603260045260246000fd5b602090810291909101015281611a2381615950565b92505083821415611a3357611a45565b80611a3d81615950565b9150506119b1565b5090949350505050565b6040516bffffffffffffffffffffffff19606083901b1660208201526000908190603401604051602081830303815290604052805190602001209050611a9884601454836135b1565b949350505050565b6111d2878787611aaf88613486565b8787876135c7565b611abf61308f565b805161120d9060159060208401906147d3565b6000818152600d60205260408120546001600160a01b0316806111f55760405162461bcd60e51b8152602060048201526018602482015277115490cdcc8c4e881a5b9d985b1a59081d1bdad95b88125160421b604482015260640161101e565b611b3a61308f565b601d80546001600160a01b0319166001600160a01b0392909216919091179055565b333014611bba5760405162461bcd60e51b815260206004820152602660248201527f4e6f6e626c6f636b696e674c7a4170703a2063616c6c6572206d7573742062656044820152650204c7a4170760d41b606482015260840161101e565b611c308686868080601f01602080910402602001604051908101604052809392919081815260200183838082843760009201919091525050604080516020601f8901819004810282018101909252878152899350915087908790819084018382808284376000920191909152506137a992505050565b505050505050565b60006001600160a01b038216611ca25760405162461bcd60e51b815260206004820152602960248201527f4552433732313a2061646472657373207a65726f206973206e6f7420612076616044820152683634b21037bbb732b960b91b606482015260840161101e565b506001600160a01b03166000908152600e602052604090205490565b611cc661308f565b6117d26000613900565b60016020526000908152604090208054611ce990615915565b80601f0160208091040260200160405190810160405280929190818152602001828054611d1590615915565b8015611d625780601f10611d3757610100808354040283529160200191611d62565b820191906000526020600020905b815481529060010190602001808311611d4557829003601f168201915b505050505081565b6000611d7461308f565b506014819055805b919050565b611d8961308f565b611d91613950565b6117d2613996565b611da16139d3565b80516020808301919091206000818152600a90925260409091206002015460ff16611e025760405162461bcd60e51b81526020600482015260116024820152701b9bc818dc99591a5d1cc81cdd1bdc9959607a1b604482015260640161101e565b600082806020019051810190611e189190614e7a565b6000848152600a602052604081208054600190910154929450909250611e549161ffff8216916201000090046001600160a01b03169085613a2d565b6000848152600a60205260409020600101549091508111611ec95760405162461bcd60e51b815260206004820152602960248201527f6e6f7420656e6f7567682067617320746f2070726f6365737320637265646974604482015268103a3930b739b332b960b91b606482015260840161101e565b8151811415611f41576000838152600a602052604080822080546001600160b01b031916815560018101929092556002909101805460ff19169055517fd7be02b8dd0d27bd0517a9cb4d7469ce27df4313821ae5ec1ff69acc594ba23390611f349085815260200190565b60405180910390a1611fd5565b604080516080810182526000858152600a6020818152848320805461ffff80821687526001600160a01b03620100008084048216868a019081529989018b8152600160608b01818152998f90529790965297519851169096026001600160b01b03199091169690951695909517939093178455915191830191909155516002909101805491151560ff199092169190911790555b505050611fe26001600655565b50565b6060600c805461122090615915565b611ffc61308f565b601955565b61200961308f565b600081116120645760405162461bcd60e51b815260206004820152602260248201527f647374436861696e4964546f42617463684c696d6974206d757374206265203e604482015261020360f41b606482015260840161101e565b61ffff8216600081815260086020908152604091829020849055815192835282018390527f7315f7654d594ead24a30160ed9ba2d23247f543016b918343591e93d7afdb6d91015b60405180910390a15050565b61ffff81166000908152600160205260408120805460609291906120db90615915565b80601f016020809104026020016040519081016040528092919081815260200182805461210790615915565b80156121545780601f1061212957610100808354040283529160200191612154565b820191906000526020600020905b81548152906001019060200180831161213757829003601f168201915b505050505090508051600014156121ad5760405162461bcd60e51b815260206004820152601d60248201527f4c7a4170703a206e6f20747275737465642070617468207265636f7264000000604482015260640161101e565b6121c86000601483516121c091906158d2565b839190613a8d565b9392505050565b61120d338383613b9a565b6121e261308f565b8181306040516020016121f79392919061542e565b60408051601f1981840301815291815261ffff8516600090815260016020908152919020825161222c939192909101906147d3565b507f8c0400cfe2d1199b1a725c78960bcc2a344d869b80590d0f2bd005db15a572ce83838360405161226093929190615678565b60405180910390a1505050565b6111d2878787878787876135c7565b61228461308f565b805161120d9060169060208401906147d3565b6122a133836132a4565b6122bd5760405162461bcd60e51b815260040161101e90615540565b6122c984848484613c69565b50505050565b6122d761308f565b600480546001600160a01b0319166001600160a01b0383169081179091556040519081527f5db758e995a17ec1ad84bdef7e8c3293a0bd6179bcce400dff5d4c3d87db726b906020016114fe565b60175460609060ff166123c4576016805461233f90615915565b80601f016020809104026020016040519081016040528092919081815260200182805461236b90615915565b80156123b85780601f1061238d576101008083540402835291602001916123b8565b820191906000526020600020905b81548152906001019060200180831161239b57829003601f168201915b50505050509050919050565b6111f582613c9c565b6123d561308f565b6040516332fb62e760e21b81526001600160a01b037f0000000000000000000000000000000000000000000000000000000000000000169063cbed8b9c9061242990889088908890889088906004016157d3565b600060405180830381600087803b15801561244357600080fd5b505af1158015612457573d6000803e3d6000fd5b505050505050505050565b61246a61308f565b600081116124c65760405162461bcd60e51b815260206004820152602360248201527f647374436861696e4964546f5472616e73666572476173206d7573742062652060448201526203e20360ec1b606482015260840161101e565b61ffff8216600081815260096020908152604091829020849055815192835282018390527fc46df2983228ac2d9754e94a0d565e6671665dc8ad38602bc8e544f0685a29fb91016120ac565b61ffff86166000908152600560205260408082209051612535908890889061541e565b90815260408051602092819003830190206001600160401b038716600090815292529020549050806125b55760405162461bcd60e51b815260206004820152602360248201527f4e6f6e626c6f636b696e674c7a4170703a206e6f2073746f726564206d65737360448201526261676560e81b606482015260840161101e565b8083836040516125c692919061541e565b6040518091039020146126255760405162461bcd60e51b815260206004820152602160248201527f4e6f6e626c6f636b696e674c7a4170703a20696e76616c6964207061796c6f616044820152601960fa1b606482015260840161101e565b61ffff87166000908152600560205260408082209051612648908990899061541e565b90815260408051602092819003830181206001600160401b038916600090815290845282902093909355601f880182900482028301820190528682526126e0918991899089908190840183828082843760009201919091525050604080516020601f8a018190048102820181019092528881528a9350915088908890819084018382808284376000920191909152506137a992505050565b7fc264d91f3adc5588250e1551f547752ca0cfa8f6b530d243b9f9f4cab10ea8e58787878785604051612717959493929190615696565b60405180910390a150505050505050565b60158054611ce990615915565b61273d613950565b601b54336127536000546001600160a01b031690565b6001600160a01b0316336001600160a01b0316148061277f575083601a5461277b91906158b3565b3410155b6127cb5760405162461bcd60e51b815260206004820152601f60248201527f4d7573742073656e642072657175697265642065746820746f206d696e742e00604482015260640161101e565b600084116128165760405162461bcd60e51b815260206004820152601860248201527728bab0b73a34ba3c9031b0b73737ba103132903d32b9379760411b604482015260640161101e565b60175462010000900460ff166128675760405162461bcd60e51b815260206004820152601660248201527526b4b73a1034b9903737ba1030bb30b4b630b136329760511b604482015260640161101e565b6107e8612874858461587b565b11156128be5760405162461bcd60e51b81526020600482015260196024820152782932b0b1b432b21036b0bc103a37ba30b61039bab838363c9760391b604482015260640161101e565b60195415806128cf57506019548411155b6129125760405162461bcd60e51b815260206004820152601460248201527326b4b73a103634b6b4ba1032bc31b2b2b232b21760611b604482015260640161101e565b601754610100900460ff161561296f5761292c8333611a4f565b151560011461296f5760405162461bcd60e51b815260206004820152600f60248201526e24b73b30b634b21036b4b73a32b91760891b604482015260640161101e565b60015b8481116129ad5761299b82828560185461298c919061587b565b612996919061587b565b61357a565b806129a581615950565b915050612972565b5083601b60008282546129c0919061587b565b909155505060408051858152602081018490526001600160a01b038316917f4c209b5fc8ad50758f13e2e1088ba56a560dff690a1c6fef26394f4c03821c4f910160405180910390a250505050565b612a1761308f565b61ffff83811660008181526002602090815260408083209487168084529482529182902085905581519283528201929092529081018290527f9d5c7c0b934da8fefa9c7760c98383778a12dfbfc0c3b3106518f43fb9508ac090606001612260565b612a8161308f565b6017805460ff1916911515919091179055565b612a9c61308f565b61ffff83166000908152600160205260409020612aba908383614857565b507ffa41487ad5d6728f0b19276fa1eddc16558578f5109fc39d2dc33c3230470dab83838360405161226093929190615678565b612af661308f565b601d546001600160a01b0316612b595760405162461bcd60e51b815260206004820152602260248201527f547265617375727920416464726573732073686f756c64206265207365742075604482015261381760f11b606482015260840161101e565b601b5481612ba45760405162461bcd60e51b815260206004820152601860248201527728bab0b73a34ba3c9031b0b73737ba103132903d32b9379760411b604482015260640161101e565b6107e8612bb1838361587b565b1115612bfb5760405162461bcd60e51b81526020600482015260196024820152782932b0b1b432b21036b0bc103a37ba30b61039bab838363c9760391b604482015260640161101e565b606482601c54612c0b919061587b565b1115612c595760405162461bcd60e51b815260206004820152601c60248201527f52656163686564207472656173757279206d696e74206c696d69742e00000000604482015260640161101e565b6019541580612c6a57506019548211155b612cad5760405162461bcd60e51b815260206004820152601460248201527326b4b73a103634b6b4ba1032bc31b2b2b232b21760611b604482015260640161101e565b60015b828111612cea57601d54601854612cd8916001600160a01b031690839061298c90869061587b565b80612ce281615950565b915050612cb0565b5081601b6000828254612cfd919061587b565b9091555050601d5460408051848152602081018490526001600160a01b03909216917f4c209b5fc8ad50758f13e2e1088ba56a560dff690a1c6fef26394f4c03821c4f910160405180910390a281601c6000828254612d5c919061587b565b90915550505050565b60008060008686604051602001612d7d92919061551b565b60408051601f198184030181529082905263040a7bb160e41b825291506001600160a01b037f000000000000000000000000000000000000000000000000000000000000000016906340a7bb1090612de1908b90309086908b908b90600401615624565b604080518083038186803b158015612df857600080fd5b505afa158015612e0c573d6000803e3d6000fd5b505050506040513d601f19601f82011682018060405250810190612e30919061536c565b92509250509550959350505050565b612e4761308f565b6001600160a01b038116612eac5760405162461bcd60e51b815260206004820152602660248201527f4f776e61626c653a206e6577206f776e657220697320746865207a65726f206160448201526564647265737360d01b606482015260840161101e565b611fe281613900565b612ebd61308f565b601a55565b60168054611ce990615915565b604051633d7b2f6f60e21b815261ffff808616600483015284166024820152306044820152606481018290526060907f00000000000000000000000000000000000000000000000000000000000000006001600160a01b03169063f5ecbdbc9060840160006040518083038186803b158015612f4a57600080fd5b505afa158015612f5e573d6000803e3d6000fd5b505050506040513d6000823e601f3d908101601f19168201604052612f869190810190614e48565b95945050505050565b612f9761308f565b601780549115156101000261ff0019909216919091179055565b6000806130145a60966366ad5c8a60e01b89898989604051602401612fd99493929190615738565b60408051601f198184030181529190526020810180516001600160e01b03166001600160e01b03199093169290921790915230929190613d02565b9150915081611c3057611c308686868685613d9a565b60006001600160e01b031982166380ac58cd60e01b148061305b57506001600160e01b03198216635b5e139f60e01b145b806111f557506111f582613e37565b60006001600160e01b0319821663152a902d60e11b14806111f557506111f582613e6c565b6000546001600160a01b031633146117d25760405162461bcd60e51b815260206004820181905260248201527f4f776e61626c653a2063616c6c6572206973206e6f7420746865206f776e6572604482015260640161101e565b6127106001600160601b03821611156131575760405162461bcd60e51b815260206004820152602a60248201527f455243323938313a20726f79616c7479206665652077696c6c206578636565646044820152692073616c65507269636560b01b606482015260840161101e565b6001600160a01b0382166131ad5760405162461bcd60e51b815260206004820152601960248201527f455243323938313a20696e76616c696420726563656976657200000000000000604482015260640161101e565b604080518082019091526001600160a01b039092168083526001600160601b039091166020909201829052600160a01b90910217601155565b6131ef81613594565b611fe25760405162461bcd60e51b8152602060048201526018602482015277115490cdcc8c4e881a5b9d985b1a59081d1bdad95b88125160421b604482015260640161101e565b6000818152600f6020526040902080546001600160a01b0319166001600160a01b038416908117909155819061326b82611ad2565b6001600160a01b03167f8c5be1e5ebec7d5bd14f71427d1e84f3dd0314c0f7b2291e5b200ac8c7c3b92560405160405180910390a45050565b6000806132b083611ad2565b9050806001600160a01b0316846001600160a01b031614806132f757506001600160a01b0380821660009081526010602090815260408083209388168352929052205460ff165b80611a985750836001600160a01b03166133108461132c565b6001600160a01b031614949350505050565b826001600160a01b031661333582611ad2565b6001600160a01b03161461335b5760405162461bcd60e51b815260040161101e906155df565b6001600160a01b0382166133bd5760405162461bcd60e51b8152602060048201526024808201527f4552433732313a207472616e7366657220746f20746865207a65726f206164646044820152637265737360e01b606482015260840161101e565b826001600160a01b03166133d082611ad2565b6001600160a01b0316146133f65760405162461bcd60e51b815260040161101e906155df565b6000818152600f6020908152604080832080546001600160a01b03199081169091556001600160a01b03878116808652600e8552838620805460001901905590871680865283862080546001019055868652600d90945282852080549092168417909155905184937fddf252ad1be2c89b69c2b068fc378daa952ba7f163c4a11628f55a4df523b3ef91a4505050565b604080516001808252818301909252606091600091906020808301908036833701905050905082816000815181106134ce57634e487b7160e01b600052603260045260246000fd5b602090810291909101015292915050565b60135460ff166117d25760405162461bcd60e51b815260206004820152601460248201527314185d5cd8589b194e881b9bdd081c185d5cd95960621b604482015260640161101e565b6135306134df565b6013805460ff191690557f5db9ee0a495bf2e6ff9c91a7834c1ba4fdd244a5e8aa4e537bd38aeae4b073aa335b6040516001600160a01b03909116815260200160405180910390a1565b61120d828260405180602001604052806000815250613e89565b6000908152600d60205260409020546001600160a01b0316151590565b6000826135be8584613ebc565b14949350505050565b600084511161360e5760405162461bcd60e51b8152602060048201526013602482015272746f6b656e4964735b5d20697320656d70747960681b604482015260640161101e565b835160011480613632575061ffff8616600090815260086020526040902054845111155b6136895760405162461bcd60e51b815260206004820152602260248201527f62617463682073697a65206578636565647320647374206261746368206c696d6044820152611a5d60f21b606482015260840161101e565b60005b84518110156136da576136c88888888885815181106136bb57634e487b7160e01b600052603260045260246000fd5b6020026020010151613f17565b806136d281615950565b91505061368c565b50600085856040516020016136f092919061551b565b6040516020818303038152906040529050613735876001848851600960008d61ffff1661ffff1681526020019081526020016000205461373091906158b3565b614002565b6137438782868686346140d7565b856040516137519190615454565b6040518091039020886001600160a01b03168861ffff167fe1b87c47fdeb4f9cbadbca9df3af7aba453bb6e501075d0440d88125b711522a8860405161379791906154dc565b60405180910390a45050505050505050565b600080828060200190518101906137c09190614e7a565b6014820151919350915060006137d888838386613a2d565b905082518110156138ac5784516020808701919091206040805160808101825261ffff808d1682526001600160a01b038088168387019081528385018881526001606086018181526000898152600a909a529887902095518654935190941662010000026001600160b01b03199093169390941692909217178355519082015592516002909301805493151560ff199094169390931790925590517f10e0b70d256bccc84b7027506978bd8b68984a870788b93b479def144c839ad7906138a290839089906154ef565b60405180910390a1505b816001600160a01b0316876040516138c49190615454565b60405180910390208961ffff167f5b821db8a46f8ecbe1941ba2f51cfeea9643268b56631f70d45e2a745d9902658660405161379791906154dc565b600080546001600160a01b038381166001600160a01b0319831681178455604051919092169283917f8be0079c531659141344cd1fd0a4f28419497f9722a3daafe3b4186f6b6457e09190a35050565b60135460ff16156117d25760405162461bcd60e51b815260206004820152601060248201526f14185d5cd8589b194e881c185d5cd95960821b604482015260640161101e565b61399e613950565b6013805460ff191660011790557f62e78cea01bee320cd4e420270b5ea74000d11b0c9f74754ebdbfc544b05a25861355d3390565b60026006541415613a265760405162461bcd60e51b815260206004820152601f60248201527f5265656e7472616e637947756172643a207265656e7472616e742063616c6c00604482015260640161101e565b6002600655565b6000825b8251811015612f86576007545a1015613a4957612f86565b613a7b8686858481518110613a6e57634e487b7160e01b600052603260045260246000fd5b602002602001015161427d565b80613a8581615950565b915050613a31565b606081613a9b81601f61587b565b1015613ada5760405162461bcd60e51b815260206004820152600e60248201526d736c6963655f6f766572666c6f7760901b604482015260640161101e565b613ae4828461587b565b84511015613b285760405162461bcd60e51b8152602060048201526011602482015270736c6963655f6f75744f66426f756e647360781b604482015260640161101e565b606082158015613b475760405191506000825260208201604052613b91565b6040519150601f8416801560200281840101858101878315602002848b0101015b81831015613b80578051835260209283019201613b68565b5050858452601f01601f1916604052505b50949350505050565b816001600160a01b0316836001600160a01b03161415613bfc5760405162461bcd60e51b815260206004820152601960248201527f4552433732313a20617070726f766520746f2063616c6c657200000000000000604482015260640161101e565b6001600160a01b03838116600081815260106020908152604080832094871680845294825291829020805460ff191686151590811790915591519182527f17307eab39ab6107e8899845ad3d59bd9653f200f220920489ca2b5937696c31910160405180910390a3505050565b613c74848484613322565b613c80848484846142dd565b6122c95760405162461bcd60e51b815260040161101e9061558d565b6060613ca7826131e6565b6000613cb16143e7565b90506000815111613cd157604051806020016040528060008152506121c8565b80613cdb846143f6565b604051602001613cec929190615470565b6040516020818303038152906040529392505050565b6000606060008060008661ffff166001600160401b03811115613d3557634e487b7160e01b600052604160045260246000fd5b6040519080825280601f01601f191660200182016040528015613d5f576020820181803683370190505b50905060008087516020890160008d8df191503d925086831115613d81578692505b828152826000602083013e909890975095505050505050565b8180519060200120600560008761ffff1661ffff16815260200190815260200160002085604051613dcb9190615454565b9081526040805191829003602090810183206001600160401b0388166000908152915220919091557fe183f33de2837795525b4792ca4cd60535bd77c53b7e7030060bfcf5734d6b0c90613e289087908790879087908790615781565b60405180910390a15050505050565b60006001600160e01b031982166322bac5d960e01b14806111f557506301ffc9a760e01b6001600160e01b03198316146111f5565b60006001600160e01b0319821615806111f557506111f58261302a565b613e938383614498565b613ea060008484846142dd565b6114645760405162461bcd60e51b815260040161101e9061558d565b600081815b8451811015613f0f57613efb82868381518110613eee57634e487b7160e01b600052603260045260246000fd5b6020026020010151614605565b915080613f0781615950565b915050613ec1565b509392505050565b613f2033611585565b613f835760405162461bcd60e51b815260206004820152602e60248201527f4f4e46543732313a2073656e642063616c6c6572206973206e6f74206f776e6560448201526d1c881b9bdc88185c1c1c9bdd995960921b606482015260840161101e565b836001600160a01b0316613f9682611ad2565b6001600160a01b031614613ff75760405162461bcd60e51b815260206004820152602260248201527f4f4e46543732313a2073656e642066726f6d20696e636f7272656374206f776e60448201526132b960f11b606482015260840161101e565b6122c9843083613322565b600061400d83614631565b61ffff8087166000908152600260209081526040808320938916835292905220549091508061407e5760405162461bcd60e51b815260206004820152601a60248201527f4c7a4170703a206d696e4761734c696d6974206e6f7420736574000000000000604482015260640161101e565b614088838261587b565b821015611c305760405162461bcd60e51b815260206004820152601b60248201527f4c7a4170703a20676173206c696d697420697320746f6f206c6f770000000000604482015260640161101e565b61ffff8616600090815260016020526040812080546140f590615915565b80601f016020809104026020016040519081016040528092919081815260200182805461412190615915565b801561416e5780601f106141435761010080835404028352916020019161416e565b820191906000526020600020905b81548152906001019060200180831161415157829003601f168201915b505050505090508051600014156141e05760405162461bcd60e51b815260206004820152603060248201527f4c7a4170703a2064657374696e6174696f6e20636861696e206973206e6f742060448201526f61207472757374656420736f7572636560801b606482015260840161101e565b6141eb87875161468d565b60405162c5803160e81b81526001600160a01b037f0000000000000000000000000000000000000000000000000000000000000000169063c5803100908490614242908b9086908c908c908c908c906004016156d1565b6000604051808303818588803b15801561425b57600080fd5b505af115801561426f573d6000803e3d6000fd5b505050505050505050505050565b61428681613594565b15806142b2575061429681613594565b80156142b25750306142a782611ad2565b6001600160a01b0316145b6142bb57600080fd5b6142c481613594565b6142d257611464828261357a565b611464308383613322565b60006001600160a01b0384163b156143df57604051630a85bd0160e11b81526001600160a01b0385169063150b7a029061432190339089908890889060040161549f565b602060405180830381600087803b15801561433b57600080fd5b505af192505050801561436b575060408051601f3d908101601f1916820190925261436891810190614dfa565b60015b6143c5573d808015614399576040519150601f19603f3d011682016040523d82523d6000602084013e61439e565b606091505b5080516143bd5760405162461bcd60e51b815260040161101e9061558d565b805181602001fd5b6001600160e01b031916630a85bd0160e11b149050611a98565b506001611a98565b60606015805461122090615915565b60606000614403836146fb565b60010190506000816001600160401b0381111561443057634e487b7160e01b600052604160045260246000fd5b6040519080825280601f01601f19166020018201604052801561445a576020820181803683370190505b5090508181016020015b600019016f181899199a1a9b1b9c1cb0b131b232b360811b600a86061a8153600a850494508461449357613f0f565b614464565b6001600160a01b0382166144ee5760405162461bcd60e51b815260206004820181905260248201527f4552433732313a206d696e7420746f20746865207a65726f2061646472657373604482015260640161101e565b6144f781613594565b156145445760405162461bcd60e51b815260206004820152601c60248201527f4552433732313a20746f6b656e20616c7265616479206d696e74656400000000604482015260640161101e565b61454d81613594565b1561459a5760405162461bcd60e51b815260206004820152601c60248201527f4552433732313a20746f6b656e20616c7265616479206d696e74656400000000604482015260640161101e565b6001600160a01b0382166000818152600e6020908152604080832080546001019055848352600d90915280822080546001600160a01b0319168417905551839291907fddf252ad1be2c89b69c2b068fc378daa952ba7f163c4a11628f55a4df523b3ef908290a45050565b60008183106146215760008281526020849052604090206121c8565b5060009182526020526040902090565b60006022825110156146855760405162461bcd60e51b815260206004820152601c60248201527f4c7a4170703a20696e76616c69642061646170746572506172616d7300000000604482015260640161101e565b506022015190565b61ffff8216600090815260036020526040902054806146ab57506127105b808211156114645760405162461bcd60e51b815260206004820181905260248201527f4c7a4170703a207061796c6f61642073697a6520697320746f6f206c61726765604482015260640161101e565b60008072184f03e93ff9f4daa797ed6e38ed64bf6a1f0160401b831061473a5772184f03e93ff9f4daa797ed6e38ed64bf6a1f0160401b830492506040015b6d04ee2d6d415b85acef81000000008310614766576d04ee2d6d415b85acef8100000000830492506020015b662386f26fc10000831061478457662386f26fc10000830492506010015b6305f5e100831061479c576305f5e100830492506008015b61271083106147b057612710830492506004015b606483106147c2576064830492506002015b600a83106111f55760010192915050565b8280546147df90615915565b90600052602060002090601f0160209004810192826148015760008555614847565b82601f1061481a57805160ff1916838001178555614847565b82800160010185558215614847579182015b8281111561484757825182559160200191906001019061482c565b506148539291506148cb565b5090565b82805461486390615915565b90600052602060002090601f0160209004810192826148855760008555614847565b82601f1061489e5782800160ff19823516178555614847565b82800160010185558215614847579182015b828111156148475782358255916020019190600101906148b0565b5b8082111561485357600081556001016148cc565b60006148f36148ee84615854565b615801565b905082815283838301111561490757600080fd5b828260208301376000602084830101529392505050565b8035611d7c81615997565b600082601f830112614939578081fd5b813560206149496148ee83615831565b80838252828201915082860187848660051b8901011115614968578586fd5b855b858110156149865781358452928401929084019060010161496a565b5090979650505050505050565b80358015158114611d7c57600080fd5b60008083601f8401126149b4578182fd5b5081356001600160401b038111156149ca578182fd5b6020830191508360208285010111156116da57600080fd5b600082601f8301126149f2578081fd5b6121c8838335602085016148e0565b600082601f830112614a11578081fd5b8151614a1f6148ee82615854565b818152846020838601011115614a33578283fd5b611a988260208301602087016158e9565b803561ffff81168114611d7c57600080fd5b80356001600160401b0381168114611d7c57600080fd5b600060208284031215614a7e578081fd5b81356121c881615997565b60008060408385031215614a9b578081fd5b8235614aa681615997565b91506020830135614ab681615997565b809150509250929050565b600080600060608486031215614ad5578081fd5b8335614ae081615997565b92506020840135614af081615997565b929592945050506040919091013590565b60008060008060808587031215614b16578182fd5b8435614b2181615997565b93506020850135614b3181615997565b92506040850135915060608501356001600160401b03811115614b52578182fd5b614b5e878288016149e2565b91505092959194509250565b60008060408385031215614b7c578182fd5b8235614b8781615997565b9150614b9560208401614993565b90509250929050565b600080600080600080600060e0888a031215614bb8578485fd5b8735614bc381615997565b9650614bd160208901614a44565b955060408801356001600160401b0380821115614bec578687fd5b614bf88b838c016149e2565b965060608a0135915080821115614c0d578485fd5b614c198b838c01614929565b955060808a01359150614c2b82615997565b819450614c3a60a08b0161491e565b935060c08a0135915080821115614c4f578283fd5b50614c5c8a828b016149e2565b91505092959891949750929550565b600080600080600080600060e0888a031215614c85578081fd5b8735614c9081615997565b9650614c9e60208901614a44565b955060408801356001600160401b0380821115614cb9578283fd5b614cc58b838c016149e2565b965060608a0135955060808a01359150614cde82615997565b90935060a089013590614cf082615997565b90925060c08901359080821115614c4f578283fd5b60008060408385031215614d17578182fd5b8235614d2281615997565b946020939093013593505050565b60008060408385031215614d42578182fd5b8235614d4d81615997565b915060208301356001600160601b0381168114614ab6578182fd5b60008060408385031215614d7a578182fd5b82356001600160401b03811115614d8f578283fd5b614d9b85828601614929565b9250506020830135614ab681615997565b600060208284031215614dbd578081fd5b6121c882614993565b600060208284031215614dd7578081fd5b5035919050565b600060208284031215614def578081fd5b81356121c8816159ac565b600060208284031215614e0b578081fd5b81516121c8816159ac565b600060208284031215614e27578081fd5b81356001600160401b03811115614e3c578182fd5b611a98848285016149e2565b600060208284031215614e59578081fd5b81516001600160401b03811115614e6e578182fd5b611a9884828501614a01565b60008060408385031215614e8c578182fd5b82516001600160401b0380821115614ea2578384fd5b614eae86838701614a01565b9350602091508185015181811115614ec4578384fd5b85019050601f81018613614ed6578283fd5b8051614ee46148ee82615831565b80828252848201915084840189868560051b8701011115614f03578687fd5b8694505b83851015614f25578051835260019490940193918501918501614f07565b5080955050505050509250929050565b600060208284031215614f46578081fd5b81356001600160401b03811115614f5b578182fd5b8201601f81018413614f6b578182fd5b611a98848235602084016148e0565b600060208284031215614f8b578081fd5b6121c882614a44565b600080600060408486031215614fa8578081fd5b614fb184614a44565b925060208401356001600160401b03811115614fcb578182fd5b614fd7868287016149a3565b9497909650939450505050565b60008060008060008060808789031215614ffc578384fd5b61500587614a44565b955060208701356001600160401b0380821115615020578586fd5b61502c8a838b016149a3565b909750955085915061504060408a01614a56565b94506060890135915080821115615055578384fd5b5061506289828a016149a3565b979a9699509497509295939492505050565b600080600080600060a0868803121561508b578283fd5b61509486614a44565b945060208601356001600160401b03808211156150af578485fd5b6150bb89838a016149e2565b955060408801359150808211156150d0578485fd5b6150dc89838a01614929565b94506150ea60608901614993565b935060808801359150808211156150ff578283fd5b5061510c888289016149e2565b9150509295509295909350565b600080600080600060a08688031215615130578283fd5b61513986614a44565b945060208601356001600160401b0380821115615154578485fd5b61516089838a016149e2565b9550604088013594506150ea60608901614993565b600080600060608486031215615189578081fd5b61519284614a44565b925060208401356001600160401b038111156151ac578182fd5b6151b8868287016149e2565b9250506151c760408501614a56565b90509250925092565b600080604083850312156151e2578182fd5b6151eb83614a44565b9150614b9560208401614a44565b6000806000806080858703121561520e578182fd5b61521785614a44565b935061522560208601614a44565b9250604085013561523581615997565b9396929550929360600135925050565b600080600060608486031215615259578081fd5b61526284614a44565b925061527060208501614a44565b9150604084013590509250925092565b600080600080600060808688031215615297578283fd5b6152a086614a44565b94506152ae60208701614a44565b93506040860135925060608601356001600160401b038111156152cf578182fd5b6152db888289016149a3565b969995985093965092949392505050565b600080604083850312156152fe578182fd5b614d2283614a44565b60008060408385031215615319578182fd5b8235915060208301356001600160401b03811115615335578182fd5b61534185828601614929565b9150509250929050565b6000806040838503121561535d578182fd5b50508035926020909101359150565b6000806040838503121561537e578182fd5b505080516020909101519092909150565b6000815180845260208085019450808401835b838110156153be578151875295820195908201906001016153a2565b509495945050505050565b81835281816020850137506000828201602090810191909152601f909101601f19169091010190565b6000815180845261540a8160208601602086016158e9565b601f01601f19169290920160200192915050565b8183823760009101908152919050565b8284823760609190911b6bffffffffffffffffffffffff19169101908152601401919050565b600082516154668184602087016158e9565b9190910192915050565b600083516154828184602088016158e9565b8351908301906154968183602088016158e9565b01949350505050565b6001600160a01b03858116825284166020820152604081018390526080606082018190526000906154d2908301846153f2565b9695505050505050565b6020815260006121c8602083018461538f565b828152604060208201526000611a9860408301846153f2565b6020815260006121c860208301846153f2565b60408152600061552e60408301856153f2565b8281036020840152612f86818561538f565b6020808252602d908201527f4552433732313a2063616c6c6572206973206e6f7420746f6b656e206f776e6560408201526c1c881bdc88185c1c1c9bdd9959609a1b606082015260800190565b60208082526032908201527f4552433732313a207472616e7366657220746f206e6f6e20455243373231526560408201527131b2b4bb32b91034b6b83632b6b2b73a32b960711b606082015260800190565b60208082526025908201527f4552433732313a207472616e736665722066726f6d20696e636f72726563742060408201526437bbb732b960d91b606082015260800190565b61ffff861681526001600160a01b038516602082015260a060408201819052600090615652908301866153f2565b8415156060840152828103608084015261566c81856153f2565b98975050505050505050565b61ffff84168152604060208201526000612f866040830184866153c9565b61ffff861681526080602082015260006156b46080830186886153c9565b6001600160401b0394909416604083015250606001529392505050565b61ffff8716815260c0602082015260006156ee60c08301886153f2565b828103604084015261570081886153f2565b6001600160a01b0387811660608601528616608085015283810360a0850152905061572b81856153f2565b9998505050505050505050565b61ffff8516815260806020820152600061575560808301866153f2565b6001600160401b0385166040840152828103606084015261577681856153f2565b979650505050505050565b61ffff8616815260a06020820152600061579e60a08301876153f2565b6001600160401b038616604084015282810360608401526157bf81866153f2565b9050828103608084015261566c81856153f2565b600061ffff8088168352808716602084015250846040830152608060608301526157766080830184866153c9565b604051601f8201601f191681016001600160401b038111828210171561582957615829615981565b604052919050565b60006001600160401b0382111561584a5761584a615981565b5060051b60200190565b60006001600160401b0382111561586d5761586d615981565b50601f01601f191660200190565b6000821982111561588e5761588e61596b565b500190565b6000826158ae57634e487b7160e01b81526012600452602481fd5b500490565b60008160001904831182151516156158cd576158cd61596b565b500290565b6000828210156158e4576158e461596b565b500390565b60005b838110156159045781810151838201526020016158ec565b838111156122c95750506000910152565b600181811c9082168061592957607f821691505b6020821081141561594a57634e487b7160e01b600052602260045260246000fd5b50919050565b60006000198214156159645761596461596b565b5060010190565b634e487b7160e01b600052601160045260246000fd5b634e487b7160e01b600052604160045260246000fd5b6001600160a01b0381168114611fe257600080fd5b6001600160e01b031981168114611fe257600080fdfea2646970667358221220c6efd8bebe0769f557beae18328f7dd8615b5d2827770e4c62be60dab125a00f64736f6c63430008040033",
  "devdoc": {
    "kind": "dev",
    "methods": {
      "approve(address,uint256)": {
        "details": "See {IERC721-approve}."
      },
      "balanceOf(address)": {
        "details": "See {IERC721-balanceOf}."
      },
      "estimateSendBatchFee(uint16,bytes,uint256[],bool,bytes)": {
        "details": "estimate send token `_tokenId` to (`_dstChainId`, `_toAddress`) _dstChainId - L0 defined chain id to send tokens too _toAddress - dynamic bytes array which contains the address to whom you are sending tokens to on the dstChain _tokenIds[] - token Ids to transfer _useZro - indicates to use zro to pay L0 fees _adapterParams - flexible bytes array to indicate messaging adapter services in L0"
      },
      "estimateSendFee(uint16,bytes,uint256,bool,bytes)": {
        "details": "estimate send token `_tokenId` to (`_dstChainId`, `_toAddress`) _dstChainId - L0 defined chain id to send tokens too _toAddress - dynamic bytes array which contains the address to whom you are sending tokens to on the dstChain _tokenId - token Id to transfer _useZro - indicates to use zro to pay L0 fees _adapterParams - flexible bytes array to indicate messaging adapter services in L0"
      },
      "getApproved(uint256)": {
        "details": "See {IERC721-getApproved}."
      },
      "isApprovedForAll(address,address)": {
        "details": "See {IERC721-isApprovedForAll}."
      },
      "name()": {
        "details": "See {IERC721Metadata-name}."
      },
      "owner()": {
        "details": "Returns the address of the current owner."
      },
      "ownerOf(uint256)": {
        "details": "See {IERC721-ownerOf}."
      },
      "paused()": {
        "details": "Returns true if the contract is paused, and false otherwise."
      },
      "renounceOwnership()": {
        "details": "Leaves the contract without owner. It will not be possible to call `onlyOwner` functions. Can only be called by the current owner. NOTE: Renouncing ownership will leave the contract without an owner, thereby disabling any functionality that is only available to the owner."
      },
      "royaltyInfo(uint256,uint256)": {
        "details": "Returns how much royalty is owed and to whom, based on a sale price that may be denominated in any unit of exchange. The royalty amount is denominated and should be paid in that same unit of exchange."
      },
      "safeTransferFrom(address,address,uint256)": {
        "details": "See {IERC721-safeTransferFrom}."
      },
      "safeTransferFrom(address,address,uint256,bytes)": {
        "details": "See {IERC721-safeTransferFrom}."
      },
      "sendBatchFrom(address,uint16,bytes,uint256[],address,address,bytes)": {
        "details": "send tokens `_tokenIds[]` to (`_dstChainId`, `_toAddress`) from `_from` `_toAddress` can be any size depending on the `dstChainId`. `_zroPaymentAddress` set to address(0x0) if not paying in ZRO (LayerZero Token) `_adapterParams` is a flexible bytes array to indicate messaging adapter services"
      },
      "sendFrom(address,uint16,bytes,uint256,address,address,bytes)": {
        "details": "send token `_tokenId` to (`_dstChainId`, `_toAddress`) from `_from` `_toAddress` can be any size depending on the `dstChainId`. `_zroPaymentAddress` set to address(0x0) if not paying in ZRO (LayerZero Token) `_adapterParams` is a flexible bytes array to indicate messaging adapter services"
      },
      "setApprovalForAll(address,bool)": {
        "details": "See {IERC721-setApprovalForAll}."
      },
      "symbol()": {
        "details": "See {IERC721Metadata-symbol}."
      },
      "tokenURI(uint256)": {
        "details": "See {IERC721Metadata-tokenURI}."
      },
      "transferFrom(address,address,uint256)": {
        "details": "See {IERC721-transferFrom}."
      },
      "transferOwnership(address)": {
        "details": "Transfers ownership of the contract to a new account (`newOwner`). Can only be called by the current owner."
      }
    },
    "version": 1
  },
  "userdoc": {
    "kind": "user",
    "methods": {},
    "version": 1
  },
  "storageLayout": {
    "storage": [
      {
        "astId": 2368,
        "contract": "contracts/DecaNFT.sol:DecaNFT",
        "label": "_owner",
        "offset": 0,
        "slot": "0",
        "type": "t_address"
      },
      {
        "astId": 455,
        "contract": "contracts/DecaNFT.sol:DecaNFT",
        "label": "trustedRemoteLookup",
        "offset": 0,
        "slot": "1",
        "type": "t_mapping(t_uint16,t_bytes_storage)"
      },
      {
        "astId": 461,
        "contract": "contracts/DecaNFT.sol:DecaNFT",
        "label": "minDstGasLookup",
        "offset": 0,
        "slot": "2",
        "type": "t_mapping(t_uint16,t_mapping(t_uint16,t_uint256))"
      },
      {
        "astId": 465,
        "contract": "contracts/DecaNFT.sol:DecaNFT",
        "label": "payloadSizeLimitLookup",
        "offset": 0,
        "slot": "3",
        "type": "t_mapping(t_uint16,t_uint256)"
      },
      {
        "astId": 467,
        "contract": "contracts/DecaNFT.sol:DecaNFT",
        "label": "precrime",
        "offset": 0,
        "slot": "4",
        "type": "t_address"
      },
      {
        "astId": 997,
        "contract": "contracts/DecaNFT.sol:DecaNFT",
        "label": "failedMessages",
        "offset": 0,
        "slot": "5",
        "type": "t_mapping(t_uint16,t_mapping(t_bytes_memory_ptr,t_mapping(t_uint64,t_bytes32)))"
      },
      {
        "astId": 2611,
        "contract": "contracts/DecaNFT.sol:DecaNFT",
        "label": "_status",
        "offset": 0,
        "slot": "6",
        "type": "t_uint256"
      },
      {
        "astId": 1581,
        "contract": "contracts/DecaNFT.sol:DecaNFT",
        "label": "minGasToTransferAndStore",
        "offset": 0,
        "slot": "7",
        "type": "t_uint256"
      },
      {
        "astId": 1585,
        "contract": "contracts/DecaNFT.sol:DecaNFT",
        "label": "dstChainIdToBatchLimit",
        "offset": 0,
        "slot": "8",
        "type": "t_mapping(t_uint16,t_uint256)"
      },
      {
        "astId": 1589,
        "contract": "contracts/DecaNFT.sol:DecaNFT",
        "label": "dstChainIdToTransferGas",
        "offset": 0,
        "slot": "9",
        "type": "t_mapping(t_uint16,t_uint256)"
      },
      {
        "astId": 1594,
        "contract": "contracts/DecaNFT.sol:DecaNFT",
        "label": "storedCredits",
        "offset": 0,
        "slot": "10",
        "type": "t_mapping(t_bytes32,t_struct(StoredCredit)1579_storage)"
      },
      {
        "astId": 2691,
        "contract": "contracts/DecaNFT.sol:DecaNFT",
        "label": "_name",
        "offset": 0,
        "slot": "11",
        "type": "t_string_storage"
      },
      {
        "astId": 2693,
        "contract": "contracts/DecaNFT.sol:DecaNFT",
        "label": "_symbol",
        "offset": 0,
        "slot": "12",
        "type": "t_string_storage"
      },
      {
        "astId": 2697,
        "contract": "contracts/DecaNFT.sol:DecaNFT",
        "label": "_owners",
        "offset": 0,
        "slot": "13",
        "type": "t_mapping(t_uint256,t_address)"
      },
      {
        "astId": 2701,
        "contract": "contracts/DecaNFT.sol:DecaNFT",
        "label": "_balances",
        "offset": 0,
        "slot": "14",
        "type": "t_mapping(t_address,t_uint256)"
      },
      {
        "astId": 2705,
        "contract": "contracts/DecaNFT.sol:DecaNFT",
        "label": "_tokenApprovals",
        "offset": 0,
        "slot": "15",
        "type": "t_mapping(t_uint256,t_address)"
      },
      {
        "astId": 2711,
        "contract": "contracts/DecaNFT.sol:DecaNFT",
        "label": "_operatorApprovals",
        "offset": 0,
        "slot": "16",
        "type": "t_mapping(t_address,t_mapping(t_address,t_bool))"
      },
      {
        "astId": 3770,
        "contract": "contracts/DecaNFT.sol:DecaNFT",
        "label": "_defaultRoyaltyInfo",
        "offset": 0,
        "slot": "17",
        "type": "t_struct(RoyaltyInfo)3767_storage"
      },
      {
        "astId": 3775,
        "contract": "contracts/DecaNFT.sol:DecaNFT",
        "label": "_tokenRoyaltyInfo",
        "offset": 0,
        "slot": "18",
        "type": "t_mapping(t_uint256,t_struct(RoyaltyInfo)3767_storage)"
      },
      {
        "astId": 2510,
        "contract": "contracts/DecaNFT.sol:DecaNFT",
        "label": "_paused",
        "offset": 0,
        "slot": "19",
        "type": "t_bool"
      },
      {
        "astId": 6691,
        "contract": "contracts/DecaNFT.sol:DecaNFT",
        "label": "merkleRoot",
        "offset": 0,
        "slot": "20",
        "type": "t_bytes32"
      },
      {
        "astId": 6096,
        "contract": "contracts/DecaNFT.sol:DecaNFT",
        "label": "baseTokenURI",
        "offset": 0,
        "slot": "21",
        "type": "t_string_storage"
      },
      {
        "astId": 6098,
        "contract": "contracts/DecaNFT.sol:DecaNFT",
        "label": "prerevealTokenURI",
        "offset": 0,
        "slot": "22",
        "type": "t_string_storage"
      },
      {
        "astId": 6100,
        "contract": "contracts/DecaNFT.sol:DecaNFT",
        "label": "revealed",
        "offset": 0,
        "slot": "23",
        "type": "t_bool"
      },
      {
        "astId": 6102,
        "contract": "contracts/DecaNFT.sol:DecaNFT",
        "label": "whiteListingPeriod",
        "offset": 1,
        "slot": "23",
        "type": "t_bool"
      },
      {
        "astId": 6105,
        "contract": "contracts/DecaNFT.sol:DecaNFT",
        "label": "mintState",
        "offset": 2,
        "slot": "23",
        "type": "t_bool"
      },
      {
        "astId": 6107,
        "contract": "contracts/DecaNFT.sol:DecaNFT",
        "label": "startTokenId",
        "offset": 0,
        "slot": "24",
        "type": "t_uint256"
      },
      {
        "astId": 6109,
        "contract": "contracts/DecaNFT.sol:DecaNFT",
        "label": "mintLimit",
        "offset": 0,
        "slot": "25",
        "type": "t_uint256"
      },
      {
        "astId": 6111,
        "contract": "contracts/DecaNFT.sol:DecaNFT",
        "label": "mintPrice",
        "offset": 0,
        "slot": "26",
        "type": "t_uint256"
      },
      {
        "astId": 6113,
        "contract": "contracts/DecaNFT.sol:DecaNFT",
        "label": "totalSupply",
        "offset": 0,
        "slot": "27",
        "type": "t_uint256"
      },
      {
        "astId": 6119,
        "contract": "contracts/DecaNFT.sol:DecaNFT",
        "label": "treasuryMintedCount",
        "offset": 0,
        "slot": "28",
        "type": "t_uint256"
      },
      {
        "astId": 6124,
        "contract": "contracts/DecaNFT.sol:DecaNFT",
        "label": "treasuryAddress",
        "offset": 0,
        "slot": "29",
        "type": "t_address"
      }
    ],
    "types": {
      "t_address": {
        "encoding": "inplace",
        "label": "address",
        "numberOfBytes": "20"
      },
      "t_bool": {
        "encoding": "inplace",
        "label": "bool",
        "numberOfBytes": "1"
      },
      "t_bytes32": {
        "encoding": "inplace",
        "label": "bytes32",
        "numberOfBytes": "32"
      },
      "t_bytes_memory_ptr": {
        "encoding": "bytes",
        "label": "bytes",
        "numberOfBytes": "32"
      },
      "t_bytes_storage": {
        "encoding": "bytes",
        "label": "bytes",
        "numberOfBytes": "32"
      },
      "t_mapping(t_address,t_bool)": {
        "encoding": "mapping",
        "key": "t_address",
        "label": "mapping(address => bool)",
        "numberOfBytes": "32",
        "value": "t_bool"
      },
      "t_mapping(t_address,t_mapping(t_address,t_bool))": {
        "encoding": "mapping",
        "key": "t_address",
        "label": "mapping(address => mapping(address => bool))",
        "numberOfBytes": "32",
        "value": "t_mapping(t_address,t_bool)"
      },
      "t_mapping(t_address,t_uint256)": {
        "encoding": "mapping",
        "key": "t_address",
        "label": "mapping(address => uint256)",
        "numberOfBytes": "32",
        "value": "t_uint256"
      },
      "t_mapping(t_bytes32,t_struct(StoredCredit)1579_storage)": {
        "encoding": "mapping",
        "key": "t_bytes32",
        "label": "mapping(bytes32 => struct ONFT721Core.StoredCredit)",
        "numberOfBytes": "32",
        "value": "t_struct(StoredCredit)1579_storage"
      },
      "t_mapping(t_bytes_memory_ptr,t_mapping(t_uint64,t_bytes32))": {
        "encoding": "mapping",
        "key": "t_bytes_memory_ptr",
        "label": "mapping(bytes => mapping(uint64 => bytes32))",
        "numberOfBytes": "32",
        "value": "t_mapping(t_uint64,t_bytes32)"
      },
      "t_mapping(t_uint16,t_bytes_storage)": {
        "encoding": "mapping",
        "key": "t_uint16",
        "label": "mapping(uint16 => bytes)",
        "numberOfBytes": "32",
        "value": "t_bytes_storage"
      },
      "t_mapping(t_uint16,t_mapping(t_bytes_memory_ptr,t_mapping(t_uint64,t_bytes32)))": {
        "encoding": "mapping",
        "key": "t_uint16",
        "label": "mapping(uint16 => mapping(bytes => mapping(uint64 => bytes32)))",
        "numberOfBytes": "32",
        "value": "t_mapping(t_bytes_memory_ptr,t_mapping(t_uint64,t_bytes32))"
      },
      "t_mapping(t_uint16,t_mapping(t_uint16,t_uint256))": {
        "encoding": "mapping",
        "key": "t_uint16",
        "label": "mapping(uint16 => mapping(uint16 => uint256))",
        "numberOfBytes": "32",
        "value": "t_mapping(t_uint16,t_uint256)"
      },
      "t_mapping(t_uint16,t_uint256)": {
        "encoding": "mapping",
        "key": "t_uint16",
        "label": "mapping(uint16 => uint256)",
        "numberOfBytes": "32",
        "value": "t_uint256"
      },
      "t_mapping(t_uint256,t_address)": {
        "encoding": "mapping",
        "key": "t_uint256",
        "label": "mapping(uint256 => address)",
        "numberOfBytes": "32",
        "value": "t_address"
      },
      "t_mapping(t_uint256,t_struct(RoyaltyInfo)3767_storage)": {
        "encoding": "mapping",
        "key": "t_uint256",
        "label": "mapping(uint256 => struct ERC2981.RoyaltyInfo)",
        "numberOfBytes": "32",
        "value": "t_struct(RoyaltyInfo)3767_storage"
      },
      "t_mapping(t_uint64,t_bytes32)": {
        "encoding": "mapping",
        "key": "t_uint64",
        "label": "mapping(uint64 => bytes32)",
        "numberOfBytes": "32",
        "value": "t_bytes32"
      },
      "t_string_storage": {
        "encoding": "bytes",
        "label": "string",
        "numberOfBytes": "32"
      },
      "t_struct(RoyaltyInfo)3767_storage": {
        "encoding": "inplace",
        "label": "struct ERC2981.RoyaltyInfo",
        "members": [
          {
            "astId": 3764,
            "contract": "contracts/DecaNFT.sol:DecaNFT",
            "label": "receiver",
            "offset": 0,
            "slot": "0",
            "type": "t_address"
          },
          {
            "astId": 3766,
            "contract": "contracts/DecaNFT.sol:DecaNFT",
            "label": "royaltyFraction",
            "offset": 20,
            "slot": "0",
            "type": "t_uint96"
          }
        ],
        "numberOfBytes": "32"
      },
      "t_struct(StoredCredit)1579_storage": {
        "encoding": "inplace",
        "label": "struct ONFT721Core.StoredCredit",
        "members": [
          {
            "astId": 1572,
            "contract": "contracts/DecaNFT.sol:DecaNFT",
            "label": "srcChainId",
            "offset": 0,
            "slot": "0",
            "type": "t_uint16"
          },
          {
            "astId": 1574,
            "contract": "contracts/DecaNFT.sol:DecaNFT",
            "label": "toAddress",
            "offset": 2,
            "slot": "0",
            "type": "t_address"
          },
          {
            "astId": 1576,
            "contract": "contracts/DecaNFT.sol:DecaNFT",
            "label": "index",
            "offset": 0,
            "slot": "1",
            "type": "t_uint256"
          },
          {
            "astId": 1578,
            "contract": "contracts/DecaNFT.sol:DecaNFT",
            "label": "creditsRemain",
            "offset": 0,
            "slot": "2",
            "type": "t_bool"
          }
        ],
        "numberOfBytes": "96"
      },
      "t_uint16": {
        "encoding": "inplace",
        "label": "uint16",
        "numberOfBytes": "2"
      },
      "t_uint256": {
        "encoding": "inplace",
        "label": "uint256",
        "numberOfBytes": "32"
      },
      "t_uint64": {
        "encoding": "inplace",
        "label": "uint64",
        "numberOfBytes": "8"
      },
      "t_uint96": {
        "encoding": "inplace",
        "label": "uint96",
        "numberOfBytes": "12"
      }
    }
  }
}