{
  "address": "0x2f2F107D4E014476598B08520c1F1CfFCFFdf3C2",
  "abi": [
    {
      "inputs": [
        {
          "internalType": "string",
          "name": "baseURI",
          "type": "string"
        },
        {
          "internalType": "string",
          "name": "_name",
          "type": "string"
        },
        {
          "internalType": "string",
          "name": "_symbol",
          "type": "string"
        },
        {
          "internalType": "uint256",
          "name": "_minGasToTransfer",
          "type": "uint256"
        },
        {
          "internalType": "address",
          "name": "_lzEndpoint",
          "type": "address"
        }
      ],
      "stateMutability": "nonpayable",
      "type": "constructor"
    },
    {
      "anonymous": false,
      "inputs": [
        {
          "indexed": true,
          "internalType": "address",
          "name": "owner",
          "type": "address"
        },
        {
          "indexed": true,
          "internalType": "address",
          "name": "approved",
          "type": "address"
        },
        {
          "indexed": true,
          "internalType": "uint256",
          "name": "tokenId",
          "type": "uint256"
        }
      ],
      "name": "Approval",
      "type": "event"
    },
    {
      "anonymous": false,
      "inputs": [
        {
          "indexed": true,
          "internalType": "address",
          "name": "owner",
          "type": "address"
        },
        {
          "indexed": true,
          "internalType": "address",
          "name": "operator",
          "type": "address"
        },
        {
          "indexed": false,
          "internalType": "bool",
          "name": "approved",
          "type": "bool"
        }
      ],
      "name": "ApprovalForAll",
      "type": "event"
    },
    {
      "anonymous": false,
      "inputs": [
        {
          "indexed": false,
          "internalType": "bytes32",
          "name": "_hashedPayload",
          "type": "bytes32"
        }
      ],
      "name": "CreditCleared",
      "type": "event"
    },
    {
      "anonymous": false,
      "inputs": [
        {
          "indexed": false,
          "internalType": "bytes32",
          "name": "_hashedPayload",
          "type": "bytes32"
        },
        {
          "indexed": false,
          "internalType": "bytes",
          "name": "_payload",
          "type": "bytes"
        }
      ],
      "name": "CreditStored",
      "type": "event"
    },
    {
      "anonymous": false,
      "inputs": [
        {
          "indexed": false,
          "internalType": "uint16",
          "name": "_srcChainId",
          "type": "uint16"
        },
        {
          "indexed": false,
          "internalType": "bytes",
          "name": "_srcAddress",
          "type": "bytes"
        },
        {
          "indexed": false,
          "internalType": "uint64",
          "name": "_nonce",
          "type": "uint64"
        },
        {
          "indexed": false,
          "internalType": "bytes",
          "name": "_payload",
          "type": "bytes"
        },
        {
          "indexed": false,
          "internalType": "bytes",
          "name": "_reason",
          "type": "bytes"
        }
      ],
      "name": "MessageFailed",
      "type": "event"
    },
    {
      "anonymous": false,
      "inputs": [
        {
          "indexed": true,
          "internalType": "address",
          "name": "previousOwner",
          "type": "address"
        },
        {
          "indexed": true,
          "internalType": "address",
          "name": "newOwner",
          "type": "address"
        }
      ],
      "name": "OwnershipTransferred",
      "type": "event"
    },
    {
      "anonymous": false,
      "inputs": [
        {
          "indexed": true,
          "internalType": "uint16",
          "name": "_srcChainId",
          "type": "uint16"
        },
        {
          "indexed": true,
          "internalType": "bytes",
          "name": "_srcAddress",
          "type": "bytes"
        },
        {
          "indexed": true,
          "internalType": "address",
          "name": "_toAddress",
          "type": "address"
        },
        {
          "indexed": false,
          "internalType": "uint256[]",
          "name": "_tokenIds",
          "type": "uint256[]"
        }
      ],
      "name": "ReceiveFromChain",
      "type": "event"
    },
    {
      "anonymous": false,
      "inputs": [
        {
          "indexed": false,
          "internalType": "uint16",
          "name": "_srcChainId",
          "type": "uint16"
        },
        {
          "indexed": false,
          "internalType": "bytes",
          "name": "_srcAddress",
          "type": "bytes"
        },
        {
          "indexed": false,
          "internalType": "uint64",
          "name": "_nonce",
          "type": "uint64"
        },
        {
          "indexed": false,
          "internalType": "bytes32",
          "name": "_payloadHash",
          "type": "bytes32"
        }
      ],
      "name": "RetryMessageSuccess",
      "type": "event"
    },
    {
      "anonymous": false,
      "inputs": [
        {
          "indexed": true,
          "internalType": "uint16",
          "name": "_dstChainId",
          "type": "uint16"
        },
        {
          "indexed": true,
          "internalType": "address",
          "name": "_from",
          "type": "address"
        },
        {
          "indexed": true,
          "internalType": "bytes",
          "name": "_toAddress",
          "type": "bytes"
        },
        {
          "indexed": false,
          "internalType": "uint256[]",
          "name": "_tokenIds",
          "type": "uint256[]"
        }
      ],
      "name": "SendToChain",
      "type": "event"
    },
    {
      "anonymous": false,
      "inputs": [
        {
          "indexed": false,
          "internalType": "uint16",
          "name": "_dstChainId",
          "type": "uint16"
        },
        {
          "indexed": false,
          "internalType": "uint16",
          "name": "_type",
          "type": "uint16"
        },
        {
          "indexed": false,
          "internalType": "uint256",
          "name": "_minDstGas",
          "type": "uint256"
        }
      ],
      "name": "SetMinDstGas",
      "type": "event"
    },
    {
      "anonymous": false,
      "inputs": [
        {
          "indexed": false,
          "internalType": "address",
          "name": "precrime",
          "type": "address"
        }
      ],
      "name": "SetPrecrime",
      "type": "event"
    },
    {
      "anonymous": false,
      "inputs": [
        {
          "indexed": false,
          "internalType": "uint16",
          "name": "_remoteChainId",
          "type": "uint16"
        },
        {
          "indexed": false,
          "internalType": "bytes",
          "name": "_path",
          "type": "bytes"
        }
      ],
      "name": "SetTrustedRemote",
      "type": "event"
    },
    {
      "anonymous": false,
      "inputs": [
        {
          "indexed": false,
          "internalType": "uint16",
          "name": "_remoteChainId",
          "type": "uint16"
        },
        {
          "indexed": false,
          "internalType": "bytes",
          "name": "_remoteAddress",
          "type": "bytes"
        }
      ],
      "name": "SetTrustedRemoteAddress",
      "type": "event"
    },
    {
      "anonymous": false,
      "inputs": [
        {
          "indexed": true,
          "internalType": "address",
          "name": "from",
          "type": "address"
        },
        {
          "indexed": true,
          "internalType": "address",
          "name": "to",
          "type": "address"
        },
        {
          "indexed": true,
          "internalType": "uint256",
          "name": "tokenId",
          "type": "uint256"
        }
      ],
      "name": "Transfer",
      "type": "event"
    },
    {
      "inputs": [],
      "name": "FUNCTION_TYPE_SEND",
      "outputs": [
        {
          "internalType": "uint16",
          "name": "",
          "type": "uint16"
        }
      ],
      "stateMutability": "view",
      "type": "function"
    },
    {
      "inputs": [],
      "name": "MAX_ELEMENTS",
      "outputs": [
        {
          "internalType": "uint256",
          "name": "",
          "type": "uint256"
        }
      ],
      "stateMutability": "view",
      "type": "function"
    },
    {
      "inputs": [
        {
          "internalType": "address",
          "name": "to",
          "type": "address"
        },
        {
          "internalType": "uint256",
          "name": "tokenId",
          "type": "uint256"
        }
      ],
      "name": "approve",
      "outputs": [],
      "stateMutability": "nonpayable",
      "type": "function"
    },
    {
      "inputs": [
        {
          "internalType": "address",
          "name": "owner",
          "type": "address"
        }
      ],
      "name": "balanceOf",
      "outputs": [
        {
          "internalType": "uint256",
          "name": "",
          "type": "uint256"
        }
      ],
      "stateMutability": "view",
      "type": "function"
    },
    {
      "inputs": [],
      "name": "baseTokenURI",
      "outputs": [
        {
          "internalType": "string",
          "name": "",
          "type": "string"
        }
      ],
      "stateMutability": "view",
      "type": "function"
    },
    {
      "inputs": [
        {
          "internalType": "bytes",
          "name": "_payload",
          "type": "bytes"
        }
      ],
      "name": "clearCredits",
      "outputs": [],
      "stateMutability": "nonpayable",
      "type": "function"
    },
    {
      "inputs": [
        {
          "internalType": "uint16",
          "name": "",
          "type": "uint16"
        }
      ],
      "name": "dstChainIdToBatchLimit",
      "outputs": [
        {
          "internalType": "uint256",
          "name": "",
          "type": "uint256"
        }
      ],
      "stateMutability": "view",
      "type": "function"
    },
    {
      "inputs": [
        {
          "internalType": "uint16",
          "name": "",
          "type": "uint16"
        }
      ],
      "name": "dstChainIdToTransferGas",
      "outputs": [
        {
          "internalType": "uint256",
          "name": "",
          "type": "uint256"
        }
      ],
      "stateMutability": "view",
      "type": "function"
    },
    {
      "inputs": [
        {
          "internalType": "uint16",
          "name": "_dstChainId",
          "type": "uint16"
        },
        {
          "internalType": "bytes",
          "name": "_toAddress",
          "type": "bytes"
        },
        {
          "internalType": "uint256[]",
          "name": "_tokenIds",
          "type": "uint256[]"
        },
        {
          "internalType": "bool",
          "name": "_useZro",
          "type": "bool"
        },
        {
          "internalType": "bytes",
          "name": "_adapterParams",
          "type": "bytes"
        }
      ],
      "name": "estimateSendBatchFee",
      "outputs": [
        {
          "internalType": "uint256",
          "name": "nativeFee",
          "type": "uint256"
        },
        {
          "internalType": "uint256",
          "name": "zroFee",
          "type": "uint256"
        }
      ],
      "stateMutability": "view",
      "type": "function"
    },
    {
      "inputs": [
        {
          "internalType": "uint16",
          "name": "_dstChainId",
          "type": "uint16"
        },
        {
          "internalType": "bytes",
          "name": "_toAddress",
          "type": "bytes"
        },
        {
          "internalType": "uint256",
          "name": "_tokenId",
          "type": "uint256"
        },
        {
          "internalType": "bool",
          "name": "_useZro",
          "type": "bool"
        },
        {
          "internalType": "bytes",
          "name": "_adapterParams",
          "type": "bytes"
        }
      ],
      "name": "estimateSendFee",
      "outputs": [
        {
          "internalType": "uint256",
          "name": "nativeFee",
          "type": "uint256"
        },
        {
          "internalType": "uint256",
          "name": "zroFee",
          "type": "uint256"
        }
      ],
      "stateMutability": "view",
      "type": "function"
    },
    {
      "inputs": [
        {
          "internalType": "uint16",
          "name": "",
          "type": "uint16"
        },
        {
          "internalType": "bytes",
          "name": "",
          "type": "bytes"
        },
        {
          "internalType": "uint64",
          "name": "",
          "type": "uint64"
        }
      ],
      "name": "failedMessages",
      "outputs": [
        {
          "internalType": "bytes32",
          "name": "",
          "type": "bytes32"
        }
      ],
      "stateMutability": "view",
      "type": "function"
    },
    {
      "inputs": [
        {
          "internalType": "uint16",
          "name": "_srcChainId",
          "type": "uint16"
        },
        {
          "internalType": "bytes",
          "name": "_srcAddress",
          "type": "bytes"
        }
      ],
      "name": "forceResumeReceive",
      "outputs": [],
      "stateMutability": "nonpayable",
      "type": "function"
    },
    {
      "inputs": [
        {
          "internalType": "uint256",
          "name": "tokenId",
          "type": "uint256"
        }
      ],
      "name": "getApproved",
      "outputs": [
        {
          "internalType": "address",
          "name": "",
          "type": "address"
        }
      ],
      "stateMutability": "view",
      "type": "function"
    },
    {
      "inputs": [
        {
          "internalType": "uint16",
          "name": "_version",
          "type": "uint16"
        },
        {
          "internalType": "uint16",
          "name": "_chainId",
          "type": "uint16"
        },
        {
          "internalType": "address",
          "name": "",
          "type": "address"
        },
        {
          "internalType": "uint256",
          "name": "_configType",
          "type": "uint256"
        }
      ],
      "name": "getConfig",
      "outputs": [
        {
          "internalType": "bytes",
          "name": "",
          "type": "bytes"
        }
      ],
      "stateMutability": "view",
      "type": "function"
    },
    {
      "inputs": [
        {
          "internalType": "uint16",
          "name": "_remoteChainId",
          "type": "uint16"
        }
      ],
      "name": "getTrustedRemoteAddress",
      "outputs": [
        {
          "internalType": "bytes",
          "name": "",
          "type": "bytes"
        }
      ],
      "stateMutability": "view",
      "type": "function"
    },
    {
      "inputs": [
        {
          "internalType": "address",
          "name": "owner",
          "type": "address"
        },
        {
          "internalType": "address",
          "name": "operator",
          "type": "address"
        }
      ],
      "name": "isApprovedForAll",
      "outputs": [
        {
          "internalType": "bool",
          "name": "",
          "type": "bool"
        }
      ],
      "stateMutability": "view",
      "type": "function"
    },
    {
      "inputs": [
        {
          "internalType": "uint16",
          "name": "_srcChainId",
          "type": "uint16"
        },
        {
          "internalType": "bytes",
          "name": "_srcAddress",
          "type": "bytes"
        }
      ],
      "name": "isTrustedRemote",
      "outputs": [
        {
          "internalType": "bool",
          "name": "",
          "type": "bool"
        }
      ],
      "stateMutability": "view",
      "type": "function"
    },
    {
      "inputs": [],
      "name": "lzEndpoint",
      "outputs": [
        {
          "internalType": "contract ILayerZeroEndpoint",
          "name": "",
          "type": "address"
        }
      ],
      "stateMutability": "view",
      "type": "function"
    },
    {
      "inputs": [
        {
          "internalType": "uint16",
          "name": "_srcChainId",
          "type": "uint16"
        },
        {
          "internalType": "bytes",
          "name": "_srcAddress",
          "type": "bytes"
        },
        {
          "internalType": "uint64",
          "name": "_nonce",
          "type": "uint64"
        },
        {
          "internalType": "bytes",
          "name": "_payload",
          "type": "bytes"
        }
      ],
      "name": "lzReceive",
      "outputs": [],
      "stateMutability": "nonpayable",
      "type": "function"
    },
    {
      "inputs": [
        {
          "internalType": "uint16",
          "name": "",
          "type": "uint16"
        },
        {
          "internalType": "uint16",
          "name": "",
          "type": "uint16"
        }
      ],
      "name": "minDstGasLookup",
      "outputs": [
        {
          "internalType": "uint256",
          "name": "",
          "type": "uint256"
        }
      ],
      "stateMutability": "view",
      "type": "function"
    },
    {
      "inputs": [],
      "name": "minGasToTransferAndStore",
      "outputs": [
        {
          "internalType": "uint256",
          "name": "",
          "type": "uint256"
        }
      ],
      "stateMutability": "view",
      "type": "function"
    },
    {
      "inputs": [],
      "name": "name",
      "outputs": [
        {
          "internalType": "string",
          "name": "",
          "type": "string"
        }
      ],
      "stateMutability": "view",
      "type": "function"
    },
    {
      "inputs": [
        {
          "internalType": "uint16",
          "name": "_srcChainId",
          "type": "uint16"
        },
        {
          "internalType": "bytes",
          "name": "_srcAddress",
          "type": "bytes"
        },
        {
          "internalType": "uint64",
          "name": "_nonce",
          "type": "uint64"
        },
        {
          "internalType": "bytes",
          "name": "_payload",
          "type": "bytes"
        }
      ],
      "name": "nonblockingLzReceive",
      "outputs": [],
      "stateMutability": "nonpayable",
      "type": "function"
    },
    {
      "inputs": [],
      "name": "owner",
      "outputs": [
        {
          "internalType": "address",
          "name": "",
          "type": "address"
        }
      ],
      "stateMutability": "view",
      "type": "function"
    },
    {
      "inputs": [
        {
          "internalType": "uint256",
          "name": "tokenId",
          "type": "uint256"
        }
      ],
      "name": "ownerOf",
      "outputs": [
        {
          "internalType": "address",
          "name": "",
          "type": "address"
        }
      ],
      "stateMutability": "view",
      "type": "function"
    },
    {
      "inputs": [],
      "name": "precrime",
      "outputs": [
        {
          "internalType": "address",
          "name": "",
          "type": "address"
        }
      ],
      "stateMutability": "view",
      "type": "function"
    },
    {
      "inputs": [],
      "name": "prerevealTokenURI",
      "outputs": [
        {
          "internalType": "string",
          "name": "",
          "type": "string"
        }
      ],
      "stateMutability": "view",
      "type": "function"
    },
    {
      "inputs": [],
      "name": "renounceOwnership",
      "outputs": [],
      "stateMutability": "nonpayable",
      "type": "function"
    },
    {
      "inputs": [
        {
          "internalType": "uint16",
          "name": "_srcChainId",
          "type": "uint16"
        },
        {
          "internalType": "bytes",
          "name": "_srcAddress",
          "type": "bytes"
        },
        {
          "internalType": "uint64",
          "name": "_nonce",
          "type": "uint64"
        },
        {
          "internalType": "bytes",
          "name": "_payload",
          "type": "bytes"
        }
      ],
      "name": "retryMessage",
      "outputs": [],
      "stateMutability": "payable",
      "type": "function"
    },
    {
      "inputs": [],
      "name": "revealed",
      "outputs": [
        {
          "internalType": "bool",
          "name": "",
          "type": "bool"
        }
      ],
      "stateMutability": "view",
      "type": "function"
    },
    {
      "inputs": [
        {
          "internalType": "address",
          "name": "from",
          "type": "address"
        },
        {
          "internalType": "address",
          "name": "to",
          "type": "address"
        },
        {
          "internalType": "uint256",
          "name": "tokenId",
          "type": "uint256"
        }
      ],
      "name": "safeTransferFrom",
      "outputs": [],
      "stateMutability": "nonpayable",
      "type": "function"
    },
    {
      "inputs": [
        {
          "internalType": "address",
          "name": "from",
          "type": "address"
        },
        {
          "internalType": "address",
          "name": "to",
          "type": "address"
        },
        {
          "internalType": "uint256",
          "name": "tokenId",
          "type": "uint256"
        },
        {
          "internalType": "bytes",
          "name": "data",
          "type": "bytes"
        }
      ],
      "name": "safeTransferFrom",
      "outputs": [],
      "stateMutability": "nonpayable",
      "type": "function"
    },
    {
      "inputs": [
        {
          "internalType": "address",
          "name": "_from",
          "type": "address"
        },
        {
          "internalType": "uint16",
          "name": "_dstChainId",
          "type": "uint16"
        },
        {
          "internalType": "bytes",
          "name": "_toAddress",
          "type": "bytes"
        },
        {
          "internalType": "uint256[]",
          "name": "_tokenIds",
          "type": "uint256[]"
        },
        {
          "internalType": "address payable",
          "name": "_refundAddress",
          "type": "address"
        },
        {
          "internalType": "address",
          "name": "_zroPaymentAddress",
          "type": "address"
        },
        {
          "internalType": "bytes",
          "name": "_adapterParams",
          "type": "bytes"
        }
      ],
      "name": "sendBatchFrom",
      "outputs": [],
      "stateMutability": "payable",
      "type": "function"
    },
    {
      "inputs": [
        {
          "internalType": "address",
          "name": "_from",
          "type": "address"
        },
        {
          "internalType": "uint16",
          "name": "_dstChainId",
          "type": "uint16"
        },
        {
          "internalType": "bytes",
          "name": "_toAddress",
          "type": "bytes"
        },
        {
          "internalType": "uint256",
          "name": "_tokenId",
          "type": "uint256"
        },
        {
          "internalType": "address payable",
          "name": "_refundAddress",
          "type": "address"
        },
        {
          "internalType": "address",
          "name": "_zroPaymentAddress",
          "type": "address"
        },
        {
          "internalType": "bytes",
          "name": "_adapterParams",
          "type": "bytes"
        }
      ],
      "name": "sendFrom",
      "outputs": [],
      "stateMutability": "payable",
      "type": "function"
    },
    {
      "inputs": [
        {
          "internalType": "address",
          "name": "operator",
          "type": "address"
        },
        {
          "internalType": "bool",
          "name": "approved",
          "type": "bool"
        }
      ],
      "name": "setApprovalForAll",
      "outputs": [],
      "stateMutability": "nonpayable",
      "type": "function"
    },
    {
      "inputs": [
        {
          "internalType": "string",
          "name": "baseURI",
          "type": "string"
        }
      ],
      "name": "setBaseURI",
      "outputs": [],
      "stateMutability": "nonpayable",
      "type": "function"
    },
    {
      "inputs": [
        {
          "internalType": "uint16",
          "name": "_version",
          "type": "uint16"
        },
        {
          "internalType": "uint16",
          "name": "_chainId",
          "type": "uint16"
        },
        {
          "internalType": "uint256",
          "name": "_configType",
          "type": "uint256"
        },
        {
          "internalType": "bytes",
          "name": "_config",
          "type": "bytes"
        }
      ],
      "name": "setConfig",
      "outputs": [],
      "stateMutability": "nonpayable",
      "type": "function"
    },
    {
      "inputs": [
        {
          "internalType": "uint16",
          "name": "_dstChainId",
          "type": "uint16"
        },
        {
          "internalType": "uint256",
          "name": "_dstChainIdToBatchLimit",
          "type": "uint256"
        }
      ],
      "name": "setDstChainIdToBatchLimit",
      "outputs": [],
      "stateMutability": "nonpayable",
      "type": "function"
    },
    {
      "inputs": [
        {
          "internalType": "uint16",
          "name": "_dstChainId",
          "type": "uint16"
        },
        {
          "internalType": "uint256",
          "name": "_dstChainIdToTransferGas",
          "type": "uint256"
        }
      ],
      "name": "setDstChainIdToTransferGas",
      "outputs": [],
      "stateMutability": "nonpayable",
      "type": "function"
    },
    {
      "inputs": [
        {
          "internalType": "uint16",
          "name": "_dstChainId",
          "type": "uint16"
        },
        {
          "internalType": "uint16",
          "name": "_packetType",
          "type": "uint16"
        },
        {
          "internalType": "uint256",
          "name": "_minGas",
          "type": "uint256"
        }
      ],
      "name": "setMinDstGas",
      "outputs": [],
      "stateMutability": "nonpayable",
      "type": "function"
    },
    {
      "inputs": [
        {
          "internalType": "uint256",
          "name": "_minGasToTransferAndStore",
          "type": "uint256"
        }
      ],
      "name": "setMinGasToTransferAndStore",
      "outputs": [],
      "stateMutability": "nonpayable",
      "type": "function"
    },
    {
      "inputs": [
        {
          "internalType": "address",
          "name": "_precrime",
          "type": "address"
        }
      ],
      "name": "setPrecrime",
      "outputs": [],
      "stateMutability": "nonpayable",
      "type": "function"
    },
    {
      "inputs": [
        {
          "internalType": "string",
          "name": "prerevealURI",
          "type": "string"
        }
      ],
      "name": "setPrerevealTokenURI",
      "outputs": [],
      "stateMutability": "nonpayable",
      "type": "function"
    },
    {
      "inputs": [
        {
          "internalType": "uint16",
          "name": "_version",
          "type": "uint16"
        }
      ],
      "name": "setReceiveVersion",
      "outputs": [],
      "stateMutability": "nonpayable",
      "type": "function"
    },
    {
      "inputs": [
        {
          "internalType": "bool",
          "name": "_revealed",
          "type": "bool"
        }
      ],
      "name": "setRevealed",
      "outputs": [],
      "stateMutability": "nonpayable",
      "type": "function"
    },
    {
      "inputs": [
        {
          "internalType": "uint16",
          "name": "_version",
          "type": "uint16"
        }
      ],
      "name": "setSendVersion",
      "outputs": [],
      "stateMutability": "nonpayable",
      "type": "function"
    },
    {
      "inputs": [
        {
          "internalType": "uint16",
          "name": "_srcChainId",
          "type": "uint16"
        },
        {
          "internalType": "bytes",
          "name": "_path",
          "type": "bytes"
        }
      ],
      "name": "setTrustedRemote",
      "outputs": [],
      "stateMutability": "nonpayable",
      "type": "function"
    },
    {
      "inputs": [
        {
          "internalType": "uint16",
          "name": "_remoteChainId",
          "type": "uint16"
        },
        {
          "internalType": "bytes",
          "name": "_remoteAddress",
          "type": "bytes"
        }
      ],
      "name": "setTrustedRemoteAddress",
      "outputs": [],
      "stateMutability": "nonpayable",
      "type": "function"
    },
    {
      "inputs": [
        {
          "internalType": "bytes32",
          "name": "",
          "type": "bytes32"
        }
      ],
      "name": "storedCredits",
      "outputs": [
        {
          "internalType": "uint16",
          "name": "srcChainId",
          "type": "uint16"
        },
        {
          "internalType": "address",
          "name": "toAddress",
          "type": "address"
        },
        {
          "internalType": "uint256",
          "name": "index",
          "type": "uint256"
        },
        {
          "internalType": "bool",
          "name": "creditsRemain",
          "type": "bool"
        }
      ],
      "stateMutability": "view",
      "type": "function"
    },
    {
      "inputs": [
        {
          "internalType": "bytes4",
          "name": "interfaceId",
          "type": "bytes4"
        }
      ],
      "name": "supportsInterface",
      "outputs": [
        {
          "internalType": "bool",
          "name": "",
          "type": "bool"
        }
      ],
      "stateMutability": "view",
      "type": "function"
    },
    {
      "inputs": [],
      "name": "symbol",
      "outputs": [
        {
          "internalType": "string",
          "name": "",
          "type": "string"
        }
      ],
      "stateMutability": "view",
      "type": "function"
    },
    {
      "inputs": [
        {
          "internalType": "uint256",
          "name": "tokenId",
          "type": "uint256"
        }
      ],
      "name": "tokenURI",
      "outputs": [
        {
          "internalType": "string",
          "name": "",
          "type": "string"
        }
      ],
      "stateMutability": "view",
      "type": "function"
    },
    {
      "inputs": [
        {
          "internalType": "address",
          "name": "from",
          "type": "address"
        },
        {
          "internalType": "address",
          "name": "to",
          "type": "address"
        },
        {
          "internalType": "uint256",
          "name": "tokenId",
          "type": "uint256"
        }
      ],
      "name": "transferFrom",
      "outputs": [],
      "stateMutability": "nonpayable",
      "type": "function"
    },
    {
      "inputs": [
        {
          "internalType": "address",
          "name": "newOwner",
          "type": "address"
        }
      ],
      "name": "transferOwnership",
      "outputs": [],
      "stateMutability": "nonpayable",
      "type": "function"
    },
    {
      "inputs": [
        {
          "internalType": "uint16",
          "name": "",
          "type": "uint16"
        }
      ],
      "name": "trustedRemoteLookup",
      "outputs": [
        {
          "internalType": "bytes",
          "name": "",
          "type": "bytes"
        }
      ],
      "stateMutability": "view",
      "type": "function"
    },
    {
      "inputs": [
        {
          "internalType": "address",
          "name": "_owner",
          "type": "address"
        }
      ],
      "name": "walletOfOwner",
      "outputs": [
        {
          "internalType": "uint256[]",
          "name": "",
          "type": "uint256[]"
        }
      ],
      "stateMutability": "view",
      "type": "function"
    }
  ],
  "transactionHash": "0xf6885ae3052957fe54cf7745fd6e0251d9a0aca5f99c249ff5b6c58786f1ab57",
  "args": [
    "",
    "DecaNFT",
    "DNFT",
    150000,
    "0xbfD2135BFfbb0B5378b56643c2Df8a87552Bfa23"
  ],
  "numDeployments": 1,
  "solcInputHash": "0eb0269821b82bd3e9d6a8b8a43b8a11",
  "bytecode": "0x60a06040523480156200001157600080fd5b5060405162004d1438038062004d1483398101604081905262000034916200033f565b83838383838383838080620000493362000115565b60601b6001600160601b0319166080525081620000c35760405162461bcd60e51b815260206004820152602d60248201527f4f4e46543732313a206d696e476173546f5472616e73666572416e6453746f7260448201526c065206d757374206265203e203609c1b60648201526084015b60405180910390fd5b506005558151620000dc906009906020850190620001e6565b508051620000f290600a906020840190620001e6565b505050505050506200010a856200016560201b60201c565b50505050506200044c565b600080546001600160a01b038381166001600160a01b0319831681178455604051919092169283917f8be0079c531659141344cd1fd0a4f28419497f9722a3daafe3b4186f6b6457e09190a35050565b6200016f62000188565b80516200018490600f906020840190620001e6565b5050565b6000546001600160a01b03163314620001e45760405162461bcd60e51b815260206004820181905260248201527f4f776e61626c653a2063616c6c6572206973206e6f7420746865206f776e65726044820152606401620000ba565b565b828054620001f490620003f9565b90600052602060002090601f01602090048101928262000218576000855562000263565b82601f106200023357805160ff191683800117855562000263565b8280016001018555821562000263579182015b828111156200026357825182559160200191906001019062000246565b506200027192915062000275565b5090565b5b8082111562000271576000815560010162000276565b600082601f8301126200029d578081fd5b81516001600160401b0380821115620002ba57620002ba62000436565b604051601f8301601f19908116603f01168101908282118183101715620002e557620002e562000436565b8160405283815260209250868385880101111562000301578485fd5b8491505b8382101562000324578582018301518183018401529082019062000305565b838211156200033557848385830101525b9695505050505050565b600080600080600060a0868803121562000357578081fd5b85516001600160401b03808211156200036e578283fd5b6200037c89838a016200028c565b9650602088015191508082111562000392578283fd5b620003a089838a016200028c565b95506040880151915080821115620003b6578283fd5b50620003c5888289016200028c565b60608801516080890151919550935090506001600160a01b0381168114620003eb578182fd5b809150509295509295909350565b600181811c908216806200040e57607f821691505b602082108114156200043057634e487b7160e01b600052602260045260246000fd5b50919050565b634e487b7160e01b600052604160045260246000fd5b60805160601c614871620004a36000396000818161093501528181610b6d01528181610e71015281816110aa0152818161123f01528181611c20015281816120a3015281816121f5015261325b01526148716000f3fe60806040526004361061036a5760003560e01c80638da5cb5b116101c6578063c87b56dd116100f7578063e985e9c511610095578063f2fde38b1161006f578063f2fde38b14610ae8578063f4ad0f9714610b08578063f5ecbdbc14610b1d578063fa25f9b614610b3d57600080fd5b8063e985e9c514610a5f578063eb8d72b714610aa8578063f235364114610ac857600080fd5b8063d1deba1f116100d1578063d1deba1f146109f7578063d547cfb714610a0a578063df2a5b3b14610a1f578063e0a8085314610a3f57600080fd5b8063c87b56dd14610997578063cbed8b9c146109b7578063d12473a5146109d757600080fd5b8063a6c3d16511610164578063b09d28cc1161013e578063b09d28cc14610903578063b353aaa714610923578063b88d4fde14610957578063baf3292d1461097757600080fd5b8063a6c3d165146108a8578063ab3ffb93146108c8578063af3fb21c146108db57600080fd5b806395d89b41116101a057806395d89b41146108335780639ea5d6b1146108485780639f38369a14610868578063a22cb4651461088857600080fd5b80638da5cb5b146107d55780638ffa1f2a146107f3578063950c8a741461081357600080fd5b806342d65a8d116102a05780635b8c41e61161023e57806370a082311161021857806370a0823114610748578063715018a6146107685780637533d7881461077d5780638cfd8f5c1461079d57600080fd5b80635b8c41e6146106b95780636352211e1461070857806366ad5c8a1461072857600080fd5b80634ac3f4ff1161027a5780634ac3f4ff1461063f578063518302271461066c578063519056361461068657806355f804b31461069957600080fd5b806342d65a8d146105dc578063438b6300146105fc578063482881901461062957600080fd5b806310ddb1371161030d5780632a205e3d116102e75780632a205e3d146105435780633502a716146105785780633d8b38f61461059c57806342842e0e146105bc57600080fd5b806310ddb1371461048057806322a3ecf9146104a057806323b872dd1461052357600080fd5b806307e0db171161034957806307e0db17146103e8578063081812fc14610408578063095ea7b3146104405780630b4cad4c1461046057600080fd5b80621d35671461036f57806301ffc9a71461039157806306fdde03146103c6575b600080fd5b34801561037b57600080fd5b5061038f61038a366004613ed9565b610b6a565b005b34801561039d57600080fd5b506103b16103ac366004613cd3565b610d9b565b60405190151581526020015b60405180910390f35b3480156103d257600080fd5b506103db610dbe565b6040516103bd9190614398565b3480156103f457600080fd5b5061038f610403366004613e6f565b610e50565b34801561041457600080fd5b50610428610423366004613cbb565b610ed9565b6040516001600160a01b0390911681526020016103bd565b34801561044c57600080fd5b5061038f61045b366004613c76565b610f00565b34801561046c57600080fd5b5061038f61047b366004613cbb565b611016565b34801561048c57600080fd5b5061038f61049b366004613e6f565b611089565b3480156104ac57600080fd5b506104f46104bb366004613cbb565b60086020526000908152604090208054600182015460029092015461ffff821692620100009092046001600160a01b0316919060ff1684565b6040805161ffff90951685526001600160a01b03909316602085015291830152151560608201526080016103bd565b34801561052f57600080fd5b5061038f61053e366004613a32565b6110e1565b34801561054f57600080fd5b5061056361055e36600461400e565b611113565b604080519283526020830191909152016103bd565b34801561058457600080fd5b5061058e6107e881565b6040519081526020016103bd565b3480156105a857600080fd5b506103b16105b7366004613e89565b611139565b3480156105c857600080fd5b5061038f6105d7366004613a32565b611205565b3480156105e857600080fd5b5061038f6105f7366004613e89565b611220565b34801561060857600080fd5b5061061c6106173660046139de565b6112a6565b6040516103bd919061436c565b34801561063557600080fd5b5061058e60055481565b34801561064b57600080fd5b5061058e61065a366004613e6f565b60066020526000908152604090205481565b34801561067857600080fd5b506011546103b19060ff1681565b61038f610694366004613bdc565b6113a7565b3480156106a557600080fd5b5061038f6106b4366004613e2a565b6113be565b3480156106c557600080fd5b5061058e6106d436600461406a565b6004602090815260009384526040808520845180860184018051928152908401958401959095209452929052825290205481565b34801561071457600080fd5b50610428610723366004613cbb565b6113dd565b34801561073457600080fd5b5061038f610743366004613ed9565b61143d565b34801561075457600080fd5b5061058e6107633660046139de565b611519565b34801561077457600080fd5b5061038f61159f565b34801561078957600080fd5b506103db610798366004613e6f565b6115b3565b3480156107a957600080fd5b5061058e6107b83660046140c5565b600260209081526000928352604080842090915290825290205481565b3480156107e157600080fd5b506000546001600160a01b0316610428565b3480156107ff57600080fd5b5061038f61080e366004613d0b565b61164d565b34801561081f57600080fd5b50600354610428906001600160a01b031681565b34801561083f57600080fd5b506103db61189c565b34801561085457600080fd5b5061038f6108633660046141e1565b6118ab565b34801561087457600080fd5b506103db610883366004613e6f565b61192e565b34801561089457600080fd5b5061038f6108a3366004613adb565b611a45565b3480156108b457600080fd5b5061038f6108c3366004613e89565b611a50565b61038f6108d6366004613b0f565b611ae3565b3480156108e757600080fd5b506108f0600181565b60405161ffff90911681526020016103bd565b34801561090f57600080fd5b5061038f61091e366004613e2a565b611af2565b34801561092f57600080fd5b506104287f000000000000000000000000000000000000000000000000000000000000000081565b34801561096357600080fd5b5061038f610972366004613a72565b611b0d565b34801561098357600080fd5b5061038f6109923660046139de565b611b3f565b3480156109a357600080fd5b506103db6109b2366004613cbb565b611b9b565b3480156109c357600080fd5b5061038f6109d2366004614175565b611c01565b3480156109e357600080fd5b5061038f6109f23660046141e1565b611c96565b61038f610a05366004613ed9565b611d1a565b348015610a1657600080fd5b506103db611f30565b348015610a2b57600080fd5b5061038f610a3a36600461413a565b611f3d565b348015610a4b57600080fd5b5061038f610a5a366004613ca1565b611fef565b348015610a6b57600080fd5b506103b1610a7a3660046139fa565b6001600160a01b039182166000908152600e6020908152604080832093909416825291909152205460ff1690565b348015610ab457600080fd5b5061038f610ac3366004613e89565b61200a565b348015610ad457600080fd5b50610563610ae3366004613f69565b612064565b348015610af457600080fd5b5061038f610b033660046139de565b61213e565b348015610b1457600080fd5b506103db6121b7565b348015610b2957600080fd5b506103db610b383660046140ee565b6121c4565b348015610b4957600080fd5b5061058e610b58366004613e6f565b60076020526000908152604090205481565b337f00000000000000000000000000000000000000000000000000000000000000006001600160a01b031614610be75760405162461bcd60e51b815260206004820152601e60248201527f4c7a4170703a20696e76616c696420656e64706f696e742063616c6c6572000060448201526064015b60405180910390fd5b61ffff861660009081526001602052604081208054610c059061478e565b80601f0160208091040260200160405190810160405280929190818152602001828054610c319061478e565b8015610c7e5780601f10610c5357610100808354040283529160200191610c7e565b820191906000526020600020905b815481529060010190602001808311610c6157829003601f168201915b50505050509050805186869050148015610c99575060008151115b8015610cc1575080516020820120604051610cb790889088906142ae565b6040518091039020145b610d1c5760405162461bcd60e51b815260206004820152602660248201527f4c7a4170703a20696e76616c696420736f757263652073656e64696e6720636f6044820152651b9d1c9858dd60d21b6064820152608401610bde565b610d928787878080601f01602080910402602001604051908101604052809392919081815260200183838082843760009201919091525050604080516020601f8a018190048102820181019092528881528a93509150889088908190840183828082843760009201919091525061228692505050565b50505050505050565b60006001600160e01b031982161580610db85750610db8826122ff565b92915050565b606060098054610dcd9061478e565b80601f0160208091040260200160405190810160405280929190818152602001828054610df99061478e565b8015610e465780601f10610e1b57610100808354040283529160200191610e46565b820191906000526020600020905b815481529060010190602001808311610e2957829003601f168201915b5050505050905090565b610e5861233f565b6040516307e0db1760e01b815261ffff821660048201527f00000000000000000000000000000000000000000000000000000000000000006001600160a01b0316906307e0db17906024015b600060405180830381600087803b158015610ebe57600080fd5b505af1158015610ed2573d6000803e3d6000fd5b5050505050565b6000610ee482612399565b506000908152600d60205260409020546001600160a01b031690565b6000610f0b826113dd565b9050806001600160a01b0316836001600160a01b03161415610f795760405162461bcd60e51b815260206004820152602160248201527f4552433732313a20617070726f76616c20746f2063757272656e74206f776e656044820152603960f91b6064820152608401610bde565b336001600160a01b0382161480610f955750610f958133610a7a565b6110075760405162461bcd60e51b815260206004820152603d60248201527f4552433732313a20617070726f76652063616c6c6572206973206e6f7420746f60448201527f6b656e206f776e6572206f7220617070726f76656420666f7220616c6c0000006064820152608401610bde565b61101183836123e9565b505050565b61101e61233f565b600081116110845760405162461bcd60e51b815260206004820152602d60248201527f4f4e46543732313a206d696e476173546f5472616e73666572416e6453746f7260448201526c065206d757374206265203e203609c1b6064820152608401610bde565b600555565b61109161233f565b6040516310ddb13760e01b815261ffff821660048201527f00000000000000000000000000000000000000000000000000000000000000006001600160a01b0316906310ddb13790602401610ea4565b6110ec335b82612457565b6111085760405162461bcd60e51b8152600401610bde906143d9565b6110118383836124d5565b60008061112b878761112488612646565b8787612064565b915091509550959350505050565b61ffff83166000908152600160205260408120805482919061115a9061478e565b80601f01602080910402602001604051908101604052809291908181526020018280546111869061478e565b80156111d35780601f106111a8576101008083540402835291602001916111d3565b820191906000526020600020905b8154815290600101906020018083116111b657829003601f168201915b5050505050905083836040516111ea9291906142ae565b60405180910390208180519060200120149150509392505050565b61101183838360405180602001604052806000815250611b0d565b61122861233f565b6040516342d65a8d60e01b81526001600160a01b037f000000000000000000000000000000000000000000000000000000000000000016906342d65a8d9061127890869086908690600401614511565b600060405180830381600087803b15801561129257600080fd5b505af1158015610d92573d6000803e3d6000fd5b606060006112b383611519565b90506000816001600160401b038111156112dd57634e487b7160e01b600052604160045260246000fd5b604051908082528060200260200182016040528015611306578160200160208202803683370190505b50905081611315579392505050565b6000805b6107e881101561139d576000818152600b60205260409020546001600160a01b038781169116141561138b578083838151811061136657634e487b7160e01b600052603260045260246000fd5b60209081029190910101528161137b816147c9565b9250508382141561138b5761139d565b80611395816147c9565b915050611319565b5090949350505050565b610d928787876113b688612646565b87878761269f565b6113c661233f565b80516113d990600f906020840190613738565b5050565b6000818152600b60205260408120546001600160a01b031680610db85760405162461bcd60e51b8152602060048201526018602482015277115490cdcc8c4e881a5b9d985b1a59081d1bdad95b88125160421b6044820152606401610bde565b33301461149b5760405162461bcd60e51b815260206004820152602660248201527f4e6f6e626c6f636b696e674c7a4170703a2063616c6c6572206d7573742062656044820152650204c7a4170760d41b6064820152608401610bde565b6115118686868080601f01602080910402602001604051908101604052809392919081815260200183838082843760009201919091525050604080516020601f89018190048102820181019092528781528993509150879087908190840183828082843760009201919091525061289492505050565b505050505050565b60006001600160a01b0382166115835760405162461bcd60e51b815260206004820152602960248201527f4552433732313a2061646472657373207a65726f206973206e6f7420612076616044820152683634b21037bbb732b960b91b6064820152608401610bde565b506001600160a01b03166000908152600c602052604090205490565b6115a761233f565b6115b160006129eb565b565b600160205260009081526040902080546115cc9061478e565b80601f01602080910402602001604051908101604052809291908181526020018280546115f89061478e565b80156116455780601f1061161a57610100808354040283529160200191611645565b820191906000526020600020905b81548152906001019060200180831161162857829003601f168201915b505050505081565b80516020808301919091206000818152600890925260409091206002015460ff166116ba5760405162461bcd60e51b815260206004820152601a60248201527f4f4e46543732313a206e6f20637265646974732073746f7265640000000000006044820152606401610bde565b6000828060200190518101906116d09190613d6f565b6000848152600860205260408120805460019091015492945090925061170c9161ffff8216916201000090046001600160a01b03169085612a3b565b600084815260086020526040902060010154909150811161178a5760405162461bcd60e51b815260206004820152603260248201527f4f4e46543732313a206e6f7420656e6f7567682067617320746f2070726f636560448201527139b99031b932b234ba103a3930b739b332b960711b6064820152608401610bde565b81518114156118025760008381526008602052604080822080546001600160b01b031916815560018101929092556002909101805460ff19169055517fd7be02b8dd0d27bd0517a9cb4d7469ce27df4313821ae5ec1ff69acc594ba233906117f59085815260200190565b60405180910390a1611896565b60408051608081018252600085815260086020818152848320805461ffff80821687526001600160a01b03620100008084048216868a019081529989018b8152600160608b01818152998f90529790965297519851169096026001600160b01b03199091169690951695909517939093178455915191830191909155516002909101805491151560ff199092169190911790555b50505050565b6060600a8054610dcd9061478e565b6118b361233f565b600081116119175760405162461bcd60e51b815260206004820152602b60248201527f4f4e46543732313a20647374436861696e4964546f42617463684c696d69742060448201526a06d757374206265203e20360ac1b6064820152608401610bde565b61ffff909116600090815260066020526040902055565b61ffff81166000908152600160205260408120805460609291906119519061478e565b80601f016020809104026020016040519081016040528092919081815260200182805461197d9061478e565b80156119ca5780601f1061199f576101008083540402835291602001916119ca565b820191906000526020600020905b8154815290600101906020018083116119ad57829003601f168201915b50505050509050805160001415611a235760405162461bcd60e51b815260206004820152601d60248201527f4c7a4170703a206e6f20747275737465642070617468207265636f72640000006044820152606401610bde565b611a3e600060148351611a36919061474b565b839190612a9b565b9392505050565b6113d9338383612ba8565b611a5861233f565b818130604051602001611a6d939291906142be565b60408051601f1981840301815291815261ffff85166000908152600160209081529190208251611aa293919290910190613738565b507f8c0400cfe2d1199b1a725c78960bcc2a344d869b80590d0f2bd005db15a572ce838383604051611ad693929190614511565b60405180910390a1505050565b610d928787878787878761269f565b611afa61233f565b80516113d9906010906020840190613738565b611b173383612457565b611b335760405162461bcd60e51b8152600401610bde906143d9565b61189684848484612c77565b611b4761233f565b600380546001600160a01b0319166001600160a01b0383169081179091556040519081527f5db758e995a17ec1ad84bdef7e8c3293a0bd6179bcce400dff5d4c3d87db726b9060200160405180910390a150565b6060611ba682612399565b6000611bb0612caa565b90506000815111611bd05760405180602001604052806000815250611a3e565b80611bda84612cb9565b604051602001611beb929190614300565b6040516020818303038152906040529392505050565b611c0961233f565b6040516332fb62e760e21b81526001600160a01b037f0000000000000000000000000000000000000000000000000000000000000000169063cbed8b9c90611c5d908890889088908890889060040161466c565b600060405180830381600087803b158015611c7757600080fd5b505af1158015611c8b573d6000803e3d6000fd5b505050505050505050565b611c9e61233f565b60008111611d035760405162461bcd60e51b815260206004820152602c60248201527f4f4e46543732313a20647374436861696e4964546f5472616e7366657247617360448201526b0206d757374206265203e20360a41b6064820152608401610bde565b61ffff909116600090815260076020526040902055565b61ffff86166000908152600460205260408082209051611d3d90889088906142ae565b90815260408051602092819003830190206001600160401b03871660009081529252902054905080611dbd5760405162461bcd60e51b815260206004820152602360248201527f4e6f6e626c6f636b696e674c7a4170703a206e6f2073746f726564206d65737360448201526261676560e81b6064820152608401610bde565b808383604051611dce9291906142ae565b604051809103902014611e2d5760405162461bcd60e51b815260206004820152602160248201527f4e6f6e626c6f636b696e674c7a4170703a20696e76616c6964207061796c6f616044820152601960fa1b6064820152608401610bde565b61ffff87166000908152600460205260408082209051611e5090899089906142ae565b90815260408051602092819003830181206001600160401b038916600090815290845282902093909355601f88018290048202830182019052868252611ee8918991899089908190840183828082843760009201919091525050604080516020601f8a018190048102820181019092528881528a93509150889088908190840183828082843760009201919091525061289492505050565b7fc264d91f3adc5588250e1551f547752ca0cfa8f6b530d243b9f9f4cab10ea8e58787878785604051611f1f95949392919061452f565b60405180910390a150505050505050565b600f80546115cc9061478e565b611f4561233f565b60008111611f8d5760405162461bcd60e51b81526020600482015260156024820152744c7a4170703a20696e76616c6964206d696e47617360581b6044820152606401610bde565b61ffff83811660008181526002602090815260408083209487168084529482529182902085905581519283528201929092529081018290527f9d5c7c0b934da8fefa9c7760c98383778a12dfbfc0c3b3106518f43fb9508ac090606001611ad6565b611ff761233f565b6011805460ff1916911515919091179055565b61201261233f565b61ffff831660009081526001602052604090206120309083836137bc565b507ffa41487ad5d6728f0b19276fa1eddc16558578f5109fc39d2dc33c3230470dab838383604051611ad693929190614511565b6000806000868660405160200161207c9291906143ab565b60408051601f198184030181529082905263040a7bb160e41b825291506001600160a01b037f000000000000000000000000000000000000000000000000000000000000000016906340a7bb10906120e0908b90309086908b908b906004016144bd565b604080518083038186803b1580156120f757600080fd5b505afa15801561210b573d6000803e3d6000fd5b505050506040513d601f19601f8201168201806040525081019061212f91906141fc565b92509250509550959350505050565b61214661233f565b6001600160a01b0381166121ab5760405162461bcd60e51b815260206004820152602660248201527f4f776e61626c653a206e6577206f776e657220697320746865207a65726f206160448201526564647265737360d01b6064820152608401610bde565b6121b4816129eb565b50565b601080546115cc9061478e565b604051633d7b2f6f60e21b815261ffff808616600483015284166024820152306044820152606481018290526060907f00000000000000000000000000000000000000000000000000000000000000006001600160a01b03169063f5ecbdbc9060840160006040518083038186803b15801561223f57600080fd5b505afa158015612253573d6000803e3d6000fd5b505050506040513d6000823e601f3d908101601f1916820160405261227b9190810190613d3d565b90505b949350505050565b6000806122e95a60966366ad5c8a60e01b898989896040516024016122ae94939291906145d1565b60408051601f198184030181529190526020810180516001600160e01b03166001600160e01b03199093169290921790915230929190612d63565b9150915081611511576115118686868685612dfb565b60006001600160e01b031982166380ac58cd60e01b148061233057506001600160e01b03198216635b5e139f60e01b145b80610db85750610db882612e98565b6000546001600160a01b031633146115b15760405162461bcd60e51b815260206004820181905260248201527f4f776e61626c653a2063616c6c6572206973206e6f7420746865206f776e65726044820152606401610bde565b6123a281612ecd565b6121b45760405162461bcd60e51b8152602060048201526018602482015277115490cdcc8c4e881a5b9d985b1a59081d1bdad95b88125160421b6044820152606401610bde565b6000818152600d6020526040902080546001600160a01b0319166001600160a01b038416908117909155819061241e826113dd565b6001600160a01b03167f8c5be1e5ebec7d5bd14f71427d1e84f3dd0314c0f7b2291e5b200ac8c7c3b92560405160405180910390a45050565b600080612463836113dd565b9050806001600160a01b0316846001600160a01b031614806124aa57506001600160a01b038082166000908152600e602090815260408083209388168352929052205460ff165b8061227e5750836001600160a01b03166124c384610ed9565b6001600160a01b031614949350505050565b826001600160a01b03166124e8826113dd565b6001600160a01b03161461250e5760405162461bcd60e51b8152600401610bde90614478565b6001600160a01b0382166125705760405162461bcd60e51b8152602060048201526024808201527f4552433732313a207472616e7366657220746f20746865207a65726f206164646044820152637265737360e01b6064820152608401610bde565b61257d8383836001612eea565b826001600160a01b0316612590826113dd565b6001600160a01b0316146125b65760405162461bcd60e51b8152600401610bde90614478565b6000818152600d6020908152604080832080546001600160a01b03199081169091556001600160a01b03878116808652600c8552838620805460001901905590871680865283862080546001019055868652600b90945282852080549092168417909155905184937fddf252ad1be2c89b69c2b068fc378daa952ba7f163c4a11628f55a4df523b3ef91a4505050565b6040805160018082528183019092526060916000919060208083019080368337019050509050828160008151811061268e57634e487b7160e01b600052603260045260246000fd5b602090810291909101015292915050565b60008451116126f05760405162461bcd60e51b815260206004820152601a60248201527f4c7a4170703a20746f6b656e4964735b5d20697320656d7074790000000000006044820152606401610bde565b835160011480612714575061ffff8616600090815260066020526040902054845111155b6127745760405162461bcd60e51b815260206004820152602b60248201527f4f4e46543732313a2062617463682073697a652065786365656473206473742060448201526a18985d18da081b1a5b5a5d60aa1b6064820152608401610bde565b60005b84518110156127c5576127b38888888885815181106127a657634e487b7160e01b600052603260045260246000fd5b6020026020010151612f72565b806127bd816147c9565b915050612777565b50600085856040516020016127db9291906143ab565b6040516020818303038152906040529050612820876001848851600760008d61ffff1661ffff1681526020019081526020016000205461281b919061472c565b61305d565b61282e87828686863461313c565b8560405161283c91906142e4565b6040518091039020886001600160a01b03168861ffff167fe1b87c47fdeb4f9cbadbca9df3af7aba453bb6e501075d0440d88125b711522a88604051612882919061436c565b60405180910390a45050505050505050565b600080828060200190518101906128ab9190613d6f565b6014820151919350915060006128c388838386612a3b565b905082518110156129975784516020808701919091206040805160808101825261ffff808d1682526001600160a01b0380881683870190815283850188815260016060860181815260008981526008909a529887902095518654935190941662010000026001600160b01b03199093169390941692909217178355519082015592516002909301805493151560ff199094169390931790925590517f10e0b70d256bccc84b7027506978bd8b68984a870788b93b479def144c839ad79061298d908390899061437f565b60405180910390a1505b816001600160a01b0316876040516129af91906142e4565b60405180910390208961ffff167f5b821db8a46f8ecbe1941ba2f51cfeea9643268b56631f70d45e2a745d99026586604051612882919061436c565b600080546001600160a01b038381166001600160a01b0319831681178455604051919092169283917f8be0079c531659141344cd1fd0a4f28419497f9722a3daafe3b4186f6b6457e09190a35050565b6000825b825181101561227b576005545a1015612a575761227b565b612a898686858481518110612a7c57634e487b7160e01b600052603260045260246000fd5b60200260200101516132d7565b80612a93816147c9565b915050612a3f565b606081612aa981601f614714565b1015612ae85760405162461bcd60e51b815260206004820152600e60248201526d736c6963655f6f766572666c6f7760901b6044820152606401610bde565b612af28284614714565b84511015612b365760405162461bcd60e51b8152602060048201526011602482015270736c6963655f6f75744f66426f756e647360781b6044820152606401610bde565b606082158015612b555760405191506000825260208201604052612b9f565b6040519150601f8416801560200281840101858101878315602002848b0101015b81831015612b8e578051835260209283019201612b76565b5050858452601f01601f1916604052505b50949350505050565b816001600160a01b0316836001600160a01b03161415612c0a5760405162461bcd60e51b815260206004820152601960248201527f4552433732313a20617070726f766520746f2063616c6c6572000000000000006044820152606401610bde565b6001600160a01b038381166000818152600e6020908152604080832094871680845294825291829020805460ff191686151590811790915591519182527f17307eab39ab6107e8899845ad3d59bd9653f200f220920489ca2b5937696c31910160405180910390a3505050565b612c828484846124d5565b612c8e84848484613337565b6118965760405162461bcd60e51b8152600401610bde90614426565b6060600f8054610dcd9061478e565b60606000612cc683613441565b60010190506000816001600160401b03811115612cf357634e487b7160e01b600052604160045260246000fd5b6040519080825280601f01601f191660200182016040528015612d1d576020820181803683370190505b5090508181016020015b600019016f181899199a1a9b1b9c1cb0b131b232b360811b600a86061a8153600a8504945084612d5657612d5b565b612d27565b509392505050565b6000606060008060008661ffff166001600160401b03811115612d9657634e487b7160e01b600052604160045260246000fd5b6040519080825280601f01601f191660200182016040528015612dc0576020820181803683370190505b50905060008087516020890160008d8df191503d925086831115612de2578692505b828152826000602083013e909890975095505050505050565b8180519060200120600460008761ffff1661ffff16815260200190815260200160002085604051612e2c91906142e4565b9081526040805191829003602090810183206001600160401b0388166000908152915220919091557fe183f33de2837795525b4792ca4cd60535bd77c53b7e7030060bfcf5734d6b0c90612e89908790879087908790879061461a565b60405180910390a15050505050565b60006001600160e01b031982166322bac5d960e01b1480610db857506301ffc9a760e01b6001600160e01b0319831614610db8565b6000908152600b60205260409020546001600160a01b0316151590565b6001811115611896576001600160a01b03841615612f30576001600160a01b0384166000908152600c602052604081208054839290612f2a90849061474b565b90915550505b6001600160a01b03831615611896576001600160a01b0383166000908152600c602052604081208054839290612f67908490614714565b909155505050505050565b612f7b336110e6565b612fde5760405162461bcd60e51b815260206004820152602e60248201527f4f4e46543732313a2073656e642063616c6c6572206973206e6f74206f776e6560448201526d1c881b9bdc88185c1c1c9bdd995960921b6064820152608401610bde565b836001600160a01b0316612ff1826113dd565b6001600160a01b0316146130525760405162461bcd60e51b815260206004820152602260248201527f4f4e46543732313a2073656e642066726f6d20696e636f7272656374206f776e60448201526132b960f11b6064820152608401610bde565b6118968430836124d5565b600061306883613519565b61ffff80871660009081526002602090815260408083209389168352929052908120549192509061309a908490614714565b9050600081116130ec5760405162461bcd60e51b815260206004820152601a60248201527f4c7a4170703a206d696e4761734c696d6974206e6f74207365740000000000006044820152606401610bde565b808210156115115760405162461bcd60e51b815260206004820152601b60248201527f4c7a4170703a20676173206c696d697420697320746f6f206c6f7700000000006044820152606401610bde565b61ffff86166000908152600160205260408120805461315a9061478e565b80601f01602080910402602001604051908101604052809291908181526020018280546131869061478e565b80156131d35780601f106131a8576101008083540402835291602001916131d3565b820191906000526020600020905b8154815290600101906020018083116131b657829003601f168201915b505050505090508051600014156132455760405162461bcd60e51b815260206004820152603060248201527f4c7a4170703a2064657374696e6174696f6e20636861696e206973206e6f742060448201526f61207472757374656420736f7572636560801b6064820152608401610bde565b60405162c5803160e81b81526001600160a01b037f0000000000000000000000000000000000000000000000000000000000000000169063c580310090849061329c908b9086908c908c908c908c9060040161456a565b6000604051808303818588803b1580156132b557600080fd5b505af11580156132c9573d6000803e3d6000fd5b505050505050505050505050565b6132e081612ecd565b158061330c57506132f081612ecd565b801561330c575030613301826113dd565b6001600160a01b0316145b61331557600080fd5b61331e81612ecd565b61332c576110118282613575565b6110113083836124d5565b60006001600160a01b0384163b1561343957604051630a85bd0160e11b81526001600160a01b0385169063150b7a029061337b90339089908890889060040161432f565b602060405180830381600087803b15801561339557600080fd5b505af19250505080156133c5575060408051601f3d908101601f191682019092526133c291810190613cef565b60015b61341f573d8080156133f3576040519150601f19603f3d011682016040523d82523d6000602084013e6133f8565b606091505b5080516134175760405162461bcd60e51b8152600401610bde90614426565b805181602001fd5b6001600160e01b031916630a85bd0160e11b14905061227e565b50600161227e565b60008072184f03e93ff9f4daa797ed6e38ed64bf6a1f0160401b83106134805772184f03e93ff9f4daa797ed6e38ed64bf6a1f0160401b830492506040015b6d04ee2d6d415b85acef810000000083106134ac576d04ee2d6d415b85acef8100000000830492506020015b662386f26fc1000083106134ca57662386f26fc10000830492506010015b6305f5e10083106134e2576305f5e100830492506008015b61271083106134f657612710830492506004015b60648310613508576064830492506002015b600a8310610db85760010192915050565b600060228251101561356d5760405162461bcd60e51b815260206004820152601c60248201527f4c7a4170703a20696e76616c69642061646170746572506172616d73000000006044820152606401610bde565b506022015190565b6113d982826040518060200160405280600081525061359483836135bd565b6135a16000848484613337565b6110115760405162461bcd60e51b8152600401610bde90614426565b6001600160a01b0382166136135760405162461bcd60e51b815260206004820181905260248201527f4552433732313a206d696e7420746f20746865207a65726f20616464726573736044820152606401610bde565b61361c81612ecd565b156136695760405162461bcd60e51b815260206004820152601c60248201527f4552433732313a20746f6b656e20616c7265616479206d696e746564000000006044820152606401610bde565b613677600083836001612eea565b61368081612ecd565b156136cd5760405162461bcd60e51b815260206004820152601c60248201527f4552433732313a20746f6b656e20616c7265616479206d696e746564000000006044820152606401610bde565b6001600160a01b0382166000818152600c6020908152604080832080546001019055848352600b90915280822080546001600160a01b0319168417905551839291907fddf252ad1be2c89b69c2b068fc378daa952ba7f163c4a11628f55a4df523b3ef908290a45050565b8280546137449061478e565b90600052602060002090601f01602090048101928261376657600085556137ac565b82601f1061377f57805160ff19168380011785556137ac565b828001600101855582156137ac579182015b828111156137ac578251825591602001919060010190613791565b506137b8929150613830565b5090565b8280546137c89061478e565b90600052602060002090601f0160209004810192826137ea57600085556137ac565b82601f106138035782800160ff198235161785556137ac565b828001600101855582156137ac579182015b828111156137ac578235825591602001919060010190613815565b5b808211156137b85760008155600101613831565b6000613858613853846146ed565b61469a565b905082815283838301111561386c57600080fd5b828260208301376000602084830101529392505050565b803561388e81614810565b919050565b600082601f8301126138a3578081fd5b813560206138b3613853836146ca565b80838252828201915082860187848660051b89010111156138d2578586fd5b855b858110156138f0578135845292840192908401906001016138d4565b5090979650505050505050565b8035801515811461388e57600080fd5b60008083601f84011261391e578182fd5b5081356001600160401b03811115613934578182fd5b60208301915083602082850101111561394c57600080fd5b9250929050565b600082601f830112613963578081fd5b611a3e83833560208501613845565b600082601f830112613982578081fd5b8151613990613853826146ed565b8181528460208386010111156139a4578283fd5b61227e826020830160208701614762565b803561ffff8116811461388e57600080fd5b80356001600160401b038116811461388e57600080fd5b6000602082840312156139ef578081fd5b8135611a3e81614810565b60008060408385031215613a0c578081fd5b8235613a1781614810565b91506020830135613a2781614810565b809150509250929050565b600080600060608486031215613a46578081fd5b8335613a5181614810565b92506020840135613a6181614810565b929592945050506040919091013590565b60008060008060808587031215613a87578081fd5b8435613a9281614810565b93506020850135613aa281614810565b92506040850135915060608501356001600160401b03811115613ac3578182fd5b613acf87828801613953565b91505092959194509250565b60008060408385031215613aed578182fd5b8235613af881614810565b9150613b06602084016138fd565b90509250929050565b600080600080600080600060e0888a031215613b29578485fd5b8735613b3481614810565b9650613b42602089016139b5565b955060408801356001600160401b0380821115613b5d578687fd5b613b698b838c01613953565b965060608a0135915080821115613b7e578485fd5b613b8a8b838c01613893565b955060808a01359150613b9c82614810565b819450613bab60a08b01613883565b935060c08a0135915080821115613bc0578283fd5b50613bcd8a828b01613953565b91505092959891949750929550565b600080600080600080600060e0888a031215613bf6578081fd5b8735613c0181614810565b9650613c0f602089016139b5565b955060408801356001600160401b0380821115613c2a578283fd5b613c368b838c01613953565b965060608a0135955060808a01359150613c4f82614810565b90935060a089013590613c6182614810565b90925060c08901359080821115613bc0578283fd5b60008060408385031215613c88578182fd5b8235613c9381614810565b946020939093013593505050565b600060208284031215613cb2578081fd5b611a3e826138fd565b600060208284031215613ccc578081fd5b5035919050565b600060208284031215613ce4578081fd5b8135611a3e81614825565b600060208284031215613d00578081fd5b8151611a3e81614825565b600060208284031215613d1c578081fd5b81356001600160401b03811115613d31578182fd5b61227e84828501613953565b600060208284031215613d4e578081fd5b81516001600160401b03811115613d63578182fd5b61227e84828501613972565b60008060408385031215613d81578182fd5b82516001600160401b0380821115613d97578384fd5b613da386838701613972565b9350602091508185015181811115613db9578384fd5b85019050601f81018613613dcb578283fd5b8051613dd9613853826146ca565b80828252848201915084840189868560051b8701011115613df8578687fd5b8694505b83851015613e1a578051835260019490940193918501918501613dfc565b5080955050505050509250929050565b600060208284031215613e3b578081fd5b81356001600160401b03811115613e50578182fd5b8201601f81018413613e60578182fd5b61227e84823560208401613845565b600060208284031215613e80578081fd5b611a3e826139b5565b600080600060408486031215613e9d578081fd5b613ea6846139b5565b925060208401356001600160401b03811115613ec0578182fd5b613ecc8682870161390d565b9497909650939450505050565b60008060008060008060808789031215613ef1578384fd5b613efa876139b5565b955060208701356001600160401b0380821115613f15578586fd5b613f218a838b0161390d565b9097509550859150613f3560408a016139c7565b94506060890135915080821115613f4a578384fd5b50613f5789828a0161390d565b979a9699509497509295939492505050565b600080600080600060a08688031215613f80578283fd5b613f89866139b5565b945060208601356001600160401b0380821115613fa4578485fd5b613fb089838a01613953565b95506040880135915080821115613fc5578485fd5b613fd189838a01613893565b9450613fdf606089016138fd565b93506080880135915080821115613ff4578283fd5b5061400188828901613953565b9150509295509295909350565b600080600080600060a08688031215614025578283fd5b61402e866139b5565b945060208601356001600160401b0380821115614049578485fd5b61405589838a01613953565b955060408801359450613fdf606089016138fd565b60008060006060848603121561407e578081fd5b614087846139b5565b925060208401356001600160401b038111156140a1578182fd5b6140ad86828701613953565b9250506140bc604085016139c7565b90509250925092565b600080604083850312156140d7578182fd5b6140e0836139b5565b9150613b06602084016139b5565b60008060008060808587031215614103578182fd5b61410c856139b5565b935061411a602086016139b5565b9250604085013561412a81614810565b9396929550929360600135925050565b60008060006060848603121561414e578081fd5b614157846139b5565b9250614165602085016139b5565b9150604084013590509250925092565b60008060008060006080868803121561418c578283fd5b614195866139b5565b94506141a3602087016139b5565b93506040860135925060608601356001600160401b038111156141c4578182fd5b6141d08882890161390d565b969995985093965092949392505050565b600080604083850312156141f3578182fd5b613c93836139b5565b6000806040838503121561420e578182fd5b505080516020909101519092909150565b6000815180845260208085019450808401835b8381101561424e57815187529582019590820190600101614232565b509495945050505050565b81835281816020850137506000828201602090810191909152601f909101601f19169091010190565b6000815180845261429a816020860160208601614762565b601f01601f19169290920160200192915050565b8183823760009101908152919050565b8284823760609190911b6bffffffffffffffffffffffff19169101908152601401919050565b600082516142f6818460208701614762565b9190910192915050565b60008351614312818460208801614762565b835190830190614326818360208801614762565b01949350505050565b6001600160a01b038581168252841660208201526040810183905260806060820181905260009061436290830184614282565b9695505050505050565b602081526000611a3e602083018461421f565b82815260406020820152600061227e6040830184614282565b602081526000611a3e6020830184614282565b6040815260006143be6040830185614282565b82810360208401526143d0818561421f565b95945050505050565b6020808252602d908201527f4552433732313a2063616c6c6572206973206e6f7420746f6b656e206f776e6560408201526c1c881bdc88185c1c1c9bdd9959609a1b606082015260800190565b60208082526032908201527f4552433732313a207472616e7366657220746f206e6f6e20455243373231526560408201527131b2b4bb32b91034b6b83632b6b2b73a32b960711b606082015260800190565b60208082526025908201527f4552433732313a207472616e736665722066726f6d20696e636f72726563742060408201526437bbb732b960d91b606082015260800190565b61ffff861681526001600160a01b038516602082015260a0604082018190526000906144eb90830186614282565b841515606084015282810360808401526145058185614282565b98975050505050505050565b61ffff8416815260406020820152600061227b604083018486614259565b61ffff8616815260806020820152600061454d608083018688614259565b6001600160401b0394909416604083015250606001529392505050565b61ffff8716815260c06020820152600061458760c0830188614282565b82810360408401526145998188614282565b6001600160a01b0387811660608601528616608085015283810360a085015290506145c48185614282565b9998505050505050505050565b61ffff851681526080602082015260006145ee6080830186614282565b6001600160401b0385166040840152828103606084015261460f8185614282565b979650505050505050565b61ffff8616815260a06020820152600061463760a0830187614282565b6001600160401b038616604084015282810360608401526146588186614282565b905082810360808401526145058185614282565b600061ffff80881683528087166020840152508460408301526080606083015261460f608083018486614259565b604051601f8201601f191681016001600160401b03811182821017156146c2576146c26147fa565b604052919050565b60006001600160401b038211156146e3576146e36147fa565b5060051b60200190565b60006001600160401b03821115614706576147066147fa565b50601f01601f191660200190565b60008219821115614727576147276147e4565b500190565b6000816000190483118215151615614746576147466147e4565b500290565b60008282101561475d5761475d6147e4565b500390565b60005b8381101561477d578181015183820152602001614765565b838111156118965750506000910152565b600181811c908216806147a257607f821691505b602082108114156147c357634e487b7160e01b600052602260045260246000fd5b50919050565b60006000198214156147dd576147dd6147e4565b5060010190565b634e487b7160e01b600052601160045260246000fd5b634e487b7160e01b600052604160045260246000fd5b6001600160a01b03811681146121b457600080fd5b6001600160e01b0319811681146121b457600080fdfea264697066735822122035c23cb87618542080a613c23da62da243a6bc63ed99ee52b28d201de98a9eed64736f6c63430008040033",
  "devdoc": {
    "kind": "dev",
    "methods": {
      "approve(address,uint256)": {
        "details": "See {IERC721-approve}."
      },
      "balanceOf(address)": {
        "details": "See {IERC721-balanceOf}."
      },
      "estimateSendBatchFee(uint16,bytes,uint256[],bool,bytes)": {
        "details": "estimate send token `_tokenId` to (`_dstChainId`, `_toAddress`) _dstChainId - L0 defined chain id to send tokens too _toAddress - dynamic bytes array which contains the address to whom you are sending tokens to on the dstChain _tokenIds[] - token Ids to transfer _useZro - indicates to use zro to pay L0 fees _adapterParams - flexible bytes array to indicate messaging adapter services in L0"
      },
      "estimateSendFee(uint16,bytes,uint256,bool,bytes)": {
        "details": "estimate send token `_tokenId` to (`_dstChainId`, `_toAddress`) _dstChainId - L0 defined chain id to send tokens too _toAddress - dynamic bytes array which contains the address to whom you are sending tokens to on the dstChain _tokenId - token Id to transfer _useZro - indicates to use zro to pay L0 fees _adapterParams - flexible bytes array to indicate messaging adapter services in L0"
      },
      "getApproved(uint256)": {
        "details": "See {IERC721-getApproved}."
      },
      "isApprovedForAll(address,address)": {
        "details": "See {IERC721-isApprovedForAll}."
      },
      "name()": {
        "details": "See {IERC721Metadata-name}."
      },
      "owner()": {
        "details": "Returns the address of the current owner."
      },
      "ownerOf(uint256)": {
        "details": "See {IERC721-ownerOf}."
      },
      "renounceOwnership()": {
        "details": "Leaves the contract without owner. It will not be possible to call `onlyOwner` functions anymore. Can only be called by the current owner. NOTE: Renouncing ownership will leave the contract without an owner, thereby removing any functionality that is only available to the owner."
      },
      "safeTransferFrom(address,address,uint256)": {
        "details": "See {IERC721-safeTransferFrom}."
      },
      "safeTransferFrom(address,address,uint256,bytes)": {
        "details": "See {IERC721-safeTransferFrom}."
      },
      "sendBatchFrom(address,uint16,bytes,uint256[],address,address,bytes)": {
        "details": "send tokens `_tokenIds[]` to (`_dstChainId`, `_toAddress`) from `_from` `_toAddress` can be any size depending on the `dstChainId`. `_zroPaymentAddress` set to address(0x0) if not paying in ZRO (LayerZero Token) `_adapterParams` is a flexible bytes array to indicate messaging adapter services"
      },
      "sendFrom(address,uint16,bytes,uint256,address,address,bytes)": {
        "details": "send token `_tokenId` to (`_dstChainId`, `_toAddress`) from `_from` `_toAddress` can be any size depending on the `dstChainId`. `_zroPaymentAddress` set to address(0x0) if not paying in ZRO (LayerZero Token) `_adapterParams` is a flexible bytes array to indicate messaging adapter services"
      },
      "setApprovalForAll(address,bool)": {
        "details": "See {IERC721-setApprovalForAll}."
      },
      "symbol()": {
        "details": "See {IERC721Metadata-symbol}."
      },
      "tokenURI(uint256)": {
        "details": "See {IERC721Metadata-tokenURI}."
      },
      "transferFrom(address,address,uint256)": {
        "details": "See {IERC721-transferFrom}."
      },
      "transferOwnership(address)": {
        "details": "Transfers ownership of the contract to a new account (`newOwner`). Can only be called by the current owner."
      }
    },
    "version": 1
  },
  "userdoc": {
    "kind": "user",
    "methods": {},
    "version": 1
  },
  "storageLayout": {
    "storage": [
      {
        "astId": 2281,
        "contract": "contracts/DecaNFT.sol:DecaNFT",
        "label": "_owner",
        "offset": 0,
        "slot": "0",
        "type": "t_address"
      },
      {
        "astId": 212,
        "contract": "contracts/DecaNFT.sol:DecaNFT",
        "label": "trustedRemoteLookup",
        "offset": 0,
        "slot": "1",
        "type": "t_mapping(t_uint16,t_bytes_storage)"
      },
      {
        "astId": 218,
        "contract": "contracts/DecaNFT.sol:DecaNFT",
        "label": "minDstGasLookup",
        "offset": 0,
        "slot": "2",
        "type": "t_mapping(t_uint16,t_mapping(t_uint16,t_uint256))"
      },
      {
        "astId": 220,
        "contract": "contracts/DecaNFT.sol:DecaNFT",
        "label": "precrime",
        "offset": 0,
        "slot": "3",
        "type": "t_address"
      },
      {
        "astId": 705,
        "contract": "contracts/DecaNFT.sol:DecaNFT",
        "label": "failedMessages",
        "offset": 0,
        "slot": "4",
        "type": "t_mapping(t_uint16,t_mapping(t_bytes_memory_ptr,t_mapping(t_uint64,t_bytes32)))"
      },
      {
        "astId": 1222,
        "contract": "contracts/DecaNFT.sol:DecaNFT",
        "label": "minGasToTransferAndStore",
        "offset": 0,
        "slot": "5",
        "type": "t_uint256"
      },
      {
        "astId": 1226,
        "contract": "contracts/DecaNFT.sol:DecaNFT",
        "label": "dstChainIdToBatchLimit",
        "offset": 0,
        "slot": "6",
        "type": "t_mapping(t_uint16,t_uint256)"
      },
      {
        "astId": 1230,
        "contract": "contracts/DecaNFT.sol:DecaNFT",
        "label": "dstChainIdToTransferGas",
        "offset": 0,
        "slot": "7",
        "type": "t_mapping(t_uint16,t_uint256)"
      },
      {
        "astId": 1235,
        "contract": "contracts/DecaNFT.sol:DecaNFT",
        "label": "storedCredits",
        "offset": 0,
        "slot": "8",
        "type": "t_mapping(t_bytes32,t_struct(StoredCredit)1220_storage)"
      },
      {
        "astId": 2412,
        "contract": "contracts/DecaNFT.sol:DecaNFT",
        "label": "_name",
        "offset": 0,
        "slot": "9",
        "type": "t_string_storage"
      },
      {
        "astId": 2414,
        "contract": "contracts/DecaNFT.sol:DecaNFT",
        "label": "_symbol",
        "offset": 0,
        "slot": "10",
        "type": "t_string_storage"
      },
      {
        "astId": 2418,
        "contract": "contracts/DecaNFT.sol:DecaNFT",
        "label": "_owners",
        "offset": 0,
        "slot": "11",
        "type": "t_mapping(t_uint256,t_address)"
      },
      {
        "astId": 2422,
        "contract": "contracts/DecaNFT.sol:DecaNFT",
        "label": "_balances",
        "offset": 0,
        "slot": "12",
        "type": "t_mapping(t_address,t_uint256)"
      },
      {
        "astId": 2426,
        "contract": "contracts/DecaNFT.sol:DecaNFT",
        "label": "_tokenApprovals",
        "offset": 0,
        "slot": "13",
        "type": "t_mapping(t_uint256,t_address)"
      },
      {
        "astId": 2432,
        "contract": "contracts/DecaNFT.sol:DecaNFT",
        "label": "_operatorApprovals",
        "offset": 0,
        "slot": "14",
        "type": "t_mapping(t_address,t_mapping(t_address,t_bool))"
      },
      {
        "astId": 4928,
        "contract": "contracts/DecaNFT.sol:DecaNFT",
        "label": "baseTokenURI",
        "offset": 0,
        "slot": "15",
        "type": "t_string_storage"
      },
      {
        "astId": 4930,
        "contract": "contracts/DecaNFT.sol:DecaNFT",
        "label": "prerevealTokenURI",
        "offset": 0,
        "slot": "16",
        "type": "t_string_storage"
      },
      {
        "astId": 4932,
        "contract": "contracts/DecaNFT.sol:DecaNFT",
        "label": "revealed",
        "offset": 0,
        "slot": "17",
        "type": "t_bool"
      }
    ],
    "types": {
      "t_address": {
        "encoding": "inplace",
        "label": "address",
        "numberOfBytes": "20"
      },
      "t_bool": {
        "encoding": "inplace",
        "label": "bool",
        "numberOfBytes": "1"
      },
      "t_bytes32": {
        "encoding": "inplace",
        "label": "bytes32",
        "numberOfBytes": "32"
      },
      "t_bytes_memory_ptr": {
        "encoding": "bytes",
        "label": "bytes",
        "numberOfBytes": "32"
      },
      "t_bytes_storage": {
        "encoding": "bytes",
        "label": "bytes",
        "numberOfBytes": "32"
      },
      "t_mapping(t_address,t_bool)": {
        "encoding": "mapping",
        "key": "t_address",
        "label": "mapping(address => bool)",
        "numberOfBytes": "32",
        "value": "t_bool"
      },
      "t_mapping(t_address,t_mapping(t_address,t_bool))": {
        "encoding": "mapping",
        "key": "t_address",
        "label": "mapping(address => mapping(address => bool))",
        "numberOfBytes": "32",
        "value": "t_mapping(t_address,t_bool)"
      },
      "t_mapping(t_address,t_uint256)": {
        "encoding": "mapping",
        "key": "t_address",
        "label": "mapping(address => uint256)",
        "numberOfBytes": "32",
        "value": "t_uint256"
      },
      "t_mapping(t_bytes32,t_struct(StoredCredit)1220_storage)": {
        "encoding": "mapping",
        "key": "t_bytes32",
        "label": "mapping(bytes32 => struct ONFT721Core.StoredCredit)",
        "numberOfBytes": "32",
        "value": "t_struct(StoredCredit)1220_storage"
      },
      "t_mapping(t_bytes_memory_ptr,t_mapping(t_uint64,t_bytes32))": {
        "encoding": "mapping",
        "key": "t_bytes_memory_ptr",
        "label": "mapping(bytes => mapping(uint64 => bytes32))",
        "numberOfBytes": "32",
        "value": "t_mapping(t_uint64,t_bytes32)"
      },
      "t_mapping(t_uint16,t_bytes_storage)": {
        "encoding": "mapping",
        "key": "t_uint16",
        "label": "mapping(uint16 => bytes)",
        "numberOfBytes": "32",
        "value": "t_bytes_storage"
      },
      "t_mapping(t_uint16,t_mapping(t_bytes_memory_ptr,t_mapping(t_uint64,t_bytes32)))": {
        "encoding": "mapping",
        "key": "t_uint16",
        "label": "mapping(uint16 => mapping(bytes => mapping(uint64 => bytes32)))",
        "numberOfBytes": "32",
        "value": "t_mapping(t_bytes_memory_ptr,t_mapping(t_uint64,t_bytes32))"
      },
      "t_mapping(t_uint16,t_mapping(t_uint16,t_uint256))": {
        "encoding": "mapping",
        "key": "t_uint16",
        "label": "mapping(uint16 => mapping(uint16 => uint256))",
        "numberOfBytes": "32",
        "value": "t_mapping(t_uint16,t_uint256)"
      },
      "t_mapping(t_uint16,t_uint256)": {
        "encoding": "mapping",
        "key": "t_uint16",
        "label": "mapping(uint16 => uint256)",
        "numberOfBytes": "32",
        "value": "t_uint256"
      },
      "t_mapping(t_uint256,t_address)": {
        "encoding": "mapping",
        "key": "t_uint256",
        "label": "mapping(uint256 => address)",
        "numberOfBytes": "32",
        "value": "t_address"
      },
      "t_mapping(t_uint64,t_bytes32)": {
        "encoding": "mapping",
        "key": "t_uint64",
        "label": "mapping(uint64 => bytes32)",
        "numberOfBytes": "32",
        "value": "t_bytes32"
      },
      "t_string_storage": {
        "encoding": "bytes",
        "label": "string",
        "numberOfBytes": "32"
      },
      "t_struct(StoredCredit)1220_storage": {
        "encoding": "inplace",
        "label": "struct ONFT721Core.StoredCredit",
        "members": [
          {
            "astId": 1213,
            "contract": "contracts/DecaNFT.sol:DecaNFT",
            "label": "srcChainId",
            "offset": 0,
            "slot": "0",
            "type": "t_uint16"
          },
          {
            "astId": 1215,
            "contract": "contracts/DecaNFT.sol:DecaNFT",
            "label": "toAddress",
            "offset": 2,
            "slot": "0",
            "type": "t_address"
          },
          {
            "astId": 1217,
            "contract": "contracts/DecaNFT.sol:DecaNFT",
            "label": "index",
            "offset": 0,
            "slot": "1",
            "type": "t_uint256"
          },
          {
            "astId": 1219,
            "contract": "contracts/DecaNFT.sol:DecaNFT",
            "label": "creditsRemain",
            "offset": 0,
            "slot": "2",
            "type": "t_bool"
          }
        ],
        "numberOfBytes": "96"
      },
      "t_uint16": {
        "encoding": "inplace",
        "label": "uint16",
        "numberOfBytes": "2"
      },
      "t_uint256": {
        "encoding": "inplace",
        "label": "uint256",
        "numberOfBytes": "32"
      },
      "t_uint64": {
        "encoding": "inplace",
        "label": "uint64",
        "numberOfBytes": "8"
      }
    }
  }
}