{
  "address": "0x289082d0EeD94727c38081f5ADc3d954D6A00C5c",
  "abi": [
    {
      "inputs": [
        {
          "internalType": "uint256",
          "name": "_minGasToTransfer",
          "type": "uint256"
        },
        {
          "internalType": "address",
          "name": "_lzEndpoint",
          "type": "address"
        },
        {
          "internalType": "address",
          "name": "_proxyToken",
          "type": "address"
        }
      ],
      "stateMutability": "nonpayable",
      "type": "constructor"
    },
    {
      "anonymous": false,
      "inputs": [
        {
          "indexed": false,
          "internalType": "bytes32",
          "name": "_hashedPayload",
          "type": "bytes32"
        }
      ],
      "name": "CreditCleared",
      "type": "event"
    },
    {
      "anonymous": false,
      "inputs": [
        {
          "indexed": false,
          "internalType": "bytes32",
          "name": "_hashedPayload",
          "type": "bytes32"
        },
        {
          "indexed": false,
          "internalType": "bytes",
          "name": "_payload",
          "type": "bytes"
        }
      ],
      "name": "CreditStored",
      "type": "event"
    },
    {
      "anonymous": false,
      "inputs": [
        {
          "indexed": false,
          "internalType": "uint16",
          "name": "_srcChainId",
          "type": "uint16"
        },
        {
          "indexed": false,
          "internalType": "bytes",
          "name": "_srcAddress",
          "type": "bytes"
        },
        {
          "indexed": false,
          "internalType": "uint64",
          "name": "_nonce",
          "type": "uint64"
        },
        {
          "indexed": false,
          "internalType": "bytes",
          "name": "_payload",
          "type": "bytes"
        },
        {
          "indexed": false,
          "internalType": "bytes",
          "name": "_reason",
          "type": "bytes"
        }
      ],
      "name": "MessageFailed",
      "type": "event"
    },
    {
      "anonymous": false,
      "inputs": [
        {
          "indexed": true,
          "internalType": "address",
          "name": "previousOwner",
          "type": "address"
        },
        {
          "indexed": true,
          "internalType": "address",
          "name": "newOwner",
          "type": "address"
        }
      ],
      "name": "OwnershipTransferred",
      "type": "event"
    },
    {
      "anonymous": false,
      "inputs": [
        {
          "indexed": true,
          "internalType": "uint16",
          "name": "_srcChainId",
          "type": "uint16"
        },
        {
          "indexed": true,
          "internalType": "bytes",
          "name": "_srcAddress",
          "type": "bytes"
        },
        {
          "indexed": true,
          "internalType": "address",
          "name": "_toAddress",
          "type": "address"
        },
        {
          "indexed": false,
          "internalType": "uint256[]",
          "name": "_tokenIds",
          "type": "uint256[]"
        }
      ],
      "name": "ReceiveFromChain",
      "type": "event"
    },
    {
      "anonymous": false,
      "inputs": [
        {
          "indexed": false,
          "internalType": "uint16",
          "name": "_srcChainId",
          "type": "uint16"
        },
        {
          "indexed": false,
          "internalType": "bytes",
          "name": "_srcAddress",
          "type": "bytes"
        },
        {
          "indexed": false,
          "internalType": "uint64",
          "name": "_nonce",
          "type": "uint64"
        },
        {
          "indexed": false,
          "internalType": "bytes32",
          "name": "_payloadHash",
          "type": "bytes32"
        }
      ],
      "name": "RetryMessageSuccess",
      "type": "event"
    },
    {
      "anonymous": false,
      "inputs": [
        {
          "indexed": true,
          "internalType": "uint16",
          "name": "_dstChainId",
          "type": "uint16"
        },
        {
          "indexed": true,
          "internalType": "address",
          "name": "_from",
          "type": "address"
        },
        {
          "indexed": true,
          "internalType": "bytes",
          "name": "_toAddress",
          "type": "bytes"
        },
        {
          "indexed": false,
          "internalType": "uint256[]",
          "name": "_tokenIds",
          "type": "uint256[]"
        }
      ],
      "name": "SendToChain",
      "type": "event"
    },
    {
      "anonymous": false,
      "inputs": [
        {
          "indexed": false,
          "internalType": "uint16",
          "name": "_dstChainId",
          "type": "uint16"
        },
        {
          "indexed": false,
          "internalType": "uint16",
          "name": "_type",
          "type": "uint16"
        },
        {
          "indexed": false,
          "internalType": "uint256",
          "name": "_minDstGas",
          "type": "uint256"
        }
      ],
      "name": "SetMinDstGas",
      "type": "event"
    },
    {
      "anonymous": false,
      "inputs": [
        {
          "indexed": false,
          "internalType": "address",
          "name": "precrime",
          "type": "address"
        }
      ],
      "name": "SetPrecrime",
      "type": "event"
    },
    {
      "anonymous": false,
      "inputs": [
        {
          "indexed": false,
          "internalType": "uint16",
          "name": "_remoteChainId",
          "type": "uint16"
        },
        {
          "indexed": false,
          "internalType": "bytes",
          "name": "_path",
          "type": "bytes"
        }
      ],
      "name": "SetTrustedRemote",
      "type": "event"
    },
    {
      "anonymous": false,
      "inputs": [
        {
          "indexed": false,
          "internalType": "uint16",
          "name": "_remoteChainId",
          "type": "uint16"
        },
        {
          "indexed": false,
          "internalType": "bytes",
          "name": "_remoteAddress",
          "type": "bytes"
        }
      ],
      "name": "SetTrustedRemoteAddress",
      "type": "event"
    },
    {
      "inputs": [],
      "name": "FUNCTION_TYPE_SEND",
      "outputs": [
        {
          "internalType": "uint16",
          "name": "",
          "type": "uint16"
        }
      ],
      "stateMutability": "view",
      "type": "function"
    },
    {
      "inputs": [
        {
          "internalType": "bytes",
          "name": "_payload",
          "type": "bytes"
        }
      ],
      "name": "clearCredits",
      "outputs": [],
      "stateMutability": "nonpayable",
      "type": "function"
    },
    {
      "inputs": [
        {
          "internalType": "uint16",
          "name": "",
          "type": "uint16"
        }
      ],
      "name": "dstChainIdToBatchLimit",
      "outputs": [
        {
          "internalType": "uint256",
          "name": "",
          "type": "uint256"
        }
      ],
      "stateMutability": "view",
      "type": "function"
    },
    {
      "inputs": [
        {
          "internalType": "uint16",
          "name": "",
          "type": "uint16"
        }
      ],
      "name": "dstChainIdToTransferGas",
      "outputs": [
        {
          "internalType": "uint256",
          "name": "",
          "type": "uint256"
        }
      ],
      "stateMutability": "view",
      "type": "function"
    },
    {
      "inputs": [
        {
          "internalType": "uint16",
          "name": "_dstChainId",
          "type": "uint16"
        },
        {
          "internalType": "bytes",
          "name": "_toAddress",
          "type": "bytes"
        },
        {
          "internalType": "uint256[]",
          "name": "_tokenIds",
          "type": "uint256[]"
        },
        {
          "internalType": "bool",
          "name": "_useZro",
          "type": "bool"
        },
        {
          "internalType": "bytes",
          "name": "_adapterParams",
          "type": "bytes"
        }
      ],
      "name": "estimateSendBatchFee",
      "outputs": [
        {
          "internalType": "uint256",
          "name": "nativeFee",
          "type": "uint256"
        },
        {
          "internalType": "uint256",
          "name": "zroFee",
          "type": "uint256"
        }
      ],
      "stateMutability": "view",
      "type": "function"
    },
    {
      "inputs": [
        {
          "internalType": "uint16",
          "name": "_dstChainId",
          "type": "uint16"
        },
        {
          "internalType": "bytes",
          "name": "_toAddress",
          "type": "bytes"
        },
        {
          "internalType": "uint256",
          "name": "_tokenId",
          "type": "uint256"
        },
        {
          "internalType": "bool",
          "name": "_useZro",
          "type": "bool"
        },
        {
          "internalType": "bytes",
          "name": "_adapterParams",
          "type": "bytes"
        }
      ],
      "name": "estimateSendFee",
      "outputs": [
        {
          "internalType": "uint256",
          "name": "nativeFee",
          "type": "uint256"
        },
        {
          "internalType": "uint256",
          "name": "zroFee",
          "type": "uint256"
        }
      ],
      "stateMutability": "view",
      "type": "function"
    },
    {
      "inputs": [
        {
          "internalType": "uint16",
          "name": "",
          "type": "uint16"
        },
        {
          "internalType": "bytes",
          "name": "",
          "type": "bytes"
        },
        {
          "internalType": "uint64",
          "name": "",
          "type": "uint64"
        }
      ],
      "name": "failedMessages",
      "outputs": [
        {
          "internalType": "bytes32",
          "name": "",
          "type": "bytes32"
        }
      ],
      "stateMutability": "view",
      "type": "function"
    },
    {
      "inputs": [
        {
          "internalType": "uint16",
          "name": "_srcChainId",
          "type": "uint16"
        },
        {
          "internalType": "bytes",
          "name": "_srcAddress",
          "type": "bytes"
        }
      ],
      "name": "forceResumeReceive",
      "outputs": [],
      "stateMutability": "nonpayable",
      "type": "function"
    },
    {
      "inputs": [
        {
          "internalType": "uint16",
          "name": "_version",
          "type": "uint16"
        },
        {
          "internalType": "uint16",
          "name": "_chainId",
          "type": "uint16"
        },
        {
          "internalType": "address",
          "name": "",
          "type": "address"
        },
        {
          "internalType": "uint256",
          "name": "_configType",
          "type": "uint256"
        }
      ],
      "name": "getConfig",
      "outputs": [
        {
          "internalType": "bytes",
          "name": "",
          "type": "bytes"
        }
      ],
      "stateMutability": "view",
      "type": "function"
    },
    {
      "inputs": [
        {
          "internalType": "uint16",
          "name": "_remoteChainId",
          "type": "uint16"
        }
      ],
      "name": "getTrustedRemoteAddress",
      "outputs": [
        {
          "internalType": "bytes",
          "name": "",
          "type": "bytes"
        }
      ],
      "stateMutability": "view",
      "type": "function"
    },
    {
      "inputs": [
        {
          "internalType": "uint16",
          "name": "_srcChainId",
          "type": "uint16"
        },
        {
          "internalType": "bytes",
          "name": "_srcAddress",
          "type": "bytes"
        }
      ],
      "name": "isTrustedRemote",
      "outputs": [
        {
          "internalType": "bool",
          "name": "",
          "type": "bool"
        }
      ],
      "stateMutability": "view",
      "type": "function"
    },
    {
      "inputs": [],
      "name": "lzEndpoint",
      "outputs": [
        {
          "internalType": "contract ILayerZeroEndpoint",
          "name": "",
          "type": "address"
        }
      ],
      "stateMutability": "view",
      "type": "function"
    },
    {
      "inputs": [
        {
          "internalType": "uint16",
          "name": "_srcChainId",
          "type": "uint16"
        },
        {
          "internalType": "bytes",
          "name": "_srcAddress",
          "type": "bytes"
        },
        {
          "internalType": "uint64",
          "name": "_nonce",
          "type": "uint64"
        },
        {
          "internalType": "bytes",
          "name": "_payload",
          "type": "bytes"
        }
      ],
      "name": "lzReceive",
      "outputs": [],
      "stateMutability": "nonpayable",
      "type": "function"
    },
    {
      "inputs": [
        {
          "internalType": "uint16",
          "name": "",
          "type": "uint16"
        },
        {
          "internalType": "uint16",
          "name": "",
          "type": "uint16"
        }
      ],
      "name": "minDstGasLookup",
      "outputs": [
        {
          "internalType": "uint256",
          "name": "",
          "type": "uint256"
        }
      ],
      "stateMutability": "view",
      "type": "function"
    },
    {
      "inputs": [],
      "name": "minGasToTransferAndStore",
      "outputs": [
        {
          "internalType": "uint256",
          "name": "",
          "type": "uint256"
        }
      ],
      "stateMutability": "view",
      "type": "function"
    },
    {
      "inputs": [
        {
          "internalType": "uint16",
          "name": "_srcChainId",
          "type": "uint16"
        },
        {
          "internalType": "bytes",
          "name": "_srcAddress",
          "type": "bytes"
        },
        {
          "internalType": "uint64",
          "name": "_nonce",
          "type": "uint64"
        },
        {
          "internalType": "bytes",
          "name": "_payload",
          "type": "bytes"
        }
      ],
      "name": "nonblockingLzReceive",
      "outputs": [],
      "stateMutability": "nonpayable",
      "type": "function"
    },
    {
      "inputs": [
        {
          "internalType": "address",
          "name": "_operator",
          "type": "address"
        },
        {
          "internalType": "address",
          "name": "",
          "type": "address"
        },
        {
          "internalType": "uint256",
          "name": "",
          "type": "uint256"
        },
        {
          "internalType": "bytes",
          "name": "",
          "type": "bytes"
        }
      ],
      "name": "onERC721Received",
      "outputs": [
        {
          "internalType": "bytes4",
          "name": "",
          "type": "bytes4"
        }
      ],
      "stateMutability": "nonpayable",
      "type": "function"
    },
    {
      "inputs": [],
      "name": "owner",
      "outputs": [
        {
          "internalType": "address",
          "name": "",
          "type": "address"
        }
      ],
      "stateMutability": "view",
      "type": "function"
    },
    {
      "inputs": [],
      "name": "precrime",
      "outputs": [
        {
          "internalType": "address",
          "name": "",
          "type": "address"
        }
      ],
      "stateMutability": "view",
      "type": "function"
    },
    {
      "inputs": [],
      "name": "renounceOwnership",
      "outputs": [],
      "stateMutability": "nonpayable",
      "type": "function"
    },
    {
      "inputs": [
        {
          "internalType": "uint16",
          "name": "_srcChainId",
          "type": "uint16"
        },
        {
          "internalType": "bytes",
          "name": "_srcAddress",
          "type": "bytes"
        },
        {
          "internalType": "uint64",
          "name": "_nonce",
          "type": "uint64"
        },
        {
          "internalType": "bytes",
          "name": "_payload",
          "type": "bytes"
        }
      ],
      "name": "retryMessage",
      "outputs": [],
      "stateMutability": "payable",
      "type": "function"
    },
    {
      "inputs": [
        {
          "internalType": "address",
          "name": "_from",
          "type": "address"
        },
        {
          "internalType": "uint16",
          "name": "_dstChainId",
          "type": "uint16"
        },
        {
          "internalType": "bytes",
          "name": "_toAddress",
          "type": "bytes"
        },
        {
          "internalType": "uint256[]",
          "name": "_tokenIds",
          "type": "uint256[]"
        },
        {
          "internalType": "address payable",
          "name": "_refundAddress",
          "type": "address"
        },
        {
          "internalType": "address",
          "name": "_zroPaymentAddress",
          "type": "address"
        },
        {
          "internalType": "bytes",
          "name": "_adapterParams",
          "type": "bytes"
        }
      ],
      "name": "sendBatchFrom",
      "outputs": [],
      "stateMutability": "payable",
      "type": "function"
    },
    {
      "inputs": [
        {
          "internalType": "address",
          "name": "_from",
          "type": "address"
        },
        {
          "internalType": "uint16",
          "name": "_dstChainId",
          "type": "uint16"
        },
        {
          "internalType": "bytes",
          "name": "_toAddress",
          "type": "bytes"
        },
        {
          "internalType": "uint256",
          "name": "_tokenId",
          "type": "uint256"
        },
        {
          "internalType": "address payable",
          "name": "_refundAddress",
          "type": "address"
        },
        {
          "internalType": "address",
          "name": "_zroPaymentAddress",
          "type": "address"
        },
        {
          "internalType": "bytes",
          "name": "_adapterParams",
          "type": "bytes"
        }
      ],
      "name": "sendFrom",
      "outputs": [],
      "stateMutability": "payable",
      "type": "function"
    },
    {
      "inputs": [
        {
          "internalType": "uint16",
          "name": "_version",
          "type": "uint16"
        },
        {
          "internalType": "uint16",
          "name": "_chainId",
          "type": "uint16"
        },
        {
          "internalType": "uint256",
          "name": "_configType",
          "type": "uint256"
        },
        {
          "internalType": "bytes",
          "name": "_config",
          "type": "bytes"
        }
      ],
      "name": "setConfig",
      "outputs": [],
      "stateMutability": "nonpayable",
      "type": "function"
    },
    {
      "inputs": [
        {
          "internalType": "uint16",
          "name": "_dstChainId",
          "type": "uint16"
        },
        {
          "internalType": "uint256",
          "name": "_dstChainIdToBatchLimit",
          "type": "uint256"
        }
      ],
      "name": "setDstChainIdToBatchLimit",
      "outputs": [],
      "stateMutability": "nonpayable",
      "type": "function"
    },
    {
      "inputs": [
        {
          "internalType": "uint16",
          "name": "_dstChainId",
          "type": "uint16"
        },
        {
          "internalType": "uint256",
          "name": "_dstChainIdToTransferGas",
          "type": "uint256"
        }
      ],
      "name": "setDstChainIdToTransferGas",
      "outputs": [],
      "stateMutability": "nonpayable",
      "type": "function"
    },
    {
      "inputs": [
        {
          "internalType": "uint16",
          "name": "_dstChainId",
          "type": "uint16"
        },
        {
          "internalType": "uint16",
          "name": "_packetType",
          "type": "uint16"
        },
        {
          "internalType": "uint256",
          "name": "_minGas",
          "type": "uint256"
        }
      ],
      "name": "setMinDstGas",
      "outputs": [],
      "stateMutability": "nonpayable",
      "type": "function"
    },
    {
      "inputs": [
        {
          "internalType": "uint256",
          "name": "_minGasToTransferAndStore",
          "type": "uint256"
        }
      ],
      "name": "setMinGasToTransferAndStore",
      "outputs": [],
      "stateMutability": "nonpayable",
      "type": "function"
    },
    {
      "inputs": [
        {
          "internalType": "address",
          "name": "_precrime",
          "type": "address"
        }
      ],
      "name": "setPrecrime",
      "outputs": [],
      "stateMutability": "nonpayable",
      "type": "function"
    },
    {
      "inputs": [
        {
          "internalType": "uint16",
          "name": "_version",
          "type": "uint16"
        }
      ],
      "name": "setReceiveVersion",
      "outputs": [],
      "stateMutability": "nonpayable",
      "type": "function"
    },
    {
      "inputs": [
        {
          "internalType": "uint16",
          "name": "_version",
          "type": "uint16"
        }
      ],
      "name": "setSendVersion",
      "outputs": [],
      "stateMutability": "nonpayable",
      "type": "function"
    },
    {
      "inputs": [
        {
          "internalType": "uint16",
          "name": "_srcChainId",
          "type": "uint16"
        },
        {
          "internalType": "bytes",
          "name": "_path",
          "type": "bytes"
        }
      ],
      "name": "setTrustedRemote",
      "outputs": [],
      "stateMutability": "nonpayable",
      "type": "function"
    },
    {
      "inputs": [
        {
          "internalType": "uint16",
          "name": "_remoteChainId",
          "type": "uint16"
        },
        {
          "internalType": "bytes",
          "name": "_remoteAddress",
          "type": "bytes"
        }
      ],
      "name": "setTrustedRemoteAddress",
      "outputs": [],
      "stateMutability": "nonpayable",
      "type": "function"
    },
    {
      "inputs": [
        {
          "internalType": "bytes32",
          "name": "",
          "type": "bytes32"
        }
      ],
      "name": "storedCredits",
      "outputs": [
        {
          "internalType": "uint16",
          "name": "srcChainId",
          "type": "uint16"
        },
        {
          "internalType": "address",
          "name": "toAddress",
          "type": "address"
        },
        {
          "internalType": "uint256",
          "name": "index",
          "type": "uint256"
        },
        {
          "internalType": "bool",
          "name": "creditsRemain",
          "type": "bool"
        }
      ],
      "stateMutability": "view",
      "type": "function"
    },
    {
      "inputs": [
        {
          "internalType": "bytes4",
          "name": "interfaceId",
          "type": "bytes4"
        }
      ],
      "name": "supportsInterface",
      "outputs": [
        {
          "internalType": "bool",
          "name": "",
          "type": "bool"
        }
      ],
      "stateMutability": "view",
      "type": "function"
    },
    {
      "inputs": [],
      "name": "token",
      "outputs": [
        {
          "internalType": "contract IERC721",
          "name": "",
          "type": "address"
        }
      ],
      "stateMutability": "view",
      "type": "function"
    },
    {
      "inputs": [
        {
          "internalType": "address",
          "name": "newOwner",
          "type": "address"
        }
      ],
      "name": "transferOwnership",
      "outputs": [],
      "stateMutability": "nonpayable",
      "type": "function"
    },
    {
      "inputs": [
        {
          "internalType": "uint16",
          "name": "",
          "type": "uint16"
        }
      ],
      "name": "trustedRemoteLookup",
      "outputs": [
        {
          "internalType": "bytes",
          "name": "",
          "type": "bytes"
        }
      ],
      "stateMutability": "view",
      "type": "function"
    }
  ],
  "transactionHash": "0x4d43da13e070fec4987cddd17230f5c3a38b503aea71789cd52d8ddebf5fc33b",
  "args": [
    100000,
    "0xbfD2135BFfbb0B5378b56643c2Df8a87552Bfa23",
    "0x8DbA4bf660FF33f1abb8E41915125F068B35c6fD"
  ],
  "numDeployments": 1,
  "solcInputHash": "7c7c1730de007d3af4670ef01bc2fae2",
  "bytecode": "0x60c06040523480156200001157600080fd5b50604051620038ca380380620038ca8339810160408190526200003491620002ba565b82828282828080620000463362000161565b60601b6001600160601b0319166080525081620000c05760405162461bcd60e51b815260206004820152602d60248201527f4f4e46543732313a206d696e476173546f5472616e73666572416e6453746f7260448201526c065206d757374206265203e203609c1b60648201526084015b60405180910390fd5b50600555620000ec6001600160a01b0382166380ac58cd60e01b620001b1602090811b62001a3d17901c565b620001455760405162461bcd60e51b815260206004820152602260248201527f50726f78794f4e46543732313a20696e76616c69642045524337323120746f6b60448201526132b760f11b6064820152608401620000b7565b60601b6001600160601b03191660a05250620002fa9350505050565b600080546001600160a01b038381166001600160a01b0319831681178455604051919092169283917f8be0079c531659141344cd1fd0a4f28419497f9722a3daafe3b4186f6b6457e09190a35050565b6000620001be83620001d9565b8015620001d25750620001d2838362000212565b9392505050565b6000620001ee826301ffc9a760e01b62000212565b80156200020c57506200020a826001600160e01b031962000212565b155b92915050565b604080516001600160e01b03198316602480830191909152825180830390910181526044909101909152602080820180516001600160e01b03166301ffc9a760e01b178152825160009392849283928392918391908a617530fa92503d9150600051905082801562000285575060208210155b8015620002925750600081115b979650505050505050565b80516001600160a01b0381168114620002b557600080fd5b919050565b600080600060608486031215620002cf578283fd5b83519250620002e1602085016200029d565b9150620002f1604085016200029d565b90509250925092565b60805160601c60a05160601c61355e6200036c600039600081816107f101528181612347015261264f01526000818161067d0152818161081601528181610a9001528181610b8c01528181610d000152818161140e01528181611869015281816119ae01526125a7015261355e6000f3fe6080604052600436106102245760003560e01c80638ffa1f2a11610123578063cbed8b9c116100ab578063f23536411161006f578063f235364114610752578063f2fde38b14610772578063f5ecbdbc14610792578063fa25f9b6146107b2578063fc0c546a146107df57600080fd5b8063cbed8b9c146106bf578063d12473a5146106df578063d1deba1f146106ff578063df2a5b3b14610712578063eb8d72b71461073257600080fd5b8063a6c3d165116100f2578063a6c3d16514610610578063ab3ffb9314610630578063af3fb21c14610643578063b353aaa71461066b578063baf3292d1461069f57600080fd5b80638ffa1f2a14610590578063950c8a74146105b05780639ea5d6b1146105d05780639f38369a146105f057600080fd5b806342d65a8d116101b157806366ad5c8a1161017557806366ad5c8a146104c4578063715018a6146104e45780637533d788146104f95780638cfd8f5c146105265780638da5cb5b1461055e57600080fd5b806342d65a8d146103f157806348288190146104115780634ac3f4ff1461043557806351905636146104625780635b8c41e61461047557600080fd5b806310ddb137116101f857806310ddb137146102c0578063150b7a02146102e057806322a3ecf9146103195780632a205e3d1461039c5780633d8b38f6146103d157600080fd5b80621d35671461022957806301ffc9a71461024b57806307e0db17146102805780630b4cad4c146102a0575b600080fd5b34801561023557600080fd5b50610249610244366004612d29565b610813565b005b34801561025757600080fd5b5061026b610266366004612b78565b610a44565b60405190151581526020015b60405180910390f35b34801561028c57600080fd5b5061024961029b366004612cbf565b610a6f565b3480156102ac57600080fd5b506102496102bb366004612b60565b610af8565b3480156102cc57600080fd5b506102496102db366004612cbf565b610b6b565b3480156102ec57600080fd5b506103006102fb366004612990565b610bc3565b6040516001600160e01b03199091168152602001610277565b34801561032557600080fd5b5061036d610334366004612b60565b60086020526000908152604090208054600182015460029092015461ffff821692620100009092046001600160a01b0316919060ff1684565b6040805161ffff90951685526001600160a01b0390931660208501529183015215156060820152608001610277565b3480156103a857600080fd5b506103bc6103b7366004612e5e565b610bef565b60408051928352602083019190915201610277565b3480156103dd57600080fd5b5061026b6103ec366004612cd9565b610c15565b3480156103fd57600080fd5b5061024961040c366004612cd9565b610ce1565b34801561041d57600080fd5b5061042760055481565b604051908152602001610277565b34801561044157600080fd5b50610427610450366004612cbf565b60066020526000908152604090205481565b610249610470366004612ac6565b610d67565b34801561048157600080fd5b50610427610490366004612eba565b6004602090815260009384526040808520845180860184018051928152908401958401959095209452929052825290205481565b3480156104d057600080fd5b506102496104df366004612d29565b610d7e565b3480156104f057600080fd5b50610249610e5a565b34801561050557600080fd5b50610519610514366004612cbf565b610e6e565b6040516102779190613193565b34801561053257600080fd5b50610427610541366004612f15565b600260209081526000928352604080842090915290825290205481565b34801561056a57600080fd5b506000546001600160a01b03165b6040516001600160a01b039091168152602001610277565b34801561059c57600080fd5b506102496105ab366004612ba0565b610f08565b3480156105bc57600080fd5b50600354610578906001600160a01b031681565b3480156105dc57600080fd5b506102496105eb36600461303a565b611157565b3480156105fc57600080fd5b5061051961060b366004612cbf565b6111da565b34801561061c57600080fd5b5061024961062b366004612cd9565b6112f1565b61024961063e3660046129f9565b611384565b34801561064f57600080fd5b50610658600181565b60405161ffff9091168152602001610277565b34801561067757600080fd5b506105787f000000000000000000000000000000000000000000000000000000000000000081565b3480156106ab57600080fd5b506102496106ba366004612974565b611393565b3480156106cb57600080fd5b506102496106da366004612fce565b6113ef565b3480156106eb57600080fd5b506102496106fa36600461303a565b611484565b61024961070d366004612d29565b611508565b34801561071e57600080fd5b5061024961072d366004612f93565b61171e565b34801561073e57600080fd5b5061024961074d366004612cd9565b6117d0565b34801561075e57600080fd5b506103bc61076d366004612db9565b61182a565b34801561077e57600080fd5b5061024961078d366004612974565b611904565b34801561079e57600080fd5b506105196107ad366004612f47565b61197d565b3480156107be57600080fd5b506104276107cd366004612cbf565b60076020526000908152604090205481565b3480156107eb57600080fd5b506105787f000000000000000000000000000000000000000000000000000000000000000081565b337f00000000000000000000000000000000000000000000000000000000000000006001600160a01b0316146108905760405162461bcd60e51b815260206004820152601e60248201527f4c7a4170703a20696e76616c696420656e64706f696e742063616c6c6572000060448201526064015b60405180910390fd5b61ffff8616600090815260016020526040812080546108ae90613491565b80601f01602080910402602001604051908101604052809291908181526020018280546108da90613491565b80156109275780601f106108fc57610100808354040283529160200191610927565b820191906000526020600020905b81548152906001019060200180831161090a57829003601f168201915b50505050509050805186869050148015610942575060008151115b801561096a5750805160208201206040516109609088908890613115565b6040518091039020145b6109c55760405162461bcd60e51b815260206004820152602660248201527f4c7a4170703a20696e76616c696420736f757263652073656e64696e6720636f6044820152651b9d1c9858dd60d21b6064820152608401610887565b610a3b8787878080601f01602080910402602001604051908101604052809392919081815260200183838082843760009201919091525050604080516020601f8a018190048102820181019092528881528a935091508890889081908401838280828437600092019190915250611a5992505050565b50505050505050565b60006001600160e01b03198216630a85bd0160e11b1480610a695750610a6982611ad2565b92915050565b610a77611b07565b6040516307e0db1760e01b815261ffff821660048201527f00000000000000000000000000000000000000000000000000000000000000006001600160a01b0316906307e0db17906024015b600060405180830381600087803b158015610add57600080fd5b505af1158015610af1573d6000803e3d6000fd5b5050505050565b610b00611b07565b60008111610b665760405162461bcd60e51b815260206004820152602d60248201527f4f4e46543732313a206d696e476173546f5472616e73666572416e6453746f7260448201526c065206d757374206265203e203609c1b6064820152608401610887565b600555565b610b73611b07565b6040516310ddb13760e01b815261ffff821660048201527f00000000000000000000000000000000000000000000000000000000000000006001600160a01b0316906310ddb13790602401610ac3565b60006001600160a01b0385163014610bdd57506000610be7565b50630a85bd0160e11b5b949350505050565b600080610c078787610c0088611b61565b878761182a565b915091509550959350505050565b61ffff831660009081526001602052604081208054829190610c3690613491565b80601f0160208091040260200160405190810160405280929190818152602001828054610c6290613491565b8015610caf5780601f10610c8457610100808354040283529160200191610caf565b820191906000526020600020905b815481529060010190602001808311610c9257829003601f168201915b505050505090508383604051610cc6929190613115565b60405180910390208180519060200120149150509392505050565b610ce9611b07565b6040516342d65a8d60e01b81526001600160a01b037f000000000000000000000000000000000000000000000000000000000000000016906342d65a8d90610d399086908690869060040161321f565b600060405180830381600087803b158015610d5357600080fd5b505af1158015610a3b573d6000803e3d6000fd5b610a3b878787610d7688611b61565b878787611bba565b333014610ddc5760405162461bcd60e51b815260206004820152602660248201527f4e6f6e626c6f636b696e674c7a4170703a2063616c6c6572206d7573742062656044820152650204c7a4170760d41b6064820152608401610887565b610e528686868080601f01602080910402602001604051908101604052809392919081815260200183838082843760009201919091525050604080516020601f890181900481028201810190925287815289935091508790879081908401838280828437600092019190915250611daf92505050565b505050505050565b610e62611b07565b610e6c6000611f06565b565b60016020526000908152604090208054610e8790613491565b80601f0160208091040260200160405190810160405280929190818152602001828054610eb390613491565b8015610f005780601f10610ed557610100808354040283529160200191610f00565b820191906000526020600020905b815481529060010190602001808311610ee357829003601f168201915b505050505081565b80516020808301919091206000818152600890925260409091206002015460ff16610f755760405162461bcd60e51b815260206004820152601a60248201527f4f4e46543732313a206e6f20637265646974732073746f7265640000000000006044820152606401610887565b600082806020019051810190610f8b9190612c04565b60008481526008602052604081208054600190910154929450909250610fc79161ffff8216916201000090046001600160a01b03169085611f56565b60008481526008602052604090206001015490915081116110455760405162461bcd60e51b815260206004820152603260248201527f4f4e46543732313a206e6f7420656e6f7567682067617320746f2070726f636560448201527139b99031b932b234ba103a3930b739b332b960711b6064820152608401610887565b81518114156110bd5760008381526008602052604080822080546001600160b01b031916815560018101929092556002909101805460ff19169055517fd7be02b8dd0d27bd0517a9cb4d7469ce27df4313821ae5ec1ff69acc594ba233906110b09085815260200190565b60405180910390a1611151565b60408051608081018252600085815260086020818152848320805461ffff80821687526001600160a01b03620100008084048216868a019081529989018b8152600160608b01818152998f90529790965297519851169096026001600160b01b03199091169690951695909517939093178455915191830191909155516002909101805491151560ff199092169190911790555b50505050565b61115f611b07565b600081116111c35760405162461bcd60e51b815260206004820152602b60248201527f4f4e46543732313a20647374436861696e4964546f42617463684c696d69742060448201526a06d757374206265203e20360ac1b6064820152608401610887565b61ffff909116600090815260066020526040902055565b61ffff81166000908152600160205260408120805460609291906111fd90613491565b80601f016020809104026020016040519081016040528092919081815260200182805461122990613491565b80156112765780601f1061124b57610100808354040283529160200191611276565b820191906000526020600020905b81548152906001019060200180831161125957829003601f168201915b505050505090508051600014156112cf5760405162461bcd60e51b815260206004820152601d60248201527f4c7a4170703a206e6f20747275737465642070617468207265636f72640000006044820152606401610887565b6112ea6000601483516112e2919061344e565b839190611fb6565b9392505050565b6112f9611b07565b81813060405160200161130e93929190613125565b60408051601f1981840301815291815261ffff85166000908152600160209081529190208251611343939192909101906126da565b507f8c0400cfe2d1199b1a725c78960bcc2a344d869b80590d0f2bd005db15a572ce8383836040516113779392919061321f565b60405180910390a1505050565b610a3b87878787878787611bba565b61139b611b07565b600380546001600160a01b0319166001600160a01b0383169081179091556040519081527f5db758e995a17ec1ad84bdef7e8c3293a0bd6179bcce400dff5d4c3d87db726b9060200160405180910390a150565b6113f7611b07565b6040516332fb62e760e21b81526001600160a01b037f0000000000000000000000000000000000000000000000000000000000000000169063cbed8b9c9061144b908890889088908890889060040161336f565b600060405180830381600087803b15801561146557600080fd5b505af1158015611479573d6000803e3d6000fd5b505050505050505050565b61148c611b07565b600081116114f15760405162461bcd60e51b815260206004820152602c60248201527f4f4e46543732313a20647374436861696e4964546f5472616e7366657247617360448201526b0206d757374206265203e20360a41b6064820152608401610887565b61ffff909116600090815260076020526040902055565b61ffff8616600090815260046020526040808220905161152b9088908890613115565b90815260408051602092819003830190206001600160401b038716600090815292529020549050806115ab5760405162461bcd60e51b815260206004820152602360248201527f4e6f6e626c6f636b696e674c7a4170703a206e6f2073746f726564206d65737360448201526261676560e81b6064820152608401610887565b8083836040516115bc929190613115565b60405180910390201461161b5760405162461bcd60e51b815260206004820152602160248201527f4e6f6e626c6f636b696e674c7a4170703a20696e76616c6964207061796c6f616044820152601960fa1b6064820152608401610887565b61ffff8716600090815260046020526040808220905161163e9089908990613115565b90815260408051602092819003830181206001600160401b038916600090815290845282902093909355601f880182900482028301820190528682526116d6918991899089908190840183828082843760009201919091525050604080516020601f8a018190048102820181019092528881528a935091508890889081908401838280828437600092019190915250611daf92505050565b7fc264d91f3adc5588250e1551f547752ca0cfa8f6b530d243b9f9f4cab10ea8e5878787878560405161170d95949392919061323d565b60405180910390a150505050505050565b611726611b07565b6000811161176e5760405162461bcd60e51b81526020600482015260156024820152744c7a4170703a20696e76616c6964206d696e47617360581b6044820152606401610887565b61ffff83811660008181526002602090815260408083209487168084529482529182902085905581519283528201929092529081018290527f9d5c7c0b934da8fefa9c7760c98383778a12dfbfc0c3b3106518f43fb9508ac090606001611377565b6117d8611b07565b61ffff831660009081526001602052604090206117f690838361275e565b507ffa41487ad5d6728f0b19276fa1eddc16558578f5109fc39d2dc33c3230470dab8383836040516113779392919061321f565b600080600086866040516020016118429291906131a6565b60408051601f198184030181529082905263040a7bb160e41b825291506001600160a01b037f000000000000000000000000000000000000000000000000000000000000000016906340a7bb10906118a6908b90309086908b908b906004016131cb565b604080518083038186803b1580156118bd57600080fd5b505afa1580156118d1573d6000803e3d6000fd5b505050506040513d601f19601f820116820180604052508101906118f59190613063565b92509250509550959350505050565b61190c611b07565b6001600160a01b0381166119715760405162461bcd60e51b815260206004820152602660248201527f4f776e61626c653a206e6577206f776e657220697320746865207a65726f206160448201526564647265737360d01b6064820152608401610887565b61197a81611f06565b50565b604051633d7b2f6f60e21b815261ffff808616600483015284166024820152306044820152606481018290526060907f00000000000000000000000000000000000000000000000000000000000000006001600160a01b03169063f5ecbdbc9060840160006040518083038186803b1580156119f857600080fd5b505afa158015611a0c573d6000803e3d6000fd5b505050506040513d6000823e601f3d908101601f19168201604052611a349190810190612bd2565b95945050505050565b6000611a48836120c3565b80156112ea57506112ea83836120f6565b600080611abc5a60966366ad5c8a60e01b89898989604051602401611a8194939291906132df565b60408051601f198184030181529190526020810180516001600160e01b03166001600160e01b0319909316929092179091523092919061217f565b9150915081610e5257610e528686868685612217565b60006001600160e01b031982166322bac5d960e01b1480610a6957506301ffc9a760e01b6001600160e01b0319831614610a69565b6000546001600160a01b03163314610e6c5760405162461bcd60e51b815260206004820181905260248201527f4f776e61626c653a2063616c6c6572206973206e6f7420746865206f776e65726044820152606401610887565b60408051600180825281830190925260609160009190602080830190803683370190505090508281600081518110611ba957634e487b7160e01b600052603260045260246000fd5b602090810291909101015292915050565b6000845111611c0b5760405162461bcd60e51b815260206004820152601a60248201527f4c7a4170703a20746f6b656e4964735b5d20697320656d7074790000000000006044820152606401610887565b835160011480611c2f575061ffff8616600090815260066020526040902054845111155b611c8f5760405162461bcd60e51b815260206004820152602b60248201527f4f4e46543732313a2062617463682073697a652065786365656473206473742060448201526a18985d18da081b1a5b5a5d60aa1b6064820152608401610887565b60005b8451811015611ce057611cce888888888581518110611cc157634e487b7160e01b600052603260045260246000fd5b60200260200101516122b4565b80611cd8816134cc565b915050611c92565b5060008585604051602001611cf69291906131a6565b6040516020818303038152906040529050611d3b876001848851600760008d61ffff1661ffff16815260200190815260200160002054611d36919061342f565b6123a9565b611d49878286868634612488565b85604051611d57919061314b565b6040518091039020886001600160a01b03168861ffff167fe1b87c47fdeb4f9cbadbca9df3af7aba453bb6e501075d0440d88125b711522a88604051611d9d9190613167565b60405180910390a45050505050505050565b60008082806020019051810190611dc69190612c04565b601482015191935091506000611dde88838386611f56565b90508251811015611eb25784516020808701919091206040805160808101825261ffff808d1682526001600160a01b0380881683870190815283850188815260016060860181815260008981526008909a529887902095518654935190941662010000026001600160b01b03199093169390941692909217178355519082015592516002909301805493151560ff199094169390931790925590517f10e0b70d256bccc84b7027506978bd8b68984a870788b93b479def144c839ad790611ea8908390899061317a565b60405180910390a1505b816001600160a01b031687604051611eca919061314b565b60405180910390208961ffff167f5b821db8a46f8ecbe1941ba2f51cfeea9643268b56631f70d45e2a745d99026586604051611d9d9190613167565b600080546001600160a01b038381166001600160a01b0319831681178455604051919092169283917f8be0079c531659141344cd1fd0a4f28419497f9722a3daafe3b4186f6b6457e09190a35050565b6000825b8251811015611a34576005545a1015611f7257611a34565b611fa48686858481518110611f9757634e487b7160e01b600052603260045260246000fd5b6020026020010151612623565b80611fae816134cc565b915050611f5a565b606081611fc481601f613417565b10156120035760405162461bcd60e51b815260206004820152600e60248201526d736c6963655f6f766572666c6f7760901b6044820152606401610887565b61200d8284613417565b845110156120515760405162461bcd60e51b8152602060048201526011602482015270736c6963655f6f75744f66426f756e647360781b6044820152606401610887565b60608215801561207057604051915060008252602082016040526120ba565b6040519150601f8416801560200281840101858101878315602002848b0101015b818310156120a9578051835260209283019201612091565b5050858452601f01601f1916604052505b50949350505050565b60006120d6826301ffc9a760e01b6120f6565b8015610a6957506120ef826001600160e01b03196120f6565b1592915050565b604080516001600160e01b03198316602480830191909152825180830390910181526044909101909152602080820180516001600160e01b03166301ffc9a760e01b178152825160009392849283928392918391908a617530fa92503d91506000519050828015612168575060208210155b80156121745750600081115b979650505050505050565b6000606060008060008661ffff166001600160401b038111156121b257634e487b7160e01b600052604160045260246000fd5b6040519080825280601f01601f1916602001820160405280156121dc576020820181803683370190505b50905060008087516020890160008d8df191503d9250868311156121fe578692505b828152826000602083013e909890975095505050505050565b8180519060200120600460008761ffff1661ffff16815260200190815260200160002085604051612248919061314b565b9081526040805191829003602090810183206001600160401b0388166000908152915220919091557fe183f33de2837795525b4792ca4cd60535bd77c53b7e7030060bfcf5734d6b0c906122a5908790879087908790879061331d565b60405180910390a15050505050565b6001600160a01b038416331461231b5760405162461bcd60e51b815260206004820152602660248201527f50726f78794f4e46543732313a206f776e6572206973206e6f742073656e642060448201526531b0b63632b960d11b6064820152608401610887565b604051632142170760e11b81526001600160a01b038581166004830152306024830152604482018390527f000000000000000000000000000000000000000000000000000000000000000016906342842e0e90606401600060405180830381600087803b15801561238b57600080fd5b505af115801561239f573d6000803e3d6000fd5b5050505050505050565b60006123b48361267e565b61ffff8087166000908152600260209081526040808320938916835292905290812054919250906123e6908490613417565b9050600081116124385760405162461bcd60e51b815260206004820152601a60248201527f4c7a4170703a206d696e4761734c696d6974206e6f74207365740000000000006044820152606401610887565b80821015610e525760405162461bcd60e51b815260206004820152601b60248201527f4c7a4170703a20676173206c696d697420697320746f6f206c6f7700000000006044820152606401610887565b61ffff8616600090815260016020526040812080546124a690613491565b80601f01602080910402602001604051908101604052809291908181526020018280546124d290613491565b801561251f5780601f106124f45761010080835404028352916020019161251f565b820191906000526020600020905b81548152906001019060200180831161250257829003601f168201915b505050505090508051600014156125915760405162461bcd60e51b815260206004820152603060248201527f4c7a4170703a2064657374696e6174696f6e20636861696e206973206e6f742060448201526f61207472757374656420736f7572636560801b6064820152608401610887565b60405162c5803160e81b81526001600160a01b037f0000000000000000000000000000000000000000000000000000000000000000169063c58031009084906125e8908b9086908c908c908c908c90600401613278565b6000604051808303818588803b15801561260157600080fd5b505af1158015612615573d6000803e3d6000fd5b505050505050505050505050565b604051632142170760e11b81523060048201526001600160a01b038381166024830152604482018390527f000000000000000000000000000000000000000000000000000000000000000016906342842e0e90606401610d39565b60006022825110156126d25760405162461bcd60e51b815260206004820152601c60248201527f4c7a4170703a20696e76616c69642061646170746572506172616d73000000006044820152606401610887565b506022015190565b8280546126e690613491565b90600052602060002090601f016020900481019282612708576000855561274e565b82601f1061272157805160ff191683800117855561274e565b8280016001018555821561274e579182015b8281111561274e578251825591602001919060010190612733565b5061275a9291506127d2565b5090565b82805461276a90613491565b90600052602060002090601f01602090048101928261278c576000855561274e565b82601f106127a55782800160ff1982351617855561274e565b8280016001018555821561274e579182015b8281111561274e5782358255916020019190600101906127b7565b5b8082111561275a57600081556001016127d3565b80356127f281613513565b919050565b600082601f830112612807578081fd5b8135602061281c612817836133cd565b61339d565b80838252828201915082860187848660051b890101111561283b578586fd5b855b858110156128595781358452928401929084019060010161283d565b5090979650505050505050565b803580151581146127f257600080fd5b60008083601f840112612887578182fd5b5081356001600160401b0381111561289d578182fd5b6020830191508360208285010111156128b557600080fd5b9250929050565b600082601f8301126128cc578081fd5b81356128da612817826133f0565b8181528460208386010111156128ee578283fd5b816020850160208301379081016020019190915292915050565b600082601f830112612918578081fd5b8151612926612817826133f0565b81815284602083860101111561293a578283fd5b610be7826020830160208701613465565b803561ffff811681146127f257600080fd5b80356001600160401b03811681146127f257600080fd5b600060208284031215612985578081fd5b81356112ea81613513565b600080600080608085870312156129a5578283fd5b84356129b081613513565b935060208501356129c081613513565b92506040850135915060608501356001600160401b038111156129e1578182fd5b6129ed878288016128bc565b91505092959194509250565b600080600080600080600060e0888a031215612a13578283fd5b8735612a1e81613513565b9650612a2c6020890161294b565b955060408801356001600160401b0380821115612a47578485fd5b612a538b838c016128bc565b965060608a0135915080821115612a68578485fd5b612a748b838c016127f7565b955060808a01359150612a8682613513565b819450612a9560a08b016127e7565b935060c08a0135915080821115612aaa578283fd5b50612ab78a828b016128bc565b91505092959891949750929550565b600080600080600080600060e0888a031215612ae0578283fd5b8735612aeb81613513565b9650612af96020890161294b565b955060408801356001600160401b0380821115612b14578485fd5b612b208b838c016128bc565b965060608a0135955060808a01359150612b3982613513565b90935060a089013590612b4b82613513565b90925060c08901359080821115612aaa578283fd5b600060208284031215612b71578081fd5b5035919050565b600060208284031215612b89578081fd5b81356001600160e01b0319811681146112ea578182fd5b600060208284031215612bb1578081fd5b81356001600160401b03811115612bc6578182fd5b610be7848285016128bc565b600060208284031215612be3578081fd5b81516001600160401b03811115612bf8578182fd5b610be784828501612908565b60008060408385031215612c16578182fd5b82516001600160401b0380821115612c2c578384fd5b612c3886838701612908565b9350602091508185015181811115612c4e578384fd5b85019050601f81018613612c60578283fd5b8051612c6e612817826133cd565b80828252848201915084840189868560051b8701011115612c8d578687fd5b8694505b83851015612caf578051835260019490940193918501918501612c91565b5080955050505050509250929050565b600060208284031215612cd0578081fd5b6112ea8261294b565b600080600060408486031215612ced578081fd5b612cf68461294b565b925060208401356001600160401b03811115612d10578182fd5b612d1c86828701612876565b9497909650939450505050565b60008060008060008060808789031215612d41578384fd5b612d4a8761294b565b955060208701356001600160401b0380821115612d65578586fd5b612d718a838b01612876565b9097509550859150612d8560408a0161295d565b94506060890135915080821115612d9a578384fd5b50612da789828a01612876565b979a9699509497509295939492505050565b600080600080600060a08688031215612dd0578283fd5b612dd98661294b565b945060208601356001600160401b0380821115612df4578485fd5b612e0089838a016128bc565b95506040880135915080821115612e15578485fd5b612e2189838a016127f7565b9450612e2f60608901612866565b93506080880135915080821115612e44578283fd5b50612e51888289016128bc565b9150509295509295909350565b600080600080600060a08688031215612e75578283fd5b612e7e8661294b565b945060208601356001600160401b0380821115612e99578485fd5b612ea589838a016128bc565b955060408801359450612e2f60608901612866565b600080600060608486031215612ece578081fd5b612ed78461294b565b925060208401356001600160401b03811115612ef1578182fd5b612efd868287016128bc565b925050612f0c6040850161295d565b90509250925092565b60008060408385031215612f27578182fd5b612f308361294b565b9150612f3e6020840161294b565b90509250929050565b60008060008060808587031215612f5c578182fd5b612f658561294b565b9350612f736020860161294b565b92506040850135612f8381613513565b9396929550929360600135925050565b600080600060608486031215612fa7578081fd5b612fb08461294b565b9250612fbe6020850161294b565b9150604084013590509250925092565b600080600080600060808688031215612fe5578283fd5b612fee8661294b565b9450612ffc6020870161294b565b93506040860135925060608601356001600160401b0381111561301d578182fd5b61302988828901612876565b969995985093965092949392505050565b6000806040838503121561304c578182fd5b6130558361294b565b946020939093013593505050565b60008060408385031215613075578182fd5b505080516020909101519092909150565b6000815180845260208085019450808401835b838110156130b557815187529582019590820190600101613099565b509495945050505050565b81835281816020850137506000828201602090810191909152601f909101601f19169091010190565b60008151808452613101816020860160208601613465565b601f01601f19169290920160200192915050565b8183823760009101908152919050565b8284823760609190911b6bffffffffffffffffffffffff19169101908152601401919050565b6000825161315d818460208701613465565b9190910192915050565b6020815260006112ea6020830184613086565b828152604060208201526000610be760408301846130e9565b6020815260006112ea60208301846130e9565b6040815260006131b960408301856130e9565b8281036020840152611a348185613086565b61ffff861681526001600160a01b038516602082015260a0604082018190526000906131f9908301866130e9565b8415156060840152828103608084015261321381856130e9565b98975050505050505050565b61ffff84168152604060208201526000611a346040830184866130c0565b61ffff8616815260806020820152600061325b6080830186886130c0565b6001600160401b0394909416604083015250606001529392505050565b61ffff8716815260c06020820152600061329560c08301886130e9565b82810360408401526132a781886130e9565b6001600160a01b0387811660608601528616608085015283810360a085015290506132d281856130e9565b9998505050505050505050565b61ffff851681526080602082015260006132fc60808301866130e9565b6001600160401b0385166040840152828103606084015261217481856130e9565b61ffff8616815260a06020820152600061333a60a08301876130e9565b6001600160401b0386166040840152828103606084015261335b81866130e9565b9050828103608084015261321381856130e9565b600061ffff8088168352808716602084015250846040830152608060608301526121746080830184866130c0565b604051601f8201601f191681016001600160401b03811182821017156133c5576133c56134fd565b604052919050565b60006001600160401b038211156133e6576133e66134fd565b5060051b60200190565b60006001600160401b03821115613409576134096134fd565b50601f01601f191660200190565b6000821982111561342a5761342a6134e7565b500190565b6000816000190483118215151615613449576134496134e7565b500290565b600082821015613460576134606134e7565b500390565b60005b83811015613480578181015183820152602001613468565b838111156111515750506000910152565b600181811c908216806134a557607f821691505b602082108114156134c657634e487b7160e01b600052602260045260246000fd5b50919050565b60006000198214156134e0576134e06134e7565b5060010190565b634e487b7160e01b600052601160045260246000fd5b634e487b7160e01b600052604160045260246000fd5b6001600160a01b038116811461197a57600080fdfea2646970667358221220d463c5fe91fb52ec3ced406c59e245bcff720d26c3528c6217c3862a9313216064736f6c63430008040033",
  "devdoc": {
    "kind": "dev",
    "methods": {
      "estimateSendBatchFee(uint16,bytes,uint256[],bool,bytes)": {
        "details": "estimate send token `_tokenId` to (`_dstChainId`, `_toAddress`) _dstChainId - L0 defined chain id to send tokens too _toAddress - dynamic bytes array which contains the address to whom you are sending tokens to on the dstChain _tokenIds[] - token Ids to transfer _useZro - indicates to use zro to pay L0 fees _adapterParams - flexible bytes array to indicate messaging adapter services in L0"
      },
      "estimateSendFee(uint16,bytes,uint256,bool,bytes)": {
        "details": "estimate send token `_tokenId` to (`_dstChainId`, `_toAddress`) _dstChainId - L0 defined chain id to send tokens too _toAddress - dynamic bytes array which contains the address to whom you are sending tokens to on the dstChain _tokenId - token Id to transfer _useZro - indicates to use zro to pay L0 fees _adapterParams - flexible bytes array to indicate messaging adapter services in L0"
      },
      "owner()": {
        "details": "Returns the address of the current owner."
      },
      "renounceOwnership()": {
        "details": "Leaves the contract without owner. It will not be possible to call `onlyOwner` functions anymore. Can only be called by the current owner. NOTE: Renouncing ownership will leave the contract without an owner, thereby removing any functionality that is only available to the owner."
      },
      "sendBatchFrom(address,uint16,bytes,uint256[],address,address,bytes)": {
        "details": "send tokens `_tokenIds[]` to (`_dstChainId`, `_toAddress`) from `_from` `_toAddress` can be any size depending on the `dstChainId`. `_zroPaymentAddress` set to address(0x0) if not paying in ZRO (LayerZero Token) `_adapterParams` is a flexible bytes array to indicate messaging adapter services"
      },
      "sendFrom(address,uint16,bytes,uint256,address,address,bytes)": {
        "details": "send token `_tokenId` to (`_dstChainId`, `_toAddress`) from `_from` `_toAddress` can be any size depending on the `dstChainId`. `_zroPaymentAddress` set to address(0x0) if not paying in ZRO (LayerZero Token) `_adapterParams` is a flexible bytes array to indicate messaging adapter services"
      },
      "transferOwnership(address)": {
        "details": "Transfers ownership of the contract to a new account (`newOwner`). Can only be called by the current owner."
      }
    },
    "version": 1
  },
  "userdoc": {
    "kind": "user",
    "methods": {},
    "version": 1
  },
  "storageLayout": {
    "storage": [
      {
        "astId": 2435,
        "contract": "contracts/LilPudgysProxyONFT.sol:LilPudgysProxyONFT",
        "label": "_owner",
        "offset": 0,
        "slot": "0",
        "type": "t_address"
      },
      {
        "astId": 212,
        "contract": "contracts/LilPudgysProxyONFT.sol:LilPudgysProxyONFT",
        "label": "trustedRemoteLookup",
        "offset": 0,
        "slot": "1",
        "type": "t_mapping(t_uint16,t_bytes_storage)"
      },
      {
        "astId": 218,
        "contract": "contracts/LilPudgysProxyONFT.sol:LilPudgysProxyONFT",
        "label": "minDstGasLookup",
        "offset": 0,
        "slot": "2",
        "type": "t_mapping(t_uint16,t_mapping(t_uint16,t_uint256))"
      },
      {
        "astId": 220,
        "contract": "contracts/LilPudgysProxyONFT.sol:LilPudgysProxyONFT",
        "label": "precrime",
        "offset": 0,
        "slot": "3",
        "type": "t_address"
      },
      {
        "astId": 705,
        "contract": "contracts/LilPudgysProxyONFT.sol:LilPudgysProxyONFT",
        "label": "failedMessages",
        "offset": 0,
        "slot": "4",
        "type": "t_mapping(t_uint16,t_mapping(t_bytes_memory_ptr,t_mapping(t_uint64,t_bytes32)))"
      },
      {
        "astId": 1222,
        "contract": "contracts/LilPudgysProxyONFT.sol:LilPudgysProxyONFT",
        "label": "minGasToTransferAndStore",
        "offset": 0,
        "slot": "5",
        "type": "t_uint256"
      },
      {
        "astId": 1226,
        "contract": "contracts/LilPudgysProxyONFT.sol:LilPudgysProxyONFT",
        "label": "dstChainIdToBatchLimit",
        "offset": 0,
        "slot": "6",
        "type": "t_mapping(t_uint16,t_uint256)"
      },
      {
        "astId": 1230,
        "contract": "contracts/LilPudgysProxyONFT.sol:LilPudgysProxyONFT",
        "label": "dstChainIdToTransferGas",
        "offset": 0,
        "slot": "7",
        "type": "t_mapping(t_uint16,t_uint256)"
      },
      {
        "astId": 1235,
        "contract": "contracts/LilPudgysProxyONFT.sol:LilPudgysProxyONFT",
        "label": "storedCredits",
        "offset": 0,
        "slot": "8",
        "type": "t_mapping(t_bytes32,t_struct(StoredCredit)1220_storage)"
      }
    ],
    "types": {
      "t_address": {
        "encoding": "inplace",
        "label": "address",
        "numberOfBytes": "20"
      },
      "t_bool": {
        "encoding": "inplace",
        "label": "bool",
        "numberOfBytes": "1"
      },
      "t_bytes32": {
        "encoding": "inplace",
        "label": "bytes32",
        "numberOfBytes": "32"
      },
      "t_bytes_memory_ptr": {
        "encoding": "bytes",
        "label": "bytes",
        "numberOfBytes": "32"
      },
      "t_bytes_storage": {
        "encoding": "bytes",
        "label": "bytes",
        "numberOfBytes": "32"
      },
      "t_mapping(t_bytes32,t_struct(StoredCredit)1220_storage)": {
        "encoding": "mapping",
        "key": "t_bytes32",
        "label": "mapping(bytes32 => struct ONFT721Core.StoredCredit)",
        "numberOfBytes": "32",
        "value": "t_struct(StoredCredit)1220_storage"
      },
      "t_mapping(t_bytes_memory_ptr,t_mapping(t_uint64,t_bytes32))": {
        "encoding": "mapping",
        "key": "t_bytes_memory_ptr",
        "label": "mapping(bytes => mapping(uint64 => bytes32))",
        "numberOfBytes": "32",
        "value": "t_mapping(t_uint64,t_bytes32)"
      },
      "t_mapping(t_uint16,t_bytes_storage)": {
        "encoding": "mapping",
        "key": "t_uint16",
        "label": "mapping(uint16 => bytes)",
        "numberOfBytes": "32",
        "value": "t_bytes_storage"
      },
      "t_mapping(t_uint16,t_mapping(t_bytes_memory_ptr,t_mapping(t_uint64,t_bytes32)))": {
        "encoding": "mapping",
        "key": "t_uint16",
        "label": "mapping(uint16 => mapping(bytes => mapping(uint64 => bytes32)))",
        "numberOfBytes": "32",
        "value": "t_mapping(t_bytes_memory_ptr,t_mapping(t_uint64,t_bytes32))"
      },
      "t_mapping(t_uint16,t_mapping(t_uint16,t_uint256))": {
        "encoding": "mapping",
        "key": "t_uint16",
        "label": "mapping(uint16 => mapping(uint16 => uint256))",
        "numberOfBytes": "32",
        "value": "t_mapping(t_uint16,t_uint256)"
      },
      "t_mapping(t_uint16,t_uint256)": {
        "encoding": "mapping",
        "key": "t_uint16",
        "label": "mapping(uint16 => uint256)",
        "numberOfBytes": "32",
        "value": "t_uint256"
      },
      "t_mapping(t_uint64,t_bytes32)": {
        "encoding": "mapping",
        "key": "t_uint64",
        "label": "mapping(uint64 => bytes32)",
        "numberOfBytes": "32",
        "value": "t_bytes32"
      },
      "t_struct(StoredCredit)1220_storage": {
        "encoding": "inplace",
        "label": "struct ONFT721Core.StoredCredit",
        "members": [
          {
            "astId": 1213,
            "contract": "contracts/LilPudgysProxyONFT.sol:LilPudgysProxyONFT",
            "label": "srcChainId",
            "offset": 0,
            "slot": "0",
            "type": "t_uint16"
          },
          {
            "astId": 1215,
            "contract": "contracts/LilPudgysProxyONFT.sol:LilPudgysProxyONFT",
            "label": "toAddress",
            "offset": 2,
            "slot": "0",
            "type": "t_address"
          },
          {
            "astId": 1217,
            "contract": "contracts/LilPudgysProxyONFT.sol:LilPudgysProxyONFT",
            "label": "index",
            "offset": 0,
            "slot": "1",
            "type": "t_uint256"
          },
          {
            "astId": 1219,
            "contract": "contracts/LilPudgysProxyONFT.sol:LilPudgysProxyONFT",
            "label": "creditsRemain",
            "offset": 0,
            "slot": "2",
            "type": "t_bool"
          }
        ],
        "numberOfBytes": "96"
      },
      "t_uint16": {
        "encoding": "inplace",
        "label": "uint16",
        "numberOfBytes": "2"
      },
      "t_uint256": {
        "encoding": "inplace",
        "label": "uint256",
        "numberOfBytes": "32"
      },
      "t_uint64": {
        "encoding": "inplace",
        "label": "uint64",
        "numberOfBytes": "8"
      }
    }
  }
}