{
  "address": "0x0d70C2b9291551E2688d1dbe03ed10732A286967",
  "abi": [
    {
      "inputs": [
        {
          "internalType": "string",
          "name": "_name",
          "type": "string"
        },
        {
          "internalType": "string",
          "name": "_symbol",
          "type": "string"
        },
        {
          "internalType": "uint16",
          "name": "maxSupply_",
          "type": "uint16"
        },
        {
          "internalType": "uint256",
          "name": "_minGasToStore",
          "type": "uint256"
        },
        {
          "internalType": "address",
          "name": "_lzEndpoint",
          "type": "address"
        }
      ],
      "stateMutability": "nonpayable",
      "type": "constructor"
    },
    {
      "inputs": [],
      "name": "BagAddressNotSet",
      "type": "error"
    },
    {
      "inputs": [],
      "name": "InvalidRedeemer",
      "type": "error"
    },
    {
      "inputs": [],
      "name": "InvalidTokenId",
      "type": "error"
    },
    {
      "inputs": [],
      "name": "NoMoreTokenIds",
      "type": "error"
    },
    {
      "inputs": [],
      "name": "RedeemBagNotOpen",
      "type": "error"
    },
    {
      "anonymous": false,
      "inputs": [
        {
          "indexed": true,
          "internalType": "address",
          "name": "owner",
          "type": "address"
        },
        {
          "indexed": true,
          "internalType": "address",
          "name": "approved",
          "type": "address"
        },
        {
          "indexed": true,
          "internalType": "uint256",
          "name": "tokenId",
          "type": "uint256"
        }
      ],
      "name": "Approval",
      "type": "event"
    },
    {
      "anonymous": false,
      "inputs": [
        {
          "indexed": true,
          "internalType": "address",
          "name": "owner",
          "type": "address"
        },
        {
          "indexed": true,
          "internalType": "address",
          "name": "operator",
          "type": "address"
        },
        {
          "indexed": false,
          "internalType": "bool",
          "name": "approved",
          "type": "bool"
        }
      ],
      "name": "ApprovalForAll",
      "type": "event"
    },
    {
      "anonymous": false,
      "inputs": [
        {
          "indexed": true,
          "internalType": "address",
          "name": "to",
          "type": "address"
        },
        {
          "indexed": true,
          "internalType": "uint256",
          "name": "tokenId",
          "type": "uint256"
        },
        {
          "indexed": true,
          "internalType": "uint256",
          "name": "bagId",
          "type": "uint256"
        }
      ],
      "name": "BagRedeemed",
      "type": "event"
    },
    {
      "anonymous": false,
      "inputs": [
        {
          "indexed": false,
          "internalType": "bytes32",
          "name": "_hashedPayload",
          "type": "bytes32"
        }
      ],
      "name": "CreditCleared",
      "type": "event"
    },
    {
      "anonymous": false,
      "inputs": [
        {
          "indexed": false,
          "internalType": "bytes32",
          "name": "_hashedPayload",
          "type": "bytes32"
        },
        {
          "indexed": false,
          "internalType": "bytes",
          "name": "_payload",
          "type": "bytes"
        }
      ],
      "name": "CreditStored",
      "type": "event"
    },
    {
      "anonymous": false,
      "inputs": [
        {
          "indexed": false,
          "internalType": "uint16",
          "name": "_srcChainId",
          "type": "uint16"
        },
        {
          "indexed": false,
          "internalType": "bytes",
          "name": "_srcAddress",
          "type": "bytes"
        },
        {
          "indexed": false,
          "internalType": "uint64",
          "name": "_nonce",
          "type": "uint64"
        },
        {
          "indexed": false,
          "internalType": "bytes",
          "name": "_payload",
          "type": "bytes"
        },
        {
          "indexed": false,
          "internalType": "bytes",
          "name": "_reason",
          "type": "bytes"
        }
      ],
      "name": "MessageFailed",
      "type": "event"
    },
    {
      "anonymous": false,
      "inputs": [
        {
          "indexed": true,
          "internalType": "address",
          "name": "previousOwner",
          "type": "address"
        },
        {
          "indexed": true,
          "internalType": "address",
          "name": "newOwner",
          "type": "address"
        }
      ],
      "name": "OwnershipTransferred",
      "type": "event"
    },
    {
      "anonymous": false,
      "inputs": [
        {
          "indexed": true,
          "internalType": "uint16",
          "name": "_srcChainId",
          "type": "uint16"
        },
        {
          "indexed": true,
          "internalType": "bytes",
          "name": "_srcAddress",
          "type": "bytes"
        },
        {
          "indexed": true,
          "internalType": "address",
          "name": "_toAddress",
          "type": "address"
        },
        {
          "indexed": false,
          "internalType": "uint256[]",
          "name": "_tokenIds",
          "type": "uint256[]"
        }
      ],
      "name": "ReceiveFromChain",
      "type": "event"
    },
    {
      "anonymous": false,
      "inputs": [
        {
          "indexed": false,
          "internalType": "uint16",
          "name": "_srcChainId",
          "type": "uint16"
        },
        {
          "indexed": false,
          "internalType": "bytes",
          "name": "_srcAddress",
          "type": "bytes"
        },
        {
          "indexed": false,
          "internalType": "uint64",
          "name": "_nonce",
          "type": "uint64"
        },
        {
          "indexed": false,
          "internalType": "bytes32",
          "name": "_payloadHash",
          "type": "bytes32"
        }
      ],
      "name": "RetryMessageSuccess",
      "type": "event"
    },
    {
      "anonymous": false,
      "inputs": [
        {
          "indexed": true,
          "internalType": "uint16",
          "name": "_dstChainId",
          "type": "uint16"
        },
        {
          "indexed": true,
          "internalType": "address",
          "name": "_from",
          "type": "address"
        },
        {
          "indexed": true,
          "internalType": "bytes",
          "name": "_toAddress",
          "type": "bytes"
        },
        {
          "indexed": false,
          "internalType": "uint256[]",
          "name": "_tokenIds",
          "type": "uint256[]"
        }
      ],
      "name": "SendToChain",
      "type": "event"
    },
    {
      "anonymous": false,
      "inputs": [
        {
          "indexed": false,
          "internalType": "uint16",
          "name": "_dstChainId",
          "type": "uint16"
        },
        {
          "indexed": false,
          "internalType": "uint256",
          "name": "_dstChainIdToBatchLimit",
          "type": "uint256"
        }
      ],
      "name": "SetDstChainIdToBatchLimit",
      "type": "event"
    },
    {
      "anonymous": false,
      "inputs": [
        {
          "indexed": false,
          "internalType": "uint16",
          "name": "_dstChainId",
          "type": "uint16"
        },
        {
          "indexed": false,
          "internalType": "uint256",
          "name": "_dstChainIdToTransferGas",
          "type": "uint256"
        }
      ],
      "name": "SetDstChainIdToTransferGas",
      "type": "event"
    },
    {
      "anonymous": false,
      "inputs": [
        {
          "indexed": false,
          "internalType": "uint16",
          "name": "_dstChainId",
          "type": "uint16"
        },
        {
          "indexed": false,
          "internalType": "uint16",
          "name": "_type",
          "type": "uint16"
        },
        {
          "indexed": false,
          "internalType": "uint256",
          "name": "_minDstGas",
          "type": "uint256"
        }
      ],
      "name": "SetMinDstGas",
      "type": "event"
    },
    {
      "anonymous": false,
      "inputs": [
        {
          "indexed": false,
          "internalType": "uint256",
          "name": "_minGasToTransferAndStore",
          "type": "uint256"
        }
      ],
      "name": "SetMinGasToTransferAndStore",
      "type": "event"
    },
    {
      "anonymous": false,
      "inputs": [
        {
          "indexed": false,
          "internalType": "address",
          "name": "precrime",
          "type": "address"
        }
      ],
      "name": "SetPrecrime",
      "type": "event"
    },
    {
      "anonymous": false,
      "inputs": [
        {
          "indexed": false,
          "internalType": "uint16",
          "name": "_remoteChainId",
          "type": "uint16"
        },
        {
          "indexed": false,
          "internalType": "bytes",
          "name": "_path",
          "type": "bytes"
        }
      ],
      "name": "SetTrustedRemote",
      "type": "event"
    },
    {
      "anonymous": false,
      "inputs": [
        {
          "indexed": false,
          "internalType": "uint16",
          "name": "_remoteChainId",
          "type": "uint16"
        },
        {
          "indexed": false,
          "internalType": "bytes",
          "name": "_remoteAddress",
          "type": "bytes"
        }
      ],
      "name": "SetTrustedRemoteAddress",
      "type": "event"
    },
    {
      "anonymous": false,
      "inputs": [
        {
          "indexed": true,
          "internalType": "address",
          "name": "from",
          "type": "address"
        },
        {
          "indexed": true,
          "internalType": "address",
          "name": "to",
          "type": "address"
        },
        {
          "indexed": true,
          "internalType": "uint256",
          "name": "tokenId",
          "type": "uint256"
        }
      ],
      "name": "Transfer",
      "type": "event"
    },
    {
      "inputs": [],
      "name": "DEFAULT_PAYLOAD_SIZE_LIMIT",
      "outputs": [
        {
          "internalType": "uint256",
          "name": "",
          "type": "uint256"
        }
      ],
      "stateMutability": "view",
      "type": "function"
    },
    {
      "inputs": [],
      "name": "FUNCTION_TYPE_SEND",
      "outputs": [
        {
          "internalType": "uint16",
          "name": "",
          "type": "uint16"
        }
      ],
      "stateMutability": "view",
      "type": "function"
    },
    {
      "inputs": [],
      "name": "MAX_SUPPLY",
      "outputs": [
        {
          "internalType": "uint16",
          "name": "",
          "type": "uint16"
        }
      ],
      "stateMutability": "view",
      "type": "function"
    },
    {
      "inputs": [
        {
          "internalType": "address",
          "name": "to",
          "type": "address"
        },
        {
          "internalType": "uint256",
          "name": "tokenId",
          "type": "uint256"
        }
      ],
      "name": "approve",
      "outputs": [],
      "stateMutability": "nonpayable",
      "type": "function"
    },
    {
      "inputs": [
        {
          "internalType": "address",
          "name": "owner",
          "type": "address"
        }
      ],
      "name": "balanceOf",
      "outputs": [
        {
          "internalType": "uint256",
          "name": "",
          "type": "uint256"
        }
      ],
      "stateMutability": "view",
      "type": "function"
    },
    {
      "inputs": [
        {
          "internalType": "bytes",
          "name": "_payload",
          "type": "bytes"
        }
      ],
      "name": "clearCredits",
      "outputs": [],
      "stateMutability": "nonpayable",
      "type": "function"
    },
    {
      "inputs": [
        {
          "internalType": "uint16",
          "name": "",
          "type": "uint16"
        }
      ],
      "name": "dstChainIdToBatchLimit",
      "outputs": [
        {
          "internalType": "uint256",
          "name": "",
          "type": "uint256"
        }
      ],
      "stateMutability": "view",
      "type": "function"
    },
    {
      "inputs": [
        {
          "internalType": "uint16",
          "name": "",
          "type": "uint16"
        }
      ],
      "name": "dstChainIdToTransferGas",
      "outputs": [
        {
          "internalType": "uint256",
          "name": "",
          "type": "uint256"
        }
      ],
      "stateMutability": "view",
      "type": "function"
    },
    {
      "inputs": [
        {
          "internalType": "uint16",
          "name": "_dstChainId",
          "type": "uint16"
        },
        {
          "internalType": "bytes",
          "name": "_toAddress",
          "type": "bytes"
        },
        {
          "internalType": "uint256[]",
          "name": "_tokenIds",
          "type": "uint256[]"
        },
        {
          "internalType": "bool",
          "name": "_useZro",
          "type": "bool"
        },
        {
          "internalType": "bytes",
          "name": "_adapterParams",
          "type": "bytes"
        }
      ],
      "name": "estimateSendBatchFee",
      "outputs": [
        {
          "internalType": "uint256",
          "name": "nativeFee",
          "type": "uint256"
        },
        {
          "internalType": "uint256",
          "name": "zroFee",
          "type": "uint256"
        }
      ],
      "stateMutability": "view",
      "type": "function"
    },
    {
      "inputs": [
        {
          "internalType": "uint16",
          "name": "_dstChainId",
          "type": "uint16"
        },
        {
          "internalType": "bytes",
          "name": "_toAddress",
          "type": "bytes"
        },
        {
          "internalType": "uint256",
          "name": "_tokenId",
          "type": "uint256"
        },
        {
          "internalType": "bool",
          "name": "_useZro",
          "type": "bool"
        },
        {
          "internalType": "bytes",
          "name": "_adapterParams",
          "type": "bytes"
        }
      ],
      "name": "estimateSendFee",
      "outputs": [
        {
          "internalType": "uint256",
          "name": "nativeFee",
          "type": "uint256"
        },
        {
          "internalType": "uint256",
          "name": "zroFee",
          "type": "uint256"
        }
      ],
      "stateMutability": "view",
      "type": "function"
    },
    {
      "inputs": [
        {
          "internalType": "uint16",
          "name": "",
          "type": "uint16"
        },
        {
          "internalType": "bytes",
          "name": "",
          "type": "bytes"
        },
        {
          "internalType": "uint64",
          "name": "",
          "type": "uint64"
        }
      ],
      "name": "failedMessages",
      "outputs": [
        {
          "internalType": "bytes32",
          "name": "",
          "type": "bytes32"
        }
      ],
      "stateMutability": "view",
      "type": "function"
    },
    {
      "inputs": [
        {
          "internalType": "uint16",
          "name": "_srcChainId",
          "type": "uint16"
        },
        {
          "internalType": "bytes",
          "name": "_srcAddress",
          "type": "bytes"
        }
      ],
      "name": "forceResumeReceive",
      "outputs": [],
      "stateMutability": "nonpayable",
      "type": "function"
    },
    {
      "inputs": [
        {
          "internalType": "uint256",
          "name": "tokenId",
          "type": "uint256"
        }
      ],
      "name": "getApproved",
      "outputs": [
        {
          "internalType": "address",
          "name": "",
          "type": "address"
        }
      ],
      "stateMutability": "view",
      "type": "function"
    },
    {
      "inputs": [
        {
          "internalType": "uint16",
          "name": "_version",
          "type": "uint16"
        },
        {
          "internalType": "uint16",
          "name": "_chainId",
          "type": "uint16"
        },
        {
          "internalType": "address",
          "name": "",
          "type": "address"
        },
        {
          "internalType": "uint256",
          "name": "_configType",
          "type": "uint256"
        }
      ],
      "name": "getConfig",
      "outputs": [
        {
          "internalType": "bytes",
          "name": "",
          "type": "bytes"
        }
      ],
      "stateMutability": "view",
      "type": "function"
    },
    {
      "inputs": [
        {
          "internalType": "uint16",
          "name": "_remoteChainId",
          "type": "uint16"
        }
      ],
      "name": "getTrustedRemoteAddress",
      "outputs": [
        {
          "internalType": "bytes",
          "name": "",
          "type": "bytes"
        }
      ],
      "stateMutability": "view",
      "type": "function"
    },
    {
      "inputs": [
        {
          "internalType": "address",
          "name": "owner",
          "type": "address"
        },
        {
          "internalType": "address",
          "name": "operator",
          "type": "address"
        }
      ],
      "name": "isApprovedForAll",
      "outputs": [
        {
          "internalType": "bool",
          "name": "",
          "type": "bool"
        }
      ],
      "stateMutability": "view",
      "type": "function"
    },
    {
      "inputs": [],
      "name": "isRegistryActive",
      "outputs": [
        {
          "internalType": "bool",
          "name": "",
          "type": "bool"
        }
      ],
      "stateMutability": "view",
      "type": "function"
    },
    {
      "inputs": [
        {
          "internalType": "uint16",
          "name": "_srcChainId",
          "type": "uint16"
        },
        {
          "internalType": "bytes",
          "name": "_srcAddress",
          "type": "bytes"
        }
      ],
      "name": "isTrustedRemote",
      "outputs": [
        {
          "internalType": "bool",
          "name": "",
          "type": "bool"
        }
      ],
      "stateMutability": "view",
      "type": "function"
    },
    {
      "inputs": [],
      "name": "lzEndpoint",
      "outputs": [
        {
          "internalType": "contract ILayerZeroEndpoint",
          "name": "",
          "type": "address"
        }
      ],
      "stateMutability": "view",
      "type": "function"
    },
    {
      "inputs": [
        {
          "internalType": "uint16",
          "name": "_srcChainId",
          "type": "uint16"
        },
        {
          "internalType": "bytes",
          "name": "_srcAddress",
          "type": "bytes"
        },
        {
          "internalType": "uint64",
          "name": "_nonce",
          "type": "uint64"
        },
        {
          "internalType": "bytes",
          "name": "_payload",
          "type": "bytes"
        }
      ],
      "name": "lzReceive",
      "outputs": [],
      "stateMutability": "nonpayable",
      "type": "function"
    },
    {
      "inputs": [
        {
          "internalType": "uint16",
          "name": "",
          "type": "uint16"
        },
        {
          "internalType": "uint16",
          "name": "",
          "type": "uint16"
        }
      ],
      "name": "minDstGasLookup",
      "outputs": [
        {
          "internalType": "uint256",
          "name": "",
          "type": "uint256"
        }
      ],
      "stateMutability": "view",
      "type": "function"
    },
    {
      "inputs": [],
      "name": "minGasToTransferAndStore",
      "outputs": [
        {
          "internalType": "uint256",
          "name": "",
          "type": "uint256"
        }
      ],
      "stateMutability": "view",
      "type": "function"
    },
    {
      "inputs": [],
      "name": "name",
      "outputs": [
        {
          "internalType": "string",
          "name": "",
          "type": "string"
        }
      ],
      "stateMutability": "view",
      "type": "function"
    },
    {
      "inputs": [
        {
          "internalType": "uint16",
          "name": "_srcChainId",
          "type": "uint16"
        },
        {
          "internalType": "bytes",
          "name": "_srcAddress",
          "type": "bytes"
        },
        {
          "internalType": "uint64",
          "name": "_nonce",
          "type": "uint64"
        },
        {
          "internalType": "bytes",
          "name": "_payload",
          "type": "bytes"
        }
      ],
      "name": "nonblockingLzReceive",
      "outputs": [],
      "stateMutability": "nonpayable",
      "type": "function"
    },
    {
      "inputs": [],
      "name": "operatorFilteringEnabled",
      "outputs": [
        {
          "internalType": "bool",
          "name": "",
          "type": "bool"
        }
      ],
      "stateMutability": "view",
      "type": "function"
    },
    {
      "inputs": [],
      "name": "owner",
      "outputs": [
        {
          "internalType": "address",
          "name": "",
          "type": "address"
        }
      ],
      "stateMutability": "view",
      "type": "function"
    },
    {
      "inputs": [
        {
          "internalType": "uint256",
          "name": "tokenId",
          "type": "uint256"
        }
      ],
      "name": "ownerOf",
      "outputs": [
        {
          "internalType": "address",
          "name": "",
          "type": "address"
        }
      ],
      "stateMutability": "view",
      "type": "function"
    },
    {
      "inputs": [
        {
          "internalType": "uint16",
          "name": "",
          "type": "uint16"
        }
      ],
      "name": "payloadSizeLimitLookup",
      "outputs": [
        {
          "internalType": "uint256",
          "name": "",
          "type": "uint256"
        }
      ],
      "stateMutability": "view",
      "type": "function"
    },
    {
      "inputs": [],
      "name": "precrime",
      "outputs": [
        {
          "internalType": "address",
          "name": "",
          "type": "address"
        }
      ],
      "stateMutability": "view",
      "type": "function"
    },
    {
      "inputs": [],
      "name": "realOwner",
      "outputs": [
        {
          "internalType": "address",
          "name": "",
          "type": "address"
        }
      ],
      "stateMutability": "view",
      "type": "function"
    },
    {
      "inputs": [
        {
          "internalType": "address",
          "name": "to",
          "type": "address"
        },
        {
          "internalType": "uint256[]",
          "name": "bagIds",
          "type": "uint256[]"
        }
      ],
      "name": "redeemBags",
      "outputs": [
        {
          "internalType": "uint256[]",
          "name": "",
          "type": "uint256[]"
        }
      ],
      "stateMutability": "nonpayable",
      "type": "function"
    },
    {
      "inputs": [],
      "name": "redeemInfo",
      "outputs": [
        {
          "internalType": "bool",
          "name": "redeemBagOpen",
          "type": "bool"
        },
        {
          "internalType": "address",
          "name": "bagAddress",
          "type": "address"
        }
      ],
      "stateMutability": "view",
      "type": "function"
    },
    {
      "inputs": [],
      "name": "registryAddress",
      "outputs": [
        {
          "internalType": "address",
          "name": "",
          "type": "address"
        }
      ],
      "stateMutability": "view",
      "type": "function"
    },
    {
      "inputs": [],
      "name": "renounceOwnership",
      "outputs": [],
      "stateMutability": "nonpayable",
      "type": "function"
    },
    {
      "inputs": [
        {
          "internalType": "uint16",
          "name": "_srcChainId",
          "type": "uint16"
        },
        {
          "internalType": "bytes",
          "name": "_srcAddress",
          "type": "bytes"
        },
        {
          "internalType": "uint64",
          "name": "_nonce",
          "type": "uint64"
        },
        {
          "internalType": "bytes",
          "name": "_payload",
          "type": "bytes"
        }
      ],
      "name": "retryMessage",
      "outputs": [],
      "stateMutability": "payable",
      "type": "function"
    },
    {
      "inputs": [
        {
          "internalType": "uint256",
          "name": "tokenId",
          "type": "uint256"
        },
        {
          "internalType": "uint256",
          "name": "salePrice",
          "type": "uint256"
        }
      ],
      "name": "royaltyInfo",
      "outputs": [
        {
          "internalType": "address",
          "name": "",
          "type": "address"
        },
        {
          "internalType": "uint256",
          "name": "",
          "type": "uint256"
        }
      ],
      "stateMutability": "view",
      "type": "function"
    },
    {
      "inputs": [
        {
          "internalType": "address",
          "name": "from",
          "type": "address"
        },
        {
          "internalType": "address",
          "name": "to",
          "type": "address"
        },
        {
          "internalType": "uint256",
          "name": "tokenId",
          "type": "uint256"
        }
      ],
      "name": "safeTransferFrom",
      "outputs": [],
      "stateMutability": "nonpayable",
      "type": "function"
    },
    {
      "inputs": [
        {
          "internalType": "address",
          "name": "from",
          "type": "address"
        },
        {
          "internalType": "address",
          "name": "to",
          "type": "address"
        },
        {
          "internalType": "uint256",
          "name": "tokenId",
          "type": "uint256"
        },
        {
          "internalType": "bytes",
          "name": "data",
          "type": "bytes"
        }
      ],
      "name": "safeTransferFrom",
      "outputs": [],
      "stateMutability": "nonpayable",
      "type": "function"
    },
    {
      "inputs": [
        {
          "internalType": "address",
          "name": "_from",
          "type": "address"
        },
        {
          "internalType": "uint16",
          "name": "_dstChainId",
          "type": "uint16"
        },
        {
          "internalType": "bytes",
          "name": "_toAddress",
          "type": "bytes"
        },
        {
          "internalType": "uint256[]",
          "name": "_tokenIds",
          "type": "uint256[]"
        },
        {
          "internalType": "address payable",
          "name": "_refundAddress",
          "type": "address"
        },
        {
          "internalType": "address",
          "name": "_zroPaymentAddress",
          "type": "address"
        },
        {
          "internalType": "bytes",
          "name": "_adapterParams",
          "type": "bytes"
        }
      ],
      "name": "sendBatchFrom",
      "outputs": [],
      "stateMutability": "payable",
      "type": "function"
    },
    {
      "inputs": [
        {
          "internalType": "address",
          "name": "_from",
          "type": "address"
        },
        {
          "internalType": "uint16",
          "name": "_dstChainId",
          "type": "uint16"
        },
        {
          "internalType": "bytes",
          "name": "_toAddress",
          "type": "bytes"
        },
        {
          "internalType": "uint256",
          "name": "_tokenId",
          "type": "uint256"
        },
        {
          "internalType": "address payable",
          "name": "_refundAddress",
          "type": "address"
        },
        {
          "internalType": "address",
          "name": "_zroPaymentAddress",
          "type": "address"
        },
        {
          "internalType": "bytes",
          "name": "_adapterParams",
          "type": "bytes"
        }
      ],
      "name": "sendFrom",
      "outputs": [],
      "stateMutability": "payable",
      "type": "function"
    },
    {
      "inputs": [
        {
          "internalType": "address",
          "name": "operator",
          "type": "address"
        },
        {
          "internalType": "bool",
          "name": "approved",
          "type": "bool"
        }
      ],
      "name": "setApprovalForAll",
      "outputs": [],
      "stateMutability": "nonpayable",
      "type": "function"
    },
    {
      "inputs": [
        {
          "internalType": "address",
          "name": "contractAddress",
          "type": "address"
        }
      ],
      "name": "setBagAddress",
      "outputs": [],
      "stateMutability": "nonpayable",
      "type": "function"
    },
    {
      "inputs": [
        {
          "internalType": "string",
          "name": "baseURI",
          "type": "string"
        }
      ],
      "name": "setBaseURI",
      "outputs": [],
      "stateMutability": "nonpayable",
      "type": "function"
    },
    {
      "inputs": [
        {
          "internalType": "string",
          "name": "baseURIPermanent",
          "type": "string"
        }
      ],
      "name": "setBaseURIPermanent",
      "outputs": [],
      "stateMutability": "nonpayable",
      "type": "function"
    },
    {
      "inputs": [
        {
          "internalType": "uint16",
          "name": "_version",
          "type": "uint16"
        },
        {
          "internalType": "uint16",
          "name": "_chainId",
          "type": "uint16"
        },
        {
          "internalType": "uint256",
          "name": "_configType",
          "type": "uint256"
        },
        {
          "internalType": "bytes",
          "name": "_config",
          "type": "bytes"
        }
      ],
      "name": "setConfig",
      "outputs": [],
      "stateMutability": "nonpayable",
      "type": "function"
    },
    {
      "inputs": [
        {
          "internalType": "address",
          "name": "receiver",
          "type": "address"
        },
        {
          "internalType": "uint96",
          "name": "feeNumerator",
          "type": "uint96"
        }
      ],
      "name": "setDefaultRoyalty",
      "outputs": [],
      "stateMutability": "nonpayable",
      "type": "function"
    },
    {
      "inputs": [
        {
          "internalType": "uint16",
          "name": "_dstChainId",
          "type": "uint16"
        },
        {
          "internalType": "uint256",
          "name": "_dstChainIdToBatchLimit",
          "type": "uint256"
        }
      ],
      "name": "setDstChainIdToBatchLimit",
      "outputs": [],
      "stateMutability": "nonpayable",
      "type": "function"
    },
    {
      "inputs": [
        {
          "internalType": "uint16",
          "name": "_dstChainId",
          "type": "uint16"
        },
        {
          "internalType": "uint256",
          "name": "_dstChainIdToTransferGas",
          "type": "uint256"
        }
      ],
      "name": "setDstChainIdToTransferGas",
      "outputs": [],
      "stateMutability": "nonpayable",
      "type": "function"
    },
    {
      "inputs": [
        {
          "internalType": "uint256[]",
          "name": "tokenIds",
          "type": "uint256[]"
        }
      ],
      "name": "setIsUriPermanent",
      "outputs": [],
      "stateMutability": "nonpayable",
      "type": "function"
    },
    {
      "inputs": [
        {
          "internalType": "uint16",
          "name": "_dstChainId",
          "type": "uint16"
        },
        {
          "internalType": "uint16",
          "name": "_packetType",
          "type": "uint16"
        },
        {
          "internalType": "uint256",
          "name": "_minGas",
          "type": "uint256"
        }
      ],
      "name": "setMinDstGas",
      "outputs": [],
      "stateMutability": "nonpayable",
      "type": "function"
    },
    {
      "inputs": [
        {
          "internalType": "uint256",
          "name": "_minGasToTransferAndStore",
          "type": "uint256"
        }
      ],
      "name": "setMinGasToTransferAndStore",
      "outputs": [],
      "stateMutability": "nonpayable",
      "type": "function"
    },
    {
      "inputs": [
        {
          "internalType": "uint16",
          "name": "_dstChainId",
          "type": "uint16"
        },
        {
          "internalType": "uint256",
          "name": "_size",
          "type": "uint256"
        }
      ],
      "name": "setPayloadSizeLimit",
      "outputs": [],
      "stateMutability": "nonpayable",
      "type": "function"
    },
    {
      "inputs": [
        {
          "internalType": "address",
          "name": "_precrime",
          "type": "address"
        }
      ],
      "name": "setPrecrime",
      "outputs": [],
      "stateMutability": "nonpayable",
      "type": "function"
    },
    {
      "inputs": [
        {
          "internalType": "uint16",
          "name": "_version",
          "type": "uint16"
        }
      ],
      "name": "setReceiveVersion",
      "outputs": [],
      "stateMutability": "nonpayable",
      "type": "function"
    },
    {
      "inputs": [
        {
          "internalType": "bool",
          "name": "_redeemBagOpen",
          "type": "bool"
        }
      ],
      "name": "setRedeemBagState",
      "outputs": [],
      "stateMutability": "nonpayable",
      "type": "function"
    },
    {
      "inputs": [
        {
          "internalType": "uint16",
          "name": "_version",
          "type": "uint16"
        }
      ],
      "name": "setSendVersion",
      "outputs": [],
      "stateMutability": "nonpayable",
      "type": "function"
    },
    {
      "inputs": [
        {
          "internalType": "uint256",
          "name": "tokenId",
          "type": "uint256"
        },
        {
          "internalType": "address",
          "name": "receiver",
          "type": "address"
        },
        {
          "internalType": "uint96",
          "name": "feeNumerator",
          "type": "uint96"
        }
      ],
      "name": "setTokenRoyalty",
      "outputs": [],
      "stateMutability": "nonpayable",
      "type": "function"
    },
    {
      "inputs": [
        {
          "internalType": "uint16",
          "name": "_remoteChainId",
          "type": "uint16"
        },
        {
          "internalType": "bytes",
          "name": "_path",
          "type": "bytes"
        }
      ],
      "name": "setTrustedRemote",
      "outputs": [],
      "stateMutability": "nonpayable",
      "type": "function"
    },
    {
      "inputs": [
        {
          "internalType": "uint16",
          "name": "_remoteChainId",
          "type": "uint16"
        },
        {
          "internalType": "bytes",
          "name": "_remoteAddress",
          "type": "bytes"
        }
      ],
      "name": "setTrustedRemoteAddress",
      "outputs": [],
      "stateMutability": "nonpayable",
      "type": "function"
    },
    {
      "inputs": [
        {
          "internalType": "bytes32",
          "name": "",
          "type": "bytes32"
        }
      ],
      "name": "storedCredits",
      "outputs": [
        {
          "internalType": "uint16",
          "name": "srcChainId",
          "type": "uint16"
        },
        {
          "internalType": "address",
          "name": "toAddress",
          "type": "address"
        },
        {
          "internalType": "uint256",
          "name": "index",
          "type": "uint256"
        },
        {
          "internalType": "bool",
          "name": "creditsRemain",
          "type": "bool"
        }
      ],
      "stateMutability": "view",
      "type": "function"
    },
    {
      "inputs": [
        {
          "internalType": "bytes4",
          "name": "interfaceId",
          "type": "bytes4"
        }
      ],
      "name": "supportsInterface",
      "outputs": [
        {
          "internalType": "bool",
          "name": "",
          "type": "bool"
        }
      ],
      "stateMutability": "view",
      "type": "function"
    },
    {
      "inputs": [],
      "name": "symbol",
      "outputs": [
        {
          "internalType": "string",
          "name": "",
          "type": "string"
        }
      ],
      "stateMutability": "view",
      "type": "function"
    },
    {
      "inputs": [
        {
          "internalType": "uint256",
          "name": "tokenId",
          "type": "uint256"
        }
      ],
      "name": "tokenURI",
      "outputs": [
        {
          "internalType": "string",
          "name": "",
          "type": "string"
        }
      ],
      "stateMutability": "view",
      "type": "function"
    },
    {
      "inputs": [],
      "name": "totalSupply",
      "outputs": [
        {
          "internalType": "uint256",
          "name": "",
          "type": "uint256"
        }
      ],
      "stateMutability": "view",
      "type": "function"
    },
    {
      "inputs": [
        {
          "internalType": "address",
          "name": "from",
          "type": "address"
        },
        {
          "internalType": "address",
          "name": "to",
          "type": "address"
        },
        {
          "internalType": "uint256",
          "name": "tokenId",
          "type": "uint256"
        }
      ],
      "name": "transferFrom",
      "outputs": [],
      "stateMutability": "nonpayable",
      "type": "function"
    },
    {
      "inputs": [
        {
          "internalType": "address",
          "name": "newOwner",
          "type": "address"
        }
      ],
      "name": "transferLowerOwnership",
      "outputs": [],
      "stateMutability": "nonpayable",
      "type": "function"
    },
    {
      "inputs": [
        {
          "internalType": "address",
          "name": "newOwner",
          "type": "address"
        }
      ],
      "name": "transferOwnership",
      "outputs": [],
      "stateMutability": "nonpayable",
      "type": "function"
    },
    {
      "inputs": [
        {
          "internalType": "address",
          "name": "newRealOwner",
          "type": "address"
        }
      ],
      "name": "transferRealOwnership",
      "outputs": [],
      "stateMutability": "nonpayable",
      "type": "function"
    },
    {
      "inputs": [
        {
          "internalType": "uint16",
          "name": "",
          "type": "uint16"
        }
      ],
      "name": "trustedRemoteLookup",
      "outputs": [
        {
          "internalType": "bytes",
          "name": "",
          "type": "bytes"
        }
      ],
      "stateMutability": "view",
      "type": "function"
    }
  ],
  "transactionHash": "0x764082d1a19cc9615dbd2328e2706bde8b654983107f5102c545da6fb732602a",
  "args": [
    "SpheraHead",
    "SPH",
    3000,
    100000,
    "0xbfD2135BFfbb0B5378b56643c2Df8a87552Bfa23"
  ],
  "numDeployments": 1,
  "solcInputHash": "0efbedb724edbcf3b6994f08a838f16f",
  "bytecode": "0x60c06040526013805461ffff60a01b1916600160a01b1790553480156200002557600080fd5b5060405162005b1038038062005b108339810160408190526200004891620002fb565b848483838383838380806200005d3362000149565b6001600160a01b031660805250600160085581620000cd5760405162461bcd60e51b8152602060048201526024808201527f6d696e476173546f5472616e73666572416e6453746f7265206d7573742062656044820152630203e20360e41b606482015260840160405180910390fd5b50600955600d620000df83826200043b565b50600e620000ee82826200043b565b5050601380546001600160a01b0319163317905550505061ffff851660a08190526016805461ffff19169091179055506200012a905062000199565b50506013805460ff60a01b1916600160a01b1790555062000507915050565b600080546001600160a01b038381166001600160a01b0319831681178455604051919092169283917f8be0079c531659141344cd1fd0a4f28419497f9722a3daafe3b4186f6b6457e09190a35050565b620001ba733cc6cdda760b79bafa08df41ecfa224f810dceb66001620001bc565b565b6001600160a01b0390911690637d3e3dbe81620001ec5782620001e55750634420e486620001ec565b5063a0af29035b8060e01b60005230600452826024526004600060446000806daaeb6d7670e522a718067333cd4e5af16200022c578060005160e01c036200022c57600080fd5b5060006024525050565b634e487b7160e01b600052604160045260246000fd5b600082601f8301126200025e57600080fd5b81516001600160401b03808211156200027b576200027b62000236565b604051601f8301601f19908116603f01168101908282118183101715620002a657620002a662000236565b81604052838152602092508683858801011115620002c357600080fd5b600091505b83821015620002e75785820183015181830184015290820190620002c8565b600093810190920192909252949350505050565b600080600080600060a086880312156200031457600080fd5b85516001600160401b03808211156200032c57600080fd5b6200033a89838a016200024c565b965060208801519150808211156200035157600080fd5b5062000360888289016200024c565b945050604086015161ffff811681146200037957600080fd5b6060870151608088015191945092506001600160a01b03811681146200039e57600080fd5b809150509295509295909350565b600181811c90821680620003c157607f821691505b602082108103620003e257634e487b7160e01b600052602260045260246000fd5b50919050565b601f8211156200043657600081815260208120601f850160051c81016020861015620004115750805b601f850160051c820191505b8181101562000432578281556001016200041d565b5050505b505050565b81516001600160401b0381111562000457576200045762000236565b6200046f81620004688454620003ac565b84620003e8565b602080601f831160018114620004a757600084156200048e5750858301515b600019600386901b1c1916600185901b17855562000432565b600085815260208120601f198616915b82811015620004d857888601518255948401946001909101908401620004b7565b5085821015620004f75787850151600019600388901b60f8161c191681555b5050505050600190811b01905550565b60805160a0516155a46200056c600039600081816105a70152610740015260008181610b8f01528181610e140152818161112b015281816113e50152818161168a015281816121e4015281816126aa015281816127dd0152613d2501526155a46000f3fe6080604052600436106103f95760003560e01c8063715018a611610213578063b88d4fde11610123578063e985e9c5116100ab578063f23536411161007a578063f235364114610d63578063f2fde38b14610d83578063f5ecbdbc14610da3578063fa25f9b614610dc3578063fb796e6c14610df057600080fd5b8063e985e9c514610cba578063eb8d72b714610cda578063ed9aab5114610cfa578063efe7aa4914610d1a57600080fd5b8063cbed8b9c116100f2578063cbed8b9c14610c27578063cd06406a14610c47578063d12473a514610c67578063d1deba1f14610c87578063df2a5b3b14610c9a57600080fd5b8063b88d4fde14610bb1578063baf3292d14610bd1578063c446183414610bf1578063c87b56dd14610c0757600080fd5b806395d89b41116101a6578063a6c3d16511610175578063a6c3d16514610b14578063ab3ffb9314610b34578063abd017ea14610b47578063af3fb21c14610b68578063b353aaa714610b7d57600080fd5b806395d89b4114610a9f5780639ea5d6b114610ab45780639f38369a14610ad4578063a22cb46514610af457600080fd5b80638da5cb5b116101e25780638da5cb5b14610a215780638e0d9fcc14610a3f5780638ffa1f2a14610a5f578063950c8a7414610a7f57600080fd5b8063715018a614610994578063750bcc0e146109a95780637533d788146109c95780638cfd8f5c146109e957600080fd5b80632cff67701161030e5780634ac3f4ff116102a15780635b8c41e6116102705780635b8c41e6146108b85780635fb4271b146109075780636352211e1461093457806366ad5c8a1461095457806370a082311461097457600080fd5b80634ac3f4ff14610838578063519056361461086557806355f804b3146108785780635944c7531461089857600080fd5b80633f1f4fa4116102dd5780633f1f4fa4146107b557806342842e0e146107e257806342d65a8d14610802578063482881901461082257600080fd5b80632cff67701461070e57806332cb6b0c1461072e5780633c115fa6146107755780633d8b38f61461079557600080fd5b80630b4cad4c116103915780631df270f3116103605780631df270f3146105d757806322a3ecf9146105f757806323b872dd1461067a5780632a205e3d1461069a5780632a55205a146106cf57600080fd5b80630b4cad4c1461052f5780630df374831461054f57806310ddb1371461056f57806318160ddd1461058f57600080fd5b806307e0db17116103cd57806307e0db1714610497578063081812fc146104b7578063095ea7b3146104ef57806309af3f9a1461050f57600080fd5b80621d3567146103fe57806301ffc9a71461042057806304634d8d1461045557806306fdde0314610475575b600080fd5b34801561040a57600080fd5b5061041e6104193660046141ce565b610e11565b005b34801561042c57600080fd5b5061044061043b366004614277565b611042565b60405190151581526020015b60405180910390f35b34801561046157600080fd5b5061041e6104703660046142cb565b611062565b34801561048157600080fd5b5061048a611078565b60405161044c9190614350565b3480156104a357600080fd5b5061041e6104b2366004614363565b61110a565b3480156104c357600080fd5b506104d76104d236600461437e565b611193565b6040516001600160a01b03909116815260200161044c565b3480156104fb57600080fd5b5061041e61050a366004614397565b6111ba565b34801561051b57600080fd5b5061041e61052a3660046143c3565b6112cf565b34801561053b57600080fd5b5061041e61054a36600461437e565b611305565b34801561055b57600080fd5b5061041e61056a3660046143e0565b6113a5565b34801561057b57600080fd5b5061041e61058a366004614363565b6113c4565b34801561059b57600080fd5b5060165461ffff9081167f000000000000000000000000000000000000000000000000000000000000000003165b60405190815260200161044c565b3480156105e357600080fd5b506013546104d7906001600160a01b031681565b34801561060357600080fd5b5061064b61061236600461437e565b600c6020526000908152604090208054600182015460029092015461ffff821692620100009092046001600160a01b0316919060ff1684565b6040805161ffff90951685526001600160a01b039093166020850152918301521515606082015260800161044c565b34801561068657600080fd5b5061041e6106953660046143fc565b61141c565b3480156106a657600080fd5b506106ba6106b5366004614510565b61144e565b6040805192835260208301919091520161044c565b3480156106db57600080fd5b506106ef6106ea36600461459e565b611474565b604080516001600160a01b03909316835260208301919091520161044c565b34801561071a57600080fd5b5061041e6107293660046143c3565b611522565b34801561073a57600080fd5b506107627f000000000000000000000000000000000000000000000000000000000000000081565b60405161ffff909116815260200161044c565b34801561078157600080fd5b5061041e6107903660046145c0565b61156e565b3480156107a157600080fd5b506104406107b0366004614601565b611584565b3480156107c157600080fd5b506105c96107d0366004614363565b60036020526000908152604090205481565b3480156107ee57600080fd5b5061041e6107fd3660046143fc565b611650565b34801561080e57600080fd5b5061041e61081d366004614601565b61166b565b34801561082e57600080fd5b506105c960095481565b34801561084457600080fd5b506105c9610853366004614363565b600a6020526000908152604090205481565b61041e610873366004614653565b6116f1565b34801561088457600080fd5b5061041e6108933660046145c0565b611708565b3480156108a457600080fd5b5061041e6108b336600461470c565b61171e565b3480156108c457600080fd5b506105c96108d336600461474a565b6005602090815260009384526040808520845180860184018051928152908401958401959095209452929052825290205481565b34801561091357600080fd5b506109276109223660046147e2565b611731565b60405161044c9190614864565b34801561094057600080fd5b506104d761094f36600461437e565b6118a2565b34801561096057600080fd5b5061041e61096f3660046141ce565b611902565b34801561098057600080fd5b506105c961098f3660046143c3565b6119de565b3480156109a057600080fd5b5061041e611a64565b3480156109b557600080fd5b5061041e6109c4366004614877565b611a78565b3480156109d557600080fd5b5061048a6109e4366004614363565b611afe565b3480156109f557600080fd5b506105c9610a04366004614892565b600260209081526000928352604080842090915290825290205481565b348015610a2d57600080fd5b506000546001600160a01b03166104d7565b348015610a4b57600080fd5b5061041e610a5a3660046148bc565b611b98565b348015610a6b57600080fd5b5061041e610a7a3660046148f1565b611be0565b348015610a8b57600080fd5b506004546104d7906001600160a01b031681565b348015610aab57600080fd5b5061048a611e28565b348015610ac057600080fd5b5061041e610acf3660046143e0565b611e37565b348015610ae057600080fd5b5061048a610aef366004614363565b611eee565b348015610b0057600080fd5b5061041e610b0f366004614925565b612004565b348015610b2057600080fd5b5061041e610b2f366004614601565b61200f565b61041e610b423660046149cf565b612098565b348015610b5357600080fd5b5060135461044090600160a81b900460ff1681565b348015610b7457600080fd5b50610762600181565b348015610b8957600080fd5b506104d77f000000000000000000000000000000000000000000000000000000000000000081565b348015610bbd57600080fd5b5061041e610bcc366004614a84565b6120a7565b348015610bdd57600080fd5b5061041e610bec3660046143c3565b6120df565b348015610bfd57600080fd5b506105c961271081565b348015610c1357600080fd5b5061048a610c2236600461437e565b612135565b348015610c3357600080fd5b5061041e610c42366004614aef565b6121c5565b348015610c5357600080fd5b5061041e610c623660046143c3565b61225a565b348015610c7357600080fd5b5061041e610c823660046143e0565b6122b3565b61041e610c953660046141ce565b612363565b348015610ca657600080fd5b5061041e610cb5366004614b5d565b612579565b348015610cc657600080fd5b50610440610cd5366004614b99565b6125e3565b348015610ce657600080fd5b5061041e610cf5366004614601565b612611565b348015610d0657600080fd5b506014546104d7906001600160a01b031681565b348015610d2657600080fd5b50601554610d449060ff81169061010090046001600160a01b031682565b6040805192151583526001600160a01b0390911660208301520161044c565b348015610d6f57600080fd5b506106ba610d7e366004614bd2565b61266b565b348015610d8f57600080fd5b5061041e610d9e3660046143c3565b612736565b348015610daf57600080fd5b5061048a610dbe366004614c4b565b6127ac565b348015610dcf57600080fd5b506105c9610dde366004614363565b600b6020526000908152604090205481565b348015610dfc57600080fd5b5060135461044090600160a01b900460ff1681565b337f00000000000000000000000000000000000000000000000000000000000000006001600160a01b031614610e8e5760405162461bcd60e51b815260206004820152601e60248201527f4c7a4170703a20696e76616c696420656e64706f696e742063616c6c6572000060448201526064015b60405180910390fd5b61ffff861660009081526001602052604081208054610eac90614c98565b80601f0160208091040260200160405190810160405280929190818152602001828054610ed890614c98565b8015610f255780601f10610efa57610100808354040283529160200191610f25565b820191906000526020600020905b815481529060010190602001808311610f0857829003601f168201915b50505050509050805186869050148015610f40575060008151115b8015610f68575080516020820120604051610f5e9088908890614cd2565b6040518091039020145b610fc35760405162461bcd60e51b815260206004820152602660248201527f4c7a4170703a20696e76616c696420736f757263652073656e64696e6720636f6044820152651b9d1c9858dd60d21b6064820152608401610e85565b6110398787878080601f01602080910402602001604051908101604052809392919081815260200183838082843760009201919091525050604080516020601f8a018190048102820181019092528881528a93509150889088908190840183828082843760009201919091525061285f92505050565b50505050505050565b600061104d826128d8565b8061105c575061105c826128f5565b92915050565b61106a61292a565b6110748282612984565b5050565b6060600d805461108790614c98565b80601f01602080910402602001604051908101604052809291908181526020018280546110b390614c98565b80156111005780601f106110d557610100808354040283529160200191611100565b820191906000526020600020905b8154815290600101906020018083116110e357829003601f168201915b5050505050905090565b61111261292a565b6040516307e0db1760e01b815261ffff821660048201527f00000000000000000000000000000000000000000000000000000000000000006001600160a01b0316906307e0db17906024015b600060405180830381600087803b15801561117857600080fd5b505af115801561118c573d6000803e3d6000fd5b5050505050565b600061119e82612a3e565b506000908152601160205260409020546001600160a01b031690565b60006111c5826118a2565b9050806001600160a01b0316836001600160a01b0316036112325760405162461bcd60e51b815260206004820152602160248201527f4552433732313a20617070726f76616c20746f2063757272656e74206f776e656044820152603960f91b6064820152608401610e85565b336001600160a01b038216148061124e575061124e81336125e3565b6112c05760405162461bcd60e51b815260206004820152603d60248201527f4552433732313a20617070726f76652063616c6c6572206973206e6f7420746f60448201527f6b656e206f776e6572206f7220617070726f76656420666f7220616c6c0000006064820152608401610e85565b6112ca8383612a8e565b505050565b6013546001600160a01b031633146112f95760405162461bcd60e51b8152600401610e8590614ce2565b61130281612736565b50565b61130d61292a565b600081116113695760405162461bcd60e51b8152602060048201526024808201527f6d696e476173546f5472616e73666572416e6453746f7265206d7573742062656044820152630203e20360e41b6064820152608401610e85565b60098190556040518181527ffebbc4f8bb9ec2313950c718d43123124b15778efda4c1f1d529de2995b4f34d906020015b60405180910390a150565b6113ad61292a565b61ffff909116600090815260036020526040902055565b6113cc61292a565b6040516310ddb13760e01b815261ffff821660048201527f00000000000000000000000000000000000000000000000000000000000000006001600160a01b0316906310ddb1379060240161115e565b611427335b82612afc565b6114435760405162461bcd60e51b8152600401610e8590614d2f565b6112ca838383612b5a565b600080611466878761145f88612cbe565b878761266b565b915091509550959350505050565b60008281526007602090815260408083208151808301909252546001600160a01b038116808352600160a01b9091046001600160601b03169282019290925282916114e95750604080518082019091526006546001600160a01b0381168252600160a01b90046001600160601b031660208201525b602081015160009061271090611508906001600160601b031687614d92565b6115129190614dbf565b91519350909150505b9250929050565b6013546001600160a01b0316331461154c5760405162461bcd60e51b8152600401610e8590614ce2565b601380546001600160a01b0319166001600160a01b0392909216919091179055565b61157661292a565b6110186112ca828483614e19565b61ffff8316600090815260016020526040812080548291906115a590614c98565b80601f01602080910402602001604051908101604052809291908181526020018280546115d190614c98565b801561161e5780601f106115f35761010080835404028352916020019161161e565b820191906000526020600020905b81548152906001019060200180831161160157829003601f168201915b505050505090508383604051611635929190614cd2565b60405180910390208180519060200120149150509392505050565b6112ca838383604051806020016040528060008152506120a7565b61167361292a565b6040516342d65a8d60e01b81526001600160a01b037f000000000000000000000000000000000000000000000000000000000000000016906342d65a8d906116c390869086908690600401614f01565b600060405180830381600087803b1580156116dd57600080fd5b505af1158015611039573d6000803e3d6000fd5b61103987878761170088612cbe565b878787612d09565b61171061292a565b6110176112ca828483614e19565b61172661292a565b6112ca838383612edd565b6040805180820190915260155460ff811615158083526101009091046001600160a01b031660208301526060919061177c57604051630871f9a360e21b815260040160405180910390fd5b80602001516001600160a01b0316336001600160a01b0316146117b25760405163d8546cf160e01b815260040160405180910390fd5b826000816001600160401b038111156117cd576117cd61443d565b6040519080825280602002602001820160405280156117f6578160200160208202803683370190505b50905060005b8281101561189757600087878381811061181857611818614f1f565b905060200201359050600061182b612fa8565b90506118378a82613176565b81818b6001600160a01b03167f39c105f6871f6c13c1c0e10a860d431ef1ad2c99705e6254081b2bc54c38b6b560405160405180910390a48084848151811061188257611882614f1f565b602090810291909101015250506001016117fc565b509695505050505050565b6000818152600f60205260408120546001600160a01b03168061105c5760405162461bcd60e51b8152602060048201526018602482015277115490cdcc8c4e881a5b9d985b1a59081d1bdad95b88125160421b6044820152606401610e85565b3330146119605760405162461bcd60e51b815260206004820152602660248201527f4e6f6e626c6f636b696e674c7a4170703a2063616c6c6572206d7573742062656044820152650204c7a4170760d41b6064820152608401610e85565b6119d68686868080601f01602080910402602001604051908101604052809392919081815260200183838082843760009201919091525050604080516020601f8901819004810282018101909252878152899350915087908790819084018382808284376000920191909152506132e392505050565b505050505050565b60006001600160a01b038216611a485760405162461bcd60e51b815260206004820152602960248201527f4552433732313a2061646472657373207a65726f206973206e6f7420612076616044820152683634b21037bbb732b960b91b6064820152608401610e85565b506001600160a01b031660009081526010602052604090205490565b611a6c61292a565b611a76600061343a565b565b611a8061292a565b60155461010090046001600160a01b031680611aaf57604051636d245ccd60e01b815260040160405180910390fd5b604080518082019091529115158083526001600160a01b03909116602090920182905260158054610100909302610100600160a81b03199092166001600160a81b031990931692909217179055565b60016020526000908152604090208054611b1790614c98565b80601f0160208091040260200160405190810160405280929190818152602001828054611b4390614c98565b8015611b905780601f10611b6557610100808354040283529160200191611b90565b820191906000526020600020905b815481529060010190602001808311611b7357829003601f168201915b505050505081565b611ba061292a565b60005b818110156112ca57611bd8838383818110611bc057611bc0614f1f565b9050602002013561101961348a90919063ffffffff16565b600101611ba3565b611be86134b3565b80516020808301919091206000818152600c90925260409091206002015460ff16611c495760405162461bcd60e51b81526020600482015260116024820152701b9bc818dc99591a5d1cc81cdd1bdc9959607a1b6044820152606401610e85565b600082806020019051810190611c5f9190614f7a565b6000848152600c602052604081208054600190910154929450909250611c9b9161ffff8216916201000090046001600160a01b0316908561350c565b6000848152600c60205260409020600101549091508111611d105760405162461bcd60e51b815260206004820152602960248201527f6e6f7420656e6f7567682067617320746f2070726f6365737320637265646974604482015268103a3930b739b332b960b91b6064820152608401610e85565b81518103611d87576000838152600c602052604080822080546001600160b01b031916815560018101929092556002909101805460ff19169055517fd7be02b8dd0d27bd0517a9cb4d7469ce27df4313821ae5ec1ff69acc594ba23390611d7a9085815260200190565b60405180910390a1611e1b565b604080516080810182526000858152600c6020818152848320805461ffff80821687526001600160a01b03620100008084048216868a019081529989018b8152600160608b01818152998f90529790965297519851169096026001600160b01b03199091169690951695909517939093178455915191830191909155516002909101805491151560ff199092169190911790555b5050506113026001600855565b6060600e805461108790614c98565b611e3f61292a565b60008111611e9a5760405162461bcd60e51b815260206004820152602260248201527f647374436861696e4964546f42617463684c696d6974206d757374206265203e604482015261020360f41b6064820152608401610e85565b61ffff82166000818152600a6020908152604091829020849055815192835282018390527f7315f7654d594ead24a30160ed9ba2d23247f543016b918343591e93d7afdb6d91015b60405180910390a15050565b61ffff8116600090815260016020526040812080546060929190611f1190614c98565b80601f0160208091040260200160405190810160405280929190818152602001828054611f3d90614c98565b8015611f8a5780601f10611f5f57610100808354040283529160200191611f8a565b820191906000526020600020905b815481529060010190602001808311611f6d57829003601f168201915b505050505090508051600003611fe25760405162461bcd60e51b815260206004820152601d60248201527f4c7a4170703a206e6f20747275737465642070617468207265636f72640000006044820152606401610e85565b611ffd600060148351611ff59190615034565b839190613558565b9392505050565b611074338383613665565b61201761292a565b81813060405160200161202c93929190615047565b60408051601f1981840301815291815261ffff8516600090815260016020522090612057908261506d565b507f8c0400cfe2d1199b1a725c78960bcc2a344d869b80590d0f2bd005db15a572ce83838360405161208b93929190614f01565b60405180910390a1505050565b61103987878787878787612d09565b6120b13383612afc565b6120cd5760405162461bcd60e51b8152600401610e8590614d2f565b6120d984848484613733565b50505050565b6120e761292a565b600480546001600160a01b0319166001600160a01b0383169081179091556040519081527f5db758e995a17ec1ad84bdef7e8c3293a0bd6179bcce400dff5d4c3d87db726b9060200161139a565b60606000612142836118a2565b6001600160a01b031603612169576040516307ed98ed60e31b815260040160405180910390fd5b600061217483613766565b905060008151116121945760405180602001604052806000815250611ffd565b8061219e84613826565b6040516020016121af92919061512c565b6040516020818303038152906040529392505050565b6121cd61292a565b6040516332fb62e760e21b81526001600160a01b037f0000000000000000000000000000000000000000000000000000000000000000169063cbed8b9c90612221908890889088908890889060040161515b565b600060405180830381600087803b15801561223b57600080fd5b505af115801561224f573d6000803e3d6000fd5b505050505050505050565b61226261292a565b604080518082019091526015805460ff811615158084526001600160a01b039490941660209093018390526001600160a81b031916610100600160a81b031990931692909217610100909102179055565b6122bb61292a565b600081116123175760405162461bcd60e51b815260206004820152602360248201527f647374436861696e4964546f5472616e73666572476173206d7573742062652060448201526203e20360ec1b6064820152608401610e85565b61ffff82166000818152600b6020908152604091829020849055815192835282018390527fc46df2983228ac2d9754e94a0d565e6671665dc8ad38602bc8e544f0685a29fb9101611ee2565b61ffff861660009081526005602052604080822090516123869088908890614cd2565b90815260408051602092819003830190206001600160401b038716600090815292529020549050806124065760405162461bcd60e51b815260206004820152602360248201527f4e6f6e626c6f636b696e674c7a4170703a206e6f2073746f726564206d65737360448201526261676560e81b6064820152608401610e85565b808383604051612417929190614cd2565b6040518091039020146124765760405162461bcd60e51b815260206004820152602160248201527f4e6f6e626c6f636b696e674c7a4170703a20696e76616c6964207061796c6f616044820152601960fa1b6064820152608401610e85565b61ffff871660009081526005602052604080822090516124999089908990614cd2565b90815260408051602092819003830181206001600160401b038916600090815290845282902093909355601f88018290048202830182019052868252612531918991899089908190840183828082843760009201919091525050604080516020601f8a018190048102820181019092528881528a9350915088908890819084018382808284376000920191909152506132e392505050565b7fc264d91f3adc5588250e1551f547752ca0cfa8f6b530d243b9f9f4cab10ea8e58787878785604051612568959493929190615194565b60405180910390a150505050505050565b61258161292a565b61ffff83811660008181526002602090815260408083209487168084529482529182902085905581519283528201929092529081018290527f9d5c7c0b934da8fefa9c7760c98383778a12dfbfc0c3b3106518f43fb9508ac09060600161208b565b6001600160a01b03918216600090815260126020908152604080832093909416825291909152205460ff1690565b61261961292a565b61ffff83166000908152600160205260409020612637828483614e19565b507ffa41487ad5d6728f0b19276fa1eddc16558578f5109fc39d2dc33c3230470dab83838360405161208b93929190614f01565b600080600086866040516020016126839291906151cf565b60408051601f198184030181529082905263040a7bb160e41b825291506001600160a01b037f000000000000000000000000000000000000000000000000000000000000000016906340a7bb10906126e7908b90309086908b908b906004016151fd565b6040805180830381865afa158015612703573d6000803e3d6000fd5b505050506040513d601f19601f820116820180604052508101906127279190615251565b92509250509550959350505050565b61273e61292a565b6001600160a01b0381166127a35760405162461bcd60e51b815260206004820152602660248201527f4f776e61626c653a206e6577206f776e657220697320746865207a65726f206160448201526564647265737360d01b6064820152608401610e85565b6113028161343a565b604051633d7b2f6f60e21b815261ffff808616600483015284166024820152306044820152606481018290526060907f00000000000000000000000000000000000000000000000000000000000000006001600160a01b03169063f5ecbdbc90608401600060405180830381865afa15801561282c573d6000803e3d6000fd5b505050506040513d6000823e601f3d908101601f191682016040526128549190810190615275565b90505b949350505050565b6000806128c25a60966366ad5c8a60e01b8989898960405160240161288794939291906152a9565b60408051601f198184030181529190526020810180516001600160e01b03166001600160e01b031990931692909217909152309291906138b8565b91509150816119d6576119d68686868685613942565b60006001600160e01b03198216158061105c575061105c826139df565b60006001600160e01b0319821663152a902d60e11b148061105c57506301ffc9a760e01b6001600160e01b031983161461105c565b6000546001600160a01b03163314611a765760405162461bcd60e51b815260206004820181905260248201527f4f776e61626c653a2063616c6c6572206973206e6f7420746865206f776e65726044820152606401610e85565b6127106001600160601b03821611156129af5760405162461bcd60e51b8152600401610e85906152e7565b6001600160a01b038216612a055760405162461bcd60e51b815260206004820152601960248201527f455243323938313a20696e76616c6964207265636569766572000000000000006044820152606401610e85565b604080518082019091526001600160a01b039092168083526001600160601b039091166020909201829052600160a01b90910217600655565b612a4781613a1f565b6113025760405162461bcd60e51b8152602060048201526018602482015277115490cdcc8c4e881a5b9d985b1a59081d1bdad95b88125160421b6044820152606401610e85565b600081815260116020526040902080546001600160a01b0319166001600160a01b0384169081179091558190612ac3826118a2565b6001600160a01b03167f8c5be1e5ebec7d5bd14f71427d1e84f3dd0314c0f7b2291e5b200ac8c7c3b92560405160405180910390a45050565b600080612b08836118a2565b9050806001600160a01b0316846001600160a01b03161480612b2f5750612b2f81856125e3565b806128575750836001600160a01b0316612b4884611193565b6001600160a01b031614949350505050565b826001600160a01b0316612b6d826118a2565b6001600160a01b031614612b935760405162461bcd60e51b8152600401610e8590615331565b6001600160a01b038216612bf55760405162461bcd60e51b8152602060048201526024808201527f4552433732313a207472616e7366657220746f20746865207a65726f206164646044820152637265737360e01b6064820152608401610e85565b826001600160a01b0316612c08826118a2565b6001600160a01b031614612c2e5760405162461bcd60e51b8152600401610e8590615331565b600081815260116020908152604080832080546001600160a01b03199081169091556001600160a01b0387811680865260108552838620805460001901905590871680865283862080546001019055868652600f90945282852080549092168417909155905184937fddf252ad1be2c89b69c2b068fc378daa952ba7f163c4a11628f55a4df523b3ef91a4505050565b60408051600180825281830190925260609160009190602080830190803683370190505090508281600081518110612cf857612cf8614f1f565b602090810291909101015292915050565b6000845111612d505760405162461bcd60e51b8152602060048201526013602482015272746f6b656e4964735b5d20697320656d70747960681b6044820152606401610e85565b835160011480612d74575061ffff86166000908152600a6020526040902054845111155b612dcb5760405162461bcd60e51b815260206004820152602260248201527f62617463682073697a65206578636565647320647374206261746368206c696d6044820152611a5d60f21b6064820152608401610e85565b60005b8451811015612e0e57612dfc888888888581518110612def57612def614f1f565b6020026020010151613a3c565b80612e0681615376565b915050612dce565b5060008585604051602001612e249291906151cf565b6040516020818303038152906040529050612e69876001848851600b60008d61ffff1661ffff16815260200190815260200160002054612e649190614d92565b613b27565b612e77878286868634613bfc565b85604051612e85919061538f565b6040518091039020886001600160a01b03168861ffff167fe1b87c47fdeb4f9cbadbca9df3af7aba453bb6e501075d0440d88125b711522a88604051612ecb9190614864565b60405180910390a45050505050505050565b6127106001600160601b0382161115612f085760405162461bcd60e51b8152600401610e85906152e7565b6001600160a01b038216612f5e5760405162461bcd60e51b815260206004820152601b60248201527f455243323938313a20496e76616c696420706172616d657465727300000000006044820152606401610e85565b6040805180820182526001600160a01b0393841681526001600160601b0392831660208083019182526000968752600790529190942093519051909116600160a01b029116179055565b60165460009061ffff16808203612fd25760405163aeb0cc9b60e01b815260040160405180910390fd5b6000612fdd82613da1565b90506000612feb83836153ab565b9050600060178262010000811061300457613004614f1f565b601091828204019190066002029054906101000a900461ffff1661ffff169050600081600003613035575081613038565b50805b6000613045600187615034565b905080841461313c57600060178262010000811061306557613065614f1f565b601091828204019190066002029054906101000a900461ffff1661ffff169050806000036130cd57816017866201000081106130a3576130a3614f1f565b601091828204019190066002026101000a81548161ffff021916908361ffff16021790555061313a565b806017866201000081106130e3576130e3614f1f565b601091828204019190066002026101000a81548161ffff021916908361ffff16021790555060178262010000811061311d5761311d614f1f565b601091828204019190066002026101000a81549061ffff02191690555b505b601680546000906131509061ffff166153bf565b91906101000a81548161ffff021916908361ffff16021790555081965050505050505090565b6001600160a01b0382166131cc5760405162461bcd60e51b815260206004820181905260248201527f4552433732313a206d696e7420746f20746865207a65726f20616464726573736044820152606401610e85565b6131d581613a1f565b156132225760405162461bcd60e51b815260206004820152601c60248201527f4552433732313a20746f6b656e20616c7265616479206d696e746564000000006044820152606401610e85565b61322b81613a1f565b156132785760405162461bcd60e51b815260206004820152601c60248201527f4552433732313a20746f6b656e20616c7265616479206d696e746564000000006044820152606401610e85565b6001600160a01b038216600081815260106020908152604080832080546001019055848352600f90915280822080546001600160a01b0319168417905551839291907fddf252ad1be2c89b69c2b068fc378daa952ba7f163c4a11628f55a4df523b3ef908290a45050565b600080828060200190518101906132fa9190614f7a565b6014820151919350915060006133128883838661350c565b905082518110156133e65784516020808701919091206040805160808101825261ffff808d1682526001600160a01b038088168387019081528385018881526001606086018181526000898152600c909a529887902095518654935190941662010000026001600160b01b03199093169390941692909217178355519082015592516002909301805493151560ff199094169390931790925590517f10e0b70d256bccc84b7027506978bd8b68984a870788b93b479def144c839ad7906133dc90839089906153dd565b60405180910390a1505b816001600160a01b0316876040516133fe919061538f565b60405180910390208961ffff167f5b821db8a46f8ecbe1941ba2f51cfeea9643268b56631f70d45e2a745d99026586604051612ecb9190614864565b600080546001600160a01b038381166001600160a01b0319831681178455604051919092169283917f8be0079c531659141344cd1fd0a4f28419497f9722a3daafe3b4186f6b6457e09190a35050565b600881901c600090815260209290925260409091208054600160ff9093169290921b9091179055565b6002600854036135055760405162461bcd60e51b815260206004820152601f60248201527f5265656e7472616e637947756172643a207265656e7472616e742063616c6c006044820152606401610e85565b6002600855565b6000825b8251811015612854576009545a1061285457613546868685848151811061353957613539614f1f565b6020026020010151613def565b8061355081615376565b915050613510565b60608161356681601f6153f6565b10156135a55760405162461bcd60e51b815260206004820152600e60248201526d736c6963655f6f766572666c6f7760901b6044820152606401610e85565b6135af82846153f6565b845110156135f35760405162461bcd60e51b8152602060048201526011602482015270736c6963655f6f75744f66426f756e647360781b6044820152606401610e85565b606082158015613612576040519150600082526020820160405261365c565b6040519150601f8416801560200281840101858101878315602002848b0101015b8183101561364b578051835260209283019201613633565b5050858452601f01601f1916604052505b50949350505050565b816001600160a01b0316836001600160a01b0316036136c65760405162461bcd60e51b815260206004820152601960248201527f4552433732313a20617070726f766520746f2063616c6c6572000000000000006044820152606401610e85565b6001600160a01b03838116600081815260126020908152604080832094871680845294825291829020805460ff191686151590811790915591519182527f17307eab39ab6107e8899845ad3d59bd9653f200f220920489ca2b5937696c31910160405180910390a3505050565b61373e848484612b5a565b61374a84848484613e4f565b6120d95760405162461bcd60e51b8152600401610e8590615409565b600881901c60009081526110196020526040902054606090600160ff84161b1661379257611017613796565b6110185b80546137a190614c98565b80601f01602080910402602001604051908101604052809291908181526020018280546137cd90614c98565b801561381a5780601f106137ef5761010080835404028352916020019161381a565b820191906000526020600020905b8154815290600101906020018083116137fd57829003601f168201915b50505050509050919050565b6060600061383383613f4d565b60010190506000816001600160401b038111156138525761385261443d565b6040519080825280601f01601f19166020018201604052801561387c576020820181803683370190505b5090508181016020015b600019016f181899199a1a9b1b9c1cb0b131b232b360811b600a86061a8153600a850494508461388657509392505050565b6000606060008060008661ffff166001600160401b038111156138dd576138dd61443d565b6040519080825280601f01601f191660200182016040528015613907576020820181803683370190505b50905060008087516020890160008d8df191503d925086831115613929578692505b828152826000602083013e909890975095505050505050565b8180519060200120600560008761ffff1661ffff16815260200190815260200160002085604051613973919061538f565b9081526040805191829003602090810183206001600160401b0388166000908152915220919091557fe183f33de2837795525b4792ca4cd60535bd77c53b7e7030060bfcf5734d6b0c906139d0908790879087908790879061545b565b60405180910390a15050505050565b60006001600160e01b031982166380ac58cd60e01b1480613a1057506001600160e01b03198216635b5e139f60e01b145b8061105c575061105c82614025565b6000908152600f60205260409020546001600160a01b0316151590565b613a4533611421565b613aa85760405162461bcd60e51b815260206004820152602e60248201527f4f4e46543732313a2073656e642063616c6c6572206973206e6f74206f776e6560448201526d1c881b9bdc88185c1c1c9bdd995960921b6064820152608401610e85565b836001600160a01b0316613abb826118a2565b6001600160a01b031614613b1c5760405162461bcd60e51b815260206004820152602260248201527f4f4e46543732313a2073656e642066726f6d20696e636f7272656374206f776e60448201526132b960f11b6064820152608401610e85565b6120d9843083612b5a565b6000613b328361404a565b61ffff80871660009081526002602090815260408083209389168352929052205490915080613ba35760405162461bcd60e51b815260206004820152601a60248201527f4c7a4170703a206d696e4761734c696d6974206e6f74207365740000000000006044820152606401610e85565b613bad83826153f6565b8210156119d65760405162461bcd60e51b815260206004820152601b60248201527f4c7a4170703a20676173206c696d697420697320746f6f206c6f7700000000006044820152606401610e85565b61ffff861660009081526001602052604081208054613c1a90614c98565b80601f0160208091040260200160405190810160405280929190818152602001828054613c4690614c98565b8015613c935780601f10613c6857610100808354040283529160200191613c93565b820191906000526020600020905b815481529060010190602001808311613c7657829003601f168201915b505050505090508051600003613d045760405162461bcd60e51b815260206004820152603060248201527f4c7a4170703a2064657374696e6174696f6e20636861696e206973206e6f742060448201526f61207472757374656420736f7572636560801b6064820152608401610e85565b613d0f8787516140a6565b60405162c5803160e81b81526001600160a01b037f0000000000000000000000000000000000000000000000000000000000000000169063c5803100908490613d66908b9086908c908c908c908c906004016154ad565b6000604051808303818588803b158015613d7f57600080fd5b505af1158015613d93573d6000803e3d6000fd5b505050505050505050505050565b600044613daf600143615034565b6040805160208101939093529040908201523060608201526080810183905260a00160408051601f19818403018152919052805160209091012092915050565b613df881613a1f565b1580613e245750613e0881613a1f565b8015613e24575030613e19826118a2565b6001600160a01b0316145b613e2d57600080fd5b613e3681613a1f565b613e44576112ca8282614117565b6112ca308383612b5a565b60006001600160a01b0384163b15613f4557604051630a85bd0160e11b81526001600160a01b0385169063150b7a0290613e93903390899088908890600401615514565b6020604051808303816000875af1925050508015613ece575060408051601f3d908101601f19168201909252613ecb91810190615551565b60015b613f2b573d808015613efc576040519150601f19603f3d011682016040523d82523d6000602084013e613f01565b606091505b508051600003613f235760405162461bcd60e51b8152600401610e8590615409565b805181602001fd5b6001600160e01b031916630a85bd0160e11b149050612857565b506001612857565b60008072184f03e93ff9f4daa797ed6e38ed64bf6a1f0160401b8310613f8c5772184f03e93ff9f4daa797ed6e38ed64bf6a1f0160401b830492506040015b6d04ee2d6d415b85acef81000000008310613fb8576d04ee2d6d415b85acef8100000000830492506020015b662386f26fc100008310613fd657662386f26fc10000830492506010015b6305f5e1008310613fee576305f5e100830492506008015b612710831061400257612710830492506004015b60648310614014576064830492506002015b600a831061105c5760010192915050565b60006001600160e01b031982166322bac5d960e01b148061105c575061105c826128f5565b600060228251101561409e5760405162461bcd60e51b815260206004820152601c60248201527f4c7a4170703a20696e76616c69642061646170746572506172616d73000000006044820152606401610e85565b506022015190565b61ffff8216600090815260036020526040812054908190036140c757506127105b808211156112ca5760405162461bcd60e51b815260206004820181905260248201527f4c7a4170703a207061796c6f61642073697a6520697320746f6f206c617267656044820152606401610e85565b6110748282604051806020016040528060008152506141368383613176565b6141436000848484613e4f565b6112ca5760405162461bcd60e51b8152600401610e8590615409565b803561ffff8116811461417157600080fd5b919050565b60008083601f84011261418857600080fd5b5081356001600160401b0381111561419f57600080fd5b60208301915083602082850101111561151b57600080fd5b80356001600160401b038116811461417157600080fd5b600080600080600080608087890312156141e757600080fd5b6141f08761415f565b955060208701356001600160401b038082111561420c57600080fd5b6142188a838b01614176565b909750955085915061422c60408a016141b7565b9450606089013591508082111561424257600080fd5b5061424f89828a01614176565b979a9699509497509295939492505050565b6001600160e01b03198116811461130257600080fd5b60006020828403121561428957600080fd5b8135611ffd81614261565b6001600160a01b038116811461130257600080fd5b803561417181614294565b80356001600160601b038116811461417157600080fd5b600080604083850312156142de57600080fd5b82356142e981614294565b91506142f7602084016142b4565b90509250929050565b60005b8381101561431b578181015183820152602001614303565b50506000910152565b6000815180845261433c816020860160208601614300565b601f01601f19169290920160200192915050565b602081526000611ffd6020830184614324565b60006020828403121561437557600080fd5b611ffd8261415f565b60006020828403121561439057600080fd5b5035919050565b600080604083850312156143aa57600080fd5b82356143b581614294565b946020939093013593505050565b6000602082840312156143d557600080fd5b8135611ffd81614294565b600080604083850312156143f357600080fd5b6143b58361415f565b60008060006060848603121561441157600080fd5b833561441c81614294565b9250602084013561442c81614294565b929592945050506040919091013590565b634e487b7160e01b600052604160045260246000fd5b604051601f8201601f191681016001600160401b038111828210171561447b5761447b61443d565b604052919050565b60006001600160401b0382111561449c5761449c61443d565b50601f01601f191660200190565b600082601f8301126144bb57600080fd5b81356144ce6144c982614483565b614453565b8181528460208386010111156144e357600080fd5b816020850160208301376000918101602001919091529392505050565b8035801515811461417157600080fd5b600080600080600060a0868803121561452857600080fd5b6145318661415f565b945060208601356001600160401b038082111561454d57600080fd5b61455989838a016144aa565b95506040880135945061456e60608901614500565b9350608088013591508082111561458457600080fd5b50614591888289016144aa565b9150509295509295909350565b600080604083850312156145b157600080fd5b50508035926020909101359150565b600080602083850312156145d357600080fd5b82356001600160401b038111156145e957600080fd5b6145f585828601614176565b90969095509350505050565b60008060006040848603121561461657600080fd5b61461f8461415f565b925060208401356001600160401b0381111561463a57600080fd5b61464686828701614176565b9497909650939450505050565b600080600080600080600060e0888a03121561466e57600080fd5b873561467981614294565b96506146876020890161415f565b955060408801356001600160401b03808211156146a357600080fd5b6146af8b838c016144aa565b965060608a0135955060808a013591506146c882614294565b90935060a0890135906146da82614294565b90925060c089013590808211156146f057600080fd5b506146fd8a828b016144aa565b91505092959891949750929550565b60008060006060848603121561472157600080fd5b83359250602084013561473381614294565b9150614741604085016142b4565b90509250925092565b60008060006060848603121561475f57600080fd5b6147688461415f565b925060208401356001600160401b0381111561478357600080fd5b61478f868287016144aa565b925050614741604085016141b7565b60008083601f8401126147b057600080fd5b5081356001600160401b038111156147c757600080fd5b6020830191508360208260051b850101111561151b57600080fd5b6000806000604084860312156147f757600080fd5b833561480281614294565b925060208401356001600160401b0381111561481d57600080fd5b6146468682870161479e565b600081518084526020808501945080840160005b838110156148595781518752958201959082019060010161483d565b509495945050505050565b602081526000611ffd6020830184614829565b60006020828403121561488957600080fd5b611ffd82614500565b600080604083850312156148a557600080fd5b6148ae8361415f565b91506142f76020840161415f565b600080602083850312156148cf57600080fd5b82356001600160401b038111156148e557600080fd5b6145f58582860161479e565b60006020828403121561490357600080fd5b81356001600160401b0381111561491957600080fd5b612857848285016144aa565b6000806040838503121561493857600080fd5b823561494381614294565b91506142f760208401614500565b60006001600160401b0382111561496a5761496a61443d565b5060051b60200190565b600082601f83011261498557600080fd5b813560206149956144c983614951565b82815260059290921b840181019181810190868411156149b457600080fd5b8286015b8481101561189757803583529183019183016149b8565b600080600080600080600060e0888a0312156149ea57600080fd5b87356149f581614294565b9650614a036020890161415f565b955060408801356001600160401b0380821115614a1f57600080fd5b614a2b8b838c016144aa565b965060608a0135915080821115614a4157600080fd5b614a4d8b838c01614974565b955060808a01359150614a5f82614294565b819450614a6e60a08b016142a9565b935060c08a01359150808211156146f057600080fd5b60008060008060808587031215614a9a57600080fd5b8435614aa581614294565b93506020850135614ab581614294565b92506040850135915060608501356001600160401b03811115614ad757600080fd5b614ae3878288016144aa565b91505092959194509250565b600080600080600060808688031215614b0757600080fd5b614b108661415f565b9450614b1e6020870161415f565b93506040860135925060608601356001600160401b03811115614b4057600080fd5b614b4c88828901614176565b969995985093965092949392505050565b600080600060608486031215614b7257600080fd5b614b7b8461415f565b9250614b896020850161415f565b9150604084013590509250925092565b60008060408385031215614bac57600080fd5b8235614bb781614294565b91506020830135614bc781614294565b809150509250929050565b600080600080600060a08688031215614bea57600080fd5b614bf38661415f565b945060208601356001600160401b0380821115614c0f57600080fd5b614c1b89838a016144aa565b95506040880135915080821115614c3157600080fd5b614c3d89838a01614974565b945061456e60608901614500565b60008060008060808587031215614c6157600080fd5b614c6a8561415f565b9350614c786020860161415f565b92506040850135614c8881614294565b9396929550929360600135925050565b600181811c90821680614cac57607f821691505b602082108103614ccc57634e487b7160e01b600052602260045260246000fd5b50919050565b8183823760009101908152919050565b6020808252602d908201527f4d756c74697369674f776e61626c653a2063616c6c6572206973206e6f74207460408201526c3432903932b0b61037bbb732b960991b606082015260800190565b6020808252602d908201527f4552433732313a2063616c6c6572206973206e6f7420746f6b656e206f776e6560408201526c1c881bdc88185c1c1c9bdd9959609a1b606082015260800190565b634e487b7160e01b600052601160045260246000fd5b808202811582820484141761105c5761105c614d7c565b634e487b7160e01b600052601260045260246000fd5b600082614dce57614dce614da9565b500490565b601f8211156112ca57600081815260208120601f850160051c81016020861015614dfa5750805b601f850160051c820191505b818110156119d657828155600101614e06565b6001600160401b03831115614e3057614e3061443d565b614e4483614e3e8354614c98565b83614dd3565b6000601f841160018114614e785760008515614e605750838201355b600019600387901b1c1916600186901b17835561118c565b600083815260209020601f19861690835b82811015614ea95786850135825560209485019460019092019101614e89565b5086821015614ec65760001960f88860031b161c19848701351681555b505060018560011b0183555050505050565b81835281816020850137506000828201602090810191909152601f909101601f19169091010190565b61ffff84168152604060208201526000612854604083018486614ed8565b634e487b7160e01b600052603260045260246000fd5b600082601f830112614f4657600080fd5b8151614f546144c982614483565b818152846020838601011115614f6957600080fd5b612857826020830160208701614300565b60008060408385031215614f8d57600080fd5b82516001600160401b0380821115614fa457600080fd5b614fb086838701614f35565b9350602091508185015181811115614fc757600080fd5b85019050601f81018613614fda57600080fd5b8051614fe86144c982614951565b81815260059190911b8201830190838101908883111561500757600080fd5b928401925b828410156150255783518252928401929084019061500c565b80955050505050509250929050565b8181038181111561105c5761105c614d7c565b8284823760609190911b6bffffffffffffffffffffffff19169101908152601401919050565b81516001600160401b038111156150865761508661443d565b61509a816150948454614c98565b84614dd3565b602080601f8311600181146150cf57600084156150b75750858301515b600019600386901b1c1916600185901b1785556119d6565b600085815260208120601f198616915b828110156150fe578886015182559484019460019091019084016150df565b508582101561511c5787850151600019600388901b60f8161c191681555b5050505050600190811b01905550565b6000835161513e818460208801614300565b835190830190615152818360208801614300565b01949350505050565b600061ffff808816835280871660208401525084604083015260806060830152615189608083018486614ed8565b979650505050505050565b61ffff861681526080602082015260006151b2608083018688614ed8565b6001600160401b0394909416604083015250606001529392505050565b6040815260006151e26040830185614324565b82810360208401526151f48185614829565b95945050505050565b61ffff861681526001600160a01b038516602082015260a06040820181905260009061522b90830186614324565b841515606084015282810360808401526152458185614324565b98975050505050505050565b6000806040838503121561526457600080fd5b505080516020909101519092909150565b60006020828403121561528757600080fd5b81516001600160401b0381111561529d57600080fd5b61285784828501614f35565b61ffff851681526080602082015260006152c66080830186614324565b6001600160401b038516604084015282810360608401526151898185614324565b6020808252602a908201527f455243323938313a20726f79616c7479206665652077696c6c206578636565646040820152692073616c65507269636560b01b606082015260800190565b60208082526025908201527f4552433732313a207472616e736665722066726f6d20696e636f72726563742060408201526437bbb732b960d91b606082015260800190565b60006001820161538857615388614d7c565b5060010190565b600082516153a1818460208701614300565b9190910192915050565b6000826153ba576153ba614da9565b500690565b600061ffff8216806153d3576153d3614d7c565b6000190192915050565b8281526040602082015260006128576040830184614324565b8082018082111561105c5761105c614d7c565b60208082526032908201527f4552433732313a207472616e7366657220746f206e6f6e20455243373231526560408201527131b2b4bb32b91034b6b83632b6b2b73a32b960711b606082015260800190565b61ffff8616815260a06020820152600061547860a0830187614324565b6001600160401b038616604084015282810360608401526154998186614324565b905082810360808401526152458185614324565b61ffff8716815260c0602082015260006154ca60c0830188614324565b82810360408401526154dc8188614324565b6001600160a01b0387811660608601528616608085015283810360a085015290506155078185614324565b9998505050505050505050565b6001600160a01b038581168252841660208201526040810183905260806060820181905260009061554790830184614324565b9695505050505050565b60006020828403121561556357600080fd5b8151611ffd8161426156fea2646970667358221220eecb7235e316d477e46c4c23d3276e13ac855aed45f16158443d012834e245a364736f6c63430008120033",
  "devdoc": {
    "events": {
      "Approval(address,address,uint256)": {
        "details": "Emitted when `owner` enables `approved` to manage the `tokenId` token."
      },
      "ApprovalForAll(address,address,bool)": {
        "details": "Emitted when `owner` enables or disables (`approved`) `operator` to manage all of its assets."
      },
      "CreditCleared(bytes32)": {
        "details": "Emitted when `_hashedPayload` has been completely delivered"
      },
      "CreditStored(bytes32,bytes)": {
        "details": "Emitted when `_payload` was received from lz, but not enough gas to deliver all tokenIds"
      },
      "SendToChain(uint16,address,bytes,uint256[])": {
        "details": "Emitted when `_tokenIds[]` are moved from the `_sender` to (`_dstChainId`, `_toAddress`) `_nonce` is the outbound nonce from"
      },
      "Transfer(address,address,uint256)": {
        "details": "Emitted when `tokenId` token is transferred from `from` to `to`."
      }
    },
    "kind": "dev",
    "methods": {
      "approve(address,uint256)": {
        "details": "See {IERC721-approve}."
      },
      "balanceOf(address)": {
        "details": "See {IERC721-balanceOf}."
      },
      "estimateSendBatchFee(uint16,bytes,uint256[],bool,bytes)": {
        "details": "estimate send token `_tokenId` to (`_dstChainId`, `_toAddress`) _dstChainId - L0 defined chain id to send tokens too _toAddress - dynamic bytes array which contains the address to whom you are sending tokens to on the dstChain _tokenIds[] - token Ids to transfer _useZro - indicates to use zro to pay L0 fees _adapterParams - flexible bytes array to indicate messaging adapter services in L0"
      },
      "estimateSendFee(uint16,bytes,uint256,bool,bytes)": {
        "details": "estimate send token `_tokenId` to (`_dstChainId`, `_toAddress`) _dstChainId - L0 defined chain id to send tokens too _toAddress - dynamic bytes array which contains the address to whom you are sending tokens to on the dstChain _tokenId - token Id to transfer _useZro - indicates to use zro to pay L0 fees _adapterParams - flexible bytes array to indicate messaging adapter services in L0"
      },
      "getApproved(uint256)": {
        "details": "See {IERC721-getApproved}."
      },
      "isApprovedForAll(address,address)": {
        "details": "See {IERC721-isApprovedForAll}."
      },
      "name()": {
        "details": "See {IERC721Metadata-name}."
      },
      "owner()": {
        "details": "Returns the address of the current owner."
      },
      "ownerOf(uint256)": {
        "details": "See {IERC721-ownerOf}."
      },
      "renounceOwnership()": {
        "details": "Leaves the contract without owner. It will not be possible to call `onlyOwner` functions. Can only be called by the current owner. NOTE: Renouncing ownership will leave the contract without an owner, thereby disabling any functionality that is only available to the owner."
      },
      "royaltyInfo(uint256,uint256)": {
        "details": "Returns how much royalty is owed and to whom, based on a sale price that may be denominated in any unit of exchange. The royalty amount is denominated and should be paid in that same unit of exchange."
      },
      "safeTransferFrom(address,address,uint256)": {
        "details": "See {IERC721-safeTransferFrom}."
      },
      "safeTransferFrom(address,address,uint256,bytes)": {
        "details": "See {IERC721-safeTransferFrom}."
      },
      "sendBatchFrom(address,uint16,bytes,uint256[],address,address,bytes)": {
        "details": "send tokens `_tokenIds[]` to (`_dstChainId`, `_toAddress`) from `_from` `_toAddress` can be any size depending on the `dstChainId`. `_zroPaymentAddress` set to address(0x0) if not paying in ZRO (LayerZero Token) `_adapterParams` is a flexible bytes array to indicate messaging adapter services"
      },
      "sendFrom(address,uint16,bytes,uint256,address,address,bytes)": {
        "details": "send token `_tokenId` to (`_dstChainId`, `_toAddress`) from `_from` `_toAddress` can be any size depending on the `dstChainId`. `_zroPaymentAddress` set to address(0x0) if not paying in ZRO (LayerZero Token) `_adapterParams` is a flexible bytes array to indicate messaging adapter services"
      },
      "setApprovalForAll(address,bool)": {
        "details": "See {IERC721-setApprovalForAll}."
      },
      "symbol()": {
        "details": "See {IERC721Metadata-symbol}."
      },
      "tokenURI(uint256)": {
        "details": "See {IERC721Metadata-tokenURI}."
      },
      "transferFrom(address,address,uint256)": {
        "details": "See {IERC721-transferFrom}."
      },
      "transferOwnership(address)": {
        "details": "Transfers ownership of the contract to a new account (`newOwner`). Can only be called by the current owner."
      }
    },
    "version": 1
  },
  "userdoc": {
    "kind": "user",
    "methods": {},
    "version": 1
  },
  "storageLayout": {
    "storage": [
      {
        "astId": 2505,
        "contract": "contracts/SKB/SpheraHead.sol:SpheraHead",
        "label": "_owner",
        "offset": 0,
        "slot": "0",
        "type": "t_address"
      },
      {
        "astId": 455,
        "contract": "contracts/SKB/SpheraHead.sol:SpheraHead",
        "label": "trustedRemoteLookup",
        "offset": 0,
        "slot": "1",
        "type": "t_mapping(t_uint16,t_bytes_storage)"
      },
      {
        "astId": 461,
        "contract": "contracts/SKB/SpheraHead.sol:SpheraHead",
        "label": "minDstGasLookup",
        "offset": 0,
        "slot": "2",
        "type": "t_mapping(t_uint16,t_mapping(t_uint16,t_uint256))"
      },
      {
        "astId": 465,
        "contract": "contracts/SKB/SpheraHead.sol:SpheraHead",
        "label": "payloadSizeLimitLookup",
        "offset": 0,
        "slot": "3",
        "type": "t_mapping(t_uint16,t_uint256)"
      },
      {
        "astId": 467,
        "contract": "contracts/SKB/SpheraHead.sol:SpheraHead",
        "label": "precrime",
        "offset": 0,
        "slot": "4",
        "type": "t_address"
      },
      {
        "astId": 997,
        "contract": "contracts/SKB/SpheraHead.sol:SpheraHead",
        "label": "failedMessages",
        "offset": 0,
        "slot": "5",
        "type": "t_mapping(t_uint16,t_mapping(t_bytes_memory_ptr,t_mapping(t_uint64,t_bytes32)))"
      },
      {
        "astId": 3799,
        "contract": "contracts/SKB/SpheraHead.sol:SpheraHead",
        "label": "_defaultRoyaltyInfo",
        "offset": 0,
        "slot": "6",
        "type": "t_struct(RoyaltyInfo)3796_storage"
      },
      {
        "astId": 3804,
        "contract": "contracts/SKB/SpheraHead.sol:SpheraHead",
        "label": "_tokenRoyaltyInfo",
        "offset": 0,
        "slot": "7",
        "type": "t_mapping(t_uint256,t_struct(RoyaltyInfo)3796_storage)"
      },
      {
        "astId": 2640,
        "contract": "contracts/SKB/SpheraHead.sol:SpheraHead",
        "label": "_status",
        "offset": 0,
        "slot": "8",
        "type": "t_uint256"
      },
      {
        "astId": 1718,
        "contract": "contracts/SKB/SpheraHead.sol:SpheraHead",
        "label": "minGasToTransferAndStore",
        "offset": 0,
        "slot": "9",
        "type": "t_uint256"
      },
      {
        "astId": 1722,
        "contract": "contracts/SKB/SpheraHead.sol:SpheraHead",
        "label": "dstChainIdToBatchLimit",
        "offset": 0,
        "slot": "10",
        "type": "t_mapping(t_uint16,t_uint256)"
      },
      {
        "astId": 1726,
        "contract": "contracts/SKB/SpheraHead.sol:SpheraHead",
        "label": "dstChainIdToTransferGas",
        "offset": 0,
        "slot": "11",
        "type": "t_mapping(t_uint16,t_uint256)"
      },
      {
        "astId": 1731,
        "contract": "contracts/SKB/SpheraHead.sol:SpheraHead",
        "label": "storedCredits",
        "offset": 0,
        "slot": "12",
        "type": "t_mapping(t_bytes32,t_struct(StoredCredit)1716_storage)"
      },
      {
        "astId": 2720,
        "contract": "contracts/SKB/SpheraHead.sol:SpheraHead",
        "label": "_name",
        "offset": 0,
        "slot": "13",
        "type": "t_string_storage"
      },
      {
        "astId": 2722,
        "contract": "contracts/SKB/SpheraHead.sol:SpheraHead",
        "label": "_symbol",
        "offset": 0,
        "slot": "14",
        "type": "t_string_storage"
      },
      {
        "astId": 2726,
        "contract": "contracts/SKB/SpheraHead.sol:SpheraHead",
        "label": "_owners",
        "offset": 0,
        "slot": "15",
        "type": "t_mapping(t_uint256,t_address)"
      },
      {
        "astId": 2730,
        "contract": "contracts/SKB/SpheraHead.sol:SpheraHead",
        "label": "_balances",
        "offset": 0,
        "slot": "16",
        "type": "t_mapping(t_address,t_uint256)"
      },
      {
        "astId": 2734,
        "contract": "contracts/SKB/SpheraHead.sol:SpheraHead",
        "label": "_tokenApprovals",
        "offset": 0,
        "slot": "17",
        "type": "t_mapping(t_uint256,t_address)"
      },
      {
        "astId": 2740,
        "contract": "contracts/SKB/SpheraHead.sol:SpheraHead",
        "label": "_operatorApprovals",
        "offset": 0,
        "slot": "18",
        "type": "t_mapping(t_address,t_mapping(t_address,t_bool))"
      },
      {
        "astId": 10549,
        "contract": "contracts/SKB/SpheraHead.sol:SpheraHead",
        "label": "realOwner",
        "offset": 0,
        "slot": "19",
        "type": "t_address"
      },
      {
        "astId": 10653,
        "contract": "contracts/SKB/SpheraHead.sol:SpheraHead",
        "label": "operatorFilteringEnabled",
        "offset": 20,
        "slot": "19",
        "type": "t_bool"
      },
      {
        "astId": 10656,
        "contract": "contracts/SKB/SpheraHead.sol:SpheraHead",
        "label": "isRegistryActive",
        "offset": 21,
        "slot": "19",
        "type": "t_bool"
      },
      {
        "astId": 10658,
        "contract": "contracts/SKB/SpheraHead.sol:SpheraHead",
        "label": "registryAddress",
        "offset": 0,
        "slot": "20",
        "type": "t_address"
      },
      {
        "astId": 10666,
        "contract": "contracts/SKB/SpheraHead.sol:SpheraHead",
        "label": "redeemInfo",
        "offset": 0,
        "slot": "21",
        "type": "t_struct(RedeemInfo)10663_storage"
      },
      {
        "astId": 10670,
        "contract": "contracts/SKB/SpheraHead.sol:SpheraHead",
        "label": "_numAvailableRemainingTokens",
        "offset": 0,
        "slot": "22",
        "type": "t_uint16"
      },
      {
        "astId": 10674,
        "contract": "contracts/SKB/SpheraHead.sol:SpheraHead",
        "label": "_availableRemainingTokens",
        "offset": 0,
        "slot": "23",
        "type": "t_array(t_uint16)65536_storage"
      },
      {
        "astId": 11044,
        "contract": "contracts/SKB/SpheraHead.sol:SpheraHead",
        "label": "_baseTokenURI",
        "offset": 0,
        "slot": "4119",
        "type": "t_string_storage"
      },
      {
        "astId": 11046,
        "contract": "contracts/SKB/SpheraHead.sol:SpheraHead",
        "label": "_baseTokenURIPermanent",
        "offset": 0,
        "slot": "4120",
        "type": "t_string_storage"
      },
      {
        "astId": 11049,
        "contract": "contracts/SKB/SpheraHead.sol:SpheraHead",
        "label": "_isUriPermanentForToken",
        "offset": 0,
        "slot": "4121",
        "type": "t_struct(BitMap)6478_storage"
      }
    ],
    "types": {
      "t_address": {
        "encoding": "inplace",
        "label": "address",
        "numberOfBytes": "20"
      },
      "t_array(t_uint16)65536_storage": {
        "base": "t_uint16",
        "encoding": "inplace",
        "label": "uint16[65536]",
        "numberOfBytes": "131072"
      },
      "t_bool": {
        "encoding": "inplace",
        "label": "bool",
        "numberOfBytes": "1"
      },
      "t_bytes32": {
        "encoding": "inplace",
        "label": "bytes32",
        "numberOfBytes": "32"
      },
      "t_bytes_memory_ptr": {
        "encoding": "bytes",
        "label": "bytes",
        "numberOfBytes": "32"
      },
      "t_bytes_storage": {
        "encoding": "bytes",
        "label": "bytes",
        "numberOfBytes": "32"
      },
      "t_mapping(t_address,t_bool)": {
        "encoding": "mapping",
        "key": "t_address",
        "label": "mapping(address => bool)",
        "numberOfBytes": "32",
        "value": "t_bool"
      },
      "t_mapping(t_address,t_mapping(t_address,t_bool))": {
        "encoding": "mapping",
        "key": "t_address",
        "label": "mapping(address => mapping(address => bool))",
        "numberOfBytes": "32",
        "value": "t_mapping(t_address,t_bool)"
      },
      "t_mapping(t_address,t_uint256)": {
        "encoding": "mapping",
        "key": "t_address",
        "label": "mapping(address => uint256)",
        "numberOfBytes": "32",
        "value": "t_uint256"
      },
      "t_mapping(t_bytes32,t_struct(StoredCredit)1716_storage)": {
        "encoding": "mapping",
        "key": "t_bytes32",
        "label": "mapping(bytes32 => struct ONFT721Core.StoredCredit)",
        "numberOfBytes": "32",
        "value": "t_struct(StoredCredit)1716_storage"
      },
      "t_mapping(t_bytes_memory_ptr,t_mapping(t_uint64,t_bytes32))": {
        "encoding": "mapping",
        "key": "t_bytes_memory_ptr",
        "label": "mapping(bytes => mapping(uint64 => bytes32))",
        "numberOfBytes": "32",
        "value": "t_mapping(t_uint64,t_bytes32)"
      },
      "t_mapping(t_uint16,t_bytes_storage)": {
        "encoding": "mapping",
        "key": "t_uint16",
        "label": "mapping(uint16 => bytes)",
        "numberOfBytes": "32",
        "value": "t_bytes_storage"
      },
      "t_mapping(t_uint16,t_mapping(t_bytes_memory_ptr,t_mapping(t_uint64,t_bytes32)))": {
        "encoding": "mapping",
        "key": "t_uint16",
        "label": "mapping(uint16 => mapping(bytes => mapping(uint64 => bytes32)))",
        "numberOfBytes": "32",
        "value": "t_mapping(t_bytes_memory_ptr,t_mapping(t_uint64,t_bytes32))"
      },
      "t_mapping(t_uint16,t_mapping(t_uint16,t_uint256))": {
        "encoding": "mapping",
        "key": "t_uint16",
        "label": "mapping(uint16 => mapping(uint16 => uint256))",
        "numberOfBytes": "32",
        "value": "t_mapping(t_uint16,t_uint256)"
      },
      "t_mapping(t_uint16,t_uint256)": {
        "encoding": "mapping",
        "key": "t_uint16",
        "label": "mapping(uint16 => uint256)",
        "numberOfBytes": "32",
        "value": "t_uint256"
      },
      "t_mapping(t_uint256,t_address)": {
        "encoding": "mapping",
        "key": "t_uint256",
        "label": "mapping(uint256 => address)",
        "numberOfBytes": "32",
        "value": "t_address"
      },
      "t_mapping(t_uint256,t_struct(RoyaltyInfo)3796_storage)": {
        "encoding": "mapping",
        "key": "t_uint256",
        "label": "mapping(uint256 => struct ERC2981.RoyaltyInfo)",
        "numberOfBytes": "32",
        "value": "t_struct(RoyaltyInfo)3796_storage"
      },
      "t_mapping(t_uint256,t_uint256)": {
        "encoding": "mapping",
        "key": "t_uint256",
        "label": "mapping(uint256 => uint256)",
        "numberOfBytes": "32",
        "value": "t_uint256"
      },
      "t_mapping(t_uint64,t_bytes32)": {
        "encoding": "mapping",
        "key": "t_uint64",
        "label": "mapping(uint64 => bytes32)",
        "numberOfBytes": "32",
        "value": "t_bytes32"
      },
      "t_string_storage": {
        "encoding": "bytes",
        "label": "string",
        "numberOfBytes": "32"
      },
      "t_struct(BitMap)6478_storage": {
        "encoding": "inplace",
        "label": "struct BitMaps.BitMap",
        "members": [
          {
            "astId": 6477,
            "contract": "contracts/SKB/SpheraHead.sol:SpheraHead",
            "label": "_data",
            "offset": 0,
            "slot": "0",
            "type": "t_mapping(t_uint256,t_uint256)"
          }
        ],
        "numberOfBytes": "32"
      },
      "t_struct(RedeemInfo)10663_storage": {
        "encoding": "inplace",
        "label": "struct SpheraHead.RedeemInfo",
        "members": [
          {
            "astId": 10660,
            "contract": "contracts/SKB/SpheraHead.sol:SpheraHead",
            "label": "redeemBagOpen",
            "offset": 0,
            "slot": "0",
            "type": "t_bool"
          },
          {
            "astId": 10662,
            "contract": "contracts/SKB/SpheraHead.sol:SpheraHead",
            "label": "bagAddress",
            "offset": 1,
            "slot": "0",
            "type": "t_address"
          }
        ],
        "numberOfBytes": "32"
      },
      "t_struct(RoyaltyInfo)3796_storage": {
        "encoding": "inplace",
        "label": "struct ERC2981.RoyaltyInfo",
        "members": [
          {
            "astId": 3793,
            "contract": "contracts/SKB/SpheraHead.sol:SpheraHead",
            "label": "receiver",
            "offset": 0,
            "slot": "0",
            "type": "t_address"
          },
          {
            "astId": 3795,
            "contract": "contracts/SKB/SpheraHead.sol:SpheraHead",
            "label": "royaltyFraction",
            "offset": 20,
            "slot": "0",
            "type": "t_uint96"
          }
        ],
        "numberOfBytes": "32"
      },
      "t_struct(StoredCredit)1716_storage": {
        "encoding": "inplace",
        "label": "struct ONFT721Core.StoredCredit",
        "members": [
          {
            "astId": 1709,
            "contract": "contracts/SKB/SpheraHead.sol:SpheraHead",
            "label": "srcChainId",
            "offset": 0,
            "slot": "0",
            "type": "t_uint16"
          },
          {
            "astId": 1711,
            "contract": "contracts/SKB/SpheraHead.sol:SpheraHead",
            "label": "toAddress",
            "offset": 2,
            "slot": "0",
            "type": "t_address"
          },
          {
            "astId": 1713,
            "contract": "contracts/SKB/SpheraHead.sol:SpheraHead",
            "label": "index",
            "offset": 0,
            "slot": "1",
            "type": "t_uint256"
          },
          {
            "astId": 1715,
            "contract": "contracts/SKB/SpheraHead.sol:SpheraHead",
            "label": "creditsRemain",
            "offset": 0,
            "slot": "2",
            "type": "t_bool"
          }
        ],
        "numberOfBytes": "96"
      },
      "t_uint16": {
        "encoding": "inplace",
        "label": "uint16",
        "numberOfBytes": "2"
      },
      "t_uint256": {
        "encoding": "inplace",
        "label": "uint256",
        "numberOfBytes": "32"
      },
      "t_uint64": {
        "encoding": "inplace",
        "label": "uint64",
        "numberOfBytes": "8"
      },
      "t_uint96": {
        "encoding": "inplace",
        "label": "uint96",
        "numberOfBytes": "12"
      }
    }
  }
}