{
  "address": "0x611747CC4576aAb44f602a65dF3557150C214493",
  "abi": [
    {
      "inputs": [
        {
          "internalType": "string",
          "name": "baseURI",
          "type": "string"
        },
        {
          "internalType": "string",
          "name": "_name",
          "type": "string"
        },
        {
          "internalType": "string",
          "name": "_symbol",
          "type": "string"
        },
        {
          "internalType": "uint256",
          "name": "_minGasToTransfer",
          "type": "uint256"
        },
        {
          "internalType": "address",
          "name": "_lzEndpoint",
          "type": "address"
        }
      ],
      "stateMutability": "nonpayable",
      "type": "constructor"
    },
    {
      "anonymous": false,
      "inputs": [
        {
          "indexed": true,
          "internalType": "address",
          "name": "owner",
          "type": "address"
        },
        {
          "indexed": true,
          "internalType": "address",
          "name": "approved",
          "type": "address"
        },
        {
          "indexed": true,
          "internalType": "uint256",
          "name": "tokenId",
          "type": "uint256"
        }
      ],
      "name": "Approval",
      "type": "event"
    },
    {
      "anonymous": false,
      "inputs": [
        {
          "indexed": true,
          "internalType": "address",
          "name": "owner",
          "type": "address"
        },
        {
          "indexed": true,
          "internalType": "address",
          "name": "operator",
          "type": "address"
        },
        {
          "indexed": false,
          "internalType": "bool",
          "name": "approved",
          "type": "bool"
        }
      ],
      "name": "ApprovalForAll",
      "type": "event"
    },
    {
      "anonymous": false,
      "inputs": [
        {
          "indexed": false,
          "internalType": "bytes32",
          "name": "_hashedPayload",
          "type": "bytes32"
        }
      ],
      "name": "CreditCleared",
      "type": "event"
    },
    {
      "anonymous": false,
      "inputs": [
        {
          "indexed": false,
          "internalType": "bytes32",
          "name": "_hashedPayload",
          "type": "bytes32"
        },
        {
          "indexed": false,
          "internalType": "bytes",
          "name": "_payload",
          "type": "bytes"
        }
      ],
      "name": "CreditStored",
      "type": "event"
    },
    {
      "anonymous": false,
      "inputs": [
        {
          "indexed": false,
          "internalType": "uint16",
          "name": "_srcChainId",
          "type": "uint16"
        },
        {
          "indexed": false,
          "internalType": "bytes",
          "name": "_srcAddress",
          "type": "bytes"
        },
        {
          "indexed": false,
          "internalType": "uint64",
          "name": "_nonce",
          "type": "uint64"
        },
        {
          "indexed": false,
          "internalType": "bytes",
          "name": "_payload",
          "type": "bytes"
        },
        {
          "indexed": false,
          "internalType": "bytes",
          "name": "_reason",
          "type": "bytes"
        }
      ],
      "name": "MessageFailed",
      "type": "event"
    },
    {
      "anonymous": false,
      "inputs": [
        {
          "indexed": true,
          "internalType": "address",
          "name": "previousOwner",
          "type": "address"
        },
        {
          "indexed": true,
          "internalType": "address",
          "name": "newOwner",
          "type": "address"
        }
      ],
      "name": "OwnershipTransferred",
      "type": "event"
    },
    {
      "anonymous": false,
      "inputs": [
        {
          "indexed": true,
          "internalType": "uint16",
          "name": "_srcChainId",
          "type": "uint16"
        },
        {
          "indexed": true,
          "internalType": "bytes",
          "name": "_srcAddress",
          "type": "bytes"
        },
        {
          "indexed": true,
          "internalType": "address",
          "name": "_toAddress",
          "type": "address"
        },
        {
          "indexed": false,
          "internalType": "uint256[]",
          "name": "_tokenIds",
          "type": "uint256[]"
        }
      ],
      "name": "ReceiveFromChain",
      "type": "event"
    },
    {
      "anonymous": false,
      "inputs": [
        {
          "indexed": false,
          "internalType": "uint16",
          "name": "_srcChainId",
          "type": "uint16"
        },
        {
          "indexed": false,
          "internalType": "bytes",
          "name": "_srcAddress",
          "type": "bytes"
        },
        {
          "indexed": false,
          "internalType": "uint64",
          "name": "_nonce",
          "type": "uint64"
        },
        {
          "indexed": false,
          "internalType": "bytes32",
          "name": "_payloadHash",
          "type": "bytes32"
        }
      ],
      "name": "RetryMessageSuccess",
      "type": "event"
    },
    {
      "anonymous": false,
      "inputs": [
        {
          "indexed": true,
          "internalType": "uint16",
          "name": "_dstChainId",
          "type": "uint16"
        },
        {
          "indexed": true,
          "internalType": "address",
          "name": "_from",
          "type": "address"
        },
        {
          "indexed": true,
          "internalType": "bytes",
          "name": "_toAddress",
          "type": "bytes"
        },
        {
          "indexed": false,
          "internalType": "uint256[]",
          "name": "_tokenIds",
          "type": "uint256[]"
        }
      ],
      "name": "SendToChain",
      "type": "event"
    },
    {
      "anonymous": false,
      "inputs": [
        {
          "indexed": false,
          "internalType": "uint16",
          "name": "_dstChainId",
          "type": "uint16"
        },
        {
          "indexed": false,
          "internalType": "uint16",
          "name": "_type",
          "type": "uint16"
        },
        {
          "indexed": false,
          "internalType": "uint256",
          "name": "_minDstGas",
          "type": "uint256"
        }
      ],
      "name": "SetMinDstGas",
      "type": "event"
    },
    {
      "anonymous": false,
      "inputs": [
        {
          "indexed": false,
          "internalType": "address",
          "name": "precrime",
          "type": "address"
        }
      ],
      "name": "SetPrecrime",
      "type": "event"
    },
    {
      "anonymous": false,
      "inputs": [
        {
          "indexed": false,
          "internalType": "uint16",
          "name": "_remoteChainId",
          "type": "uint16"
        },
        {
          "indexed": false,
          "internalType": "bytes",
          "name": "_path",
          "type": "bytes"
        }
      ],
      "name": "SetTrustedRemote",
      "type": "event"
    },
    {
      "anonymous": false,
      "inputs": [
        {
          "indexed": false,
          "internalType": "uint16",
          "name": "_remoteChainId",
          "type": "uint16"
        },
        {
          "indexed": false,
          "internalType": "bytes",
          "name": "_remoteAddress",
          "type": "bytes"
        }
      ],
      "name": "SetTrustedRemoteAddress",
      "type": "event"
    },
    {
      "anonymous": false,
      "inputs": [
        {
          "indexed": true,
          "internalType": "address",
          "name": "from",
          "type": "address"
        },
        {
          "indexed": true,
          "internalType": "address",
          "name": "to",
          "type": "address"
        },
        {
          "indexed": true,
          "internalType": "uint256",
          "name": "tokenId",
          "type": "uint256"
        }
      ],
      "name": "Transfer",
      "type": "event"
    },
    {
      "inputs": [],
      "name": "FUNCTION_TYPE_SEND",
      "outputs": [
        {
          "internalType": "uint16",
          "name": "",
          "type": "uint16"
        }
      ],
      "stateMutability": "view",
      "type": "function"
    },
    {
      "inputs": [],
      "name": "MAX_ELEMENTS",
      "outputs": [
        {
          "internalType": "uint256",
          "name": "",
          "type": "uint256"
        }
      ],
      "stateMutability": "view",
      "type": "function"
    },
    {
      "inputs": [
        {
          "internalType": "address",
          "name": "to",
          "type": "address"
        },
        {
          "internalType": "uint256",
          "name": "tokenId",
          "type": "uint256"
        }
      ],
      "name": "approve",
      "outputs": [],
      "stateMutability": "nonpayable",
      "type": "function"
    },
    {
      "inputs": [
        {
          "internalType": "address",
          "name": "owner",
          "type": "address"
        }
      ],
      "name": "balanceOf",
      "outputs": [
        {
          "internalType": "uint256",
          "name": "",
          "type": "uint256"
        }
      ],
      "stateMutability": "view",
      "type": "function"
    },
    {
      "inputs": [],
      "name": "baseTokenURI",
      "outputs": [
        {
          "internalType": "string",
          "name": "",
          "type": "string"
        }
      ],
      "stateMutability": "view",
      "type": "function"
    },
    {
      "inputs": [
        {
          "internalType": "bytes",
          "name": "_payload",
          "type": "bytes"
        }
      ],
      "name": "clearCredits",
      "outputs": [],
      "stateMutability": "nonpayable",
      "type": "function"
    },
    {
      "inputs": [
        {
          "internalType": "uint16",
          "name": "",
          "type": "uint16"
        }
      ],
      "name": "dstChainIdToBatchLimit",
      "outputs": [
        {
          "internalType": "uint256",
          "name": "",
          "type": "uint256"
        }
      ],
      "stateMutability": "view",
      "type": "function"
    },
    {
      "inputs": [
        {
          "internalType": "uint16",
          "name": "",
          "type": "uint16"
        }
      ],
      "name": "dstChainIdToTransferGas",
      "outputs": [
        {
          "internalType": "uint256",
          "name": "",
          "type": "uint256"
        }
      ],
      "stateMutability": "view",
      "type": "function"
    },
    {
      "inputs": [
        {
          "internalType": "uint16",
          "name": "_dstChainId",
          "type": "uint16"
        },
        {
          "internalType": "bytes",
          "name": "_toAddress",
          "type": "bytes"
        },
        {
          "internalType": "uint256[]",
          "name": "_tokenIds",
          "type": "uint256[]"
        },
        {
          "internalType": "bool",
          "name": "_useZro",
          "type": "bool"
        },
        {
          "internalType": "bytes",
          "name": "_adapterParams",
          "type": "bytes"
        }
      ],
      "name": "estimateSendBatchFee",
      "outputs": [
        {
          "internalType": "uint256",
          "name": "nativeFee",
          "type": "uint256"
        },
        {
          "internalType": "uint256",
          "name": "zroFee",
          "type": "uint256"
        }
      ],
      "stateMutability": "view",
      "type": "function"
    },
    {
      "inputs": [
        {
          "internalType": "uint16",
          "name": "_dstChainId",
          "type": "uint16"
        },
        {
          "internalType": "bytes",
          "name": "_toAddress",
          "type": "bytes"
        },
        {
          "internalType": "uint256",
          "name": "_tokenId",
          "type": "uint256"
        },
        {
          "internalType": "bool",
          "name": "_useZro",
          "type": "bool"
        },
        {
          "internalType": "bytes",
          "name": "_adapterParams",
          "type": "bytes"
        }
      ],
      "name": "estimateSendFee",
      "outputs": [
        {
          "internalType": "uint256",
          "name": "nativeFee",
          "type": "uint256"
        },
        {
          "internalType": "uint256",
          "name": "zroFee",
          "type": "uint256"
        }
      ],
      "stateMutability": "view",
      "type": "function"
    },
    {
      "inputs": [
        {
          "internalType": "uint16",
          "name": "",
          "type": "uint16"
        },
        {
          "internalType": "bytes",
          "name": "",
          "type": "bytes"
        },
        {
          "internalType": "uint64",
          "name": "",
          "type": "uint64"
        }
      ],
      "name": "failedMessages",
      "outputs": [
        {
          "internalType": "bytes32",
          "name": "",
          "type": "bytes32"
        }
      ],
      "stateMutability": "view",
      "type": "function"
    },
    {
      "inputs": [
        {
          "internalType": "uint16",
          "name": "_srcChainId",
          "type": "uint16"
        },
        {
          "internalType": "bytes",
          "name": "_srcAddress",
          "type": "bytes"
        }
      ],
      "name": "forceResumeReceive",
      "outputs": [],
      "stateMutability": "nonpayable",
      "type": "function"
    },
    {
      "inputs": [
        {
          "internalType": "uint256",
          "name": "tokenId",
          "type": "uint256"
        }
      ],
      "name": "getApproved",
      "outputs": [
        {
          "internalType": "address",
          "name": "",
          "type": "address"
        }
      ],
      "stateMutability": "view",
      "type": "function"
    },
    {
      "inputs": [
        {
          "internalType": "uint16",
          "name": "_version",
          "type": "uint16"
        },
        {
          "internalType": "uint16",
          "name": "_chainId",
          "type": "uint16"
        },
        {
          "internalType": "address",
          "name": "",
          "type": "address"
        },
        {
          "internalType": "uint256",
          "name": "_configType",
          "type": "uint256"
        }
      ],
      "name": "getConfig",
      "outputs": [
        {
          "internalType": "bytes",
          "name": "",
          "type": "bytes"
        }
      ],
      "stateMutability": "view",
      "type": "function"
    },
    {
      "inputs": [
        {
          "internalType": "uint16",
          "name": "_remoteChainId",
          "type": "uint16"
        }
      ],
      "name": "getTrustedRemoteAddress",
      "outputs": [
        {
          "internalType": "bytes",
          "name": "",
          "type": "bytes"
        }
      ],
      "stateMutability": "view",
      "type": "function"
    },
    {
      "inputs": [
        {
          "internalType": "address",
          "name": "owner",
          "type": "address"
        },
        {
          "internalType": "address",
          "name": "operator",
          "type": "address"
        }
      ],
      "name": "isApprovedForAll",
      "outputs": [
        {
          "internalType": "bool",
          "name": "",
          "type": "bool"
        }
      ],
      "stateMutability": "view",
      "type": "function"
    },
    {
      "inputs": [
        {
          "internalType": "uint16",
          "name": "_srcChainId",
          "type": "uint16"
        },
        {
          "internalType": "bytes",
          "name": "_srcAddress",
          "type": "bytes"
        }
      ],
      "name": "isTrustedRemote",
      "outputs": [
        {
          "internalType": "bool",
          "name": "",
          "type": "bool"
        }
      ],
      "stateMutability": "view",
      "type": "function"
    },
    {
      "inputs": [],
      "name": "lzEndpoint",
      "outputs": [
        {
          "internalType": "contract ILayerZeroEndpoint",
          "name": "",
          "type": "address"
        }
      ],
      "stateMutability": "view",
      "type": "function"
    },
    {
      "inputs": [
        {
          "internalType": "uint16",
          "name": "_srcChainId",
          "type": "uint16"
        },
        {
          "internalType": "bytes",
          "name": "_srcAddress",
          "type": "bytes"
        },
        {
          "internalType": "uint64",
          "name": "_nonce",
          "type": "uint64"
        },
        {
          "internalType": "bytes",
          "name": "_payload",
          "type": "bytes"
        }
      ],
      "name": "lzReceive",
      "outputs": [],
      "stateMutability": "nonpayable",
      "type": "function"
    },
    {
      "inputs": [
        {
          "internalType": "uint16",
          "name": "",
          "type": "uint16"
        },
        {
          "internalType": "uint16",
          "name": "",
          "type": "uint16"
        }
      ],
      "name": "minDstGasLookup",
      "outputs": [
        {
          "internalType": "uint256",
          "name": "",
          "type": "uint256"
        }
      ],
      "stateMutability": "view",
      "type": "function"
    },
    {
      "inputs": [],
      "name": "minGasToTransferAndStore",
      "outputs": [
        {
          "internalType": "uint256",
          "name": "",
          "type": "uint256"
        }
      ],
      "stateMutability": "view",
      "type": "function"
    },
    {
      "inputs": [],
      "name": "name",
      "outputs": [
        {
          "internalType": "string",
          "name": "",
          "type": "string"
        }
      ],
      "stateMutability": "view",
      "type": "function"
    },
    {
      "inputs": [
        {
          "internalType": "uint16",
          "name": "_srcChainId",
          "type": "uint16"
        },
        {
          "internalType": "bytes",
          "name": "_srcAddress",
          "type": "bytes"
        },
        {
          "internalType": "uint64",
          "name": "_nonce",
          "type": "uint64"
        },
        {
          "internalType": "bytes",
          "name": "_payload",
          "type": "bytes"
        }
      ],
      "name": "nonblockingLzReceive",
      "outputs": [],
      "stateMutability": "nonpayable",
      "type": "function"
    },
    {
      "inputs": [],
      "name": "owner",
      "outputs": [
        {
          "internalType": "address",
          "name": "",
          "type": "address"
        }
      ],
      "stateMutability": "view",
      "type": "function"
    },
    {
      "inputs": [
        {
          "internalType": "uint256",
          "name": "tokenId",
          "type": "uint256"
        }
      ],
      "name": "ownerOf",
      "outputs": [
        {
          "internalType": "address",
          "name": "",
          "type": "address"
        }
      ],
      "stateMutability": "view",
      "type": "function"
    },
    {
      "inputs": [],
      "name": "precrime",
      "outputs": [
        {
          "internalType": "address",
          "name": "",
          "type": "address"
        }
      ],
      "stateMutability": "view",
      "type": "function"
    },
    {
      "inputs": [],
      "name": "renounceOwnership",
      "outputs": [],
      "stateMutability": "nonpayable",
      "type": "function"
    },
    {
      "inputs": [
        {
          "internalType": "uint16",
          "name": "_srcChainId",
          "type": "uint16"
        },
        {
          "internalType": "bytes",
          "name": "_srcAddress",
          "type": "bytes"
        },
        {
          "internalType": "uint64",
          "name": "_nonce",
          "type": "uint64"
        },
        {
          "internalType": "bytes",
          "name": "_payload",
          "type": "bytes"
        }
      ],
      "name": "retryMessage",
      "outputs": [],
      "stateMutability": "payable",
      "type": "function"
    },
    {
      "inputs": [
        {
          "internalType": "address",
          "name": "from",
          "type": "address"
        },
        {
          "internalType": "address",
          "name": "to",
          "type": "address"
        },
        {
          "internalType": "uint256",
          "name": "tokenId",
          "type": "uint256"
        }
      ],
      "name": "safeTransferFrom",
      "outputs": [],
      "stateMutability": "nonpayable",
      "type": "function"
    },
    {
      "inputs": [
        {
          "internalType": "address",
          "name": "from",
          "type": "address"
        },
        {
          "internalType": "address",
          "name": "to",
          "type": "address"
        },
        {
          "internalType": "uint256",
          "name": "tokenId",
          "type": "uint256"
        },
        {
          "internalType": "bytes",
          "name": "data",
          "type": "bytes"
        }
      ],
      "name": "safeTransferFrom",
      "outputs": [],
      "stateMutability": "nonpayable",
      "type": "function"
    },
    {
      "inputs": [
        {
          "internalType": "address",
          "name": "_from",
          "type": "address"
        },
        {
          "internalType": "uint16",
          "name": "_dstChainId",
          "type": "uint16"
        },
        {
          "internalType": "bytes",
          "name": "_toAddress",
          "type": "bytes"
        },
        {
          "internalType": "uint256[]",
          "name": "_tokenIds",
          "type": "uint256[]"
        },
        {
          "internalType": "address payable",
          "name": "_refundAddress",
          "type": "address"
        },
        {
          "internalType": "address",
          "name": "_zroPaymentAddress",
          "type": "address"
        },
        {
          "internalType": "bytes",
          "name": "_adapterParams",
          "type": "bytes"
        }
      ],
      "name": "sendBatchFrom",
      "outputs": [],
      "stateMutability": "payable",
      "type": "function"
    },
    {
      "inputs": [
        {
          "internalType": "address",
          "name": "_from",
          "type": "address"
        },
        {
          "internalType": "uint16",
          "name": "_dstChainId",
          "type": "uint16"
        },
        {
          "internalType": "bytes",
          "name": "_toAddress",
          "type": "bytes"
        },
        {
          "internalType": "uint256",
          "name": "_tokenId",
          "type": "uint256"
        },
        {
          "internalType": "address payable",
          "name": "_refundAddress",
          "type": "address"
        },
        {
          "internalType": "address",
          "name": "_zroPaymentAddress",
          "type": "address"
        },
        {
          "internalType": "bytes",
          "name": "_adapterParams",
          "type": "bytes"
        }
      ],
      "name": "sendFrom",
      "outputs": [],
      "stateMutability": "payable",
      "type": "function"
    },
    {
      "inputs": [
        {
          "internalType": "address",
          "name": "operator",
          "type": "address"
        },
        {
          "internalType": "bool",
          "name": "approved",
          "type": "bool"
        }
      ],
      "name": "setApprovalForAll",
      "outputs": [],
      "stateMutability": "nonpayable",
      "type": "function"
    },
    {
      "inputs": [
        {
          "internalType": "string",
          "name": "baseURI",
          "type": "string"
        }
      ],
      "name": "setBaseURI",
      "outputs": [],
      "stateMutability": "nonpayable",
      "type": "function"
    },
    {
      "inputs": [
        {
          "internalType": "uint16",
          "name": "_version",
          "type": "uint16"
        },
        {
          "internalType": "uint16",
          "name": "_chainId",
          "type": "uint16"
        },
        {
          "internalType": "uint256",
          "name": "_configType",
          "type": "uint256"
        },
        {
          "internalType": "bytes",
          "name": "_config",
          "type": "bytes"
        }
      ],
      "name": "setConfig",
      "outputs": [],
      "stateMutability": "nonpayable",
      "type": "function"
    },
    {
      "inputs": [
        {
          "internalType": "uint16",
          "name": "_dstChainId",
          "type": "uint16"
        },
        {
          "internalType": "uint256",
          "name": "_dstChainIdToBatchLimit",
          "type": "uint256"
        }
      ],
      "name": "setDstChainIdToBatchLimit",
      "outputs": [],
      "stateMutability": "nonpayable",
      "type": "function"
    },
    {
      "inputs": [
        {
          "internalType": "uint16",
          "name": "_dstChainId",
          "type": "uint16"
        },
        {
          "internalType": "uint256",
          "name": "_dstChainIdToTransferGas",
          "type": "uint256"
        }
      ],
      "name": "setDstChainIdToTransferGas",
      "outputs": [],
      "stateMutability": "nonpayable",
      "type": "function"
    },
    {
      "inputs": [
        {
          "internalType": "uint16",
          "name": "_dstChainId",
          "type": "uint16"
        },
        {
          "internalType": "uint16",
          "name": "_packetType",
          "type": "uint16"
        },
        {
          "internalType": "uint256",
          "name": "_minGas",
          "type": "uint256"
        }
      ],
      "name": "setMinDstGas",
      "outputs": [],
      "stateMutability": "nonpayable",
      "type": "function"
    },
    {
      "inputs": [
        {
          "internalType": "uint256",
          "name": "_minGasToTransferAndStore",
          "type": "uint256"
        }
      ],
      "name": "setMinGasToTransferAndStore",
      "outputs": [],
      "stateMutability": "nonpayable",
      "type": "function"
    },
    {
      "inputs": [
        {
          "internalType": "address",
          "name": "_precrime",
          "type": "address"
        }
      ],
      "name": "setPrecrime",
      "outputs": [],
      "stateMutability": "nonpayable",
      "type": "function"
    },
    {
      "inputs": [
        {
          "internalType": "uint16",
          "name": "_version",
          "type": "uint16"
        }
      ],
      "name": "setReceiveVersion",
      "outputs": [],
      "stateMutability": "nonpayable",
      "type": "function"
    },
    {
      "inputs": [
        {
          "internalType": "uint16",
          "name": "_version",
          "type": "uint16"
        }
      ],
      "name": "setSendVersion",
      "outputs": [],
      "stateMutability": "nonpayable",
      "type": "function"
    },
    {
      "inputs": [
        {
          "internalType": "uint16",
          "name": "_srcChainId",
          "type": "uint16"
        },
        {
          "internalType": "bytes",
          "name": "_path",
          "type": "bytes"
        }
      ],
      "name": "setTrustedRemote",
      "outputs": [],
      "stateMutability": "nonpayable",
      "type": "function"
    },
    {
      "inputs": [
        {
          "internalType": "uint16",
          "name": "_remoteChainId",
          "type": "uint16"
        },
        {
          "internalType": "bytes",
          "name": "_remoteAddress",
          "type": "bytes"
        }
      ],
      "name": "setTrustedRemoteAddress",
      "outputs": [],
      "stateMutability": "nonpayable",
      "type": "function"
    },
    {
      "inputs": [
        {
          "internalType": "bytes32",
          "name": "",
          "type": "bytes32"
        }
      ],
      "name": "storedCredits",
      "outputs": [
        {
          "internalType": "uint16",
          "name": "srcChainId",
          "type": "uint16"
        },
        {
          "internalType": "address",
          "name": "toAddress",
          "type": "address"
        },
        {
          "internalType": "uint256",
          "name": "index",
          "type": "uint256"
        },
        {
          "internalType": "bool",
          "name": "creditsRemain",
          "type": "bool"
        }
      ],
      "stateMutability": "view",
      "type": "function"
    },
    {
      "inputs": [
        {
          "internalType": "bytes4",
          "name": "interfaceId",
          "type": "bytes4"
        }
      ],
      "name": "supportsInterface",
      "outputs": [
        {
          "internalType": "bool",
          "name": "",
          "type": "bool"
        }
      ],
      "stateMutability": "view",
      "type": "function"
    },
    {
      "inputs": [],
      "name": "symbol",
      "outputs": [
        {
          "internalType": "string",
          "name": "",
          "type": "string"
        }
      ],
      "stateMutability": "view",
      "type": "function"
    },
    {
      "inputs": [
        {
          "internalType": "uint256",
          "name": "tokenId",
          "type": "uint256"
        }
      ],
      "name": "tokenURI",
      "outputs": [
        {
          "internalType": "string",
          "name": "",
          "type": "string"
        }
      ],
      "stateMutability": "view",
      "type": "function"
    },
    {
      "inputs": [
        {
          "internalType": "address",
          "name": "from",
          "type": "address"
        },
        {
          "internalType": "address",
          "name": "to",
          "type": "address"
        },
        {
          "internalType": "uint256",
          "name": "tokenId",
          "type": "uint256"
        }
      ],
      "name": "transferFrom",
      "outputs": [],
      "stateMutability": "nonpayable",
      "type": "function"
    },
    {
      "inputs": [
        {
          "internalType": "address",
          "name": "newOwner",
          "type": "address"
        }
      ],
      "name": "transferOwnership",
      "outputs": [],
      "stateMutability": "nonpayable",
      "type": "function"
    },
    {
      "inputs": [
        {
          "internalType": "uint16",
          "name": "",
          "type": "uint16"
        }
      ],
      "name": "trustedRemoteLookup",
      "outputs": [
        {
          "internalType": "bytes",
          "name": "",
          "type": "bytes"
        }
      ],
      "stateMutability": "view",
      "type": "function"
    },
    {
      "inputs": [
        {
          "internalType": "address",
          "name": "_owner",
          "type": "address"
        }
      ],
      "name": "walletOfOwner",
      "outputs": [
        {
          "internalType": "uint256[]",
          "name": "",
          "type": "uint256[]"
        }
      ],
      "stateMutability": "view",
      "type": "function"
    }
  ],
  "transactionHash": "0x934506bebf94ef6398df5301e648e56856f931b3a6f82163a7acd7d34678afee",
  "args": [
    "https://api.pudgypenguins.io/lil/",
    "LilPudgys",
    "LP",
    150000,
    "0x3c2269811836af69497E5F486A85D7316753cf62"
  ],
  "numDeployments": 1,
  "solcInputHash": "7c7c1730de007d3af4670ef01bc2fae2",
  "bytecode": "0x60a06040523480156200001157600080fd5b5060405162004bdc38038062004bdc83398101604081905262000034916200033f565b83838383838383838080620000493362000115565b60601b6001600160601b0319166080525081620000c35760405162461bcd60e51b815260206004820152602d60248201527f4f4e46543732313a206d696e476173546f5472616e73666572416e6453746f7260448201526c065206d757374206265203e203609c1b60648201526084015b60405180910390fd5b506005558151620000dc906009906020850190620001e6565b508051620000f290600a906020840190620001e6565b505050505050506200010a856200016560201b60201c565b50505050506200044c565b600080546001600160a01b038381166001600160a01b0319831681178455604051919092169283917f8be0079c531659141344cd1fd0a4f28419497f9722a3daafe3b4186f6b6457e09190a35050565b6200016f62000188565b80516200018490600f906020840190620001e6565b5050565b6000546001600160a01b03163314620001e45760405162461bcd60e51b815260206004820181905260248201527f4f776e61626c653a2063616c6c6572206973206e6f7420746865206f776e65726044820152606401620000ba565b565b828054620001f490620003f9565b90600052602060002090601f01602090048101928262000218576000855562000263565b82601f106200023357805160ff191683800117855562000263565b8280016001018555821562000263579182015b828111156200026357825182559160200191906001019062000246565b506200027192915062000275565b5090565b5b8082111562000271576000815560010162000276565b600082601f8301126200029d578081fd5b81516001600160401b0380821115620002ba57620002ba62000436565b604051601f8301601f19908116603f01168101908282118183101715620002e557620002e562000436565b8160405283815260209250868385880101111562000301578485fd5b8491505b8382101562000324578582018301518183018401529082019062000305565b838211156200033557848385830101525b9695505050505050565b600080600080600060a0868803121562000357578081fd5b85516001600160401b03808211156200036e578283fd5b6200037c89838a016200028c565b9650602088015191508082111562000392578283fd5b620003a089838a016200028c565b95506040880151915080821115620003b6578283fd5b50620003c5888289016200028c565b60608801516080890151919550935090506001600160a01b0381168114620003eb578182fd5b809150509295509295909350565b600181811c908216806200040e57607f821691505b602082108114156200043057634e487b7160e01b600052602260045260246000fd5b50919050565b634e487b7160e01b600052604160045260246000fd5b60805160601c614739620004a36000396000818161088f01528181610a9201528181610d9601528181610fcf0152818161116401528181611b2a01528181611f92015281816120d7015261313d01526147396000f3fe6080604052600436106102fe5760003560e01c80638cfd8f5c11610190578063baf3292d116100dc578063df2a5b3b11610095578063f23536411161006f578063f235364114610a02578063f2fde38b14610a22578063f5ecbdbc14610a42578063fa25f9b614610a6257600080fd5b8063df2a5b3b14610979578063e985e9c514610999578063eb8d72b7146109e257600080fd5b8063baf3292d146108d1578063c87b56dd146108f1578063cbed8b9c14610911578063d12473a514610931578063d1deba1f14610951578063d547cfb71461096457600080fd5b80639f38369a11610149578063ab3ffb9311610123578063ab3ffb9314610842578063af3fb21c14610855578063b353aaa71461087d578063b88d4fde146108b157600080fd5b80639f38369a146107e2578063a22cb46514610802578063a6c3d1651461082257600080fd5b80638cfd8f5c146107175780638da5cb5b1461074f5780638ffa1f2a1461076d578063950c8a741461078d57806395d89b41146107ad5780639ea5d6b1146107c257600080fd5b806342842e0e1161024f57806355f804b31161020857806366ad5c8a116101e257806366ad5c8a146106a257806370a08231146106c2578063715018a6146106e25780637533d788146106f757600080fd5b806355f804b3146106135780635b8c41e6146106335780636352211e1461068257600080fd5b806342842e0e1461055057806342d65a8d14610570578063438b63001461059057806348288190146105bd5780634ac3f4ff146105d3578063519056361461060057600080fd5b80630b4cad4c116102bc57806323b872dd1161029657806323b872dd146104b75780632a205e3d146104d75780633502a7161461050c5780633d8b38f61461053057600080fd5b80630b4cad4c146103f457806310ddb1371461041457806322a3ecf91461043457600080fd5b80621d35671461030357806301ffc9a71461032557806306fdde031461035a57806307e0db171461037c578063081812fc1461039c578063095ea7b3146103d4575b600080fd5b34801561030f57600080fd5b5061032361031e366004613da1565b610a8f565b005b34801561033157600080fd5b50610345610340366004613b9b565b610cc0565b60405190151581526020015b60405180910390f35b34801561036657600080fd5b5061036f610ce3565b6040516103519190614260565b34801561038857600080fd5b50610323610397366004613d37565b610d75565b3480156103a857600080fd5b506103bc6103b7366004613b83565b610dfe565b6040516001600160a01b039091168152602001610351565b3480156103e057600080fd5b506103236103ef366004613b58565b610e25565b34801561040057600080fd5b5061032361040f366004613b83565b610f3b565b34801561042057600080fd5b5061032361042f366004613d37565b610fae565b34801561044057600080fd5b5061048861044f366004613b83565b60086020526000908152604090208054600182015460029092015461ffff821692620100009092046001600160a01b0316919060ff1684565b6040805161ffff90951685526001600160a01b0390931660208501529183015215156060820152608001610351565b3480156104c357600080fd5b506103236104d2366004613914565b611006565b3480156104e357600080fd5b506104f76104f2366004613ed6565b611038565b60408051928352602083019190915201610351565b34801561051857600080fd5b506105226156ce81565b604051908152602001610351565b34801561053c57600080fd5b5061034561054b366004613d51565b61105e565b34801561055c57600080fd5b5061032361056b366004613914565b61112a565b34801561057c57600080fd5b5061032361058b366004613d51565b611145565b34801561059c57600080fd5b506105b06105ab3660046138c0565b6111cb565b6040516103519190614234565b3480156105c957600080fd5b5061052260055481565b3480156105df57600080fd5b506105226105ee366004613d37565b60066020526000908152604090205481565b61032361060e366004613abe565b6112cc565b34801561061f57600080fd5b5061032361062e366004613cf2565b6112e3565b34801561063f57600080fd5b5061052261064e366004613f32565b6004602090815260009384526040808520845180860184018051928152908401958401959095209452929052825290205481565b34801561068e57600080fd5b506103bc61069d366004613b83565b611302565b3480156106ae57600080fd5b506103236106bd366004613da1565b611362565b3480156106ce57600080fd5b506105226106dd3660046138c0565b61143e565b3480156106ee57600080fd5b506103236114c4565b34801561070357600080fd5b5061036f610712366004613d37565b6114d8565b34801561072357600080fd5b50610522610732366004613f8d565b600260209081526000928352604080842090915290825290205481565b34801561075b57600080fd5b506000546001600160a01b03166103bc565b34801561077957600080fd5b50610323610788366004613bd3565b611572565b34801561079957600080fd5b506003546103bc906001600160a01b031681565b3480156107b957600080fd5b5061036f6117c1565b3480156107ce57600080fd5b506103236107dd3660046140a9565b6117d0565b3480156107ee57600080fd5b5061036f6107fd366004613d37565b611853565b34801561080e57600080fd5b5061032361081d3660046139bd565b61196a565b34801561082e57600080fd5b5061032361083d366004613d51565b611975565b6103236108503660046139f1565b611a08565b34801561086157600080fd5b5061086a600181565b60405161ffff9091168152602001610351565b34801561088957600080fd5b506103bc7f000000000000000000000000000000000000000000000000000000000000000081565b3480156108bd57600080fd5b506103236108cc366004613954565b611a17565b3480156108dd57600080fd5b506103236108ec3660046138c0565b611a49565b3480156108fd57600080fd5b5061036f61090c366004613b83565b611aa5565b34801561091d57600080fd5b5061032361092c36600461403d565b611b0b565b34801561093d57600080fd5b5061032361094c3660046140a9565b611ba0565b61032361095f366004613da1565b611c24565b34801561097057600080fd5b5061036f611e3a565b34801561098557600080fd5b50610323610994366004614002565b611e47565b3480156109a557600080fd5b506103456109b43660046138dc565b6001600160a01b039182166000908152600e6020908152604080832093909416825291909152205460ff1690565b3480156109ee57600080fd5b506103236109fd366004613d51565b611ef9565b348015610a0e57600080fd5b506104f7610a1d366004613e31565b611f53565b348015610a2e57600080fd5b50610323610a3d3660046138c0565b61202d565b348015610a4e57600080fd5b5061036f610a5d366004613fb6565b6120a6565b348015610a6e57600080fd5b50610522610a7d366004613d37565b60076020526000908152604090205481565b337f00000000000000000000000000000000000000000000000000000000000000006001600160a01b031614610b0c5760405162461bcd60e51b815260206004820152601e60248201527f4c7a4170703a20696e76616c696420656e64706f696e742063616c6c6572000060448201526064015b60405180910390fd5b61ffff861660009081526001602052604081208054610b2a90614656565b80601f0160208091040260200160405190810160405280929190818152602001828054610b5690614656565b8015610ba35780601f10610b7857610100808354040283529160200191610ba3565b820191906000526020600020905b815481529060010190602001808311610b8657829003601f168201915b50505050509050805186869050148015610bbe575060008151115b8015610be6575080516020820120604051610bdc9088908890614176565b6040518091039020145b610c415760405162461bcd60e51b815260206004820152602660248201527f4c7a4170703a20696e76616c696420736f757263652073656e64696e6720636f6044820152651b9d1c9858dd60d21b6064820152608401610b03565b610cb78787878080601f01602080910402602001604051908101604052809392919081815260200183838082843760009201919091525050604080516020601f8a018190048102820181019092528881528a93509150889088908190840183828082843760009201919091525061216892505050565b50505050505050565b60006001600160e01b031982161580610cdd5750610cdd826121e1565b92915050565b606060098054610cf290614656565b80601f0160208091040260200160405190810160405280929190818152602001828054610d1e90614656565b8015610d6b5780601f10610d4057610100808354040283529160200191610d6b565b820191906000526020600020905b815481529060010190602001808311610d4e57829003601f168201915b5050505050905090565b610d7d612221565b6040516307e0db1760e01b815261ffff821660048201527f00000000000000000000000000000000000000000000000000000000000000006001600160a01b0316906307e0db17906024015b600060405180830381600087803b158015610de357600080fd5b505af1158015610df7573d6000803e3d6000fd5b5050505050565b6000610e098261227b565b506000908152600d60205260409020546001600160a01b031690565b6000610e3082611302565b9050806001600160a01b0316836001600160a01b03161415610e9e5760405162461bcd60e51b815260206004820152602160248201527f4552433732313a20617070726f76616c20746f2063757272656e74206f776e656044820152603960f91b6064820152608401610b03565b336001600160a01b0382161480610eba5750610eba81336109b4565b610f2c5760405162461bcd60e51b815260206004820152603d60248201527f4552433732313a20617070726f76652063616c6c6572206973206e6f7420746f60448201527f6b656e206f776e6572206f7220617070726f76656420666f7220616c6c0000006064820152608401610b03565b610f3683836122cb565b505050565b610f43612221565b60008111610fa95760405162461bcd60e51b815260206004820152602d60248201527f4f4e46543732313a206d696e476173546f5472616e73666572416e6453746f7260448201526c065206d757374206265203e203609c1b6064820152608401610b03565b600555565b610fb6612221565b6040516310ddb13760e01b815261ffff821660048201527f00000000000000000000000000000000000000000000000000000000000000006001600160a01b0316906310ddb13790602401610dc9565b611011335b82612339565b61102d5760405162461bcd60e51b8152600401610b03906142a1565b610f368383836123b7565b600080611050878761104988612528565b8787611f53565b915091509550959350505050565b61ffff83166000908152600160205260408120805482919061107f90614656565b80601f01602080910402602001604051908101604052809291908181526020018280546110ab90614656565b80156110f85780601f106110cd576101008083540402835291602001916110f8565b820191906000526020600020905b8154815290600101906020018083116110db57829003601f168201915b50505050509050838360405161110f929190614176565b60405180910390208180519060200120149150509392505050565b610f3683838360405180602001604052806000815250611a17565b61114d612221565b6040516342d65a8d60e01b81526001600160a01b037f000000000000000000000000000000000000000000000000000000000000000016906342d65a8d9061119d908690869086906004016143d9565b600060405180830381600087803b1580156111b757600080fd5b505af1158015610cb7573d6000803e3d6000fd5b606060006111d88361143e565b90506000816001600160401b0381111561120257634e487b7160e01b600052604160045260246000fd5b60405190808252806020026020018201604052801561122b578160200160208202803683370190505b5090508161123a579392505050565b6000805b6156ce8110156112c2576000818152600b60205260409020546001600160a01b03878116911614156112b0578083838151811061128b57634e487b7160e01b600052603260045260246000fd5b6020908102919091010152816112a081614691565b925050838214156112b0576112c2565b806112ba81614691565b91505061123e565b5090949350505050565b610cb78787876112db88612528565b878787612581565b6112eb612221565b80516112fe90600f90602084019061361a565b5050565b6000818152600b60205260408120546001600160a01b031680610cdd5760405162461bcd60e51b8152602060048201526018602482015277115490cdcc8c4e881a5b9d985b1a59081d1bdad95b88125160421b6044820152606401610b03565b3330146113c05760405162461bcd60e51b815260206004820152602660248201527f4e6f6e626c6f636b696e674c7a4170703a2063616c6c6572206d7573742062656044820152650204c7a4170760d41b6064820152608401610b03565b6114368686868080601f01602080910402602001604051908101604052809392919081815260200183838082843760009201919091525050604080516020601f89018190048102820181019092528781528993509150879087908190840183828082843760009201919091525061277692505050565b505050505050565b60006001600160a01b0382166114a85760405162461bcd60e51b815260206004820152602960248201527f4552433732313a2061646472657373207a65726f206973206e6f7420612076616044820152683634b21037bbb732b960b91b6064820152608401610b03565b506001600160a01b03166000908152600c602052604090205490565b6114cc612221565b6114d660006128cd565b565b600160205260009081526040902080546114f190614656565b80601f016020809104026020016040519081016040528092919081815260200182805461151d90614656565b801561156a5780601f1061153f5761010080835404028352916020019161156a565b820191906000526020600020905b81548152906001019060200180831161154d57829003601f168201915b505050505081565b80516020808301919091206000818152600890925260409091206002015460ff166115df5760405162461bcd60e51b815260206004820152601a60248201527f4f4e46543732313a206e6f20637265646974732073746f7265640000000000006044820152606401610b03565b6000828060200190518101906115f59190613c37565b600084815260086020526040812080546001909101549294509092506116319161ffff8216916201000090046001600160a01b0316908561291d565b60008481526008602052604090206001015490915081116116af5760405162461bcd60e51b815260206004820152603260248201527f4f4e46543732313a206e6f7420656e6f7567682067617320746f2070726f636560448201527139b99031b932b234ba103a3930b739b332b960711b6064820152608401610b03565b81518114156117275760008381526008602052604080822080546001600160b01b031916815560018101929092556002909101805460ff19169055517fd7be02b8dd0d27bd0517a9cb4d7469ce27df4313821ae5ec1ff69acc594ba2339061171a9085815260200190565b60405180910390a16117bb565b60408051608081018252600085815260086020818152848320805461ffff80821687526001600160a01b03620100008084048216868a019081529989018b8152600160608b01818152998f90529790965297519851169096026001600160b01b03199091169690951695909517939093178455915191830191909155516002909101805491151560ff199092169190911790555b50505050565b6060600a8054610cf290614656565b6117d8612221565b6000811161183c5760405162461bcd60e51b815260206004820152602b60248201527f4f4e46543732313a20647374436861696e4964546f42617463684c696d69742060448201526a06d757374206265203e20360ac1b6064820152608401610b03565b61ffff909116600090815260066020526040902055565b61ffff811660009081526001602052604081208054606092919061187690614656565b80601f01602080910402602001604051908101604052809291908181526020018280546118a290614656565b80156118ef5780601f106118c4576101008083540402835291602001916118ef565b820191906000526020600020905b8154815290600101906020018083116118d257829003601f168201915b505050505090508051600014156119485760405162461bcd60e51b815260206004820152601d60248201527f4c7a4170703a206e6f20747275737465642070617468207265636f72640000006044820152606401610b03565b61196360006014835161195b9190614613565b83919061297d565b9392505050565b6112fe338383612a8a565b61197d612221565b81813060405160200161199293929190614186565b60408051601f1981840301815291815261ffff851660009081526001602090815291902082516119c79391929091019061361a565b507f8c0400cfe2d1199b1a725c78960bcc2a344d869b80590d0f2bd005db15a572ce8383836040516119fb939291906143d9565b60405180910390a1505050565b610cb787878787878787612581565b611a213383612339565b611a3d5760405162461bcd60e51b8152600401610b03906142a1565b6117bb84848484612b59565b611a51612221565b600380546001600160a01b0319166001600160a01b0383169081179091556040519081527f5db758e995a17ec1ad84bdef7e8c3293a0bd6179bcce400dff5d4c3d87db726b9060200160405180910390a150565b6060611ab08261227b565b6000611aba612b8c565b90506000815111611ada5760405180602001604052806000815250611963565b80611ae484612b9b565b604051602001611af59291906141c8565b6040516020818303038152906040529392505050565b611b13612221565b6040516332fb62e760e21b81526001600160a01b037f0000000000000000000000000000000000000000000000000000000000000000169063cbed8b9c90611b679088908890889088908890600401614534565b600060405180830381600087803b158015611b8157600080fd5b505af1158015611b95573d6000803e3d6000fd5b505050505050505050565b611ba8612221565b60008111611c0d5760405162461bcd60e51b815260206004820152602c60248201527f4f4e46543732313a20647374436861696e4964546f5472616e7366657247617360448201526b0206d757374206265203e20360a41b6064820152608401610b03565b61ffff909116600090815260076020526040902055565b61ffff86166000908152600460205260408082209051611c479088908890614176565b90815260408051602092819003830190206001600160401b03871660009081529252902054905080611cc75760405162461bcd60e51b815260206004820152602360248201527f4e6f6e626c6f636b696e674c7a4170703a206e6f2073746f726564206d65737360448201526261676560e81b6064820152608401610b03565b808383604051611cd8929190614176565b604051809103902014611d375760405162461bcd60e51b815260206004820152602160248201527f4e6f6e626c6f636b696e674c7a4170703a20696e76616c6964207061796c6f616044820152601960fa1b6064820152608401610b03565b61ffff87166000908152600460205260408082209051611d5a9089908990614176565b90815260408051602092819003830181206001600160401b038916600090815290845282902093909355601f88018290048202830182019052868252611df2918991899089908190840183828082843760009201919091525050604080516020601f8a018190048102820181019092528881528a93509150889088908190840183828082843760009201919091525061277692505050565b7fc264d91f3adc5588250e1551f547752ca0cfa8f6b530d243b9f9f4cab10ea8e58787878785604051611e299594939291906143f7565b60405180910390a150505050505050565b600f80546114f190614656565b611e4f612221565b60008111611e975760405162461bcd60e51b81526020600482015260156024820152744c7a4170703a20696e76616c6964206d696e47617360581b6044820152606401610b03565b61ffff83811660008181526002602090815260408083209487168084529482529182902085905581519283528201929092529081018290527f9d5c7c0b934da8fefa9c7760c98383778a12dfbfc0c3b3106518f43fb9508ac0906060016119fb565b611f01612221565b61ffff83166000908152600160205260409020611f1f90838361369e565b507ffa41487ad5d6728f0b19276fa1eddc16558578f5109fc39d2dc33c3230470dab8383836040516119fb939291906143d9565b60008060008686604051602001611f6b929190614273565b60408051601f198184030181529082905263040a7bb160e41b825291506001600160a01b037f000000000000000000000000000000000000000000000000000000000000000016906340a7bb1090611fcf908b90309086908b908b90600401614385565b604080518083038186803b158015611fe657600080fd5b505afa158015611ffa573d6000803e3d6000fd5b505050506040513d601f19601f8201168201806040525081019061201e91906140c4565b92509250509550959350505050565b612035612221565b6001600160a01b03811661209a5760405162461bcd60e51b815260206004820152602660248201527f4f776e61626c653a206e6577206f776e657220697320746865207a65726f206160448201526564647265737360d01b6064820152608401610b03565b6120a3816128cd565b50565b604051633d7b2f6f60e21b815261ffff808616600483015284166024820152306044820152606481018290526060907f00000000000000000000000000000000000000000000000000000000000000006001600160a01b03169063f5ecbdbc9060840160006040518083038186803b15801561212157600080fd5b505afa158015612135573d6000803e3d6000fd5b505050506040513d6000823e601f3d908101601f1916820160405261215d9190810190613c05565b90505b949350505050565b6000806121cb5a60966366ad5c8a60e01b898989896040516024016121909493929190614499565b60408051601f198184030181529190526020810180516001600160e01b03166001600160e01b03199093169290921790915230929190612c45565b9150915081611436576114368686868685612cdd565b60006001600160e01b031982166380ac58cd60e01b148061221257506001600160e01b03198216635b5e139f60e01b145b80610cdd5750610cdd82612d7a565b6000546001600160a01b031633146114d65760405162461bcd60e51b815260206004820181905260248201527f4f776e61626c653a2063616c6c6572206973206e6f7420746865206f776e65726044820152606401610b03565b61228481612daf565b6120a35760405162461bcd60e51b8152602060048201526018602482015277115490cdcc8c4e881a5b9d985b1a59081d1bdad95b88125160421b6044820152606401610b03565b6000818152600d6020526040902080546001600160a01b0319166001600160a01b038416908117909155819061230082611302565b6001600160a01b03167f8c5be1e5ebec7d5bd14f71427d1e84f3dd0314c0f7b2291e5b200ac8c7c3b92560405160405180910390a45050565b60008061234583611302565b9050806001600160a01b0316846001600160a01b0316148061238c57506001600160a01b038082166000908152600e602090815260408083209388168352929052205460ff165b806121605750836001600160a01b03166123a584610dfe565b6001600160a01b031614949350505050565b826001600160a01b03166123ca82611302565b6001600160a01b0316146123f05760405162461bcd60e51b8152600401610b0390614340565b6001600160a01b0382166124525760405162461bcd60e51b8152602060048201526024808201527f4552433732313a207472616e7366657220746f20746865207a65726f206164646044820152637265737360e01b6064820152608401610b03565b61245f8383836001612dcc565b826001600160a01b031661247282611302565b6001600160a01b0316146124985760405162461bcd60e51b8152600401610b0390614340565b6000818152600d6020908152604080832080546001600160a01b03199081169091556001600160a01b03878116808652600c8552838620805460001901905590871680865283862080546001019055868652600b90945282852080549092168417909155905184937fddf252ad1be2c89b69c2b068fc378daa952ba7f163c4a11628f55a4df523b3ef91a4505050565b6040805160018082528183019092526060916000919060208083019080368337019050509050828160008151811061257057634e487b7160e01b600052603260045260246000fd5b602090810291909101015292915050565b60008451116125d25760405162461bcd60e51b815260206004820152601a60248201527f4c7a4170703a20746f6b656e4964735b5d20697320656d7074790000000000006044820152606401610b03565b8351600114806125f6575061ffff8616600090815260066020526040902054845111155b6126565760405162461bcd60e51b815260206004820152602b60248201527f4f4e46543732313a2062617463682073697a652065786365656473206473742060448201526a18985d18da081b1a5b5a5d60aa1b6064820152608401610b03565b60005b84518110156126a75761269588888888858151811061268857634e487b7160e01b600052603260045260246000fd5b6020026020010151612e54565b8061269f81614691565b915050612659565b50600085856040516020016126bd929190614273565b6040516020818303038152906040529050612702876001848851600760008d61ffff1661ffff168152602001908152602001600020546126fd91906145f4565b612f3f565b61271087828686863461301e565b8560405161271e91906141ac565b6040518091039020886001600160a01b03168861ffff167fe1b87c47fdeb4f9cbadbca9df3af7aba453bb6e501075d0440d88125b711522a886040516127649190614234565b60405180910390a45050505050505050565b6000808280602001905181019061278d9190613c37565b6014820151919350915060006127a58883838661291d565b905082518110156128795784516020808701919091206040805160808101825261ffff808d1682526001600160a01b0380881683870190815283850188815260016060860181815260008981526008909a529887902095518654935190941662010000026001600160b01b03199093169390941692909217178355519082015592516002909301805493151560ff199094169390931790925590517f10e0b70d256bccc84b7027506978bd8b68984a870788b93b479def144c839ad79061286f9083908990614247565b60405180910390a1505b816001600160a01b03168760405161289191906141ac565b60405180910390208961ffff167f5b821db8a46f8ecbe1941ba2f51cfeea9643268b56631f70d45e2a745d990265866040516127649190614234565b600080546001600160a01b038381166001600160a01b0319831681178455604051919092169283917f8be0079c531659141344cd1fd0a4f28419497f9722a3daafe3b4186f6b6457e09190a35050565b6000825b825181101561215d576005545a10156129395761215d565b61296b868685848151811061295e57634e487b7160e01b600052603260045260246000fd5b60200260200101516131b9565b8061297581614691565b915050612921565b60608161298b81601f6145dc565b10156129ca5760405162461bcd60e51b815260206004820152600e60248201526d736c6963655f6f766572666c6f7760901b6044820152606401610b03565b6129d482846145dc565b84511015612a185760405162461bcd60e51b8152602060048201526011602482015270736c6963655f6f75744f66426f756e647360781b6044820152606401610b03565b606082158015612a375760405191506000825260208201604052612a81565b6040519150601f8416801560200281840101858101878315602002848b0101015b81831015612a70578051835260209283019201612a58565b5050858452601f01601f1916604052505b50949350505050565b816001600160a01b0316836001600160a01b03161415612aec5760405162461bcd60e51b815260206004820152601960248201527f4552433732313a20617070726f766520746f2063616c6c6572000000000000006044820152606401610b03565b6001600160a01b038381166000818152600e6020908152604080832094871680845294825291829020805460ff191686151590811790915591519182527f17307eab39ab6107e8899845ad3d59bd9653f200f220920489ca2b5937696c31910160405180910390a3505050565b612b648484846123b7565b612b7084848484613219565b6117bb5760405162461bcd60e51b8152600401610b03906142ee565b6060600f8054610cf290614656565b60606000612ba883613323565b60010190506000816001600160401b03811115612bd557634e487b7160e01b600052604160045260246000fd5b6040519080825280601f01601f191660200182016040528015612bff576020820181803683370190505b5090508181016020015b600019016f181899199a1a9b1b9c1cb0b131b232b360811b600a86061a8153600a8504945084612c3857612c3d565b612c09565b509392505050565b6000606060008060008661ffff166001600160401b03811115612c7857634e487b7160e01b600052604160045260246000fd5b6040519080825280601f01601f191660200182016040528015612ca2576020820181803683370190505b50905060008087516020890160008d8df191503d925086831115612cc4578692505b828152826000602083013e909890975095505050505050565b8180519060200120600460008761ffff1661ffff16815260200190815260200160002085604051612d0e91906141ac565b9081526040805191829003602090810183206001600160401b0388166000908152915220919091557fe183f33de2837795525b4792ca4cd60535bd77c53b7e7030060bfcf5734d6b0c90612d6b90879087908790879087906144e2565b60405180910390a15050505050565b60006001600160e01b031982166322bac5d960e01b1480610cdd57506301ffc9a760e01b6001600160e01b0319831614610cdd565b6000908152600b60205260409020546001600160a01b0316151590565b60018111156117bb576001600160a01b03841615612e12576001600160a01b0384166000908152600c602052604081208054839290612e0c908490614613565b90915550505b6001600160a01b038316156117bb576001600160a01b0383166000908152600c602052604081208054839290612e499084906145dc565b909155505050505050565b612e5d3361100b565b612ec05760405162461bcd60e51b815260206004820152602e60248201527f4f4e46543732313a2073656e642063616c6c6572206973206e6f74206f776e6560448201526d1c881b9bdc88185c1c1c9bdd995960921b6064820152608401610b03565b836001600160a01b0316612ed382611302565b6001600160a01b031614612f345760405162461bcd60e51b815260206004820152602260248201527f4f4e46543732313a2073656e642066726f6d20696e636f7272656374206f776e60448201526132b960f11b6064820152608401610b03565b6117bb8430836123b7565b6000612f4a836133fb565b61ffff808716600090815260026020908152604080832093891683529290529081205491925090612f7c9084906145dc565b905060008111612fce5760405162461bcd60e51b815260206004820152601a60248201527f4c7a4170703a206d696e4761734c696d6974206e6f74207365740000000000006044820152606401610b03565b808210156114365760405162461bcd60e51b815260206004820152601b60248201527f4c7a4170703a20676173206c696d697420697320746f6f206c6f7700000000006044820152606401610b03565b61ffff86166000908152600160205260408120805461303c90614656565b80601f016020809104026020016040519081016040528092919081815260200182805461306890614656565b80156130b55780601f1061308a576101008083540402835291602001916130b5565b820191906000526020600020905b81548152906001019060200180831161309857829003601f168201915b505050505090508051600014156131275760405162461bcd60e51b815260206004820152603060248201527f4c7a4170703a2064657374696e6174696f6e20636861696e206973206e6f742060448201526f61207472757374656420736f7572636560801b6064820152608401610b03565b60405162c5803160e81b81526001600160a01b037f0000000000000000000000000000000000000000000000000000000000000000169063c580310090849061317e908b9086908c908c908c908c90600401614432565b6000604051808303818588803b15801561319757600080fd5b505af11580156131ab573d6000803e3d6000fd5b505050505050505050505050565b6131c281612daf565b15806131ee57506131d281612daf565b80156131ee5750306131e382611302565b6001600160a01b0316145b6131f757600080fd5b61320081612daf565b61320e57610f368282613457565b610f363083836123b7565b60006001600160a01b0384163b1561331b57604051630a85bd0160e11b81526001600160a01b0385169063150b7a029061325d9033908990889088906004016141f7565b602060405180830381600087803b15801561327757600080fd5b505af19250505080156132a7575060408051601f3d908101601f191682019092526132a491810190613bb7565b60015b613301573d8080156132d5576040519150601f19603f3d011682016040523d82523d6000602084013e6132da565b606091505b5080516132f95760405162461bcd60e51b8152600401610b03906142ee565b805181602001fd5b6001600160e01b031916630a85bd0160e11b149050612160565b506001612160565b60008072184f03e93ff9f4daa797ed6e38ed64bf6a1f0160401b83106133625772184f03e93ff9f4daa797ed6e38ed64bf6a1f0160401b830492506040015b6d04ee2d6d415b85acef8100000000831061338e576d04ee2d6d415b85acef8100000000830492506020015b662386f26fc1000083106133ac57662386f26fc10000830492506010015b6305f5e10083106133c4576305f5e100830492506008015b61271083106133d857612710830492506004015b606483106133ea576064830492506002015b600a8310610cdd5760010192915050565b600060228251101561344f5760405162461bcd60e51b815260206004820152601c60248201527f4c7a4170703a20696e76616c69642061646170746572506172616d73000000006044820152606401610b03565b506022015190565b6112fe828260405180602001604052806000815250613476838361349f565b6134836000848484613219565b610f365760405162461bcd60e51b8152600401610b03906142ee565b6001600160a01b0382166134f55760405162461bcd60e51b815260206004820181905260248201527f4552433732313a206d696e7420746f20746865207a65726f20616464726573736044820152606401610b03565b6134fe81612daf565b1561354b5760405162461bcd60e51b815260206004820152601c60248201527f4552433732313a20746f6b656e20616c7265616479206d696e746564000000006044820152606401610b03565b613559600083836001612dcc565b61356281612daf565b156135af5760405162461bcd60e51b815260206004820152601c60248201527f4552433732313a20746f6b656e20616c7265616479206d696e746564000000006044820152606401610b03565b6001600160a01b0382166000818152600c6020908152604080832080546001019055848352600b90915280822080546001600160a01b0319168417905551839291907fddf252ad1be2c89b69c2b068fc378daa952ba7f163c4a11628f55a4df523b3ef908290a45050565b82805461362690614656565b90600052602060002090601f016020900481019282613648576000855561368e565b82601f1061366157805160ff191683800117855561368e565b8280016001018555821561368e579182015b8281111561368e578251825591602001919060010190613673565b5061369a929150613712565b5090565b8280546136aa90614656565b90600052602060002090601f0160209004810192826136cc576000855561368e565b82601f106136e55782800160ff1982351617855561368e565b8280016001018555821561368e579182015b8281111561368e5782358255916020019190600101906136f7565b5b8082111561369a5760008155600101613713565b600061373a613735846145b5565b614562565b905082815283838301111561374e57600080fd5b828260208301376000602084830101529392505050565b8035613770816146d8565b919050565b600082601f830112613785578081fd5b8135602061379561373583614592565b80838252828201915082860187848660051b89010111156137b4578586fd5b855b858110156137d2578135845292840192908401906001016137b6565b5090979650505050505050565b8035801515811461377057600080fd5b60008083601f840112613800578182fd5b5081356001600160401b03811115613816578182fd5b60208301915083602082850101111561382e57600080fd5b9250929050565b600082601f830112613845578081fd5b61196383833560208501613727565b600082601f830112613864578081fd5b8151613872613735826145b5565b818152846020838601011115613886578283fd5b61216082602083016020870161462a565b803561ffff8116811461377057600080fd5b80356001600160401b038116811461377057600080fd5b6000602082840312156138d1578081fd5b8135611963816146d8565b600080604083850312156138ee578081fd5b82356138f9816146d8565b91506020830135613909816146d8565b809150509250929050565b600080600060608486031215613928578081fd5b8335613933816146d8565b92506020840135613943816146d8565b929592945050506040919091013590565b60008060008060808587031215613969578081fd5b8435613974816146d8565b93506020850135613984816146d8565b92506040850135915060608501356001600160401b038111156139a5578182fd5b6139b187828801613835565b91505092959194509250565b600080604083850312156139cf578182fd5b82356139da816146d8565b91506139e8602084016137df565b90509250929050565b600080600080600080600060e0888a031215613a0b578485fd5b8735613a16816146d8565b9650613a2460208901613897565b955060408801356001600160401b0380821115613a3f578687fd5b613a4b8b838c01613835565b965060608a0135915080821115613a60578485fd5b613a6c8b838c01613775565b955060808a01359150613a7e826146d8565b819450613a8d60a08b01613765565b935060c08a0135915080821115613aa2578283fd5b50613aaf8a828b01613835565b91505092959891949750929550565b600080600080600080600060e0888a031215613ad8578081fd5b8735613ae3816146d8565b9650613af160208901613897565b955060408801356001600160401b0380821115613b0c578283fd5b613b188b838c01613835565b965060608a0135955060808a01359150613b31826146d8565b90935060a089013590613b43826146d8565b90925060c08901359080821115613aa2578283fd5b60008060408385031215613b6a578182fd5b8235613b75816146d8565b946020939093013593505050565b600060208284031215613b94578081fd5b5035919050565b600060208284031215613bac578081fd5b8135611963816146ed565b600060208284031215613bc8578081fd5b8151611963816146ed565b600060208284031215613be4578081fd5b81356001600160401b03811115613bf9578182fd5b61216084828501613835565b600060208284031215613c16578081fd5b81516001600160401b03811115613c2b578182fd5b61216084828501613854565b60008060408385031215613c49578182fd5b82516001600160401b0380821115613c5f578384fd5b613c6b86838701613854565b9350602091508185015181811115613c81578384fd5b85019050601f81018613613c93578283fd5b8051613ca161373582614592565b80828252848201915084840189868560051b8701011115613cc0578687fd5b8694505b83851015613ce2578051835260019490940193918501918501613cc4565b5080955050505050509250929050565b600060208284031215613d03578081fd5b81356001600160401b03811115613d18578182fd5b8201601f81018413613d28578182fd5b61216084823560208401613727565b600060208284031215613d48578081fd5b61196382613897565b600080600060408486031215613d65578081fd5b613d6e84613897565b925060208401356001600160401b03811115613d88578182fd5b613d94868287016137ef565b9497909650939450505050565b60008060008060008060808789031215613db9578384fd5b613dc287613897565b955060208701356001600160401b0380821115613ddd578586fd5b613de98a838b016137ef565b9097509550859150613dfd60408a016138a9565b94506060890135915080821115613e12578384fd5b50613e1f89828a016137ef565b979a9699509497509295939492505050565b600080600080600060a08688031215613e48578283fd5b613e5186613897565b945060208601356001600160401b0380821115613e6c578485fd5b613e7889838a01613835565b95506040880135915080821115613e8d578485fd5b613e9989838a01613775565b9450613ea7606089016137df565b93506080880135915080821115613ebc578283fd5b50613ec988828901613835565b9150509295509295909350565b600080600080600060a08688031215613eed578283fd5b613ef686613897565b945060208601356001600160401b0380821115613f11578485fd5b613f1d89838a01613835565b955060408801359450613ea7606089016137df565b600080600060608486031215613f46578081fd5b613f4f84613897565b925060208401356001600160401b03811115613f69578182fd5b613f7586828701613835565b925050613f84604085016138a9565b90509250925092565b60008060408385031215613f9f578182fd5b613fa883613897565b91506139e860208401613897565b60008060008060808587031215613fcb578182fd5b613fd485613897565b9350613fe260208601613897565b92506040850135613ff2816146d8565b9396929550929360600135925050565b600080600060608486031215614016578081fd5b61401f84613897565b925061402d60208501613897565b9150604084013590509250925092565b600080600080600060808688031215614054578283fd5b61405d86613897565b945061406b60208701613897565b93506040860135925060608601356001600160401b0381111561408c578182fd5b614098888289016137ef565b969995985093965092949392505050565b600080604083850312156140bb578182fd5b613b7583613897565b600080604083850312156140d6578182fd5b505080516020909101519092909150565b6000815180845260208085019450808401835b83811015614116578151875295820195908201906001016140fa565b509495945050505050565b81835281816020850137506000828201602090810191909152601f909101601f19169091010190565b6000815180845261416281602086016020860161462a565b601f01601f19169290920160200192915050565b8183823760009101908152919050565b8284823760609190911b6bffffffffffffffffffffffff19169101908152601401919050565b600082516141be81846020870161462a565b9190910192915050565b600083516141da81846020880161462a565b8351908301906141ee81836020880161462a565b01949350505050565b6001600160a01b038581168252841660208201526040810183905260806060820181905260009061422a9083018461414a565b9695505050505050565b60208152600061196360208301846140e7565b828152604060208201526000612160604083018461414a565b602081526000611963602083018461414a565b604081526000614286604083018561414a565b828103602084015261429881856140e7565b95945050505050565b6020808252602d908201527f4552433732313a2063616c6c6572206973206e6f7420746f6b656e206f776e6560408201526c1c881bdc88185c1c1c9bdd9959609a1b606082015260800190565b60208082526032908201527f4552433732313a207472616e7366657220746f206e6f6e20455243373231526560408201527131b2b4bb32b91034b6b83632b6b2b73a32b960711b606082015260800190565b60208082526025908201527f4552433732313a207472616e736665722066726f6d20696e636f72726563742060408201526437bbb732b960d91b606082015260800190565b61ffff861681526001600160a01b038516602082015260a0604082018190526000906143b39083018661414a565b841515606084015282810360808401526143cd818561414a565b98975050505050505050565b61ffff8416815260406020820152600061215d604083018486614121565b61ffff86168152608060208201526000614415608083018688614121565b6001600160401b0394909416604083015250606001529392505050565b61ffff8716815260c06020820152600061444f60c083018861414a565b8281036040840152614461818861414a565b6001600160a01b0387811660608601528616608085015283810360a0850152905061448c818561414a565b9998505050505050505050565b61ffff851681526080602082015260006144b6608083018661414a565b6001600160401b038516604084015282810360608401526144d7818561414a565b979650505050505050565b61ffff8616815260a0602082015260006144ff60a083018761414a565b6001600160401b03861660408401528281036060840152614520818661414a565b905082810360808401526143cd818561414a565b600061ffff8088168352808716602084015250846040830152608060608301526144d7608083018486614121565b604051601f8201601f191681016001600160401b038111828210171561458a5761458a6146c2565b604052919050565b60006001600160401b038211156145ab576145ab6146c2565b5060051b60200190565b60006001600160401b038211156145ce576145ce6146c2565b50601f01601f191660200190565b600082198211156145ef576145ef6146ac565b500190565b600081600019048311821515161561460e5761460e6146ac565b500290565b600082821015614625576146256146ac565b500390565b60005b8381101561464557818101518382015260200161462d565b838111156117bb5750506000910152565b600181811c9082168061466a57607f821691505b6020821081141561468b57634e487b7160e01b600052602260045260246000fd5b50919050565b60006000198214156146a5576146a56146ac565b5060010190565b634e487b7160e01b600052601160045260246000fd5b634e487b7160e01b600052604160045260246000fd5b6001600160a01b03811681146120a357600080fd5b6001600160e01b0319811681146120a357600080fdfea2646970667358221220e09c0932dfac39fbbe5a3f9aee404c599b1ff9350c7fe861368c809c5423522564736f6c63430008040033",
  "devdoc": {
    "kind": "dev",
    "methods": {
      "approve(address,uint256)": {
        "details": "See {IERC721-approve}."
      },
      "balanceOf(address)": {
        "details": "See {IERC721-balanceOf}."
      },
      "estimateSendBatchFee(uint16,bytes,uint256[],bool,bytes)": {
        "details": "estimate send token `_tokenId` to (`_dstChainId`, `_toAddress`) _dstChainId - L0 defined chain id to send tokens too _toAddress - dynamic bytes array which contains the address to whom you are sending tokens to on the dstChain _tokenIds[] - token Ids to transfer _useZro - indicates to use zro to pay L0 fees _adapterParams - flexible bytes array to indicate messaging adapter services in L0"
      },
      "estimateSendFee(uint16,bytes,uint256,bool,bytes)": {
        "details": "estimate send token `_tokenId` to (`_dstChainId`, `_toAddress`) _dstChainId - L0 defined chain id to send tokens too _toAddress - dynamic bytes array which contains the address to whom you are sending tokens to on the dstChain _tokenId - token Id to transfer _useZro - indicates to use zro to pay L0 fees _adapterParams - flexible bytes array to indicate messaging adapter services in L0"
      },
      "getApproved(uint256)": {
        "details": "See {IERC721-getApproved}."
      },
      "isApprovedForAll(address,address)": {
        "details": "See {IERC721-isApprovedForAll}."
      },
      "name()": {
        "details": "See {IERC721Metadata-name}."
      },
      "owner()": {
        "details": "Returns the address of the current owner."
      },
      "ownerOf(uint256)": {
        "details": "See {IERC721-ownerOf}."
      },
      "renounceOwnership()": {
        "details": "Leaves the contract without owner. It will not be possible to call `onlyOwner` functions anymore. Can only be called by the current owner. NOTE: Renouncing ownership will leave the contract without an owner, thereby removing any functionality that is only available to the owner."
      },
      "safeTransferFrom(address,address,uint256)": {
        "details": "See {IERC721-safeTransferFrom}."
      },
      "safeTransferFrom(address,address,uint256,bytes)": {
        "details": "See {IERC721-safeTransferFrom}."
      },
      "sendBatchFrom(address,uint16,bytes,uint256[],address,address,bytes)": {
        "details": "send tokens `_tokenIds[]` to (`_dstChainId`, `_toAddress`) from `_from` `_toAddress` can be any size depending on the `dstChainId`. `_zroPaymentAddress` set to address(0x0) if not paying in ZRO (LayerZero Token) `_adapterParams` is a flexible bytes array to indicate messaging adapter services"
      },
      "sendFrom(address,uint16,bytes,uint256,address,address,bytes)": {
        "details": "send token `_tokenId` to (`_dstChainId`, `_toAddress`) from `_from` `_toAddress` can be any size depending on the `dstChainId`. `_zroPaymentAddress` set to address(0x0) if not paying in ZRO (LayerZero Token) `_adapterParams` is a flexible bytes array to indicate messaging adapter services"
      },
      "setApprovalForAll(address,bool)": {
        "details": "See {IERC721-setApprovalForAll}."
      },
      "symbol()": {
        "details": "See {IERC721Metadata-symbol}."
      },
      "tokenURI(uint256)": {
        "details": "See {IERC721Metadata-tokenURI}."
      },
      "transferFrom(address,address,uint256)": {
        "details": "See {IERC721-transferFrom}."
      },
      "transferOwnership(address)": {
        "details": "Transfers ownership of the contract to a new account (`newOwner`). Can only be called by the current owner."
      }
    },
    "version": 1
  },
  "userdoc": {
    "kind": "user",
    "methods": {},
    "version": 1
  },
  "storageLayout": {
    "storage": [
      {
        "astId": 2435,
        "contract": "contracts/LilPudgysONFT.sol:LilPudgysONFT",
        "label": "_owner",
        "offset": 0,
        "slot": "0",
        "type": "t_address"
      },
      {
        "astId": 212,
        "contract": "contracts/LilPudgysONFT.sol:LilPudgysONFT",
        "label": "trustedRemoteLookup",
        "offset": 0,
        "slot": "1",
        "type": "t_mapping(t_uint16,t_bytes_storage)"
      },
      {
        "astId": 218,
        "contract": "contracts/LilPudgysONFT.sol:LilPudgysONFT",
        "label": "minDstGasLookup",
        "offset": 0,
        "slot": "2",
        "type": "t_mapping(t_uint16,t_mapping(t_uint16,t_uint256))"
      },
      {
        "astId": 220,
        "contract": "contracts/LilPudgysONFT.sol:LilPudgysONFT",
        "label": "precrime",
        "offset": 0,
        "slot": "3",
        "type": "t_address"
      },
      {
        "astId": 705,
        "contract": "contracts/LilPudgysONFT.sol:LilPudgysONFT",
        "label": "failedMessages",
        "offset": 0,
        "slot": "4",
        "type": "t_mapping(t_uint16,t_mapping(t_bytes_memory_ptr,t_mapping(t_uint64,t_bytes32)))"
      },
      {
        "astId": 1222,
        "contract": "contracts/LilPudgysONFT.sol:LilPudgysONFT",
        "label": "minGasToTransferAndStore",
        "offset": 0,
        "slot": "5",
        "type": "t_uint256"
      },
      {
        "astId": 1226,
        "contract": "contracts/LilPudgysONFT.sol:LilPudgysONFT",
        "label": "dstChainIdToBatchLimit",
        "offset": 0,
        "slot": "6",
        "type": "t_mapping(t_uint16,t_uint256)"
      },
      {
        "astId": 1230,
        "contract": "contracts/LilPudgysONFT.sol:LilPudgysONFT",
        "label": "dstChainIdToTransferGas",
        "offset": 0,
        "slot": "7",
        "type": "t_mapping(t_uint16,t_uint256)"
      },
      {
        "astId": 1235,
        "contract": "contracts/LilPudgysONFT.sol:LilPudgysONFT",
        "label": "storedCredits",
        "offset": 0,
        "slot": "8",
        "type": "t_mapping(t_bytes32,t_struct(StoredCredit)1220_storage)"
      },
      {
        "astId": 2566,
        "contract": "contracts/LilPudgysONFT.sol:LilPudgysONFT",
        "label": "_name",
        "offset": 0,
        "slot": "9",
        "type": "t_string_storage"
      },
      {
        "astId": 2568,
        "contract": "contracts/LilPudgysONFT.sol:LilPudgysONFT",
        "label": "_symbol",
        "offset": 0,
        "slot": "10",
        "type": "t_string_storage"
      },
      {
        "astId": 2572,
        "contract": "contracts/LilPudgysONFT.sol:LilPudgysONFT",
        "label": "_owners",
        "offset": 0,
        "slot": "11",
        "type": "t_mapping(t_uint256,t_address)"
      },
      {
        "astId": 2576,
        "contract": "contracts/LilPudgysONFT.sol:LilPudgysONFT",
        "label": "_balances",
        "offset": 0,
        "slot": "12",
        "type": "t_mapping(t_address,t_uint256)"
      },
      {
        "astId": 2580,
        "contract": "contracts/LilPudgysONFT.sol:LilPudgysONFT",
        "label": "_tokenApprovals",
        "offset": 0,
        "slot": "13",
        "type": "t_mapping(t_uint256,t_address)"
      },
      {
        "astId": 2586,
        "contract": "contracts/LilPudgysONFT.sol:LilPudgysONFT",
        "label": "_operatorApprovals",
        "offset": 0,
        "slot": "14",
        "type": "t_mapping(t_address,t_mapping(t_address,t_bool))"
      },
      {
        "astId": 5276,
        "contract": "contracts/LilPudgysONFT.sol:LilPudgysONFT",
        "label": "baseTokenURI",
        "offset": 0,
        "slot": "15",
        "type": "t_string_storage"
      }
    ],
    "types": {
      "t_address": {
        "encoding": "inplace",
        "label": "address",
        "numberOfBytes": "20"
      },
      "t_bool": {
        "encoding": "inplace",
        "label": "bool",
        "numberOfBytes": "1"
      },
      "t_bytes32": {
        "encoding": "inplace",
        "label": "bytes32",
        "numberOfBytes": "32"
      },
      "t_bytes_memory_ptr": {
        "encoding": "bytes",
        "label": "bytes",
        "numberOfBytes": "32"
      },
      "t_bytes_storage": {
        "encoding": "bytes",
        "label": "bytes",
        "numberOfBytes": "32"
      },
      "t_mapping(t_address,t_bool)": {
        "encoding": "mapping",
        "key": "t_address",
        "label": "mapping(address => bool)",
        "numberOfBytes": "32",
        "value": "t_bool"
      },
      "t_mapping(t_address,t_mapping(t_address,t_bool))": {
        "encoding": "mapping",
        "key": "t_address",
        "label": "mapping(address => mapping(address => bool))",
        "numberOfBytes": "32",
        "value": "t_mapping(t_address,t_bool)"
      },
      "t_mapping(t_address,t_uint256)": {
        "encoding": "mapping",
        "key": "t_address",
        "label": "mapping(address => uint256)",
        "numberOfBytes": "32",
        "value": "t_uint256"
      },
      "t_mapping(t_bytes32,t_struct(StoredCredit)1220_storage)": {
        "encoding": "mapping",
        "key": "t_bytes32",
        "label": "mapping(bytes32 => struct ONFT721Core.StoredCredit)",
        "numberOfBytes": "32",
        "value": "t_struct(StoredCredit)1220_storage"
      },
      "t_mapping(t_bytes_memory_ptr,t_mapping(t_uint64,t_bytes32))": {
        "encoding": "mapping",
        "key": "t_bytes_memory_ptr",
        "label": "mapping(bytes => mapping(uint64 => bytes32))",
        "numberOfBytes": "32",
        "value": "t_mapping(t_uint64,t_bytes32)"
      },
      "t_mapping(t_uint16,t_bytes_storage)": {
        "encoding": "mapping",
        "key": "t_uint16",
        "label": "mapping(uint16 => bytes)",
        "numberOfBytes": "32",
        "value": "t_bytes_storage"
      },
      "t_mapping(t_uint16,t_mapping(t_bytes_memory_ptr,t_mapping(t_uint64,t_bytes32)))": {
        "encoding": "mapping",
        "key": "t_uint16",
        "label": "mapping(uint16 => mapping(bytes => mapping(uint64 => bytes32)))",
        "numberOfBytes": "32",
        "value": "t_mapping(t_bytes_memory_ptr,t_mapping(t_uint64,t_bytes32))"
      },
      "t_mapping(t_uint16,t_mapping(t_uint16,t_uint256))": {
        "encoding": "mapping",
        "key": "t_uint16",
        "label": "mapping(uint16 => mapping(uint16 => uint256))",
        "numberOfBytes": "32",
        "value": "t_mapping(t_uint16,t_uint256)"
      },
      "t_mapping(t_uint16,t_uint256)": {
        "encoding": "mapping",
        "key": "t_uint16",
        "label": "mapping(uint16 => uint256)",
        "numberOfBytes": "32",
        "value": "t_uint256"
      },
      "t_mapping(t_uint256,t_address)": {
        "encoding": "mapping",
        "key": "t_uint256",
        "label": "mapping(uint256 => address)",
        "numberOfBytes": "32",
        "value": "t_address"
      },
      "t_mapping(t_uint64,t_bytes32)": {
        "encoding": "mapping",
        "key": "t_uint64",
        "label": "mapping(uint64 => bytes32)",
        "numberOfBytes": "32",
        "value": "t_bytes32"
      },
      "t_string_storage": {
        "encoding": "bytes",
        "label": "string",
        "numberOfBytes": "32"
      },
      "t_struct(StoredCredit)1220_storage": {
        "encoding": "inplace",
        "label": "struct ONFT721Core.StoredCredit",
        "members": [
          {
            "astId": 1213,
            "contract": "contracts/LilPudgysONFT.sol:LilPudgysONFT",
            "label": "srcChainId",
            "offset": 0,
            "slot": "0",
            "type": "t_uint16"
          },
          {
            "astId": 1215,
            "contract": "contracts/LilPudgysONFT.sol:LilPudgysONFT",
            "label": "toAddress",
            "offset": 2,
            "slot": "0",
            "type": "t_address"
          },
          {
            "astId": 1217,
            "contract": "contracts/LilPudgysONFT.sol:LilPudgysONFT",
            "label": "index",
            "offset": 0,
            "slot": "1",
            "type": "t_uint256"
          },
          {
            "astId": 1219,
            "contract": "contracts/LilPudgysONFT.sol:LilPudgysONFT",
            "label": "creditsRemain",
            "offset": 0,
            "slot": "2",
            "type": "t_bool"
          }
        ],
        "numberOfBytes": "96"
      },
      "t_uint16": {
        "encoding": "inplace",
        "label": "uint16",
        "numberOfBytes": "2"
      },
      "t_uint256": {
        "encoding": "inplace",
        "label": "uint256",
        "numberOfBytes": "32"
      },
      "t_uint64": {
        "encoding": "inplace",
        "label": "uint64",
        "numberOfBytes": "8"
      }
    }
  }
}