{
    "contractName": "SpheraKitBag",
    "abi": [
        {
            "inputs": [
                {
                    "internalType": "uint256",
                    "name": "_maxSupply",
                    "type": "uint256"
                },
                {
                    "internalType": "address payable",
                    "name": "_withdrawAddress",
                    "type": "address"
                },
                {
                    "internalType": "uint256",
                    "name": "_minGasToStore",
                    "type": "uint256"
                },
                {
                    "internalType": "address",
                    "name": "_lzEndpoint",
                    "type": "address"
                }
            ],
            "stateMutability": "nonpayable",
            "type": "constructor"
        },
        {
            "inputs": [],
            "name": "ApprovalCallerNotOwnerNorApproved",
            "type": "error"
        },
        {
            "inputs": [],
            "name": "ApprovalQueryForNonexistentToken",
            "type": "error"
        },
        {
            "inputs": [],
            "name": "BagRedeemerNotSet",
            "type": "error"
        },
        {
            "inputs": [],
            "name": "BalanceQueryForZeroAddress",
            "type": "error"
        },
        {
            "inputs": [],
            "name": "InitialTransferLockOn",
            "type": "error"
        },
        {
            "inputs": [],
            "name": "InsufficientFunds",
            "type": "error"
        },
        {
            "inputs": [],
            "name": "InvalidPeriodSetup",
            "type": "error"
        },
        {
            "inputs": [],
            "name": "MaxPeriodMintSupplyReached",
            "type": "error"
        },
        {
            "inputs": [],
            "name": "MintERC2309QuantityExceedsLimit",
            "type": "error"
        },
        {
            "inputs": [],
            "name": "MintToZeroAddress",
            "type": "error"
        },
        {
            "inputs": [],
            "name": "MintZeroQuantity",
            "type": "error"
        },
        {
            "inputs": [],
            "name": "MintingTooMuchInPeriod",
            "type": "error"
        },
        {
            "inputs": [],
            "name": "NotAllowedByRegistry",
            "type": "error"
        },
        {
            "inputs": [],
            "name": "OverMaxSupply",
            "type": "error"
        },
        {
            "inputs": [],
            "name": "OwnerQueryForNonexistentToken",
            "type": "error"
        },
        {
            "inputs": [],
            "name": "OwnershipNotInitializedForExtraData",
            "type": "error"
        },
        {
            "inputs": [],
            "name": "PeriodNotOpen",
            "type": "error"
        },
        {
            "inputs": [],
            "name": "RedeemBagNotOpen",
            "type": "error"
        },
        {
            "inputs": [],
            "name": "RegistryNotSet",
            "type": "error"
        },
        {
            "inputs": [],
            "name": "TransferCallerNotOwnerNorApproved",
            "type": "error"
        },
        {
            "inputs": [],
            "name": "TransferFromIncorrectOwner",
            "type": "error"
        },
        {
            "inputs": [],
            "name": "TransferToNonERC721ReceiverImplementer",
            "type": "error"
        },
        {
            "inputs": [],
            "name": "TransferToZeroAddress",
            "type": "error"
        },
        {
            "inputs": [],
            "name": "URIQueryForNonexistentToken",
            "type": "error"
        },
        {
            "inputs": [],
            "name": "WithdrawFailed",
            "type": "error"
        },
        {
            "anonymous": false,
            "inputs": [
                {
                    "indexed": true,
                    "internalType": "address",
                    "name": "owner",
                    "type": "address"
                },
                {
                    "indexed": true,
                    "internalType": "address",
                    "name": "approved",
                    "type": "address"
                },
                {
                    "indexed": true,
                    "internalType": "uint256",
                    "name": "tokenId",
                    "type": "uint256"
                }
            ],
            "name": "Approval",
            "type": "event"
        },
        {
            "anonymous": false,
            "inputs": [
                {
                    "indexed": true,
                    "internalType": "address",
                    "name": "owner",
                    "type": "address"
                },
                {
                    "indexed": true,
                    "internalType": "address",
                    "name": "operator",
                    "type": "address"
                },
                {
                    "indexed": false,
                    "internalType": "bool",
                    "name": "approved",
                    "type": "bool"
                }
            ],
            "name": "ApprovalForAll",
            "type": "event"
        },
        {
            "anonymous": false,
            "inputs": [
                {
                    "indexed": true,
                    "internalType": "uint256",
                    "name": "fromTokenId",
                    "type": "uint256"
                },
                {
                    "indexed": false,
                    "internalType": "uint256",
                    "name": "toTokenId",
                    "type": "uint256"
                },
                {
                    "indexed": true,
                    "internalType": "address",
                    "name": "from",
                    "type": "address"
                },
                {
                    "indexed": true,
                    "internalType": "address",
                    "name": "to",
                    "type": "address"
                }
            ],
            "name": "ConsecutiveTransfer",
            "type": "event"
        },
        {
            "anonymous": false,
            "inputs": [
                {
                    "indexed": false,
                    "internalType": "bytes32",
                    "name": "_hashedPayload",
                    "type": "bytes32"
                }
            ],
            "name": "CreditCleared",
            "type": "event"
        },
        {
            "anonymous": false,
            "inputs": [
                {
                    "indexed": false,
                    "internalType": "bytes32",
                    "name": "_hashedPayload",
                    "type": "bytes32"
                },
                {
                    "indexed": false,
                    "internalType": "bytes",
                    "name": "_payload",
                    "type": "bytes"
                }
            ],
            "name": "CreditStored",
            "type": "event"
        },
        {
            "anonymous": false,
            "inputs": [
                {
                    "indexed": false,
                    "internalType": "uint16",
                    "name": "_srcChainId",
                    "type": "uint16"
                },
                {
                    "indexed": false,
                    "internalType": "bytes",
                    "name": "_srcAddress",
                    "type": "bytes"
                },
                {
                    "indexed": false,
                    "internalType": "uint64",
                    "name": "_nonce",
                    "type": "uint64"
                },
                {
                    "indexed": false,
                    "internalType": "bytes",
                    "name": "_payload",
                    "type": "bytes"
                },
                {
                    "indexed": false,
                    "internalType": "bytes",
                    "name": "_reason",
                    "type": "bytes"
                }
            ],
            "name": "MessageFailed",
            "type": "event"
        },
        {
            "anonymous": false,
            "inputs": [
                {
                    "indexed": true,
                    "internalType": "address",
                    "name": "previousOwner",
                    "type": "address"
                },
                {
                    "indexed": true,
                    "internalType": "address",
                    "name": "newOwner",
                    "type": "address"
                }
            ],
            "name": "OwnershipTransferred",
            "type": "event"
        },
        {
            "anonymous": false,
            "inputs": [
                {
                    "indexed": true,
                    "internalType": "address",
                    "name": "minter",
                    "type": "address"
                },
                {
                    "indexed": false,
                    "internalType": "uint256",
                    "name": "period",
                    "type": "uint256"
                },
                {
                    "indexed": true,
                    "internalType": "uint16",
                    "name": "amount",
                    "type": "uint16"
                }
            ],
            "name": "PeriodMint",
            "type": "event"
        },
        {
            "anonymous": false,
            "inputs": [
                {
                    "indexed": true,
                    "internalType": "uint16",
                    "name": "_srcChainId",
                    "type": "uint16"
                },
                {
                    "indexed": true,
                    "internalType": "bytes",
                    "name": "_srcAddress",
                    "type": "bytes"
                },
                {
                    "indexed": true,
                    "internalType": "address",
                    "name": "_toAddress",
                    "type": "address"
                },
                {
                    "indexed": false,
                    "internalType": "uint256[]",
                    "name": "_tokenIds",
                    "type": "uint256[]"
                }
            ],
            "name": "ReceiveFromChain",
            "type": "event"
        },
        {
            "anonymous": false,
            "inputs": [
                {
                    "indexed": false,
                    "internalType": "uint16",
                    "name": "_srcChainId",
                    "type": "uint16"
                },
                {
                    "indexed": false,
                    "internalType": "bytes",
                    "name": "_srcAddress",
                    "type": "bytes"
                },
                {
                    "indexed": false,
                    "internalType": "uint64",
                    "name": "_nonce",
                    "type": "uint64"
                },
                {
                    "indexed": false,
                    "internalType": "bytes32",
                    "name": "_payloadHash",
                    "type": "bytes32"
                }
            ],
            "name": "RetryMessageSuccess",
            "type": "event"
        },
        {
            "anonymous": false,
            "inputs": [
                {
                    "indexed": true,
                    "internalType": "uint16",
                    "name": "_dstChainId",
                    "type": "uint16"
                },
                {
                    "indexed": true,
                    "internalType": "address",
                    "name": "_from",
                    "type": "address"
                },
                {
                    "indexed": true,
                    "internalType": "bytes",
                    "name": "_toAddress",
                    "type": "bytes"
                },
                {
                    "indexed": false,
                    "internalType": "uint256[]",
                    "name": "_tokenIds",
                    "type": "uint256[]"
                }
            ],
            "name": "SendToChain",
            "type": "event"
        },
        {
            "anonymous": false,
            "inputs": [
                {
                    "indexed": false,
                    "internalType": "uint16",
                    "name": "_dstChainId",
                    "type": "uint16"
                },
                {
                    "indexed": false,
                    "internalType": "uint256",
                    "name": "_dstChainIdToBatchLimit",
                    "type": "uint256"
                }
            ],
            "name": "SetDstChainIdToBatchLimit",
            "type": "event"
        },
        {
            "anonymous": false,
            "inputs": [
                {
                    "indexed": false,
                    "internalType": "uint16",
                    "name": "_dstChainId",
                    "type": "uint16"
                },
                {
                    "indexed": false,
                    "internalType": "uint256",
                    "name": "_dstChainIdToTransferGas",
                    "type": "uint256"
                }
            ],
            "name": "SetDstChainIdToTransferGas",
            "type": "event"
        },
        {
            "anonymous": false,
            "inputs": [
                {
                    "indexed": false,
                    "internalType": "uint16",
                    "name": "_dstChainId",
                    "type": "uint16"
                },
                {
                    "indexed": false,
                    "internalType": "uint16",
                    "name": "_type",
                    "type": "uint16"
                },
                {
                    "indexed": false,
                    "internalType": "uint256",
                    "name": "_minDstGas",
                    "type": "uint256"
                }
            ],
            "name": "SetMinDstGas",
            "type": "event"
        },
        {
            "anonymous": false,
            "inputs": [
                {
                    "indexed": false,
                    "internalType": "uint256",
                    "name": "_minGasToTransferAndStore",
                    "type": "uint256"
                }
            ],
            "name": "SetMinGasToTransferAndStore",
            "type": "event"
        },
        {
            "anonymous": false,
            "inputs": [
                {
                    "indexed": false,
                    "internalType": "address",
                    "name": "precrime",
                    "type": "address"
                }
            ],
            "name": "SetPrecrime",
            "type": "event"
        },
        {
            "anonymous": false,
            "inputs": [
                {
                    "indexed": false,
                    "internalType": "uint16",
                    "name": "_remoteChainId",
                    "type": "uint16"
                },
                {
                    "indexed": false,
                    "internalType": "bytes",
                    "name": "_path",
                    "type": "bytes"
                }
            ],
            "name": "SetTrustedRemote",
            "type": "event"
        },
        {
            "anonymous": false,
            "inputs": [
                {
                    "indexed": false,
                    "internalType": "uint16",
                    "name": "_remoteChainId",
                    "type": "uint16"
                },
                {
                    "indexed": false,
                    "internalType": "bytes",
                    "name": "_remoteAddress",
                    "type": "bytes"
                }
            ],
            "name": "SetTrustedRemoteAddress",
            "type": "event"
        },
        {
            "anonymous": false,
            "inputs": [
                {
                    "indexed": true,
                    "internalType": "address",
                    "name": "from",
                    "type": "address"
                },
                {
                    "indexed": true,
                    "internalType": "address",
                    "name": "to",
                    "type": "address"
                },
                {
                    "indexed": true,
                    "internalType": "uint256",
                    "name": "tokenId",
                    "type": "uint256"
                }
            ],
            "name": "Transfer",
            "type": "event"
        },
        {
            "inputs": [],
            "name": "DEFAULT_PAYLOAD_SIZE_LIMIT",
            "outputs": [
                {
                    "internalType": "uint256",
                    "name": "",
                    "type": "uint256"
                }
            ],
            "stateMutability": "view",
            "type": "function"
        },
        {
            "inputs": [],
            "name": "FCFS_PERIOD",
            "outputs": [
                {
                    "internalType": "uint256",
                    "name": "",
                    "type": "uint256"
                }
            ],
            "stateMutability": "view",
            "type": "function"
        },
        {
            "inputs": [],
            "name": "FUNCTION_TYPE_SEND",
            "outputs": [
                {
                    "internalType": "uint16",
                    "name": "",
                    "type": "uint16"
                }
            ],
            "stateMutability": "view",
            "type": "function"
        },
        {
            "inputs": [],
            "name": "GTD_PERIOD",
            "outputs": [
                {
                    "internalType": "uint256",
                    "name": "",
                    "type": "uint256"
                }
            ],
            "stateMutability": "view",
            "type": "function"
        },
        {
            "inputs": [],
            "name": "MAX_SUPPLY",
            "outputs": [
                {
                    "internalType": "uint256",
                    "name": "",
                    "type": "uint256"
                }
            ],
            "stateMutability": "view",
            "type": "function"
        },
        {
            "inputs": [],
            "name": "MINT_BATCH_SIZE",
            "outputs": [
                {
                    "internalType": "uint256",
                    "name": "",
                    "type": "uint256"
                }
            ],
            "stateMutability": "view",
            "type": "function"
        },
        {
            "inputs": [],
            "name": "PUBLIC_PERIOD",
            "outputs": [
                {
                    "internalType": "uint256",
                    "name": "",
                    "type": "uint256"
                }
            ],
            "stateMutability": "view",
            "type": "function"
        },
        {
            "inputs": [],
            "name": "WITHDRAW_ADDRESS",
            "outputs": [
                {
                    "internalType": "address payable",
                    "name": "",
                    "type": "address"
                }
            ],
            "stateMutability": "view",
            "type": "function"
        },
        {
            "inputs": [
                {
                    "internalType": "address",
                    "name": "operator",
                    "type": "address"
                },
                {
                    "internalType": "uint256",
                    "name": "tokenId",
                    "type": "uint256"
                }
            ],
            "name": "approve",
            "outputs": [],
            "stateMutability": "payable",
            "type": "function"
        },
        {
            "inputs": [
                {
                    "internalType": "address",
                    "name": "owner",
                    "type": "address"
                }
            ],
            "name": "balanceOf",
            "outputs": [
                {
                    "internalType": "uint256",
                    "name": "",
                    "type": "uint256"
                }
            ],
            "stateMutability": "view",
            "type": "function"
        },
        {
            "inputs": [],
            "name": "breakTransferLock",
            "outputs": [],
            "stateMutability": "nonpayable",
            "type": "function"
        },
        {
            "inputs": [
                {
                    "internalType": "bytes",
                    "name": "_payload",
                    "type": "bytes"
                }
            ],
            "name": "clearCredits",
            "outputs": [],
            "stateMutability": "nonpayable",
            "type": "function"
        },
        {
            "inputs": [
                {
                    "internalType": "uint16",
                    "name": "",
                    "type": "uint16"
                }
            ],
            "name": "dstChainIdToBatchLimit",
            "outputs": [
                {
                    "internalType": "uint256",
                    "name": "",
                    "type": "uint256"
                }
            ],
            "stateMutability": "view",
            "type": "function"
        },
        {
            "inputs": [
                {
                    "internalType": "uint16",
                    "name": "",
                    "type": "uint16"
                }
            ],
            "name": "dstChainIdToTransferGas",
            "outputs": [
                {
                    "internalType": "uint256",
                    "name": "",
                    "type": "uint256"
                }
            ],
            "stateMutability": "view",
            "type": "function"
        },
        {
            "inputs": [
                {
                    "internalType": "uint16",
                    "name": "_dstChainId",
                    "type": "uint16"
                },
                {
                    "internalType": "bytes",
                    "name": "_toAddress",
                    "type": "bytes"
                },
                {
                    "internalType": "uint256[]",
                    "name": "_tokenIds",
                    "type": "uint256[]"
                },
                {
                    "internalType": "bool",
                    "name": "_useZro",
                    "type": "bool"
                },
                {
                    "internalType": "bytes",
                    "name": "_adapterParams",
                    "type": "bytes"
                }
            ],
            "name": "estimateSendBatchFee",
            "outputs": [
                {
                    "internalType": "uint256",
                    "name": "nativeFee",
                    "type": "uint256"
                },
                {
                    "internalType": "uint256",
                    "name": "zroFee",
                    "type": "uint256"
                }
            ],
            "stateMutability": "view",
            "type": "function"
        },
        {
            "inputs": [
                {
                    "internalType": "uint16",
                    "name": "_dstChainId",
                    "type": "uint16"
                },
                {
                    "internalType": "bytes",
                    "name": "_toAddress",
                    "type": "bytes"
                },
                {
                    "internalType": "uint256",
                    "name": "_tokenId",
                    "type": "uint256"
                },
                {
                    "internalType": "bool",
                    "name": "_useZro",
                    "type": "bool"
                },
                {
                    "internalType": "bytes",
                    "name": "_adapterParams",
                    "type": "bytes"
                }
            ],
            "name": "estimateSendFee",
            "outputs": [
                {
                    "internalType": "uint256",
                    "name": "nativeFee",
                    "type": "uint256"
                },
                {
                    "internalType": "uint256",
                    "name": "zroFee",
                    "type": "uint256"
                }
            ],
            "stateMutability": "view",
            "type": "function"
        },
        {
            "inputs": [
                {
                    "internalType": "uint16",
                    "name": "",
                    "type": "uint16"
                },
                {
                    "internalType": "bytes",
                    "name": "",
                    "type": "bytes"
                },
                {
                    "internalType": "uint64",
                    "name": "",
                    "type": "uint64"
                }
            ],
            "name": "failedMessages",
            "outputs": [
                {
                    "internalType": "bytes32",
                    "name": "",
                    "type": "bytes32"
                }
            ],
            "stateMutability": "view",
            "type": "function"
        },
        {
            "inputs": [
                {
                    "internalType": "bytes32[]",
                    "name": "_merkleProof",
                    "type": "bytes32[]"
                },
                {
                    "internalType": "address",
                    "name": "addr",
                    "type": "address"
                }
            ],
            "name": "fcfs_validateAddress",
            "outputs": [
                {
                    "internalType": "bool",
                    "name": "",
                    "type": "bool"
                }
            ],
            "stateMutability": "view",
            "type": "function"
        },
        {
            "inputs": [
                {
                    "internalType": "uint16",
                    "name": "_srcChainId",
                    "type": "uint16"
                },
                {
                    "internalType": "bytes",
                    "name": "_srcAddress",
                    "type": "bytes"
                }
            ],
            "name": "forceResumeReceive",
            "outputs": [],
            "stateMutability": "nonpayable",
            "type": "function"
        },
        {
            "inputs": [
                {
                    "internalType": "uint256",
                    "name": "tokenId",
                    "type": "uint256"
                }
            ],
            "name": "getApproved",
            "outputs": [
                {
                    "internalType": "address",
                    "name": "",
                    "type": "address"
                }
            ],
            "stateMutability": "view",
            "type": "function"
        },
        {
            "inputs": [
                {
                    "internalType": "uint16",
                    "name": "_version",
                    "type": "uint16"
                },
                {
                    "internalType": "uint16",
                    "name": "_chainId",
                    "type": "uint16"
                },
                {
                    "internalType": "address",
                    "name": "",
                    "type": "address"
                },
                {
                    "internalType": "uint256",
                    "name": "_configType",
                    "type": "uint256"
                }
            ],
            "name": "getConfig",
            "outputs": [
                {
                    "internalType": "bytes",
                    "name": "",
                    "type": "bytes"
                }
            ],
            "stateMutability": "view",
            "type": "function"
        },
        {
            "inputs": [
                {
                    "internalType": "uint16",
                    "name": "_remoteChainId",
                    "type": "uint16"
                }
            ],
            "name": "getTrustedRemoteAddress",
            "outputs": [
                {
                    "internalType": "bytes",
                    "name": "",
                    "type": "bytes"
                }
            ],
            "stateMutability": "view",
            "type": "function"
        },
        {
            "inputs": [
                {
                    "internalType": "bytes32[]",
                    "name": "_merkleProof",
                    "type": "bytes32[]"
                },
                {
                    "internalType": "address",
                    "name": "addr",
                    "type": "address"
                }
            ],
            "name": "gtd_validateAddress",
            "outputs": [
                {
                    "internalType": "bool",
                    "name": "",
                    "type": "bool"
                }
            ],
            "stateMutability": "view",
            "type": "function"
        },
        {
            "inputs": [
                {
                    "internalType": "uint256",
                    "name": "",
                    "type": "uint256"
                },
                {
                    "internalType": "address",
                    "name": "",
                    "type": "address"
                }
            ],
            "name": "individualMintedInPeriod",
            "outputs": [
                {
                    "internalType": "uint256",
                    "name": "",
                    "type": "uint256"
                }
            ],
            "stateMutability": "view",
            "type": "function"
        },
        {
            "inputs": [],
            "name": "initialTransferLockOn",
            "outputs": [
                {
                    "internalType": "bool",
                    "name": "",
                    "type": "bool"
                }
            ],
            "stateMutability": "view",
            "type": "function"
        },
        {
            "inputs": [
                {
                    "internalType": "address",
                    "name": "owner",
                    "type": "address"
                },
                {
                    "internalType": "address",
                    "name": "operator",
                    "type": "address"
                }
            ],
            "name": "isApprovedForAll",
            "outputs": [
                {
                    "internalType": "bool",
                    "name": "",
                    "type": "bool"
                }
            ],
            "stateMutability": "view",
            "type": "function"
        },
        {
            "inputs": [],
            "name": "isRegistryActive",
            "outputs": [
                {
                    "internalType": "bool",
                    "name": "",
                    "type": "bool"
                }
            ],
            "stateMutability": "view",
            "type": "function"
        },
        {
            "inputs": [
                {
                    "internalType": "uint16",
                    "name": "_srcChainId",
                    "type": "uint16"
                },
                {
                    "internalType": "bytes",
                    "name": "_srcAddress",
                    "type": "bytes"
                }
            ],
            "name": "isTrustedRemote",
            "outputs": [
                {
                    "internalType": "bool",
                    "name": "",
                    "type": "bool"
                }
            ],
            "stateMutability": "view",
            "type": "function"
        },
        {
            "inputs": [],
            "name": "lzEndpoint",
            "outputs": [
                {
                    "internalType": "contract ILayerZeroEndpoint",
                    "name": "",
                    "type": "address"
                }
            ],
            "stateMutability": "view",
            "type": "function"
        },
        {
            "inputs": [
                {
                    "internalType": "uint16",
                    "name": "_srcChainId",
                    "type": "uint16"
                },
                {
                    "internalType": "bytes",
                    "name": "_srcAddress",
                    "type": "bytes"
                },
                {
                    "internalType": "uint64",
                    "name": "_nonce",
                    "type": "uint64"
                },
                {
                    "internalType": "bytes",
                    "name": "_payload",
                    "type": "bytes"
                }
            ],
            "name": "lzReceive",
            "outputs": [],
            "stateMutability": "nonpayable",
            "type": "function"
        },
        {
            "inputs": [
                {
                    "internalType": "uint16",
                    "name": "",
                    "type": "uint16"
                },
                {
                    "internalType": "uint16",
                    "name": "",
                    "type": "uint16"
                }
            ],
            "name": "minDstGasLookup",
            "outputs": [
                {
                    "internalType": "uint256",
                    "name": "",
                    "type": "uint256"
                }
            ],
            "stateMutability": "view",
            "type": "function"
        },
        {
            "inputs": [],
            "name": "minGasToTransferAndStore",
            "outputs": [
                {
                    "internalType": "uint256",
                    "name": "",
                    "type": "uint256"
                }
            ],
            "stateMutability": "view",
            "type": "function"
        },
        {
            "inputs": [],
            "name": "name",
            "outputs": [
                {
                    "internalType": "string",
                    "name": "",
                    "type": "string"
                }
            ],
            "stateMutability": "view",
            "type": "function"
        },
        {
            "inputs": [
                {
                    "internalType": "uint16",
                    "name": "_srcChainId",
                    "type": "uint16"
                },
                {
                    "internalType": "bytes",
                    "name": "_srcAddress",
                    "type": "bytes"
                },
                {
                    "internalType": "uint64",
                    "name": "_nonce",
                    "type": "uint64"
                },
                {
                    "internalType": "bytes",
                    "name": "_payload",
                    "type": "bytes"
                }
            ],
            "name": "nonblockingLzReceive",
            "outputs": [],
            "stateMutability": "nonpayable",
            "type": "function"
        },
        {
            "inputs": [
                {
                    "internalType": "address",
                    "name": "",
                    "type": "address"
                },
                {
                    "internalType": "address",
                    "name": "",
                    "type": "address"
                },
                {
                    "internalType": "uint256",
                    "name": "",
                    "type": "uint256"
                },
                {
                    "internalType": "bytes",
                    "name": "",
                    "type": "bytes"
                }
            ],
            "name": "onERC721Received",
            "outputs": [
                {
                    "internalType": "bytes4",
                    "name": "",
                    "type": "bytes4"
                }
            ],
            "stateMutability": "nonpayable",
            "type": "function"
        },
        {
            "inputs": [
                {
                    "internalType": "uint256",
                    "name": "_period",
                    "type": "uint256"
                }
            ],
            "name": "openPeriod",
            "outputs": [],
            "stateMutability": "nonpayable",
            "type": "function"
        },
        {
            "inputs": [],
            "name": "openRedeemBagState",
            "outputs": [],
            "stateMutability": "nonpayable",
            "type": "function"
        },
        {
            "inputs": [],
            "name": "operatorFilteringEnabled",
            "outputs": [
                {
                    "internalType": "bool",
                    "name": "",
                    "type": "bool"
                }
            ],
            "stateMutability": "view",
            "type": "function"
        },
        {
            "inputs": [],
            "name": "owner",
            "outputs": [
                {
                    "internalType": "address",
                    "name": "",
                    "type": "address"
                }
            ],
            "stateMutability": "view",
            "type": "function"
        },
        {
            "inputs": [
                {
                    "internalType": "uint256",
                    "name": "tokenId",
                    "type": "uint256"
                }
            ],
            "name": "ownerOf",
            "outputs": [
                {
                    "internalType": "address",
                    "name": "",
                    "type": "address"
                }
            ],
            "stateMutability": "view",
            "type": "function"
        },
        {
            "inputs": [
                {
                    "internalType": "uint16",
                    "name": "",
                    "type": "uint16"
                }
            ],
            "name": "payloadSizeLimitLookup",
            "outputs": [
                {
                    "internalType": "uint256",
                    "name": "",
                    "type": "uint256"
                }
            ],
            "stateMutability": "view",
            "type": "function"
        },
        {
            "inputs": [],
            "name": "period",
            "outputs": [
                {
                    "internalType": "uint256",
                    "name": "",
                    "type": "uint256"
                }
            ],
            "stateMutability": "view",
            "type": "function"
        },
        {
            "inputs": [
                {
                    "internalType": "uint256",
                    "name": "",
                    "type": "uint256"
                }
            ],
            "name": "periodInfo",
            "outputs": [
                {
                    "internalType": "uint32",
                    "name": "startTime",
                    "type": "uint32"
                },
                {
                    "internalType": "uint32",
                    "name": "endTime",
                    "type": "uint32"
                },
                {
                    "internalType": "uint64",
                    "name": "price",
                    "type": "uint64"
                },
                {
                    "internalType": "uint64",
                    "name": "MAX_MINT_ALLOWED",
                    "type": "uint64"
                },
                {
                    "internalType": "uint64",
                    "name": "MAX_SUPPLY",
                    "type": "uint64"
                }
            ],
            "stateMutability": "view",
            "type": "function"
        },
        {
            "inputs": [
                {
                    "internalType": "uint256",
                    "name": "_period",
                    "type": "uint256"
                },
                {
                    "internalType": "uint16",
                    "name": "amount",
                    "type": "uint16"
                },
                {
                    "internalType": "bytes32[]",
                    "name": "proof",
                    "type": "bytes32[]"
                }
            ],
            "name": "periodMint",
            "outputs": [],
            "stateMutability": "payable",
            "type": "function"
        },
        {
            "inputs": [],
            "name": "precrime",
            "outputs": [
                {
                    "internalType": "address",
                    "name": "",
                    "type": "address"
                }
            ],
            "stateMutability": "view",
            "type": "function"
        },
        {
            "inputs": [],
            "name": "realOwner",
            "outputs": [
                {
                    "internalType": "address",
                    "name": "",
                    "type": "address"
                }
            ],
            "stateMutability": "view",
            "type": "function"
        },
        {
            "inputs": [
                {
                    "internalType": "uint256[]",
                    "name": "BagIds",
                    "type": "uint256[]"
                }
            ],
            "name": "redeemBags",
            "outputs": [
                {
                    "internalType": "uint256[]",
                    "name": "",
                    "type": "uint256[]"
                }
            ],
            "stateMutability": "nonpayable",
            "type": "function"
        },
        {
            "inputs": [],
            "name": "redeemInfo",
            "outputs": [
                {
                    "internalType": "bool",
                    "name": "redeemBagOpen",
                    "type": "bool"
                },
                {
                    "internalType": "address",
                    "name": "BagRedeemer",
                    "type": "address"
                }
            ],
            "stateMutability": "view",
            "type": "function"
        },
        {
            "inputs": [],
            "name": "registryAddress",
            "outputs": [
                {
                    "internalType": "address",
                    "name": "",
                    "type": "address"
                }
            ],
            "stateMutability": "view",
            "type": "function"
        },
        {
            "inputs": [],
            "name": "renounceOwnership",
            "outputs": [],
            "stateMutability": "nonpayable",
            "type": "function"
        },
        {
            "inputs": [
                {
                    "internalType": "uint16",
                    "name": "_srcChainId",
                    "type": "uint16"
                },
                {
                    "internalType": "bytes",
                    "name": "_srcAddress",
                    "type": "bytes"
                },
                {
                    "internalType": "uint64",
                    "name": "_nonce",
                    "type": "uint64"
                },
                {
                    "internalType": "bytes",
                    "name": "_payload",
                    "type": "bytes"
                }
            ],
            "name": "retryMessage",
            "outputs": [],
            "stateMutability": "payable",
            "type": "function"
        },
        {
            "inputs": [
                {
                    "internalType": "uint256",
                    "name": "tokenId",
                    "type": "uint256"
                },
                {
                    "internalType": "uint256",
                    "name": "salePrice",
                    "type": "uint256"
                }
            ],
            "name": "royaltyInfo",
            "outputs": [
                {
                    "internalType": "address",
                    "name": "",
                    "type": "address"
                },
                {
                    "internalType": "uint256",
                    "name": "",
                    "type": "uint256"
                }
            ],
            "stateMutability": "view",
            "type": "function"
        },
        {
            "inputs": [
                {
                    "internalType": "address",
                    "name": "from",
                    "type": "address"
                },
                {
                    "internalType": "address",
                    "name": "to",
                    "type": "address"
                },
                {
                    "internalType": "uint256",
                    "name": "tokenId",
                    "type": "uint256"
                }
            ],
            "name": "safeTransferFrom",
            "outputs": [],
            "stateMutability": "payable",
            "type": "function"
        },
        {
            "inputs": [
                {
                    "internalType": "address",
                    "name": "from",
                    "type": "address"
                },
                {
                    "internalType": "address",
                    "name": "to",
                    "type": "address"
                },
                {
                    "internalType": "uint256",
                    "name": "tokenId",
                    "type": "uint256"
                },
                {
                    "internalType": "bytes",
                    "name": "_data",
                    "type": "bytes"
                }
            ],
            "name": "safeTransferFrom",
            "outputs": [],
            "stateMutability": "payable",
            "type": "function"
        },
        {
            "inputs": [
                {
                    "internalType": "address",
                    "name": "_from",
                    "type": "address"
                },
                {
                    "internalType": "uint16",
                    "name": "_dstChainId",
                    "type": "uint16"
                },
                {
                    "internalType": "bytes",
                    "name": "_toAddress",
                    "type": "bytes"
                },
                {
                    "internalType": "uint256[]",
                    "name": "_tokenIds",
                    "type": "uint256[]"
                },
                {
                    "internalType": "address payable",
                    "name": "_refundAddress",
                    "type": "address"
                },
                {
                    "internalType": "address",
                    "name": "_zroPaymentAddress",
                    "type": "address"
                },
                {
                    "internalType": "bytes",
                    "name": "_adapterParams",
                    "type": "bytes"
                }
            ],
            "name": "sendBatchFrom",
            "outputs": [],
            "stateMutability": "payable",
            "type": "function"
        },
        {
            "inputs": [
                {
                    "internalType": "address",
                    "name": "_from",
                    "type": "address"
                },
                {
                    "internalType": "uint16",
                    "name": "_dstChainId",
                    "type": "uint16"
                },
                {
                    "internalType": "bytes",
                    "name": "_toAddress",
                    "type": "bytes"
                },
                {
                    "internalType": "uint256",
                    "name": "_tokenId",
                    "type": "uint256"
                },
                {
                    "internalType": "address payable",
                    "name": "_refundAddress",
                    "type": "address"
                },
                {
                    "internalType": "address",
                    "name": "_zroPaymentAddress",
                    "type": "address"
                },
                {
                    "internalType": "bytes",
                    "name": "_adapterParams",
                    "type": "bytes"
                }
            ],
            "name": "sendFrom",
            "outputs": [],
            "stateMutability": "payable",
            "type": "function"
        },
        {
            "inputs": [
                {
                    "internalType": "address",
                    "name": "operator",
                    "type": "address"
                },
                {
                    "internalType": "bool",
                    "name": "approved",
                    "type": "bool"
                }
            ],
            "name": "setApprovalForAll",
            "outputs": [],
            "stateMutability": "nonpayable",
            "type": "function"
        },
        {
            "inputs": [
                {
                    "internalType": "address",
                    "name": "contractAddress",
                    "type": "address"
                }
            ],
            "name": "setBagRedeemer",
            "outputs": [],
            "stateMutability": "nonpayable",
            "type": "function"
        },
        {
            "inputs": [
                {
                    "internalType": "string",
                    "name": "baseURI",
                    "type": "string"
                }
            ],
            "name": "setBaseURI",
            "outputs": [],
            "stateMutability": "nonpayable",
            "type": "function"
        },
        {
            "inputs": [
                {
                    "internalType": "uint16",
                    "name": "_version",
                    "type": "uint16"
                },
                {
                    "internalType": "uint16",
                    "name": "_chainId",
                    "type": "uint16"
                },
                {
                    "internalType": "uint256",
                    "name": "_configType",
                    "type": "uint256"
                },
                {
                    "internalType": "bytes",
                    "name": "_config",
                    "type": "bytes"
                }
            ],
            "name": "setConfig",
            "outputs": [],
            "stateMutability": "nonpayable",
            "type": "function"
        },
        {
            "inputs": [
                {
                    "internalType": "address",
                    "name": "receiver",
                    "type": "address"
                },
                {
                    "internalType": "uint96",
                    "name": "feeNumerator",
                    "type": "uint96"
                }
            ],
            "name": "setDefaultRoyalty",
            "outputs": [],
            "stateMutability": "nonpayable",
            "type": "function"
        },
        {
            "inputs": [
                {
                    "internalType": "uint16",
                    "name": "_dstChainId",
                    "type": "uint16"
                },
                {
                    "internalType": "uint256",
                    "name": "_dstChainIdToBatchLimit",
                    "type": "uint256"
                }
            ],
            "name": "setDstChainIdToBatchLimit",
            "outputs": [],
            "stateMutability": "nonpayable",
            "type": "function"
        },
        {
            "inputs": [
                {
                    "internalType": "uint16",
                    "name": "_dstChainId",
                    "type": "uint16"
                },
                {
                    "internalType": "uint256",
                    "name": "_dstChainIdToTransferGas",
                    "type": "uint256"
                }
            ],
            "name": "setDstChainIdToTransferGas",
            "outputs": [],
            "stateMutability": "nonpayable",
            "type": "function"
        },
        {
            "inputs": [
                {
                    "internalType": "bytes32",
                    "name": "_fcfsMerkleRoot",
                    "type": "bytes32"
                }
            ],
            "name": "setFcfsMerkleRoot",
            "outputs": [
                {
                    "internalType": "bytes32",
                    "name": "",
                    "type": "bytes32"
                }
            ],
            "stateMutability": "nonpayable",
            "type": "function"
        },
        {
            "inputs": [
                {
                    "internalType": "bytes32",
                    "name": "_gtdMerkleRoot",
                    "type": "bytes32"
                }
            ],
            "name": "setGtdMerkleRoot",
            "outputs": [
                {
                    "internalType": "bytes32",
                    "name": "",
                    "type": "bytes32"
                }
            ],
            "stateMutability": "nonpayable",
            "type": "function"
        },
        {
            "inputs": [
                {
                    "internalType": "bool",
                    "name": "_isRegistryActive",
                    "type": "bool"
                }
            ],
            "name": "setIsRegistryActive",
            "outputs": [],
            "stateMutability": "nonpayable",
            "type": "function"
        },
        {
            "inputs": [
                {
                    "internalType": "uint16",
                    "name": "_dstChainId",
                    "type": "uint16"
                },
                {
                    "internalType": "uint16",
                    "name": "_packetType",
                    "type": "uint16"
                },
                {
                    "internalType": "uint256",
                    "name": "_minGas",
                    "type": "uint256"
                }
            ],
            "name": "setMinDstGas",
            "outputs": [],
            "stateMutability": "nonpayable",
            "type": "function"
        },
        {
            "inputs": [
                {
                    "internalType": "uint256",
                    "name": "_minGasToTransferAndStore",
                    "type": "uint256"
                }
            ],
            "name": "setMinGasToTransferAndStore",
            "outputs": [],
            "stateMutability": "nonpayable",
            "type": "function"
        },
        {
            "inputs": [
                {
                    "internalType": "bool",
                    "name": "value",
                    "type": "bool"
                }
            ],
            "name": "setOperatorFilteringEnabled",
            "outputs": [],
            "stateMutability": "nonpayable",
            "type": "function"
        },
        {
            "inputs": [
                {
                    "internalType": "uint16",
                    "name": "_dstChainId",
                    "type": "uint16"
                },
                {
                    "internalType": "uint256",
                    "name": "_size",
                    "type": "uint256"
                }
            ],
            "name": "setPayloadSizeLimit",
            "outputs": [],
            "stateMutability": "nonpayable",
            "type": "function"
        },
        {
            "inputs": [
                {
                    "internalType": "uint256",
                    "name": "_period",
                    "type": "uint256"
                },
                {
                    "internalType": "uint32",
                    "name": "_startTime",
                    "type": "uint32"
                },
                {
                    "internalType": "uint32",
                    "name": "_endTime",
                    "type": "uint32"
                },
                {
                    "internalType": "uint64",
                    "name": "_price",
                    "type": "uint64"
                },
                {
                    "internalType": "uint64",
                    "name": "_MAX_MINT_ALLOWED",
                    "type": "uint64"
                },
                {
                    "internalType": "uint64",
                    "name": "_MAX_SUPPLY",
                    "type": "uint64"
                }
            ],
            "name": "setPeriodParams",
            "outputs": [],
            "stateMutability": "nonpayable",
            "type": "function"
        },
        {
            "inputs": [
                {
                    "internalType": "address",
                    "name": "_precrime",
                    "type": "address"
                }
            ],
            "name": "setPrecrime",
            "outputs": [],
            "stateMutability": "nonpayable",
            "type": "function"
        },
        {
            "inputs": [
                {
                    "internalType": "uint16",
                    "name": "_version",
                    "type": "uint16"
                }
            ],
            "name": "setReceiveVersion",
            "outputs": [],
            "stateMutability": "nonpayable",
            "type": "function"
        },
        {
            "inputs": [
                {
                    "internalType": "address",
                    "name": "_registryAddress",
                    "type": "address"
                }
            ],
            "name": "setRegistryAddress",
            "outputs": [],
            "stateMutability": "nonpayable",
            "type": "function"
        },
        {
            "inputs": [
                {
                    "internalType": "uint16",
                    "name": "_version",
                    "type": "uint16"
                }
            ],
            "name": "setSendVersion",
            "outputs": [],
            "stateMutability": "nonpayable",
            "type": "function"
        },
        {
            "inputs": [
                {
                    "internalType": "uint256",
                    "name": "tokenId",
                    "type": "uint256"
                },
                {
                    "internalType": "address",
                    "name": "receiver",
                    "type": "address"
                },
                {
                    "internalType": "uint96",
                    "name": "feeNumerator",
                    "type": "uint96"
                }
            ],
            "name": "setTokenRoyalty",
            "outputs": [],
            "stateMutability": "nonpayable",
            "type": "function"
        },
        {
            "inputs": [
                {
                    "internalType": "uint16",
                    "name": "_remoteChainId",
                    "type": "uint16"
                },
                {
                    "internalType": "bytes",
                    "name": "_path",
                    "type": "bytes"
                }
            ],
            "name": "setTrustedRemote",
            "outputs": [],
            "stateMutability": "nonpayable",
            "type": "function"
        },
        {
            "inputs": [
                {
                    "internalType": "uint16",
                    "name": "_remoteChainId",
                    "type": "uint16"
                },
                {
                    "internalType": "bytes",
                    "name": "_remoteAddress",
                    "type": "bytes"
                }
            ],
            "name": "setTrustedRemoteAddress",
            "outputs": [],
            "stateMutability": "nonpayable",
            "type": "function"
        },
        {
            "inputs": [
                {
                    "internalType": "bytes32",
                    "name": "",
                    "type": "bytes32"
                }
            ],
            "name": "storedCredits",
            "outputs": [
                {
                    "internalType": "uint16",
                    "name": "srcChainId",
                    "type": "uint16"
                },
                {
                    "internalType": "address",
                    "name": "toAddress",
                    "type": "address"
                },
                {
                    "internalType": "uint256",
                    "name": "index",
                    "type": "uint256"
                },
                {
                    "internalType": "bool",
                    "name": "creditsRemain",
                    "type": "bool"
                }
            ],
            "stateMutability": "view",
            "type": "function"
        },
        {
            "inputs": [
                {
                    "internalType": "bytes4",
                    "name": "interfaceId",
                    "type": "bytes4"
                }
            ],
            "name": "supportsInterface",
            "outputs": [
                {
                    "internalType": "bool",
                    "name": "",
                    "type": "bool"
                }
            ],
            "stateMutability": "view",
            "type": "function"
        },
        {
            "inputs": [],
            "name": "symbol",
            "outputs": [
                {
                    "internalType": "string",
                    "name": "",
                    "type": "string"
                }
            ],
            "stateMutability": "view",
            "type": "function"
        },
        {
            "inputs": [
                {
                    "internalType": "uint256",
                    "name": "tokenId",
                    "type": "uint256"
                }
            ],
            "name": "tokenURI",
            "outputs": [
                {
                    "internalType": "string",
                    "name": "",
                    "type": "string"
                }
            ],
            "stateMutability": "view",
            "type": "function"
        },
        {
            "inputs": [
                {
                    "internalType": "uint256",
                    "name": "",
                    "type": "uint256"
                }
            ],
            "name": "totalMintedInPeriod",
            "outputs": [
                {
                    "internalType": "uint64",
                    "name": "",
                    "type": "uint64"
                }
            ],
            "stateMutability": "view",
            "type": "function"
        },
        {
            "inputs": [],
            "name": "totalSupply",
            "outputs": [
                {
                    "internalType": "uint256",
                    "name": "",
                    "type": "uint256"
                }
            ],
            "stateMutability": "view",
            "type": "function"
        },
        {
            "inputs": [
                {
                    "internalType": "address",
                    "name": "from",
                    "type": "address"
                },
                {
                    "internalType": "address",
                    "name": "to",
                    "type": "address"
                },
                {
                    "internalType": "uint256",
                    "name": "tokenId",
                    "type": "uint256"
                }
            ],
            "name": "transferFrom",
            "outputs": [],
            "stateMutability": "payable",
            "type": "function"
        },
        {
            "inputs": [
                {
                    "internalType": "address",
                    "name": "newOwner",
                    "type": "address"
                }
            ],
            "name": "transferLowerOwnership",
            "outputs": [],
            "stateMutability": "nonpayable",
            "type": "function"
        },
        {
            "inputs": [
                {
                    "internalType": "address",
                    "name": "newOwner",
                    "type": "address"
                }
            ],
            "name": "transferOwnership",
            "outputs": [],
            "stateMutability": "nonpayable",
            "type": "function"
        },
        {
            "inputs": [
                {
                    "internalType": "address",
                    "name": "newRealOwner",
                    "type": "address"
                }
            ],
            "name": "transferRealOwnership",
            "outputs": [],
            "stateMutability": "nonpayable",
            "type": "function"
        },
        {
            "inputs": [
                {
                    "internalType": "uint16",
                    "name": "",
                    "type": "uint16"
                }
            ],
            "name": "trustedRemoteLookup",
            "outputs": [
                {
                    "internalType": "bytes",
                    "name": "",
                    "type": "bytes"
                }
            ],
            "stateMutability": "view",
            "type": "function"
        },
        {
            "inputs": [],
            "name": "withdraw",
            "outputs": [],
            "stateMutability": "nonpayable",
            "type": "function"
        }
    ],
    "bytecode": "60e06040526018805462ffffff19166101011790553480156200002157600080fd5b5060405162005ffe38038062005ffe8339810160408190526200004491620001dd565b6040518060400160405280600c81526020016b5370686572614b697442616760a01b8152506040518060400160405280600381526020016229a5a160e91b8152508383838383838080620000a7620000a16200017060201b60201c565b62000174565b6001600160a01b031660805250600880546001600160a01b03191633179055600160095581620001295760405162461bcd60e51b8152602060048201526024808201527f6d696e476173546f5472616e73666572416e6453746f7265206d7573742062656044820152630203e20360e41b606482015260840160405180910390fd5b50600a5560106200013b8382620002d2565b5060116200014a8282620002d2565b506000600e5550505060a096909652505050506001600160a01b031660c052506200039e565b3390565b600080546001600160a01b038381166001600160a01b0319831681178455604051919092169283917f8be0079c531659141344cd1fd0a4f28419497f9722a3daafe3b4186f6b6457e09190a35050565b6001600160a01b0381168114620001da57600080fd5b50565b60008060008060808587031215620001f457600080fd5b8451935060208501516200020881620001c4565b6040860151606087015191945092506200022281620001c4565b939692955090935050565b634e487b7160e01b600052604160045260246000fd5b600181811c908216806200025857607f821691505b6020821081036200027957634e487b7160e01b600052602260045260246000fd5b50919050565b601f821115620002cd57600081815260208120601f850160051c81016020861015620002a85750805b601f850160051c820191505b81811015620002c957828155600101620002b4565b5050505b505050565b81516001600160401b03811115620002ee57620002ee6200022d565b6200030681620002ff845462000243565b846200027f565b602080601f8311600181146200033e5760008415620003255750858301515b600019600386901b1c1916600185901b178555620002c9565b600085815260208120601f198616915b828110156200036f578886015182559484019460019091019084016200034e565b50858210156200038e5787850151600019600388901b60f8161c191681555b5050505050600190811b01905550565b60805160a05160c051615bea620004146000396000818161067b0152611c8c0152600081816108ff01526119e9015260008181610ec6015281816111fd015281816115140152818161172301528181611e220152818161291a01528181612ef601528181613029015261447c0152615bea6000f3fe6080604052600436106104e05760003560e01c8063715018a611610281578063b7c0b8e81161015a578063e985e9c5116100cc578063f235364111610085578063f235364114611133578063f2fde38b14611153578063f5ecbdbc14611173578063f71a5d8814611193578063fa25f9b6146111b3578063fb796e6c146111e057600080fd5b8063e985e9c514611024578063eb3f3e011461106d578063eb8d72b71461108d578063ed9aab51146110ad578063ef78d4fd146110d4578063efe7aa49146110ea57600080fd5b8063c87b56dd1161011e578063c87b56dd14610f71578063cbed8b9c14610f91578063d12473a514610fb1578063d1deba1f14610fd1578063d6649f8014610fe4578063df2a5b3b1461100457600080fd5b8063b7c0b8e814610ee8578063b88d4fde14610f08578063bad5d48314610f1b578063baf3292d14610f3b578063c446183414610f5b57600080fd5b80639f38369a116101f3578063ab3ffb93116101b7578063ab3ffb9314610e24578063ab7b499314610e37578063abd017ea14610e57578063adceef0714610e77578063af3fb21c14610e8c578063b353aaa714610eb457600080fd5b80639f38369a14610d0a578063a22cb46514610d2a578063a4d8008614610d4a578063a6c3d16514610def578063a7ec176514610e0f57600080fd5b80638d0f7c16116102455780638d0f7c1614610c575780638da5cb5b14610c775780638ffa1f2a14610c95578063950c8a7414610cb557806395d89b4114610cd55780639ea5d6b114610cea57600080fd5b8063715018a614610bc0578063719bebbd14610bd55780637533d78814610bea5780637bcbf57114610c0a5780638cfd8f5c14610c1f57600080fd5b80632a205e3d116103be57806348288190116103305780635944c753116102e95780635944c75314610adc5780635b477e1914610afc5780635b8c41e614610b115780636352211e14610b6057806366ad5c8a14610b8057806370a0823114610ba057600080fd5b80634828819014610a245780634ac3f4ff14610a3a5780634d8afe2714610a675780635190563614610a945780635594c54514610aa757806355f804b314610abc57600080fd5b80633ccfd60b116103825780633ccfd60b1461096f5780633d8b38f6146109845780633f1f4fa4146109a457806342842e0e146109d157806342d65a8d146109e457806346fff98d14610a0457600080fd5b80632a205e3d146108595780632a55205a1461088e5780632cff6770146108cd57806332cb6b0c146108ed5780633960be691461092157600080fd5b8063122e04a811610457578063190240471161041b57806319024047146107385780631a9ec177146107705780631df270f3146107835780631ed7852a146107a357806322a3ecf9146107c357806323b872dd1461084657600080fd5b8063122e04a81461066957806312b365101461069d578063150b7a02146106bc57806318160ddd146106f557806318443df51461071857600080fd5b8063081812fc116104a9578063081812fc1461059e578063095ea7b3146105d657806309af3f9a146105e95780630b4cad4c146106095780630df374831461062957806310ddb1371461064957600080fd5b80621d3567146104e557806301ffc9a71461050757806304634d8d1461053c57806306fdde031461055c57806307e0db171461057e575b600080fd5b3480156104f157600080fd5b50610505610500366004614775565b6111fa565b005b34801561051357600080fd5b5061052761052236600461481e565b61142b565b60405190151581526020015b60405180910390f35b34801561054857600080fd5b50610505610557366004614872565b61144b565b34801561056857600080fd5b50610571611461565b60405161053391906148f7565b34801561058a57600080fd5b5061050561059936600461490a565b6114f3565b3480156105aa57600080fd5b506105be6105b9366004614925565b61157c565b6040516001600160a01b039091168152602001610533565b6105056105e436600461493e565b6115c0565b3480156105f557600080fd5b5061050561060436600461496a565b61160d565b34801561061557600080fd5b50610505610624366004614925565b611643565b34801561063557600080fd5b50610505610644366004614987565b6116e3565b34801561065557600080fd5b5061050561066436600461490a565b611702565b34801561067557600080fd5b506105be7f000000000000000000000000000000000000000000000000000000000000000081565b3480156106a957600080fd5b5060185461052790610100900460ff1681565b3480156106c857600080fd5b506106dc6106d7366004614a66565b61175a565b6040516001600160e01b03199091168152602001610533565b34801561070157600080fd5b50600f54600e54035b604051908152602001610533565b34801561072457600080fd5b5061050561073336600461496a565b61176b565b34801561074457600080fd5b5061070a610753366004614ad1565b601a60209081526000928352604080842090915290825290205481565b61050561077e366004614b8a565b6117c4565b34801561078f57600080fd5b506008546105be906001600160a01b031681565b3480156107af57600080fd5b5061070a6107be366004614925565b611b1b565b3480156107cf57600080fd5b506108176107de366004614925565b600d6020526000908152604090208054600182015460029092015461ffff821692620100009092046001600160a01b0316919060ff1684565b6040805161ffff90951685526001600160a01b0390931660208501529183015215156060820152608001610533565b610505610854366004614be0565b611b32565b34801561086557600080fd5b50610879610874366004614c2f565b611b68565b60408051928352602083019190915201610533565b34801561089a57600080fd5b506108ae6108a9366004614cc1565b611b8e565b604080516001600160a01b039093168352602083019190915201610533565b3480156108d957600080fd5b506105056108e836600461496a565b611c3c565b3480156108f957600080fd5b5061070a7f000000000000000000000000000000000000000000000000000000000000000081565b34801561092d57600080fd5b5061095761093c366004614925565b601b602052600090815260409020546001600160401b031681565b6040516001600160401b039091168152602001610533565b34801561097b57600080fd5b50610505611c88565b34801561099057600080fd5b5061052761099f366004614ce3565b611d1c565b3480156109b057600080fd5b5061070a6109bf36600461490a565b60036020526000908152604090205481565b6105056109df366004614be0565b611de8565b3480156109f057600080fd5b506105056109ff366004614ce3565b611e03565b348015610a1057600080fd5b50610505610a1f366004614d35565b611e89565b348015610a3057600080fd5b5061070a600a5481565b348015610a4657600080fd5b5061070a610a5536600461490a565b600b6020526000908152604090205481565b348015610a7357600080fd5b50610a87610a82366004614d52565b611edd565b6040516105339190614e01565b610505610aa2366004614e14565b611f6c565b348015610ab357600080fd5b5061070a600381565b348015610ac857600080fd5b50610505610ad7366004614ecd565b611f83565b348015610ae857600080fd5b50610505610af7366004614f0e565b611f98565b348015610b0857600080fd5b5061070a600281565b348015610b1d57600080fd5b5061070a610b2c366004614f4c565b6005602090815260009384526040808520845180860184018051928152908401958401959095209452929052825290205481565b348015610b6c57600080fd5b506105be610b7b366004614925565b611fab565b348015610b8c57600080fd5b50610505610b9b366004614775565b611fb6565b348015610bac57600080fd5b5061070a610bbb36600461496a565b612092565b348015610bcc57600080fd5b506105056120e0565b348015610be157600080fd5b506105056120f4565b348015610bf657600080fd5b50610571610c0536600461490a565b612185565b348015610c1657600080fd5b5061050561221f565b348015610c2b57600080fd5b5061070a610c3a366004614fa0565b600260209081526000928352604080842090915290825290205481565b348015610c6357600080fd5b5061070a610c72366004614925565b612234565b348015610c8357600080fd5b506000546001600160a01b03166105be565b348015610ca157600080fd5b50610505610cb0366004614fca565b612247565b348015610cc157600080fd5b506004546105be906001600160a01b031681565b348015610ce157600080fd5b5061057161248f565b348015610cf657600080fd5b50610505610d05366004614987565b61249e565b348015610d1657600080fd5b50610571610d2536600461490a565b612555565b348015610d3657600080fd5b50610505610d45366004614ffe565b61266b565b348015610d5657600080fd5b50610db1610d65366004614925565b60196020526000908152604090205463ffffffff808216916401000000008104909116906001600160401b03600160401b8204811691600160801b8104821691600160c01b9091041685565b6040805163ffffffff96871681529590941660208601526001600160401b03928316938501939093528116606084015216608082015260a001610533565b348015610dfb57600080fd5b50610505610e0a366004614ce3565b6126b3565b348015610e1b57600080fd5b5061070a600181565b610505610e3236600461502c565b61273c565b348015610e4357600080fd5b50610505610e5236600461496a565b61274b565b348015610e6357600080fd5b506018546105279062010000900460ff1681565b348015610e8357600080fd5b5061070a600a81565b348015610e9857600080fd5b50610ea1600181565b60405161ffff9091168152602001610533565b348015610ec057600080fd5b506105be7f000000000000000000000000000000000000000000000000000000000000000081565b348015610ef457600080fd5b50610505610f03366004614d35565b61277f565b610505610f16366004614a66565b61279a565b348015610f2757600080fd5b50610527610f363660046150e1565b6127de565b348015610f4757600080fd5b50610505610f5636600461496a565b612822565b348015610f6757600080fd5b5061070a61271081565b348015610f7d57600080fd5b50610571610f8c366004614925565b612878565b348015610f9d57600080fd5b50610505610fac366004615127565b6128fb565b348015610fbd57600080fd5b50610505610fcc366004614987565b612990565b610505610fdf366004614775565b612a40565b348015610ff057600080fd5b50610527610fff3660046150e1565b612c56565b34801561101057600080fd5b5061050561101f366004615195565b612c9a565b34801561103057600080fd5b5061052761103f3660046151d1565b6001600160a01b03918216600090815260156020908152604080832093909416825291909152205460ff1690565b34801561107957600080fd5b50610505611088366004615213565b612d04565b34801561109957600080fd5b506105056110a8366004614ce3565b612e5d565b3480156110b957600080fd5b506018546105be90630100000090046001600160a01b031681565b3480156110e057600080fd5b5061070a601c5481565b3480156110f657600080fd5b50601d546111149060ff81169061010090046001600160a01b031682565b6040805192151583526001600160a01b03909116602083015201610533565b34801561113f57600080fd5b5061087961114e366004615280565b612eb7565b34801561115f57600080fd5b5061050561116e36600461496a565b612f82565b34801561117f57600080fd5b5061057161118e3660046152fd565b612ff8565b34801561119f57600080fd5b506105056111ae366004614925565b6130a9565b3480156111bf57600080fd5b5061070a6111ce36600461490a565b600c6020526000908152604090205481565b3480156111ec57600080fd5b506018546105279060ff1681565b337f00000000000000000000000000000000000000000000000000000000000000006001600160a01b0316146112775760405162461bcd60e51b815260206004820152601e60248201527f4c7a4170703a20696e76616c696420656e64706f696e742063616c6c6572000060448201526064015b60405180910390fd5b61ffff8616600090815260016020526040812080546112959061534a565b80601f01602080910402602001604051908101604052809291908181526020018280546112c19061534a565b801561130e5780601f106112e35761010080835404028352916020019161130e565b820191906000526020600020905b8154815290600101906020018083116112f157829003601f168201915b50505050509050805186869050148015611329575060008151115b80156113515750805160208201206040516113479088908890615384565b6040518091039020145b6113ac5760405162461bcd60e51b815260206004820152602660248201527f4c7a4170703a20696e76616c696420736f757263652073656e64696e6720636f6044820152651b9d1c9858dd60d21b606482015260840161126e565b6114228787878080601f01602080910402602001604051908101604052809392919081815260200183838082843760009201919091525050604080516020601f8a018190048102820181019092528881528a9350915088908890819084018382808284376000920191909152506130b692505050565b50505050505050565b60006114368261312f565b80611445575061144582613154565b92915050565b611453613189565b61145d82826131e3565b5050565b6060601080546114709061534a565b80601f016020809104026020016040519081016040528092919081815260200182805461149c9061534a565b80156114e95780601f106114be576101008083540402835291602001916114e9565b820191906000526020600020905b8154815290600101906020018083116114cc57829003601f168201915b5050505050905090565b6114fb613189565b6040516307e0db1760e01b815261ffff821660048201527f00000000000000000000000000000000000000000000000000000000000000006001600160a01b0316906307e0db17906024015b600060405180830381600087803b15801561156157600080fd5b505af1158015611575573d6000803e3d6000fd5b5050505050565b60006115878261329d565b6115a4576040516333d1c03960e21b815260040160405180910390fd5b506000908152601460205260409020546001600160a01b031690565b8160185460ff16156115d5576115d5816132c5565b601854610100900460ff16156115fe57604051630b95754760e31b815260040160405180910390fd5b6116088383613309565b505050565b6008546001600160a01b031633146116375760405162461bcd60e51b815260040161126e90615394565b61164081612f82565b50565b61164b613189565b600081116116a75760405162461bcd60e51b8152602060048201526024808201527f6d696e476173546f5472616e73666572416e6453746f7265206d7573742062656044820152630203e20360e41b606482015260840161126e565b600a8190556040518181527ffebbc4f8bb9ec2313950c718d43123124b15778efda4c1f1d529de2995b4f34d906020015b60405180910390a150565b6116eb613189565b61ffff909116600090815260036020526040902055565b61170a613189565b6040516310ddb13760e01b815261ffff821660048201527f00000000000000000000000000000000000000000000000000000000000000006001600160a01b0316906310ddb13790602401611547565b630a85bd0160e11b5b949350505050565b611773613189565b60408051808201909152601d805460ff811615158084526001600160a01b039490941660209093018390526001600160a81b031916610100600160a81b031990931692909217610100909102179055565b600083815260196020908152604091829020825160a081018452905463ffffffff8082168352640100000000820416928201929092526001600160401b03600160401b8304811693820193909352600160801b820483166060820152600160c01b9091049091166080820152601c54841415806118465750805163ffffffff16155b806118575750805163ffffffff1642105b8061186c5750806020015163ffffffff164210155b1561188a57604051639546a99360e01b815260040160405180910390fd5b600184036118e45761189c82336127de565b15156001146118df5760405162461bcd60e51b815260206004820152600f60248201526e24b73b30b634b21036b4b73a32b91760891b604482015260640161126e565b611939565b60028403611939576118f68233612c56565b15156001146119395760405162461bcd60e51b815260206004820152600f60248201526e24b73b30b634b21036b4b73a32b91760891b604482015260640161126e565b6000848152601a60209081526040808320338452909152902054606082015161196c9082906001600160401b03166153f7565b8461ffff16111561199057604051630236501f60e61b815260040160405180910390fd5b6000858152601b602052604090205460808301516001600160401b0391821691166119bf8261ffff881661540a565b6001600160401b031611156119e75760405163b45a22f960e01b815260040160405180910390fd5b7f00000000000000000000000000000000000000000000000000000000000000008561ffff16611a16600e5490565b611a209190615431565b1115611a3f57604051634c9c5c3360e11b815260040160405180910390fd5b60008561ffff1684604001516001600160401b0316611a5e9190615444565b905080341015611a815760405163356680b760e01b815260040160405180910390fd5b6000878152601a602090815260408083203380855290835281842061ffff8b168881019091558b8552601b9093529220805467ffffffffffffffff19168583016001600160401b0316179055611ad791906133a9565b60405187815261ffff87169033907f0b3fa6d1ad76d7cf2bed405eb629252cc4f3dfe6a400576cf13f39d60bcc3ed69060200160405180910390a350505050505050565b6000611b25613189565b506017819055805b919050565b826001600160a01b0381163314611b575760185460ff1615611b5757611b57336132c5565b611b62848484613490565b50505050565b600080611b808787611b798861362a565b8787612eb7565b915091509550959350505050565b60008281526007602090815260408083208151808301909252546001600160a01b038116808352600160a01b9091046001600160601b0316928201929092528291611c035750604080518082019091526006546001600160a01b0381168252600160a01b90046001600160601b031660208201525b602081015160009061271090611c22906001600160601b031687615444565b611c2c919061545b565b91519350909150505b9250929050565b6008546001600160a01b03163314611c665760405162461bcd60e51b815260040161126e90615394565b600880546001600160a01b0319166001600160a01b0392909216919091179055565b60007f00000000000000000000000000000000000000000000000000000000000000006001600160a01b03164760405160006040518083038185875af1925050503d8060008114611cf5576040519150601f19603f3d011682016040523d82523d6000602084013e611cfa565b606091505b505090508061164057604051631d42c86760e21b815260040160405180910390fd5b61ffff831660009081526001602052604081208054829190611d3d9061534a565b80601f0160208091040260200160405190810160405280929190818152602001828054611d699061534a565b8015611db65780601f10611d8b57610100808354040283529160200191611db6565b820191906000526020600020905b815481529060010190602001808311611d9957829003601f168201915b505050505090508383604051611dcd929190615384565b60405180910390208180519060200120149150509392505050565b6116088383836040518060200160405280600081525061279a565b611e0b613189565b6040516342d65a8d60e01b81526001600160a01b037f000000000000000000000000000000000000000000000000000000000000000016906342d65a8d90611e5b908690869086906004016154a6565b600060405180830381600087803b158015611e7557600080fd5b505af1158015611422573d6000803e3d6000fd5b611e91613189565b601854630100000090046001600160a01b0316611ec157604051630e048e7160e41b815260040160405180910390fd5b60188054911515620100000262ff000019909216919091179055565b60408051808201909152601d5460ff811615158083526101009091046001600160a01b0316602083015260609190611f2857604051630871f9a360e21b815260040160405180910390fd5b611763338585808060200260200160405190810160405280939291908181526020018383602002808284376000920191909152505050602085015160019150613675565b611422878787611f7b8861362a565b878787613724565b611f8b613189565b601e61160882848361550a565b611fa0613189565b6116088383836138f8565b6000611445826139c3565b3330146120145760405162461bcd60e51b815260206004820152602660248201527f4e6f6e626c6f636b696e674c7a4170703a2063616c6c6572206d7573742062656044820152650204c7a4170760d41b606482015260840161126e565b61208a8686868080601f01602080910402602001604051908101604052809392919081815260200183838082843760009201919091525050604080516020601f890181900481028201810190925287815289935091508790879081908401838280828437600092019190915250613a2a92505050565b505050505050565b60006001600160a01b0382166120bb576040516323d3ad8160e21b815260040160405180910390fd5b506001600160a01b03166000908152601360205260409020546001600160401b031690565b6120e8613189565b6120f26000613b81565b565b6120fc613189565b60408051808201909152601d5460ff81161515825261010090046001600160a01b03166020820181905261214357604051638b0277bb60e01b815260040160405180910390fd5b6040805180820190915260018082526020928301516001600160a01b031692909101829052601d80546001600160a81b03191661010090930292909217179055565b6001602052600090815260409020805461219e9061534a565b80601f01602080910402602001604051908101604052809291908181526020018280546121ca9061534a565b80156122175780601f106121ec57610100808354040283529160200191612217565b820191906000526020600020905b8154815290600101906020018083116121fa57829003601f168201915b505050505081565b612227613189565b6018805461ff0019169055565b600061223e613189565b50601681905590565b61224f613bd1565b80516020808301919091206000818152600d90925260409091206002015460ff166122b05760405162461bcd60e51b81526020600482015260116024820152701b9bc818dc99591a5d1cc81cdd1bdc9959607a1b604482015260640161126e565b6000828060200190518101906122c69190615669565b6000848152600d6020526040812080546001909101549294509092506123029161ffff8216916201000090046001600160a01b03169085613c2a565b6000848152600d602052604090206001015490915081116123775760405162461bcd60e51b815260206004820152602960248201527f6e6f7420656e6f7567682067617320746f2070726f6365737320637265646974604482015268103a3930b739b332b960b91b606482015260840161126e565b815181036123ee576000838152600d602052604080822080546001600160b01b031916815560018101929092556002909101805460ff19169055517fd7be02b8dd0d27bd0517a9cb4d7469ce27df4313821ae5ec1ff69acc594ba233906123e19085815260200190565b60405180910390a1612482565b604080516080810182526000858152600d6020818152848320805461ffff80821687526001600160a01b03620100008084048216868a019081529989018b8152600160608b01818152998f90529790965297519851169096026001600160b01b03199091169690951695909517939093178455915191830191909155516002909101805491151560ff199092169190911790555b5050506116406001600955565b6060601180546114709061534a565b6124a6613189565b600081116125015760405162461bcd60e51b815260206004820152602260248201527f647374436861696e4964546f42617463684c696d6974206d757374206265203e604482015261020360f41b606482015260840161126e565b61ffff82166000818152600b6020908152604091829020849055815192835282018390527f7315f7654d594ead24a30160ed9ba2d23247f543016b918343591e93d7afdb6d91015b60405180910390a15050565b61ffff81166000908152600160205260408120805460609291906125789061534a565b80601f01602080910402602001604051908101604052809291908181526020018280546125a49061534a565b80156125f15780601f106125c6576101008083540402835291602001916125f1565b820191906000526020600020905b8154815290600101906020018083116125d457829003601f168201915b5050505050905080516000036126495760405162461bcd60e51b815260206004820152601d60248201527f4c7a4170703a206e6f20747275737465642070617468207265636f7264000000604482015260640161126e565b61266460006014835161265c91906153f7565b839190613c76565b9392505050565b8160185460ff161561268057612680816132c5565b601854610100900460ff16156126a957604051630b95754760e31b815260040160405180910390fd5b6116088383613d83565b6126bb613189565b8181306040516020016126d0939291906156cc565b60408051601f1981840301815291815261ffff85166000908152600160205220906126fb90826156ed565b507f8c0400cfe2d1199b1a725c78960bcc2a344d869b80590d0f2bd005db15a572ce83838360405161272f939291906154a6565b60405180910390a1505050565b61142287878787878787613724565b612753613189565b601880546001600160a01b039092166301000000026301000000600160b81b0319909216919091179055565b612787613189565b6018805460ff1916911515919091179055565b6127a5848484611b32565b6001600160a01b0383163b15611b62576127c184848484613def565b611b62576040516368d2bf6b60e11b815260040160405180910390fd5b6040516001600160601b0319606083901b16602082015260009081906034016040516020818303038152906040528051906020012090506117638460165483613ed7565b61282a613189565b600480546001600160a01b0319166001600160a01b0383169081179091556040519081527f5db758e995a17ec1ad84bdef7e8c3293a0bd6179bcce400dff5d4c3d87db726b906020016116d8565b60606128838261329d565b6128a057604051630a14c4b560e41b815260040160405180910390fd5b60006128aa613eed565b905080516000036128ca5760405180602001604052806000815250612664565b806128d484613efc565b6040516020016128e59291906157ac565b6040516020818303038152906040529392505050565b612903613189565b6040516332fb62e760e21b81526001600160a01b037f0000000000000000000000000000000000000000000000000000000000000000169063cbed8b9c9061295790889088908890889088906004016157db565b600060405180830381600087803b15801561297157600080fd5b505af1158015612985573d6000803e3d6000fd5b505050505050505050565b612998613189565b600081116129f45760405162461bcd60e51b815260206004820152602360248201527f647374436861696e4964546f5472616e73666572476173206d7573742062652060448201526203e20360ec1b606482015260840161126e565b61ffff82166000818152600c6020908152604091829020849055815192835282018390527fc46df2983228ac2d9754e94a0d565e6671665dc8ad38602bc8e544f0685a29fb9101612549565b61ffff86166000908152600560205260408082209051612a639088908890615384565b90815260408051602092819003830190206001600160401b03871660009081529252902054905080612ae35760405162461bcd60e51b815260206004820152602360248201527f4e6f6e626c6f636b696e674c7a4170703a206e6f2073746f726564206d65737360448201526261676560e81b606482015260840161126e565b808383604051612af4929190615384565b604051809103902014612b535760405162461bcd60e51b815260206004820152602160248201527f4e6f6e626c6f636b696e674c7a4170703a20696e76616c6964207061796c6f616044820152601960fa1b606482015260840161126e565b61ffff87166000908152600560205260408082209051612b769089908990615384565b90815260408051602092819003830181206001600160401b038916600090815290845282902093909355601f88018290048202830182019052868252612c0e918991899089908190840183828082843760009201919091525050604080516020601f8a018190048102820181019092528881528a935091508890889081908401838280828437600092019190915250613a2a92505050565b7fc264d91f3adc5588250e1551f547752ca0cfa8f6b530d243b9f9f4cab10ea8e58787878785604051612c45959493929190615814565b60405180910390a150505050505050565b6040516001600160601b0319606083901b16602082015260009081906034016040516020818303038152906040528051906020012090506117638460175483613ed7565b612ca2613189565b61ffff83811660008181526002602090815260408083209487168084529482529182902085905581519283528201929092529081018290527f9d5c7c0b934da8fefa9c7760c98383778a12dfbfc0c3b3106518f43fb9508ac09060600161272f565b612d0c613189565b63ffffffff85161580612d23575063ffffffff8416155b80612d3557506001600160401b038316155b15612d5357604051638531df0f60e01b815260040160405180910390fd5b8363ffffffff168563ffffffff1610612d7f57604051638531df0f60e01b815260040160405180910390fd5b6040805160a08101825263ffffffff968716815294861660208087019182526001600160401b0395861687840190815294861660608801908152938616608088019081526000998a526019909152919097209451855497519351925191518516600160c01b026001600160c01b03928616600160801b0267ffffffffffffffff60801b1994909616600160401b029390931677ffffffffffffffffffffffffffffffff0000000000000000199488166401000000000267ffffffffffffffff1990991691909716179690961791909116939093171792909216179055565b612e65613189565b61ffff83166000908152600160205260409020612e8382848361550a565b507ffa41487ad5d6728f0b19276fa1eddc16558578f5109fc39d2dc33c3230470dab83838360405161272f939291906154a6565b60008060008686604051602001612ecf92919061584f565b60408051601f198184030181529082905263040a7bb160e41b825291506001600160a01b037f000000000000000000000000000000000000000000000000000000000000000016906340a7bb1090612f33908b90309086908b908b90600401615874565b6040805180830381865afa158015612f4f573d6000803e3d6000fd5b505050506040513d601f19601f82011682018060405250810190612f7391906158c8565b92509250509550959350505050565b612f8a613189565b6001600160a01b038116612fef5760405162461bcd60e51b815260206004820152602660248201527f4f776e61626c653a206e6577206f776e657220697320746865207a65726f206160448201526564647265737360d01b606482015260840161126e565b61164081613b81565b604051633d7b2f6f60e21b815261ffff808616600483015284166024820152306044820152606481018290526060907f00000000000000000000000000000000000000000000000000000000000000006001600160a01b03169063f5ecbdbc90608401600060405180830381865afa158015613078573d6000803e3d6000fd5b505050506040513d6000823e601f3d908101601f191682016040526130a091908101906158ec565b95945050505050565b6130b1613189565b601c55565b6000806131195a60966366ad5c8a60e01b898989896040516024016130de9493929190615920565b60408051601f198184030181529190526020810180516001600160e01b03166001600160e01b03199093169290921790915230929190613f40565b915091508161208a5761208a8686868685613fca565b60006001600160e01b031982166322bac5d960e01b1480611445575061144582614067565b60006001600160e01b0319821663152a902d60e11b148061144557506301ffc9a760e01b6001600160e01b0319831614611445565b6000546001600160a01b031633146120f25760405162461bcd60e51b815260206004820181905260248201527f4f776e61626c653a2063616c6c6572206973206e6f7420746865206f776e6572604482015260640161126e565b6127106001600160601b038216111561320e5760405162461bcd60e51b815260040161126e9061595e565b6001600160a01b0382166132645760405162461bcd60e51b815260206004820152601960248201527f455243323938313a20696e76616c696420726563656976657200000000000000604482015260640161126e565b604080518082019091526001600160a01b039092168083526001600160601b039091166020909201829052600160a01b90910217600655565b6000600e5482108015611445575050600090815260126020526040902054600160e01b161590565b69c617113400112233445560005230601a5280603a52600080604460166daaeb6d7670e522a718067333cd4e5afa613301573d6000803e3d6000fd5b6000603a5250565b600061331482611fab565b9050336001600160a01b0382161461334d57613330813361103f565b61334d576040516367d9dca160e11b815260040160405180910390fd5b60008281526014602052604080822080546001600160a01b0319166001600160a01b0387811691821790925591518593918516917f8c5be1e5ebec7d5bd14f71427d1e84f3dd0314c0f7b2291e5b200ac8c7c3b92591a4505050565b600e5460008290036133ce5760405163b562e8dd60e01b815260040160405180910390fd5b6133db60008483856140b5565b6001600160a01b03831660008181526013602090815260408083208054680100000000000000018802019055848352601290915281206001851460e11b4260a01b17831790558284019083908390600080516020615b958339815191528180a4600183015b8181146134665780836000600080516020615b95833981519152600080a4600101613440565b508160000361348757604051622e076360e81b815260040160405180910390fd5b600e5550505050565b600061349b826139c3565b9050836001600160a01b0316816001600160a01b0316146134ce5760405162a1148160e81b815260040160405180910390fd5b600082815260146020526040902080546134fa8187335b6001600160a01b039081169116811491141790565b61352557613508863361103f565b61352557604051632ce44b5f60e11b815260040160405180910390fd5b6001600160a01b03851661354c57604051633a954ecd60e21b815260040160405180910390fd5b61355986868660016140b5565b801561356457600082555b6001600160a01b038681166000908152601360205260408082208054600019019055918716808252919020805460010190554260a01b17600160e11b17600085815260126020526040812091909155600160e11b841690036135f6576001840160008181526012602052604081205490036135f457600e5481146135f45760008181526012602052604090208490555b505b83856001600160a01b0316876001600160a01b0316600080516020615b9583398151915260405160405180910390a461208a565b60408051600180825281830190925260609160009190602080830190803683370190505090508281600081518110613664576136646159a8565b602090810291909101015292915050565b606060005b84518110156136ae576136a6858281518110613698576136986159a8565b60200260200101518561412c565b60010161367a565b50604051635fb4271b60e01b81526001600160a01b03831690635fb4271b906136dd90889088906004016159be565b6000604051808303816000875af11580156136fc573d6000803e3d6000fd5b505050506040513d6000823e601f3d908101601f191682016040526130a091908101906159e2565b600084511161376b5760405162461bcd60e51b8152602060048201526013602482015272746f6b656e4964735b5d20697320656d70747960681b604482015260640161126e565b83516001148061378f575061ffff86166000908152600b6020526040902054845111155b6137e65760405162461bcd60e51b815260206004820152602260248201527f62617463682073697a65206578636565647320647374206261746368206c696d6044820152611a5d60f21b606482015260840161126e565b60005b84518110156138295761381788888888858151811061380a5761380a6159a8565b6020026020010151614273565b8061382181615a16565b9150506137e9565b506000858560405160200161383f92919061584f565b6040516020818303038152906040529050613884876001848851600c60008d61ffff1661ffff1681526020019081526020016000205461387f9190615444565b61427e565b613892878286868634614353565b856040516138a09190615a2f565b6040518091039020886001600160a01b03168861ffff167fe1b87c47fdeb4f9cbadbca9df3af7aba453bb6e501075d0440d88125b711522a886040516138e69190614e01565b60405180910390a45050505050505050565b6127106001600160601b03821611156139235760405162461bcd60e51b815260040161126e9061595e565b6001600160a01b0382166139795760405162461bcd60e51b815260206004820152601b60248201527f455243323938313a20496e76616c696420706172616d65746572730000000000604482015260640161126e565b6040805180820182526001600160a01b0393841681526001600160601b0392831660208083019182526000968752600790529190942093519051909116600160a01b029116179055565b600081600e54811015613a115760008181526012602052604081205490600160e01b82169003613a0f575b806000036126645750600019016000818152601260205260409020546139ee565b505b604051636f96cda160e11b815260040160405180910390fd5b60008082806020019051810190613a419190615669565b601482015191935091506000613a5988838386613c2a565b90508251811015613b2d5784516020808701919091206040805160808101825261ffff808d1682526001600160a01b038088168387019081528385018881526001606086018181526000898152600d909a529887902095518654935190941662010000026001600160b01b03199093169390941692909217178355519082015592516002909301805493151560ff199094169390931790925590517f10e0b70d256bccc84b7027506978bd8b68984a870788b93b479def144c839ad790613b239083908990615a4b565b60405180910390a1505b816001600160a01b031687604051613b459190615a2f565b60405180910390208961ffff167f5b821db8a46f8ecbe1941ba2f51cfeea9643268b56631f70d45e2a745d990265866040516138e69190614e01565b600080546001600160a01b038381166001600160a01b0319831681178455604051919092169283917f8be0079c531659141344cd1fd0a4f28419497f9722a3daafe3b4186f6b6457e09190a35050565b600260095403613c235760405162461bcd60e51b815260206004820152601f60248201527f5265656e7472616e637947756172643a207265656e7472616e742063616c6c00604482015260640161126e565b6002600955565b6000825b82518110156130a057600a545a106130a057613c648686858481518110613c5757613c576159a8565b60200260200101516144f8565b80613c6e81615a16565b915050613c2e565b606081613c8481601f615431565b1015613cc35760405162461bcd60e51b815260206004820152600e60248201526d736c6963655f6f766572666c6f7760901b604482015260640161126e565b613ccd8284615431565b84511015613d115760405162461bcd60e51b8152602060048201526011602482015270736c6963655f6f75744f66426f756e647360781b604482015260640161126e565b606082158015613d305760405191506000825260208201604052613d7a565b6040519150601f8416801560200281840101858101878315602002848b0101015b81831015613d69578051835260209283019201613d51565b5050858452601f01601f1916604052505b50949350505050565b3360008181526015602090815260408083206001600160a01b03871680855290835292819020805460ff191686151590811790915590519081529192917f17307eab39ab6107e8899845ad3d59bd9653f200f220920489ca2b5937696c31910160405180910390a35050565b604051630a85bd0160e11b81526000906001600160a01b0385169063150b7a0290613e24903390899088908890600401615a64565b6020604051808303816000875af1925050508015613e5f575060408051601f3d908101601f19168201909252613e5c91810190615aa1565b60015b613ebd573d808015613e8d576040519150601f19603f3d011682016040523d82523d6000602084013e613e92565b606091505b508051600003613eb5576040516368d2bf6b60e11b815260040160405180910390fd5b805181602001fd5b6001600160e01b031916630a85bd0160e11b149050611763565b600082613ee48584614531565b14949350505050565b6060601e80546114709061534a565b606060a06040510180604052602081039150506000815280825b600183039250600a81066030018353600a900480613f165750819003601f19909101908152919050565b6000606060008060008661ffff166001600160401b03811115613f6557613f656149a3565b6040519080825280601f01601f191660200182016040528015613f8f576020820181803683370190505b50905060008087516020890160008d8df191503d925086831115613fb1578692505b828152826000602083013e909890975095505050505050565b8180519060200120600560008761ffff1661ffff16815260200190815260200160002085604051613ffb9190615a2f565b9081526040805191829003602090810183206001600160401b0388166000908152915220919091557fe183f33de2837795525b4792ca4cd60535bd77c53b7e7030060bfcf5734d6b0c906140589087908790879087908790615abe565b60405180910390a15050505050565b60006301ffc9a760e01b6001600160e01b03198316148061409857506380ac58cd60e01b6001600160e01b03198316145b806114455750506001600160e01b031916635b5e139f60e01b1490565b601854610100900460ff1680156140d457506001600160a01b03841615155b80156140e857506001600160a01b03831615155b1561410657604051630b95754760e31b815260040160405180910390fd5b61410f3361457e565b611b62576040516326406c5f60e11b815260040160405180910390fd5b6000614137836139c3565b90508060008061415586600090815260146020526040902080549091565b9150915084156141955761416a8184336134e5565b61419557614178833361103f565b61419557604051632ce44b5f60e11b815260040160405180910390fd5b6141a38360008860016140b5565b80156141ae57600082555b6001600160a01b038316600081815260136020526040902080546fffffffffffffffffffffffffffffffff0190554260a01b17600360e01b17600087815260126020526040812091909155600160e11b8516900361423c5760018601600081815260126020526040812054900361423a57600e54811461423a5760008181526012602052604090208590555b505b60405186906000906001600160a01b03861690600080516020615b95833981519152908390a45050600f8054600101905550505050565b611b62843083611de8565b600061428983614612565b61ffff808716600090815260026020908152604080832093891683529290522054909150806142fa5760405162461bcd60e51b815260206004820152601a60248201527f4c7a4170703a206d696e4761734c696d6974206e6f7420736574000000000000604482015260640161126e565b6143048382615431565b82101561208a5760405162461bcd60e51b815260206004820152601b60248201527f4c7a4170703a20676173206c696d697420697320746f6f206c6f770000000000604482015260640161126e565b61ffff8616600090815260016020526040812080546143719061534a565b80601f016020809104026020016040519081016040528092919081815260200182805461439d9061534a565b80156143ea5780601f106143bf576101008083540402835291602001916143ea565b820191906000526020600020905b8154815290600101906020018083116143cd57829003601f168201915b50505050509050805160000361445b5760405162461bcd60e51b815260206004820152603060248201527f4c7a4170703a2064657374696e6174696f6e20636861696e206973206e6f742060448201526f61207472757374656420736f7572636560801b606482015260840161126e565b61446687875161466e565b60405162c5803160e81b81526001600160a01b037f0000000000000000000000000000000000000000000000000000000000000000169063c58031009084906144bd908b9086908c908c908c908c90600401615b10565b6000604051808303818588803b1580156144d657600080fd5b505af11580156144ea573d6000803e3d6000fd5b505050505050505050505050565b6145018161329d565b801561451d57503061451282611fab565b6001600160a01b0316145b61452657600080fd5b611608308383611de8565b600081815b84518110156145765761456282868381518110614555576145556159a8565b60200260200101516146df565b91508061456e81615a16565b915050614536565b509392505050565b60185460009062010000900460ff161561460a576018546040516370c5e04560e11b81526001600160a01b038481166004830152630100000090920490911690819063e18bc08a90602401602060405180830381865afa1580156145e6573d6000803e3d6000fd5b505050506040513d601f19601f820116820180604052508101906126649190615b77565b506001919050565b60006022825110156146665760405162461bcd60e51b815260206004820152601c60248201527f4c7a4170703a20696e76616c69642061646170746572506172616d7300000000604482015260640161126e565b506022015190565b61ffff82166000908152600360205260408120549081900361468f57506127105b808211156116085760405162461bcd60e51b815260206004820181905260248201527f4c7a4170703a207061796c6f61642073697a6520697320746f6f206c61726765604482015260640161126e565b60008183106146fb576000828152602084905260409020612664565b5060009182526020526040902090565b803561ffff81168114611b2d57600080fd5b60008083601f84011261472f57600080fd5b5081356001600160401b0381111561474657600080fd5b602083019150836020828501011115611c3557600080fd5b80356001600160401b0381168114611b2d57600080fd5b6000806000806000806080878903121561478e57600080fd5b6147978761470b565b955060208701356001600160401b03808211156147b357600080fd5b6147bf8a838b0161471d565b90975095508591506147d360408a0161475e565b945060608901359150808211156147e957600080fd5b506147f689828a0161471d565b979a9699509497509295939492505050565b6001600160e01b03198116811461164057600080fd5b60006020828403121561483057600080fd5b813561266481614808565b6001600160a01b038116811461164057600080fd5b8035611b2d8161483b565b80356001600160601b0381168114611b2d57600080fd5b6000806040838503121561488557600080fd5b82356148908161483b565b915061489e6020840161485b565b90509250929050565b60005b838110156148c25781810151838201526020016148aa565b50506000910152565b600081518084526148e38160208601602086016148a7565b601f01601f19169290920160200192915050565b60208152600061266460208301846148cb565b60006020828403121561491c57600080fd5b6126648261470b565b60006020828403121561493757600080fd5b5035919050565b6000806040838503121561495157600080fd5b823561495c8161483b565b946020939093013593505050565b60006020828403121561497c57600080fd5b81356126648161483b565b6000806040838503121561499a57600080fd5b61495c8361470b565b634e487b7160e01b600052604160045260246000fd5b604051601f8201601f191681016001600160401b03811182821017156149e1576149e16149a3565b604052919050565b60006001600160401b03821115614a0257614a026149a3565b50601f01601f191660200190565b600082601f830112614a2157600080fd5b8135614a34614a2f826149e9565b6149b9565b818152846020838601011115614a4957600080fd5b816020850160208301376000918101602001919091529392505050565b60008060008060808587031215614a7c57600080fd5b8435614a878161483b565b93506020850135614a978161483b565b92506040850135915060608501356001600160401b03811115614ab957600080fd5b614ac587828801614a10565b91505092959194509250565b60008060408385031215614ae457600080fd5b823591506020830135614af68161483b565b809150509250929050565b60006001600160401b03821115614b1a57614b1a6149a3565b5060051b60200190565b600082601f830112614b3557600080fd5b81356020614b45614a2f83614b01565b82815260059290921b84018101918181019086841115614b6457600080fd5b8286015b84811015614b7f5780358352918301918301614b68565b509695505050505050565b600080600060608486031215614b9f57600080fd5b83359250614baf6020850161470b565b915060408401356001600160401b03811115614bca57600080fd5b614bd686828701614b24565b9150509250925092565b600080600060608486031215614bf557600080fd5b8335614c008161483b565b92506020840135614c108161483b565b929592945050506040919091013590565b801515811461164057600080fd5b600080600080600060a08688031215614c4757600080fd5b614c508661470b565b945060208601356001600160401b0380821115614c6c57600080fd5b614c7889838a01614a10565b95506040880135945060608801359150614c9182614c21565b90925060808701359080821115614ca757600080fd5b50614cb488828901614a10565b9150509295509295909350565b60008060408385031215614cd457600080fd5b50508035926020909101359150565b600080600060408486031215614cf857600080fd5b614d018461470b565b925060208401356001600160401b03811115614d1c57600080fd5b614d288682870161471d565b9497909650939450505050565b600060208284031215614d4757600080fd5b813561266481614c21565b60008060208385031215614d6557600080fd5b82356001600160401b0380821115614d7c57600080fd5b818501915085601f830112614d9057600080fd5b813581811115614d9f57600080fd5b8660208260051b8501011115614db457600080fd5b60209290920196919550909350505050565b600081518084526020808501945080840160005b83811015614df657815187529582019590820190600101614dda565b509495945050505050565b6020815260006126646020830184614dc6565b600080600080600080600060e0888a031215614e2f57600080fd5b8735614e3a8161483b565b9650614e486020890161470b565b955060408801356001600160401b0380821115614e6457600080fd5b614e708b838c01614a10565b965060608a0135955060808a01359150614e898261483b565b90935060a089013590614e9b8261483b565b90925060c08901359080821115614eb157600080fd5b50614ebe8a828b01614a10565b91505092959891949750929550565b60008060208385031215614ee057600080fd5b82356001600160401b03811115614ef657600080fd5b614f028582860161471d565b90969095509350505050565b600080600060608486031215614f2357600080fd5b833592506020840135614f358161483b565b9150614f436040850161485b565b90509250925092565b600080600060608486031215614f6157600080fd5b614f6a8461470b565b925060208401356001600160401b03811115614f8557600080fd5b614f9186828701614a10565b925050614f436040850161475e565b60008060408385031215614fb357600080fd5b614fbc8361470b565b915061489e6020840161470b565b600060208284031215614fdc57600080fd5b81356001600160401b03811115614ff257600080fd5b61176384828501614a10565b6000806040838503121561501157600080fd5b823561501c8161483b565b91506020830135614af681614c21565b600080600080600080600060e0888a03121561504757600080fd5b87356150528161483b565b96506150606020890161470b565b955060408801356001600160401b038082111561507c57600080fd5b6150888b838c01614a10565b965060608a013591508082111561509e57600080fd5b6150aa8b838c01614b24565b955060808a013591506150bc8261483b565b8194506150cb60a08b01614850565b935060c08a0135915080821115614eb157600080fd5b600080604083850312156150f457600080fd5b82356001600160401b0381111561510a57600080fd5b61511685828601614b24565b9250506020830135614af68161483b565b60008060008060006080868803121561513f57600080fd5b6151488661470b565b94506151566020870161470b565b93506040860135925060608601356001600160401b0381111561517857600080fd5b6151848882890161471d565b969995985093965092949392505050565b6000806000606084860312156151aa57600080fd5b6151b38461470b565b92506151c16020850161470b565b9150604084013590509250925092565b600080604083850312156151e457600080fd5b82356151ef8161483b565b91506020830135614af68161483b565b803563ffffffff81168114611b2d57600080fd5b60008060008060008060c0878903121561522c57600080fd5b8635955061523c602088016151ff565b945061524a604088016151ff565b93506152586060880161475e565b92506152666080880161475e565b915061527460a0880161475e565b90509295509295509295565b600080600080600060a0868803121561529857600080fd5b6152a18661470b565b945060208601356001600160401b03808211156152bd57600080fd5b6152c989838a01614a10565b955060408801359150808211156152df57600080fd5b6152eb89838a01614b24565b945060608801359150614c9182614c21565b6000806000806080858703121561531357600080fd5b61531c8561470b565b935061532a6020860161470b565b9250604085013561533a8161483b565b9396929550929360600135925050565b600181811c9082168061535e57607f821691505b60208210810361537e57634e487b7160e01b600052602260045260246000fd5b50919050565b8183823760009101908152919050565b6020808252602d908201527f4d756c74697369674f776e61626c653a2063616c6c6572206973206e6f74207460408201526c3432903932b0b61037bbb732b960991b606082015260800190565b634e487b7160e01b600052601160045260246000fd5b81810381811115611445576114456153e1565b6001600160401b0381811683821601908082111561542a5761542a6153e1565b5092915050565b80820180821115611445576114456153e1565b8082028115828204841417611445576114456153e1565b60008261547857634e487b7160e01b600052601260045260246000fd5b500490565b81835281816020850137506000828201602090810191909152601f909101601f19169091010190565b61ffff841681526040602082015260006130a060408301848661547d565b601f82111561160857600081815260208120601f850160051c810160208610156154eb5750805b601f850160051c820191505b8181101561208a578281556001016154f7565b6001600160401b03831115615521576155216149a3565b6155358361552f835461534a565b836154c4565b6000601f84116001811461556957600085156155515750838201355b600019600387901b1c1916600186901b178355611575565b600083815260209020601f19861690835b8281101561559a578685013582556020948501946001909201910161557a565b50868210156155b75760001960f88860031b161c19848701351681555b505060018560011b0183555050505050565b600082601f8301126155da57600080fd5b81516155e8614a2f826149e9565b8181528460208386010111156155fd57600080fd5b6117638260208301602087016148a7565b600082601f83011261561f57600080fd5b8151602061562f614a2f83614b01565b82815260059290921b8401810191818101908684111561564e57600080fd5b8286015b84811015614b7f5780518352918301918301615652565b6000806040838503121561567c57600080fd5b82516001600160401b038082111561569357600080fd5b61569f868387016155c9565b935060208501519150808211156156b557600080fd5b506156c28582860161560e565b9150509250929050565b8284823760609190911b6001600160601b0319169101908152601401919050565b81516001600160401b03811115615706576157066149a3565b61571a81615714845461534a565b846154c4565b602080601f83116001811461574f57600084156157375750858301515b600019600386901b1c1916600185901b17855561208a565b600085815260208120601f198616915b8281101561577e5788860151825594840194600190910190840161575f565b508582101561579c5787850151600019600388901b60f8161c191681555b5050505050600190811b01905550565b600083516157be8184602088016148a7565b8351908301906157d28183602088016148a7565b01949350505050565b600061ffff80881683528087166020840152508460408301526080606083015261580960808301848661547d565b979650505050505050565b61ffff8616815260806020820152600061583260808301868861547d565b6001600160401b0394909416604083015250606001529392505050565b60408152600061586260408301856148cb565b82810360208401526130a08185614dc6565b61ffff861681526001600160a01b038516602082015260a0604082018190526000906158a2908301866148cb565b841515606084015282810360808401526158bc81856148cb565b98975050505050505050565b600080604083850312156158db57600080fd5b505080516020909101519092909150565b6000602082840312156158fe57600080fd5b81516001600160401b0381111561591457600080fd5b611763848285016155c9565b61ffff8516815260806020820152600061593d60808301866148cb565b6001600160401b0385166040840152828103606084015261580981856148cb565b6020808252602a908201527f455243323938313a20726f79616c7479206665652077696c6c206578636565646040820152692073616c65507269636560b01b606082015260800190565b634e487b7160e01b600052603260045260246000fd5b6001600160a01b038316815260406020820181905260009061176390830184614dc6565b6000602082840312156159f457600080fd5b81516001600160401b03811115615a0a57600080fd5b6117638482850161560e565b600060018201615a2857615a286153e1565b5060010190565b60008251615a418184602087016148a7565b9190910192915050565b82815260406020820152600061176360408301846148cb565b6001600160a01b0385811682528416602082015260408101839052608060608201819052600090615a97908301846148cb565b9695505050505050565b600060208284031215615ab357600080fd5b815161266481614808565b61ffff8616815260a060208201526000615adb60a08301876148cb565b6001600160401b03861660408401528281036060840152615afc81866148cb565b905082810360808401526158bc81856148cb565b61ffff8716815260c060208201526000615b2d60c08301886148cb565b8281036040840152615b3f81886148cb565b6001600160a01b0387811660608601528616608085015283810360a08501529050615b6a81856148cb565b9998505050505050505050565b600060208284031215615b8957600080fd5b815161266481614c2156feddf252ad1be2c89b69c2b068fc378daa952ba7f163c4a11628f55a4df523b3efa2646970667358221220223d4171c7366860d8ea1134e5dd1aec9f1dcc8def2ffe56b2dead4625453bf464736f6c63430008130033",
    "sourcePath": "e:/Projects/DecaNFT/contracts/SKB/SpheraKitBag.sol",
    "compiler": {
        "name": "solc",
        "version": "0.8.19+commit.7dd6d404"
    },
    "functionHashes": {
        "DEFAULT_PAYLOAD_SIZE_LIMIT()": "c4461834",
        "FCFS_PERIOD()": "5b477e19",
        "FUNCTION_TYPE_SEND()": "af3fb21c",
        "GTD_PERIOD()": "a7ec1765",
        "MAX_SUPPLY()": "32cb6b0c",
        "MINT_BATCH_SIZE()": "adceef07",
        "PUBLIC_PERIOD()": "5594c545",
        "WITHDRAW_ADDRESS()": "122e04a8",
        "approve(address,uint256)": "095ea7b3",
        "balanceOf(address)": "70a08231",
        "breakTransferLock()": "7bcbf571",
        "clearCredits(bytes)": "8ffa1f2a",
        "dstChainIdToBatchLimit(uint16)": "4ac3f4ff",
        "dstChainIdToTransferGas(uint16)": "fa25f9b6",
        "estimateSendBatchFee(uint16,bytes,uint256[],bool,bytes)": "f2353641",
        "estimateSendFee(uint16,bytes,uint256,bool,bytes)": "2a205e3d",
        "failedMessages(uint16,bytes,uint64)": "5b8c41e6",
        "fcfs_validateAddress(bytes32[],address)": "d6649f80",
        "forceResumeReceive(uint16,bytes)": "42d65a8d",
        "getApproved(uint256)": "081812fc",
        "getConfig(uint16,uint16,address,uint256)": "f5ecbdbc",
        "getTrustedRemoteAddress(uint16)": "9f38369a",
        "gtd_validateAddress(bytes32[],address)": "bad5d483",
        "individualMintedInPeriod(uint256,address)": "19024047",
        "initialTransferLockOn()": "12b36510",
        "isApprovedForAll(address,address)": "e985e9c5",
        "isRegistryActive()": "abd017ea",
        "isTrustedRemote(uint16,bytes)": "3d8b38f6",
        "lzEndpoint()": "b353aaa7",
        "lzReceive(uint16,bytes,uint64,bytes)": "001d3567",
        "minDstGasLookup(uint16,uint16)": "8cfd8f5c",
        "minGasToTransferAndStore()": "48288190",
        "name()": "06fdde03",
        "nonblockingLzReceive(uint16,bytes,uint64,bytes)": "66ad5c8a",
        "onERC721Received(address,address,uint256,bytes)": "150b7a02",
        "openPeriod(uint256)": "f71a5d88",
        "openRedeemBagState()": "719bebbd",
        "operatorFilteringEnabled()": "fb796e6c",
        "owner()": "8da5cb5b",
        "ownerOf(uint256)": "6352211e",
        "payloadSizeLimitLookup(uint16)": "3f1f4fa4",
        "period()": "ef78d4fd",
        "periodInfo(uint256)": "a4d80086",
        "periodMint(uint256,uint16,bytes32[])": "1a9ec177",
        "precrime()": "950c8a74",
        "realOwner()": "1df270f3",
        "redeemBags(uint256[])": "4d8afe27",
        "redeemInfo()": "efe7aa49",
        "registryAddress()": "ed9aab51",
        "renounceOwnership()": "715018a6",
        "retryMessage(uint16,bytes,uint64,bytes)": "d1deba1f",
        "royaltyInfo(uint256,uint256)": "2a55205a",
        "safeTransferFrom(address,address,uint256)": "42842e0e",
        "safeTransferFrom(address,address,uint256,bytes)": "b88d4fde",
        "sendBatchFrom(address,uint16,bytes,uint256[],address,address,bytes)": "ab3ffb93",
        "sendFrom(address,uint16,bytes,uint256,address,address,bytes)": "51905636",
        "setApprovalForAll(address,bool)": "a22cb465",
        "setBagRedeemer(address)": "18443df5",
        "setBaseURI(string)": "55f804b3",
        "setConfig(uint16,uint16,uint256,bytes)": "cbed8b9c",
        "setDefaultRoyalty(address,uint96)": "04634d8d",
        "setDstChainIdToBatchLimit(uint16,uint256)": "9ea5d6b1",
        "setDstChainIdToTransferGas(uint16,uint256)": "d12473a5",
        "setFcfsMerkleRoot(bytes32)": "1ed7852a",
        "setGtdMerkleRoot(bytes32)": "8d0f7c16",
        "setIsRegistryActive(bool)": "46fff98d",
        "setMinDstGas(uint16,uint16,uint256)": "df2a5b3b",
        "setMinGasToTransferAndStore(uint256)": "0b4cad4c",
        "setOperatorFilteringEnabled(bool)": "b7c0b8e8",
        "setPayloadSizeLimit(uint16,uint256)": "0df37483",
        "setPeriodParams(uint256,uint32,uint32,uint64,uint64,uint64)": "eb3f3e01",
        "setPrecrime(address)": "baf3292d",
        "setReceiveVersion(uint16)": "10ddb137",
        "setRegistryAddress(address)": "ab7b4993",
        "setSendVersion(uint16)": "07e0db17",
        "setTokenRoyalty(uint256,address,uint96)": "5944c753",
        "setTrustedRemote(uint16,bytes)": "eb8d72b7",
        "setTrustedRemoteAddress(uint16,bytes)": "a6c3d165",
        "storedCredits(bytes32)": "22a3ecf9",
        "supportsInterface(bytes4)": "01ffc9a7",
        "symbol()": "95d89b41",
        "tokenURI(uint256)": "c87b56dd",
        "totalMintedInPeriod(uint256)": "3960be69",
        "totalSupply()": "18160ddd",
        "transferFrom(address,address,uint256)": "23b872dd",
        "transferLowerOwnership(address)": "09af3f9a",
        "transferOwnership(address)": "f2fde38b",
        "transferRealOwnership(address)": "2cff6770",
        "trustedRemoteLookup(uint16)": "7533d788",
        "withdraw()": "3ccfd60b"
    },
    "gasEstimates": {
        "creation": {
            "codeDepositCost": "4706000",
            "executionCost": "infinite",
            "totalCost": "infinite"
        },
        "external": {
            "DEFAULT_PAYLOAD_SIZE_LIMIT()": "351",
            "FCFS_PERIOD()": "284",
            "FUNCTION_TYPE_SEND()": "359",
            "GTD_PERIOD()": "351",
            "MAX_SUPPLY()": "infinite",
            "MINT_BATCH_SIZE()": "328",
            "PUBLIC_PERIOD()": "351",
            "WITHDRAW_ADDRESS()": "infinite",
            "approve(address,uint256)": "infinite",
            "balanceOf(address)": "2778",
            "breakTransferLock()": "26661",
            "clearCredits(bytes)": "infinite",
            "dstChainIdToBatchLimit(uint16)": "2597",
            "dstChainIdToTransferGas(uint16)": "2661",
            "estimateSendBatchFee(uint16,bytes,uint256[],bool,bytes)": "infinite",
            "estimateSendFee(uint16,bytes,uint256,bool,bytes)": "infinite",
            "failedMessages(uint16,bytes,uint64)": "infinite",
            "fcfs_validateAddress(bytes32[],address)": "infinite",
            "forceResumeReceive(uint16,bytes)": "infinite",
            "getApproved(uint256)": "6926",
            "getConfig(uint16,uint16,address,uint256)": "infinite",
            "getTrustedRemoteAddress(uint16)": "infinite",
            "gtd_validateAddress(bytes32[],address)": "infinite",
            "individualMintedInPeriod(uint256,address)": "2684",
            "initialTransferLockOn()": "2401",
            "isApprovedForAll(address,address)": "infinite",
            "isRegistryActive()": "2421",
            "isTrustedRemote(uint16,bytes)": "infinite",
            "lzEndpoint()": "infinite",
            "lzReceive(uint16,bytes,uint64,bytes)": "infinite",
            "minDstGasLookup(uint16,uint16)": "infinite",
            "minGasToTransferAndStore()": "2363",
            "name()": "infinite",
            "nonblockingLzReceive(uint16,bytes,uint64,bytes)": "infinite",
            "onERC721Received(address,address,uint256,bytes)": "infinite",
            "openPeriod(uint256)": "24620",
            "openRedeemBagState()": "28978",
            "operatorFilteringEnabled()": "2475",
            "owner()": "2421",
            "ownerOf(uint256)": "infinite",
            "payloadSizeLimitLookup(uint16)": "2619",
            "period()": "2450",
            "periodInfo(uint256)": "2804",
            "periodMint(uint256,uint16,bytes32[])": "infinite",
            "precrime()": "2471",
            "realOwner()": "2449",
            "redeemBags(uint256[])": "infinite",
            "redeemInfo()": "2561",
            "registryAddress()": "2481",
            "renounceOwnership()": "infinite",
            "retryMessage(uint16,bytes,uint64,bytes)": "infinite",
            "royaltyInfo(uint256,uint256)": "5194",
            "safeTransferFrom(address,address,uint256)": "infinite",
            "safeTransferFrom(address,address,uint256,bytes)": "infinite",
            "sendBatchFrom(address,uint16,bytes,uint256[],address,address,bytes)": "infinite",
            "sendFrom(address,uint16,bytes,uint256,address,address,bytes)": "infinite",
            "setApprovalForAll(address,bool)": "infinite",
            "setBagRedeemer(address)": "27011",
            "setBaseURI(string)": "infinite",
            "setConfig(uint16,uint16,uint256,bytes)": "infinite",
            "setDefaultRoyalty(address,uint96)": "25029",
            "setDstChainIdToBatchLimit(uint16,uint256)": "26205",
            "setDstChainIdToTransferGas(uint16,uint256)": "26149",
            "setFcfsMerkleRoot(bytes32)": "24702",
            "setGtdMerkleRoot(bytes32)": "24627",
            "setIsRegistryActive(bool)": "29025",
            "setMinDstGas(uint16,uint16,uint256)": "infinite",
            "setMinGasToTransferAndStore(uint256)": "25712",
            "setOperatorFilteringEnabled(bool)": "26755",
            "setPayloadSizeLimit(uint16,uint256)": "24813",
            "setPeriodParams(uint256,uint32,uint32,uint64,uint64,uint64)": "infinite",
            "setPrecrime(address)": "27928",
            "setReceiveVersion(uint16)": "infinite",
            "setRegistryAddress(address)": "26829",
            "setSendVersion(uint16)": "infinite",
            "setTokenRoyalty(uint256,address,uint96)": "25094",
            "setTrustedRemote(uint16,bytes)": "infinite",
            "setTrustedRemoteAddress(uint16,bytes)": "infinite",
            "storedCredits(bytes32)": "6961",
            "supportsInterface(bytes4)": "infinite",
            "symbol()": "infinite",
            "tokenURI(uint256)": "infinite",
            "totalMintedInPeriod(uint256)": "2634",
            "totalSupply()": "4522",
            "transferFrom(address,address,uint256)": "infinite",
            "transferLowerOwnership(address)": "infinite",
            "transferOwnership(address)": "infinite",
            "transferRealOwnership(address)": "26818",
            "trustedRemoteLookup(uint16)": "infinite",
            "withdraw()": "infinite"
        },
        "internal": {
            "_baseURI()": "infinite",
            "_beforeTokenTransfers(address,address,uint256,uint256)": "infinite",
            "_isValidAgainstRegistry(address)": "infinite",
            "_operatorFilteringEnabled()": "infinite",
            "_redeemBagsImpl(address,uint256[] memory,bool,address)": "infinite"
        }
    }
}