{
  "address": "0xC1251AC108255068D4d5aF1895246675d0059556",
  "abi": [
    {
      "inputs": [
        {
          "internalType": "string",
          "name": "baseURI",
          "type": "string"
        },
        {
          "internalType": "string",
          "name": "_name",
          "type": "string"
        },
        {
          "internalType": "string",
          "name": "_symbol",
          "type": "string"
        },
        {
          "internalType": "uint256",
          "name": "_minGasToTransfer",
          "type": "uint256"
        },
        {
          "internalType": "address",
          "name": "_lzEndpoint",
          "type": "address"
        }
      ],
      "stateMutability": "nonpayable",
      "type": "constructor"
    },
    {
      "inputs": [],
      "name": "ApprovalCallerNotOwnerNorApproved",
      "type": "error"
    },
    {
      "inputs": [],
      "name": "ApprovalQueryForNonexistentToken",
      "type": "error"
    },
    {
      "inputs": [],
      "name": "BalanceQueryForZeroAddress",
      "type": "error"
    },
    {
      "inputs": [
        {
          "internalType": "address",
          "name": "minter",
          "type": "address"
        }
      ],
      "name": "InvalidMinter",
      "type": "error"
    },
    {
      "inputs": [],
      "name": "MintERC2309QuantityExceedsLimit",
      "type": "error"
    },
    {
      "inputs": [],
      "name": "MintLimitExceeded",
      "type": "error"
    },
    {
      "inputs": [],
      "name": "MintNotAvailable",
      "type": "error"
    },
    {
      "inputs": [],
      "name": "MintToZeroAddress",
      "type": "error"
    },
    {
      "inputs": [],
      "name": "MintZeroQuantity",
      "type": "error"
    },
    {
      "inputs": [],
      "name": "OwnerQueryForNonexistentToken",
      "type": "error"
    },
    {
      "inputs": [],
      "name": "OwnershipNotInitializedForExtraData",
      "type": "error"
    },
    {
      "inputs": [],
      "name": "ReachedMaxTotalSupply",
      "type": "error"
    },
    {
      "inputs": [],
      "name": "ReachedMaxTreasurySupply",
      "type": "error"
    },
    {
      "inputs": [],
      "name": "TransferCallerNotOwnerNorApproved",
      "type": "error"
    },
    {
      "inputs": [],
      "name": "TransferFromIncorrectOwner",
      "type": "error"
    },
    {
      "inputs": [],
      "name": "TransferToNonERC721ReceiverImplementer",
      "type": "error"
    },
    {
      "inputs": [],
      "name": "TransferToZeroAddress",
      "type": "error"
    },
    {
      "inputs": [],
      "name": "URIQueryForNonexistentToken",
      "type": "error"
    },
    {
      "anonymous": false,
      "inputs": [
        {
          "indexed": true,
          "internalType": "address",
          "name": "owner",
          "type": "address"
        },
        {
          "indexed": true,
          "internalType": "address",
          "name": "approved",
          "type": "address"
        },
        {
          "indexed": true,
          "internalType": "uint256",
          "name": "tokenId",
          "type": "uint256"
        }
      ],
      "name": "Approval",
      "type": "event"
    },
    {
      "anonymous": false,
      "inputs": [
        {
          "indexed": true,
          "internalType": "address",
          "name": "owner",
          "type": "address"
        },
        {
          "indexed": true,
          "internalType": "address",
          "name": "operator",
          "type": "address"
        },
        {
          "indexed": false,
          "internalType": "bool",
          "name": "approved",
          "type": "bool"
        }
      ],
      "name": "ApprovalForAll",
      "type": "event"
    },
    {
      "anonymous": false,
      "inputs": [
        {
          "indexed": true,
          "internalType": "uint256",
          "name": "fromTokenId",
          "type": "uint256"
        },
        {
          "indexed": false,
          "internalType": "uint256",
          "name": "toTokenId",
          "type": "uint256"
        },
        {
          "indexed": true,
          "internalType": "address",
          "name": "from",
          "type": "address"
        },
        {
          "indexed": true,
          "internalType": "address",
          "name": "to",
          "type": "address"
        }
      ],
      "name": "ConsecutiveTransfer",
      "type": "event"
    },
    {
      "anonymous": false,
      "inputs": [
        {
          "indexed": false,
          "internalType": "bytes32",
          "name": "_hashedPayload",
          "type": "bytes32"
        }
      ],
      "name": "CreditCleared",
      "type": "event"
    },
    {
      "anonymous": false,
      "inputs": [
        {
          "indexed": false,
          "internalType": "bytes32",
          "name": "_hashedPayload",
          "type": "bytes32"
        },
        {
          "indexed": false,
          "internalType": "bytes",
          "name": "_payload",
          "type": "bytes"
        }
      ],
      "name": "CreditStored",
      "type": "event"
    },
    {
      "anonymous": false,
      "inputs": [
        {
          "indexed": false,
          "internalType": "uint16",
          "name": "_srcChainId",
          "type": "uint16"
        },
        {
          "indexed": false,
          "internalType": "bytes",
          "name": "_srcAddress",
          "type": "bytes"
        },
        {
          "indexed": false,
          "internalType": "uint64",
          "name": "_nonce",
          "type": "uint64"
        },
        {
          "indexed": false,
          "internalType": "bytes",
          "name": "_payload",
          "type": "bytes"
        },
        {
          "indexed": false,
          "internalType": "bytes",
          "name": "_reason",
          "type": "bytes"
        }
      ],
      "name": "MessageFailed",
      "type": "event"
    },
    {
      "anonymous": false,
      "inputs": [
        {
          "indexed": false,
          "internalType": "bool",
          "name": "state",
          "type": "bool"
        }
      ],
      "name": "MintStateChanged",
      "type": "event"
    },
    {
      "anonymous": false,
      "inputs": [
        {
          "indexed": true,
          "internalType": "address",
          "name": "previousOwner",
          "type": "address"
        },
        {
          "indexed": true,
          "internalType": "address",
          "name": "newOwner",
          "type": "address"
        }
      ],
      "name": "OwnershipTransferred",
      "type": "event"
    },
    {
      "anonymous": false,
      "inputs": [
        {
          "indexed": true,
          "internalType": "uint16",
          "name": "_srcChainId",
          "type": "uint16"
        },
        {
          "indexed": true,
          "internalType": "bytes",
          "name": "_srcAddress",
          "type": "bytes"
        },
        {
          "indexed": true,
          "internalType": "address",
          "name": "_toAddress",
          "type": "address"
        },
        {
          "indexed": false,
          "internalType": "uint256[]",
          "name": "_tokenIds",
          "type": "uint256[]"
        }
      ],
      "name": "ReceiveFromChain",
      "type": "event"
    },
    {
      "anonymous": false,
      "inputs": [
        {
          "indexed": false,
          "internalType": "uint16",
          "name": "_srcChainId",
          "type": "uint16"
        },
        {
          "indexed": false,
          "internalType": "bytes",
          "name": "_srcAddress",
          "type": "bytes"
        },
        {
          "indexed": false,
          "internalType": "uint64",
          "name": "_nonce",
          "type": "uint64"
        },
        {
          "indexed": false,
          "internalType": "bytes32",
          "name": "_payloadHash",
          "type": "bytes32"
        }
      ],
      "name": "RetryMessageSuccess",
      "type": "event"
    },
    {
      "anonymous": false,
      "inputs": [
        {
          "indexed": true,
          "internalType": "uint16",
          "name": "_dstChainId",
          "type": "uint16"
        },
        {
          "indexed": true,
          "internalType": "address",
          "name": "_from",
          "type": "address"
        },
        {
          "indexed": true,
          "internalType": "bytes",
          "name": "_toAddress",
          "type": "bytes"
        },
        {
          "indexed": false,
          "internalType": "uint256[]",
          "name": "_tokenIds",
          "type": "uint256[]"
        }
      ],
      "name": "SendToChain",
      "type": "event"
    },
    {
      "anonymous": false,
      "inputs": [
        {
          "indexed": false,
          "internalType": "uint16",
          "name": "_dstChainId",
          "type": "uint16"
        },
        {
          "indexed": false,
          "internalType": "uint256",
          "name": "_dstChainIdToBatchLimit",
          "type": "uint256"
        }
      ],
      "name": "SetDstChainIdToBatchLimit",
      "type": "event"
    },
    {
      "anonymous": false,
      "inputs": [
        {
          "indexed": false,
          "internalType": "uint16",
          "name": "_dstChainId",
          "type": "uint16"
        },
        {
          "indexed": false,
          "internalType": "uint256",
          "name": "_dstChainIdToTransferGas",
          "type": "uint256"
        }
      ],
      "name": "SetDstChainIdToTransferGas",
      "type": "event"
    },
    {
      "anonymous": false,
      "inputs": [
        {
          "indexed": false,
          "internalType": "uint16",
          "name": "_dstChainId",
          "type": "uint16"
        },
        {
          "indexed": false,
          "internalType": "uint16",
          "name": "_type",
          "type": "uint16"
        },
        {
          "indexed": false,
          "internalType": "uint256",
          "name": "_minDstGas",
          "type": "uint256"
        }
      ],
      "name": "SetMinDstGas",
      "type": "event"
    },
    {
      "anonymous": false,
      "inputs": [
        {
          "indexed": false,
          "internalType": "uint256",
          "name": "_minGasToTransferAndStore",
          "type": "uint256"
        }
      ],
      "name": "SetMinGasToTransferAndStore",
      "type": "event"
    },
    {
      "anonymous": false,
      "inputs": [
        {
          "indexed": false,
          "internalType": "address",
          "name": "precrime",
          "type": "address"
        }
      ],
      "name": "SetPrecrime",
      "type": "event"
    },
    {
      "anonymous": false,
      "inputs": [
        {
          "indexed": false,
          "internalType": "uint16",
          "name": "_remoteChainId",
          "type": "uint16"
        },
        {
          "indexed": false,
          "internalType": "bytes",
          "name": "_path",
          "type": "bytes"
        }
      ],
      "name": "SetTrustedRemote",
      "type": "event"
    },
    {
      "anonymous": false,
      "inputs": [
        {
          "indexed": false,
          "internalType": "uint16",
          "name": "_remoteChainId",
          "type": "uint16"
        },
        {
          "indexed": false,
          "internalType": "bytes",
          "name": "_remoteAddress",
          "type": "bytes"
        }
      ],
      "name": "SetTrustedRemoteAddress",
      "type": "event"
    },
    {
      "anonymous": false,
      "inputs": [
        {
          "indexed": true,
          "internalType": "address",
          "name": "from",
          "type": "address"
        },
        {
          "indexed": true,
          "internalType": "address",
          "name": "to",
          "type": "address"
        },
        {
          "indexed": true,
          "internalType": "uint256",
          "name": "tokenId",
          "type": "uint256"
        }
      ],
      "name": "Transfer",
      "type": "event"
    },
    {
      "anonymous": false,
      "inputs": [
        {
          "indexed": true,
          "internalType": "address",
          "name": "recipient",
          "type": "address"
        },
        {
          "indexed": false,
          "internalType": "uint256",
          "name": "quantity",
          "type": "uint256"
        },
        {
          "indexed": false,
          "internalType": "uint256",
          "name": "fromIndex",
          "type": "uint256"
        }
      ],
      "name": "TreasuryMint",
      "type": "event"
    },
    {
      "inputs": [],
      "name": "DEFAULT_PAYLOAD_SIZE_LIMIT",
      "outputs": [
        {
          "internalType": "uint256",
          "name": "",
          "type": "uint256"
        }
      ],
      "stateMutability": "view",
      "type": "function"
    },
    {
      "inputs": [],
      "name": "FUNCTION_TYPE_SEND",
      "outputs": [
        {
          "internalType": "uint16",
          "name": "",
          "type": "uint16"
        }
      ],
      "stateMutability": "view",
      "type": "function"
    },
    {
      "inputs": [],
      "name": "MAX_ELEMENTS",
      "outputs": [
        {
          "internalType": "uint256",
          "name": "",
          "type": "uint256"
        }
      ],
      "stateMutability": "view",
      "type": "function"
    },
    {
      "inputs": [
        {
          "internalType": "address",
          "name": "minterAddress",
          "type": "address"
        }
      ],
      "name": "addToWhiteList",
      "outputs": [],
      "stateMutability": "nonpayable",
      "type": "function"
    },
    {
      "inputs": [
        {
          "internalType": "address",
          "name": "to",
          "type": "address"
        },
        {
          "internalType": "uint256",
          "name": "tokenId",
          "type": "uint256"
        }
      ],
      "name": "approve",
      "outputs": [],
      "stateMutability": "payable",
      "type": "function"
    },
    {
      "inputs": [
        {
          "internalType": "address",
          "name": "owner",
          "type": "address"
        }
      ],
      "name": "balanceOf",
      "outputs": [
        {
          "internalType": "uint256",
          "name": "",
          "type": "uint256"
        }
      ],
      "stateMutability": "view",
      "type": "function"
    },
    {
      "inputs": [],
      "name": "baseTokenURI",
      "outputs": [
        {
          "internalType": "string",
          "name": "",
          "type": "string"
        }
      ],
      "stateMutability": "view",
      "type": "function"
    },
    {
      "inputs": [
        {
          "internalType": "uint256",
          "name": "tokenId",
          "type": "uint256"
        }
      ],
      "name": "burn",
      "outputs": [],
      "stateMutability": "nonpayable",
      "type": "function"
    },
    {
      "inputs": [
        {
          "internalType": "bytes",
          "name": "_payload",
          "type": "bytes"
        }
      ],
      "name": "clearCredits",
      "outputs": [],
      "stateMutability": "nonpayable",
      "type": "function"
    },
    {
      "inputs": [
        {
          "internalType": "uint16",
          "name": "",
          "type": "uint16"
        }
      ],
      "name": "dstChainIdToBatchLimit",
      "outputs": [
        {
          "internalType": "uint256",
          "name": "",
          "type": "uint256"
        }
      ],
      "stateMutability": "view",
      "type": "function"
    },
    {
      "inputs": [
        {
          "internalType": "uint16",
          "name": "",
          "type": "uint16"
        }
      ],
      "name": "dstChainIdToTransferGas",
      "outputs": [
        {
          "internalType": "uint256",
          "name": "",
          "type": "uint256"
        }
      ],
      "stateMutability": "view",
      "type": "function"
    },
    {
      "inputs": [
        {
          "internalType": "bool",
          "name": "_whiteListingPeriod",
          "type": "bool"
        }
      ],
      "name": "enableWhiteListing",
      "outputs": [],
      "stateMutability": "nonpayable",
      "type": "function"
    },
    {
      "inputs": [
        {
          "internalType": "uint16",
          "name": "_dstChainId",
          "type": "uint16"
        },
        {
          "internalType": "bytes",
          "name": "_toAddress",
          "type": "bytes"
        },
        {
          "internalType": "uint256[]",
          "name": "_tokenIds",
          "type": "uint256[]"
        },
        {
          "internalType": "bool",
          "name": "_useZro",
          "type": "bool"
        },
        {
          "internalType": "bytes",
          "name": "_adapterParams",
          "type": "bytes"
        }
      ],
      "name": "estimateSendBatchFee",
      "outputs": [
        {
          "internalType": "uint256",
          "name": "nativeFee",
          "type": "uint256"
        },
        {
          "internalType": "uint256",
          "name": "zroFee",
          "type": "uint256"
        }
      ],
      "stateMutability": "view",
      "type": "function"
    },
    {
      "inputs": [
        {
          "internalType": "uint16",
          "name": "_dstChainId",
          "type": "uint16"
        },
        {
          "internalType": "bytes",
          "name": "_toAddress",
          "type": "bytes"
        },
        {
          "internalType": "uint256",
          "name": "_tokenId",
          "type": "uint256"
        },
        {
          "internalType": "bool",
          "name": "_useZro",
          "type": "bool"
        },
        {
          "internalType": "bytes",
          "name": "_adapterParams",
          "type": "bytes"
        }
      ],
      "name": "estimateSendFee",
      "outputs": [
        {
          "internalType": "uint256",
          "name": "nativeFee",
          "type": "uint256"
        },
        {
          "internalType": "uint256",
          "name": "zroFee",
          "type": "uint256"
        }
      ],
      "stateMutability": "view",
      "type": "function"
    },
    {
      "inputs": [
        {
          "internalType": "uint16",
          "name": "",
          "type": "uint16"
        },
        {
          "internalType": "bytes",
          "name": "",
          "type": "bytes"
        },
        {
          "internalType": "uint64",
          "name": "",
          "type": "uint64"
        }
      ],
      "name": "failedMessages",
      "outputs": [
        {
          "internalType": "bytes32",
          "name": "",
          "type": "bytes32"
        }
      ],
      "stateMutability": "view",
      "type": "function"
    },
    {
      "inputs": [
        {
          "internalType": "uint16",
          "name": "_srcChainId",
          "type": "uint16"
        },
        {
          "internalType": "bytes",
          "name": "_srcAddress",
          "type": "bytes"
        }
      ],
      "name": "forceResumeReceive",
      "outputs": [],
      "stateMutability": "nonpayable",
      "type": "function"
    },
    {
      "inputs": [
        {
          "internalType": "uint256",
          "name": "tokenId",
          "type": "uint256"
        }
      ],
      "name": "getApproved",
      "outputs": [
        {
          "internalType": "address",
          "name": "",
          "type": "address"
        }
      ],
      "stateMutability": "view",
      "type": "function"
    },
    {
      "inputs": [
        {
          "internalType": "uint16",
          "name": "_version",
          "type": "uint16"
        },
        {
          "internalType": "uint16",
          "name": "_chainId",
          "type": "uint16"
        },
        {
          "internalType": "address",
          "name": "",
          "type": "address"
        },
        {
          "internalType": "uint256",
          "name": "_configType",
          "type": "uint256"
        }
      ],
      "name": "getConfig",
      "outputs": [
        {
          "internalType": "bytes",
          "name": "",
          "type": "bytes"
        }
      ],
      "stateMutability": "view",
      "type": "function"
    },
    {
      "inputs": [
        {
          "internalType": "uint16",
          "name": "_remoteChainId",
          "type": "uint16"
        }
      ],
      "name": "getTrustedRemoteAddress",
      "outputs": [
        {
          "internalType": "bytes",
          "name": "",
          "type": "bytes"
        }
      ],
      "stateMutability": "view",
      "type": "function"
    },
    {
      "inputs": [
        {
          "internalType": "address",
          "name": "owner",
          "type": "address"
        },
        {
          "internalType": "address",
          "name": "operator",
          "type": "address"
        }
      ],
      "name": "isApprovedForAll",
      "outputs": [
        {
          "internalType": "bool",
          "name": "",
          "type": "bool"
        }
      ],
      "stateMutability": "view",
      "type": "function"
    },
    {
      "inputs": [
        {
          "internalType": "uint16",
          "name": "_srcChainId",
          "type": "uint16"
        },
        {
          "internalType": "bytes",
          "name": "_srcAddress",
          "type": "bytes"
        }
      ],
      "name": "isTrustedRemote",
      "outputs": [
        {
          "internalType": "bool",
          "name": "",
          "type": "bool"
        }
      ],
      "stateMutability": "view",
      "type": "function"
    },
    {
      "inputs": [],
      "name": "lzEndpoint",
      "outputs": [
        {
          "internalType": "contract ILayerZeroEndpoint",
          "name": "",
          "type": "address"
        }
      ],
      "stateMutability": "view",
      "type": "function"
    },
    {
      "inputs": [
        {
          "internalType": "uint16",
          "name": "_srcChainId",
          "type": "uint16"
        },
        {
          "internalType": "bytes",
          "name": "_srcAddress",
          "type": "bytes"
        },
        {
          "internalType": "uint64",
          "name": "_nonce",
          "type": "uint64"
        },
        {
          "internalType": "bytes",
          "name": "_payload",
          "type": "bytes"
        }
      ],
      "name": "lzReceive",
      "outputs": [],
      "stateMutability": "nonpayable",
      "type": "function"
    },
    {
      "inputs": [
        {
          "internalType": "uint16",
          "name": "",
          "type": "uint16"
        },
        {
          "internalType": "uint16",
          "name": "",
          "type": "uint16"
        }
      ],
      "name": "minDstGasLookup",
      "outputs": [
        {
          "internalType": "uint256",
          "name": "",
          "type": "uint256"
        }
      ],
      "stateMutability": "view",
      "type": "function"
    },
    {
      "inputs": [],
      "name": "minGasToTransferAndStore",
      "outputs": [
        {
          "internalType": "uint256",
          "name": "",
          "type": "uint256"
        }
      ],
      "stateMutability": "view",
      "type": "function"
    },
    {
      "inputs": [
        {
          "internalType": "uint256",
          "name": "quantity",
          "type": "uint256"
        }
      ],
      "name": "mint",
      "outputs": [],
      "stateMutability": "nonpayable",
      "type": "function"
    },
    {
      "inputs": [],
      "name": "mintLimit",
      "outputs": [
        {
          "internalType": "uint256",
          "name": "",
          "type": "uint256"
        }
      ],
      "stateMutability": "view",
      "type": "function"
    },
    {
      "inputs": [],
      "name": "mintState",
      "outputs": [
        {
          "internalType": "bool",
          "name": "",
          "type": "bool"
        }
      ],
      "stateMutability": "view",
      "type": "function"
    },
    {
      "inputs": [
        {
          "internalType": "address",
          "name": "",
          "type": "address"
        }
      ],
      "name": "minters",
      "outputs": [
        {
          "internalType": "bool",
          "name": "",
          "type": "bool"
        }
      ],
      "stateMutability": "view",
      "type": "function"
    },
    {
      "inputs": [],
      "name": "name",
      "outputs": [
        {
          "internalType": "string",
          "name": "",
          "type": "string"
        }
      ],
      "stateMutability": "view",
      "type": "function"
    },
    {
      "inputs": [
        {
          "internalType": "uint16",
          "name": "_srcChainId",
          "type": "uint16"
        },
        {
          "internalType": "bytes",
          "name": "_srcAddress",
          "type": "bytes"
        },
        {
          "internalType": "uint64",
          "name": "_nonce",
          "type": "uint64"
        },
        {
          "internalType": "bytes",
          "name": "_payload",
          "type": "bytes"
        }
      ],
      "name": "nonblockingLzReceive",
      "outputs": [],
      "stateMutability": "nonpayable",
      "type": "function"
    },
    {
      "inputs": [
        {
          "internalType": "address",
          "name": "",
          "type": "address"
        },
        {
          "internalType": "address",
          "name": "",
          "type": "address"
        },
        {
          "internalType": "uint256",
          "name": "",
          "type": "uint256"
        },
        {
          "internalType": "bytes",
          "name": "",
          "type": "bytes"
        }
      ],
      "name": "onERC721Received",
      "outputs": [
        {
          "internalType": "bytes4",
          "name": "",
          "type": "bytes4"
        }
      ],
      "stateMutability": "nonpayable",
      "type": "function"
    },
    {
      "inputs": [],
      "name": "owner",
      "outputs": [
        {
          "internalType": "address",
          "name": "",
          "type": "address"
        }
      ],
      "stateMutability": "view",
      "type": "function"
    },
    {
      "inputs": [
        {
          "internalType": "uint256",
          "name": "tokenId",
          "type": "uint256"
        }
      ],
      "name": "ownerOf",
      "outputs": [
        {
          "internalType": "address",
          "name": "",
          "type": "address"
        }
      ],
      "stateMutability": "view",
      "type": "function"
    },
    {
      "inputs": [
        {
          "internalType": "uint16",
          "name": "",
          "type": "uint16"
        }
      ],
      "name": "payloadSizeLimitLookup",
      "outputs": [
        {
          "internalType": "uint256",
          "name": "",
          "type": "uint256"
        }
      ],
      "stateMutability": "view",
      "type": "function"
    },
    {
      "inputs": [],
      "name": "precrime",
      "outputs": [
        {
          "internalType": "address",
          "name": "",
          "type": "address"
        }
      ],
      "stateMutability": "view",
      "type": "function"
    },
    {
      "inputs": [],
      "name": "prerevealTokenURI",
      "outputs": [
        {
          "internalType": "string",
          "name": "",
          "type": "string"
        }
      ],
      "stateMutability": "view",
      "type": "function"
    },
    {
      "inputs": [
        {
          "internalType": "address",
          "name": "minterAddress",
          "type": "address"
        }
      ],
      "name": "removeFromWhiteList",
      "outputs": [],
      "stateMutability": "nonpayable",
      "type": "function"
    },
    {
      "inputs": [],
      "name": "renounceOwnership",
      "outputs": [],
      "stateMutability": "nonpayable",
      "type": "function"
    },
    {
      "inputs": [
        {
          "internalType": "uint16",
          "name": "_srcChainId",
          "type": "uint16"
        },
        {
          "internalType": "bytes",
          "name": "_srcAddress",
          "type": "bytes"
        },
        {
          "internalType": "uint64",
          "name": "_nonce",
          "type": "uint64"
        },
        {
          "internalType": "bytes",
          "name": "_payload",
          "type": "bytes"
        }
      ],
      "name": "retryMessage",
      "outputs": [],
      "stateMutability": "payable",
      "type": "function"
    },
    {
      "inputs": [],
      "name": "revealed",
      "outputs": [
        {
          "internalType": "bool",
          "name": "",
          "type": "bool"
        }
      ],
      "stateMutability": "view",
      "type": "function"
    },
    {
      "inputs": [
        {
          "internalType": "uint256",
          "name": "tokenId",
          "type": "uint256"
        },
        {
          "internalType": "uint256",
          "name": "salePrice",
          "type": "uint256"
        }
      ],
      "name": "royaltyInfo",
      "outputs": [
        {
          "internalType": "address",
          "name": "",
          "type": "address"
        },
        {
          "internalType": "uint256",
          "name": "",
          "type": "uint256"
        }
      ],
      "stateMutability": "view",
      "type": "function"
    },
    {
      "inputs": [
        {
          "internalType": "address",
          "name": "from",
          "type": "address"
        },
        {
          "internalType": "address",
          "name": "to",
          "type": "address"
        },
        {
          "internalType": "uint256",
          "name": "tokenId",
          "type": "uint256"
        }
      ],
      "name": "safeTransferFrom",
      "outputs": [],
      "stateMutability": "payable",
      "type": "function"
    },
    {
      "inputs": [
        {
          "internalType": "address",
          "name": "from",
          "type": "address"
        },
        {
          "internalType": "address",
          "name": "to",
          "type": "address"
        },
        {
          "internalType": "uint256",
          "name": "tokenId",
          "type": "uint256"
        },
        {
          "internalType": "bytes",
          "name": "_data",
          "type": "bytes"
        }
      ],
      "name": "safeTransferFrom",
      "outputs": [],
      "stateMutability": "payable",
      "type": "function"
    },
    {
      "inputs": [
        {
          "internalType": "address",
          "name": "_from",
          "type": "address"
        },
        {
          "internalType": "uint16",
          "name": "_dstChainId",
          "type": "uint16"
        },
        {
          "internalType": "bytes",
          "name": "_toAddress",
          "type": "bytes"
        },
        {
          "internalType": "uint256[]",
          "name": "_tokenIds",
          "type": "uint256[]"
        },
        {
          "internalType": "address payable",
          "name": "_refundAddress",
          "type": "address"
        },
        {
          "internalType": "address",
          "name": "_zroPaymentAddress",
          "type": "address"
        },
        {
          "internalType": "bytes",
          "name": "_adapterParams",
          "type": "bytes"
        }
      ],
      "name": "sendBatchFrom",
      "outputs": [],
      "stateMutability": "payable",
      "type": "function"
    },
    {
      "inputs": [
        {
          "internalType": "address",
          "name": "_from",
          "type": "address"
        },
        {
          "internalType": "uint16",
          "name": "_dstChainId",
          "type": "uint16"
        },
        {
          "internalType": "bytes",
          "name": "_toAddress",
          "type": "bytes"
        },
        {
          "internalType": "uint256",
          "name": "_tokenId",
          "type": "uint256"
        },
        {
          "internalType": "address payable",
          "name": "_refundAddress",
          "type": "address"
        },
        {
          "internalType": "address",
          "name": "_zroPaymentAddress",
          "type": "address"
        },
        {
          "internalType": "bytes",
          "name": "_adapterParams",
          "type": "bytes"
        }
      ],
      "name": "sendFrom",
      "outputs": [],
      "stateMutability": "payable",
      "type": "function"
    },
    {
      "inputs": [
        {
          "internalType": "address",
          "name": "operator",
          "type": "address"
        },
        {
          "internalType": "bool",
          "name": "approved",
          "type": "bool"
        }
      ],
      "name": "setApprovalForAll",
      "outputs": [],
      "stateMutability": "nonpayable",
      "type": "function"
    },
    {
      "inputs": [
        {
          "internalType": "string",
          "name": "baseURI",
          "type": "string"
        }
      ],
      "name": "setBaseURI",
      "outputs": [],
      "stateMutability": "nonpayable",
      "type": "function"
    },
    {
      "inputs": [
        {
          "internalType": "uint16",
          "name": "_version",
          "type": "uint16"
        },
        {
          "internalType": "uint16",
          "name": "_chainId",
          "type": "uint16"
        },
        {
          "internalType": "uint256",
          "name": "_configType",
          "type": "uint256"
        },
        {
          "internalType": "bytes",
          "name": "_config",
          "type": "bytes"
        }
      ],
      "name": "setConfig",
      "outputs": [],
      "stateMutability": "nonpayable",
      "type": "function"
    },
    {
      "inputs": [
        {
          "internalType": "address",
          "name": "receiver",
          "type": "address"
        },
        {
          "internalType": "uint96",
          "name": "feeNumerator",
          "type": "uint96"
        }
      ],
      "name": "setDefaultRoyalty",
      "outputs": [],
      "stateMutability": "nonpayable",
      "type": "function"
    },
    {
      "inputs": [
        {
          "internalType": "uint16",
          "name": "_dstChainId",
          "type": "uint16"
        },
        {
          "internalType": "uint256",
          "name": "_dstChainIdToBatchLimit",
          "type": "uint256"
        }
      ],
      "name": "setDstChainIdToBatchLimit",
      "outputs": [],
      "stateMutability": "nonpayable",
      "type": "function"
    },
    {
      "inputs": [
        {
          "internalType": "uint16",
          "name": "_dstChainId",
          "type": "uint16"
        },
        {
          "internalType": "uint256",
          "name": "_dstChainIdToTransferGas",
          "type": "uint256"
        }
      ],
      "name": "setDstChainIdToTransferGas",
      "outputs": [],
      "stateMutability": "nonpayable",
      "type": "function"
    },
    {
      "inputs": [
        {
          "internalType": "uint16",
          "name": "_dstChainId",
          "type": "uint16"
        },
        {
          "internalType": "uint16",
          "name": "_packetType",
          "type": "uint16"
        },
        {
          "internalType": "uint256",
          "name": "_minGas",
          "type": "uint256"
        }
      ],
      "name": "setMinDstGas",
      "outputs": [],
      "stateMutability": "nonpayable",
      "type": "function"
    },
    {
      "inputs": [
        {
          "internalType": "uint256",
          "name": "_minGasToTransferAndStore",
          "type": "uint256"
        }
      ],
      "name": "setMinGasToTransferAndStore",
      "outputs": [],
      "stateMutability": "nonpayable",
      "type": "function"
    },
    {
      "inputs": [
        {
          "internalType": "uint256",
          "name": "_mintLimit",
          "type": "uint256"
        }
      ],
      "name": "setMintLimit",
      "outputs": [],
      "stateMutability": "nonpayable",
      "type": "function"
    },
    {
      "inputs": [
        {
          "internalType": "bool",
          "name": "_mintState",
          "type": "bool"
        }
      ],
      "name": "setMintState",
      "outputs": [],
      "stateMutability": "nonpayable",
      "type": "function"
    },
    {
      "inputs": [
        {
          "internalType": "uint16",
          "name": "_dstChainId",
          "type": "uint16"
        },
        {
          "internalType": "uint256",
          "name": "_size",
          "type": "uint256"
        }
      ],
      "name": "setPayloadSizeLimit",
      "outputs": [],
      "stateMutability": "nonpayable",
      "type": "function"
    },
    {
      "inputs": [
        {
          "internalType": "address",
          "name": "_precrime",
          "type": "address"
        }
      ],
      "name": "setPrecrime",
      "outputs": [],
      "stateMutability": "nonpayable",
      "type": "function"
    },
    {
      "inputs": [
        {
          "internalType": "string",
          "name": "prerevealURI",
          "type": "string"
        }
      ],
      "name": "setPrerevealTokenURI",
      "outputs": [],
      "stateMutability": "nonpayable",
      "type": "function"
    },
    {
      "inputs": [
        {
          "internalType": "uint16",
          "name": "_version",
          "type": "uint16"
        }
      ],
      "name": "setReceiveVersion",
      "outputs": [],
      "stateMutability": "nonpayable",
      "type": "function"
    },
    {
      "inputs": [
        {
          "internalType": "bool",
          "name": "_revealed",
          "type": "bool"
        }
      ],
      "name": "setRevealed",
      "outputs": [],
      "stateMutability": "nonpayable",
      "type": "function"
    },
    {
      "inputs": [
        {
          "internalType": "uint16",
          "name": "_version",
          "type": "uint16"
        }
      ],
      "name": "setSendVersion",
      "outputs": [],
      "stateMutability": "nonpayable",
      "type": "function"
    },
    {
      "inputs": [
        {
          "internalType": "address",
          "name": "_treasuryAddress",
          "type": "address"
        }
      ],
      "name": "setTreasuryAddress",
      "outputs": [],
      "stateMutability": "nonpayable",
      "type": "function"
    },
    {
      "inputs": [
        {
          "internalType": "uint16",
          "name": "_remoteChainId",
          "type": "uint16"
        },
        {
          "internalType": "bytes",
          "name": "_path",
          "type": "bytes"
        }
      ],
      "name": "setTrustedRemote",
      "outputs": [],
      "stateMutability": "nonpayable",
      "type": "function"
    },
    {
      "inputs": [
        {
          "internalType": "uint16",
          "name": "_remoteChainId",
          "type": "uint16"
        },
        {
          "internalType": "bytes",
          "name": "_remoteAddress",
          "type": "bytes"
        }
      ],
      "name": "setTrustedRemoteAddress",
      "outputs": [],
      "stateMutability": "nonpayable",
      "type": "function"
    },
    {
      "inputs": [
        {
          "internalType": "bytes32",
          "name": "",
          "type": "bytes32"
        }
      ],
      "name": "storedCredits",
      "outputs": [
        {
          "internalType": "uint16",
          "name": "srcChainId",
          "type": "uint16"
        },
        {
          "internalType": "address",
          "name": "toAddress",
          "type": "address"
        },
        {
          "internalType": "uint256",
          "name": "index",
          "type": "uint256"
        },
        {
          "internalType": "bool",
          "name": "creditsRemain",
          "type": "bool"
        }
      ],
      "stateMutability": "view",
      "type": "function"
    },
    {
      "inputs": [
        {
          "internalType": "bytes4",
          "name": "interfaceId",
          "type": "bytes4"
        }
      ],
      "name": "supportsInterface",
      "outputs": [
        {
          "internalType": "bool",
          "name": "",
          "type": "bool"
        }
      ],
      "stateMutability": "view",
      "type": "function"
    },
    {
      "inputs": [],
      "name": "symbol",
      "outputs": [
        {
          "internalType": "string",
          "name": "",
          "type": "string"
        }
      ],
      "stateMutability": "view",
      "type": "function"
    },
    {
      "inputs": [
        {
          "internalType": "uint256",
          "name": "tokenId",
          "type": "uint256"
        }
      ],
      "name": "tokenURI",
      "outputs": [
        {
          "internalType": "string",
          "name": "",
          "type": "string"
        }
      ],
      "stateMutability": "view",
      "type": "function"
    },
    {
      "inputs": [],
      "name": "totalSupply",
      "outputs": [
        {
          "internalType": "uint256",
          "name": "",
          "type": "uint256"
        }
      ],
      "stateMutability": "view",
      "type": "function"
    },
    {
      "inputs": [
        {
          "internalType": "address",
          "name": "from",
          "type": "address"
        },
        {
          "internalType": "address",
          "name": "to",
          "type": "address"
        },
        {
          "internalType": "uint256",
          "name": "tokenId",
          "type": "uint256"
        }
      ],
      "name": "transferFrom",
      "outputs": [],
      "stateMutability": "payable",
      "type": "function"
    },
    {
      "inputs": [
        {
          "internalType": "address",
          "name": "newOwner",
          "type": "address"
        }
      ],
      "name": "transferOwnership",
      "outputs": [],
      "stateMutability": "nonpayable",
      "type": "function"
    },
    {
      "inputs": [],
      "name": "treasuryAddress",
      "outputs": [
        {
          "internalType": "address",
          "name": "",
          "type": "address"
        }
      ],
      "stateMutability": "view",
      "type": "function"
    },
    {
      "inputs": [
        {
          "internalType": "uint256",
          "name": "quantity",
          "type": "uint256"
        }
      ],
      "name": "treasuryMint",
      "outputs": [],
      "stateMutability": "nonpayable",
      "type": "function"
    },
    {
      "inputs": [],
      "name": "treasuryMintedCount",
      "outputs": [
        {
          "internalType": "uint256",
          "name": "",
          "type": "uint256"
        }
      ],
      "stateMutability": "view",
      "type": "function"
    },
    {
      "inputs": [
        {
          "internalType": "uint16",
          "name": "",
          "type": "uint16"
        }
      ],
      "name": "trustedRemoteLookup",
      "outputs": [
        {
          "internalType": "bytes",
          "name": "",
          "type": "bytes"
        }
      ],
      "stateMutability": "view",
      "type": "function"
    },
    {
      "inputs": [
        {
          "internalType": "address",
          "name": "_owner",
          "type": "address"
        }
      ],
      "name": "walletOfOwner",
      "outputs": [
        {
          "internalType": "uint256[]",
          "name": "",
          "type": "uint256[]"
        }
      ],
      "stateMutability": "view",
      "type": "function"
    },
    {
      "inputs": [],
      "name": "whiteListingPeriod",
      "outputs": [
        {
          "internalType": "bool",
          "name": "",
          "type": "bool"
        }
      ],
      "stateMutability": "view",
      "type": "function"
    }
  ],
  "transactionHash": "0x2c68fcc72cdaa43145fa0313d200850babc6260c3c673aa32b9ef777bee03746",
  "args": [
    "",
    "DecaNFT",
    "DNFT",
    150000,
    "0x55370E0fBB5f5b8dAeD978BA1c075a499eB107B8"
  ],
  "numDeployments": 1,
  "solcInputHash": "82429004ae2660155d67d1d52a63a899",
  "bytecode": "0x60a060405260006019553480156200001657600080fd5b506040516200543638038062005436833981016040819052620000399162000341565b838383838383838380806200004e3362000117565b60601b6001600160601b03191660805250600160065581620000c35760405162461bcd60e51b8152602060048201526024808201527f6d696e476173546f5472616e73666572416e6453746f7265206d7573742062656044820152630203e20360e41b60648201526084015b60405180910390fd5b506007558151620000dc90600d906020850190620001e8565b508051620000f290600e906020840190620001e8565b506000600b55506200010c94508993505062000167915050565b50505050506200044e565b600080546001600160a01b038381166001600160a01b0319831681178455604051919092169283917f8be0079c531659141344cd1fd0a4f28419497f9722a3daafe3b4186f6b6457e09190a35050565b620001716200018a565b805162000186906015906020840190620001e8565b5050565b6000546001600160a01b03163314620001e65760405162461bcd60e51b815260206004820181905260248201527f4f776e61626c653a2063616c6c6572206973206e6f7420746865206f776e65726044820152606401620000ba565b565b828054620001f690620003fb565b90600052602060002090601f0160209004810192826200021a576000855562000265565b82601f106200023557805160ff191683800117855562000265565b8280016001018555821562000265579182015b828111156200026557825182559160200191906001019062000248565b506200027392915062000277565b5090565b5b8082111562000273576000815560010162000278565b600082601f8301126200029f578081fd5b81516001600160401b0380821115620002bc57620002bc62000438565b604051601f8301601f19908116603f01168101908282118183101715620002e757620002e762000438565b8160405283815260209250868385880101111562000303578485fd5b8491505b8382101562000326578582018301518183018401529082019062000307565b838211156200033757848385830101525b9695505050505050565b600080600080600060a0868803121562000359578081fd5b85516001600160401b038082111562000370578283fd5b6200037e89838a016200028e565b9650602088015191508082111562000394578283fd5b620003a289838a016200028e565b95506040880151915080821115620003b8578283fd5b50620003c7888289016200028e565b60608801516080890151919550935090506001600160a01b0381168114620003ed578182fd5b809150509295509295909350565b600181811c908216806200041057607f821691505b602082108114156200043257634e487b7160e01b600052602260045260246000fd5b50919050565b634e487b7160e01b600052604160045260246000fd5b60805160601c614f91620004a560003960008181610bf001528181610f1601528181611256015281816114820152818161189c0152818161247b0152818161296401528181612ab30152613b160152614f916000f3fe60806040526004361061045c5760003560e01c80638da5cb5b1161023f578063c5f956af11610139578063eb8d72b7116100b6578063f4ad0f971161007a578063f4ad0f9714610e72578063f5ecbdbc14610e87578063f68dcaa214610ea7578063f769572d14610ec6578063fa25f9b614610ee657600080fd5b8063eb8d72b714610dc2578063efdc778814610de2578063f235364114610e02578063f2fde38b14610e22578063f46eccc414610e4257600080fd5b8063d1deba1f116100fd578063d1deba1f14610d11578063d547cfb714610d24578063df2a5b3b14610d39578063e0a8085314610d59578063e985e9c514610d7957600080fd5b8063c5f956af14610c7b578063c87b56dd14610c9b578063cbed8b9c14610cbb578063d0aa0a0d14610cdb578063d12473a514610cf157600080fd5b8063a22cb465116101c7578063b353aaa71161018b578063b353aaa714610bde578063b88d4fde14610c12578063baf3292d14610c25578063c051e38a14610c45578063c446183414610c6557600080fd5b8063a22cb46514610b43578063a6c3d16514610b63578063ab3ffb9314610b83578063af3fb21c14610b96578063b09d28cc14610bbe57600080fd5b8063996517cf1161020e578063996517cf14610aad5780639e6a1d7d14610ac35780639ea5d6b114610ae35780639f38369a14610b03578063a0712d6814610b2357600080fd5b80638da5cb5b14610a3a5780638ffa1f2a14610a58578063950c8a7414610a7857806395d89b4114610a9857600080fd5b80633d8b38f61161035b57806351905636116102d857806366ad5c8a1161029c57806366ad5c8a1461098d57806370a08231146109ad578063715018a6146109cd5780637533d788146109e25780638cfd8f5c14610a0257600080fd5b806351905636146108cb57806355f804b3146108de5780635b8c41e6146108fe5780636352211e1461094d5780636605bfda1461096d57600080fd5b8063438b63001161031f578063438b63001461082157806347ee03941461084e578063482881901461086e5780634ac3f4ff1461088457806351830227146108b157600080fd5b80633d8b38f6146107815780633f1f4fa4146107a157806342842e0e146107ce57806342966c68146107e157806342d65a8d1461080157600080fd5b80630df37483116103e957806323b872dd116103ad57806323b872dd146106c457806326412aca146106d75780632a205e3d146106f75780632a55205a1461072c5780633502a7161461076b57600080fd5b80630df37483146105a557806310ddb137146105c5578063150b7a02146105e557806318160ddd1461061e57806322a3ecf91461064157600080fd5b806306fdde031161043057806306fdde03146104f857806307e0db171461051a578063081812fc1461053a578063095ea7b3146105725780630b4cad4c1461058557600080fd5b80621d35671461046157806301bf66481461048357806301ffc9a7146104a357806304634d8d146104d8575b600080fd5b34801561046d57600080fd5b5061048161047c366004614678565b610f13565b005b34801561048f57600080fd5b5061048161049e366004614145565b611144565b3480156104af57600080fd5b506104c36104be366004614472565b61116d565b60405190151581526020015b60405180910390f35b3480156104e457600080fd5b506104816104f3366004614408565b61118d565b34801561050457600080fd5b5061050d6111a3565b6040516104cf9190614b65565b34801561052657600080fd5b5061048161053536600461460e565b611235565b34801561054657600080fd5b5061055a61055536600461445a565b6112be565b6040516001600160a01b0390911681526020016104cf565b6104816105803660046143dd565b611302565b34801561059157600080fd5b506104816105a036600461445a565b6113a2565b3480156105b157600080fd5b506104816105c0366004614980565b611442565b3480156105d157600080fd5b506104816105e036600461460e565b611461565b3480156105f157600080fd5b506106056106003660046141d9565b6114b9565b6040516001600160e01b031990911681526020016104cf565b34801561062a57600080fd5b50600c54600b54035b6040519081526020016104cf565b34801561064d57600080fd5b5061069561065c36600461445a565b600a6020526000908152604090208054600182015460029092015461ffff821692620100009092046001600160a01b0316919060ff1684565b6040805161ffff90951685526001600160a01b03909316602085015291830152151560608201526080016104cf565b6104816106d2366004614199565b6114ca565b3480156106e357600080fd5b506104816106f2366004614440565b611654565b34801561070357600080fd5b506107176107123660046147ad565b6116af565b604080519283526020830191909152016104cf565b34801561073857600080fd5b5061074c61074736600461499b565b6116d5565b604080516001600160a01b0390931683526020830191909152016104cf565b34801561077757600080fd5b506106336107e881565b34801561078d57600080fd5b506104c361079c366004614628565b611783565b3480156107ad57600080fd5b506106336107bc36600461460e565b60036020526000908152604090205481565b6104816107dc366004614199565b61184f565b3480156107ed57600080fd5b506104816107fc36600461445a565b61186f565b34801561080d57600080fd5b5061048161081c366004614628565b61187d565b34801561082d57600080fd5b5061084161083c366004614145565b611903565b6040516104cf9190614b39565b34801561085a57600080fd5b50610481610869366004614145565b611a04565b34801561087a57600080fd5b5061063360075481565b34801561089057600080fd5b5061063361089f36600461460e565b60086020526000908152604090205481565b3480156108bd57600080fd5b506017546104c39060ff1681565b6104816108d9366004614343565b611a30565b3480156108ea57600080fd5b506104816108f93660046145c9565b611a47565b34801561090a57600080fd5b50610633610919366004614809565b6005602090815260009384526040808520845180860184018051928152908401958401959095209452929052825290205481565b34801561095957600080fd5b5061055a61096836600461445a565b611a62565b34801561097957600080fd5b50610481610988366004614145565b611a6d565b34801561099957600080fd5b506104816109a8366004614678565b611a97565b3480156109b957600080fd5b506106336109c8366004614145565b611b6b565b3480156109d957600080fd5b50610481611bb9565b3480156109ee57600080fd5b5061050d6109fd36600461460e565b611bcd565b348015610a0e57600080fd5b50610633610a1d366004614864565b600260209081526000928352604080842090915290825290205481565b348015610a4657600080fd5b506000546001600160a01b031661055a565b348015610a6457600080fd5b50610481610a733660046144aa565b611c67565b348015610a8457600080fd5b5060045461055a906001600160a01b031681565b348015610aa457600080fd5b5061050d611eb0565b348015610ab957600080fd5b5061063360185481565b348015610acf57600080fd5b50610481610ade36600461445a565b611ebf565b348015610aef57600080fd5b50610481610afe366004614980565b611ecc565b348015610b0f57600080fd5b5061050d610b1e36600461460e565b611f83565b348015610b2f57600080fd5b50610481610b3e36600461445a565b61209a565b348015610b4f57600080fd5b50610481610b5e366004614242565b612190565b348015610b6f57600080fd5b50610481610b7e366004614628565b6121fc565b610481610b91366004614276565b61228f565b348015610ba257600080fd5b50610bab600181565b60405161ffff90911681526020016104cf565b348015610bca57600080fd5b50610481610bd93660046145c9565b61229e565b348015610bea57600080fd5b5061055a7f000000000000000000000000000000000000000000000000000000000000000081565b610481610c203660046141d9565b6122b9565b348015610c3157600080fd5b50610481610c40366004614145565b612303565b348015610c5157600080fd5b506017546104c39062010000900460ff1681565b348015610c7157600080fd5b5061063361271081565b348015610c8757600080fd5b50601a5461055a906001600160a01b031681565b348015610ca757600080fd5b5061050d610cb636600461445a565b612359565b348015610cc757600080fd5b50610481610cd6366004614914565b61245c565b348015610ce757600080fd5b5061063360195481565b348015610cfd57600080fd5b50610481610d0c366004614980565b6124f1565b610481610d1f366004614678565b6125a1565b348015610d3057600080fd5b5061050d6127b7565b348015610d4557600080fd5b50610481610d543660046148d9565b6127c4565b348015610d6557600080fd5b50610481610d74366004614440565b61282e565b348015610d8557600080fd5b506104c3610d94366004614161565b6001600160a01b03918216600090815260126020908152604080832093909416825291909152205460ff1690565b348015610dce57600080fd5b50610481610ddd366004614628565b612849565b348015610dee57600080fd5b50610481610dfd36600461445a565b6128a3565b348015610e0e57600080fd5b50610717610e1d366004614708565b612925565b348015610e2e57600080fd5b50610481610e3d366004614145565b6129ff565b348015610e4e57600080fd5b506104c3610e5d366004614145565b601b6020526000908152604090205460ff1681565b348015610e7e57600080fd5b5061050d612a75565b348015610e9357600080fd5b5061050d610ea236600461488d565b612a82565b348015610eb357600080fd5b506017546104c390610100900460ff1681565b348015610ed257600080fd5b50610481610ee1366004614440565b612b42565b348015610ef257600080fd5b50610633610f0136600461460e565b60096020526000908152604090205481565b337f00000000000000000000000000000000000000000000000000000000000000006001600160a01b031614610f905760405162461bcd60e51b815260206004820152601e60248201527f4c7a4170703a20696e76616c696420656e64706f696e742063616c6c6572000060448201526064015b60405180910390fd5b61ffff861660009081526001602052604081208054610fae90614e8e565b80601f0160208091040260200160405190810160405280929190818152602001828054610fda90614e8e565b80156110275780601f10610ffc57610100808354040283529160200191611027565b820191906000526020600020905b81548152906001019060200180831161100a57829003601f168201915b50505050509050805186869050148015611042575060008151115b801561106a5750805160208201206040516110609088908890614a6e565b6040518091039020145b6110c55760405162461bcd60e51b815260206004820152602660248201527f4c7a4170703a20696e76616c696420736f757263652073656e64696e6720636f6044820152651b9d1c9858dd60d21b6064820152608401610f87565b61113b8787878080601f01602080910402602001604051908101604052809392919081815260200183838082843760009201919091525050604080516020601f8a018190048102820181019092528881528a935091508890889081908401838280828437600092019190915250612b6492505050565b50505050505050565b61114c612bdd565b6001600160a01b03166000908152601b60205260409020805460ff19169055565b600061117882612c37565b80611187575061118782612c85565b92915050565b611195612bdd565b61119f8282612caa565b5050565b6060600d80546111b290614e8e565b80601f01602080910402602001604051908101604052809291908181526020018280546111de90614e8e565b801561122b5780601f106112005761010080835404028352916020019161122b565b820191906000526020600020905b81548152906001019060200180831161120e57829003601f168201915b5050505050905090565b61123d612bdd565b6040516307e0db1760e01b815261ffff821660048201527f00000000000000000000000000000000000000000000000000000000000000006001600160a01b0316906307e0db17906024015b600060405180830381600087803b1580156112a357600080fd5b505af11580156112b7573d6000803e3d6000fd5b5050505050565b60006112c982612da7565b6112e6576040516333d1c03960e21b815260040160405180910390fd5b506000908152601160205260409020546001600160a01b031690565b600061130d82611a62565b9050336001600160a01b03821614611346576113298133610d94565b611346576040516367d9dca160e11b815260040160405180910390fd5b60008281526011602052604080822080546001600160a01b0319166001600160a01b0387811691821790925591518593918516917f8c5be1e5ebec7d5bd14f71427d1e84f3dd0314c0f7b2291e5b200ac8c7c3b92591a4505050565b6113aa612bdd565b600081116114065760405162461bcd60e51b8152602060048201526024808201527f6d696e476173546f5472616e73666572416e6453746f7265206d7573742062656044820152630203e20360e41b6064820152608401610f87565b60078190556040518181527ffebbc4f8bb9ec2313950c718d43123124b15778efda4c1f1d529de2995b4f34d906020015b60405180910390a150565b61144a612bdd565b61ffff909116600090815260036020526040902055565b611469612bdd565b6040516310ddb13760e01b815261ffff821660048201527f00000000000000000000000000000000000000000000000000000000000000006001600160a01b0316906310ddb13790602401611289565b630a85bd0160e11b5b949350505050565b60006114d582612dcf565b9050836001600160a01b0316816001600160a01b0316146115085760405162a1148160e81b815260040160405180910390fd5b600082815260116020526040902080546115348187335b6001600160a01b039081169116811491141790565b61155f576115428633610d94565b61155f57604051632ce44b5f60e11b815260040160405180910390fd5b6001600160a01b03851661158657604051633a954ecd60e21b815260040160405180910390fd5b801561159157600082555b6001600160a01b038681166000908152601060205260408082208054600019019055918716808252919020805460010190554260a01b17600160e11b176000858152600f6020526040902055600160e11b831661161c57600184016000818152600f602052604090205461161a57600b54811461161a576000818152600f602052604090208490555b505b83856001600160a01b0316876001600160a01b0316600080516020614f3c83398151915260405160405180910390a45b505050505050565b61165c612bdd565b6017805462ff00001916620100008315158102919091179182905560405160ff9190920416151581527f992fe84c8bbd52855b22035907ca1f9e1d6bcbb390bc81150808e8443d01668c90602001611437565b6000806116c787876116c088612e30565b8787612925565b915091509550959350505050565b60008281526014602090815260408083208151808301909252546001600160a01b038116808352600160a01b9091046001600160601b031692820192909252829161174a5750604080518082019091526013546001600160a01b0381168252600160a01b90046001600160601b031660208201525b602081015160009061271090611769906001600160601b031687614e2c565b6117739190614e0c565b91519350909150505b9250929050565b61ffff8316600090815260016020526040812080548291906117a490614e8e565b80601f01602080910402602001604051908101604052809291908181526020018280546117d090614e8e565b801561181d5780601f106117f25761010080835404028352916020019161181d565b820191906000526020600020905b81548152906001019060200180831161180057829003601f168201915b505050505090508383604051611834929190614a6e565b60405180910390208180519060200120149150509392505050565b61186a838383604051806020016040528060008152506122b9565b505050565b61187a816001612e89565b50565b611885612bdd565b6040516342d65a8d60e01b81526001600160a01b037f000000000000000000000000000000000000000000000000000000000000000016906342d65a8d906118d590869086908690600401614bf1565b600060405180830381600087803b1580156118ef57600080fd5b505af115801561113b573d6000803e3d6000fd5b6060600061191083611b6b565b90506000816001600160401b0381111561193a57634e487b7160e01b600052604160045260246000fd5b604051908082528060200260200182016040528015611963578160200160208202803683370190505b50905081611972579392505050565b6000805b6107e88110156119fa57856001600160a01b031661199382611a62565b6001600160a01b031614156119e857808383815181106119c357634e487b7160e01b600052603260045260246000fd5b6020908102919091010152816119d881614ec9565b925050838214156119e8576119fa565b806119f281614ec9565b915050611976565b5090949350505050565b611a0c612bdd565b6001600160a01b03166000908152601b60205260409020805460ff19166001179055565b61113b878787611a3f88612e30565b878787612fbb565b611a4f612bdd565b805161119f906015906020840190613ea6565b600061118782612dcf565b611a75612bdd565b601a80546001600160a01b0319166001600160a01b0392909216919091179055565b333014611af55760405162461bcd60e51b815260206004820152602660248201527f4e6f6e626c6f636b696e674c7a4170703a2063616c6c6572206d7573742062656044820152650204c7a4170760d41b6064820152608401610f87565b61164c8686868080601f01602080910402602001604051908101604052809392919081815260200183838082843760009201919091525050604080516020601f89018190048102820181019092528781528993509150879087908190840183828082843760009201919091525061319d92505050565b60006001600160a01b038216611b94576040516323d3ad8160e21b815260040160405180910390fd5b506001600160a01b03166000908152601060205260409020546001600160401b031690565b611bc1612bdd565b611bcb60006132f4565b565b60016020526000908152604090208054611be690614e8e565b80601f0160208091040260200160405190810160405280929190818152602001828054611c1290614e8e565b8015611c5f5780601f10611c3457610100808354040283529160200191611c5f565b820191906000526020600020905b815481529060010190602001808311611c4257829003601f168201915b505050505081565b611c6f613344565b80516020808301919091206000818152600a90925260409091206002015460ff16611cd05760405162461bcd60e51b81526020600482015260116024820152701b9bc818dc99591a5d1cc81cdd1bdc9959607a1b6044820152606401610f87565b600082806020019051810190611ce6919061450e565b6000848152600a602052604081208054600190910154929450909250611d229161ffff8216916201000090046001600160a01b0316908561339e565b6000848152600a60205260409020600101549091508111611d975760405162461bcd60e51b815260206004820152602960248201527f6e6f7420656e6f7567682067617320746f2070726f6365737320637265646974604482015268103a3930b739b332b960b91b6064820152608401610f87565b8151811415611e0f576000838152600a602052604080822080546001600160b01b031916815560018101929092556002909101805460ff19169055517fd7be02b8dd0d27bd0517a9cb4d7469ce27df4313821ae5ec1ff69acc594ba23390611e029085815260200190565b60405180910390a1611ea3565b604080516080810182526000858152600a6020818152848320805461ffff80821687526001600160a01b03620100008084048216868a019081529989018b8152600160608b01818152998f90529790965297519851169096026001600160b01b03199091169690951695909517939093178455915191830191909155516002909101805491151560ff199092169190911790555b50505061187a6001600655565b6060600e80546111b290614e8e565b611ec7612bdd565b601855565b611ed4612bdd565b60008111611f2f5760405162461bcd60e51b815260206004820152602260248201527f647374436861696e4964546f42617463684c696d6974206d757374206265203e604482015261020360f41b6064820152608401610f87565b61ffff8216600081815260086020908152604091829020849055815192835282018390527f7315f7654d594ead24a30160ed9ba2d23247f543016b918343591e93d7afdb6d91015b60405180910390a15050565b61ffff8116600090815260016020526040812080546060929190611fa690614e8e565b80601f0160208091040260200160405190810160405280929190818152602001828054611fd290614e8e565b801561201f5780601f10611ff45761010080835404028352916020019161201f565b820191906000526020600020905b81548152906001019060200180831161200257829003601f168201915b505050505090508051600014156120785760405162461bcd60e51b815260206004820152601d60248201527f4c7a4170703a206e6f20747275737465642070617468207265636f72640000006044820152606401610f87565b61209360006014835161208b9190614e4b565b8391906133fe565b9392505050565b601754610100900460ff1680156120c15750336000908152601b602052604090205460ff16155b156120e05760405162f78d2360e81b8152336004820152602401610f87565b60175462010000900460ff16612109576040516365a2ea6560e11b815260040160405180910390fd5b6018541580159061212e57506018548161212233611b6b565b61212c9190614df4565b115b1561214c57604051635b21dfd360e11b815260040160405180910390fd5b6107e88161215d600c54600b540390565b6121679190614df4565b11156121865760405163152bdec360e21b815260040160405180910390fd5b61187a338261350b565b3360008181526012602090815260408083206001600160a01b03871680855290835292819020805460ff191686151590811790915590519081529192917f17307eab39ab6107e8899845ad3d59bd9653f200f220920489ca2b5937696c31910160405180910390a35050565b612204612bdd565b81813060405160200161221993929190614a7e565b60408051601f1981840301815291815261ffff8516600090815260016020908152919020825161224e93919290910190613ea6565b507f8c0400cfe2d1199b1a725c78960bcc2a344d869b80590d0f2bd005db15a572ce83838360405161228293929190614bf1565b60405180910390a1505050565b61113b87878787878787612fbb565b6122a6612bdd565b805161119f906016906020840190613ea6565b6122c48484846114ca565b6001600160a01b0383163b156122fd576122e084848484613525565b6122fd576040516368d2bf6b60e11b815260040160405180910390fd5b50505050565b61230b612bdd565b600480546001600160a01b0319166001600160a01b0383169081179091556040519081527f5db758e995a17ec1ad84bdef7e8c3293a0bd6179bcce400dff5d4c3d87db726b90602001611437565b606061236482612da7565b5060175460ff16612401576016805461237c90614e8e565b80601f01602080910402602001604051908101604052809291908181526020018280546123a890614e8e565b80156123f55780601f106123ca576101008083540402835291602001916123f5565b820191906000526020600020905b8154815290600101906020018083116123d857829003601f168201915b50505050509050919050565b600061240b613619565b9050600081511161242b5760405180602001604052806000815250612093565b8061243584613628565b604051602001612446929190614ac0565b6040516020818303038152906040529392505050565b612464612bdd565b6040516332fb62e760e21b81526001600160a01b037f0000000000000000000000000000000000000000000000000000000000000000169063cbed8b9c906124b89088908890889088908890600401614d4c565b600060405180830381600087803b1580156124d257600080fd5b505af11580156124e6573d6000803e3d6000fd5b505050505050505050565b6124f9612bdd565b600081116125555760405162461bcd60e51b815260206004820152602360248201527f647374436861696e4964546f5472616e73666572476173206d7573742062652060448201526203e20360ec1b6064820152608401610f87565b61ffff8216600081815260096020908152604091829020849055815192835282018390527fc46df2983228ac2d9754e94a0d565e6671665dc8ad38602bc8e544f0685a29fb9101611f77565b61ffff861660009081526005602052604080822090516125c49088908890614a6e565b90815260408051602092819003830190206001600160401b038716600090815292529020549050806126445760405162461bcd60e51b815260206004820152602360248201527f4e6f6e626c6f636b696e674c7a4170703a206e6f2073746f726564206d65737360448201526261676560e81b6064820152608401610f87565b808383604051612655929190614a6e565b6040518091039020146126b45760405162461bcd60e51b815260206004820152602160248201527f4e6f6e626c6f636b696e674c7a4170703a20696e76616c6964207061796c6f616044820152601960fa1b6064820152608401610f87565b61ffff871660009081526005602052604080822090516126d79089908990614a6e565b90815260408051602092819003830181206001600160401b038916600090815290845282902093909355601f8801829004820283018201905286825261276f918991899089908190840183828082843760009201919091525050604080516020601f8a018190048102820181019092528881528a93509150889088908190840183828082843760009201919091525061319d92505050565b7fc264d91f3adc5588250e1551f547752ca0cfa8f6b530d243b9f9f4cab10ea8e587878787856040516127a6959493929190614c0f565b60405180910390a150505050505050565b60158054611be690614e8e565b6127cc612bdd565b61ffff83811660008181526002602090815260408083209487168084529482529182902085905581519283528201929092529081018290527f9d5c7c0b934da8fefa9c7760c98383778a12dfbfc0c3b3106518f43fb9508ac090606001612282565b612836612bdd565b6017805460ff1916911515919091179055565b612851612bdd565b61ffff8316600090815260016020526040902061286f908383613f2a565b507ffa41487ad5d6728f0b19276fa1eddc16558578f5109fc39d2dc33c3230470dab83838360405161228293929190614bf1565b6128ab612bdd565b601a546001600160a01b031661290e5760405162461bcd60e51b815260206004820152602260248201527f547265617375727920416464726573732073686f756c64206265207365742075604482015261381760f11b6064820152608401610f87565b601a5461187a9082906001600160a01b03166136d2565b6000806000868660405160200161293d929190614b78565b60408051601f198184030181529082905263040a7bb160e41b825291506001600160a01b037f000000000000000000000000000000000000000000000000000000000000000016906340a7bb10906129a1908b90309086908b908b90600401614b9d565b604080518083038186803b1580156129b857600080fd5b505afa1580156129cc573d6000803e3d6000fd5b505050506040513d601f19601f820116820180604052508101906129f091906149bc565b92509250509550959350505050565b612a07612bdd565b6001600160a01b038116612a6c5760405162461bcd60e51b815260206004820152602660248201527f4f776e61626c653a206e6577206f776e657220697320746865207a65726f206160448201526564647265737360d01b6064820152608401610f87565b61187a816132f4565b60168054611be690614e8e565b604051633d7b2f6f60e21b815261ffff808616600483015284166024820152306044820152606481018290526060907f00000000000000000000000000000000000000000000000000000000000000006001600160a01b03169063f5ecbdbc9060840160006040518083038186803b158015612afd57600080fd5b505afa158015612b11573d6000803e3d6000fd5b505050506040513d6000823e601f3d908101601f19168201604052612b3991908101906144dc565b95945050505050565b612b4a612bdd565b601780549115156101000261ff0019909216919091179055565b600080612bc75a60966366ad5c8a60e01b89898989604051602401612b8c9493929190614cb1565b60408051601f198184030181529190526020810180516001600160e01b03166001600160e01b031990931692909217909152309291906137b2565b915091508161164c5761164c868686868561384a565b6000546001600160a01b03163314611bcb5760405162461bcd60e51b815260206004820181905260248201527f4f776e61626c653a2063616c6c6572206973206e6f7420746865206f776e65726044820152606401610f87565b60006301ffc9a760e01b6001600160e01b031983161480612c6857506380ac58cd60e01b6001600160e01b03198316145b806111875750506001600160e01b031916635b5e139f60e01b1490565b60006001600160e01b0319821663152a902d60e11b14806111875750611187826138e7565b6127106001600160601b0382161115612d185760405162461bcd60e51b815260206004820152602a60248201527f455243323938313a20726f79616c7479206665652077696c6c206578636565646044820152692073616c65507269636560b01b6064820152608401610f87565b6001600160a01b038216612d6e5760405162461bcd60e51b815260206004820152601960248201527f455243323938313a20696e76616c6964207265636569766572000000000000006044820152606401610f87565b604080518082019091526001600160a01b039092168083526001600160601b039091166020909201829052600160a01b90910217601355565b6000600b54821080156111875750506000908152600f6020526040902054600160e01b161590565b600081600b54811015612e17576000818152600f6020526040902054600160e01b8116612e15575b806120935750600019016000818152600f6020526040902054612df7565b505b604051636f96cda160e11b815260040160405180910390fd5b60408051600180825281830190925260609160009190602080830190803683370190505090508281600081518110612e7857634e487b7160e01b600052603260045260246000fd5b602090810291909101015292915050565b6000612e9483612dcf565b905080600080612eb286600090815260116020526040902080549091565b915091508415612ef257612ec781843361151f565b612ef257612ed58333610d94565b612ef257604051632ce44b5f60e11b815260040160405180910390fd5b8015612efd57600082555b6001600160a01b038316600081815260106020526040902080546fffffffffffffffffffffffffffffffff0190554260a01b17600360e01b176000878152600f6020526040902055600160e11b8416612f8457600186016000818152600f6020526040902054612f8257600b548114612f82576000818152600f602052604090208590555b505b60405186906000906001600160a01b03861690600080516020614f3c833981519152908390a45050600c8054600101905550505050565b60008451116130025760405162461bcd60e51b8152602060048201526013602482015272746f6b656e4964735b5d20697320656d70747960681b6044820152606401610f87565b835160011480613026575061ffff8616600090815260086020526040902054845111155b61307d5760405162461bcd60e51b815260206004820152602260248201527f62617463682073697a65206578636565647320647374206261746368206c696d6044820152611a5d60f21b6064820152608401610f87565b60005b84518110156130ce576130bc8888888885815181106130af57634e487b7160e01b600052603260045260246000fd5b602002602001015161390c565b806130c681614ec9565b915050613080565b50600085856040516020016130e4929190614b78565b6040516020818303038152906040529050613129876001848851600960008d61ffff1661ffff168152602001908152602001600020546131249190614e2c565b613917565b6131378782868686346139ec565b856040516131459190614aa4565b6040518091039020886001600160a01b03168861ffff167fe1b87c47fdeb4f9cbadbca9df3af7aba453bb6e501075d0440d88125b711522a8860405161318b9190614b39565b60405180910390a45050505050505050565b600080828060200190518101906131b4919061450e565b6014820151919350915060006131cc8883838661339e565b905082518110156132a05784516020808701919091206040805160808101825261ffff808d1682526001600160a01b038088168387019081528385018881526001606086018181526000898152600a909a529887902095518654935190941662010000026001600160b01b03199093169390941692909217178355519082015592516002909301805493151560ff199094169390931790925590517f10e0b70d256bccc84b7027506978bd8b68984a870788b93b479def144c839ad7906132969083908990614b4c565b60405180910390a1505b816001600160a01b0316876040516132b89190614aa4565b60405180910390208961ffff167f5b821db8a46f8ecbe1941ba2f51cfeea9643268b56631f70d45e2a745d9902658660405161318b9190614b39565b600080546001600160a01b038381166001600160a01b0319831681178455604051919092169283917f8be0079c531659141344cd1fd0a4f28419497f9722a3daafe3b4186f6b6457e09190a35050565b600260065414156133975760405162461bcd60e51b815260206004820152601f60248201527f5265656e7472616e637947756172643a207265656e7472616e742063616c6c006044820152606401610f87565b6002600655565b6000825b8251811015612b39576007545a10156133ba57612b39565b6133ec86868584815181106133df57634e487b7160e01b600052603260045260246000fd5b6020026020010151613b92565b806133f681614ec9565b9150506133a2565b60608161340c81601f614df4565b101561344b5760405162461bcd60e51b815260206004820152600e60248201526d736c6963655f6f766572666c6f7760901b6044820152606401610f87565b6134558284614df4565b845110156134995760405162461bcd60e51b8152602060048201526011602482015270736c6963655f6f75744f66426f756e647360781b6044820152606401610f87565b6060821580156134b85760405191506000825260208201604052613502565b6040519150601f8416801560200281840101858101878315602002848b0101015b818310156134f15780518352602092830192016134d9565b5050858452601f01601f1916604052505b50949350505050565b61119f828260405180602001604052806000815250613bcb565b604051630a85bd0160e11b81526000906001600160a01b0385169063150b7a029061355a903390899088908890600401614afc565b602060405180830381600087803b15801561357457600080fd5b505af19250505080156135a4575060408051601f3d908101601f191682019092526135a19181019061448e565b60015b6135ff573d8080156135d2576040519150601f19603f3d011682016040523d82523d6000602084013e6135d7565b606091505b5080516135f7576040516368d2bf6b60e11b815260040160405180910390fd5b805181602001fd5b6001600160e01b031916630a85bd0160e11b1490506114c2565b6060601580546111b290614e8e565b6060600061363583613c31565b60010190506000816001600160401b0381111561366257634e487b7160e01b600052604160045260246000fd5b6040519080825280601f01601f19166020018201604052801561368c576020820181803683370190505b5090508181016020015b600019016f181899199a1a9b1b9c1cb0b131b232b360811b600a86061a8153600a85049450846136c5576136ca565b613696565b509392505050565b6064826019546136e29190614df4565b1115613701576040516320703ae960e21b815260040160405180910390fd5b6107e882613712600c54600b540390565b61371c9190614df4565b111561373b5760405163152bdec360e21b815260040160405180910390fd5b6000613746600b5490565b9050613752828461350b565b82601960008282546137649190614df4565b909155505060408051848152602081018390526001600160a01b038416917f9cd0acb32569ceda8941e44882da22360e497bdb8a171f4cc7b607e594606214910160405180910390a2505050565b6000606060008060008661ffff166001600160401b038111156137e557634e487b7160e01b600052604160045260246000fd5b6040519080825280601f01601f19166020018201604052801561380f576020820181803683370190505b50905060008087516020890160008d8df191503d925086831115613831578692505b828152826000602083013e909890975095505050505050565b8180519060200120600560008761ffff1661ffff1681526020019081526020016000208560405161387b9190614aa4565b9081526040805191829003602090810183206001600160401b0388166000908152915220919091557fe183f33de2837795525b4792ca4cd60535bd77c53b7e7030060bfcf5734d6b0c906138d89087908790879087908790614cfa565b60405180910390a15050505050565b60006001600160e01b031982166322bac5d960e01b1480611187575061118782612c37565b6122fd84308361184f565b600061392283613d09565b61ffff808716600090815260026020908152604080832093891683529290522054909150806139935760405162461bcd60e51b815260206004820152601a60248201527f4c7a4170703a206d696e4761734c696d6974206e6f74207365740000000000006044820152606401610f87565b61399d8382614df4565b82101561164c5760405162461bcd60e51b815260206004820152601b60248201527f4c7a4170703a20676173206c696d697420697320746f6f206c6f7700000000006044820152606401610f87565b61ffff861660009081526001602052604081208054613a0a90614e8e565b80601f0160208091040260200160405190810160405280929190818152602001828054613a3690614e8e565b8015613a835780601f10613a5857610100808354040283529160200191613a83565b820191906000526020600020905b815481529060010190602001808311613a6657829003601f168201915b50505050509050805160001415613af55760405162461bcd60e51b815260206004820152603060248201527f4c7a4170703a2064657374696e6174696f6e20636861696e206973206e6f742060448201526f61207472757374656420736f7572636560801b6064820152608401610f87565b613b00878751613d65565b60405162c5803160e81b81526001600160a01b037f0000000000000000000000000000000000000000000000000000000000000000169063c5803100908490613b57908b9086908c908c908c908c90600401614c4a565b6000604051808303818588803b158015613b7057600080fd5b505af1158015613b84573d6000803e3d6000fd5b505050505050505050505050565b613b9b81612da7565b8015613bb7575030613bac82611a62565b6001600160a01b0316145b613bc057600080fd5b61186a30838361184f565b613bd58383613dd3565b6001600160a01b0383163b1561186a57600b548281035b613bff6000868380600101945086613525565b613c1c576040516368d2bf6b60e11b815260040160405180910390fd5b818110613bec5781600b54146112b757600080fd5b60008072184f03e93ff9f4daa797ed6e38ed64bf6a1f0160401b8310613c705772184f03e93ff9f4daa797ed6e38ed64bf6a1f0160401b830492506040015b6d04ee2d6d415b85acef81000000008310613c9c576d04ee2d6d415b85acef8100000000830492506020015b662386f26fc100008310613cba57662386f26fc10000830492506010015b6305f5e1008310613cd2576305f5e100830492506008015b6127108310613ce657612710830492506004015b60648310613cf8576064830492506002015b600a83106111875760010192915050565b6000602282511015613d5d5760405162461bcd60e51b815260206004820152601c60248201527f4c7a4170703a20696e76616c69642061646170746572506172616d73000000006044820152606401610f87565b506022015190565b61ffff821660009081526003602052604090205480613d8357506127105b8082111561186a5760405162461bcd60e51b815260206004820181905260248201527f4c7a4170703a207061796c6f61642073697a6520697320746f6f206c617267656044820152606401610f87565b600b5481613df45760405163b562e8dd60e01b815260040160405180910390fd5b6001600160a01b03831660008181526010602090815260408083208054680100000000000000018802019055848352600f90915281206001851460e11b4260a01b17831790558284019083908390600080516020614f3c8339815191528180a4600183015b818114613e7f5780836000600080516020614f3c833981519152600080a4600101613e59565b5081613e9d57604051622e076360e81b815260040160405180910390fd5b600b5550505050565b828054613eb290614e8e565b90600052602060002090601f016020900481019282613ed45760008555613f1a565b82601f10613eed57805160ff1916838001178555613f1a565b82800160010185558215613f1a579182015b82811115613f1a578251825591602001919060010190613eff565b50613f26929150613f9e565b5090565b828054613f3690614e8e565b90600052602060002090601f016020900481019282613f585760008555613f1a565b82601f10613f715782800160ff19823516178555613f1a565b82800160010185558215613f1a579182015b82811115613f1a578235825591602001919060010190613f83565b5b80821115613f265760008155600101613f9f565b6000613fc6613fc184614dcd565b614d7a565b9050828152838383011115613fda57600080fd5b828260208301376000602084830101529392505050565b8035613ffc81614f10565b919050565b600082601f830112614011578081fd5b81356020614021613fc183614daa565b80838252828201915082860187848660051b8901011115614040578586fd5b855b8581101561405e57813584529284019290840190600101614042565b5090979650505050505050565b80358015158114613ffc57600080fd5b60008083601f84011261408c578182fd5b5081356001600160401b038111156140a2578182fd5b60208301915083602082850101111561177c57600080fd5b600082601f8301126140ca578081fd5b61209383833560208501613fb3565b600082601f8301126140e9578081fd5b81516140f7613fc182614dcd565b81815284602083860101111561410b578283fd5b6114c2826020830160208701614e62565b803561ffff81168114613ffc57600080fd5b80356001600160401b0381168114613ffc57600080fd5b600060208284031215614156578081fd5b813561209381614f10565b60008060408385031215614173578081fd5b823561417e81614f10565b9150602083013561418e81614f10565b809150509250929050565b6000806000606084860312156141ad578081fd5b83356141b881614f10565b925060208401356141c881614f10565b929592945050506040919091013590565b600080600080608085870312156141ee578081fd5b84356141f981614f10565b9350602085013561420981614f10565b92506040850135915060608501356001600160401b0381111561422a578182fd5b614236878288016140ba565b91505092959194509250565b60008060408385031215614254578182fd5b823561425f81614f10565b915061426d6020840161406b565b90509250929050565b600080600080600080600060e0888a031215614290578485fd5b873561429b81614f10565b96506142a96020890161411c565b955060408801356001600160401b03808211156142c4578687fd5b6142d08b838c016140ba565b965060608a01359150808211156142e5578485fd5b6142f18b838c01614001565b955060808a0135915061430382614f10565b81945061431260a08b01613ff1565b935060c08a0135915080821115614327578283fd5b506143348a828b016140ba565b91505092959891949750929550565b600080600080600080600060e0888a03121561435d578081fd5b873561436881614f10565b96506143766020890161411c565b955060408801356001600160401b0380821115614391578283fd5b61439d8b838c016140ba565b965060608a0135955060808a013591506143b682614f10565b90935060a0890135906143c882614f10565b90925060c08901359080821115614327578283fd5b600080604083850312156143ef578182fd5b82356143fa81614f10565b946020939093013593505050565b6000806040838503121561441a578182fd5b823561442581614f10565b915060208301356001600160601b038116811461418e578182fd5b600060208284031215614451578081fd5b6120938261406b565b60006020828403121561446b578081fd5b5035919050565b600060208284031215614483578081fd5b813561209381614f25565b60006020828403121561449f578081fd5b815161209381614f25565b6000602082840312156144bb578081fd5b81356001600160401b038111156144d0578182fd5b6114c2848285016140ba565b6000602082840312156144ed578081fd5b81516001600160401b03811115614502578182fd5b6114c2848285016140d9565b60008060408385031215614520578182fd5b82516001600160401b0380821115614536578384fd5b614542868387016140d9565b9350602091508185015181811115614558578384fd5b85019050601f8101861361456a578283fd5b8051614578613fc182614daa565b80828252848201915084840189868560051b8701011115614597578687fd5b8694505b838510156145b957805183526001949094019391850191850161459b565b5080955050505050509250929050565b6000602082840312156145da578081fd5b81356001600160401b038111156145ef578182fd5b8201601f810184136145ff578182fd5b6114c284823560208401613fb3565b60006020828403121561461f578081fd5b6120938261411c565b60008060006040848603121561463c578081fd5b6146458461411c565b925060208401356001600160401b0381111561465f578182fd5b61466b8682870161407b565b9497909650939450505050565b60008060008060008060808789031215614690578384fd5b6146998761411c565b955060208701356001600160401b03808211156146b4578586fd5b6146c08a838b0161407b565b90975095508591506146d460408a0161412e565b945060608901359150808211156146e9578384fd5b506146f689828a0161407b565b979a9699509497509295939492505050565b600080600080600060a0868803121561471f578283fd5b6147288661411c565b945060208601356001600160401b0380821115614743578485fd5b61474f89838a016140ba565b95506040880135915080821115614764578485fd5b61477089838a01614001565b945061477e6060890161406b565b93506080880135915080821115614793578283fd5b506147a0888289016140ba565b9150509295509295909350565b600080600080600060a086880312156147c4578283fd5b6147cd8661411c565b945060208601356001600160401b03808211156147e8578485fd5b6147f489838a016140ba565b95506040880135945061477e6060890161406b565b60008060006060848603121561481d578081fd5b6148268461411c565b925060208401356001600160401b03811115614840578182fd5b61484c868287016140ba565b92505061485b6040850161412e565b90509250925092565b60008060408385031215614876578182fd5b61487f8361411c565b915061426d6020840161411c565b600080600080608085870312156148a2578182fd5b6148ab8561411c565b93506148b96020860161411c565b925060408501356148c981614f10565b9396929550929360600135925050565b6000806000606084860312156148ed578081fd5b6148f68461411c565b92506149046020850161411c565b9150604084013590509250925092565b60008060008060006080868803121561492b578283fd5b6149348661411c565b94506149426020870161411c565b93506040860135925060608601356001600160401b03811115614963578182fd5b61496f8882890161407b565b969995985093965092949392505050565b60008060408385031215614992578182fd5b6143fa8361411c565b600080604083850312156149ad578182fd5b50508035926020909101359150565b600080604083850312156149ce578182fd5b505080516020909101519092909150565b6000815180845260208085019450808401835b83811015614a0e578151875295820195908201906001016149f2565b509495945050505050565b81835281816020850137506000828201602090810191909152601f909101601f19169091010190565b60008151808452614a5a816020860160208601614e62565b601f01601f19169290920160200192915050565b8183823760009101908152919050565b8284823760609190911b6bffffffffffffffffffffffff19169101908152601401919050565b60008251614ab6818460208701614e62565b9190910192915050565b60008351614ad2818460208801614e62565b602f60f81b9083019081528351614af0816001840160208801614e62565b01600101949350505050565b6001600160a01b0385811682528416602082015260408101839052608060608201819052600090614b2f90830184614a42565b9695505050505050565b60208152600061209360208301846149df565b8281526040602082015260006114c26040830184614a42565b6020815260006120936020830184614a42565b604081526000614b8b6040830185614a42565b8281036020840152612b3981856149df565b61ffff861681526001600160a01b038516602082015260a060408201819052600090614bcb90830186614a42565b84151560608401528281036080840152614be58185614a42565b98975050505050505050565b61ffff84168152604060208201526000612b39604083018486614a19565b61ffff86168152608060208201526000614c2d608083018688614a19565b6001600160401b0394909416604083015250606001529392505050565b61ffff8716815260c060208201526000614c6760c0830188614a42565b8281036040840152614c798188614a42565b6001600160a01b0387811660608601528616608085015283810360a08501529050614ca48185614a42565b9998505050505050505050565b61ffff85168152608060208201526000614cce6080830186614a42565b6001600160401b03851660408401528281036060840152614cef8185614a42565b979650505050505050565b61ffff8616815260a060208201526000614d1760a0830187614a42565b6001600160401b03861660408401528281036060840152614d388186614a42565b90508281036080840152614be58185614a42565b600061ffff808816835280871660208401525084604083015260806060830152614cef608083018486614a19565b604051601f8201601f191681016001600160401b0381118282101715614da257614da2614efa565b604052919050565b60006001600160401b03821115614dc357614dc3614efa565b5060051b60200190565b60006001600160401b03821115614de657614de6614efa565b50601f01601f191660200190565b60008219821115614e0757614e07614ee4565b500190565b600082614e2757634e487b7160e01b81526012600452602481fd5b500490565b6000816000190483118215151615614e4657614e46614ee4565b500290565b600082821015614e5d57614e5d614ee4565b500390565b60005b83811015614e7d578181015183820152602001614e65565b838111156122fd5750506000910152565b600181811c90821680614ea257607f821691505b60208210811415614ec357634e487b7160e01b600052602260045260246000fd5b50919050565b6000600019821415614edd57614edd614ee4565b5060010190565b634e487b7160e01b600052601160045260246000fd5b634e487b7160e01b600052604160045260246000fd5b6001600160a01b038116811461187a57600080fd5b6001600160e01b03198116811461187a57600080fdfeddf252ad1be2c89b69c2b068fc378daa952ba7f163c4a11628f55a4df523b3efa264697066735822122015c2ca37e53e8703d3f6cd9adefe2320490e7ce002217fd61650c3b8fcce3f3e64736f6c63430008040033",
  "devdoc": {
    "kind": "dev",
    "methods": {
      "approve(address,uint256)": {
        "details": "Gives permission to `to` to transfer `tokenId` token to another account. The approval is cleared when the token is transferred. Only a single account can be approved at a time, so approving the zero address clears previous approvals. Requirements: - The caller must own the token or be an approved operator. - `tokenId` must exist. Emits an {Approval} event."
      },
      "balanceOf(address)": {
        "details": "Returns the number of tokens in `owner`'s account."
      },
      "estimateSendBatchFee(uint16,bytes,uint256[],bool,bytes)": {
        "details": "estimate send token `_tokenId` to (`_dstChainId`, `_toAddress`) _dstChainId - L0 defined chain id to send tokens too _toAddress - dynamic bytes array which contains the address to whom you are sending tokens to on the dstChain _tokenIds[] - token Ids to transfer _useZro - indicates to use zro to pay L0 fees _adapterParams - flexible bytes array to indicate messaging adapter services in L0"
      },
      "estimateSendFee(uint16,bytes,uint256,bool,bytes)": {
        "details": "estimate send token `_tokenId` to (`_dstChainId`, `_toAddress`) _dstChainId - L0 defined chain id to send tokens too _toAddress - dynamic bytes array which contains the address to whom you are sending tokens to on the dstChain _tokenId - token Id to transfer _useZro - indicates to use zro to pay L0 fees _adapterParams - flexible bytes array to indicate messaging adapter services in L0"
      },
      "getApproved(uint256)": {
        "details": "Returns the account approved for `tokenId` token. Requirements: - `tokenId` must exist."
      },
      "isApprovedForAll(address,address)": {
        "details": "Returns if the `operator` is allowed to manage all of the assets of `owner`. See {setApprovalForAll}."
      },
      "name()": {
        "details": "Returns the token collection name."
      },
      "owner()": {
        "details": "Returns the address of the current owner."
      },
      "ownerOf(uint256)": {
        "details": "Returns the owner of the `tokenId` token. Requirements: - `tokenId` must exist."
      },
      "renounceOwnership()": {
        "details": "Leaves the contract without owner. It will not be possible to call `onlyOwner` functions. Can only be called by the current owner. NOTE: Renouncing ownership will leave the contract without an owner, thereby disabling any functionality that is only available to the owner."
      },
      "royaltyInfo(uint256,uint256)": {
        "details": "Returns how much royalty is owed and to whom, based on a sale price that may be denominated in any unit of exchange. The royalty amount is denominated and should be paid in that same unit of exchange."
      },
      "safeTransferFrom(address,address,uint256)": {
        "details": "Equivalent to `safeTransferFrom(from, to, tokenId, '')`."
      },
      "safeTransferFrom(address,address,uint256,bytes)": {
        "details": "Safely transfers `tokenId` token from `from` to `to`. Requirements: - `from` cannot be the zero address. - `to` cannot be the zero address. - `tokenId` token must exist and be owned by `from`. - If the caller is not `from`, it must be approved to move this token by either {approve} or {setApprovalForAll}. - If `to` refers to a smart contract, it must implement {IERC721Receiver-onERC721Received}, which is called upon a safe transfer. Emits a {Transfer} event."
      },
      "sendBatchFrom(address,uint16,bytes,uint256[],address,address,bytes)": {
        "details": "send tokens `_tokenIds[]` to (`_dstChainId`, `_toAddress`) from `_from` `_toAddress` can be any size depending on the `dstChainId`. `_zroPaymentAddress` set to address(0x0) if not paying in ZRO (LayerZero Token) `_adapterParams` is a flexible bytes array to indicate messaging adapter services"
      },
      "sendFrom(address,uint16,bytes,uint256,address,address,bytes)": {
        "details": "send token `_tokenId` to (`_dstChainId`, `_toAddress`) from `_from` `_toAddress` can be any size depending on the `dstChainId`. `_zroPaymentAddress` set to address(0x0) if not paying in ZRO (LayerZero Token) `_adapterParams` is a flexible bytes array to indicate messaging adapter services"
      },
      "setApprovalForAll(address,bool)": {
        "details": "Approve or remove `operator` as an operator for the caller. Operators can call {transferFrom} or {safeTransferFrom} for any token owned by the caller. Requirements: - The `operator` cannot be the caller. Emits an {ApprovalForAll} event."
      },
      "symbol()": {
        "details": "Returns the token collection symbol."
      },
      "tokenURI(uint256)": {
        "details": "Returns the Uniform Resource Identifier (URI) for `tokenId` token."
      },
      "totalSupply()": {
        "details": "Returns the total number of tokens in existence. Burned tokens will reduce the count. To get the total number of tokens minted, please see {_totalMinted}."
      },
      "transferFrom(address,address,uint256)": {
        "details": "Transfers `tokenId` from `from` to `to`. Requirements: - `from` cannot be the zero address. - `to` cannot be the zero address. - `tokenId` token must be owned by `from`. - If the caller is not `from`, it must be approved to move this token by either {approve} or {setApprovalForAll}. Emits a {Transfer} event."
      },
      "transferOwnership(address)": {
        "details": "Transfers ownership of the contract to a new account (`newOwner`). Can only be called by the current owner."
      }
    },
    "version": 1
  },
  "userdoc": {
    "errors": {
      "ApprovalCallerNotOwnerNorApproved()": [
        {
          "notice": "The caller must own the token or be an approved operator."
        }
      ],
      "ApprovalQueryForNonexistentToken()": [
        {
          "notice": "The token does not exist."
        }
      ],
      "BalanceQueryForZeroAddress()": [
        {
          "notice": "Cannot query the balance for the zero address."
        }
      ],
      "MintERC2309QuantityExceedsLimit()": [
        {
          "notice": "The `quantity` minted with ERC2309 exceeds the safety limit."
        }
      ],
      "MintToZeroAddress()": [
        {
          "notice": "Cannot mint to the zero address."
        }
      ],
      "MintZeroQuantity()": [
        {
          "notice": "The quantity of tokens minted must be more than zero."
        }
      ],
      "OwnerQueryForNonexistentToken()": [
        {
          "notice": "The token does not exist."
        }
      ],
      "OwnershipNotInitializedForExtraData()": [
        {
          "notice": "The `extraData` cannot be set on an unintialized ownership slot."
        }
      ],
      "TransferCallerNotOwnerNorApproved()": [
        {
          "notice": "The caller must own the token or be an approved operator."
        }
      ],
      "TransferFromIncorrectOwner()": [
        {
          "notice": "The token must be owned by `from`."
        }
      ],
      "TransferToNonERC721ReceiverImplementer()": [
        {
          "notice": "Cannot safely transfer to a contract that does not implement the ERC721Receiver interface."
        }
      ],
      "TransferToZeroAddress()": [
        {
          "notice": "Cannot transfer to the zero address."
        }
      ],
      "URIQueryForNonexistentToken()": [
        {
          "notice": "The token does not exist."
        }
      ]
    },
    "kind": "user",
    "methods": {},
    "version": 1
  },
  "storageLayout": {
    "storage": [
      {
        "astId": 2508,
        "contract": "contracts/DecaNFT.sol:DecaNFT",
        "label": "_owner",
        "offset": 0,
        "slot": "0",
        "type": "t_address"
      },
      {
        "astId": 455,
        "contract": "contracts/DecaNFT.sol:DecaNFT",
        "label": "trustedRemoteLookup",
        "offset": 0,
        "slot": "1",
        "type": "t_mapping(t_uint16,t_bytes_storage)"
      },
      {
        "astId": 461,
        "contract": "contracts/DecaNFT.sol:DecaNFT",
        "label": "minDstGasLookup",
        "offset": 0,
        "slot": "2",
        "type": "t_mapping(t_uint16,t_mapping(t_uint16,t_uint256))"
      },
      {
        "astId": 465,
        "contract": "contracts/DecaNFT.sol:DecaNFT",
        "label": "payloadSizeLimitLookup",
        "offset": 0,
        "slot": "3",
        "type": "t_mapping(t_uint16,t_uint256)"
      },
      {
        "astId": 467,
        "contract": "contracts/DecaNFT.sol:DecaNFT",
        "label": "precrime",
        "offset": 0,
        "slot": "4",
        "type": "t_address"
      },
      {
        "astId": 997,
        "contract": "contracts/DecaNFT.sol:DecaNFT",
        "label": "failedMessages",
        "offset": 0,
        "slot": "5",
        "type": "t_mapping(t_uint16,t_mapping(t_bytes_memory_ptr,t_mapping(t_uint64,t_bytes32)))"
      },
      {
        "astId": 2643,
        "contract": "contracts/DecaNFT.sol:DecaNFT",
        "label": "_status",
        "offset": 0,
        "slot": "6",
        "type": "t_uint256"
      },
      {
        "astId": 1567,
        "contract": "contracts/DecaNFT.sol:DecaNFT",
        "label": "minGasToTransferAndStore",
        "offset": 0,
        "slot": "7",
        "type": "t_uint256"
      },
      {
        "astId": 1571,
        "contract": "contracts/DecaNFT.sol:DecaNFT",
        "label": "dstChainIdToBatchLimit",
        "offset": 0,
        "slot": "8",
        "type": "t_mapping(t_uint16,t_uint256)"
      },
      {
        "astId": 1575,
        "contract": "contracts/DecaNFT.sol:DecaNFT",
        "label": "dstChainIdToTransferGas",
        "offset": 0,
        "slot": "9",
        "type": "t_mapping(t_uint16,t_uint256)"
      },
      {
        "astId": 1580,
        "contract": "contracts/DecaNFT.sol:DecaNFT",
        "label": "storedCredits",
        "offset": 0,
        "slot": "10",
        "type": "t_mapping(t_bytes32,t_struct(StoredCredit)1565_storage)"
      },
      {
        "astId": 5119,
        "contract": "contracts/DecaNFT.sol:DecaNFT",
        "label": "_currentIndex",
        "offset": 0,
        "slot": "11",
        "type": "t_uint256"
      },
      {
        "astId": 5121,
        "contract": "contracts/DecaNFT.sol:DecaNFT",
        "label": "_burnCounter",
        "offset": 0,
        "slot": "12",
        "type": "t_uint256"
      },
      {
        "astId": 5123,
        "contract": "contracts/DecaNFT.sol:DecaNFT",
        "label": "_name",
        "offset": 0,
        "slot": "13",
        "type": "t_string_storage"
      },
      {
        "astId": 5125,
        "contract": "contracts/DecaNFT.sol:DecaNFT",
        "label": "_symbol",
        "offset": 0,
        "slot": "14",
        "type": "t_string_storage"
      },
      {
        "astId": 5129,
        "contract": "contracts/DecaNFT.sol:DecaNFT",
        "label": "_packedOwnerships",
        "offset": 0,
        "slot": "15",
        "type": "t_mapping(t_uint256,t_uint256)"
      },
      {
        "astId": 5133,
        "contract": "contracts/DecaNFT.sol:DecaNFT",
        "label": "_packedAddressData",
        "offset": 0,
        "slot": "16",
        "type": "t_mapping(t_address,t_uint256)"
      },
      {
        "astId": 5138,
        "contract": "contracts/DecaNFT.sol:DecaNFT",
        "label": "_tokenApprovals",
        "offset": 0,
        "slot": "17",
        "type": "t_mapping(t_uint256,t_struct(TokenApprovalRef)5051_storage)"
      },
      {
        "astId": 5144,
        "contract": "contracts/DecaNFT.sol:DecaNFT",
        "label": "_operatorApprovals",
        "offset": 0,
        "slot": "18",
        "type": "t_mapping(t_address,t_mapping(t_address,t_bool))"
      },
      {
        "astId": 2848,
        "contract": "contracts/DecaNFT.sol:DecaNFT",
        "label": "_defaultRoyaltyInfo",
        "offset": 0,
        "slot": "19",
        "type": "t_struct(RoyaltyInfo)2845_storage"
      },
      {
        "astId": 2853,
        "contract": "contracts/DecaNFT.sol:DecaNFT",
        "label": "_tokenRoyaltyInfo",
        "offset": 0,
        "slot": "20",
        "type": "t_mapping(t_uint256,t_struct(RoyaltyInfo)2845_storage)"
      },
      {
        "astId": 4516,
        "contract": "contracts/DecaNFT.sol:DecaNFT",
        "label": "baseTokenURI",
        "offset": 0,
        "slot": "21",
        "type": "t_string_storage"
      },
      {
        "astId": 4518,
        "contract": "contracts/DecaNFT.sol:DecaNFT",
        "label": "prerevealTokenURI",
        "offset": 0,
        "slot": "22",
        "type": "t_string_storage"
      },
      {
        "astId": 4520,
        "contract": "contracts/DecaNFT.sol:DecaNFT",
        "label": "revealed",
        "offset": 0,
        "slot": "23",
        "type": "t_bool"
      },
      {
        "astId": 4522,
        "contract": "contracts/DecaNFT.sol:DecaNFT",
        "label": "whiteListingPeriod",
        "offset": 1,
        "slot": "23",
        "type": "t_bool"
      },
      {
        "astId": 4524,
        "contract": "contracts/DecaNFT.sol:DecaNFT",
        "label": "mintState",
        "offset": 2,
        "slot": "23",
        "type": "t_bool"
      },
      {
        "astId": 4526,
        "contract": "contracts/DecaNFT.sol:DecaNFT",
        "label": "mintLimit",
        "offset": 0,
        "slot": "24",
        "type": "t_uint256"
      },
      {
        "astId": 4532,
        "contract": "contracts/DecaNFT.sol:DecaNFT",
        "label": "treasuryMintedCount",
        "offset": 0,
        "slot": "25",
        "type": "t_uint256"
      },
      {
        "astId": 4537,
        "contract": "contracts/DecaNFT.sol:DecaNFT",
        "label": "treasuryAddress",
        "offset": 0,
        "slot": "26",
        "type": "t_address"
      },
      {
        "astId": 4541,
        "contract": "contracts/DecaNFT.sol:DecaNFT",
        "label": "minters",
        "offset": 0,
        "slot": "27",
        "type": "t_mapping(t_address,t_bool)"
      }
    ],
    "types": {
      "t_address": {
        "encoding": "inplace",
        "label": "address",
        "numberOfBytes": "20"
      },
      "t_bool": {
        "encoding": "inplace",
        "label": "bool",
        "numberOfBytes": "1"
      },
      "t_bytes32": {
        "encoding": "inplace",
        "label": "bytes32",
        "numberOfBytes": "32"
      },
      "t_bytes_memory_ptr": {
        "encoding": "bytes",
        "label": "bytes",
        "numberOfBytes": "32"
      },
      "t_bytes_storage": {
        "encoding": "bytes",
        "label": "bytes",
        "numberOfBytes": "32"
      },
      "t_mapping(t_address,t_bool)": {
        "encoding": "mapping",
        "key": "t_address",
        "label": "mapping(address => bool)",
        "numberOfBytes": "32",
        "value": "t_bool"
      },
      "t_mapping(t_address,t_mapping(t_address,t_bool))": {
        "encoding": "mapping",
        "key": "t_address",
        "label": "mapping(address => mapping(address => bool))",
        "numberOfBytes": "32",
        "value": "t_mapping(t_address,t_bool)"
      },
      "t_mapping(t_address,t_uint256)": {
        "encoding": "mapping",
        "key": "t_address",
        "label": "mapping(address => uint256)",
        "numberOfBytes": "32",
        "value": "t_uint256"
      },
      "t_mapping(t_bytes32,t_struct(StoredCredit)1565_storage)": {
        "encoding": "mapping",
        "key": "t_bytes32",
        "label": "mapping(bytes32 => struct ONFT721Core.StoredCredit)",
        "numberOfBytes": "32",
        "value": "t_struct(StoredCredit)1565_storage"
      },
      "t_mapping(t_bytes_memory_ptr,t_mapping(t_uint64,t_bytes32))": {
        "encoding": "mapping",
        "key": "t_bytes_memory_ptr",
        "label": "mapping(bytes => mapping(uint64 => bytes32))",
        "numberOfBytes": "32",
        "value": "t_mapping(t_uint64,t_bytes32)"
      },
      "t_mapping(t_uint16,t_bytes_storage)": {
        "encoding": "mapping",
        "key": "t_uint16",
        "label": "mapping(uint16 => bytes)",
        "numberOfBytes": "32",
        "value": "t_bytes_storage"
      },
      "t_mapping(t_uint16,t_mapping(t_bytes_memory_ptr,t_mapping(t_uint64,t_bytes32)))": {
        "encoding": "mapping",
        "key": "t_uint16",
        "label": "mapping(uint16 => mapping(bytes => mapping(uint64 => bytes32)))",
        "numberOfBytes": "32",
        "value": "t_mapping(t_bytes_memory_ptr,t_mapping(t_uint64,t_bytes32))"
      },
      "t_mapping(t_uint16,t_mapping(t_uint16,t_uint256))": {
        "encoding": "mapping",
        "key": "t_uint16",
        "label": "mapping(uint16 => mapping(uint16 => uint256))",
        "numberOfBytes": "32",
        "value": "t_mapping(t_uint16,t_uint256)"
      },
      "t_mapping(t_uint16,t_uint256)": {
        "encoding": "mapping",
        "key": "t_uint16",
        "label": "mapping(uint16 => uint256)",
        "numberOfBytes": "32",
        "value": "t_uint256"
      },
      "t_mapping(t_uint256,t_struct(RoyaltyInfo)2845_storage)": {
        "encoding": "mapping",
        "key": "t_uint256",
        "label": "mapping(uint256 => struct ERC2981.RoyaltyInfo)",
        "numberOfBytes": "32",
        "value": "t_struct(RoyaltyInfo)2845_storage"
      },
      "t_mapping(t_uint256,t_struct(TokenApprovalRef)5051_storage)": {
        "encoding": "mapping",
        "key": "t_uint256",
        "label": "mapping(uint256 => struct ERC721A.TokenApprovalRef)",
        "numberOfBytes": "32",
        "value": "t_struct(TokenApprovalRef)5051_storage"
      },
      "t_mapping(t_uint256,t_uint256)": {
        "encoding": "mapping",
        "key": "t_uint256",
        "label": "mapping(uint256 => uint256)",
        "numberOfBytes": "32",
        "value": "t_uint256"
      },
      "t_mapping(t_uint64,t_bytes32)": {
        "encoding": "mapping",
        "key": "t_uint64",
        "label": "mapping(uint64 => bytes32)",
        "numberOfBytes": "32",
        "value": "t_bytes32"
      },
      "t_string_storage": {
        "encoding": "bytes",
        "label": "string",
        "numberOfBytes": "32"
      },
      "t_struct(RoyaltyInfo)2845_storage": {
        "encoding": "inplace",
        "label": "struct ERC2981.RoyaltyInfo",
        "members": [
          {
            "astId": 2842,
            "contract": "contracts/DecaNFT.sol:DecaNFT",
            "label": "receiver",
            "offset": 0,
            "slot": "0",
            "type": "t_address"
          },
          {
            "astId": 2844,
            "contract": "contracts/DecaNFT.sol:DecaNFT",
            "label": "royaltyFraction",
            "offset": 20,
            "slot": "0",
            "type": "t_uint96"
          }
        ],
        "numberOfBytes": "32"
      },
      "t_struct(StoredCredit)1565_storage": {
        "encoding": "inplace",
        "label": "struct ONFT721Core.StoredCredit",
        "members": [
          {
            "astId": 1558,
            "contract": "contracts/DecaNFT.sol:DecaNFT",
            "label": "srcChainId",
            "offset": 0,
            "slot": "0",
            "type": "t_uint16"
          },
          {
            "astId": 1560,
            "contract": "contracts/DecaNFT.sol:DecaNFT",
            "label": "toAddress",
            "offset": 2,
            "slot": "0",
            "type": "t_address"
          },
          {
            "astId": 1562,
            "contract": "contracts/DecaNFT.sol:DecaNFT",
            "label": "index",
            "offset": 0,
            "slot": "1",
            "type": "t_uint256"
          },
          {
            "astId": 1564,
            "contract": "contracts/DecaNFT.sol:DecaNFT",
            "label": "creditsRemain",
            "offset": 0,
            "slot": "2",
            "type": "t_bool"
          }
        ],
        "numberOfBytes": "96"
      },
      "t_struct(TokenApprovalRef)5051_storage": {
        "encoding": "inplace",
        "label": "struct ERC721A.TokenApprovalRef",
        "members": [
          {
            "astId": 5050,
            "contract": "contracts/DecaNFT.sol:DecaNFT",
            "label": "value",
            "offset": 0,
            "slot": "0",
            "type": "t_address"
          }
        ],
        "numberOfBytes": "32"
      },
      "t_uint16": {
        "encoding": "inplace",
        "label": "uint16",
        "numberOfBytes": "2"
      },
      "t_uint256": {
        "encoding": "inplace",
        "label": "uint256",
        "numberOfBytes": "32"
      },
      "t_uint64": {
        "encoding": "inplace",
        "label": "uint64",
        "numberOfBytes": "8"
      },
      "t_uint96": {
        "encoding": "inplace",
        "label": "uint96",
        "numberOfBytes": "12"
      }
    }
  }
}