{
  "address": "0xdc241019e2185C2271325Da375D29Ce471ba8158",
  "abi": [
    {
      "inputs": [
        {
          "internalType": "string",
          "name": "_name",
          "type": "string"
        },
        {
          "internalType": "string",
          "name": "_symbol",
          "type": "string"
        },
        {
          "internalType": "uint16",
          "name": "maxSupply_",
          "type": "uint16"
        },
        {
          "internalType": "uint256",
          "name": "_minGasToStore",
          "type": "uint256"
        },
        {
          "internalType": "address",
          "name": "_lzEndpoint",
          "type": "address"
        }
      ],
      "stateMutability": "nonpayable",
      "type": "constructor"
    },
    {
      "inputs": [],
      "name": "BagAddressNotSet",
      "type": "error"
    },
    {
      "inputs": [],
      "name": "InvalidRedeemer",
      "type": "error"
    },
    {
      "inputs": [],
      "name": "InvalidTokenId",
      "type": "error"
    },
    {
      "inputs": [],
      "name": "NoMoreTokenIds",
      "type": "error"
    },
    {
      "inputs": [],
      "name": "NotAllowedByRegistry",
      "type": "error"
    },
    {
      "inputs": [],
      "name": "RedeemBagNotOpen",
      "type": "error"
    },
    {
      "inputs": [],
      "name": "RegistryNotSet",
      "type": "error"
    },
    {
      "anonymous": false,
      "inputs": [
        {
          "indexed": true,
          "internalType": "address",
          "name": "owner",
          "type": "address"
        },
        {
          "indexed": true,
          "internalType": "address",
          "name": "approved",
          "type": "address"
        },
        {
          "indexed": true,
          "internalType": "uint256",
          "name": "tokenId",
          "type": "uint256"
        }
      ],
      "name": "Approval",
      "type": "event"
    },
    {
      "anonymous": false,
      "inputs": [
        {
          "indexed": true,
          "internalType": "address",
          "name": "owner",
          "type": "address"
        },
        {
          "indexed": true,
          "internalType": "address",
          "name": "operator",
          "type": "address"
        },
        {
          "indexed": false,
          "internalType": "bool",
          "name": "approved",
          "type": "bool"
        }
      ],
      "name": "ApprovalForAll",
      "type": "event"
    },
    {
      "anonymous": false,
      "inputs": [
        {
          "indexed": true,
          "internalType": "address",
          "name": "to",
          "type": "address"
        },
        {
          "indexed": true,
          "internalType": "uint256",
          "name": "tokenId",
          "type": "uint256"
        },
        {
          "indexed": true,
          "internalType": "uint256",
          "name": "bagId",
          "type": "uint256"
        }
      ],
      "name": "BagRedeemed",
      "type": "event"
    },
    {
      "anonymous": false,
      "inputs": [
        {
          "indexed": false,
          "internalType": "bytes32",
          "name": "_hashedPayload",
          "type": "bytes32"
        }
      ],
      "name": "CreditCleared",
      "type": "event"
    },
    {
      "anonymous": false,
      "inputs": [
        {
          "indexed": false,
          "internalType": "bytes32",
          "name": "_hashedPayload",
          "type": "bytes32"
        },
        {
          "indexed": false,
          "internalType": "bytes",
          "name": "_payload",
          "type": "bytes"
        }
      ],
      "name": "CreditStored",
      "type": "event"
    },
    {
      "anonymous": false,
      "inputs": [
        {
          "indexed": false,
          "internalType": "uint16",
          "name": "_srcChainId",
          "type": "uint16"
        },
        {
          "indexed": false,
          "internalType": "bytes",
          "name": "_srcAddress",
          "type": "bytes"
        },
        {
          "indexed": false,
          "internalType": "uint64",
          "name": "_nonce",
          "type": "uint64"
        },
        {
          "indexed": false,
          "internalType": "bytes",
          "name": "_payload",
          "type": "bytes"
        },
        {
          "indexed": false,
          "internalType": "bytes",
          "name": "_reason",
          "type": "bytes"
        }
      ],
      "name": "MessageFailed",
      "type": "event"
    },
    {
      "anonymous": false,
      "inputs": [
        {
          "indexed": true,
          "internalType": "address",
          "name": "previousOwner",
          "type": "address"
        },
        {
          "indexed": true,
          "internalType": "address",
          "name": "newOwner",
          "type": "address"
        }
      ],
      "name": "OwnershipTransferred",
      "type": "event"
    },
    {
      "anonymous": false,
      "inputs": [
        {
          "indexed": true,
          "internalType": "uint16",
          "name": "_srcChainId",
          "type": "uint16"
        },
        {
          "indexed": true,
          "internalType": "bytes",
          "name": "_srcAddress",
          "type": "bytes"
        },
        {
          "indexed": true,
          "internalType": "address",
          "name": "_toAddress",
          "type": "address"
        },
        {
          "indexed": false,
          "internalType": "uint256[]",
          "name": "_tokenIds",
          "type": "uint256[]"
        }
      ],
      "name": "ReceiveFromChain",
      "type": "event"
    },
    {
      "anonymous": false,
      "inputs": [
        {
          "indexed": false,
          "internalType": "uint16",
          "name": "_srcChainId",
          "type": "uint16"
        },
        {
          "indexed": false,
          "internalType": "bytes",
          "name": "_srcAddress",
          "type": "bytes"
        },
        {
          "indexed": false,
          "internalType": "uint64",
          "name": "_nonce",
          "type": "uint64"
        },
        {
          "indexed": false,
          "internalType": "bytes32",
          "name": "_payloadHash",
          "type": "bytes32"
        }
      ],
      "name": "RetryMessageSuccess",
      "type": "event"
    },
    {
      "anonymous": false,
      "inputs": [
        {
          "indexed": true,
          "internalType": "uint16",
          "name": "_dstChainId",
          "type": "uint16"
        },
        {
          "indexed": true,
          "internalType": "address",
          "name": "_from",
          "type": "address"
        },
        {
          "indexed": true,
          "internalType": "bytes",
          "name": "_toAddress",
          "type": "bytes"
        },
        {
          "indexed": false,
          "internalType": "uint256[]",
          "name": "_tokenIds",
          "type": "uint256[]"
        }
      ],
      "name": "SendToChain",
      "type": "event"
    },
    {
      "anonymous": false,
      "inputs": [
        {
          "indexed": false,
          "internalType": "uint16",
          "name": "_dstChainId",
          "type": "uint16"
        },
        {
          "indexed": false,
          "internalType": "uint256",
          "name": "_dstChainIdToBatchLimit",
          "type": "uint256"
        }
      ],
      "name": "SetDstChainIdToBatchLimit",
      "type": "event"
    },
    {
      "anonymous": false,
      "inputs": [
        {
          "indexed": false,
          "internalType": "uint16",
          "name": "_dstChainId",
          "type": "uint16"
        },
        {
          "indexed": false,
          "internalType": "uint256",
          "name": "_dstChainIdToTransferGas",
          "type": "uint256"
        }
      ],
      "name": "SetDstChainIdToTransferGas",
      "type": "event"
    },
    {
      "anonymous": false,
      "inputs": [
        {
          "indexed": false,
          "internalType": "uint16",
          "name": "_dstChainId",
          "type": "uint16"
        },
        {
          "indexed": false,
          "internalType": "uint16",
          "name": "_type",
          "type": "uint16"
        },
        {
          "indexed": false,
          "internalType": "uint256",
          "name": "_minDstGas",
          "type": "uint256"
        }
      ],
      "name": "SetMinDstGas",
      "type": "event"
    },
    {
      "anonymous": false,
      "inputs": [
        {
          "indexed": false,
          "internalType": "uint256",
          "name": "_minGasToTransferAndStore",
          "type": "uint256"
        }
      ],
      "name": "SetMinGasToTransferAndStore",
      "type": "event"
    },
    {
      "anonymous": false,
      "inputs": [
        {
          "indexed": false,
          "internalType": "address",
          "name": "precrime",
          "type": "address"
        }
      ],
      "name": "SetPrecrime",
      "type": "event"
    },
    {
      "anonymous": false,
      "inputs": [
        {
          "indexed": false,
          "internalType": "uint16",
          "name": "_remoteChainId",
          "type": "uint16"
        },
        {
          "indexed": false,
          "internalType": "bytes",
          "name": "_path",
          "type": "bytes"
        }
      ],
      "name": "SetTrustedRemote",
      "type": "event"
    },
    {
      "anonymous": false,
      "inputs": [
        {
          "indexed": false,
          "internalType": "uint16",
          "name": "_remoteChainId",
          "type": "uint16"
        },
        {
          "indexed": false,
          "internalType": "bytes",
          "name": "_remoteAddress",
          "type": "bytes"
        }
      ],
      "name": "SetTrustedRemoteAddress",
      "type": "event"
    },
    {
      "anonymous": false,
      "inputs": [
        {
          "indexed": true,
          "internalType": "address",
          "name": "from",
          "type": "address"
        },
        {
          "indexed": true,
          "internalType": "address",
          "name": "to",
          "type": "address"
        },
        {
          "indexed": true,
          "internalType": "uint256",
          "name": "tokenId",
          "type": "uint256"
        }
      ],
      "name": "Transfer",
      "type": "event"
    },
    {
      "inputs": [],
      "name": "DEFAULT_PAYLOAD_SIZE_LIMIT",
      "outputs": [
        {
          "internalType": "uint256",
          "name": "",
          "type": "uint256"
        }
      ],
      "stateMutability": "view",
      "type": "function"
    },
    {
      "inputs": [],
      "name": "FUNCTION_TYPE_SEND",
      "outputs": [
        {
          "internalType": "uint16",
          "name": "",
          "type": "uint16"
        }
      ],
      "stateMutability": "view",
      "type": "function"
    },
    {
      "inputs": [],
      "name": "MAX_SUPPLY",
      "outputs": [
        {
          "internalType": "uint16",
          "name": "",
          "type": "uint16"
        }
      ],
      "stateMutability": "view",
      "type": "function"
    },
    {
      "inputs": [
        {
          "internalType": "address",
          "name": "operator",
          "type": "address"
        },
        {
          "internalType": "uint256",
          "name": "tokenId",
          "type": "uint256"
        }
      ],
      "name": "approve",
      "outputs": [],
      "stateMutability": "nonpayable",
      "type": "function"
    },
    {
      "inputs": [
        {
          "internalType": "address",
          "name": "owner",
          "type": "address"
        }
      ],
      "name": "balanceOf",
      "outputs": [
        {
          "internalType": "uint256",
          "name": "",
          "type": "uint256"
        }
      ],
      "stateMutability": "view",
      "type": "function"
    },
    {
      "inputs": [
        {
          "internalType": "bytes",
          "name": "_payload",
          "type": "bytes"
        }
      ],
      "name": "clearCredits",
      "outputs": [],
      "stateMutability": "nonpayable",
      "type": "function"
    },
    {
      "inputs": [
        {
          "internalType": "uint16",
          "name": "",
          "type": "uint16"
        }
      ],
      "name": "dstChainIdToBatchLimit",
      "outputs": [
        {
          "internalType": "uint256",
          "name": "",
          "type": "uint256"
        }
      ],
      "stateMutability": "view",
      "type": "function"
    },
    {
      "inputs": [
        {
          "internalType": "uint16",
          "name": "",
          "type": "uint16"
        }
      ],
      "name": "dstChainIdToTransferGas",
      "outputs": [
        {
          "internalType": "uint256",
          "name": "",
          "type": "uint256"
        }
      ],
      "stateMutability": "view",
      "type": "function"
    },
    {
      "inputs": [
        {
          "internalType": "uint16",
          "name": "_dstChainId",
          "type": "uint16"
        },
        {
          "internalType": "bytes",
          "name": "_toAddress",
          "type": "bytes"
        },
        {
          "internalType": "uint256[]",
          "name": "_tokenIds",
          "type": "uint256[]"
        },
        {
          "internalType": "bool",
          "name": "_useZro",
          "type": "bool"
        },
        {
          "internalType": "bytes",
          "name": "_adapterParams",
          "type": "bytes"
        }
      ],
      "name": "estimateSendBatchFee",
      "outputs": [
        {
          "internalType": "uint256",
          "name": "nativeFee",
          "type": "uint256"
        },
        {
          "internalType": "uint256",
          "name": "zroFee",
          "type": "uint256"
        }
      ],
      "stateMutability": "view",
      "type": "function"
    },
    {
      "inputs": [
        {
          "internalType": "uint16",
          "name": "_dstChainId",
          "type": "uint16"
        },
        {
          "internalType": "bytes",
          "name": "_toAddress",
          "type": "bytes"
        },
        {
          "internalType": "uint256",
          "name": "_tokenId",
          "type": "uint256"
        },
        {
          "internalType": "bool",
          "name": "_useZro",
          "type": "bool"
        },
        {
          "internalType": "bytes",
          "name": "_adapterParams",
          "type": "bytes"
        }
      ],
      "name": "estimateSendFee",
      "outputs": [
        {
          "internalType": "uint256",
          "name": "nativeFee",
          "type": "uint256"
        },
        {
          "internalType": "uint256",
          "name": "zroFee",
          "type": "uint256"
        }
      ],
      "stateMutability": "view",
      "type": "function"
    },
    {
      "inputs": [
        {
          "internalType": "uint16",
          "name": "",
          "type": "uint16"
        },
        {
          "internalType": "bytes",
          "name": "",
          "type": "bytes"
        },
        {
          "internalType": "uint64",
          "name": "",
          "type": "uint64"
        }
      ],
      "name": "failedMessages",
      "outputs": [
        {
          "internalType": "bytes32",
          "name": "",
          "type": "bytes32"
        }
      ],
      "stateMutability": "view",
      "type": "function"
    },
    {
      "inputs": [
        {
          "internalType": "uint16",
          "name": "_srcChainId",
          "type": "uint16"
        },
        {
          "internalType": "bytes",
          "name": "_srcAddress",
          "type": "bytes"
        }
      ],
      "name": "forceResumeReceive",
      "outputs": [],
      "stateMutability": "nonpayable",
      "type": "function"
    },
    {
      "inputs": [
        {
          "internalType": "uint256",
          "name": "tokenId",
          "type": "uint256"
        }
      ],
      "name": "getApproved",
      "outputs": [
        {
          "internalType": "address",
          "name": "",
          "type": "address"
        }
      ],
      "stateMutability": "view",
      "type": "function"
    },
    {
      "inputs": [
        {
          "internalType": "uint16",
          "name": "_version",
          "type": "uint16"
        },
        {
          "internalType": "uint16",
          "name": "_chainId",
          "type": "uint16"
        },
        {
          "internalType": "address",
          "name": "",
          "type": "address"
        },
        {
          "internalType": "uint256",
          "name": "_configType",
          "type": "uint256"
        }
      ],
      "name": "getConfig",
      "outputs": [
        {
          "internalType": "bytes",
          "name": "",
          "type": "bytes"
        }
      ],
      "stateMutability": "view",
      "type": "function"
    },
    {
      "inputs": [
        {
          "internalType": "uint16",
          "name": "_remoteChainId",
          "type": "uint16"
        }
      ],
      "name": "getTrustedRemoteAddress",
      "outputs": [
        {
          "internalType": "bytes",
          "name": "",
          "type": "bytes"
        }
      ],
      "stateMutability": "view",
      "type": "function"
    },
    {
      "inputs": [
        {
          "internalType": "address",
          "name": "owner",
          "type": "address"
        },
        {
          "internalType": "address",
          "name": "operator",
          "type": "address"
        }
      ],
      "name": "isApprovedForAll",
      "outputs": [
        {
          "internalType": "bool",
          "name": "",
          "type": "bool"
        }
      ],
      "stateMutability": "view",
      "type": "function"
    },
    {
      "inputs": [],
      "name": "isRegistryActive",
      "outputs": [
        {
          "internalType": "bool",
          "name": "",
          "type": "bool"
        }
      ],
      "stateMutability": "view",
      "type": "function"
    },
    {
      "inputs": [
        {
          "internalType": "uint16",
          "name": "_srcChainId",
          "type": "uint16"
        },
        {
          "internalType": "bytes",
          "name": "_srcAddress",
          "type": "bytes"
        }
      ],
      "name": "isTrustedRemote",
      "outputs": [
        {
          "internalType": "bool",
          "name": "",
          "type": "bool"
        }
      ],
      "stateMutability": "view",
      "type": "function"
    },
    {
      "inputs": [],
      "name": "lzEndpoint",
      "outputs": [
        {
          "internalType": "contract ILayerZeroEndpoint",
          "name": "",
          "type": "address"
        }
      ],
      "stateMutability": "view",
      "type": "function"
    },
    {
      "inputs": [
        {
          "internalType": "uint16",
          "name": "_srcChainId",
          "type": "uint16"
        },
        {
          "internalType": "bytes",
          "name": "_srcAddress",
          "type": "bytes"
        },
        {
          "internalType": "uint64",
          "name": "_nonce",
          "type": "uint64"
        },
        {
          "internalType": "bytes",
          "name": "_payload",
          "type": "bytes"
        }
      ],
      "name": "lzReceive",
      "outputs": [],
      "stateMutability": "nonpayable",
      "type": "function"
    },
    {
      "inputs": [
        {
          "internalType": "uint16",
          "name": "",
          "type": "uint16"
        },
        {
          "internalType": "uint16",
          "name": "",
          "type": "uint16"
        }
      ],
      "name": "minDstGasLookup",
      "outputs": [
        {
          "internalType": "uint256",
          "name": "",
          "type": "uint256"
        }
      ],
      "stateMutability": "view",
      "type": "function"
    },
    {
      "inputs": [],
      "name": "minGasToTransferAndStore",
      "outputs": [
        {
          "internalType": "uint256",
          "name": "",
          "type": "uint256"
        }
      ],
      "stateMutability": "view",
      "type": "function"
    },
    {
      "inputs": [],
      "name": "name",
      "outputs": [
        {
          "internalType": "string",
          "name": "",
          "type": "string"
        }
      ],
      "stateMutability": "view",
      "type": "function"
    },
    {
      "inputs": [
        {
          "internalType": "uint16",
          "name": "_srcChainId",
          "type": "uint16"
        },
        {
          "internalType": "bytes",
          "name": "_srcAddress",
          "type": "bytes"
        },
        {
          "internalType": "uint64",
          "name": "_nonce",
          "type": "uint64"
        },
        {
          "internalType": "bytes",
          "name": "_payload",
          "type": "bytes"
        }
      ],
      "name": "nonblockingLzReceive",
      "outputs": [],
      "stateMutability": "nonpayable",
      "type": "function"
    },
    {
      "inputs": [],
      "name": "operatorFilteringEnabled",
      "outputs": [
        {
          "internalType": "bool",
          "name": "",
          "type": "bool"
        }
      ],
      "stateMutability": "view",
      "type": "function"
    },
    {
      "inputs": [],
      "name": "owner",
      "outputs": [
        {
          "internalType": "address",
          "name": "",
          "type": "address"
        }
      ],
      "stateMutability": "view",
      "type": "function"
    },
    {
      "inputs": [
        {
          "internalType": "uint256",
          "name": "tokenId",
          "type": "uint256"
        }
      ],
      "name": "ownerOf",
      "outputs": [
        {
          "internalType": "address",
          "name": "",
          "type": "address"
        }
      ],
      "stateMutability": "view",
      "type": "function"
    },
    {
      "inputs": [
        {
          "internalType": "uint16",
          "name": "",
          "type": "uint16"
        }
      ],
      "name": "payloadSizeLimitLookup",
      "outputs": [
        {
          "internalType": "uint256",
          "name": "",
          "type": "uint256"
        }
      ],
      "stateMutability": "view",
      "type": "function"
    },
    {
      "inputs": [],
      "name": "precrime",
      "outputs": [
        {
          "internalType": "address",
          "name": "",
          "type": "address"
        }
      ],
      "stateMutability": "view",
      "type": "function"
    },
    {
      "inputs": [],
      "name": "realOwner",
      "outputs": [
        {
          "internalType": "address",
          "name": "",
          "type": "address"
        }
      ],
      "stateMutability": "view",
      "type": "function"
    },
    {
      "inputs": [
        {
          "internalType": "address",
          "name": "to",
          "type": "address"
        },
        {
          "internalType": "uint256[]",
          "name": "bagIds",
          "type": "uint256[]"
        }
      ],
      "name": "redeemBags",
      "outputs": [
        {
          "internalType": "uint256[]",
          "name": "",
          "type": "uint256[]"
        }
      ],
      "stateMutability": "nonpayable",
      "type": "function"
    },
    {
      "inputs": [],
      "name": "redeemInfo",
      "outputs": [
        {
          "internalType": "bool",
          "name": "redeemBagOpen",
          "type": "bool"
        },
        {
          "internalType": "address",
          "name": "bagAddress",
          "type": "address"
        }
      ],
      "stateMutability": "view",
      "type": "function"
    },
    {
      "inputs": [],
      "name": "registryAddress",
      "outputs": [
        {
          "internalType": "address",
          "name": "",
          "type": "address"
        }
      ],
      "stateMutability": "view",
      "type": "function"
    },
    {
      "inputs": [],
      "name": "renounceOwnership",
      "outputs": [],
      "stateMutability": "nonpayable",
      "type": "function"
    },
    {
      "inputs": [
        {
          "internalType": "uint16",
          "name": "_srcChainId",
          "type": "uint16"
        },
        {
          "internalType": "bytes",
          "name": "_srcAddress",
          "type": "bytes"
        },
        {
          "internalType": "uint64",
          "name": "_nonce",
          "type": "uint64"
        },
        {
          "internalType": "bytes",
          "name": "_payload",
          "type": "bytes"
        }
      ],
      "name": "retryMessage",
      "outputs": [],
      "stateMutability": "payable",
      "type": "function"
    },
    {
      "inputs": [
        {
          "internalType": "uint256",
          "name": "tokenId",
          "type": "uint256"
        },
        {
          "internalType": "uint256",
          "name": "salePrice",
          "type": "uint256"
        }
      ],
      "name": "royaltyInfo",
      "outputs": [
        {
          "internalType": "address",
          "name": "",
          "type": "address"
        },
        {
          "internalType": "uint256",
          "name": "",
          "type": "uint256"
        }
      ],
      "stateMutability": "view",
      "type": "function"
    },
    {
      "inputs": [
        {
          "internalType": "address",
          "name": "from",
          "type": "address"
        },
        {
          "internalType": "address",
          "name": "to",
          "type": "address"
        },
        {
          "internalType": "uint256",
          "name": "tokenId",
          "type": "uint256"
        }
      ],
      "name": "safeTransferFrom",
      "outputs": [],
      "stateMutability": "nonpayable",
      "type": "function"
    },
    {
      "inputs": [
        {
          "internalType": "address",
          "name": "from",
          "type": "address"
        },
        {
          "internalType": "address",
          "name": "to",
          "type": "address"
        },
        {
          "internalType": "uint256",
          "name": "tokenId",
          "type": "uint256"
        },
        {
          "internalType": "bytes",
          "name": "data",
          "type": "bytes"
        }
      ],
      "name": "safeTransferFrom",
      "outputs": [],
      "stateMutability": "nonpayable",
      "type": "function"
    },
    {
      "inputs": [
        {
          "internalType": "address",
          "name": "_from",
          "type": "address"
        },
        {
          "internalType": "uint16",
          "name": "_dstChainId",
          "type": "uint16"
        },
        {
          "internalType": "bytes",
          "name": "_toAddress",
          "type": "bytes"
        },
        {
          "internalType": "uint256[]",
          "name": "_tokenIds",
          "type": "uint256[]"
        },
        {
          "internalType": "address payable",
          "name": "_refundAddress",
          "type": "address"
        },
        {
          "internalType": "address",
          "name": "_zroPaymentAddress",
          "type": "address"
        },
        {
          "internalType": "bytes",
          "name": "_adapterParams",
          "type": "bytes"
        }
      ],
      "name": "sendBatchFrom",
      "outputs": [],
      "stateMutability": "payable",
      "type": "function"
    },
    {
      "inputs": [
        {
          "internalType": "address",
          "name": "_from",
          "type": "address"
        },
        {
          "internalType": "uint16",
          "name": "_dstChainId",
          "type": "uint16"
        },
        {
          "internalType": "bytes",
          "name": "_toAddress",
          "type": "bytes"
        },
        {
          "internalType": "uint256",
          "name": "_tokenId",
          "type": "uint256"
        },
        {
          "internalType": "address payable",
          "name": "_refundAddress",
          "type": "address"
        },
        {
          "internalType": "address",
          "name": "_zroPaymentAddress",
          "type": "address"
        },
        {
          "internalType": "bytes",
          "name": "_adapterParams",
          "type": "bytes"
        }
      ],
      "name": "sendFrom",
      "outputs": [],
      "stateMutability": "payable",
      "type": "function"
    },
    {
      "inputs": [
        {
          "internalType": "address",
          "name": "operator",
          "type": "address"
        },
        {
          "internalType": "bool",
          "name": "approved",
          "type": "bool"
        }
      ],
      "name": "setApprovalForAll",
      "outputs": [],
      "stateMutability": "nonpayable",
      "type": "function"
    },
    {
      "inputs": [
        {
          "internalType": "address",
          "name": "contractAddress",
          "type": "address"
        }
      ],
      "name": "setBagAddress",
      "outputs": [],
      "stateMutability": "nonpayable",
      "type": "function"
    },
    {
      "inputs": [
        {
          "internalType": "string",
          "name": "baseURI",
          "type": "string"
        }
      ],
      "name": "setBaseURI",
      "outputs": [],
      "stateMutability": "nonpayable",
      "type": "function"
    },
    {
      "inputs": [
        {
          "internalType": "string",
          "name": "baseURIPermanent",
          "type": "string"
        }
      ],
      "name": "setBaseURIPermanent",
      "outputs": [],
      "stateMutability": "nonpayable",
      "type": "function"
    },
    {
      "inputs": [
        {
          "internalType": "uint16",
          "name": "_version",
          "type": "uint16"
        },
        {
          "internalType": "uint16",
          "name": "_chainId",
          "type": "uint16"
        },
        {
          "internalType": "uint256",
          "name": "_configType",
          "type": "uint256"
        },
        {
          "internalType": "bytes",
          "name": "_config",
          "type": "bytes"
        }
      ],
      "name": "setConfig",
      "outputs": [],
      "stateMutability": "nonpayable",
      "type": "function"
    },
    {
      "inputs": [
        {
          "internalType": "address",
          "name": "receiver",
          "type": "address"
        },
        {
          "internalType": "uint96",
          "name": "feeNumerator",
          "type": "uint96"
        }
      ],
      "name": "setDefaultRoyalty",
      "outputs": [],
      "stateMutability": "nonpayable",
      "type": "function"
    },
    {
      "inputs": [
        {
          "internalType": "uint16",
          "name": "_dstChainId",
          "type": "uint16"
        },
        {
          "internalType": "uint256",
          "name": "_dstChainIdToBatchLimit",
          "type": "uint256"
        }
      ],
      "name": "setDstChainIdToBatchLimit",
      "outputs": [],
      "stateMutability": "nonpayable",
      "type": "function"
    },
    {
      "inputs": [
        {
          "internalType": "uint16",
          "name": "_dstChainId",
          "type": "uint16"
        },
        {
          "internalType": "uint256",
          "name": "_dstChainIdToTransferGas",
          "type": "uint256"
        }
      ],
      "name": "setDstChainIdToTransferGas",
      "outputs": [],
      "stateMutability": "nonpayable",
      "type": "function"
    },
    {
      "inputs": [
        {
          "internalType": "bool",
          "name": "_isRegistryActive",
          "type": "bool"
        }
      ],
      "name": "setIsRegistryActive",
      "outputs": [],
      "stateMutability": "nonpayable",
      "type": "function"
    },
    {
      "inputs": [
        {
          "internalType": "uint256[]",
          "name": "tokenIds",
          "type": "uint256[]"
        }
      ],
      "name": "setIsUriPermanent",
      "outputs": [],
      "stateMutability": "nonpayable",
      "type": "function"
    },
    {
      "inputs": [
        {
          "internalType": "uint16",
          "name": "_dstChainId",
          "type": "uint16"
        },
        {
          "internalType": "uint16",
          "name": "_packetType",
          "type": "uint16"
        },
        {
          "internalType": "uint256",
          "name": "_minGas",
          "type": "uint256"
        }
      ],
      "name": "setMinDstGas",
      "outputs": [],
      "stateMutability": "nonpayable",
      "type": "function"
    },
    {
      "inputs": [
        {
          "internalType": "uint256",
          "name": "_minGasToTransferAndStore",
          "type": "uint256"
        }
      ],
      "name": "setMinGasToTransferAndStore",
      "outputs": [],
      "stateMutability": "nonpayable",
      "type": "function"
    },
    {
      "inputs": [
        {
          "internalType": "bool",
          "name": "value",
          "type": "bool"
        }
      ],
      "name": "setOperatorFilteringEnabled",
      "outputs": [],
      "stateMutability": "nonpayable",
      "type": "function"
    },
    {
      "inputs": [
        {
          "internalType": "uint16",
          "name": "_dstChainId",
          "type": "uint16"
        },
        {
          "internalType": "uint256",
          "name": "_size",
          "type": "uint256"
        }
      ],
      "name": "setPayloadSizeLimit",
      "outputs": [],
      "stateMutability": "nonpayable",
      "type": "function"
    },
    {
      "inputs": [
        {
          "internalType": "address",
          "name": "_precrime",
          "type": "address"
        }
      ],
      "name": "setPrecrime",
      "outputs": [],
      "stateMutability": "nonpayable",
      "type": "function"
    },
    {
      "inputs": [
        {
          "internalType": "uint16",
          "name": "_version",
          "type": "uint16"
        }
      ],
      "name": "setReceiveVersion",
      "outputs": [],
      "stateMutability": "nonpayable",
      "type": "function"
    },
    {
      "inputs": [
        {
          "internalType": "bool",
          "name": "_redeemBagOpen",
          "type": "bool"
        }
      ],
      "name": "setRedeemBagState",
      "outputs": [],
      "stateMutability": "nonpayable",
      "type": "function"
    },
    {
      "inputs": [
        {
          "internalType": "address",
          "name": "_registryAddress",
          "type": "address"
        }
      ],
      "name": "setRegistryAddress",
      "outputs": [],
      "stateMutability": "nonpayable",
      "type": "function"
    },
    {
      "inputs": [
        {
          "internalType": "uint16",
          "name": "_version",
          "type": "uint16"
        }
      ],
      "name": "setSendVersion",
      "outputs": [],
      "stateMutability": "nonpayable",
      "type": "function"
    },
    {
      "inputs": [
        {
          "internalType": "uint256",
          "name": "tokenId",
          "type": "uint256"
        },
        {
          "internalType": "address",
          "name": "receiver",
          "type": "address"
        },
        {
          "internalType": "uint96",
          "name": "feeNumerator",
          "type": "uint96"
        }
      ],
      "name": "setTokenRoyalty",
      "outputs": [],
      "stateMutability": "nonpayable",
      "type": "function"
    },
    {
      "inputs": [
        {
          "internalType": "uint16",
          "name": "_remoteChainId",
          "type": "uint16"
        },
        {
          "internalType": "bytes",
          "name": "_path",
          "type": "bytes"
        }
      ],
      "name": "setTrustedRemote",
      "outputs": [],
      "stateMutability": "nonpayable",
      "type": "function"
    },
    {
      "inputs": [
        {
          "internalType": "uint16",
          "name": "_remoteChainId",
          "type": "uint16"
        },
        {
          "internalType": "bytes",
          "name": "_remoteAddress",
          "type": "bytes"
        }
      ],
      "name": "setTrustedRemoteAddress",
      "outputs": [],
      "stateMutability": "nonpayable",
      "type": "function"
    },
    {
      "inputs": [
        {
          "internalType": "bytes32",
          "name": "",
          "type": "bytes32"
        }
      ],
      "name": "storedCredits",
      "outputs": [
        {
          "internalType": "uint16",
          "name": "srcChainId",
          "type": "uint16"
        },
        {
          "internalType": "address",
          "name": "toAddress",
          "type": "address"
        },
        {
          "internalType": "uint256",
          "name": "index",
          "type": "uint256"
        },
        {
          "internalType": "bool",
          "name": "creditsRemain",
          "type": "bool"
        }
      ],
      "stateMutability": "view",
      "type": "function"
    },
    {
      "inputs": [
        {
          "internalType": "bytes4",
          "name": "interfaceId",
          "type": "bytes4"
        }
      ],
      "name": "supportsInterface",
      "outputs": [
        {
          "internalType": "bool",
          "name": "",
          "type": "bool"
        }
      ],
      "stateMutability": "view",
      "type": "function"
    },
    {
      "inputs": [],
      "name": "symbol",
      "outputs": [
        {
          "internalType": "string",
          "name": "",
          "type": "string"
        }
      ],
      "stateMutability": "view",
      "type": "function"
    },
    {
      "inputs": [
        {
          "internalType": "uint256",
          "name": "tokenId",
          "type": "uint256"
        }
      ],
      "name": "tokenURI",
      "outputs": [
        {
          "internalType": "string",
          "name": "",
          "type": "string"
        }
      ],
      "stateMutability": "view",
      "type": "function"
    },
    {
      "inputs": [],
      "name": "totalSupply",
      "outputs": [
        {
          "internalType": "uint256",
          "name": "",
          "type": "uint256"
        }
      ],
      "stateMutability": "view",
      "type": "function"
    },
    {
      "inputs": [
        {
          "internalType": "address",
          "name": "from",
          "type": "address"
        },
        {
          "internalType": "address",
          "name": "to",
          "type": "address"
        },
        {
          "internalType": "uint256",
          "name": "id",
          "type": "uint256"
        }
      ],
      "name": "transferFrom",
      "outputs": [],
      "stateMutability": "nonpayable",
      "type": "function"
    },
    {
      "inputs": [
        {
          "internalType": "address",
          "name": "newOwner",
          "type": "address"
        }
      ],
      "name": "transferLowerOwnership",
      "outputs": [],
      "stateMutability": "nonpayable",
      "type": "function"
    },
    {
      "inputs": [
        {
          "internalType": "address",
          "name": "newOwner",
          "type": "address"
        }
      ],
      "name": "transferOwnership",
      "outputs": [],
      "stateMutability": "nonpayable",
      "type": "function"
    },
    {
      "inputs": [
        {
          "internalType": "address",
          "name": "newRealOwner",
          "type": "address"
        }
      ],
      "name": "transferRealOwnership",
      "outputs": [],
      "stateMutability": "nonpayable",
      "type": "function"
    },
    {
      "inputs": [
        {
          "internalType": "uint16",
          "name": "",
          "type": "uint16"
        }
      ],
      "name": "trustedRemoteLookup",
      "outputs": [
        {
          "internalType": "bytes",
          "name": "",
          "type": "bytes"
        }
      ],
      "stateMutability": "view",
      "type": "function"
    }
  ],
  "transactionHash": "0xf2e4012a76f935e78db8d5c5fa50a61673cf63b069f2a190a538fb3c082ff8f3",
  "args": [
    "SpheraHead",
    "SPH",
    3000,
    100000,
    "0x55370E0fBB5f5b8dAeD978BA1c075a499eB107B8"
  ],
  "numDeployments": 1,
  "solcInputHash": "6d2523d71aa972ba3136bd47a834c3a3",
  "bytecode": "0x60c06040526013805461ffff60a01b1916600160a01b1790553480156200002557600080fd5b5060405162005dd138038062005dd18339810160408190526200004891620002fb565b848483838383838380806200005d3362000149565b6001600160a01b031660805250600160085581620000cd5760405162461bcd60e51b8152602060048201526024808201527f6d696e476173546f5472616e73666572416e6453746f7265206d7573742062656044820152630203e20360e41b606482015260840160405180910390fd5b50600955600d620000df83826200043b565b50600e620000ee82826200043b565b5050601380546001600160a01b0319163317905550505061ffff851660a08190526016805461ffff19169091179055506200012a905062000199565b50506013805460ff60a01b1916600160a01b1790555062000507915050565b600080546001600160a01b038381166001600160a01b0319831681178455604051919092169283917f8be0079c531659141344cd1fd0a4f28419497f9722a3daafe3b4186f6b6457e09190a35050565b620001ba733cc6cdda760b79bafa08df41ecfa224f810dceb66001620001bc565b565b6001600160a01b0390911690637d3e3dbe81620001ec5782620001e55750634420e486620001ec565b5063a0af29035b8060e01b60005230600452826024526004600060446000806daaeb6d7670e522a718067333cd4e5af16200022c578060005160e01c036200022c57600080fd5b5060006024525050565b634e487b7160e01b600052604160045260246000fd5b600082601f8301126200025e57600080fd5b81516001600160401b03808211156200027b576200027b62000236565b604051601f8301601f19908116603f01168101908282118183101715620002a657620002a662000236565b81604052838152602092508683858801011115620002c357600080fd5b600091505b83821015620002e75785820183015181830184015290820190620002c8565b600093810190920192909252949350505050565b600080600080600060a086880312156200031457600080fd5b85516001600160401b03808211156200032c57600080fd5b6200033a89838a016200024c565b965060208801519150808211156200035157600080fd5b5062000360888289016200024c565b945050604086015161ffff811681146200037957600080fd5b6060870151608088015191945092506001600160a01b03811681146200039e57600080fd5b809150509295509295909350565b600181811c90821680620003c157607f821691505b602082108103620003e257634e487b7160e01b600052602260045260246000fd5b50919050565b601f8211156200043657600081815260208120601f850160051c81016020861015620004115750805b601f850160051c820191505b8181101562000432578281556001016200041d565b5050505b505050565b81516001600160401b0381111562000457576200045762000236565b6200046f81620004688454620003ac565b84620003e8565b602080601f831160018114620004a757600084156200048e5750858301515b600019600386901b1c1916600185901b17855562000432565b600085815260208120601f198616915b82811015620004d857888601518255948401946001909101908401620004b7565b5085821015620004f75787850151600019600388901b60f8161c191681555b5050505050600190811b01905550565b60805160a0516158656200056c600039600081816105c80152610761015260008181610bf001528181610e95015281816111ac0152818161137c015281816116520152818161226001528181612726015281816128590152613ef101526158656000f3fe60806040526004361061041a5760003560e01c8063750bcc0e1161021e578063b88d4fde11610123578063e985e9c5116100ab578063f23536411161007a578063f235364114610de4578063f2fde38b14610e04578063f5ecbdbc14610e24578063fa25f9b614610e44578063fb796e6c14610e7157600080fd5b8063e985e9c514610d3b578063eb8d72b714610d5b578063ed9aab5114610d7b578063efe7aa4914610d9b57600080fd5b8063cbed8b9c116100f2578063cbed8b9c14610ca8578063cd06406a14610cc8578063d12473a514610ce8578063d1deba1f14610d08578063df2a5b3b14610d1b57600080fd5b8063b88d4fde14610c32578063baf3292d14610c52578063c446183414610c72578063c87b56dd14610c8857600080fd5b80639f38369a116101a6578063ab7b499311610175578063ab7b499314610b88578063abd017ea14610ba8578063af3fb21c14610bc9578063b353aaa714610bde578063b7c0b8e814610c1257600080fd5b80639f38369a14610b15578063a22cb46514610b35578063a6c3d16514610b55578063ab3ffb9314610b7557600080fd5b80638e0d9fcc116101ed5780638e0d9fcc14610a805780638ffa1f2a14610aa0578063950c8a7414610ac057806395d89b4114610ae05780639ea5d6b114610af557600080fd5b8063750bcc0e146109ea5780637533d78814610a0a5780638cfd8f5c14610a2a5780638da5cb5b14610a6257600080fd5b806332cb6b0c1161032457806351905636116102ac5780635fb4271b1161027b5780635fb4271b146109485780636352211e1461097557806366ad5c8a1461099557806370a08231146109b5578063715018a6146109d557600080fd5b806351905636146108a657806355f804b3146108b95780635944c753146108d95780635b8c41e6146108f957600080fd5b806342842e0e116102f357806342842e0e1461080357806342d65a8d1461082357806346fff98d1461084357806348288190146108635780634ac3f4ff1461087957600080fd5b806332cb6b0c1461074f5780633c115fa6146107965780633d8b38f6146107b65780633f1f4fa4146107d657600080fd5b80630df37483116103a757806322a3ecf91161037657806322a3ecf91461061857806323b872dd1461069b5780632a205e3d146106bb5780632a55205a146106f05780632cff67701461072f57600080fd5b80630df374831461057057806310ddb1371461059057806318160ddd146105b05780631df270f3146105f857600080fd5b806307e0db17116103ee57806307e0db17146104b8578063081812fc146104d8578063095ea7b31461051057806309af3f9a146105305780630b4cad4c1461055057600080fd5b80621d35671461041f57806301ffc9a71461044157806304634d8d1461047657806306fdde0314610496575b600080fd5b34801561042b57600080fd5b5061043f61043a366004614468565b610e92565b005b34801561044d57600080fd5b5061046161045c366004614511565b6110c3565b60405190151581526020015b60405180910390f35b34801561048257600080fd5b5061043f610491366004614565565b6110e3565b3480156104a257600080fd5b506104ab6110f9565b60405161046d91906145ea565b3480156104c457600080fd5b5061043f6104d33660046145fd565b61118b565b3480156104e457600080fd5b506104f86104f3366004614618565b611214565b6040516001600160a01b03909116815260200161046d565b34801561051c57600080fd5b5061043f61052b366004614631565b61123b565b34801561053c57600080fd5b5061043f61054b36600461465d565b611266565b34801561055c57600080fd5b5061043f61056b366004614618565b61129c565b34801561057c57600080fd5b5061043f61058b36600461467a565b61133c565b34801561059c57600080fd5b5061043f6105ab3660046145fd565b61135b565b3480156105bc57600080fd5b5060165461ffff9081167f000000000000000000000000000000000000000000000000000000000000000003165b60405190815260200161046d565b34801561060457600080fd5b506013546104f8906001600160a01b031681565b34801561062457600080fd5b5061066c610633366004614618565b600c6020526000908152604090208054600182015460029092015461ffff821692620100009092046001600160a01b0316919060ff1684565b6040805161ffff90951685526001600160a01b039093166020850152918301521515606082015260800161046d565b3480156106a757600080fd5b5061043f6106b6366004614696565b6113b3565b3480156106c757600080fd5b506106db6106d63660046147a8565b611416565b6040805192835260208301919091520161046d565b3480156106fc57600080fd5b5061071061070b36600461483a565b61143c565b604080516001600160a01b03909316835260208301919091520161046d565b34801561073b57600080fd5b5061043f61074a36600461465d565b6114ea565b34801561075b57600080fd5b506107837f000000000000000000000000000000000000000000000000000000000000000081565b60405161ffff909116815260200161046d565b3480156107a257600080fd5b5061043f6107b136600461485c565b611536565b3480156107c257600080fd5b506104616107d136600461489d565b61154c565b3480156107e257600080fd5b506105ea6107f13660046145fd565b60036020526000908152604090205481565b34801561080f57600080fd5b5061043f61081e366004614696565b611618565b34801561082f57600080fd5b5061043f61083e36600461489d565b611633565b34801561084f57600080fd5b5061043f61085e3660046148ef565b6116b9565b34801561086f57600080fd5b506105ea60095481565b34801561088557600080fd5b506105ea6108943660046145fd565b600a6020526000908152604090205481565b61043f6108b436600461490c565b611708565b3480156108c557600080fd5b5061043f6108d436600461485c565b61171f565b3480156108e557600080fd5b5061043f6108f43660046149c5565b611735565b34801561090557600080fd5b506105ea610914366004614a03565b6005602090815260009384526040808520845180860184018051928152908401958401959095209452929052825290205481565b34801561095457600080fd5b50610968610963366004614a9b565b611748565b60405161046d9190614b1d565b34801561098157600080fd5b506104f8610990366004614618565b6118b9565b3480156109a157600080fd5b5061043f6109b0366004614468565b611919565b3480156109c157600080fd5b506105ea6109d036600461465d565b6119f5565b3480156109e157600080fd5b5061043f611a7b565b3480156109f657600080fd5b5061043f610a053660046148ef565b611a8f565b348015610a1657600080fd5b506104ab610a253660046145fd565b611b15565b348015610a3657600080fd5b506105ea610a45366004614b30565b600260209081526000928352604080842090915290825290205481565b348015610a6e57600080fd5b506000546001600160a01b03166104f8565b348015610a8c57600080fd5b5061043f610a9b366004614b5a565b611baf565b348015610aac57600080fd5b5061043f610abb366004614b8f565b611bf7565b348015610acc57600080fd5b506004546104f8906001600160a01b031681565b348015610aec57600080fd5b506104ab611e3f565b348015610b0157600080fd5b5061043f610b1036600461467a565b611e4e565b348015610b2157600080fd5b506104ab610b303660046145fd565b611f05565b348015610b4157600080fd5b5061043f610b50366004614bc3565b61201b565b348015610b6157600080fd5b5061043f610b7036600461489d565b612041565b61043f610b83366004614c7a565b6120ca565b348015610b9457600080fd5b5061043f610ba336600461465d565b6120d9565b348015610bb457600080fd5b5060135461046190600160a81b900460ff1681565b348015610bd557600080fd5b50610783600181565b348015610bea57600080fd5b506104f87f000000000000000000000000000000000000000000000000000000000000000081565b348015610c1e57600080fd5b5061043f610c2d3660046148ef565b612103565b348015610c3e57600080fd5b5061043f610c4d366004614d2f565b612129565b348015610c5e57600080fd5b5061043f610c6d36600461465d565b61215b565b348015610c7e57600080fd5b506105ea61271081565b348015610c9457600080fd5b506104ab610ca3366004614618565b6121b1565b348015610cb457600080fd5b5061043f610cc3366004614d9a565b612241565b348015610cd457600080fd5b5061043f610ce336600461465d565b6122d6565b348015610cf457600080fd5b5061043f610d0336600461467a565b61232f565b61043f610d16366004614468565b6123df565b348015610d2757600080fd5b5061043f610d36366004614e08565b6125f5565b348015610d4757600080fd5b50610461610d56366004614e44565b61265f565b348015610d6757600080fd5b5061043f610d7636600461489d565b61268d565b348015610d8757600080fd5b506014546104f8906001600160a01b031681565b348015610da757600080fd5b50601554610dc59060ff81169061010090046001600160a01b031682565b6040805192151583526001600160a01b0390911660208301520161046d565b348015610df057600080fd5b506106db610dff366004614e72565b6126e7565b348015610e1057600080fd5b5061043f610e1f36600461465d565b6127b2565b348015610e3057600080fd5b506104ab610e3f366004614eef565b612828565b348015610e5057600080fd5b506105ea610e5f3660046145fd565b600b6020526000908152604090205481565b348015610e7d57600080fd5b5060135461046190600160a01b900460ff1681565b337f00000000000000000000000000000000000000000000000000000000000000006001600160a01b031614610f0f5760405162461bcd60e51b815260206004820152601e60248201527f4c7a4170703a20696e76616c696420656e64706f696e742063616c6c6572000060448201526064015b60405180910390fd5b61ffff861660009081526001602052604081208054610f2d90614f3c565b80601f0160208091040260200160405190810160405280929190818152602001828054610f5990614f3c565b8015610fa65780601f10610f7b57610100808354040283529160200191610fa6565b820191906000526020600020905b815481529060010190602001808311610f8957829003601f168201915b50505050509050805186869050148015610fc1575060008151115b8015610fe9575080516020820120604051610fdf9088908890614f76565b6040518091039020145b6110445760405162461bcd60e51b815260206004820152602660248201527f4c7a4170703a20696e76616c696420736f757263652073656e64696e6720636f6044820152651b9d1c9858dd60d21b6064820152608401610f06565b6110ba8787878080601f01602080910402602001604051908101604052809392919081815260200183838082843760009201919091525050604080516020601f8a018190048102820181019092528881528a9350915088908890819084018382808284376000920191909152506128db92505050565b50505050505050565b60006110ce82612954565b806110dd57506110dd82612971565b92915050565b6110eb6129a6565b6110f58282612a00565b5050565b6060600d805461110890614f3c565b80601f016020809104026020016040519081016040528092919081815260200182805461113490614f3c565b80156111815780601f1061115657610100808354040283529160200191611181565b820191906000526020600020905b81548152906001019060200180831161116457829003601f168201915b5050505050905090565b6111936129a6565b6040516307e0db1760e01b815261ffff821660048201527f00000000000000000000000000000000000000000000000000000000000000006001600160a01b0316906307e0db17906024015b600060405180830381600087803b1580156111f957600080fd5b505af115801561120d573d6000803e3d6000fd5b5050505050565b600061121f82612aba565b506000908152601160205260409020546001600160a01b031690565b81601354600160a01b900460ff16156112575761125781612b0a565b6112618383612b4e565b505050565b6013546001600160a01b031633146112905760405162461bcd60e51b8152600401610f0690614f86565b611299816127b2565b50565b6112a46129a6565b600081116113005760405162461bcd60e51b8152602060048201526024808201527f6d696e476173546f5472616e73666572416e6453746f7265206d7573742062656044820152630203e20360e41b6064820152608401610f06565b60098190556040518181527ffebbc4f8bb9ec2313950c718d43123124b15778efda4c1f1d529de2995b4f34d906020015b60405180910390a150565b6113446129a6565b61ffff909116600090815260036020526040902055565b6113636129a6565b6040516310ddb13760e01b815261ffff821660048201527f00000000000000000000000000000000000000000000000000000000000000006001600160a01b0316906310ddb137906024016111df565b826001600160a01b03811633146113df57601354600160a01b900460ff16156113df576113df33612b0a565b6113e833612c5e565b611405576040516326406c5f60e11b815260040160405180910390fd5b611410848484612ceb565b50505050565b60008061142e878761142788612d1d565b87876126e7565b915091509550959350505050565b60008281526007602090815260408083208151808301909252546001600160a01b038116808352600160a01b9091046001600160601b03169282019290925282916114b15750604080518082019091526006546001600160a01b0381168252600160a01b90046001600160601b031660208201525b6020810151600090612710906114d0906001600160601b031687614fe9565b6114da9190615016565b91519350909150505b9250929050565b6013546001600160a01b031633146115145760405162461bcd60e51b8152600401610f0690614f86565b601380546001600160a01b0319166001600160a01b0392909216919091179055565b61153e6129a6565b611018611261828483615070565b61ffff83166000908152600160205260408120805482919061156d90614f3c565b80601f016020809104026020016040519081016040528092919081815260200182805461159990614f3c565b80156115e65780601f106115bb576101008083540402835291602001916115e6565b820191906000526020600020905b8154815290600101906020018083116115c957829003601f168201915b5050505050905083836040516115fd929190614f76565b60405180910390208180519060200120149150509392505050565b61126183838360405180602001604052806000815250612129565b61163b6129a6565b6040516342d65a8d60e01b81526001600160a01b037f000000000000000000000000000000000000000000000000000000000000000016906342d65a8d9061168b90869086908690600401615158565b600060405180830381600087803b1580156116a557600080fd5b505af11580156110ba573d6000803e3d6000fd5b6116c16129a6565b6014546001600160a01b03166116ea57604051630e048e7160e41b815260040160405180910390fd5b60138054911515600160a81b0260ff60a81b19909216919091179055565b6110ba87878761171788612d1d565b878787612d68565b6117276129a6565b611017611261828483615070565b61173d6129a6565b611261838383612f3c565b6040805180820190915260155460ff811615158083526101009091046001600160a01b031660208301526060919061179357604051630871f9a360e21b815260040160405180910390fd5b80602001516001600160a01b0316336001600160a01b0316146117c95760405163d8546cf160e01b815260040160405180910390fd5b826000816001600160401b038111156117e4576117e46146d7565b60405190808252806020026020018201604052801561180d578160200160208202803683370190505b50905060005b828110156118ae57600087878381811061182f5761182f615176565b9050602002013590506000611842613007565b905061184e8a826131d5565b81818b6001600160a01b03167f39c105f6871f6c13c1c0e10a860d431ef1ad2c99705e6254081b2bc54c38b6b560405160405180910390a48084848151811061189957611899615176565b60209081029190910101525050600101611813565b509695505050505050565b6000818152600f60205260408120546001600160a01b0316806110dd5760405162461bcd60e51b8152602060048201526018602482015277115490cdcc8c4e881a5b9d985b1a59081d1bdad95b88125160421b6044820152606401610f06565b3330146119775760405162461bcd60e51b815260206004820152602660248201527f4e6f6e626c6f636b696e674c7a4170703a2063616c6c6572206d7573742062656044820152650204c7a4170760d41b6064820152608401610f06565b6119ed8686868080601f01602080910402602001604051908101604052809392919081815260200183838082843760009201919091525050604080516020601f89018190048102820181019092528781528993509150879087908190840183828082843760009201919091525061334292505050565b505050505050565b60006001600160a01b038216611a5f5760405162461bcd60e51b815260206004820152602960248201527f4552433732313a2061646472657373207a65726f206973206e6f7420612076616044820152683634b21037bbb732b960b91b6064820152608401610f06565b506001600160a01b031660009081526010602052604090205490565b611a836129a6565b611a8d6000613499565b565b611a976129a6565b60155461010090046001600160a01b031680611ac657604051636d245ccd60e01b815260040160405180910390fd5b604080518082019091529115158083526001600160a01b03909116602090920182905260158054610100909302610100600160a81b03199092166001600160a81b031990931692909217179055565b60016020526000908152604090208054611b2e90614f3c565b80601f0160208091040260200160405190810160405280929190818152602001828054611b5a90614f3c565b8015611ba75780601f10611b7c57610100808354040283529160200191611ba7565b820191906000526020600020905b815481529060010190602001808311611b8a57829003601f168201915b505050505081565b611bb76129a6565b60005b8181101561126157611bef838383818110611bd757611bd7615176565b905060200201356110196134e990919063ffffffff16565b600101611bba565b611bff613512565b80516020808301919091206000818152600c90925260409091206002015460ff16611c605760405162461bcd60e51b81526020600482015260116024820152701b9bc818dc99591a5d1cc81cdd1bdc9959607a1b6044820152606401610f06565b600082806020019051810190611c7691906151d1565b6000848152600c602052604081208054600190910154929450909250611cb29161ffff8216916201000090046001600160a01b0316908561356b565b6000848152600c60205260409020600101549091508111611d275760405162461bcd60e51b815260206004820152602960248201527f6e6f7420656e6f7567682067617320746f2070726f6365737320637265646974604482015268103a3930b739b332b960b91b6064820152608401610f06565b81518103611d9e576000838152600c602052604080822080546001600160b01b031916815560018101929092556002909101805460ff19169055517fd7be02b8dd0d27bd0517a9cb4d7469ce27df4313821ae5ec1ff69acc594ba23390611d919085815260200190565b60405180910390a1611e32565b604080516080810182526000858152600c6020818152848320805461ffff80821687526001600160a01b03620100008084048216868a019081529989018b8152600160608b01818152998f90529790965297519851169096026001600160b01b03199091169690951695909517939093178455915191830191909155516002909101805491151560ff199092169190911790555b5050506112996001600855565b6060600e805461110890614f3c565b611e566129a6565b60008111611eb15760405162461bcd60e51b815260206004820152602260248201527f647374436861696e4964546f42617463684c696d6974206d757374206265203e604482015261020360f41b6064820152608401610f06565b61ffff82166000818152600a6020908152604091829020849055815192835282018390527f7315f7654d594ead24a30160ed9ba2d23247f543016b918343591e93d7afdb6d91015b60405180910390a15050565b61ffff8116600090815260016020526040812080546060929190611f2890614f3c565b80601f0160208091040260200160405190810160405280929190818152602001828054611f5490614f3c565b8015611fa15780601f10611f7657610100808354040283529160200191611fa1565b820191906000526020600020905b815481529060010190602001808311611f8457829003601f168201915b505050505090508051600003611ff95760405162461bcd60e51b815260206004820152601d60248201527f4c7a4170703a206e6f20747275737465642070617468207265636f72640000006044820152606401610f06565b61201460006014835161200c919061528b565b8391906135b7565b9392505050565b81601354600160a01b900460ff16156120375761203781612b0a565b61126183836136c4565b6120496129a6565b81813060405160200161205e9392919061529e565b60408051601f1981840301815291815261ffff851660009081526001602052209061208990826152c4565b507f8c0400cfe2d1199b1a725c78960bcc2a344d869b80590d0f2bd005db15a572ce8383836040516120bd93929190615158565b60405180910390a1505050565b6110ba87878787878787612d68565b6120e16129a6565b601480546001600160a01b0319166001600160a01b0392909216919091179055565b61210b6129a6565b60138054911515600160a01b0260ff60a01b19909216919091179055565b61213333836136cf565b61214f5760405162461bcd60e51b8152600401610f0690615383565b6114108484848461372d565b6121636129a6565b600480546001600160a01b0319166001600160a01b0383169081179091556040519081527f5db758e995a17ec1ad84bdef7e8c3293a0bd6179bcce400dff5d4c3d87db726b90602001611331565b606060006121be836118b9565b6001600160a01b0316036121e5576040516307ed98ed60e31b815260040160405180910390fd5b60006121f083613760565b905060008151116122105760405180602001604052806000815250612014565b8061221a84613820565b60405160200161222b9291906153d0565b6040516020818303038152906040529392505050565b6122496129a6565b6040516332fb62e760e21b81526001600160a01b037f0000000000000000000000000000000000000000000000000000000000000000169063cbed8b9c9061229d90889088908890889088906004016153ff565b600060405180830381600087803b1580156122b757600080fd5b505af11580156122cb573d6000803e3d6000fd5b505050505050505050565b6122de6129a6565b604080518082019091526015805460ff811615158084526001600160a01b039490941660209093018390526001600160a81b031916610100600160a81b031990931692909217610100909102179055565b6123376129a6565b600081116123935760405162461bcd60e51b815260206004820152602360248201527f647374436861696e4964546f5472616e73666572476173206d7573742062652060448201526203e20360ec1b6064820152608401610f06565b61ffff82166000818152600b6020908152604091829020849055815192835282018390527fc46df2983228ac2d9754e94a0d565e6671665dc8ad38602bc8e544f0685a29fb9101611ef9565b61ffff861660009081526005602052604080822090516124029088908890614f76565b90815260408051602092819003830190206001600160401b038716600090815292529020549050806124825760405162461bcd60e51b815260206004820152602360248201527f4e6f6e626c6f636b696e674c7a4170703a206e6f2073746f726564206d65737360448201526261676560e81b6064820152608401610f06565b808383604051612493929190614f76565b6040518091039020146124f25760405162461bcd60e51b815260206004820152602160248201527f4e6f6e626c6f636b696e674c7a4170703a20696e76616c6964207061796c6f616044820152601960fa1b6064820152608401610f06565b61ffff871660009081526005602052604080822090516125159089908990614f76565b90815260408051602092819003830181206001600160401b038916600090815290845282902093909355601f880182900482028301820190528682526125ad918991899089908190840183828082843760009201919091525050604080516020601f8a018190048102820181019092528881528a93509150889088908190840183828082843760009201919091525061334292505050565b7fc264d91f3adc5588250e1551f547752ca0cfa8f6b530d243b9f9f4cab10ea8e587878787856040516125e4959493929190615438565b60405180910390a150505050505050565b6125fd6129a6565b61ffff83811660008181526002602090815260408083209487168084529482529182902085905581519283528201929092529081018290527f9d5c7c0b934da8fefa9c7760c98383778a12dfbfc0c3b3106518f43fb9508ac0906060016120bd565b6001600160a01b03918216600090815260126020908152604080832093909416825291909152205460ff1690565b6126956129a6565b61ffff831660009081526001602052604090206126b3828483615070565b507ffa41487ad5d6728f0b19276fa1eddc16558578f5109fc39d2dc33c3230470dab8383836040516120bd93929190615158565b600080600086866040516020016126ff929190615473565b60408051601f198184030181529082905263040a7bb160e41b825291506001600160a01b037f000000000000000000000000000000000000000000000000000000000000000016906340a7bb1090612763908b90309086908b908b906004016154a1565b6040805180830381865afa15801561277f573d6000803e3d6000fd5b505050506040513d601f19601f820116820180604052508101906127a391906154f5565b92509250509550959350505050565b6127ba6129a6565b6001600160a01b03811661281f5760405162461bcd60e51b815260206004820152602660248201527f4f776e61626c653a206e6577206f776e657220697320746865207a65726f206160448201526564647265737360d01b6064820152608401610f06565b61129981613499565b604051633d7b2f6f60e21b815261ffff808616600483015284166024820152306044820152606481018290526060907f00000000000000000000000000000000000000000000000000000000000000006001600160a01b03169063f5ecbdbc90608401600060405180830381865afa1580156128a8573d6000803e3d6000fd5b505050506040513d6000823e601f3d908101601f191682016040526128d09190810190615519565b90505b949350505050565b60008061293e5a60966366ad5c8a60e01b89898989604051602401612903949392919061554d565b60408051601f198184030181529190526020810180516001600160e01b03166001600160e01b031990931692909217909152309291906138b2565b91509150816119ed576119ed868686868561393c565b60006001600160e01b0319821615806110dd57506110dd826139d9565b60006001600160e01b0319821663152a902d60e11b14806110dd57506301ffc9a760e01b6001600160e01b03198316146110dd565b6000546001600160a01b03163314611a8d5760405162461bcd60e51b815260206004820181905260248201527f4f776e61626c653a2063616c6c6572206973206e6f7420746865206f776e65726044820152606401610f06565b6127106001600160601b0382161115612a2b5760405162461bcd60e51b8152600401610f069061558b565b6001600160a01b038216612a815760405162461bcd60e51b815260206004820152601960248201527f455243323938313a20696e76616c6964207265636569766572000000000000006044820152606401610f06565b604080518082019091526001600160a01b039092168083526001600160601b039091166020909201829052600160a01b90910217600655565b612ac381613a19565b6112995760405162461bcd60e51b8152602060048201526018602482015277115490cdcc8c4e881a5b9d985b1a59081d1bdad95b88125160421b6044820152606401610f06565b69c617113400112233445560005230601a5280603a52600080604460166daaeb6d7670e522a718067333cd4e5afa612b46573d6000803e3d6000fd5b6000603a5250565b6000612b59826118b9565b9050806001600160a01b0316836001600160a01b031603612bc65760405162461bcd60e51b815260206004820152602160248201527f4552433732313a20617070726f76616c20746f2063757272656e74206f776e656044820152603960f91b6064820152608401610f06565b336001600160a01b0382161480612be25750612be2813361265f565b612c545760405162461bcd60e51b815260206004820152603d60248201527f4552433732313a20617070726f76652063616c6c6572206973206e6f7420746f60448201527f6b656e206f776e6572206f7220617070726f76656420666f7220616c6c0000006064820152608401610f06565b6112618383613a36565b601354600090600160a81b900460ff1615612ce3576014546040516370c5e04560e11b81526001600160a01b03848116600483015290911690819063e18bc08a90602401602060405180830381865afa158015612cbf573d6000803e3d6000fd5b505050506040513d601f19601f8201168201806040525081019061201491906155d5565b506001919050565b612cf6335b826136cf565b612d125760405162461bcd60e51b8152600401610f0690615383565b611261838383613aa4565b60408051600180825281830190925260609160009190602080830190803683370190505090508281600081518110612d5757612d57615176565b602090810291909101015292915050565b6000845111612daf5760405162461bcd60e51b8152602060048201526013602482015272746f6b656e4964735b5d20697320656d70747960681b6044820152606401610f06565b835160011480612dd3575061ffff86166000908152600a6020526040902054845111155b612e2a5760405162461bcd60e51b815260206004820152602260248201527f62617463682073697a65206578636565647320647374206261746368206c696d6044820152611a5d60f21b6064820152608401610f06565b60005b8451811015612e6d57612e5b888888888581518110612e4e57612e4e615176565b6020026020010151613c08565b80612e65816155f2565b915050612e2d565b5060008585604051602001612e83929190615473565b6040516020818303038152906040529050612ec8876001848851600b60008d61ffff1661ffff16815260200190815260200160002054612ec39190614fe9565b613cf3565b612ed6878286868634613dc8565b85604051612ee4919061560b565b6040518091039020886001600160a01b03168861ffff167fe1b87c47fdeb4f9cbadbca9df3af7aba453bb6e501075d0440d88125b711522a88604051612f2a9190614b1d565b60405180910390a45050505050505050565b6127106001600160601b0382161115612f675760405162461bcd60e51b8152600401610f069061558b565b6001600160a01b038216612fbd5760405162461bcd60e51b815260206004820152601b60248201527f455243323938313a20496e76616c696420706172616d657465727300000000006044820152606401610f06565b6040805180820182526001600160a01b0393841681526001600160601b0392831660208083019182526000968752600790529190942093519051909116600160a01b029116179055565b60165460009061ffff168082036130315760405163aeb0cc9b60e01b815260040160405180910390fd5b600061303c82613f6d565b9050600061304a8383615627565b9050600060178262010000811061306357613063615176565b601091828204019190066002029054906101000a900461ffff1661ffff169050600081600003613094575081613097565b50805b60006130a460018761528b565b905080841461319b5760006017826201000081106130c4576130c4615176565b601091828204019190066002029054906101000a900461ffff1661ffff1690508060000361312c578160178662010000811061310257613102615176565b601091828204019190066002026101000a81548161ffff021916908361ffff160217905550613199565b8060178662010000811061314257613142615176565b601091828204019190066002026101000a81548161ffff021916908361ffff16021790555060178262010000811061317c5761317c615176565b601091828204019190066002026101000a81549061ffff02191690555b505b601680546000906131af9061ffff1661563b565b91906101000a81548161ffff021916908361ffff16021790555081965050505050505090565b6001600160a01b03821661322b5760405162461bcd60e51b815260206004820181905260248201527f4552433732313a206d696e7420746f20746865207a65726f20616464726573736044820152606401610f06565b61323481613a19565b156132815760405162461bcd60e51b815260206004820152601c60248201527f4552433732313a20746f6b656e20616c7265616479206d696e746564000000006044820152606401610f06565b61328a81613a19565b156132d75760405162461bcd60e51b815260206004820152601c60248201527f4552433732313a20746f6b656e20616c7265616479206d696e746564000000006044820152606401610f06565b6001600160a01b038216600081815260106020908152604080832080546001019055848352600f90915280822080546001600160a01b0319168417905551839291907fddf252ad1be2c89b69c2b068fc378daa952ba7f163c4a11628f55a4df523b3ef908290a45050565b6000808280602001905181019061335991906151d1565b6014820151919350915060006133718883838661356b565b905082518110156134455784516020808701919091206040805160808101825261ffff808d1682526001600160a01b038088168387019081528385018881526001606086018181526000898152600c909a529887902095518654935190941662010000026001600160b01b03199093169390941692909217178355519082015592516002909301805493151560ff199094169390931790925590517f10e0b70d256bccc84b7027506978bd8b68984a870788b93b479def144c839ad79061343b9083908990615659565b60405180910390a1505b816001600160a01b03168760405161345d919061560b565b60405180910390208961ffff167f5b821db8a46f8ecbe1941ba2f51cfeea9643268b56631f70d45e2a745d99026586604051612f2a9190614b1d565b600080546001600160a01b038381166001600160a01b0319831681178455604051919092169283917f8be0079c531659141344cd1fd0a4f28419497f9722a3daafe3b4186f6b6457e09190a35050565b600881901c600090815260209290925260409091208054600160ff9093169290921b9091179055565b6002600854036135645760405162461bcd60e51b815260206004820152601f60248201527f5265656e7472616e637947756172643a207265656e7472616e742063616c6c006044820152606401610f06565b6002600855565b6000825b82518110156128d0576009545a106128d0576135a5868685848151811061359857613598615176565b6020026020010151613fbb565b806135af816155f2565b91505061356f565b6060816135c581601f615672565b10156136045760405162461bcd60e51b815260206004820152600e60248201526d736c6963655f6f766572666c6f7760901b6044820152606401610f06565b61360e8284615672565b845110156136525760405162461bcd60e51b8152602060048201526011602482015270736c6963655f6f75744f66426f756e647360781b6044820152606401610f06565b60608215801561367157604051915060008252602082016040526136bb565b6040519150601f8416801560200281840101858101878315602002848b0101015b818310156136aa578051835260209283019201613692565b5050858452601f01601f1916604052505b50949350505050565b6110f533838361401b565b6000806136db836118b9565b9050806001600160a01b0316846001600160a01b031614806137025750613702818561265f565b806128d35750836001600160a01b031661371b84611214565b6001600160a01b031614949350505050565b613738848484613aa4565b613744848484846140e9565b6114105760405162461bcd60e51b8152600401610f0690615685565b600881901c60009081526110196020526040902054606090600160ff84161b1661378c57611017613790565b6110185b805461379b90614f3c565b80601f01602080910402602001604051908101604052809291908181526020018280546137c790614f3c565b80156138145780601f106137e957610100808354040283529160200191613814565b820191906000526020600020905b8154815290600101906020018083116137f757829003601f168201915b50505050509050919050565b6060600061382d836141e7565b60010190506000816001600160401b0381111561384c5761384c6146d7565b6040519080825280601f01601f191660200182016040528015613876576020820181803683370190505b5090508181016020015b600019016f181899199a1a9b1b9c1cb0b131b232b360811b600a86061a8153600a850494508461388057509392505050565b6000606060008060008661ffff166001600160401b038111156138d7576138d76146d7565b6040519080825280601f01601f191660200182016040528015613901576020820181803683370190505b50905060008087516020890160008d8df191503d925086831115613923578692505b828152826000602083013e909890975095505050505050565b8180519060200120600560008761ffff1661ffff1681526020019081526020016000208560405161396d919061560b565b9081526040805191829003602090810183206001600160401b0388166000908152915220919091557fe183f33de2837795525b4792ca4cd60535bd77c53b7e7030060bfcf5734d6b0c906139ca90879087908790879087906156d7565b60405180910390a15050505050565b60006001600160e01b031982166380ac58cd60e01b1480613a0a57506001600160e01b03198216635b5e139f60e01b145b806110dd57506110dd826142bf565b6000908152600f60205260409020546001600160a01b0316151590565b600081815260116020526040902080546001600160a01b0319166001600160a01b0384169081179091558190613a6b826118b9565b6001600160a01b03167f8c5be1e5ebec7d5bd14f71427d1e84f3dd0314c0f7b2291e5b200ac8c7c3b92560405160405180910390a45050565b826001600160a01b0316613ab7826118b9565b6001600160a01b031614613add5760405162461bcd60e51b8152600401610f0690615729565b6001600160a01b038216613b3f5760405162461bcd60e51b8152602060048201526024808201527f4552433732313a207472616e7366657220746f20746865207a65726f206164646044820152637265737360e01b6064820152608401610f06565b826001600160a01b0316613b52826118b9565b6001600160a01b031614613b785760405162461bcd60e51b8152600401610f0690615729565b600081815260116020908152604080832080546001600160a01b03199081169091556001600160a01b0387811680865260108552838620805460001901905590871680865283862080546001019055868652600f90945282852080549092168417909155905184937fddf252ad1be2c89b69c2b068fc378daa952ba7f163c4a11628f55a4df523b3ef91a4505050565b613c1133612cf0565b613c745760405162461bcd60e51b815260206004820152602e60248201527f4f4e46543732313a2073656e642063616c6c6572206973206e6f74206f776e6560448201526d1c881b9bdc88185c1c1c9bdd995960921b6064820152608401610f06565b836001600160a01b0316613c87826118b9565b6001600160a01b031614613ce85760405162461bcd60e51b815260206004820152602260248201527f4f4e46543732313a2073656e642066726f6d20696e636f7272656374206f776e60448201526132b960f11b6064820152608401610f06565b611410843083613aa4565b6000613cfe836142e4565b61ffff80871660009081526002602090815260408083209389168352929052205490915080613d6f5760405162461bcd60e51b815260206004820152601a60248201527f4c7a4170703a206d696e4761734c696d6974206e6f74207365740000000000006044820152606401610f06565b613d798382615672565b8210156119ed5760405162461bcd60e51b815260206004820152601b60248201527f4c7a4170703a20676173206c696d697420697320746f6f206c6f7700000000006044820152606401610f06565b61ffff861660009081526001602052604081208054613de690614f3c565b80601f0160208091040260200160405190810160405280929190818152602001828054613e1290614f3c565b8015613e5f5780601f10613e3457610100808354040283529160200191613e5f565b820191906000526020600020905b815481529060010190602001808311613e4257829003601f168201915b505050505090508051600003613ed05760405162461bcd60e51b815260206004820152603060248201527f4c7a4170703a2064657374696e6174696f6e20636861696e206973206e6f742060448201526f61207472757374656420736f7572636560801b6064820152608401610f06565b613edb878751614340565b60405162c5803160e81b81526001600160a01b037f0000000000000000000000000000000000000000000000000000000000000000169063c5803100908490613f32908b9086908c908c908c908c9060040161576e565b6000604051808303818588803b158015613f4b57600080fd5b505af1158015613f5f573d6000803e3d6000fd5b505050505050505050505050565b600044613f7b60014361528b565b6040805160208101939093529040908201523060608201526080810183905260a00160408051601f19818403018152919052805160209091012092915050565b613fc481613a19565b1580613ff05750613fd481613a19565b8015613ff0575030613fe5826118b9565b6001600160a01b0316145b613ff957600080fd5b61400281613a19565b6140105761126182826143b1565b611261308383613aa4565b816001600160a01b0316836001600160a01b03160361407c5760405162461bcd60e51b815260206004820152601960248201527f4552433732313a20617070726f766520746f2063616c6c6572000000000000006044820152606401610f06565b6001600160a01b03838116600081815260126020908152604080832094871680845294825291829020805460ff191686151590811790915591519182527f17307eab39ab6107e8899845ad3d59bd9653f200f220920489ca2b5937696c31910160405180910390a3505050565b60006001600160a01b0384163b156141df57604051630a85bd0160e11b81526001600160a01b0385169063150b7a029061412d9033908990889088906004016157d5565b6020604051808303816000875af1925050508015614168575060408051601f3d908101601f1916820190925261416591810190615812565b60015b6141c5573d808015614196576040519150601f19603f3d011682016040523d82523d6000602084013e61419b565b606091505b5080516000036141bd5760405162461bcd60e51b8152600401610f0690615685565b805181602001fd5b6001600160e01b031916630a85bd0160e11b1490506128d3565b5060016128d3565b60008072184f03e93ff9f4daa797ed6e38ed64bf6a1f0160401b83106142265772184f03e93ff9f4daa797ed6e38ed64bf6a1f0160401b830492506040015b6d04ee2d6d415b85acef81000000008310614252576d04ee2d6d415b85acef8100000000830492506020015b662386f26fc10000831061427057662386f26fc10000830492506010015b6305f5e1008310614288576305f5e100830492506008015b612710831061429c57612710830492506004015b606483106142ae576064830492506002015b600a83106110dd5760010192915050565b60006001600160e01b031982166322bac5d960e01b14806110dd57506110dd82612971565b60006022825110156143385760405162461bcd60e51b815260206004820152601c60248201527f4c7a4170703a20696e76616c69642061646170746572506172616d73000000006044820152606401610f06565b506022015190565b61ffff82166000908152600360205260408120549081900361436157506127105b808211156112615760405162461bcd60e51b815260206004820181905260248201527f4c7a4170703a207061796c6f61642073697a6520697320746f6f206c617267656044820152606401610f06565b6110f58282604051806020016040528060008152506143d083836131d5565b6143dd60008484846140e9565b6112615760405162461bcd60e51b8152600401610f0690615685565b803561ffff8116811461440b57600080fd5b919050565b60008083601f84011261442257600080fd5b5081356001600160401b0381111561443957600080fd5b6020830191508360208285010111156114e357600080fd5b80356001600160401b038116811461440b57600080fd5b6000806000806000806080878903121561448157600080fd5b61448a876143f9565b955060208701356001600160401b03808211156144a657600080fd5b6144b28a838b01614410565b90975095508591506144c660408a01614451565b945060608901359150808211156144dc57600080fd5b506144e989828a01614410565b979a9699509497509295939492505050565b6001600160e01b03198116811461129957600080fd5b60006020828403121561452357600080fd5b8135612014816144fb565b6001600160a01b038116811461129957600080fd5b803561440b8161452e565b80356001600160601b038116811461440b57600080fd5b6000806040838503121561457857600080fd5b82356145838161452e565b91506145916020840161454e565b90509250929050565b60005b838110156145b557818101518382015260200161459d565b50506000910152565b600081518084526145d681602086016020860161459a565b601f01601f19169290920160200192915050565b60208152600061201460208301846145be565b60006020828403121561460f57600080fd5b612014826143f9565b60006020828403121561462a57600080fd5b5035919050565b6000806040838503121561464457600080fd5b823561464f8161452e565b946020939093013593505050565b60006020828403121561466f57600080fd5b81356120148161452e565b6000806040838503121561468d57600080fd5b61464f836143f9565b6000806000606084860312156146ab57600080fd5b83356146b68161452e565b925060208401356146c68161452e565b929592945050506040919091013590565b634e487b7160e01b600052604160045260246000fd5b604051601f8201601f191681016001600160401b0381118282101715614715576147156146d7565b604052919050565b60006001600160401b03821115614736576147366146d7565b50601f01601f191660200190565b600082601f83011261475557600080fd5b81356147686147638261471d565b6146ed565b81815284602083860101111561477d57600080fd5b816020850160208301376000918101602001919091529392505050565b801515811461129957600080fd5b600080600080600060a086880312156147c057600080fd5b6147c9866143f9565b945060208601356001600160401b03808211156147e557600080fd5b6147f189838a01614744565b9550604088013594506060880135915061480a8261479a565b9092506080870135908082111561482057600080fd5b5061482d88828901614744565b9150509295509295909350565b6000806040838503121561484d57600080fd5b50508035926020909101359150565b6000806020838503121561486f57600080fd5b82356001600160401b0381111561488557600080fd5b61489185828601614410565b90969095509350505050565b6000806000604084860312156148b257600080fd5b6148bb846143f9565b925060208401356001600160401b038111156148d657600080fd5b6148e286828701614410565b9497909650939450505050565b60006020828403121561490157600080fd5b81356120148161479a565b600080600080600080600060e0888a03121561492757600080fd5b87356149328161452e565b9650614940602089016143f9565b955060408801356001600160401b038082111561495c57600080fd5b6149688b838c01614744565b965060608a0135955060808a013591506149818261452e565b90935060a0890135906149938261452e565b90925060c089013590808211156149a957600080fd5b506149b68a828b01614744565b91505092959891949750929550565b6000806000606084860312156149da57600080fd5b8335925060208401356149ec8161452e565b91506149fa6040850161454e565b90509250925092565b600080600060608486031215614a1857600080fd5b614a21846143f9565b925060208401356001600160401b03811115614a3c57600080fd5b614a4886828701614744565b9250506149fa60408501614451565b60008083601f840112614a6957600080fd5b5081356001600160401b03811115614a8057600080fd5b6020830191508360208260051b85010111156114e357600080fd5b600080600060408486031215614ab057600080fd5b8335614abb8161452e565b925060208401356001600160401b03811115614ad657600080fd5b6148e286828701614a57565b600081518084526020808501945080840160005b83811015614b1257815187529582019590820190600101614af6565b509495945050505050565b6020815260006120146020830184614ae2565b60008060408385031215614b4357600080fd5b614b4c836143f9565b9150614591602084016143f9565b60008060208385031215614b6d57600080fd5b82356001600160401b03811115614b8357600080fd5b61489185828601614a57565b600060208284031215614ba157600080fd5b81356001600160401b03811115614bb757600080fd5b6128d384828501614744565b60008060408385031215614bd657600080fd5b8235614be18161452e565b91506020830135614bf18161479a565b809150509250929050565b60006001600160401b03821115614c1557614c156146d7565b5060051b60200190565b600082601f830112614c3057600080fd5b81356020614c4061476383614bfc565b82815260059290921b84018101918181019086841115614c5f57600080fd5b8286015b848110156118ae5780358352918301918301614c63565b600080600080600080600060e0888a031215614c9557600080fd5b8735614ca08161452e565b9650614cae602089016143f9565b955060408801356001600160401b0380821115614cca57600080fd5b614cd68b838c01614744565b965060608a0135915080821115614cec57600080fd5b614cf88b838c01614c1f565b955060808a01359150614d0a8261452e565b819450614d1960a08b01614543565b935060c08a01359150808211156149a957600080fd5b60008060008060808587031215614d4557600080fd5b8435614d508161452e565b93506020850135614d608161452e565b92506040850135915060608501356001600160401b03811115614d8257600080fd5b614d8e87828801614744565b91505092959194509250565b600080600080600060808688031215614db257600080fd5b614dbb866143f9565b9450614dc9602087016143f9565b93506040860135925060608601356001600160401b03811115614deb57600080fd5b614df788828901614410565b969995985093965092949392505050565b600080600060608486031215614e1d57600080fd5b614e26846143f9565b9250614e34602085016143f9565b9150604084013590509250925092565b60008060408385031215614e5757600080fd5b8235614e628161452e565b91506020830135614bf18161452e565b600080600080600060a08688031215614e8a57600080fd5b614e93866143f9565b945060208601356001600160401b0380821115614eaf57600080fd5b614ebb89838a01614744565b95506040880135915080821115614ed157600080fd5b614edd89838a01614c1f565b94506060880135915061480a8261479a565b60008060008060808587031215614f0557600080fd5b614f0e856143f9565b9350614f1c602086016143f9565b92506040850135614f2c8161452e565b9396929550929360600135925050565b600181811c90821680614f5057607f821691505b602082108103614f7057634e487b7160e01b600052602260045260246000fd5b50919050565b8183823760009101908152919050565b6020808252602d908201527f4d756c74697369674f776e61626c653a2063616c6c6572206973206e6f74207460408201526c3432903932b0b61037bbb732b960991b606082015260800190565b634e487b7160e01b600052601160045260246000fd5b80820281158282048414176110dd576110dd614fd3565b634e487b7160e01b600052601260045260246000fd5b60008261502557615025615000565b500490565b601f82111561126157600081815260208120601f850160051c810160208610156150515750805b601f850160051c820191505b818110156119ed5782815560010161505d565b6001600160401b03831115615087576150876146d7565b61509b836150958354614f3c565b8361502a565b6000601f8411600181146150cf57600085156150b75750838201355b600019600387901b1c1916600186901b17835561120d565b600083815260209020601f19861690835b8281101561510057868501358255602094850194600190920191016150e0565b508682101561511d5760001960f88860031b161c19848701351681555b505060018560011b0183555050505050565b81835281816020850137506000828201602090810191909152601f909101601f19169091010190565b61ffff841681526040602082015260006128d060408301848661512f565b634e487b7160e01b600052603260045260246000fd5b600082601f83011261519d57600080fd5b81516151ab6147638261471d565b8181528460208386010111156151c057600080fd5b6128d382602083016020870161459a565b600080604083850312156151e457600080fd5b82516001600160401b03808211156151fb57600080fd5b6152078683870161518c565b935060209150818501518181111561521e57600080fd5b85019050601f8101861361523157600080fd5b805161523f61476382614bfc565b81815260059190911b8201830190838101908883111561525e57600080fd5b928401925b8284101561527c57835182529284019290840190615263565b80955050505050509250929050565b818103818111156110dd576110dd614fd3565b8284823760609190911b6bffffffffffffffffffffffff19169101908152601401919050565b81516001600160401b038111156152dd576152dd6146d7565b6152f1816152eb8454614f3c565b8461502a565b602080601f831160018114615326576000841561530e5750858301515b600019600386901b1c1916600185901b1785556119ed565b600085815260208120601f198616915b8281101561535557888601518255948401946001909101908401615336565b50858210156153735787850151600019600388901b60f8161c191681555b5050505050600190811b01905550565b6020808252602d908201527f4552433732313a2063616c6c6572206973206e6f7420746f6b656e206f776e6560408201526c1c881bdc88185c1c1c9bdd9959609a1b606082015260800190565b600083516153e281846020880161459a565b8351908301906153f681836020880161459a565b01949350505050565b600061ffff80881683528087166020840152508460408301526080606083015261542d60808301848661512f565b979650505050505050565b61ffff8616815260806020820152600061545660808301868861512f565b6001600160401b0394909416604083015250606001529392505050565b60408152600061548660408301856145be565b82810360208401526154988185614ae2565b95945050505050565b61ffff861681526001600160a01b038516602082015260a0604082018190526000906154cf908301866145be565b841515606084015282810360808401526154e981856145be565b98975050505050505050565b6000806040838503121561550857600080fd5b505080516020909101519092909150565b60006020828403121561552b57600080fd5b81516001600160401b0381111561554157600080fd5b6128d38482850161518c565b61ffff8516815260806020820152600061556a60808301866145be565b6001600160401b0385166040840152828103606084015261542d81856145be565b6020808252602a908201527f455243323938313a20726f79616c7479206665652077696c6c206578636565646040820152692073616c65507269636560b01b606082015260800190565b6000602082840312156155e757600080fd5b81516120148161479a565b60006001820161560457615604614fd3565b5060010190565b6000825161561d81846020870161459a565b9190910192915050565b60008261563657615636615000565b500690565b600061ffff82168061564f5761564f614fd3565b6000190192915050565b8281526040602082015260006128d360408301846145be565b808201808211156110dd576110dd614fd3565b60208082526032908201527f4552433732313a207472616e7366657220746f206e6f6e20455243373231526560408201527131b2b4bb32b91034b6b83632b6b2b73a32b960711b606082015260800190565b61ffff8616815260a0602082015260006156f460a08301876145be565b6001600160401b0386166040840152828103606084015261571581866145be565b905082810360808401526154e981856145be565b60208082526025908201527f4552433732313a207472616e736665722066726f6d20696e636f72726563742060408201526437bbb732b960d91b606082015260800190565b61ffff8716815260c06020820152600061578b60c08301886145be565b828103604084015261579d81886145be565b6001600160a01b0387811660608601528616608085015283810360a085015290506157c881856145be565b9998505050505050505050565b6001600160a01b0385811682528416602082015260408101839052608060608201819052600090615808908301846145be565b9695505050505050565b60006020828403121561582457600080fd5b8151612014816144fb56fea26469706673582212203c5c8eb366de92285ba196a4038dc170f8b831e2baad26ebcb998374ecbff11d64736f6c63430008120033",
  "devdoc": {
    "events": {
      "Approval(address,address,uint256)": {
        "details": "Emitted when `owner` enables `approved` to manage the `tokenId` token."
      },
      "ApprovalForAll(address,address,bool)": {
        "details": "Emitted when `owner` enables or disables (`approved`) `operator` to manage all of its assets."
      },
      "CreditCleared(bytes32)": {
        "details": "Emitted when `_hashedPayload` has been completely delivered"
      },
      "CreditStored(bytes32,bytes)": {
        "details": "Emitted when `_payload` was received from lz, but not enough gas to deliver all tokenIds"
      },
      "SendToChain(uint16,address,bytes,uint256[])": {
        "details": "Emitted when `_tokenIds[]` are moved from the `_sender` to (`_dstChainId`, `_toAddress`) `_nonce` is the outbound nonce from"
      },
      "Transfer(address,address,uint256)": {
        "details": "Emitted when `tokenId` token is transferred from `from` to `to`."
      }
    },
    "kind": "dev",
    "methods": {
      "balanceOf(address)": {
        "details": "See {IERC721-balanceOf}."
      },
      "estimateSendBatchFee(uint16,bytes,uint256[],bool,bytes)": {
        "details": "estimate send token `_tokenId` to (`_dstChainId`, `_toAddress`) _dstChainId - L0 defined chain id to send tokens too _toAddress - dynamic bytes array which contains the address to whom you are sending tokens to on the dstChain _tokenIds[] - token Ids to transfer _useZro - indicates to use zro to pay L0 fees _adapterParams - flexible bytes array to indicate messaging adapter services in L0"
      },
      "estimateSendFee(uint16,bytes,uint256,bool,bytes)": {
        "details": "estimate send token `_tokenId` to (`_dstChainId`, `_toAddress`) _dstChainId - L0 defined chain id to send tokens too _toAddress - dynamic bytes array which contains the address to whom you are sending tokens to on the dstChain _tokenId - token Id to transfer _useZro - indicates to use zro to pay L0 fees _adapterParams - flexible bytes array to indicate messaging adapter services in L0"
      },
      "getApproved(uint256)": {
        "details": "See {IERC721-getApproved}."
      },
      "isApprovedForAll(address,address)": {
        "details": "See {IERC721-isApprovedForAll}."
      },
      "name()": {
        "details": "See {IERC721Metadata-name}."
      },
      "owner()": {
        "details": "Returns the address of the current owner."
      },
      "ownerOf(uint256)": {
        "details": "See {IERC721-ownerOf}."
      },
      "renounceOwnership()": {
        "details": "Leaves the contract without owner. It will not be possible to call `onlyOwner` functions. Can only be called by the current owner. NOTE: Renouncing ownership will leave the contract without an owner, thereby disabling any functionality that is only available to the owner."
      },
      "royaltyInfo(uint256,uint256)": {
        "details": "Returns how much royalty is owed and to whom, based on a sale price that may be denominated in any unit of exchange. The royalty amount is denominated and should be paid in that same unit of exchange."
      },
      "safeTransferFrom(address,address,uint256)": {
        "details": "See {IERC721-safeTransferFrom}."
      },
      "safeTransferFrom(address,address,uint256,bytes)": {
        "details": "See {IERC721-safeTransferFrom}."
      },
      "sendBatchFrom(address,uint16,bytes,uint256[],address,address,bytes)": {
        "details": "send tokens `_tokenIds[]` to (`_dstChainId`, `_toAddress`) from `_from` `_toAddress` can be any size depending on the `dstChainId`. `_zroPaymentAddress` set to address(0x0) if not paying in ZRO (LayerZero Token) `_adapterParams` is a flexible bytes array to indicate messaging adapter services"
      },
      "sendFrom(address,uint16,bytes,uint256,address,address,bytes)": {
        "details": "send token `_tokenId` to (`_dstChainId`, `_toAddress`) from `_from` `_toAddress` can be any size depending on the `dstChainId`. `_zroPaymentAddress` set to address(0x0) if not paying in ZRO (LayerZero Token) `_adapterParams` is a flexible bytes array to indicate messaging adapter services"
      },
      "symbol()": {
        "details": "See {IERC721Metadata-symbol}."
      },
      "tokenURI(uint256)": {
        "details": "See {IERC721Metadata-tokenURI}."
      },
      "transferOwnership(address)": {
        "details": "Transfers ownership of the contract to a new account (`newOwner`). Can only be called by the current owner."
      }
    },
    "version": 1
  },
  "userdoc": {
    "kind": "user",
    "methods": {},
    "version": 1
  },
  "storageLayout": {
    "storage": [
      {
        "astId": 2505,
        "contract": "contracts/SKB/SpheraHead.sol:SpheraHead",
        "label": "_owner",
        "offset": 0,
        "slot": "0",
        "type": "t_address"
      },
      {
        "astId": 455,
        "contract": "contracts/SKB/SpheraHead.sol:SpheraHead",
        "label": "trustedRemoteLookup",
        "offset": 0,
        "slot": "1",
        "type": "t_mapping(t_uint16,t_bytes_storage)"
      },
      {
        "astId": 461,
        "contract": "contracts/SKB/SpheraHead.sol:SpheraHead",
        "label": "minDstGasLookup",
        "offset": 0,
        "slot": "2",
        "type": "t_mapping(t_uint16,t_mapping(t_uint16,t_uint256))"
      },
      {
        "astId": 465,
        "contract": "contracts/SKB/SpheraHead.sol:SpheraHead",
        "label": "payloadSizeLimitLookup",
        "offset": 0,
        "slot": "3",
        "type": "t_mapping(t_uint16,t_uint256)"
      },
      {
        "astId": 467,
        "contract": "contracts/SKB/SpheraHead.sol:SpheraHead",
        "label": "precrime",
        "offset": 0,
        "slot": "4",
        "type": "t_address"
      },
      {
        "astId": 997,
        "contract": "contracts/SKB/SpheraHead.sol:SpheraHead",
        "label": "failedMessages",
        "offset": 0,
        "slot": "5",
        "type": "t_mapping(t_uint16,t_mapping(t_bytes_memory_ptr,t_mapping(t_uint64,t_bytes32)))"
      },
      {
        "astId": 3799,
        "contract": "contracts/SKB/SpheraHead.sol:SpheraHead",
        "label": "_defaultRoyaltyInfo",
        "offset": 0,
        "slot": "6",
        "type": "t_struct(RoyaltyInfo)3796_storage"
      },
      {
        "astId": 3804,
        "contract": "contracts/SKB/SpheraHead.sol:SpheraHead",
        "label": "_tokenRoyaltyInfo",
        "offset": 0,
        "slot": "7",
        "type": "t_mapping(t_uint256,t_struct(RoyaltyInfo)3796_storage)"
      },
      {
        "astId": 2640,
        "contract": "contracts/SKB/SpheraHead.sol:SpheraHead",
        "label": "_status",
        "offset": 0,
        "slot": "8",
        "type": "t_uint256"
      },
      {
        "astId": 1718,
        "contract": "contracts/SKB/SpheraHead.sol:SpheraHead",
        "label": "minGasToTransferAndStore",
        "offset": 0,
        "slot": "9",
        "type": "t_uint256"
      },
      {
        "astId": 1722,
        "contract": "contracts/SKB/SpheraHead.sol:SpheraHead",
        "label": "dstChainIdToBatchLimit",
        "offset": 0,
        "slot": "10",
        "type": "t_mapping(t_uint16,t_uint256)"
      },
      {
        "astId": 1726,
        "contract": "contracts/SKB/SpheraHead.sol:SpheraHead",
        "label": "dstChainIdToTransferGas",
        "offset": 0,
        "slot": "11",
        "type": "t_mapping(t_uint16,t_uint256)"
      },
      {
        "astId": 1731,
        "contract": "contracts/SKB/SpheraHead.sol:SpheraHead",
        "label": "storedCredits",
        "offset": 0,
        "slot": "12",
        "type": "t_mapping(t_bytes32,t_struct(StoredCredit)1716_storage)"
      },
      {
        "astId": 2720,
        "contract": "contracts/SKB/SpheraHead.sol:SpheraHead",
        "label": "_name",
        "offset": 0,
        "slot": "13",
        "type": "t_string_storage"
      },
      {
        "astId": 2722,
        "contract": "contracts/SKB/SpheraHead.sol:SpheraHead",
        "label": "_symbol",
        "offset": 0,
        "slot": "14",
        "type": "t_string_storage"
      },
      {
        "astId": 2726,
        "contract": "contracts/SKB/SpheraHead.sol:SpheraHead",
        "label": "_owners",
        "offset": 0,
        "slot": "15",
        "type": "t_mapping(t_uint256,t_address)"
      },
      {
        "astId": 2730,
        "contract": "contracts/SKB/SpheraHead.sol:SpheraHead",
        "label": "_balances",
        "offset": 0,
        "slot": "16",
        "type": "t_mapping(t_address,t_uint256)"
      },
      {
        "astId": 2734,
        "contract": "contracts/SKB/SpheraHead.sol:SpheraHead",
        "label": "_tokenApprovals",
        "offset": 0,
        "slot": "17",
        "type": "t_mapping(t_uint256,t_address)"
      },
      {
        "astId": 2740,
        "contract": "contracts/SKB/SpheraHead.sol:SpheraHead",
        "label": "_operatorApprovals",
        "offset": 0,
        "slot": "18",
        "type": "t_mapping(t_address,t_mapping(t_address,t_bool))"
      },
      {
        "astId": 6615,
        "contract": "contracts/SKB/SpheraHead.sol:SpheraHead",
        "label": "realOwner",
        "offset": 0,
        "slot": "19",
        "type": "t_address"
      },
      {
        "astId": 6719,
        "contract": "contracts/SKB/SpheraHead.sol:SpheraHead",
        "label": "operatorFilteringEnabled",
        "offset": 20,
        "slot": "19",
        "type": "t_bool"
      },
      {
        "astId": 6722,
        "contract": "contracts/SKB/SpheraHead.sol:SpheraHead",
        "label": "isRegistryActive",
        "offset": 21,
        "slot": "19",
        "type": "t_bool"
      },
      {
        "astId": 6724,
        "contract": "contracts/SKB/SpheraHead.sol:SpheraHead",
        "label": "registryAddress",
        "offset": 0,
        "slot": "20",
        "type": "t_address"
      },
      {
        "astId": 6732,
        "contract": "contracts/SKB/SpheraHead.sol:SpheraHead",
        "label": "redeemInfo",
        "offset": 0,
        "slot": "21",
        "type": "t_struct(RedeemInfo)6729_storage"
      },
      {
        "astId": 6736,
        "contract": "contracts/SKB/SpheraHead.sol:SpheraHead",
        "label": "_numAvailableRemainingTokens",
        "offset": 0,
        "slot": "22",
        "type": "t_uint16"
      },
      {
        "astId": 6740,
        "contract": "contracts/SKB/SpheraHead.sol:SpheraHead",
        "label": "_availableRemainingTokens",
        "offset": 0,
        "slot": "23",
        "type": "t_array(t_uint16)65536_storage"
      },
      {
        "astId": 7110,
        "contract": "contracts/SKB/SpheraHead.sol:SpheraHead",
        "label": "_baseTokenURI",
        "offset": 0,
        "slot": "4119",
        "type": "t_string_storage"
      },
      {
        "astId": 7112,
        "contract": "contracts/SKB/SpheraHead.sol:SpheraHead",
        "label": "_baseTokenURIPermanent",
        "offset": 0,
        "slot": "4120",
        "type": "t_string_storage"
      },
      {
        "astId": 7115,
        "contract": "contracts/SKB/SpheraHead.sol:SpheraHead",
        "label": "_isUriPermanentForToken",
        "offset": 0,
        "slot": "4121",
        "type": "t_struct(BitMap)6478_storage"
      }
    ],
    "types": {
      "t_address": {
        "encoding": "inplace",
        "label": "address",
        "numberOfBytes": "20"
      },
      "t_array(t_uint16)65536_storage": {
        "base": "t_uint16",
        "encoding": "inplace",
        "label": "uint16[65536]",
        "numberOfBytes": "131072"
      },
      "t_bool": {
        "encoding": "inplace",
        "label": "bool",
        "numberOfBytes": "1"
      },
      "t_bytes32": {
        "encoding": "inplace",
        "label": "bytes32",
        "numberOfBytes": "32"
      },
      "t_bytes_memory_ptr": {
        "encoding": "bytes",
        "label": "bytes",
        "numberOfBytes": "32"
      },
      "t_bytes_storage": {
        "encoding": "bytes",
        "label": "bytes",
        "numberOfBytes": "32"
      },
      "t_mapping(t_address,t_bool)": {
        "encoding": "mapping",
        "key": "t_address",
        "label": "mapping(address => bool)",
        "numberOfBytes": "32",
        "value": "t_bool"
      },
      "t_mapping(t_address,t_mapping(t_address,t_bool))": {
        "encoding": "mapping",
        "key": "t_address",
        "label": "mapping(address => mapping(address => bool))",
        "numberOfBytes": "32",
        "value": "t_mapping(t_address,t_bool)"
      },
      "t_mapping(t_address,t_uint256)": {
        "encoding": "mapping",
        "key": "t_address",
        "label": "mapping(address => uint256)",
        "numberOfBytes": "32",
        "value": "t_uint256"
      },
      "t_mapping(t_bytes32,t_struct(StoredCredit)1716_storage)": {
        "encoding": "mapping",
        "key": "t_bytes32",
        "label": "mapping(bytes32 => struct ONFT721Core.StoredCredit)",
        "numberOfBytes": "32",
        "value": "t_struct(StoredCredit)1716_storage"
      },
      "t_mapping(t_bytes_memory_ptr,t_mapping(t_uint64,t_bytes32))": {
        "encoding": "mapping",
        "key": "t_bytes_memory_ptr",
        "label": "mapping(bytes => mapping(uint64 => bytes32))",
        "numberOfBytes": "32",
        "value": "t_mapping(t_uint64,t_bytes32)"
      },
      "t_mapping(t_uint16,t_bytes_storage)": {
        "encoding": "mapping",
        "key": "t_uint16",
        "label": "mapping(uint16 => bytes)",
        "numberOfBytes": "32",
        "value": "t_bytes_storage"
      },
      "t_mapping(t_uint16,t_mapping(t_bytes_memory_ptr,t_mapping(t_uint64,t_bytes32)))": {
        "encoding": "mapping",
        "key": "t_uint16",
        "label": "mapping(uint16 => mapping(bytes => mapping(uint64 => bytes32)))",
        "numberOfBytes": "32",
        "value": "t_mapping(t_bytes_memory_ptr,t_mapping(t_uint64,t_bytes32))"
      },
      "t_mapping(t_uint16,t_mapping(t_uint16,t_uint256))": {
        "encoding": "mapping",
        "key": "t_uint16",
        "label": "mapping(uint16 => mapping(uint16 => uint256))",
        "numberOfBytes": "32",
        "value": "t_mapping(t_uint16,t_uint256)"
      },
      "t_mapping(t_uint16,t_uint256)": {
        "encoding": "mapping",
        "key": "t_uint16",
        "label": "mapping(uint16 => uint256)",
        "numberOfBytes": "32",
        "value": "t_uint256"
      },
      "t_mapping(t_uint256,t_address)": {
        "encoding": "mapping",
        "key": "t_uint256",
        "label": "mapping(uint256 => address)",
        "numberOfBytes": "32",
        "value": "t_address"
      },
      "t_mapping(t_uint256,t_struct(RoyaltyInfo)3796_storage)": {
        "encoding": "mapping",
        "key": "t_uint256",
        "label": "mapping(uint256 => struct ERC2981.RoyaltyInfo)",
        "numberOfBytes": "32",
        "value": "t_struct(RoyaltyInfo)3796_storage"
      },
      "t_mapping(t_uint256,t_uint256)": {
        "encoding": "mapping",
        "key": "t_uint256",
        "label": "mapping(uint256 => uint256)",
        "numberOfBytes": "32",
        "value": "t_uint256"
      },
      "t_mapping(t_uint64,t_bytes32)": {
        "encoding": "mapping",
        "key": "t_uint64",
        "label": "mapping(uint64 => bytes32)",
        "numberOfBytes": "32",
        "value": "t_bytes32"
      },
      "t_string_storage": {
        "encoding": "bytes",
        "label": "string",
        "numberOfBytes": "32"
      },
      "t_struct(BitMap)6478_storage": {
        "encoding": "inplace",
        "label": "struct BitMaps.BitMap",
        "members": [
          {
            "astId": 6477,
            "contract": "contracts/SKB/SpheraHead.sol:SpheraHead",
            "label": "_data",
            "offset": 0,
            "slot": "0",
            "type": "t_mapping(t_uint256,t_uint256)"
          }
        ],
        "numberOfBytes": "32"
      },
      "t_struct(RedeemInfo)6729_storage": {
        "encoding": "inplace",
        "label": "struct SpheraHead.RedeemInfo",
        "members": [
          {
            "astId": 6726,
            "contract": "contracts/SKB/SpheraHead.sol:SpheraHead",
            "label": "redeemBagOpen",
            "offset": 0,
            "slot": "0",
            "type": "t_bool"
          },
          {
            "astId": 6728,
            "contract": "contracts/SKB/SpheraHead.sol:SpheraHead",
            "label": "bagAddress",
            "offset": 1,
            "slot": "0",
            "type": "t_address"
          }
        ],
        "numberOfBytes": "32"
      },
      "t_struct(RoyaltyInfo)3796_storage": {
        "encoding": "inplace",
        "label": "struct ERC2981.RoyaltyInfo",
        "members": [
          {
            "astId": 3793,
            "contract": "contracts/SKB/SpheraHead.sol:SpheraHead",
            "label": "receiver",
            "offset": 0,
            "slot": "0",
            "type": "t_address"
          },
          {
            "astId": 3795,
            "contract": "contracts/SKB/SpheraHead.sol:SpheraHead",
            "label": "royaltyFraction",
            "offset": 20,
            "slot": "0",
            "type": "t_uint96"
          }
        ],
        "numberOfBytes": "32"
      },
      "t_struct(StoredCredit)1716_storage": {
        "encoding": "inplace",
        "label": "struct ONFT721Core.StoredCredit",
        "members": [
          {
            "astId": 1709,
            "contract": "contracts/SKB/SpheraHead.sol:SpheraHead",
            "label": "srcChainId",
            "offset": 0,
            "slot": "0",
            "type": "t_uint16"
          },
          {
            "astId": 1711,
            "contract": "contracts/SKB/SpheraHead.sol:SpheraHead",
            "label": "toAddress",
            "offset": 2,
            "slot": "0",
            "type": "t_address"
          },
          {
            "astId": 1713,
            "contract": "contracts/SKB/SpheraHead.sol:SpheraHead",
            "label": "index",
            "offset": 0,
            "slot": "1",
            "type": "t_uint256"
          },
          {
            "astId": 1715,
            "contract": "contracts/SKB/SpheraHead.sol:SpheraHead",
            "label": "creditsRemain",
            "offset": 0,
            "slot": "2",
            "type": "t_bool"
          }
        ],
        "numberOfBytes": "96"
      },
      "t_uint16": {
        "encoding": "inplace",
        "label": "uint16",
        "numberOfBytes": "2"
      },
      "t_uint256": {
        "encoding": "inplace",
        "label": "uint256",
        "numberOfBytes": "32"
      },
      "t_uint64": {
        "encoding": "inplace",
        "label": "uint64",
        "numberOfBytes": "8"
      },
      "t_uint96": {
        "encoding": "inplace",
        "label": "uint96",
        "numberOfBytes": "12"
      }
    }
  }
}